:100000000C94ED050C9435060C9435060C943506CD
:100010000C9435060C9435060C9435060C94350674
:100020000C9435060C9435060C94E00E0C94B40F29
:100030000C94411D0C9435060C9435060C94350631
:100040000C9435060C9435060C9435060C94350644
:100050000C9435060C94B31D0C9435060C9435069F
:100060000C9435060C9462070C9435060C943506F6
:100070000C9435060C9435060C9435060C94350614
:100080000C9435060C9435060C9435060C94350604
:100090000C9435060C9435060C9435060C943506F4
:1000A0000C9435060C9435060C94350600000000BF
:1000B000291E1F20212223242526272D2E2A2B14FA
:1000C0001A0815171C180C12132F302800041607D5
:1000D000090A0B0D0E0F333435E1001D1B061905FF
:1000E0001110363738E5E000002C00E25756555421
:1000F000535F6061585C5D5E00595A5B62006385C6
:1001000044454A4B4D4E005251504F000000003ABA
:100110003B3C3D3E3F40414243390000000000006F
:1001200000000000000000000000000000000000CF
:10013000000000000000000000000000200025304A
:100140003258000A4B6579626F6172642073746182
:1001500072742E0A000A55534220636F6E666967F7
:10016000757265642E0A000A0A544D4B3A38663897
:1001700036643132352F4C5546410A0A003A035352
:10018000004F004E00590020004E0045005700531C
:100190000020006B006500790062006F0061007252
:1001A000006400200063006F006E0076006500723E
:1001B0000074006500720000000E0374002E006DD4
:1001C000002E006B002E0000000403090409028DBC
:1001D00000050100A032090400000103010100092B
:1001E00021110100012240000705810308000A09CE
:1001F0000401000103010200092111010001224D47
:10020000000705820308000A090402000103000038
:1002100000092111010001223600070583030800AF
:100220000A09040300020300000009211101000172
:100230002222000705840320000107050403200093
:10024000010904040001030000000921110100015B
:10025000223900070585032000011201100100006A
:100260000008EDFE21500100010200010501090610
:10027000A101050719E029E7150025019508750179
:10028000810205081901290595057501910295015D
:10029000750391010507190029F71500250195F847
:1002A00075018102C00631FF0974A10109751500AD
:1002B00026FF009520750881020976150026FF00AB
:1002C000952075089102C005010980A101850216DB
:1002D00001002637001A81002AB7007510950181A8
:1002E00000C0050C0901A1018503160100269C022E
:1002F0001A01002A9C02751095018100C0050109B0
:1003000002A1010901A1000509190129051500250E
:1003100001950575018102950175038101050109AA
:100320003009311581257F95027508810609381538
:1003300081257F950175088106050C0A3802158113
:10034000257F950175088106C0C005010906A10138
:10035000050719E029E715002501950875018102B7
:100360009501750881010508190129059505750193
:1003700091029501750391010507190029FF1500E8
:1003800026FF00950675088100C0636F6E73756D5A
:1003900065723A20253034580A0073797374656D9C
:1003A0003A20253034580A000A00253032582000FF
:1003B0006B6579626F6172643A20004C45443A2063
:1003C000253032580A00253032583A20253038621C
:1003D00025730A00722F63203031323334353637BB
:1003E0000A0064656C5F6B65795F6269743A2063CB
:1003F000616E27742064656C3A20253032580A00FB
:100400006164645F6B65795F6269743A2063616EF1
:100410002774206164643A20253032580A00646FE2
:100420006E652E0A00626F6F746D61676963207379
:1004300063616E3A202E2E2E2000290A00257500B9
:100440002F002575005D280025640020002564002C
:10045000200025640020002564007C0025303258EF
:10046000006D6F7573656B6579205B62746E7C7867
:100470002079207620685D287265702F61636C2971
:100480003A205B006D6B5F776865656C5F74696DC2
:10049000655F746F5F6D6178203D2025640A006D93
:1004A0006B5F776865656C5F6D61785F73706565BC
:1004B00064203D2025640A006D6B5F74696D655F83
:1004C000746F5F6D6178203D2025640A006D6B5F5D
:1004D0006D61785F7370656564203D2025640A0056
:1004E0006D6B5F696E74657276616C203D2025646A
:1004F0000A006D6B5F64656C6179203D2025640A9C
:10050000006D6B5F776865656C5F74696D655F74BE
:100510006F5F6D6178203D2025640A006D6B5F7709
:100520006865656C5F6D61785F7370656564203DBB
:100530002025640A006D6B5F74696D655F746F5F81
:100540006D6178203D2025640A006D6B5F6D6178D8
:100550005F7370656564203D2025640A006D6B5FE4
:10056000696E74657276616C203D2025640A006DA9
:100570006B5F64656C6179203D2025640A000A0088
:10058000257500363A20776865656C5F74696D651E
:100590005F746F5F6D61783A20000A002575003541
:1005A0003A20776865656C5F6D61785F737065652B
:1005B000643A20000A00257500343A2074696D659C
:1005C0005F746F5F6D61783A20000A002575003313
:1005D0003A206D61785F73706565643A20000A00A7
:1005E000257500323A20696E74657276616C286DEB
:1005F00073293A20000A00257500313A2064656CA1
:100600006179282A31306D73293A20000A092D209A
:1006100056616C756573202D0A004D3E004D2564B2
:100620003E20003F007365742064656661756C74DC
:100630000A00433E200077686572652064656C742B
:10064000613A20637572736F723D25642C20776860
:1006500065656C3D25640A53656520687474703A5D
:100660002F2F656E2E77696B6970656469612E6FD7
:1006700072672F77696B692F4D6F7573655F6B6557
:1006800079730A000A092D204D6F7573656B6579C2
:10069000202D0A4553432F713A09717569740A3147
:1006A0003A0964656C6179282A31306D73290A3200
:1006B0003A09696E74657276616C286D73290A3324
:1006C0003A096D61785F73706565640A343A09743C
:1006D000696D655F746F5F6D61780A353A09776897
:1006E00065656C5F6D61785F73706565640A363A45
:1006F00009776865656C5F74696D655F746F5F6DC0
:1007000061780A0A703A097072696E742076616CB9
:100710007565730A643A097365742064656661756A
:100720006C74730A75703A092B310A646F776E3AEC
:10073000092D310A706775703A092B31300A7067DC
:10074000646F776E3A092D31300A0A7370656564FB
:10075000203D2064656C7461202A206D61785F7390
:1007600070656564202A2028726570656174202F89
:100770002074696D655F746F5F6D6178290A003F51
:10078000004D3E2000433E20004C25640A000A092B
:100790002D20436F6E736F6C65202D0A4553432FD8
:1007A000713A09717569740A6D3A096D6F757365EF
:1007B0006B65790A000A092D204D61676963202D58
:1007C0000A643A0964656275670A783A0964656281
:1007D0007567206D61747269780A6B3A09646562A5
:1007E0007567206B6579626F6172640A6D3A09649E
:1007F00065627567206D6F7573650A763A0976656F
:100800007273696F6E0A733A097374617475730A4F
:10081000633A09636F6E736F6C65206D6F64650A70
:10082000302D343A096C61796572302D34284631A7
:10083000302D4634290A506175733A09626F6F741E
:100840006C6F616465720A653A09656570726F6DF7
:100850000A6E3A094E4B524F0A000A002575002EC7
:100860006E6B726F3A20000A002575002E73776157
:10087000705F6261636B736C6173685F6261636B0D
:1008800073706163653A20000A002575002E737746
:1008900061705F67726176655F6573633A20000A15
:1008A000002575002E6E6F5F6775693A20000A009B
:1008B0002575002E737761705F72616C745F72676B
:1008C00075693A20000A002575002E737761705F04
:1008D0006C616C745F6C6775693A20000A0025755D
:1008E000002E636170736C6F636B5F746F5F636F17
:1008F0006E74726F6C3A20000A002575002E7377B3
:1009000061705F636F6E74726F6C5F636170736C44
:100910006F636B3A20000A0025303258006B65790E
:100920006D61705F636F6E6669672E7261773A20E2
:10093000000A002575002E6D6F7573653A20000A58
:10094000002575002E6B6579626F6172643A200034
:100950000A002575002E6D61747269783A20000ACC
:10096000002575002E656E61626C653A20000A00F4
:10097000253032580064656275675F636F6E666923
:10098000672E7261773A20000A002575006465665B
:1009900061756C745F6C617965723A20003F004E3E
:1009A0004B524F3A206F66660A004E4B524F3A2028
:1009B0006F6E0A0074696D65725F726561643332CF
:1009C00028293A202530346C580A006B6579626F0B
:1009D0006172645F6E6B726F3A2025580A006B6516
:1009E00079626F6172645F69646C653A2025580AA8
:1009F000006B6579626F6172645F70726F746F63B0
:100A00006F6C3A2025580A00686F73745F6B6579C4
:100A1000626F6172645F6C65647328293A2025589F
:100A20000A000A092D20537461747573202D0A0081
:100A30004743433A20382E332E30204156522D4C16
:100A40004942433A20322E302E30204156525F41E7
:100A50005243483A20617672350A004F5054494F4C
:100A60004E533A204C55464120424F4F544D41473A
:100A70004943204D4F5553454B45592045585452F5
:100A8000414B455920434F4E534F4C4520434F4D0A
:100A90004D414E44204E4B524F20343039360A00DF
:100AA0004255494C443A2038663836643132352054
:100AB0002831353A35393A313920446563203133AC
:100AC0002032303230290A005649443A20307846E4
:100AD00045454428742E6D2E6B2E29205049443AEA
:100AE0002030783530323128534F4E59204E4557FB
:100AF00053206B6579626F61726420636F6E7665F7
:100B00007274657229205645523A20307830303060
:100B1000310A00444553433A20636F6E7665727420
:100B20007320534F4E59204E4557532070726F74A7
:100B30006F636F6C20696E746F205553420A000A10
:100B4000092D2056657273696F6E202D0A000A6D9B
:100B50006F7573653A206F66660A000A6D6F75736C
:100B6000653A206F6E0A000A6B6579626F61726484
:100B70003A206F66660A000A6B6579626F6172647B
:100B80003A206F6E0A000A6D61747269783A206FBC
:100B900066660A000A6D61747269783A206F6E0A9F
:100BA000000A64656275673A206F6E0A000A646520
:100BB0006275673A206F66660A000A0A626F6F7490
:100BC0006C6F616465722E2E2E2000433E200065FE
:100BD00065636F6E6669673A0A0011241FBECFEF26
:100BE000DAE0DEBFCDBF04B603FE28C080919903D2
:100BF00090919A03A0919B03B0919C038730904BF6
:100C0000A740B04BD9F41092990310929A03109216
:100C10009B0310929C0314BE0FB6F894A895809184
:100C20006000886180936000109260000FBE109297
:100C3000010810920008E0E0F8E3099511E0A0E057
:100C4000B1E0E6E6F4E502C005900D92AE33B107DF
:100C5000D9F723E0AEE3B1E001C01D92A939B20794
:100C6000E1F70E945B0A0C94172A0C940000FF9392
:100C7000EF93E0913E01F0913F01309709F0099523
:100C8000EF91FF910895FC018591803011F0EFDF25
:100C9000FBCF0895FF27E0E230E247FF0CC041950B
:100CA00097FF09C0EDE26095709580959095611D64
:100CB000711D811D911D27FF02C0219530E350E277
:100CC000AA27660F771F881F991FAA1FA41710F065
:100CD000A41B63955A95A9F7AA3008F0A95FA05DF7
:100CE000AF93F395611571058105910541F7ED32DB
:100CF00011F4EF93F395F21718F43F93F395FBCFAC
:100D00008F91B5DFFA95E1F70895E991F991859111
:100D1000803021F0853219F0AADFF9CF089520E064
:100D2000E89455915532C1F3503311F468945591BC
:100D30005A3348F4505390F3220F022E220F220F01
:100D4000200D250FF4CF0EF42195899199915336FA
:100D500019F3533729F1533559F1BC0188279927E5
:100D6000E8945C3621F489919991689455915436B0
:100D700039F446EF7EF077FF0DC08FEF9FEF0AC08A
:100D800055374AE039F0583540E121F0523642E01B
:100D900009F00895FF93EF937DDFEF91FF91B7CFB7
:100DA000FF93EF93FC0181918030B9F360DFFBCFBB
:100DB000FF93EF9368DFF1CFDF93CF93CDB7DEB72B
:100DC0002596A3DFCF91DF9108950E944307E0E4C9
:100DD000F1E0119281E0E035F807D9F708951F930B
:100DE000CF93DF930E944E07D82F882369F11F927B
:100DF0008F938EE391E09F938F930E94DC068CE3A8
:100E000091E00E9443061D2F1770CD2FC695C69501
:100E1000C6950F900F900F900F90D7FF1AC0CF700C
:100E2000612F8C2F0E947211882371F0EC2FF0E05B
:100E3000E05CFE4F81E090E001C0880F1A95EAF770
:100E400080959081892380838D2FDF91CF911F9191
:100E50000895612F8C2F0E9472118111F5CFEC2F14
:100E6000F0E0E05CFE4F21E030E001C0220F1A9577
:100E7000EAF78081822BE7CFE82FF0E0E05CFE4FBD
:100E800080810895089587E68093CC001092CD006C
:100E9000E9ECF0E080818069808308952091500121
:100EA00080915101821761F030E0F901EE5AFE4F56
:100EB00080812F5F3F4F2770332720935001089583
:100EC00080E008952F932FB72F933F934F938F93E5
:100ED0009F93EF93FF938091510190E09C012F5FCE
:100EE0003F4F2770332740915001421741F0309116
:100EF000CE008E5A9E4FFC01308320935101FF910A
:100F0000EF919F918F914F913F912F912FBF2F91F3
:100F1000189580917E020895CF93DF9300D00F92B1
:100F2000CDB7DEB79C0180918F03843019F593E033
:100F300099833B832A839093E9008FEF9091E80097
:100F4000815095FD06C095ED9A95F1F7000081114D
:100F5000F5CF8091E80085FF0DC050E040E063E0F0
:100F600070E0CE0101960E94070C8091E8008E7718
:100F70008093E8000F900F900F90DF91CF9108952C
:100F8000CF93DF9300D00F92CDB7DEB720918F03C0
:100F9000243031F522E02983805891099B838A838C
:100FA00083E08093E9008FEF9091E800815095FDF8
:100FB00006C095ED9A95F1F700008111F5CF80916B
:100FC000E80085FF0DC050E040E063E070E0CE0136
:100FD00001960E94070C8091E8008E778093E800CC
:100FE0000F900F900F90DF91CF9108959C01809109
:100FF0008F038430F9F482E08093E9009FEF8091C1
:10100000E800915085FD06C085ED8A95F1F7000056
:101010009111F5CF8091E80085FF0CC050E040E0D1
:1010200065E070E0C9010E94070C8091E8008E77AE
:101030008093E8000895CF93DF93EC0180918F03B4
:101040008430D1F4809110018823F1F08091110156
:101050008823D1F085E08093E90081E8815021F078
:101060009091E80095FF0BC08091E80050E040E0CF
:1010700060E270E085FD1AC0DF91CF9108959AE299
:101080009A95F1F700C0EACF81E08093E90081E80A
:10109000815021F09091E80095FF19C08091E800FF
:1010A00085FFEACF50E040E068E070E0CE010E94AA
:1010B000070C8091E8008E778093E80080E2FE01C3
:1010C000AEE5B2E001900D928A95E1F7D5CFEFE35E
:1010D000F1E03197F1F700C00000DACFCF93C09173
:1010E0005C01C1110BC00E947D1D643C79408105EB
:1010F000910520F081E080935C01C1E08C2FCF91BD
:101100000895FF920F931F93CF93DF93D82F0FB6BD
:1011100007FE45C080918F03843071F080910301F8
:1011200090E001962091050130E0822393232091E5
:1011300004012817190699F50E946E0881110EC046
:101140008091030190E001962091050130E0822317
:101150009323209104012817190609F50E94711D97
:101160008C01C091E900CF709091EC00892F8170C3
:1011700090FD80E8C82B84E08093E90085E0F82E9C
:101180008091EB0085FD08C08091EB0080FF04C0DA
:101190008091EE0087FD43C0CF70C093E90080913D
:1011A000030190E09C012F5F3F4F4091050150E00B
:1011B00024233523409104014217130609F47DC00E
:1011C0002091010130910201820F931FFC01D08315
:1011D000809103018F5F9091050189238093030122
:1011E0006CC0E0910101F0910201E80FF11D9081C6
:1011F0008F5F209105018223809304019093F10079
:101200008091E80085FD0BC08091E80080FF07C059
:101210008091E8008E778093E800F0920001809141
:101220000401209103019091E800281731F195FD08
:10123000D8CF90E027C01092F1002FC030E02F5F90
:101240003F4F4091050150E02423352382171306B8
:1012500009F0A2CF80910001882309F49DCF0E945C
:10126000711D9C018017910709F48ACF90910001AC
:10127000915090930001890183CF95FFDACFD093ED
:10128000F10091E03091F3004091F200532F452B93
:1012900079F03091E80030FF0BC03091E80035FD67
:1012A000CACF3091E8003E773093E800F092000119
:1012B000992321F2CF70C093E90080E0DF91CF91B4
:1012C0001F910F91FF90089580918E03811104C0AA
:1012D0000E94650E0C94C20E089510928E0308951C
:1012E000089542E061EC81E00E94830B42E061ECF2
:1012F00082E00E94830B42E061EC83E00E94830B5A
:1013000042E261EC84E00E94830B42E261EC85E002
:101310000C94830B80919103833009F455C030F411
:10132000813071F1823009F491C008958A3009F456
:101330007DC08B3009F463C0893009F044C08091CE
:101340009003813209F03FC08091940390919503FE
:10135000009711F00497B9F58091E800877F80939A
:10136000E8008091E80082FF2AC08091F10080931C
:101370007E028091E8008B778093E8000C94B70B95
:1013800080919003813AF9F48091E800877F8093FF
:10139000E8008091940390919503892B61F460E2B9
:1013A0008EE592E070E00E94560C8091E8008B7709
:1013B0008093E800089560E090E080E0F3CF8091B2
:1013C0008F038111CECF089580919003813AD9F790
:1013D0008091940390919503892BA9F78091E8005F
:1013E000877F8093E8008091E80080FFFCCF8091A8
:1013F00010018093F1008091E8008E77BDCF80913D
:101400009003813201F78091940390919503892B89
:10141000D1F68091E800877F8093E8000E94B70BA7
:1014200080919203809310010C94D31280919003C9
:10143000813249F68091E800877F8093E8000E941E
:10144000B70B8091930380937F020895809190035E
:10145000813A09F0B8CF8091E800877F8093E80057
:101460008091E80080FFFCCF80917F02C2CF089579
:10147000089580917E0280935D0110927E020E9409
:1014800070110C94D3120C94390A0E94001D8091A3
:101490008D03882329F00E94291D81110C946D0B66
:1014A00008950E943D1D80915D0180937E02089504
:1014B0000C94510A089584B7877F84BF0FB6F894BF
:1014C000A895809160008861809360001092600010
:1014D0000FBE80E890E00FB6F8948093610090937F
:1014E00061000FBE81E898E00E94CC1C86E091E08C
:1014F0000E94F90F87E691E00E9443060E94370A96
:101500000E94BB100E94650E0E94C20E78940E9439
:10151000BD1080918F03843009F044C085E591E0CF
:101520000E9443060E94380A83E491E00E94430629
:10153000C4E080918F038530C1F10E94C3102091D7
:10154000E4003091E50080915A0190915B012817E9
:10155000390779F38091E4009091E50090935B0165
:1015600080935A010E946E08882319F380918F039B
:101570008430F9F69091E9009F702091EC00822F61
:10158000817020FD80E8892BC093E9009091EB00E9
:1015900090FF04C09091EE0097FD26C08F7080935D
:1015A000E900C7CF0E945A0AB4CF0E94450AC1CFB2
:1015B000E0910101F0910201E90FF11D20819F5F8F
:1015C000309105019323909304012093F1009091B1
:1015D000E80095FD09C09091E80090FF05C090914A
:1015E000E8009E779093E800909104012091030118
:1015F000291721F02091E80025FDDACF9091F30022
:101600002091F200392F232B49F29091E80090FFAE
:10161000C5CF9091E80095FD06C09091E8009E77B7
:101620009093E800BBCF1092F100F3CF292F33271E
:101630002330310521F168F42130310509F443C02C
:101640002230310509F444C090E080E030E020E031
:1016500026C02132310551F122323105A9F765301A
:10166000710590F7FB01EE0FFF1FE15EFE4F208139
:101670003181665E7E4FFB01808190E010C099272A
:101680008130910581F0009729F00297E9F6EDE7A6
:10169000F1E002C0E9ECF1E0849190E09F01FA01F1
:1016A000318320830895E9EBF1E0F6CF65307105D1
:1016B00058F6660F771FFB01E75DFE4F20813181F1
:1016C00089E090E0ECCF82E190E02AE532E0E7CFDC
:1016D0008DE890E02DEC31E0E2CF80E189BD82E140
:1016E00089BD09B400FEFDCF8091D8008F7D809325
:1016F000D8008091E00082608093E0008091E0005B
:1017000081FDFCCF0895982F973028F08F7080933B
:10171000E90081E008959093E900242F762F50E0AE
:10172000981731F07091EC002091ED005091F0008D
:1017300021FD02C09F5FE8CF3091EB003E7F3093E8
:10174000EB003091ED003D7F3093ED003091EB00E8
:1017500031603093EB007093EC002093ED005093D8
:10176000F0002091EE0027FDE5CF80E00895809104
:10177000900387FF13C08091E80082FF06C080912C
:10178000E8008B778093E80004C080918F0381117B
:10179000F2CF089580918F038823D9F38091E800D8
:1017A00080FFF8CF8091E8008E77ECCF2091E400A5
:1017B0003091E50095E6A9012091EC00822F81701F
:1017C00020FF06C08091E80080FF06C080E00895F9
:1017D0002091E80022FD1AC080918F03882389F0B0
:1017E000853089F08091EB0085FD0FC02091E400E9
:1017F0003091E50042175307F9F29150E1F684E089
:10180000089582E0089583E0089581E00895AF92FD
:10181000BF92CF92DF92FF920F931F93CF93DF93EC
:101820006C01EB018A010E94D60BF82E811123C0B6
:101830000115110539F0F80180819181C81BD90B80
:10184000C80ED91EB12CA12C2097A9F08091E800D8
:1018500085FD22C08091E8008E778093E800011515
:101860001105A1F0F80180819181A80EB91EB18205
:10187000A08285E0F82E8F2DDF91CF911F910F91DF
:10188000FF90DF90CF90BF90AF9008950E94D60B4D
:101890008823D1F2F82EEFCFF60181916F0180936A
:1018A000F1002197FFEFAF1ABF0ACECFFC01809164
:1018B00096039091970386179707A0F0611571051D
:1018C00029F49091E8009E779093E80090E06115EC
:1018D000710551F4911108C08091E80082FF34C075
:1018E00080E00895BC01F2CF80918F038823C1F17D
:1018F0008530C1F18091E80083FD30C08091E8001F
:1019000082FDEACF8091E80080FFE1CF8091F30073
:101910002091F200382F6115710519F0283031053A
:1019200058F091E02830310509F090E02091E8006E
:101930002E772093E800CBCF81918093F100615006
:1019400071092F5F3F4FE7CF80918F03882341F0CC
:10195000853041F08091E80083FFBECF81E008959B
:1019600082E0089583E00895FC01809196039091B0
:10197000970386179707A0F06115710529F48091E8
:10198000E8008E778093E80090E06115710551F4CE
:10199000911108C08091E80082FF35C080E0089571
:1019A000BC01F2CF80918F038823C9F18530C9F142
:1019B0008091E80083FD31C08091E80082FDEACF8C
:1019C0008091E80080FFE1CF8091F3002091F20048
:1019D000382F6115710519F02830310558F091E064
:1019E0002830310509F090E08091E8008E778093EF
:1019F000E800CBCF84918093F1003196615071095A
:101A00002F5F3F4FE6CF80918F03882341F08530D1
:101A100041F08091E80083FFBDCF81E0089582E02E
:101A2000089583E008951F93CF93DF93CDB7DEB77A
:101A3000AA970FB6F894DEBF0FBECDBF80E993E042
:101A40002091F100FC012193CF01F3E088399F0739
:101A5000B9F70E948A098091E80083FF1EC1809136
:101A60009003909191039A3008F017C1E92FF0E0AC
:101A7000E75EF54D0C94CC29803899F0823809F056
:101A80000CC1809194038F70873008F006C1809359
:101A9000E9008091EB0085FB882780F91092E9002E
:101AA00006C080918C0390918D039111826090917A
:101AB000E800977F9093E8008093F1001092F10086
:101AC0008091E8008E77E5C0882309F4D3C0823086
:101AD00009F0E3C0809192038111D6C080919403F4
:101AE0008F702FEF280F263008F0D7C08093E900C1
:101AF0002091EB0020FFC8C0933031F48091EB00BF
:101B000080628093EB00C0C09091EB009061909355
:101B1000EB0021E030E001C0220F8A95EAF7209324
:101B2000EA001092EA008091EB008860EACF811110
:101B3000B4C0109192031F778091E3008078812BCD
:101B40008093E3008091E800877F8093E8000E9403
:101B5000B70B8091E80080FFFCCF8091E3008068A4
:101B60008093E30082E0111183E080938F0395C09E
:101B70008058823008F091C0809192039091930335
:101B80008C3D23E09207A1F583E08A838AE2898372
:101B90004FB7F894DE01139620E03EE051E2E32FC8
:101BA000F0E050935700E49120FF03C0E295EF70FE
:101BB0003F5FEF708E2F90E0EA30C0F0C7968D93B4
:101BC0009D932F5F243159F74FBF8091E800877FA5
:101BD0008093E8006AE270E0CE0101960E94560C04
:101BE0008091E8008B778093E80057C0C096E7CFDC
:101BF0006091940370919503AE014F5F5F4F0E9417
:101C0000160BBC01892B09F448C09091E800977F1E
:101C10009093E80089819A810E94B40CE1CF8038CA
:101C2000E1F58091E800877F8093E80080918B0345
:101C30008093F10045CF811130C090919203923092
:101C400060F58091E800877F8093E80090938B0394
:101C50000E94B70B80918B03882311F084E005C0AC
:101C60008091E30087FDFACF81E080938F030E948B
:101C7000710913C080919203813079F481E093302F
:101C800009F080E080938D031092E9008091E800D4
:101C9000877F8093E8000E94B70B8091E80083FF64
:101CA0000AC08091E800877F8093E8008091EB0074
:101CB00080628093EB00AA960FB6F894DEBF0FBE49
:101CC000CDBFDF91CF911F9108950E94D30E0E9446
:101CD000DB0EE0EEF0E0808181608083E8EDF0E0F3
:101CE00080818F77808319BCA7EDB0E08C918E7FC7
:101CF0008C9380818F7E808310928E0308950F9342
:101D00001F93CF93DF930E94D30E0E94DB0EC8ED8A
:101D1000D0E088818F7788838881806888838881F4
:101D20008F7D888319BC10928F0310928B031092C1
:101D30008D0310928C0300EE10E0F80180818B7F00
:101D4000808388818160888342E060E080E00E9437
:101D5000830BE1EEF0E080818E7F8083E2EEF0E0A5
:101D6000808181608083808188608083F8018081A8
:101D70008E7F8083888180618883DF91CF911F91DE
:101D80000F910895E8EDF0E080818F7E8083E7ED8C
:101D9000F0E080818160808384E082BF81E0809375
:101DA0008E030C947F0EE8EDF0E080818E7F8083BF
:101DB0001092E20008951092DA001092E100089566
:101DC0001F920F920FB60F9211242F933F934F93B0
:101DD0005F936F937F938F939F93AF93BF93EF9393
:101DE000FF938091E10082FF0BC08091E20082FFAF
:101DF00007C08091E1008B7F8093E1000E94F80F83
:101E00008091DA0080FF19C08091D80080FF15C052
:101E10008091DA008E7F8093DA008091D90080FF74
:101E200096C080E189BD82E189BD09B400FEFDCF85
:101E300081E080938F030E9464098091E10080FF1C
:101E400019C08091E20080FF15C08091E2008E7F72
:101E50008093E2008091E20080618093E2008091B3
:101E6000D80080628093D80019BC85E080938F03EE
:101E70000E94430A8091E10084FF2BC08091E20020
:101E800084FF27C080E189BD82E189BD89B5982F93
:101E9000917080FFFBCF8091D8008F7D8093D80018
:101EA0008091E1008F7E8093E1008091E2008F7E3F
:101EB0008093E2008091E20081608093E200809153
:101EC0008B03882309F449C084E080938F030E9428
:101ED000580A8091E10083FF29C08091E20083FFCE
:101EE00025C08091E100877F8093E10082E08093AC
:101EF0008F0310928B038091E1008E7F8093E1002D
:101F00008091E2008E7F8093E2008091E200806108
:101F10008093E20042E060E080E00E94830B8091C9
:101F2000F00088608093F0000E947009FF91EF91AB
:101F3000BF91AF919F918F917F916F915F914F91E1
:101F40003F912F910F900FBE0F901F90189519BCC5
:101F500010928F030E946D0970CF8091E30087FD7E
:101F600093E090938F03B3CF1F920F920FB60F920F
:101F700011242F933F934F935F936F937F938F938E
:101F80009F93AF93BF93CF93DF93EF93FF93D09142
:101F9000E900DF708091EC00C82FC17080FDC0E8BF
:101FA0001092E9008091F000877F8093F000789490
:101FB0000E94130D1092E9008091F00088608093D8
:101FC000F000CD2BCF70C093E900FF91EF91DF912E
:101FD000CF91BF91AF919F918F917F916F915F91C1
:101FE0004F913F912F910F900FBE0F901F9018951A
:101FF000089590938502809384020895E09184026D
:10200000F0918502309721F00190F081E02D099444
:1020100080E00895EF92FF920F931F93CF93DF9389
:102020008C01E0918402F09185023097C1F1028029
:10203000F381E02D099580917A0382FF30C080FF03
:1020400004C080EB93E00E944306D0E0C0E08AEA3F
:10205000E82E83E0F82E80917A0380FF0EC0F8010D
:10206000EC0FFD1F80811F928F93FF92EF920E94D1
:10207000DC060F900F900F900F902196C032D10583
:1020800051F780917A0380FF0AC088EA93E0DF91DC
:10209000CF911F910F91FF90EF900C944306DF9129
:1020A000CF911F910F91FF90EF900895E0918402DE
:1020B000F0918502309721F00480F581E02D09949C
:1020C0000895CF93DF93EC01809182029091830277
:1020D0008C179D0701F1D0938302C0938202E09197
:1020E0008402F09185023097B1F00680F781E02DEF
:1020F000CE01099580917A038570853061F4DF9374
:10210000CF938AE993E09F938F930E94DC060F9010
:102110000F900F900F90DF91CF910895CF93DF93A1
:10212000EC0180918002909181028C179D0701F152
:10213000D0938102C0938002E0918402F0918502E5
:102140003097B1F00084F185E02DCE0109958091A2
:102150007A038570853061F4DF93CF938AE893E04A
:102160009F938F930E94DC060F900F900F900F901B
:10217000DF91CF9108950C9471110E94681D0E9407
:10218000E5060C94771F9F92AF92BF92CF92DF9299
:10219000EF92FF920F931F93CF93DF9300D000D065
:1021A0000F92CDB7DEB70E94EF0687E8C82E82E017
:1021B000D82E10E0812F0E943C07982EF601E19066
:1021C0006F01E81699F180917A0381FD0E948611D2
:1021D000F12C01E0E9245601F1E0AF1AB1088E2D8F
:1021E0008023F9F0F9821A8391E0892D802309F484
:1021F00090E09B830E94711D8160782F9D838C836A
:1022000049815A816B818D810E94BC1149815A811B
:102210006B817C818D810E94EA1CF5018081802781
:102220008083F394000FF8E0FF12D9CF1F5F1031C5
:1022300009F0C0CF8FEF89838A831B820E94711DB2
:102240008160782F9D838C8349815A816B818D8138
:102250000E94BC110E94E91C0E94DD220E94FE0F18
:1022600090918602891749F10E94FE0F80938602A1
:1022700090917A039570953061F41F928F938BEB58
:1022800093E09F938F930E94DC060F900F900F9026
:102290000F90809186020F900F900F900F900F90EB
:1022A000DF91CF911F910F91FF90EF90DF90CF9032
:1022B000BF90AF909F900C94FB1C0F900F900F90CD
:1022C0000F900F90DF91CF911F910F91FF90EF90A2
:1022D000DF90CF90BF90AF909F9008950C944207ED
:1022E00008950895CF93C62F0E943C0721E030E067
:1022F00002C0220F331FCA95E2F790E0282339234A
:1023000081E0232B09F480E0CF910895EF92FF92B2
:102310000F931F93CF93DF9384ED93E00E944306C6
:10232000D0E0C0E083E3E82E81E0F82E06EC13E075
:102330008C2F0E943C070E94D11CFF92EF921F92AB
:102340008F93DF93CF931F930F930E94DC06219608
:102350008DB79EB708960FB6F8949EBF0FBE8DBF7F
:10236000C031D10529F7DF91CF911F910F91FF90D7
:10237000EF90089508950895CF93DF93CDB7DEB71A
:102380002B970FB6F894DEBF0FBECDBF4F83588793
:1023900069877A878B878A859B85892B21F0852F92
:1023A00084238F3FD9F41E821D8285E0FE0137967B
:1023B000DE01119601900D928A95E1F749815A81CB
:1023C0006B817C818D819E812B960FB6F894DEBF48
:1023D0000FBECDBFDF91CF910C94DF1869857A8550
:1023E0008B850E94EA1CDFCFCF93C82F882309F486
:1023F00090C08CEF8C0F813A58F48C2F0E943927B3
:10240000811187C08C2F0E94C91BCF910C94A61CF0
:1024100080E28C0F883048F4C77081E001C0880FDB
:10242000CA95EAF70E946D1CF0CF8BE58C0F8330C4
:1024300068F481E890E0C53A31F083E890E0C63A6C
:1024400011F482E890E0CF910C94611088E58C0F34
:10245000853108F05EC082EE90E0C83A09F456C0BB
:1024600089EE90E0C93A09F451C08AEE90E0CA3A88
:1024700009F44CC085EB90E0CB3A09F447C086EBF9
:1024800090E0CC3A09F442C083EB90E0CD3AF1F110
:1024900084EB90E0CE3AD1F187EB90E0CF3AB1F106
:1024A0008CEC90E0C13B91F18DEC90E0C03B71F180
:1024B00083E891E0C23B51F18AE891E0C33B31F1FE
:1024C00082E991E0C43B11F184E991E0C53BF1F070
:1024D00081E292E0C63BD1F083E292E0C73BB1F0EB
:1024E00084E292E0C83B91F085E292E0C93B71F052
:1024F00086E292E0CA3B51F087E292E0CB3B31F0BA
:1025000090E080E0CC3B11F48AE292E0CF910C9411
:102510008E10CF910895882329F19CEF980F913A5E
:1025200020F40E94171C0C94A61C90E2980F98307F
:1025300050F4877091E001C0990F8A95EAF7892FCE
:102540000E94731CF0CF9BE5980F933020F490E02D
:1025500080E00C946110885A853120F490E080E08E
:102560000C948E100895882321F00E946D1C0C9409
:10257000A61C0895882321F00E94731C0C94A61CAD
:1025800008950E948D1C0E945C1C0E94A61C0E9443
:102590007E230E94502290E080E00E94611090E033
:1025A00080E00C948E100E947D1C0C94C112AF929E
:1025B000BF92CF92DF92EF92FF920F931F93CF9330
:1025C000DF9300D000D00F92CDB7DEB75C010E9440
:1025D000FE1C811114C085E0F501DE011196019009
:1025E0000D928A95E1F7F50183819481009739F086
:1025F00040815181242F25232F3F09F0FEC20F90E7
:102600000F900F900F900F90DF91CF911F910F912E
:10261000FF90EF90DF90CF90BF90AF900895F12F93
:10262000FF70EF2E107F19F0E29440EFE422FF20BC
:10263000C9F0EE2029F08E2D0E94801C0E94A61C5D
:10264000802F0F900F900F900F900F90DF91CF91F0
:102650001F910F91FF90EF90DF90CF90BF90AF90C0
:102660000C94F411802F0E948B12EE2041F28E2DDB
:102670000E94861C0F900F900F900F900F90DF918B
:10268000CF911F910F91FF90EF90DF90CF90BF906F
:10269000AF900C94A61C212F2F70D22E107F1032D9
:1026A00019F0D29430EFD322002379F0013009F4ED
:1026B00052C0FF2009F460C0EE2059F0F501858179
:1026C00080FFBECF8F70858304C0FF2049F1E110E9
:1026D00012C08D2D0F900F900F900F900F90DF91E3
:1026E000CF911F910F91FF90EF90DF90CF90BF900F
:1026F000AF900C94B31281E0E812EBCF8D2D0F90C8
:102700000F900F900F900F90DF91CF911F910F912D
:10271000FF90EF90DF90CF90BF90AF900C94901C03
:10272000E11014C00E94931C8D2D0F900F900F90FC
:102730000F900F90DF91CF911F910F91FF90EF902D
:10274000DF90CF90BF90AF900C94BA1291E0E91651
:1027500009F455CFE7CFFF2051F0E5E0EE1508F47E
:102760004ECF0E946A1C8D2109F4B3CFDDCFF4E077
:10277000FE1508F444CFD8CFEE20B1F2802F0F9091
:102780000F900F900F900F90DF91CF911F910F91AD
:10279000FF90EF90DF90CF90BF90AF900C948B1292
:1027A000812F869586958370D1F0813009F027CFEF
:1027B000C8019370F11002C090E080E00F900F907C
:1027C0000F900F900F90DF91CF911F910F91FF907D
:1027D000EF90DF90CF90BF90AF900C948E10C80117
:1027E0009370F11002C090E080E00F900F900F9076
:1027F0000F900F90DF91CF911F910F91FF90EF906D
:10280000DF90CF90BF90AF900C946110802FFF208D
:1028100099F00E9469210F900F900F900F900F90E8
:10282000DF91CF911F910F91FF90EF90DF90CF90AC
:10283000BF90AF900C9450220E94D121ECCF812FF9
:10284000837009F071C0F110DACE202F2295269501
:102850002770220F220F602F6F70C62ED12CF12C03
:10286000E12C022E04C0CC0CDD1CEE1CFF1C0A94D3
:10287000D2F760E070E0CB0104FF0FC06FE070E0C2
:1028800080E090E004C0660F771F881F991F2A958B
:10289000D2F7609570958095909516951695137062
:1028A0001230C1F060F56C297D298E299F291130E5
:1028B00051F10F900F900F900F900F90DF91CF91EB
:1028C0001F910F91FF90EF90DF90CF90BF90AF904E
:1028D0000C943D1A6C297D298E299F290F900F9009
:1028E0000F900F900F90DF91CF911F910F91FF905C
:1028F000EF90DF90CF90BF90AF900C94571A0E944A
:102900003D1AC701B6010F900F900F900F900F90D6
:10291000DF91CF911F910F91FF90EF90DF90CF90BB
:10292000BF90AF900C94231A8695FF2011F0812F51
:102930008170882309F463CE202F22952695277075
:10294000220F220F602F6F70C62ED12CF12CE12C9C
:10295000022E04C0CC0CDD1CEE1CFF1C0A94D2F726
:1029600060E070E0CB0104FF0FC06FE070E080E03A
:1029700090E004C0660F771F881F991F2A95D2F731
:1029800060957095809590951695169513701230F8
:10299000C1F060F56C297D298E299F29113051F1F4
:1029A0000F900F900F900F900F90DF91CF911F918C
:1029B0000F91FF90EF90DF90CF90BF90AF900C946D
:1029C000021B6C297D298E299F290F900F900F9053
:1029D0000F900F90DF91CF911F910F91FF90EF908B
:1029E000DF90CF90BF90AF900C94141B0E94021BFD
:1029F000C701B6010F900F900F900F900F90DF91CD
:102A0000CF911F910F91FF90EF90DF90CF90BF90EB
:102A1000AF900C94F01A003F09F444C060F480E4D5
:102A2000800F803228F1FF2009F495C0E11008CE14
:102A3000812F8F7159C0023F09F467C008F450C05C
:102A4000033F89F7FF2009F475C0812F8F710F9024
:102A50000F900F900F900F90DF91CF911F910F91DA
:102A6000FF90EF90DF90CF90BF90AF900C94761ACC
:102A7000812F8F71102F1071FF2051F00E948B1A3F
:102A8000802F8295807F111125CE802F8F7022CECE
:102A90000E94AC1A802F8295807F111146CE802F24
:102AA0008F7043CEFF20B9F0F4E0FE1508F4A7CDF7
:102AB000812F8F710F900F900F900F900F90DF91DB
:102AC000CF911F910F91FF90EF90DF90CF90BF902B
:102AD000AF900C94CF1A25E02E1508F490CDE8CFD6
:102AE000812F8F71FF20A9F00F900F900F900F9002
:102AF0000F90DF91CF911F910F91FF90EF90DF909A
:102B0000CF90BF90AF900C948B1A812F8F71FF20C4
:102B100059F30F900F900F900F900F90DF91CF917E
:102B20001F910F91FF90EF90DF90CF90BF90AF90EB
:102B30000C94AC1A0F900F900F900F900F90DF91A4
:102B4000CF911F910F91FF90EF90DF90CF90BF90AA
:102B5000AF900C94711AE11011CE812F8F71D9CFE3
:102B6000412F4F70602FC5010E94791E0F900F906A
:102B70000F900F900F90DF91CF911F910F91FF90C9
:102B8000EF90DF90CF90BF90AF900C947919011126
:102B900036CDFF2009F433CD0E94D3128FEF90E79A
:102BA000E2E081509040E040E1F700C000000F906B
:102BB0000F900F900F900F90DF91CF911F910F9179
:102BC000FF90EF90DF90CF90BF90AF900C94D61D08
:102BD000412F4F70602FC5010F900F900F900F90F5
:102BE0000F90DF91CF911F910F91FF90EF90DF90A9
:102BF000CF90BF90AF900C947C1EF280E580E29461
:102C00002FE0E22249835A83FB82782F9D838C83B5
:102C10006F2D8D810E94271B8C010E94261B0E9414
:102C2000181AE12FE295EF70F0E0ED5DF54D0C9490
:102C3000CC29CF93DF9300D000D00F92CDB7DEB771
:102C40006B837C838D838C819D81892B21F0842FE4
:102C500085238F3F89F480E02EC090E2980F983052
:102C600008F1883E30F4803EE8F48450813A98F7C9
:102C700019C0803F81F716C06B817C818D810E94D5
:102C8000271B292F22952F702C3070F42A3048F7FB
:102C9000225F2F702230F8F6853AF8F6843010F46F
:102CA0008230F8F681E007C02C3011F02F3099F611
:102CB00093FB882780F90F900F900F900F900F9043
:102CC000DF91CF910895CF93DF9300D000D00F9282
:102CD000CDB7DEB70F900F900F900F900F90DF9150
:102CE000CF910895CF93DF9300D000D000D0CDB71F
:102CF000DEB726960FB6F894DEBF0FBECDBFDF91CC
:102D0000CF9108951F93CF93DF93C091970216E060
:102D1000809198028C1304C0DF91CF911F91089588
:102D2000D0E01C9FF0011D9FF00D1124E756FD4FD0
:102D30004081518162817381848195810E947216E4
:102D40002196C770E5CF4091C9025091CA026091A7
:102D5000CB027091CC028091CD029091CE020C9466
:102D600072161F93CF93DF938091CE02807FC1F4C0
:102D70008091CB028823A1F080919702C0919802A4
:102D80006091C9027091CA024091CC025091CD026B
:102D9000D62FD723DA01A095B09516E0C81304C04A
:102DA000DF91CF911F91089590E04115510511F0E9
:102DB000DF3F31F401968770F1CF2A0F3B1F17C018
:102DC000189FF001199FF00D1124E756FD4F218146
:102DD0002713F0CF20812613EDCF22812111EACFD6
:102DE000238134812417350740F3241B350B283CFD
:102DF000310500F72091CE022F7020612093CE0282
:102E000026E0289FF001299FF00D1124E256FD4F86
:102E100080818F708061808389EC92E00E94D7125C
:102E2000DF91CF911F910C948216BF92CF92DF92C7
:102E3000EF92FF920F931F93CF93DF93CDB7DEB73F
:102E400061970FB6F894DEBF0FBECDBF6C0185E071
:102E5000F601DE011D9601900D928A95E1F7D601EB
:102E60004C9111965C9111971296FC9012971396C3
:102E70000D911C918091CC029091CD02009709F4A4
:102E800089C12091C9023091CA02622F63236F3F2A
:102E900009F480C1B090CB02BB2009F41AC1081715
:102EA0001907D0F1F801E81BF90BCF01EE24E394E8
:102EB000883C910508F0E12C8091CE02982F907FFC
:102EC000EE2009F4BCC0911181C0EF2C351329C04C
:102ED000241327C0F11025C08F7080618093CE022B
:102EE0000E94A31689EC92E00E94D7128091CE0234
:102EF000D60115968C938E2D61960FB6F894DEBF91
:102F00000FBECDBFDF91CF911F910F91FF90EF903A
:102F1000DF90CF90BF90089580959095800F911F7E
:102F2000C5CF0115110529F0852F84238F3F09F0A6
:102F300043C180E0B82FB170BB2E80FF3DC08091AF
:102F400097022091980236E0821316C0702F198BD9
:102F5000088B6F2D89890E94271B292F22952F709E
:102F60002230F0F0243018F59F70F1F0F6019581D1
:102F7000907FD1F4B12C1EC090E0389FF001399FB2
:102F8000F00D1124E756FD4F6181651306C0608185
:102F9000641303C06281F6120FC001968770D4CF0C
:102FA0009F7011F0882331F3805E883018F3C601DA
:102FB0000E94D712EB2C9FCFFF2009F49CCF809169
:102FC000CE0281608093CE02E12C95CF351306C0EE
:102FD000241304C0D601FF2009F4A1C04D875E87E9
:102FE000FF86702F198B088B6F2D89890E94191607
:102FF000882309F4DDC0FF2009F4DAC08091CE02F5
:10300000803270F02091C9023091CA0238872F8334
:1030100019861B870A878C87CE0107960E94D712D4
:1030200086E0F601A9ECB2E001900D928A95E1F7F5
:103030000E94B1160E94A316EE24E3945CCF911176
:1030400013C0702F198B088B6F2D89890E9463160E
:1030500089EC92E00E94D71286E0E9ECF2E0DF0111
:103060001D928A95E9F768C0351311C024130FC06B
:10307000F1100DC0F6018583C6010E94D712E9EC5C
:10308000F2E086E0DF011D928A95E9F793CF4D8744
:103090005E87FF86702F198B088B6F2D89890E94A0
:1030A0001916882309F484C0FF2009F481C0809197
:1030B000CE02803208F4B4CF2091C9023091CA0206
:1030C0003A8329831B821D830C838E83CE01019654
:1030D000A5CF0817190798F1F801E81BF90BCF01E4
:1030E000E12C883C910508F04DC0EF2CFF2009F43D
:1030F0005FC0351332C0241330C08091CE0280FDF2
:1031000023C0982F907F01F1D60115968C931597C7
:10311000903F39F0982F907F905F8F70892B159694
:103120008C93C6010E94D71286E0F601A9ECB2E0AA
:1031300001900D928A95E1F70E94A316DCCE80954E
:103140009095800F911FCCCF86E0F601A9ECB2E0FC
:1031500001900D928A95E1F7CECE4D875E87FF866E
:10316000702F198B088B6F2D89890E941916811178
:1031700057CF8091CE0281608093CE02C6010E941B
:10318000D712B9CE702F198B088B6F2D89890E94A9
:10319000631662CFFF2061F04D875E87FF86702F38
:1031A000198B088B6F2D89890E941916811138CFD0
:1031B000C6010E94D71240CF81E08F25BBCE1F935E
:1031C000CF93DF93CDB7DEB72C970FB6F894DEBF61
:1031D0000FBECDBF4F83588769877A878B879C87BF
:1031E000CE0107960E941517882369F08A859B8572
:1031F000892B39F04F815885842F85238F3F09F023
:1032000071C016E05FC086E0FE013796DE011196C0
:1032100001900D928A95E1F78A859B85892B89F328
:1032200088859F8189238F3F61F32091980230E048
:10323000C90101968770992740919702481719068E
:1032400071F40E94D312109298021092970286E0B5
:10325000E9ECF2E0DF011D928A95E9F7D2CF96E022
:10326000929FD001939FB00D1124A756BD4FFE0130
:10327000319601900D929A95E1F7809398020E9401
:103280008216BFCF819FC001112487569D4F0E9497
:1032900015178823E9F0E09197021E9FF001112491
:1032A000E756FD4F40815181628173818481958110
:1032B0000E9472168091970290E00196877099277C
:1032C0008093970280919702909198028913DACFA8
:1032D0002C960FB6F894DEBF0FBECDBFDF91CF9115
:1032E0001F91089569857A858B859C850E94721649
:1032F00088CFDF92EF92FF920F931F93CF93DF93CC
:103300008C01892BB9F0E12CF12CDD24D394E80158
:103310002196F8018491853709F46AC098F48437BE
:1033200008F059C0843008F06FC0813011F182304C
:1033300009F43CC0DF91CF911F910F91FF90EF9066
:10334000DF900895883709F45CC058F4863709F493
:1033500054C0873779F78E2D0E947A1C0E94A61CD4
:103360001FC09CE7980F903728F78F770E948B1229
:1033700017C00E5F1F4FFE01849190E2980F9830A6
:1033800060F48770FD2D01C0FF0F8A95EAF78F2F3B
:103390000E94801C0E94A61C02C00E94F411E80139
:1033A0008F2D815008F033C08E01B1CF0E5F1F4FBB
:1033B000FE01849190E2980F983050F48770FD2DB3
:1033C00001C0FF0F8A95EAF78F2F0E94861CE2CF7B
:1033D0000E948B12E4CF0E5F1F4FFE01C491C150BB
:1033E000F0F28FE99FE00197F1F700C00000F7CFFE
:1033F0000E5F1F4FFE01F490D2CF0E946A1CE82E90
:10340000CFCF0E947D1CAACF0E94F411C9CFEFE953
:10341000FFE03197F1F700C00000C3CF60934F0386
:103420007093500380935103909352030C94FA1CB1
:1034300008956093530370935403809355039093BE
:1034400056030C94F91C0F931F9300915303109192
:1034500054032091550330915603602B712B822B1E
:10346000932B60935303709354038093550390936D
:1034700056031F910F910C94F91C0F931F93009109
:103480005303109154032091550330915603602348
:103490007123822393236093530370935403809387
:1034A0005503909356031F910F910C94F91C0F93A1
:1034B0001F930091530310915403209155033091B1
:1034C00056036027712782279327609353037093D5
:1034D000540380935503909356031F910F910C94BE
:1034E000F91C60E070E0CB010C940E1A0F931F934F
:1034F00041E050E060E070E08A019B0104C0000FF1
:10350000111F221F331F8A95D2F7C901B8011F91DD
:103510000F910C940E1A0F931F9341E050E060E05E
:1035200070E004C0440F551F661F771F8A95D2F7BD
:1035300080914F0390915003A0915103B091520399
:103540008A019B01082B192B2A2B3B2BC901B8019F
:103550001F910F910C940E1A0F931F9341E050E0AE
:1035600060E070E004C0440F551F661F771F8A9506
:10357000D2F7CB01BA016095709580959095009136
:103580004F03109150032091510330915203602357
:103590007123822393231F910F910C940E1A0F9382
:1035A0001F9341E050E060E070E004C0440F551FFD
:1035B000661F771F8A95D2F780914F039091500331
:1035C000A0915103B09152038A019B01082719274A
:1035D0002A273B27C901B8011F910F910C940E1A9D
:1035E0000F931F9300914F031091500320915103AB
:1035F00030915203602B712B822B932B1F910F91D3
:103600000C940E1A0F931F9300914F0310915003C7
:10361000209151033091520360237123822393231D
:103620001F910F910C940E1A0F931F9300914F034B
:10363000109150032091510330915203602771275C
:10364000822793271F910F910C940E1A08954F9281
:103650005F926F927F929F92AF92BF92CF92DF92D2
:10366000EF92FF920F931F93CF93DF9300D000D080
:103670000F92CDB7DEB749835A836B837C838D83EA
:103680008C819D81892B29F07A018F2D84238F3F96
:1036900051F590E080E00F900F900F900F900F90F9
:1036A000DF91CF911F910F91FF90EF90DF90CF901E
:1036B000BF90AF909F907F906F905F904F900895D4
:1036C000B7018A2D0E94C01E0197C1F13CC0F801CC
:1036D00083E0EE0FFF1F8A95E1F7E153FD4FEC0DFC
:1036E000FD1D90803BC00F2D10E0C42ED12C8B818E
:1036F000882369F340904F0350905003609051032A
:10370000709052038091530390915403A0915503FC
:10371000B0915603482A592A6A2A7B2A2FE1A22E01
:10372000B12C9A2CD301C2010A2C04C0B695A795DE
:10373000979587950A94D2F780FDC2CF81E0A81AA9
:10374000B10878F7912CF80193E0EE0FFF1F9A95DE
:10375000E1F7E153FD4FEC0DFD1D9082E982FA8205
:1037600069817A81892D0F900F900F900F900F90A3
:10377000DF91CF911F910F91FF90EF90DF90CF904D
:10378000BF90AF909F907F906F905F904F900C9400
:10379000C01E90911001992369F190911101992314
:1037A00049F1E82FE695E695E695EF3191F0209105
:1037B000120130911301E20FF32FF11D877021E008
:1037C00030E001C0220F8A95EAF78181822B818344
:1037D000089590917A0390FF22C01F928F9380E00A
:1037E00094E09F938F930E94DC060F900F900F90B0
:1037F0000F9008952091120130911301F901329632
:103800009FEF40E05191851751F09F3F19F45111FE
:1038100001C0942F4F5F4E31A9F79F3F09F40895DF
:10382000290F311D97FD3A95F901828308959091F2
:103830001001992379F190911101992359F1E82F01
:10384000E695E695E695EF31A1F0209112013091D1
:103850001301E20FF32FF11D282F277081E090E074
:1038600001C0880F2A95EAF7809591818923818389
:10387000089590917A0390FF1EC01F928F9382EE5D
:1038800093E09F938F930E94DC060F900F900F9010
:103890000F9008952091120130911301F901329691
:1038A000205E3F4F9191891303C0DF0111971C9255
:1038B000E217F307B9F7089581E090E0E091120173
:1038C000F0911301E80FF91F1082019680329105E3
:1038D000A9F7089580917903089590917903892B30
:1038E000809379030895809590917903982390931C
:1038F00079030895809379030895109279030895C8
:1039000090917803892B8093780308958095909106
:10391000780398239093780308951092780308957C
:103920008093570308951092570308952091120130
:1039300030911301F9013196205E3F4F80E0919163
:1039400091118F5FE217F307D1F70895E09112010B
:10395000F0911301809179038083E0911201F0913D
:103960001301808190917803892B80839091570374
:10397000992361F0E0911201F09113018081892B6C
:1039800080830E94961C811110925703809112012E
:10399000909113010C940A1090933F0180933E0183
:1039A0000895829590E09C01220F331F220F331F50
:1039B0002C7C95958795959587958373282B30E07A
:1039C000C901880F991F8A7A359527952575822B0D
:1039D00008950895CF93DF9300D000D00F92CDB714
:1039E000DEB70F900F900F900F900F90DF91CF9157
:1039F0000895089508950C946E11089580E0089537
:103A000080918F03843021F110927B0388E190E054
:103A100020E40FB6F894A895809360000FBE209321
:103A2000600083B7817F846083BF83B7816083BF79
:103A30007894889583B78E7F83BF0FB6F894A89546
:103A400080916000886180936000109260000FBEDA
:103A50000895CF930E94BA110E94EF060E94BB11F5
:103A6000C0E08C2F0E943C07811105C0CF5FC031A0
:103A7000C1F7CF91089581E0FCCF0E9470110C94A2
:103A8000D3121F921FB61F9211248F939F93AF934F
:103A9000BF9380917B03811113C080917C0390912F
:103AA0007D03A0917E03B0917F034196A11DB11DBE
:103AB00080937C0390937D03A0937E03B0937F0358
:103AC000BF91AF919F918F911F901FBE1F9018952E
:103AD00082E084BD93E095BD9AEF97BD80936E0020
:103AE00008952FB7F89480917C0390917D03A09165
:103AF0007E03B0917F032FBF08952FB7F894609194
:103B00007C0370917D0380917E0390917F032FBF92
:103B10000895CF92DF92EF92FF920F931F932FB7EA
:103B2000F89440917C0350917D0360917E037091E5
:103B30007F032FBF6A017B01EE24FF248C0130E05C
:103B400020E0C016D106E206F30650F0481B590BE0
:103B5000CA011F910F91FF90EF90DF90CF900895D1
:103B600041505109F3CF1F921FB61F9211248F931A
:103B70009F93AF93BF9380917C0390917D03A0911D
:103B80007E03B0917F030196A11DB11D80937C033C
:103B900090937D03A0937E03B0937F03BF91AF9179
:103BA0009F918F911F901FBE1F9018950E94650EC8
:103BB000F89487E797E7909301088093000887E0DF
:103BC00090EBDC018093990390939A03A0939B035D
:103BD000B0939C0388E19CE00FB6F894A89580937D
:103BE00060000FBE90936000FFCF8D3B60F4883A79
:103BF00028F5853AC0F48430A0F4813009F476C009
:103C000090E080E00895883E38F4803E50F48F3B89
:103C1000B9F780E090EE0895803F90F390E09065D2
:103C2000089590E0089531E8853A21F033E8863A26
:103C300009F432E820E4832F922F0895883A59F14D
:103C4000893A61F18A3A61F18B3A61F18C3A61F11A
:103C50008D3A61F18E3A61F18F3A61F1813B61F108
:103C6000803B61F1823B61F1833B69F1843B69F107
:103C7000853B69F1863B69F1873B71F1883B71F1C6
:103C8000893B71F18A3B71F18B3B71F130E08C3BE8
:103C900019F43AE21FC032EE24E4CDCF39EEFCCF66
:103CA0003AEEFACF35EBF8CF36EBF6CF33EBF4CF75
:103CB00034EBF2CF37EBF0CF3CECEECF3DECECCF7A
:103CC00033E825E4B8CF3AE8FCCF32E9FACF34E95B
:103CD000F8CF31E226E4AFCF33E2FCCF34E2FACFC3
:103CE00035E2F8CF36E2F6CF37E2F4CF81E090E06C
:103CF000089590E080E00895089520E1829FC0013A
:103D00001124FC01E60FF11D83E0EE0FFF1F8A95E1
:103D1000E1F7E40FF11DE455FF4F84910895E82F7A
:103D2000F0E0EC5CFE4F84910895E82FF0E0E45D54
:103D3000FE4F84910895462F672F0C947D1ECF93DC
:103D4000DF93482F405C550B40325105B0F4D0E46E
:103D5000D80F8D2F0E948F1EC82F8D2F0E94951E69
:103D6000D0E0882329F09C2F906ADF91CF910895AD
:103D70009C2F8827816F906AF8CF90E080E0F5CF84
:103D80000E949B1E803ED0F4803C88F5813309F46C
:103D900052C040F4893209F448C08A3209F451C053
:103DA0000C94F51D893329F1823819F18533C1F757
:103DB0008091980385FF3DC089E2F2CF833E39F1BF
:103DC00060F4803EE1F0823E59F78091980382FFD3
:103DD00022C084FF1AC080E0E3CF863EF1F0873E28
:103DE000F9F68091980383FF1CC086EED9CF0C941E
:103DF0009F1E90919803937099F280EED1CF80919D
:103E0000980380FFFACF89E3CBCF83EEC9CF8091AF
:103E1000980382FFDECF82EEC3CF8091980383FFA9
:103E2000E4CF84FDD8CF87EEBBCF8091980385FF88
:103E3000C3CF85E3B5CF8091980386FF06C08AE2A1
:103E4000AFCF8091980386FFFACF81E3A9CFCF92BD
:103E5000DF92EF92FF920F931F93CF936C01C0E01C
:103E60008C2F0E943C0710E000E0E82EF12CC701E7
:103E7000002E02C0959587950A94E2F780FF1BC03B
:103E8000602F7C2F80E00E94C01E8C159D0551F094
:103E9000292F207E392F307C11F0203A61F48C15C7
:103EA0001D0449F481E0CF911F910F91FF90EF9095
:103EB000DF90CF9008950F5F1F4F08301105B9F6BE
:103EC000CF5FC03169F680E0EECFCF93DF93EC0196
:103ED0008CE290E00E94271F882329F0CE01DF9119
:103EE000CF910C94271F80E0DF91CF910895CF935D
:103EF0000E94C020811102C00E94A62085E294E0A9
:103F00000E944306C5E6C15009F0F0C08EE194E07E
:103F10000E94430689E290E00E94651F811114C14E
:103F20008AE290E00E94651F81110E94A62085E030
:103F300090E00E94651F81110E94D61D0E94FD1C09
:103F40000E94CB2080937A0387E090E00E94651F57
:103F5000882379F08BE190E00E94651F882309F4A3
:103F6000CEC090917A03892F8D7F91FF82608093DC
:103F70007A0380917A030E94CF200E94DD208093F3
:103F8000980380EE90E00E94651F882341F0909195
:103F90009803892F8E7F90FF81608093980389E337
:103FA00090E00E94651F882341F090919803892F2B
:103FB0008D7F91FF82608093980382EE90E00E9453
:103FC000651F882341F090919803892F8B7F92FF82
:103FD00084608093980386EE90E00E94651F88239A
:103FE00041F090919803892F877F93FF8860809399
:103FF000980383EE90E00E94651F882341F0909122
:104000009803892F8F7E94FF80618093980385E3C6
:1040100090E00E94651F882341F090919803892FBA
:104020008F7D95FF80628093980381E390E00E94EA
:10403000651F882341F090919803892F8F7B96FF0D
:1040400080648093980381E190E00E94651F88233B
:1040500041F090919803892F97FB87F980588093BE
:104060009803809198030E94E1208091980387FB38
:10407000882780F98093110187E290E00E94651FF4
:10408000C82F8EE190E00E94651F8111C2608FE110
:1040900090E00E94651F8111C46080E290E00E9460
:1040A000651F8111C86081E290E00E94651F811147
:1040B000C06182E290E00E94651F8111C06283E2CC
:1040C00090E00E94651F8111C06484E290E00E942C
:1040D000651F882399F1C0688C2F0E94D8206C2F0F
:1040E00070E090E080E0CF910C94191A0E94EF06E6
:1040F0008FE39CE90197F1F700C0000004CF8EE048
:1041000090E00E94651F882339F090917A03892FEF
:104110008B7F92FF84602BCF80E190E00E94651F2F
:1041200090917A03882329F0892F877F93FF8860F5
:104130001ECF892F8E7F90FF816019CFC111CCCF08
:104140000E94D420682FCCCFCF9108956DEE7EEFE2
:1041500090E080E00E94022A60E082E090E00E940D
:10416000F42960E083E090E00E94F42960E084E0BC
:1041700090E00E94F42960E085E090E00C94F4293E
:1041800090E080E00E94EE2921E08D3E9E4F09F0F4
:1041900020E0822F089582E090E00C94E629682FB9
:1041A00082E090E00C94F42983E090E00C94E629FE
:1041B000682F83E090E00C94F42984E090E00C9464
:1041C000E629682F84E090E00C94F4298091820322
:1041D00080FF12C06091170185E0689FB001112433
:1041E000759567957595679560387105A8F56115A2
:1041F0007105A1F1862F089581FF09C06091170113
:1042000085E0689FB001112475956795EDCF6091A9
:10421000170182FD0AC0809183038823D1F0909119
:10422000160160911701891728F085E0689FB00199
:104230001124DACF869FB001112485E0869F90017A
:10424000879F300D1124692F70E0C9010E94B829A1
:10425000CBCF65E070E0CECF8FE7089581E0089581
:104260008091820380FF0CC06091150170E075950C
:104270006795759567956115710549F1862F0895C4
:1042800081FF06C06091150170E075956795F3CFC9
:104290006091150182FD0BC0909183039923A1F0D9
:1042A0006091140180911501961738F0682F70E025
:1042B0006038710500F38FE70895899FC0011124CC
:1042C00070E00E94B829F4CF61E070E0D7CF81E0C0
:1042D0000895803F31F40E94E62081958093860303
:1042E0000895813F19F40E94E620F8CF823F31F40F
:1042F0000E94E6208195809385030895833F19F4F9
:104300000E94E620F8CF893F29F40E943021809353
:10431000870308958A3F21F40E9430218195F7CFC9
:104320008B3F31F40E94302181958093880308955A
:104330008C3F19F40E943021F8CF843F31F48091F2
:1043400084038160809384030895853F21F48091E4
:1043500084038260F7CF863F21F4809184038460D8
:10436000F1CF873F21F4809184038860EBCF883FB1
:1043700021F4809184038061E5CF8D3F31F48091F9
:10438000820381608093820308958E3F21F480919F
:1043900082038260F7CF8F3FB9F7809182038460F8
:1043A000F1CF90918503803F41F48091860387FD92
:1043B00010928603992371F00895813F29F480912A
:1043C00086031816ACF3F6CF823F81F497FFF2CF45
:1043D000109285038091860390918703892B909199
:1043E0008803892B49F7109283030895833F19F4BA
:1043F000191674F3DFCF893F39F4809187031816BB
:10440000CCF610928703D6CF8A3F29F48091870398
:1044100087FFD0CFF6CF8B3F39F48091880387FF99
:10442000C9CF10928803C6CF8C3F29F480918803AE
:104430001816BCF3BFCF843F31F4809184038E7F84
:1044400080938403B7CF853F21F4809184038D7FCF
:10445000F7CF863F21F4809184038B7FF1CF873F94
:1044600021F480918403877FEBCF883F21F48091F2
:1044700084038F7EE5CF8D3F31F4809182038E7F60
:104480008093820397CF8E3F21F4809182038D7FAA
:10449000F7CF8F3F09F08ECF809182038B7FF0CFD3
:1044A00080917A0383FF7EC081E694E00E944306F8
:1044B000809184031F928F938CE594E09F938F9358
:1044C0000E94DC068AE594E00E9443068091850301
:1044D000282F082E000C330B3F938F9387E594E031
:1044E0009F938F930E94DC0685E594E00E9443062B
:1044F00080918603282F082E000C330B3F938F9357
:1045000082E594E09F938F930E94DC0680E594E01F
:104510000E94430680918703282F082E000C330B3E
:104520003F938F938DE494E09F938F930E94DC06DA
:104530008BE494E00E94430680918803282F082E84
:10454000000C330B3F938F9388E494E09F938F93F9
:104550000E94DC0685E494E00E9443068091830378
:104560001F928F9382E494E09F938F930E94DC06C6
:1045700080E494E00E944306809182031F928F930F
:104580008DE394E09F938F930E94DC068AE394E08E
:104590000E9443068DB79EB74C960FB6F8949EBF07
:1045A0000FBE8DBF84E893E00E9456100E94711DDB
:1045B000909381038093800308951F93CF93DF939B
:1045C00080918003909181030E94891DAC0190919C
:1045D00083032091180130E0911106C02091190148
:1045E0008AE0289F900111244217530778F0209108
:1045F0008503C0918603D091870310918803211110
:1046000009C08C2F8D2B812B09F074C0DF91CF91C5
:104610001F9108959F3F19F09F5F90938303121697
:1046200024F40E94E620809385038091850387FF10
:1046300005C00E94E6208195809385031C1624F412
:104640000E94E620809386038091860387FF05C041
:104650000E94E620819580938603609185036623FE
:1046600031F1C0918603CC2311F1062E000C770B9B
:10467000880B990B0E94BF2823E333E343E35FE3F6
:104680000E9423290E948728609385036C2FCC0FFA
:10469000770B880B990B0E94BF2823E333E343E396
:1046A0005FE30E9423290E948728609386031D16DA
:1046B00024F40E943021809387038091870387FF31
:1046C00005C00E943021819580938703111624F440
:1046D0000E943021809388038091880387FF05C062
:1046E0000E943021819580938803DF91CF911F91A3
:1046F0000C9450229F3F09F08FCFA0CF85E0E4E8D3
:10470000F3E0DF011D928A95E9F71092830310927E
:104710008203089584E896E00E9443061F9281E098
:104720008F931F9285E08F9386E396E09F938F93FC
:104730000E94DC060F900F900F900F900F900F903B
:104740000895833009F445C028F4813061F0823047
:1047500049F10895853009F46AC008F451C08630E3
:1047600009F47CC0089580911901482F460F552700
:10477000551F4F3F510594F4680F609319018091C4
:1047800019011F928F938FE695E09F938F930E945C
:10479000DC060F900F900F900F9008958FEF80938D
:1047A0001901EDCF80911801482F460F5527551F4D
:1047B0004F3F510554F4680F609318018091180120
:1047C0001F928F938DE595E0E0CF8FEF80931801D6
:1047D000F5CF80911701482F460F5527551F4F3FA2
:1047E000510554F4680F60931701809117011F92CF
:1047F0008F938AE495E0C9CF8FEF80931701F5CFAF
:1048000080911601482F460F5527551F4F3F5105E0
:1048100054F4680F60931601809116011F928F93D4
:1048200085E395E0B2CF8FEF80931601F5CF8091AD
:104830001501482F460F5527551F4F3F510554F47A
:10484000680F60931501809115011F928F938CE181
:1048500095E09BCF8FEF80931501F5CF80911401E8
:10486000482F460F5527551F4F3F510554F4680FE9
:1048700060931401809114011F928F9381E095E061
:1048800084CF8FEF80931401F5CF8330C9F128F4E2
:10489000813061F0823019F10895853009F452C0F9
:1048A00008F43FC0863009F45EC008958091190174
:1048B000681790F4861B80931901809119011F924B
:1048C0008F9382EF94E09F938F930E94DC060F906A
:1048D0000F900F900F90089510921901EECF8091D4
:1048E0001801681750F4861B8093180180911801F5
:1048F0001F928F9380EE94E0E6CF10921801F6CFCE
:1049000080911701681750F4861B809317018091DE
:1049100017011F928F938DEC94E0D5CF1092170161
:10492000F6CF80911601681750F4861B809316010C
:10493000809116011F928F9388EB94E0C4CF109260
:104940001601F6CF80911501681750F4861B8093ED
:104950001501809115011F928F938FE994E0B3CFD9
:1049600010921501F6CF80911401681750F4861B40
:1049700080931401809114011F928F9384E894E036
:10498000A2CF10921401F6CFCF93C82F1F928F930E
:1049900089E897E09F938F930E94DC0661E070E0C6
:1049A00080E090E004C0660F771F881F991FCA95AA
:1049B000D2F70E94191A0F900F900F900F90CF917D
:1049C0000C94D312CF938B3109F4D5C108F04AC0AF
:1049D0008E3009F4E0C1B8F4873009F4B6C148F468
:1049E000863009F4A1C18DE999E00E944306C0E038
:1049F00034C2883009F468C08B30A9F785EB97E0A2
:104A00000E9443068FC1813109F419C278F48031C4
:104A100051F790917A03892F877F93FF8860809365
:104A20007A0383FFC8C18BE59BE09FC1863109F4FF
:104A3000C5C18931C1F68FE39BE00E94430683E143
:104A40009BE00E94430688EC9AE00E94430680EABD
:104A50009AE00E9443068BE59AE00E94430680E3B9
:104A60009AE0CECF853361F078F4873249F028F4AC
:104A70008E3108F4B8CF8D5104C0893209F0B3CF1C
:104A800080E00E94C4244EC1833438F48A3308F095
:104A9000EAC1883309F4B2CFA6CF833489F38834CE
:104AA00009F0A1CF0E94D3128AEB9BE00E9443063B
:104AB0009FEF23ED80E3915020408040E1F700C05C
:104AC00000000E94D61D2EC18FEC9BE00E94430681
:104AD0008DE899E00E9443060E94D4201F928F9394
:104AE0008AE899E09F938F930E94DC0688E899E01A
:104AF0000E9443060E94CB20C82F85E799E00E94C0
:104B000043061F92CF9380E799E09F938F930E9473
:104B1000DC068EE699E00E94430684E699E00E9456
:104B200043068C2F81701F928F9381E699E09F93AB
:104B30008F930E94DC068FE599E00E94430685E58D
:104B400099E00E944306C1FB882780F91F928F934A
:104B500082E599E09F938F930E94DC0680E599E0BF
:104B60000E94430684E499E00E944306C2FB882722
:104B700080F91F928F9381E499E09F938F930E9415
:104B8000DC068FE399E00E94430686E399E00E94E9
:104B90004306C3FBCC27C0F91F92CF9383E399E070
:104BA0009F938F930E94DC0681E399E00E94430665
:104BB0000E94DD20C82F8DE199E00E9443061F92DC
:104BC000CF9388E199E09F938F930E94DC0686E162
:104BD00099E00E9443068DEF98E00E9443068C2FD7
:104BE00081701F928F938AEF98E09F938F930E941A
:104BF000DC068DB79EB780960FB6F8949EBF0FBEA9
:104C00008DBF88EF98E00E94430681EE98E00E94F5
:104C10004306C1FB882780F91F928F938EED98E0A1
:104C20009F938F930E94DC068CED98E00E944306D0
:104C30008AEC98E00E944306C2FB882780F91F9205
:104C40008F9387EC98E09F938F930E94DC0685EC0E
:104C500098E00E94430683EB98E00E944306C3FB62
:104C6000882780F91F928F9380EB98E09F938F9312
:104C70000E94DC068EEA98E00E94430684EA98E0EF
:104C80000E944306C4FB882780F91F928F9381EA14
:104C900098E09F938F930E94DC068FE998E00E9432
:104CA00043068DE898E00E944306C5FB882780F9FB
:104CB0001F928F938AE898E09F938F930E94DC065F
:104CC00088E898E00E9443068CE698E00E9443063C
:104CD000C6FB882780F91F928F9389E698E09F93FF
:104CE0008F930E94DC0687E698E00E9443068FE5DA
:104CF00098E00E944306C7FBCC27C0F91F92CF93D0
:104D00008CE598E09F938F930E94DC068AE598E0FB
:104D10000E9443068DB79EB74C960FB6F8949EBF7F
:104D20000FBE8DBFC1E099C080917A03807F8093D0
:104D30007A038EE897E00E9443068BEC9BE00E948A
:104D4000430681E080938A03EDCF80917A0380FF50
:104D50000AC08DEA9BE00E94430680917A03807F1F
:104D600080937A03DFCF81EA9BE00E944306809123
:104D70007A038160F5CF90917A03892F8D7F91FF1F
:104D8000826080937A0381FF03C084E99BE0EDCFCA
:104D900086E89BE035CE90917A03892F8B7F92FF36
:104DA000846080937A0382FF03C087E79BE0DDCFB6
:104DB00087E69BE025CE8EE49BE022CE82E29AE05D
:104DC0000E9443060E94FE0F1F928F9388E09AE094
:104DD0009F938F930E94DC06809110011F928F9306
:104DE00081EF99E09F938F930E94DC0680917F0270
:104DF0001F928F938EED99E09F938F930E94DC0614
:104E0000809111011F928F938BEC99E09F938F9368
:104E10000E94DC060E947D1D9F938F937F936F936A
:104E200084EB99E09F938F930E94DC068DB79EB729
:104E300046960FB6F8949EBF0FBE8DBF73CF0E94EB
:104E4000D312C091110181E0C827C0931101CC2376
:104E500039F08AEA99E00E9443068C2FCF91089599
:104E60008FE999E0CDCD89530CCE80E008950C9464
:104E70003527CF93C82F80918A038130E1F08823B2
:104E800039F0823009F44FC010928A0380E011C0DB
:104E9000E0911201F0911301808181528230B0F7CC
:104EA0008C2F0E94352781111FC08C2F0E94E22475
:104EB0008170CF910895E0911201F09113018081EA
:104EC0008152823068F38C2F0E94372781111BC0DA
:104ED000C431D9F060F4CB3071F0C031D1F08FE73C
:104EE00097E00E94430613C081E090E0E1CFC93211
:104EF00061F0C833A1F78EE897E00E94430685E889
:104F000097E00E94430681E0D3CF10928A0380E0AD
:104F1000CFCF0E948A2381E897E00E94430682E077
:104F200080938A03F0CFC432C8F4CE3108F0BEC0FB
:104F3000CB30E1F040F4C73009F4CFC083E296E013
:104F40000E94430626C0C331C1F1C431B9F7809134
:104F50008903882351F1109289030AC0CB3409F4E4
:104F6000BAC0C8F4C93299F3C83341F70E948A2302
:104F700080918903882309F4C7C01F928F938DE124
:104F800096E09F938F930E94DC060F900F900F90F6
:104F90000F9081E08ECFC13509F497C0C23509F476
:104FA0008EC0CE3459F66AE091C082E396E00E944A
:104FB000430681E080938A037CCF8CE096E00E94D8
:104FC00043068AEF95E00E944306809119011F92E3
:104FD0008F9387EF95E09F938F930E94DC0685EF78
:104FE00095E00E94430683EE95E00E94430680917F
:104FF00018011F928F9380EE95E09F938F930E94EC
:10500000DC068EED95E00E9443068FEC95E00E9451
:105010004306809117011F928F938CEC95E09F932C
:105020008F930E94DC068AEC95E00E94430689EB90
:1050300095E00E944306809116011F928F9386EBA4
:1050400095E09F938F930E94DC0684EB95E00E948D
:1050500043068FE995E00E944306809115011F9257
:105060008F938CE995E09F938F930E94DC068AE9E9
:1050700095E00E94430683E895E00E9443068091F4
:1050800014011F928F9380E895E09F938F930E9465
:10509000DC068EE795E00E9443068DB79EB74896E2
:1050A0000FB6F8949EBF0FBE8DBF62CFCE51EC2FCE
:1050B000F0E0EC5CFE4F80818093890359CF61E082
:1050C000809189030E94A12353CF61E080918903DD
:1050D0000E9445244DCF6AE0F3CF8EE18093190101
:1050E00082E3809318018AE08093170184E1809322
:1050F000160188E08093150188E28093140185E20F
:1051000096E00E94430634CF8AE196E019CF0E94D0
:105110008E286894B1110C941D2908950E940229CB
:1051200088F09F5798F0B92F9927B751B0F0E1F068
:10513000660F771F881F991F1AF0BA95C9F714C018
:10514000B13091F00E941C29B1E008950C941C2903
:10515000672F782F8827B85F39F0B93FCCF3869551
:1051600077956795B395D9F73EF4909580957095AE
:1051700061957F4F8F4F9F4F0895E89409C097FB2B
:105180003EF490958095709561957F4F8F4F9F4F1E
:105190009923A9F0F92F96E9BB279395F695879562
:1051A00077956795B795F111F8CFFAF4BB0F11F425
:1051B00060FF1BC06F5F7F4F8F4F9F4F16C08823CC
:1051C00011F096E911C0772321F09EE8872F762F02
:1051D00005C0662371F096E8862F70E060E02AF043
:1051E0009A95660F771F881FDAF7880F969587952F
:1051F00097F9089557FD9058440F551F59F05F3F98
:1052000071F04795880F97FB991F61F09F3F79F0E8
:1052100087950895121613061406551FF2CF46956A
:10522000F1DF08C0161617061806991FF1CF8695EC
:105230007105610508940895E894BB2766277727D0
:10524000CB0197F908950E9436290C94A7290E9452
:10525000992938F00E94A02920F0952311F00C9490
:1052600090290C94962911240C941D290E94FA2847
:1052700070F3959FC1F3950F50E0551F629FF001A9
:10528000729FBB27F00DB11D639FAA27F00DB11DC2
:10529000AA1F649F6627B00DA11D661F829F22274B
:1052A000B00DA11D621F739FB00DA11D621F839FD2
:1052B000A00D611D221F749F3327A00D611D231FA8
:1052C000849F600D211D822F762F6A2F11249F57F6
:1052D00050409AF0F1F088234AF0EE0FFF1FBB1FF9
:1052E000661F771F881F91505040A9F79E3F5105B8
:1052F00080F00C9490290C941D295F3FE4F3983EB4
:10530000D4F3869577956795B795F795E7959F5F61
:10531000C1F7FE2B880F911D9695879597F90895F3
:1053200097F99F6780E870E060E008959FEF80EC58
:10533000089500240A9416161706180609060895FB
:1053400000240A9412161306140605060895092E61
:105350000394000C11F4882352F0BB0F40F4BF2BD0
:1053600011F460FF04C06F5F7F4F8F4F9F4F089510
:1053700097FB072E16F4009407D077FD09D00E9402
:10538000D22907FC05D03EF4909581959F4F089552
:10539000709561957F4F0895EE0FFF1F0590F49172
:1053A000E02D0994AA1BBB1B51E107C0AA1FBB1F1C
:1053B000A617B70710F0A61BB70B881F991F5A95A1
:1053C000A9F780959095BC01CD010895F999FECF7C
:1053D00092BD81BDF89A992780B50895A8E1B0E003
:1053E00042E050E00C94092A262FF999FECF1FBA0B
:1053F00092BD81BD20BD0FB6F894FA9AF99A0FBEFE
:10540000019608950E94F429272F0C94F529DC01B8
:10541000CB01FC01F999FECF06C0F2BDE1BDF89ABF
:10542000319600B40D9241505040B8F70895F89469
:10543000FFCF3C0D640D4D0E640D4D0E970DB80D54
:105440004D0E0F0E1B0E0F130F134B134B13D013D8
:105450000614FF12FF121F14FF120B150B15B015C7
:06546000FF12C715E8155C
:10546600055E010000FF89071B08F607C0078C07C9
:10547600010158032808140A321E404D3622394AC3
:1054860003FD02C702A5026C02DF01F80111022A20
:0E549600024A0200010203040506070809008D
:00000001FF
