:100000000C94A20A0C94EB0A0C94EB0A0C94EB0AE5
:100010000C94EB0A0C94EB0A0C94EB0A0C94EB0A8C
:100020000C94EB0A0C94EB0A0C9417250C94EE2517
:100030000C94291C0C94EB0A0C94EB0A0C94EB0A1C
:100040000C94EB0A0C94EB0A0C94EB0A0C94EB0A5C
:100050000C94EB0A0C948A1C0C94EB0A0C94EB0A9B
:100060000C94EB0A0C94EB0A0C94EB0A0C94EB0A3C
:100070000C94EB0A0C94EB0A0C94EB0A0C94EB0A2C
:100080000C94EB0A0C94EB0A0C94EB0A0C94EB0A1C
:100090000C94EB0A0C94EB0A290040003F003A0054
:1000A0003E003D003C003B0000005B005A00370072
:1000B000590052000000380000000000000000005D
:1000C0000000000065000000E100000000000000EA
:1000D00000000000000000003600100011001D00AC
:1000E0000500190006001B0000005E005D004600D0
:1000F0005C000000550054000000000000000000FB
:100100000000E00000000000E0000D000B00040013
:100110000A000900070016003500240023001E0015
:100120002200210020001F002B0018001C001400DA
:100130001700150008001A000C004D004C001200BA
:10014000310030002F00130025004A00490026002E
:100150002A002E002D0027004100A900AA0042001D
:10016000A8004500440043002C0058006300000034
:1001700062004F0051005000000000000000E3004A
:10018000000000000000000000000000000000006F
:10019000000000000000E2000000610060000000BC
:1001A0005F005600570000000000E600000000005D
:1001B00000000000000000000E0000004B000F00D7
:1001C0004E0028003400330001000100010001004E
:1001D0000100010001000100000001000100010018
:1001E000010001000000010000000000000000000C
:1001F00000000000010000000100000000000000FD
:1002000000000000000000000100010001000100EA
:1002100001000100010001000000010001000100D7
:1002200001000000010001000000000000000000CB
:1002300000000100000000000100010001000100B9
:1002400001000100010001000100010001000100A6
:100250000100010001000100010001000100010096
:100260000100010001000100010001000100010086
:100270000100010001000100010001000100010076
:100280000100010001000100010001000100010066
:100290000100010001000100010001000100000057
:1002A0000100010001000100000000000000010049
:1002B000000000000000000000000000000000003E
:1002C000000000000000010000000100010000002B
:1002D000010001000100000000000100000000001A
:1002E000000000000000000001000000010001000B
:1002F00001000100010001000100010001000100F6
:1003000001000100010001000000010001000100E6
:1003100001000100000001000000000000000000DA
:1003200000000000010000000100000000000000CB
:1003300000000000000000000100010001000100B9
:1003400001000100010001000000010001000100A6
:10035000010000000100010000000000000000009A
:100360000000010000000000010001000100010088
:100370000100010001000100010001000100010075
:100380000100010001000100010001000100010065
:100390000100010001000100010001000100010055
:1003A0000100010001000100010001000100010045
:1003B0000100010001000100010001000100010035
:1003C0000100010001000100010001000100000026
:1003D0000100010001000100000000000000010018
:1003E000000000000000000000000000000000000D
:1003F00000000000000001000000010001000000FA
:1004000001000100010000000000010000000000E8
:1004100000000000000000000100000001000100D9
:1004200001000100010001000100010001000100C4
:1004300001000100010001000000010001000100B5
:1004400001000100000001000000000000000000A9
:10045000000000000100000001000000000000009A
:100460000000000000000000010001000100010088
:100470000100010001000100000001000100010075
:100480000100000001000100000000000000000069
:100490000000010000000000010001000100010057
:1004A0000100010001000100010001000100010044
:1004B0000100010001000100010001000100010034
:1004C0000100010001000100010001000100010024
:1004D0000100010001000100010001000100010014
:1004E0000100010001000100010001000100010004
:1004F00001000100010001000100010001000000F5
:1005000001000100010001000000000000000100E6
:1005100000000000000000000000000000000000DB
:1005200000000000000001000000010001000000C8
:1005300001000100010000000000010000000000B7
:1005400000000000000000000100000001000100A8
:100550000100010001000100010001000100010093
:100560000100010001000100000001000100010084
:100570000100010000000100000000000000000078
:100580000000000001000000010000000000000069
:100590000000000000000000010001000100010057
:1005A0000100010001000100000001000100010044
:1005B0000100000001000100000000000000000038
:1005C0000000010000000000010001000100010026
:1005D0000100010001000100010001000100010013
:1005E0000100010001000100010001000100010003
:1005F00001000100010001000100010001000100F3
:1006000001000100010001000100010001000100E2
:1006100001000100010001000100010001000100D2
:1006200001000100010001000100010001000000C3
:1006300001000100010001000000000000000100B5
:1006400000000000000000000000000000000000AA
:100650000000000000000100000001000100000097
:100660000100010001000000000001000000000086
:100670000000000000000000010000000100010077
:100680000100010001000100010001000100010062
:100690000100010001000100000001000100010053
:1006A0000100010000000100000000000000000047
:1006B0000000000001000000010000000000000038
:1006C0000000000000000000010001000100010026
:1006D0000100010001000100000001000100010013
:1006E0000100000001000100000000000000000007
:1006F00000000100000000000100010001000100F5
:1007000001000100010001000100010001000100E1
:1007100001000100010001000100010001000100D1
:1007200001000100010001000100010001000100C1
:1007300001000100010001000100010001000100B1
:1007400001000100010001000100010001000100A1
:100750000100010001000100010001000100000092
:100760000100010001000100000000000000010084
:100770000000000000000000000000000000000079
:100780000000000000000100000001000100000066
:100790000100010001000000000001000000000055
:1007A0000000000000000000010000000100010046
:1007B0000100010001000100010001000100010031
:1007C0000100010001000100000001000100010022
:1007D0000100010000000100000000000000000016
:1007E0000000000001000000010000000000000007
:1007F00000000000000000000100010001000100F5
:1008000001000100010001000000010001000100E1
:1008100001000000010001000000000000000000D5
:1008200000000100000000000100010001000100C3
:1008300001000100010001000100010001000100B0
:1008400001000100010001000100010001000100A0
:100850000100010001000100010001000100010090
:100860000100010001000100010001000100010080
:100870000100010001000100010001000100010070
:100880000100010001000100010001000100000061
:100890000100010001000100000000000000010053
:1008A0000000000000000000000000000000000048
:1008B0000000000000000100000001000100000035
:1008C0000100010001000000000001000000000024
:1008D0000000000000000000010000000100010015
:1008E0000100010001000100010001000100010000
:1008F00001000100010001000000010001000100F1
:1009000001000100000001000000000000000000E4
:1009100000000000010000000100000000000000D5
:1009200000000000000000000100010001000100C3
:1009300001000100010001000000010001000100B0
:1009400001000000010001000000000000000000A4
:100950000000010000000000010001000100010092
:10096000010001000100010001000100010001007F
:10097000010001000100010001000100010001006F
:10098000010001000100010001000100010001005F
:10099000010001000100010001000100010001004F
:1009A000010001000100010001000100010001003F
:1009B0000100010001000100010001000100000030
:1009C0000100010001000100000000000000010022
:1009D0000000000000000000000000000000000017
:1009E0000000000000000100000001000100000004
:1009F00001000100010000000000010000000000F3
:100A000000000000000000000100000001000100E3
:100A100001000100010001000100010001000100CE
:100A200001000100010001000000010001000100BF
:100A300001000100000001000000000000000000B3
:100A400000000000010000000100000000000000A4
:100A50000000000000000000010001000100010092
:100A6000010001000100010000000100010001007F
:100A70000100000001000100000000000000000073
:100A80000000010000000000010001000100010061
:100A9000010001000100010001000100010001004E
:100AA000010001000100010001000100010001003E
:100AB000010001000100010001000100010001002E
:100AC000010001000100010001000100010001001E
:100AD000010001000100010001000100010001000E
:100AE00001000100010001000100010001000000FF
:100AF00001000100010001000000000000000100F1
:100B000000000000000000000000000000000000E5
:100B100000000000000001000000010001000000D2
:100B200001000100010000000000010000000000C1
:100B300000000000000000000100000001000100B2
:100B4000010001000100010001000100010001009D
:100B5000010001000100010000000100010001008E
:100B60000100010000000100000000000000000082
:100B70000000000001000000010000000000000073
:100B80000000000000000000010001000100010061
:100B9000010001000100010000000100010001004E
:100BA0000100000001000100000000000000000042
:100BB0000000010000000000010001000100010030
:100BC000010001000100010001000100010001001D
:100BD000010001000100010001000100010001000D
:100BE00001000100010001000100010001000100FD
:100BF00001000100010001000100010001000100ED
:100C000001000100010001000100010001000100DC
:100C100001000100010001000100010001000000CD
:100C200001000100010001000000000000000100BF
:100C300000000000000000000000000000000000B4
:100C400000000000000001000000010001000000A1
:100C50000100010001000000000001000000000090
:100C60000000000000000000010000000100010081
:100C7000010001000100010001000100010001006C
:100C8000010001000100010000000100010001005D
:100C90000100010000000100000000000000000051
:100CA0000000000001000000010000000000000042
:100CB0000000000000000000010001000100010030
:100CC000010001000100010000000100010001001D
:100CD0000100000001000100000000000000000011
:100CE00000000100000000000100010001000100FF
:100CF00001000100010001000100010001000100EC
:100D000001000100010001000100010001000100DB
:100D100001000100010001000100010001000100CB
:100D200001000100010001000100010001000100BB
:100D300001000100010001000100010001000100AB
:100D4000010001000100010001000100010000009C
:100D5000010001000100010000000000000001008E
:100D60000000000000000000000000000000000083
:100D70000000000000000100000001000100000070
:100D8000010001000100000000000100000000005F
:100D90000000000000000000010000000100010050
:100DA000010001000100010001000100010001003B
:100DB000010001000100010000000100010001002C
:100DC0000100010000000100000000000000000020
:100DD0000000000001000000010000000000000011
:100DE00000000000000000000100010001000100FF
:100DF00001000100010001000000010001000100EC
:100E000001000000010001000000000000000000DF
:100E100000000100000000000100010001000100CD
:100E200001000100010001000100010001000100BA
:100E300001000100010001000100010001000100AA
:100E4000010001000100010001000100010001009A
:100E5000010001000100010001000100010001008A
:100E6000010001000100010001000100010001007A
:100E7000010001000100010001000100010000006B
:100E8000010001000100010000000000000001005D
:100E90000000000000000000000000000000000052
:100EA000000000000000010000000100010000003F
:100EB000010001000100000000000100000000002E
:100EC000000000000000000001000000010001001F
:100ED000010001000100010001000100010001000A
:100EE00001000100010001000000010001000100FB
:100EF00001000100000001000000000000000000EF
:100F000000000000010000000100000000000000DF
:100F100000000000000000000100010001000100CD
:100F200001000100010001000000010001000100BA
:100F300001000000010001000000000000000000AE
:100F4000000001000000000001000100010001009C
:100F50000100010001000100010001000100010089
:100F60000100010001000100010001000100010079
:100F70000100010001000100010001000100010069
:100F80000100010001000100010001000100010059
:100F90000100010001000100010001000100010049
:100FA000010001000100010001000100010000003A
:100FB000010001000100010000000000000001002C
:100FC0000000000000000000000000000000000021
:100FD000000000000000010000000100010000000E
:100FE00001000100010000000000010000000000FD
:100FF00000000000000000000100000001000100EE
:1010000001000100010001000100010001000100D8
:1010100001000100010001000000010001000100C9
:1010200001000100000001000000000000000000BD
:1010300000000000010000000100000000000000AE
:10104000000000000000000001000100010001009C
:101050000100010001000100000001000100010089
:10106000010000000100010000000000000000007D
:10107000000001000000000001000100010001006B
:101080000100010001000100010001000100010058
:101090000100010001000100010001000100010048
:1010A0000100010001000100010001000100010038
:1010B0000100010001000100010001000100010028
:1010C0000100010001000100010001000100010018
:1010D0000100010001000100010001000100000009
:1010E00001000100010001000000000000000100FB
:1010F00000000000000000000000000000000000F0
:1011000000000000000001000000010001000000DC
:1011100001000100010000000000010000000000CB
:1011200000000000000000000100000001000100BC
:1011300001000100010001000100010001000100A7
:101140000100010001000100000001000100010098
:10115000010001000000010000000000000000008C
:10116000000000000100000001000000000000007D
:10117000000000000000000001000100010001006B
:101180000100010001000100000001000100010058
:10119000010000000100010000000000000000004C
:1011A000000001000000000001000100010001003A
:1011B0000100010001000100010001000100010027
:1011C0000100010001000100010001000100010017
:1011D0000100010001000100010001000100010007
:1011E00001000100010001000100010001000100F7
:1011F00001000100010001000100010001000100E7
:1012000001000100010001000100010001000000D7
:1012100001000100010001000000000000000100C9
:1012200000000000000000000000000000000000BE
:1012300000000000000001000000010001000000AB
:10124000010001000100000000000100000000009A
:10125000000000000000000001000000010001008B
:101260000100010001000100010001000100010076
:101270000100010001000100000001000100010067
:10128000010001000000010000000000000000005B
:10129000000000000100000001000000000000004C
:1012A000000000000000000001000100010001003A
:1012B0000100010001000100000001000100010027
:1012C000010000000100010000000000000000001B
:1012D0000000010000000000010001000100010009
:1012E00001000100010001000100010001000100F6
:1012F00001000100010001000100010001000100E6
:1013000001000100010001000100010001000100D5
:1013100001000100010001000100010001000100C5
:1013200001000100010001000100010001000100B5
:1013300001000100010001000100010001000000A6
:101340000100010001000100000000000000010098
:10135000000000000000000000000000000000008D
:10136000000000000000010000000100010000007A
:101370000100010001000000000001000000000069
:10138000000000000000000001000000010001005A
:10139000010001000100010012036B0065007900EB
:1013A00062006F00610072006400000016037100AB
:1013B0006D006B006200750069006C0064006500E0
:1013C000720000000403090409026D00040100A07A
:1013D000FA090400000103010100092111010001C3
:1013E0002240000705810308000A090401000103E7
:1013F000010200092111010001224D0007058203AD
:1014000008000A090402000103000000092111017B
:1014100000012236000705830308000A09040300BF
:101420000103000000092111010001223900070514
:1014300084032000011201100100000008EDFE608D
:101440006001000102000105010906A1010507195B
:10145000E029E715002501950875018102050819A5
:101460000129059505750191029501750391010505
:1014700007190029F71500250195F875018102C0AB
:1014800005010980A10185021601002603001A81C9
:10149000002A8300751095018100C0050C0901A187
:1014A000018503160100269C021A01002A9C027580
:1014B0001095018100C005010902A1010901A100E7
:1014C00005091901290515002501950575018102F8
:1014D0009501750381010501093009311581257FC9
:1014E00095027508810609381581257F95017508D3
:1014F0008106050C0A38021581257F950175088142
:1015000006C0C005010906A101050719E029E71574
:101510000025019508750181029501750881010575
:101520000819012905950575019102950175039129
:10153000010507190029FF150026FF00950675080B
:101540008100C00011241FBECFEFD0E2DEBFCDBFAF
:1015500004B603FE27C080919C0290919D02A09149
:101560009E02B0919F028730904BA740B04BD1F4C0
:1015700010929C0210929D0210929E0210929F0265
:1015800014BE84B7877F84BF0FB6F894A895809166
:101590006000886180936000109260000FBEE0E000
:1015A000F8EF099511E0A0E0B1E0E4ECF2E500E02D
:1015B0000BBF02C007900D92A234B107D9F722E009
:1015C000A2E4B1E001C01D92AC39B207E1F70E947C
:1015D0006A220C9434290C94000090E080E0089575
:1015E0000895089581E00895089581E008950C9488
:1015F000F20A0E947C142FEF84E39CE0215080408B
:101600009040E1F700C000000C94AD1CEF92FF92F7
:101610000F931F93CF93DF938C01FC01E080F18047
:1016200080919701811140C082818823C1F1C70157
:101630000E94001AC82F682FC7010E94AA19B7017B
:101640008C2F0E943E0CEC01B8010E94F70A8823FF
:1016500009F44BC0B801CE010E94480E882309F45A
:1016600044C0C531F0E7DF0720F5C23080E7D80776
:1016700008F04DC0C115E0E7DE0791F1C130D04759
:10168000E1F181E08093440180934501C801DF913D
:10169000CF911F910F91FF90EF900C94F50AC70125
:1016A0000E94D719C82FCBCFC7010E94001AB701DB
:1016B000C8CFCC3380E7D80709F49BC0CD33D047DF
:1016C00001F7F8018281882309F4BAC0109245011C
:1016D0000E94591C909343018093420180E296C07E
:1016E000F801828181110E94F90A80E0DF91CF9197
:1016F0001F910F91FF90EF900895F8018281882348
:10170000A1F380915C02816080935C02EECFF801CE
:101710008281882309F4BACF0E94BB1B811102C0C9
:101720000E94A11B0E94D81B90E090938E02809390
:101730008D02FE01E350F04780918D028160E2311D
:10174000F10538F4EA5CF64D0C94E12880918D02A5
:10175000826080938D0280918D020E94DC1B0E942A
:101760007C14C3CF80918D028460F3CF80918D0271
:101770008860EFCF80918D028061EBCF80918D02E8
:101780008062E7CF80918D028064E3CF80918D02EB
:101790008068DFCF80918D028C60DBCF80918D02DD
:1017A0008E7FD7CF80918D028D7FD3CF80918D0298
:1017B0008B7FCFCF80918D02877FCBCF80918D02A1
:1017C0008F7EC7CF80918D028F7DC3CF80918D0298
:1017D0008F7BBFCF80918D028F77BBCF80918D02A1
:1017E000837FB7CF90918D02892F97FB87F980581F
:1017F000B0CFF8018281882361F0109244010E94E9
:10180000591C909343018093420182E00E94E111B0
:101810006CCF8091440181110FC080914201909161
:1018200043010E94651C883C910530F486E20E94C9
:10183000B61086E20E94921182E00E94E81155CF14
:101840008091450181110FC0809142019091430127
:101850000E94651C883C910530F487E20E94B61016
:1018600087E20E94921180E2E8CF0C94970E0C94CC
:10187000990E0C94F40A0C94390C0895E72FF0E0BB
:1018800093E1899FE00DF11D112483E0EE0FFF1F0E
:101890008A95E1F7E60FF11DEE0FFF1FE856FF4FA7
:1018A000859194910895FC01EE0FFF1FE856FC4EC0
:1018B0008591949108950E943E0C0E94CC0D9C014C
:1018C000811540E4940708F097C0211580E338079C
:1018D00008F0FAC0203E310508F074C0203C310504
:1018E00008F0E5C0283A310588F4253A310508F0BA
:1018F000E2C02130310509F477C0C9010497813A6B
:10190000910508F471C030E020E06EC0C901885A2A
:1019100091094597C0F7283A310509F4FEC0293AE4
:10192000310509F4FDC02A3A310509F4FCC02B3A0F
:10193000310509F4FBC02C3A310509F4FAC02B3B00
:10194000310509F4F9C02C3B310509F4F8C02D3AF2
:10195000310509F4F7C0203B310509F4F6C02E3AF1
:10196000310509F4F5C02F3A310509F4F4C0213BE3
:10197000310509F4F3C0223B310509F4F2C0233BE1
:10198000310509F4F1C0243B310509F4F0C0253BD1
:10199000310509F4EFC0263B310509F4EEC0273BC1
:1019A000310509F4EDC0283B310509F4ECC0293BB1
:1019B000310509F4EBC02A3B310509F4EAC020E007
:1019C00034E412C0211590E2390780F42F3F31052D
:1019D00009F050F4283E310538F0C901805F9109C3
:1019E0003065409708F08FCFC9010895C9019F70F5
:1019F0000E94530C9C01F8CF8115944508F041C01A
:101A0000211583E5380708F06AC0211592E53907EA
:101A100038F5211541E5340708F05CC0211580E553
:101A2000380708F454C0C90134E0969587953A9573
:101A3000E1F78370422F46954695437090E2499FA7
:101A4000A0011124582B822F837021E030E002C0C6
:101A5000220F331F8A95E2F7242B352B3C68C4CF25
:101A6000C9018370992741E050E002C0440F551F1F
:101A70008A95E2F72695269580E2289F9001112409
:101A8000EBCF211596E5390748F4922F88272115C9
:101A90003545C8F59C01246F306AA6CFC901905620
:101AA0003F708115904108F02ECF30629DCFC90163
:101AB000805C91099DCF253A310549F1263A3105DF
:101AC00049F522E830E490CF3327306C8DCF3F705A
:101AD000306A8ACF322F2227216F306A85CFC90121
:101AE0008370992741E050E002C0440F551F8A954A
:101AF000E2F72695269580E2289F90011124242B59
:101B0000352B3A6871CF88279F719C01CECF21E891
:101B100030E46ACF23E830E467CF22EE34E464CFC8
:101B200029EE34E461CF2AEE34E45ECF25EB34E4D1
:101B30005BCF26EB34E458CF23EB34E455CF24EBD2
:101B400034E452CF27EB34E44FCF2CEC34E44CCFC9
:101B50002DEC34E449CF23E835E446CF2AE835E4D8
:101B600043CF22E935E440CF24E935E43DCF21E2FB
:101B700036E43ACF23E236E437CF24E236E434CFFA
:101B800025E236E431CF26E236E42ECF27E236E4F2
:101B90002BCF2AE236E428CF803E910581F1C8F4AC
:101BA0008133910509F462C048F48932910509F442
:101BB00056C08A32910509F460C0089589339105B1
:101BC000B9F082389105A1F08533910509F440C040
:101BD0000895863E910561F138F4823E9105B1F099
:101BE000833E9105E1F00895873E910551F10895F6
:101BF00020918D022370D9F080EE90E0089520911D
:101C00008D0220FF14C089E390E0089520918D0299
:101C100022FF0DC024FD09C083EE90E008952091BD
:101C20008D0222FD31C024FF02C090E080E00895C3
:101C300020918D0223FFFBCF24FDF7CF87EE90E0AC
:101C4000089520918D0223FFEECF86EE90E0089557
:101C500020918D0225FFEBCF89E290E0089520913D
:101C60008D0225FFE4CF85E390E0089520918D0259
:101C700026FFDDCF8AE290E0089520918D0226FFB5
:101C8000D6CF81E390E0089582EE90E00895089524
:101C90000F931F93CF938C01FB018281811106C0AA
:101CA000C1E08C2FCF911F910F910895C0915301E6
:101CB000C11125C00531104799F70E94470E81E0F8
:101CC000809353010E94591C9093520180935101BB
:101CD00010924601109248011092470110924A0159
:101CE0001092490110924C0110924B0110924E013A
:101CF00010924D011092500110924F01D2CF80915D
:101D00005101909152010E94651C883C910540F65A
:101D100080914601E82FF0E0EE0FFF1FE95BFE4FD8
:101D2000118300838F5F80934601C0E0BACF0C948B
:101D3000F00A0C94F10A85B7806885BF85B7806882
:101D400085BFABE1B1E061E070E08D91E82FE295F5
:101D5000EF70F0E041A18F709B0101C0220F8A95C6
:101D6000EAF7922F9095942391A382A1822B82A3CC
:101D700081E0AE32B80749F7A3E1B1E061E070E07D
:101D80008D91E82FE295EF70F0E041A18F709B01FB
:101D900001C0220F8A95EAF7922F9095942391A380
:101DA00082A1822B82A381E0AB31B80749F7E7E635
:101DB000F1E0A4E5B1E08AE791E011921D928E175F
:101DC0009F07D9F70C94350C4F925F926F927F92D8
:101DD0008F929F92AF92BF92CF92DF92EF92FF923B
:101DE0000F931F93CF93DF9304E511E08BE1C82E8F
:101DF00081E0D82E2801EE24E394F12CBB24B39487
:101E0000D2019D902D011E92E60189916E01E82F6D
:101E1000E295EF70F0E091A18F70970101C0220F61
:101E20008A95EAF7892F822B81A382A1822E809442
:101E3000882182A3D0EADA95F1F763E171E090E0BE
:101E400080E0EB01A990BE014A2D42954F7050E011
:101E5000EA0168A07C905A2D5F70E70102C0CC0FA8
:101E6000DD1F5A95E2F7AE01462109F04FC04E2D15
:101E7000082E01C0440F0A94EAF747294C930196B3
:101E800088309105F1F681A1882181A382A1282BB8
:101E900022A38C91981641F0B0927A010E94591CAD
:101EA00090937C0180937B01D7E64D16D1E05D06CF
:101EB00009F0A6CF80917A018823A1F080917B015F
:101EC00090917C010E94651C069760F0E7E6F1E0C6
:101ED000D8018D918D018193B1E007361B07C1F7C1
:101EE00010927A010E94370C81E0DF91CF911F910F
:101EF0000F91FF90EF90DF90CF90BF90AF909F90A9
:101F00008F907F906F905F904F90089540E0B5CF95
:101F1000E82FF0E0E959FE4F8081089508959093ED
:101F20008201809381010895E0918101F091820105
:101F3000309721F00190F081E02D099480E0089520
:101F4000E0918101F0918201309721F00280F381CC
:101F5000E02D09940895E0918101F091820130977C
:101F600021F00480F581E02D0994089520917F01EE
:101F7000309180012817390771F090938001809388
:101F80007F01E0918101F0918201309721F006807C
:101F9000F781E02D0994089520917D0130917E0113
:101FA0002817390771F090937E0180937D01E091AD
:101FB0008101F0918201309721F00084F185E02DBC
:101FC0000994089508950C94E20F0E94501C0E94F9
:101FD0009B0E0C94121DBF92CF92DF92EF92FF9254
:101FE0000F931F93CF93DF9300D000D00F92CDB704
:101FF000DEB70E94E40E84E8C82E81E0D82E10E0FF
:1020000000E0E02E802F0E94880FB82EF601F1909C
:102010006F01F81609F45BC080915C0281FD0E949B
:102020008E0F30E020E0FB244F2D50E0922FBA01BC
:10203000022E02C0759567950A94E2F760FF41C0D1
:102040002983EA8221E030E0790102C0EE0CFF1C16
:102050009A95E2F72B2D30E02E213F2181E0232BB2
:1020600009F480E08B830E94591C8160782F9D8346
:102070008C8349815A816B818D810E948D10F8017A
:10208000EC57FE4F80818E2580830E94BF1F0E94E7
:10209000940F90918301891789F10E94940F809386
:1020A00083010F900F900F900F900F90DF91CF91C1
:1020B0001F910F91FF90EF90DF90CF90BF900C9405
:1020C0003B0C2F5F3F4F2830310509F0AFCF0F5F3A
:1020D0001F4F0331110509F094CF8FEF89838A8355
:1020E0001B820E94591C8160782F9D838C834981BB
:1020F0005A816B818D810E948D10C7CF0F900F90F8
:102100000F900F900F90DF91CF911F910F91FF9043
:10211000EF90DF90CF90BF900895CF93DF93CDB72E
:10212000DEB72B970FB6F894DEBF0FBECDBF4F833F
:10213000588769877A878B871E8285E0FE013796EC
:10214000DE01119601900D928A95E1F749815A813D
:102150006B817C818D819E812B960FB6F894DEBFBA
:102160000FBECDBFDF91CF910C940417882309F4E3
:10217000D8C0823871F40E94940F81FDD2C089E3E7
:102180000E94A81A0E94721B89E30E94E51A0C940F
:10219000721B833859F40E94940F80FDC2C083E5FE
:1021A0000E94A81A0E94721B83E5EFCF843859F46D
:1021B0000E94940F82FDB5C087E40E94A81A0E9475
:1021C000721B87E4E2CF9CEF980F913A18F40E94BB
:1021D000A81ADDCF90E2980F983050F4877091E004
:1021E00001C0990F8A95EAF7892F0E94291BCFCF4A
:1021F0009BE5980F933070F4853A31F0863A39F0C8
:1022000083E890E00C94B60F81E890E0FBCF82E881
:1022100090E0F8CF98E5980F953108F082C0883AA1
:1022200009F440C0893A09F440C08A3A09F440C030
:102230008B3A09F440C08C3A09F440C08B3B09F456
:1022400040C08C3B09F440C08D3A09F440C0803B4B
:1022500009F440C08E3A09F440C08F3A09F440C0F6
:10226000813B09F440C0823B09F440C0833B09F440
:1022700040C0843B09F440C0853B09F440C0863B24
:1022800009F440C0873B09F440C0883B09F440C0D2
:10229000893B09F440C08A3B09F440C090E080E0EB
:1022A0000C94CC0F82EE90E0FBCF89EE90E0F8CF5B
:1022B0008AEE90E0F5CF85EB90E0F2CF86EB90E0F0
:1022C000EFCF83EB90E0ECCF84EB90E0E9CF87EBAE
:1022D00090E0E6CF8CEC90E0E3CF8DEC90E0E0CFA7
:1022E00083E891E0DDCF8AE891E0DACF82E991E0FE
:1022F000D7CF84E991E0D4CF81E292E0D1CF83E2DD
:1023000092E0CECF84E292E0CBCF85E292E0C8CFDC
:1023100086E292E0C5CF87E292E0C2CF8AE292E005
:10232000BFCF0895882309F44BC0823871F40E940E
:10233000940F81FF45C089E30E94A81A0E94721B76
:1023400089E30E94E51A0C94721B833859F40E94A9
:10235000940F80FF35C083E50E94A81A0E94721B6B
:1023600083E5EFCF843859F40E94940F82FF28C090
:1023700087E40E94A81A0E94721B87E4E2CF9CEFB8
:10238000980F913AF0F290E2980F983050F48770DD
:1023900091E001C0990F8A95EAF7892F0E942F1BBF
:1023A000D2CF9BE5980F933020F490E080E00C941E
:1023B000B60F885A853120F490E080E00C94CC0F61
:1023C0000895882321F00E94291B0C94721B089504
:1023D000882321F00E942F1B0C94721B08958F926A
:1023E0009F92AF92BF92DF92EF92FF920F931F9353
:1023F000CF93DF9300D000D00F92CDB7DEB77C0132
:102400006D837983FC01058102950F701281111192
:102410000E94481B0E94A11AD82E882371F0112314
:10242000A1F08D81805E883080F082E00E948B1A5E
:102430000E94A11A91E0D82ED926E981E295EF7089
:10244000F0E0E85BF64D0C94E128D12CF6CF098141
:102450000F70F981F07F11F00295007F1123B1F028
:10246000002361F08D81805E883018F02D8121116C
:1024700009C0802F0E94291B0E94721B8D810E941F
:10248000B61015C0802F0E943A1BF6CF8D810E9496
:102490009211002361F08D81805E883018F03D81BB
:1024A000311129C0802F0E942F1B0E94721BDD203A
:1024B00009F4D3C10E947E1A80FDCFC1F7011282B8
:1024C0000E94781A0E94C218C7010E943E140E94FE
:1024D000781A0F900F900F900F900F90DF91CF917F
:1024E0001F910F91FF90EF90DF90BF90AF909F9062
:1024F0008F900C94E418802F0E94401BD6CF498106
:102500004F70B42E5981507F503219F0B29480EF41
:10251000B8228D81882369F0813029F1112369F176
:10252000002359F0F701858180FFA8CF8F70858344
:1025300004C0112361F0011104C08B2D0E94E11130
:10254000B6CF8B2D0130D1F70E945C1BB0CF0111AB
:1025500006C00E945F1B8B2D0E94E811A8CF01309E
:1025600009F4A5CFF6CF112321F0063008F09FCF54
:10257000E4CF053008F09BCFEECF002361F38D81CF
:102580000E94921194CF898186958695837069F017
:10259000813009F08CCF8D8199819370111102C027
:1025A00090E080E00E94CC0F82CF8D819981937062
:1025B000111102C090E080E00E94B60F78CF8D81AB
:1025C000112329F00E94CD1E0E94B41F70CF0E94DB
:1025D000351FFACF8981837009F05FC0111167CF71
:1025E0002D81229526952770220F220F8D818F70C5
:1025F00090E0B0E0A0E04C015D01022E04C0880C28
:10260000991CAA1CBB1C0A94D2F7FD8160E070E003
:10261000CB01F4FF0FC06FE070E080E090E004C0F9
:10262000660F771F881F991F2A95D2F760957095BE
:102630008095909529812695269523702D832230AB
:10264000B1F0233019F19B01AC01282939294A291D
:102650005B2929833A834B835C833D8169817A813D
:102660008B819C813130B1F00E944F1820CF9B01AB
:10267000AC01282939294A295B2929833A834B83CC
:102680005C83CA01B9010E94791811CF0E944F18CA
:10269000C501B4010E9425180ACF8695112311F0B7
:1026A00089818170882309F402CF2D812295269596
:1026B0002770220F220F8D818F7090E0B0E0A0E094
:1026C0004C015D01022E04C0880C991CAA1CBB1C85
:1026D0000A94D2F73D8160E070E0CB0134FF0FC077
:1026E0006FE070E080E090E004C0660F771F881F05
:1026F000991F2A95D2F7609570958095909549819C
:102700004695469543704D834230B1F0433019F100
:102710009B01AC01282939294A295B2929833A835D
:102720004B835C833D8169817A818B819C813130CF
:10273000B1F00E945519BBCE9B01AC012829392963
:102740004A295B2929833A834B835C83CA01B901F7
:102750000E947F19ACCE0E945519C501B4010E9498
:102760002B19A5CE3D81323F09F447C080F4303F9C
:1027700079F1313FD9F1832F805E8031D0F0112380
:1027800009F456C001117ACE89818F7133C04D8111
:10279000433FD1F1443F99F7112309F43FC08981A8
:1027A0008F7189830E94C21863E089810E94821A16
:1027B0007ECE5D815F705D8389818F71112321F0F1
:1027C0000E94C2188D81BACE0E94E4188D81C4CEB9
:1027D000112341F0053008F06ACE89818F710E9483
:1027E000091965CE063008F062CEF7CF89818F7166
:1027F000112339F00E94C2185ACE89818F7111239A
:10280000C9F30E94E41853CE112329F089818F71F6
:102810000E94AD184CCE0E94A31849CE81E00E94C0
:102820008B1A023008F443CE82E00E948B1A3FCE0E
:102830000111A5CE89818F71E4CF49814F706D81DF
:10284000C7010E94ED0A0E949E1731CE49814F7048
:102850006D81C7010E943D0C2ACE0F900F900F9002
:102860000F900F90DF91CF911F910F91FF90EF90FC
:10287000DF90BF90AF909F908F9008950F931F931C
:10288000CF93DF93EC018B819C81892B29F0888188
:10289000998189238F3F29F4DF91CF911F910F9167
:1028A0000895CE010E94060B8823B1F368817981D7
:1028B0008A810E944E1A8C010E94A9190E941A183E
:1028C000B801CE01DF91CF911F910F910C94EF11C0
:1028D0000E94481B0E94591B0E941B1B0E94721BD6
:1028E0000E94A5200E94B41F90E080E00E94B60FD5
:1028F00090E080E00C94CC0F0E94371B0C9468147D
:102900000E94421A282F892F82958F70903C80F464
:102910008A30B0F4843020F4823090F480E008955E
:102920008630E1F781E0203E88F0213FB9F70EC004
:102930008C3011F08F3091F793FB882780F9089540
:1029400081E0203F39F018F4203E40F70895243FFD
:1029500029F7FCCF0895CF93DF9300D000D00F92DA
:10296000CDB7DEB70F900F900F900F900F90DF91C3
:10297000CF910895CF93DF9300D000D000D0CDB792
:10298000DEB726960FB6F894DEBF0FBECDBFDF913F
:10299000CF9108951F93CF93DF93E091980116E0B4
:1029A000809199018E1304C0DF91CF911F910895FA
:1029B000CE2FD0E01E9FF0011124E656FE4F40813D
:1029C000518162817381848195810E94BA14FE01D4
:1029D0003196E770E5CF4091CA015091CB016091EB
:1029E000CC017091CD018091CE019091CF010C94DA
:1029F000BA141F93CF93DF938091CF01807FC1F4EE
:102A00008091CC018823A1F080919801C091990117
:102A10006091CA017091CB014091CD015091CE01DE
:102A2000D62FD723DA01A095B09516E0C81304C0BD
:102A3000DF91CF911F91089590E04115510511F05C
:102A4000DF3F31F401968770F1CF2A0F3B1F17C08B
:102A5000189FF001199FF00D1124E656FE4F2181B9
:102A60002713F0CF20812613EDCF22812111EACF49
:102A7000238134812417350740F3241B350B283C70
:102A8000310500F72091CF012F7020612093CF01F5
:102A900026E0289FF001299FF00D1124E156FE4FFA
:102AA00080818F70806180838AEC91E00E943E1467
:102AB000DF91CF911F910C94CA149F92AF92BF9255
:102AC000CF92DF92EF92FF920F931F93CF93DF93FA
:102AD000CDB7DEB72B970FB6F894DEBF0FBECDBFD4
:102AE0008C0185E0F801DE01179601900D928A9520
:102AF000E1F7D8014C9111965C9111971296EC90E8
:102B000012978091CD019091CE01009709F46BC18D
:102B10002091CA013091CB01632F62236F3F09F4EA
:102B200062C11396CD90DC909090CC01992009F46D
:102B3000F8C0C816D90608F43FC0F601E81BF90B27
:102B4000CF01FF24F394883C910508F0F12C8AEC26
:102B5000A82E81E0B82E8091CF01982F907FFF2082
:102B600009F4B7C0911180C0FE2C35132AC024137C
:102B700028C0E11026C08F7080618093CF010E9431
:102B8000EB14C5010E943E148091CF01D801159627
:102B90008C938F2D2B960FB6F894DEBF0FBECDBF52
:102BA000DF91CF911F910F91FF90EF90DF90CF9029
:102BB000BF90AF909F900895809590958C0D9D1D2E
:102BC000C0CFCD2829F0842F85238F3F09F019C16C
:102BD00080E0B82FB170DB2EE0919801209199012F
:102BE00036E080FD1CC0EE20A1F28091CF01816013
:102BF0008093CF01F12CCDCF8E2F90E03E9FF0013E
:102C00001124E656FE4F6181651306C0608164138E
:102C100003C062816E11E7CFFC013196E770E213C9
:102C2000EBCF4F8358878F8198850E94421A292FB6
:102C300022952F70903260F0225F2F70223078F44E
:102C40009F7051F0F8019581907F31F4D12C0AC02A
:102C50009F7011F08823D1F3805E8830B8F3C801EB
:102C60000E943E14FD2C95CF351306C0241304C0DA
:102C7000D801EE2009F47BC04F8358878F81988557
:102C80000E948014882309F4B8C0EE2009F4B5C06E
:102C90008091CF01803270F02091CA013091CB0138
:102CA0003A8329831B82DD82CC828E83CE010196FA
:102CB0000E943E1486E0F801AAECB1E001900D926A
:102CC0008A95E1F70E94F9140E94EB14FF24F39413
:102CD00060CF911113C07C2DDB86CA866E2D8B854B
:102CE0000E94AB148AEC91E00E943E1486E0F5014C
:102CF00011928A95E9F70E94EB144BCF3513BCCFA4
:102D00002413BACFE110B8CFD80115968C93C8011F
:102D10000E943E1486E0F50111928A95E9F7F92C9C
:102D200038CFC816D90688F1B601681B790BCB01DC
:102D3000F12C883C910508F047C0FE2CEE2009F4E8
:102D40005CC0351330C024132EC08091CF0180FDAC
:102D500021C0982F907FF1F0D80115968C9315978C
:102D6000903F39F0982F907F905F8F70892B159648
:102D70008C93C8010E943E1486E0F801AAECB1E0F1
:102D800001900D928A95E1F7B6CF809590958C0DC4
:102D90009D1DCECF86E0F801AAECB1E001900D9226
:102DA0008A95E1F7F6CE4F8358878F8198850E94E8
:102DB000801481117FCF8091CF0181608093CF01FA
:102DC000C8010E943E14E5CE7C2DDB86CA866E2D9E
:102DD0008B850E94AB1486E0EAECF1E0DF011D92E6
:102DE0008A95E9F788CFEE2041F04F8358878F818D
:102DF00098850E94801481115DCFC8010E943E1405
:102E000065CF81E08E25E5CE1F93CF93DF93CDB7BD
:102E1000DEB72C970FB6F894DEBF0FBECDBF4F8341
:102E2000588769877A878B879C87CE0107960E948F
:102E30005D15882369F08A859B85892B39F04F8140
:102E40005885842F85238F3F09F071C016E05FC03D
:102E500086E0FE013796DE01119601900D928A956B
:102E6000E1F78A859B85892B89F388859F81892352
:102E70008F3F61F32091990130E0C901019687707D
:102E80009927409198014817190671F40E947C1403
:102E9000109299011092980186E0EAECF1E0DF01CE
:102EA0001D928A95E9F7D2CF96E0929FD001939F29
:102EB000B00D1124A656BE4FFE01319601900D9221
:102EC0009A95E1F7809399010E94CA14BFCF819F20
:102ED000C001112486569E4F0E945D158823E9F09B
:102EE000E09198011E9FF0011124E656FE4F4081AB
:102EF000518162817381848195810E94BA1480918D
:102F0000980190E0019687709927809398018091AD
:102F10009801909199018913DACF2C960FB6F89405
:102F2000DEBF0FBECDBFDF91CF911F9108956985A0
:102F30007A858B859C850E94BA1488CFEF92FF9288
:102F40000F931F93CF93DF938C01892B89F0F12C82
:102F5000EE24E394E8012196F8018491843709F482
:102F600057C0A0F4823009F43EC048F48130D1F05B
:102F7000DF91CF911F910F91FF90EF9008959CEFFB
:102F8000980F9037A8F70E94B6100AC0853709F449
:102F90004CC09CE7980F903758F78F770E9492119A
:102FA0008E0116C00E5F1F4FFE01849190E2980FB4
:102FB000983060F48770FE2D01C0FF0F8A95EAF704
:102FC0008F2F0E944B1B0E94721B02C00E94B610E2
:102FD0008F2D815008F4BECFEFE9FFE03197F1F774
:102FE00000C00000F6CF0E5F1F4FFE01849190E2FB
:102FF000980F983050F48770FE2D01C0FF0F8A950E
:10300000EAF78F2F0E94511BDECF0E949211E0CF72
:103010000E5F1F4FFE01C491C150D0F28FE99FE0B7
:103020000197F1F700C00000F7CF0E5F1F4FFE01C0
:10303000F490CECF0895609333027093340280935E
:103040003502909336020C946814CF93DF9300D02E
:1030500000D0CDB7DEB769837A838B839C83809160
:10306000330290913402A0913502B0913602298149
:103070003A814B815C81822B932BA42BB52B8093BF
:10308000330290933402A0933502B09336020F902E
:103090000F900F900F90DF91CF910C946814CF9305
:1030A000DF9300D000D0CDB7DEB769837A838B83FE
:1030B0009C838091330290913402A0913502B091AB
:1030C000360229813A814B815C8182239323A42398
:1030D000B5238093330290933402A0933502B093CA
:1030E00036020F900F900F900F90DF91CF910C94BC
:1030F0006814CF93DF9300D000D0CDB7DEB76983DB
:103100007A838B839C838091330290913402A091C7
:103110003502B091360229813A814B815C81822748
:103120009327A427B5278093330290933402A0936A
:103130003502B09336020F900F900F900F90DF91F1
:10314000CF910C94681410922F02109230021092BA
:103150003102109232020C94681441E050E060E0B9
:1031600070E004C0440F551F661F771F8A95D2F781
:1031700040932F02509330026093310270933202D9
:103180000C946814282F81E090E0A0E0B0E004C027
:10319000880F991FAA1FBB1F2A95D2F740912F02B3
:1031A000509130026091310270913202842B952B44
:1031B000A62BB72B80932F0290933002A09331025D
:1031C000B09332020C94681441E050E060E070E08B
:1031D00004C0440F551F661F771F8A95D2F740958C
:1031E00050956095709580912F0290913002A0913A
:1031F0003102B091320284239523A623B723809312
:103200002F0290933002A0933102B09332020C94BB
:103210006814282F81E090E0A0E0B0E004C0880F9F
:10322000991FAA1FBB1F2A95D2F740912F025091D8
:103230003002609131027091320284279527A627CF
:10324000B72780932F0290933002A0933102B0935E
:1032500032020C946814CF93DF9300D000D0CDB726
:10326000DEB769837A838B839C8380912F02909150
:103270003002A0913102B091320229813A814B8112
:103280005C81822B932BA42BB52B80932F029093E0
:103290003002A0933102B09332020F900F900F9042
:1032A0000F90DF91CF910C946814CF93DF9300D0EF
:1032B00000D0CDB7DEB769837A838B839C838091FE
:1032C0002F0290913002A0913102B09132022981F7
:1032D0003A814B815C8182239323A423B52380937D
:1032E0002F0290933002A0933102B09332020F90DC
:1032F0000F900F900F90DF91CF910C946814CF93A3
:10330000DF9300D000D0CDB7DEB769837A838B839B
:103310009C8380912F0290913002A0913102B09154
:10332000320229813A814B815C8182279327A4272D
:10333000B52780932F0290933002A0933102B0936F
:1033400032020F900F900F900F90DF91CF910C945D
:1033500068140895990F990F990FE92FE80F877056
:1033600041E001C0440F8A95EAF7E695E695E695B7
:1033700085E0E89FF0011124E053FE4F30E020E0AB
:1033800070E05191DF011197CB01022E02C096959A
:1033900087950A94E2F78170819585278423852794
:1033A0008C932F5F3F4F2530310559F70895E92F52
:1033B000EE0FEE0FEE0FE80F982F9770E695E6955B
:1033C000E69585E0E89FF0011124E053FE4F50E0C0
:1033D00040E080E0219130E0092E02C0369527952B
:1033E0000A94E2F721703327042E01C0220F0A94B9
:1033F000EAF7822B4F5F5F4F4530510559F708952B
:10340000BF92CF92DF92EF92FF920F931F93CF93D1
:10341000DF938C01C0902F02D0903002E0903102F7
:10342000F09032028091330290913402A0913502E3
:10343000B0913602C82AD92AEA2AFB2ACFE1D0E085
:10344000BC2ED701C6010C2E04C0B695A795979542
:1034500087950A94D2F780FD0EC0219788F7B12C8A
:103460008B2DDF91CF911F910F91FF90EF90DF9007
:10347000CF90BF900895B8018C2F0E945B0C0197EC
:1034800061F3EECFCF93DF93D82FC92F0E94001A9C
:103490006D2F7C2FDF91CF910C945B0C1F93CF93FA
:1034A000DF93162FD72F90919701992339F0862F0C
:1034B000972FDF91CF911F910C94421A882391F09E
:1034C000862F972F0E94001AC82F682F812F9D2FBB
:1034D0000E94AA19612F7D2F8C2FDF91CF911F9110
:1034E0000C945B0C862F972F0E94D719C82FF2CF10
:1034F000809137028595859585950895809137024D
:103500008770089598E0899F90011124622B609341
:1035100037020C94C21890913702809589238093CA
:103520003702282F277061F4282F082E000C330B48
:103530009217130629F08595859585950C94E418C6
:10354000089590913702977081E009F480E0089522
:10355000909112019923E1F090918D0297FF18C08C
:10356000E82FE695E695E695EF3139F120910001D7
:1035700030910101E20FF32FF11D877021E030E05F
:1035800001C0220F8A95EAF78181822B81830895F9
:103590002091000130910101F90132969FEF40E046
:1035A0005191851751F09F3F19F4511101C0942F8B
:1035B0004F5F4E31A9F79F3F09F40895290F311D40
:1035C00097FD3A95F901828308959091120199230C
:1035D00001F190918D0297FF1CC0E82FE695E695CA
:1035E000E695EF3139F12091000130910101E20FB0
:1035F000F32FF11D877021E030E0A90102C0440FD4
:10360000551F8A95E2F7CA018095918189238183AC
:1036100008952091000130910101F9013296205E58
:103620003F4F9191891303C0DF0111971C92E2175C
:10363000F307B9F7089581E090E0E0910001F0917F
:103640000101E80FF91F1082019680329105A9F758
:10365000089590915B02982B90935B020895982FA8
:10366000909580915B02892380935B02089510926C
:103670005B02089590915A02982B90935A020895F4
:10368000982F909580915A02892380935A02089529
:1036900010925A02089590915902982B90935902D2
:1036A0000895982F9095809159028923809359020B
:1036B0000895109259020895809338020895109247
:1036C000380208952091000130910101F9013196ED
:1036D000205E3F4F80E0919191118F5FE217F307D9
:1036E000D1F70895E0910001F091010180915B0212
:1036F0008083E0910001F0910101808190915A0254
:10370000892B8083E0910001F091010180819091EB
:103710005902892B808390913802992361F0E091BE
:103720000001F09101018081892B80830E94621B3E
:1037300081111092380280910001909101010C9446
:10374000A00F6DEE7EEF90E080E00E941E2960E009
:1037500082E090E00E940C2960E083E090E00E940B
:103760000C2960E084E090E00E940C2960E085E094
:1037700090E00C940C2990E080E00E9406299C01C6
:1037800081E02D3E3E4F09F080E0089582E090E018
:103790000C94FE28682F82E090E00C940C2983E0C2
:1037A00090E00C94FE28682F83E090E00C940C29A4
:1037B00084E090E00C94FE28682F84E090E00C9464
:1037C0000C2980919302843039F110925D0288E1D6
:1037D00090E020E40FB6F894A895809360000FBEA7
:1037E0002093600080E00E943B0C83B7817F84605F
:1037F00083BF83B7816083BF7894889583B78E7FBA
:1038000083BF0FB6F894A89580916000886180937B
:103810006000109260000FBE089508950895CF9340
:103820000E940D1C0E94E40E0E940E1CC0E08C2F12
:103830000E94880F811105C0CF5FC331C1F7CF91BE
:10384000089581E0FCCF0E947C140E94940F0C9498
:103850003B0C1F921FB61F9211248F939F93AF931F
:10386000BF9380915D02811113C080918902909174
:103870008A02A0918B02B0918C024196A11DB11DCC
:103880008093890290938A02A0938B02B0938C025A
:10389000BF91AF919F918F911F901FBE1F90189560
:1038A00082E084BD93E095BD9AEF97BD80936E0052
:1038B00008952FB7F8948091890290918A02A0917F
:1038C0008B02B0918C022FBF0895CF92DF92EF92BE
:1038D000FF929C014FB7F8948091890290918A02DF
:1038E000A0918B02B0918C024FBF6C017D01EE2440
:1038F000FF24A90170E060E0C416D506E606F706CD
:1039000038F0821B930BFF90EF90DF90CF900895DB
:103910000197F7CF1F921FB61F9211248F939F9389
:10392000AF93BF938091890290918A02A0918B02FC
:10393000B0918C020196A11DB11D809389029093D4
:103940008A02A0938B02B0938C02BF91AF919F919A
:103950008F911F901FBE1F9018950E949924F89474
:103960002FEF87EA91E6215080409040E1F700C0B8
:10397000000087E090EBDC0180939C0290939D0215
:10398000A0939E02B0939F0288E19CE00FB6F8944A
:10399000A895809360000FBE90936000FFCFCF92F8
:1039A000DF92EF92FF920F931F93CF93C0E0E82E28
:1039B000F12C8C2F0E94880F10E000E0C82ED12C33
:1039C000C601002E02C0959587950A94E2F780FF04
:1039D00011C0602F7C2F80E00E943E0CE816F90693
:1039E00049F481E0CF911F910F91FF90EF90DF900C
:1039F000CF9008950F5F1F4F0830110509F7CF5F73
:103A0000C331B9F680E0EECFCF93C82F8CE20E948D
:103A1000CF1C882321F08C2FCF910C94CF1C80E0F9
:103A2000CF910895CF93DF9300D000D0CDB7DEB70C
:103A30000E94BB1B811102C00E94A11B95E69983C5
:103A400008C00E94E40E8FE39CE90197F1F700C0E3
:103A50000000A981A150A983A111F3CF89E20E949E
:103A6000041D811110C18AE20E94041D81110E946F
:103A7000A11B85E00E94041D81110E94AD1C0E94C3
:103A8000C61B80935C0287E00E94041D882371F0AE
:103A90008BE10E94041D882309F4D1C090915C023F
:103AA000892F8D7F91FF826080935C0280915C0200
:103AB0000E94CA1B0E94D81B90E090938E028093B4
:103AC0008D0280EE0E94041D882341F090918D02AA
:103AD000892F8E7F90FF816080938D0289E30E9401
:103AE000041D882341F090918D02892F8D7F91FFD5
:103AF000826080938D0282EE0E94041D882341F033
:103B000090918D02892F8B7F92FF846080938D022C
:103B100086EE0E94041D882341F090918D02892F2A
:103B2000877F93FF886080938D0283EE0E94041D3F
:103B3000882341F090918D02892F8F7E94FF8061C0
:103B400080938D0285E30E94041D882341F09091AB
:103B50008D02892F8F7D95FF806280938D0281E396
:103B60000E94041D882341F090918D02892F8F7B44
:103B700096FF806480938D0281E10E94041D88235A
:103B800041F090918D02892F97FB87F9805880939F
:103B90008D0280918D020E94DC1B87E20E94041D31
:103BA00089838EE10E94041D882319F0B981B260D7
:103BB000B9838FE10E94041D882319F029812460B4
:103BC000298380E20E94041D882319F0398138601E
:103BD000398381E20E94041D882319F049814061E4
:103BE000498382E20E94041D882319F059815062A2
:103BF000598383E20E94041D882319F0898180641F
:103C0000898384E20E94041D8823B1F19981906820
:103C1000998389810E94D31B3981232F30E050E0A2
:103C200040E029833A834B835C83CA01B9010F903A
:103C30000F900F900F90DF91CF910C941B188EE096
:103C40000E94041D882339F090915C02892F8B7F9C
:103C500092FF846029CF80E10E94041D90915C0254
:103C6000882329F0892F877F93FF88601DCF892FB4
:103C70008E7F90FF816018CFA981A111CACF0E94C9
:103C8000CF1B282FCBCF0F900F900F900F90DF916D
:103C9000CF9108958091600280FF12C0609105016C
:103CA00085E0689FB00111247595679575956795B6
:103CB00060387105A8F561157105A1F1862F089589
:103CC00081FF09C06091050185E0689FB001112462
:103CD00075956795EDCF6091050182FD0AC08091D1
:103CE00061028823D1F09091040160910501891748
:103CF00028F085E0689FB0011124DACF869FB001DB
:103D0000112485E0869F9001879F300D1124692F33
:103D100070E0C9010E94CD28CBCF65E070E0CECF26
:103D20008FE7089581E008958091600280FF0CC0C4
:103D30006091030170E075956795759567956115BC
:103D4000710549F1862F089581FF06C06091030136
:103D500070E075956795F3CF6091030182FD0BC00C
:103D6000909161029923A1F0609102018091030179
:103D7000961738F0682F70E06038710500F38FE710
:103D80000895899FC001112470E00E94CD28F4CFCE
:103D900061E070E0D7CF81E00895803F31F40E9468
:103DA0004A1E8195809364020895813F19F40E9410
:103DB0004A1EF8CF823F31F40E944A1E81958093BB
:103DC00063020895833F19F40E944A1EF8CF893F89
:103DD00029F40E94941E8093650208958A3F21F47D
:103DE0000E94941E8195F7CF8B3F31F40E94941E60
:103DF00081958093660208958C3F19F40E94941E69
:103E0000F8CF843F31F48091620281608093620236
:103E10000895853F21F4809162028260F7CF863F4A
:103E200021F4809162028460F1CF873F21F4809178
:103E300062028860EBCF883F21F48091620280614A
:103E4000E5CF8D3F31F48091600281608093600204
:103E500008958E3F21F4809160028260F7CF8F3FFA
:103E6000B9F7809160028460F1CF90916302803F46
:103E700041F48091640287FD10926402992371F0ED
:103E80000895813F29F4809164021816ACF3F6CFAF
:103E9000823F81F497FFF2CF109263028091640217
:103EA00090916502892B90916602892B49F71092B7
:103EB00061020895833F19F4191674F3DFCF893F27
:103EC00039F4809165021816CCF610926502D6CFAF
:103ED0008A3F29F48091650287FFD0CFF6CF8B3FD0
:103EE00039F48091660287FFC9CF10926602C6CF6F
:103EF0008C3F29F4809166021816BCF3BFCF843F33
:103F000031F4809162028E7F80936202B7CF853F49
:103F100021F4809162028D7FF7CF863F21F480915A
:103F200062028B7FF1CF873F21F480916202877F0D
:103F3000EBCF883F21F4809162028F7EE5CF8D3FE9
:103F400031F4809160028E7F8093600297CF8E3F24
:103F500021F4809160028D7FF7CF8F3F09F08ECFE3
:103F6000809160028B7FF0CF82E692E00E94AB0FDF
:103F70000E94591C90935F0280935E0208951F93E4
:103F8000CF93DF9300D000D000D0CDB7DEB78091C3
:103F90005E0290915F020E94651CAC0180916102FB
:103FA0002091060130E0811106C0209107019AE0BE
:103FB000299F900111244217530788F02091630232
:103FC000A0916402A98310916502B0916602BE833C
:103FD00021110FC09A2F912B9B2B09F0B2C026966E
:103FE0000FB6F894DEBF0FBECDBFDF91CF911F910A
:103FF00008958F3F19F08F5F80936102121624F4A9
:104000000E944A1E809363028091630287FF05C06D
:104010000E944A1E8195809363022981121624F41E
:104020000E944A1E809364028091640287FF05C04B
:104030000E944A1E819580936402809163028823C6
:1040400009F455C0309164023D83332309F44FC015
:10405000282F880F330B440B550B29833A834B834E
:104060005C83CA01B9010E94D42723E333E343E30D
:104070005FE369837A838B839C8369817A818B81F7
:104080009C810E94382869837A838B839C83698111
:104090007A818B819C810E949C27609363028D8131
:1040A000082E000C990BAA0BBB0B89839A83AB8358
:1040B000BC83BC01CD010E94D42723E333E343E357
:1040C0005FE369837A838B839C8369817A818B81A7
:1040D0009C810E94382869837A838B839C836981C1
:1040E0007A818B819C810E949C27609364021116C7
:1040F00024F40E94941E809365028091650287FFDC
:1041000005C00E94941E8195809365029E811916B8
:1041100024F40E94941E809366028091660287FFB9
:1041200005C00E94941E81958093660226960FB664
:10413000F894DEBF0FBECDBFDF91CF911F910C94DD
:10414000B41F8F3F09F057CF68CF85E0E2E6F2E079
:10415000DF011D928A95E9F71092610210926002C8
:104160000895809187020895CF93DF9300D00F9236
:10417000CDB7DEB720919302243019F523E02983CF
:104180008A839B832093E9008FEF9091E800815010
:1041900095FD06C095ED9A95F1F700008111F5CFD8
:1041A0008091E80085FF0DC050E040E063E070E0E2
:1041B000CE0101960E9411238091E8008E778093B2
:1041C000E8000F900F900F90DF91CF910895CF935B
:1041D000DF9300D00F92CDB7DEB79C0180919302A0
:1041E000843031F582E08983205831093B832A836A
:1041F00083E08093E9008FEF9091E800815095FD76
:1042000006C095ED9A95F1F700008111F5CF8091E8
:10421000E80085FF0DC050E040E063E070E0CE01B3
:1042200001960E9411238091E8008E778093E80028
:104230000F900F900F90DF91CF91089520919302EE
:104240002430F1F422E02093E9002FEF3091E800D0
:10425000215035FD06C035ED3A95F1F700002111EA
:10426000F5CF2091E80025FF0BC050E040E065E06D
:1042700070E00E9411238091E8008E778093E8001F
:104280000895CF93DF93D82FC92F80919302843064
:10429000F1F4909112019923E9F090918D0297FF2A
:1042A00019C08093E9008FEF9091E800815095FD4F
:1042B00006C095E19A95F1F700008111F5CF809144
:1042C000E80050E040E060E270E085FD1AC0DF9158
:1042D000CF91089581E08093E9008FEF9091E800FD
:1042E000815095FD06C095ED9A95F1F7000081117A
:1042F000F5CF8091E80085FFEACF50E040E068E02C
:1043000070E08D2F9C2F0E9411238091E8008E7702
:104310008093E80080E2ED2FFC2FA7E6B2E0019049
:104320000D928A95E1F7D3CF80919202811109C055
:104330000E9499240E94FB248091E2008460809373
:10434000E2000895109292020895089508950C9441
:10435000231C42E061EC81E00E94152442E061EC04
:1043600082E00E94152442E061EC83E00E94152463
:1043700042E261EC84E00C9415248091950289302E
:1043800089F148F4823009F494C0833009F44FC0B5
:10439000813041F008958A3009F47BC08B3009F4F4
:1043A00061C0089580919402813A09F03FC08091E4
:1043B000E800877F8093E8008091980290919902AD
:1043C000892B61F460E287E692E070E00E9460234E
:1043D0008091E8008B778093E800089560E090E09A
:1043E00080E0F3CF80919402813201F580919802B0
:1043F00090919902009711F00397C1F48091E80021
:10440000877F8093E8008091E80082FF0BC0809155
:10441000F100809387028091E8008B778093E80019
:104420000C944924809193028111EDCF08958091DD
:104430009402813AD9F78091980290919902892B40
:10444000A9F78091E800877F8093E8008091E800D9
:1044500080FFFCCF809112018093F1008091E800F1
:104460008E77DCCF80919402813201F7809198029F
:1044700090919902892BD1F68091E800877F8093F3
:10448000E8000E94492480919602809312010C94C6
:104490007C1480919402813249F68091E800877FF4
:1044A0008093E8000E9449248091970280938802BB
:1044B000089580919402813A09F0B8CF8091E80084
:1044C000877F8093E8008091E80080FFFCCF809197
:1044D0008802C2CF84B7877F84BF0FB6F894A895AF
:1044E00080916000886180936000109260000FBE30
:1044F00080E880936100109261000E94E30F0E94A7
:1045000099240E94FB248091E20084608093E20061
:1045100078940E9481270E94E50F88E091E00E9434
:104520008F0F80919302853019F00E94EB0FF9CF25
:104530000E94E11B80919102882399F30E940F1C35
:10454000882379F30E94FB22ECCF9C01DA01892FAA
:10455000992783309105C1F068F48130910509F401
:1045600045C0029761F48DE690E028EC33E12D938D
:104570003C93089581329105E1F0829739F190E002
:1045800080E030E020E0F3CFC9019927213059F0D5
:104590008230910559F0E4ECF3E1892B81F78491A5
:1045A00090E09F01E4CFECEAF3E1F9CFE8E9F3E131
:1045B000F6CF643020F7E62FF0E0EE0FFF1FE65C49
:1045C000FE4F2081318189E090E0D1CF6430B8F690
:1045D00070E0FB01EE0FFF1FEE5CFE4F208131818A
:1045E000625D7E4FFB01808190E0C1CF82E190E06F
:1045F00025E334E1BCCF84E189BD86E189BD09B4FE
:1046000000FEFDCF8091D8008F7D8093D8008091EF
:10461000E00082608093E0008091E00081FDFCCFAB
:104620000895AF92BF92CF92DF92FF920F931F93A4
:10463000CF93DF936C01EB018A010E946824F82E6E
:10464000811123C00115110539F0F8018081918194
:10465000C81BD90BC80ED91EB12CA12C2097A9F0CC
:104660008091E80085FD22C08091E8008E778093DC
:10467000E80001151105A1F0F80180819181A80ED3
:10468000B91EB182A08285E0F82E8F2DDF91CF91E7
:104690001F910F91FF90DF90CF90BF90AF90089542
:1046A0000E9468248823D1F2F82EEFCFF601819181
:1046B0006F018093F1002197FFEFAF1ABF0ACECFB1
:1046C000FC01CB0120919A0230919B0226173707FB
:1046D00090F0009729F42091E8002E772093E800CD
:1046E00040E0009751F4411108C08091E80082FF3A
:1046F00031C080E00895C901F3CF209193022223B5
:10470000A9F12530A9F12091E80023FD2DC02091C9
:10471000E80022FDEACF2091E80020FFE2CF2091BF
:10472000F2003091F300009719F02830310558F06D
:1047300041E02830310509F040E02091E8002E7773
:104740002093E800CECF41914093F10001972F5F75
:104750003F4FE9CF80919302882341F0853041F0AB
:104760008091E80083FFC1CF81E0089582E0089541
:1047700083E00895FC01CB0120919A0230919B02C5
:104780002617370790F0009729F42091E8002E773C
:104790002093E80040E0009751F4411108C0809157
:1047A000E80082FF32C080E00895C901F3CF209174
:1047B00093022223B1F12530B1F12091E80023FDCD
:1047C0002EC02091E80022FDEACF2091E80020FFD2
:1047D000E2CF2091F2003091F300009719F02830D9
:1047E000310558F041E02830310509F040E02091D2
:1047F000E8002E772093E800CECF44914093F1005B
:10480000319601972F5F3F4FE8CF80919302882325
:1048100041F0853041F08091E80083FFC0CF81E016
:10482000089582E0089583E00895982F973028F046
:104830008F708093E90081E008959093E900242F20
:10484000762F50E0981731F07091EC002091ED0038
:104850005091F00021FD02C09F5FE8CF3091EB0046
:104860003E7F3093EB003091ED003D7F3093ED00C3
:104870003091EB0031603093EB007093EC002093AB
:10488000ED005093F0002091EE0027FDE5CF80E091
:1048900008958091940287FF13C08091E80082FF01
:1048A00006C08091E8008B778093E80004C0809177
:1048B00093028111F2CF0895809193028823D9F356
:1048C0008091E80080FFF8CF8091E8008E77ECCFF0
:1048D0002091E4003091E50095E6A9012091EC00DB
:1048E000822F817020FF06C08091E80080FF06C003
:1048F00080E008952091E80022FD1AC08091930283
:10490000882389F0853089F08091EB0085FD0FC008
:104910002091E4003091E50042175307F9F29150DD
:10492000E1F684E0089582E0089583E0089581E04F
:1049300008950E940A250E941225E0EEF0E0808191
:1049400081608083E8EDF0E080818F77808319BCFF
:10495000A7EDB0E08C918E7F8C9380818F7E8083D9
:104960001092920208950F931F93CF93DF930E94AA
:104970000A250E941225C8EDD0E088818F778883B0
:1049800088818068888388818F7D8883E7EDF0E067
:1049900080818068808319BC1092930210928F02EC
:1049A000109291021092900200EE10E0F8018081C6
:1049B0008B7F808388818160888342E060E080E033
:1049C0000E941524E1EEF0E080818E7F8083E2EE8C
:1049D000F0E0808181608083808188608083F8013D
:1049E00080818E7F8083888180618883DF91CF91F1
:1049F0001F910F910895E8EDF0E080818F7E808314
:104A0000E7EDF0E080818160808381E08093920215
:104A10000C94B324E8EDF0E080818C7F80831092C9
:104A2000E20008951092DA001092E10008951F92BA
:104A30000F920FB60F9211240BB60F922F933F9344
:104A40004F935F936F937F938F939F93AF93BF9396
:104A5000EF93FF938091E10082FF0BC08091E20011
:104A600082FF07C08091E1008B7F8093E1000E946C
:104A700080278091DA0080FF19C08091D80080FFE4
:104A800015C08091DA008E7F8093DA008091D90082
:104A900080FF96C084E189BD86E189BD09B400FE2E
:104AA000FDCF81E0809393020E9494218091E100E8
:104AB00080FF19C08091E20080FF15C08091E20064
:104AC0008E7F8093E2008091E20080618093E2001B
:104AD0008091D80080628093D80019BC85E08093D3
:104AE00093020E94A6218091E10084FF29C0809159
:104AF000E20084FF25C084E189BD86E189BD09B457
:104B000000FEFDCF8091D8008F7D8093D8008091EA
:104B1000E1008F7E8093E1008091E2008F7E8093A0
:104B2000E2008091E20081608093E20080918F0238
:104B3000882309F44BC084E0809393020E94A7214C
:104B40008091E10083FF29C08091E20083FF25C0AE
:104B50008091E100877F8093E10082E0809393025F
:104B600010928F028091E1008E7F8093E10080910E
:104B7000E2008E7F8093E2008091E200806180936A
:104B8000E20042E060E080E00E9415248091F000A5
:104B900088608093F0000E94A521FF91EF91BF9162
:104BA000AF919F918F917F916F915F914F913F91C5
:104BB0002F910F900BBE0F900FBE0F901F90189566
:104BC00019BC109293020E94A22170CF8091E30041
:104BD00087FD02C081E0B0CF83E0AECF1F920F927D
:104BE0000FB60F9211240BB60F922F933F934F9352
:104BF0005F936F937F938F939F93AF93BF93CF9365
:104C0000DF93EF93FF93D091E900DF708091EC0088
:104C1000C82FC17080FDC0E81092E9008091F000BB
:104C2000877F8093F00078940E9436261092E900E6
:104C30008091F00088608093F000CD2BCF70C093FE
:104C4000E900FF91EF91DF91CF91BF91AF919F91DB
:104C50008F917F916F915F914F913F912F910F9025
:104C60000BBE0F900FBE0F901F9018951F93CF9300
:104C7000DF93CDB7DEB7AA970FB6F894DEBF0FBEAD
:104C8000CDBF84E992E0FC0101962091F1002083E0
:104C900022E08C399207B9F70E94BD218091E8008B
:104CA00083FF16C180919402909195029A3008F08A
:104CB0000FC1E92FF0E0E85AF64D0C94E128803856
:104CC00081F0823809F004C1809198028F7080933E
:104CD000E9008091EB0085FB882780F91092E900BC
:104CE00006C0809190029091910291118260909102
:104CF000E800977F9093E8008093F1001092F10014
:104D00008091E8008E77E0C0882309F4CEC082301D
:104D100009F0DEC0809196028111D1C08091980285
:104D20008F7009F4D5C08093E9002091EB0020FF3B
:104D3000C6C0933031F48091EB0080628093EB0029
:104D4000BEC09091EB0090619093EB0021E030E0C9
:104D500001C0220F8A95EAF72093EA001092EA0038
:104D60008091EB008860EACF8111B2C01091960269
:104D70001F778091E3008078812B8093E3008091FE
:104D8000E800877F8093E8000E9449248091E80032
:104D900080FFFCCF8091E30080688093E30082E095
:104DA000111183E08093930293C08058823008F001
:104DB0008FC080919602909197028C3D23E09207DC
:104DC000A1F583E08A838AE289834FB7F894DE01F4
:104DD000139620E03EE051E2E32FF0E050935700BD
:104DE000E49120FF03C0E295EF703F5FEF708E2FDC
:104DF00090E0EA30C0F0C7968D939D932F5F2431E9
:104E000059F74FBF8091E800877F8093E8006AE2FE
:104E100070E0CE0101960E9460238091E8008B77BC
:104E20008093E80055C0C096E7CFAE014F5F5F4F5B
:104E3000609198020E94A522BC01892B09F448C008
:104E40008091E800877F8093E80089819A810E94A1
:104E5000BA23E3CF8038E1F58091E800877F809323
:104E6000E80080918F028093F1004ACF811130C019
:104E700090919602923060F58091E800877F809350
:104E8000E80090938F020E94492480918F0288232A
:104E900011F084E005C08091E30087FDFACF81E046
:104EA000809393020E94A92113C0809196028130C1
:104EB00079F481E0933009F080E0809391021092C0
:104EC000E9008091E800877F8093E8000E944924F0
:104ED0008091E80083FF0AC08091E800877F80937B
:104EE000E8008091EB0080628093EB00AA960FB6F9
:104EF000F894DEBF0FBECDBFDF91CF911F91089513
:104F00000895CF93809193028823A1F0C091E90086
:104F1000CF709091EC00892F817090FD80E8C82BB4
:104F20001092E9008091E80083FD0E943626CF7040
:104F3000C093E900CF9108950E94A3276894B1110E
:104F40000C94322808950E94172888F09F5798F0F3
:104F5000B92F9927B751B0F0E1F0660F771F881F7E
:104F6000991F1AF0BA95C9F714C0B13091F00E9498
:104F70003128B1E008950C943128672F782F8827C5
:104F8000B85F39F0B93FCCF3869577956795B395BF
:104F9000D9F73EF490958095709561957F4F8F4F2E
:104FA0009F4F0895E89409C097FB3EF49095809533
:104FB000709561957F4F8F4F9F4F9923A9F0F92FDF
:104FC00096E9BB279395F695879577956795B7955D
:104FD000F111F8CFFAF4BB0F11F460FF1BC06F5F43
:104FE0007F4F8F4F9F4F16C0882311F096E911C055
:104FF000772321F09EE8872F762F05C0662371F076
:1050000096E8862F70E060E02AF09A95660F771F89
:10501000881FDAF7880F9695879597F9089557FDB9
:105020009058440F551F59F05F3F71F04795880F16
:1050300097FB991F61F09F3F79F0879508951216AD
:1050400013061406551FF2CF4695F1DF08C0161659
:1050500017061806991FF1CF86957105610508940A
:105060000895E894BB2766277727CB0197F9089521
:105070000E944B280C94BC280E94AE2838F00E9455
:10508000B52820F0952311F00C94A5280C94AB289A
:1050900011240C9432280E940F2870F3959FC1F3BD
:1050A000950F50E0551F629FF001729FBB27F00DD6
:1050B000B11D639FAA27F00DB11DAA1F649F66272B
:1050C000B00DA11D661F829F2227B00DA11D621F7A
:1050D000739FB00DA11D621F839FA00D611D221F34
:1050E000749F3327A00D611D231F849F600D211D18
:1050F000822F762F6A2F11249F5750409AF0F1F09B
:1051000088234AF0EE0FFF1FBB1F661F771F881F03
:1051100091505040A9F79E3F510580F00C94A5286E
:105120000C9432285F3FE4F3983ED4F3869577954C
:105130006795B795F795E7959F5FC1F7FE2B880FA9
:10514000911D9695879597F9089597F99F6780E83F
:1051500070E060E008959FEF80EC089500240A94C9
:105160001616170618060906089500240A94121642
:105170001306140605060895092E0394000C11F475
:10518000882352F0BB0F40F4BF2B11F460FF04C022
:105190006F5F7F4F8F4F9F4F089597FB072E16F439
:1051A000009407D077FD09D00E94EA2807FC05D0BB
:1051B0003EF4909581959F4F0895709561957F4F2E
:1051C0000895EE0FFF1F0024001C0BBE0790F69100
:1051D000E02D0994AA1BBB1B51E107C0AA1FBB1FEE
:1051E000A617B70710F0A61BB70B881F991F5A9573
:1051F000A9F780959095BC01CD010895F999FECF4E
:1052000092BD81BDF89A992780B50895A8E1B0E0D4
:1052100042E050E00C942629262FF999FECF92BD4A
:1052200081BDF89A019700B4021639F01FBA20BD6B
:105230000FB6F894FA9AF99A0FBE08950196272F9F
:105240000E940D290C940C29DC01CB01FC01F99979
:10525000FECF06C0F2BDE1BDF89A319600B40D92C2
:1052600041505040B8F70895F894FFCFA60BB20B09
:10527000B60BBA0BBE0BC20BC60BCA0BCE0BD20BB6
:10528000D60BDA0BDE0BE20BE60BEA0BEE0BF20BA6
:10529000271227127F127F12C312DF1257125712E2
:1052A000EA125712B213B2131D14571257122614D2
:1052B0005F268426682784266827B426D526682793
:0452C0002A2736273C
:1052C40039022808140A321EB12041211E21E72088
:1052D400B42001F0F1F2F3F4F5F6F73790919293DC
:1052E40094959697C0C16061626364656667404D3A
:1052F40036390315B61480144714DA13F3130C1457
:0253040025146E
:00000001FF
