:100000000C9422090C946B090C946B090C946B09E9
:100010000C946B090C946B090C946B090C946B0990
:100020000C946B090C946B090C949F220C9476230E
:100030000C94CB190C946B090C946B090C946B0900
:100040000C946B090C946B090C946B090C946B0960
:100050000C946B090C942C1A0C946B090C946B097E
:100060000C946B090C946B090C946B090C946B0940
:100070000C946B090C946B090C946B090C946B0930
:100080000C946B090C946B090C946B090C946B0920
:100090000C946B090C946B0952005000E3004F0064
:1000A00051000000E2005D005A004E002B03580092
:1000B0002C005700560055002C002C002C002C0062
:1000C0002C002C002C00670060004B004E006300E9
:1000D0005B005E00610054002C002C002C002C0002
:1000E0002C002C00E3004D004D004A004C00620043
:1000F00059005C005F005300E5001D001B00060076
:1001000019000500110010003600370038000151B9
:100110004E004D00E4002C00E10004001600070032
:1001200009000A000B000D000E000F0033004C0008
:10013000AB00310028003400E2002B0014001A004C
:100140000800150017001C0018000C001200AC007D
:100150002C0030002F001300390029001E001F0062
:1001600020002100220023002400250026004C004E
:100170002A002E002D002700E0003A003B003C0042
:100180003D003E003F004000410042004300AE0001
:10019000460035004500440017032B0309012B01DD
:1001A0001A010000010001000100AB000100010084
:1001B0000100010001000100010001000100010037
:1001C00001000100010001000100AC00010001007C
:1001D0000100010001000100010001000100010017
:1001E000010001000100AE000100AD0001000100AE
:1001F0000100010001000100E60001000100010012
:1002000001000100010001000100010001000100E6
:1002100001000100E40001000100010001000100F3
:1002200001000100010001000100010001000100C6
:10023000A9006400650001000100007001000100D8
:100240000100010001000100010001000100AA00FD
:1002500001000100010001000100A50001000100F2
:100260000100010001000100010001000100010086
:1002700001000100010001000100680069006A003E
:100280006B006C006D006E006F0070007100A800C4
:1002900049004800730072000100010001000100E4
:1002A0000100000001000100010001000100010047
:1002B0000100010001000100010001000100010036
:1002C0000100010001000100010001000100010026
:1002D0000100010001000100010001000100010016
:1002E0000100010001000100010001000100010006
:1002F00001000100010001000100010001000100F6
:1003000001000100010001000100010001000100E5
:1003100001000100010001000100010001000100D5
:1003200001000100010001000100010001000100C5
:1003300001000100010001000100010001000100B5
:1003400001000100010001000100010001000100A5
:100350000100010001000100010001000100010095
:100360000100010001000100010001000100010085
:100370000100010001000100010001000100010075
:100380000100010001000100010001000100010065
:100390000100010001000100010001000100010055
:1003A0000100000001000100010001000100010046
:1003B0000100010001000100010001000100010035
:1003C0000100010001000100010001000100010025
:1003D0000100010001000100010001000100010015
:1003E0000100010001000100010001000100010005
:1003F00001000100010001000100010001000100F5
:1004000001000100010001000100010001000100E4
:1004100001000100010001000100010001000100D4
:1004200001000100010001000100010001000100C4
:1004300001000100010001000100010001000100B4
:1004400001000100010001000100010001000100A4
:100450000100010001000100010001000100010094
:100460000100010001000100010001000100010084
:100470000100010001000100010001000100010074
:100480000100010001000100010001000100010064
:100490000100010001000100010001000100010054
:1004A0000100000001000100010001000100010045
:1004B0000100010001000100010001000100010034
:1004C0000100010001000100010001000100010024
:1004D0000100010001000100010001000100010014
:1004E0000100010001000100010001000100010004
:1004F00001000100010001000100010001000100F4
:1005000001000100010001000100010001000100E3
:1005100001000100010001000100010001000100D3
:1005200001000100010001000100010001000100C3
:1005300001000100010001000100010001000100B3
:1005400001000100010001000100010001000100A3
:100550000100010001000100010001000100010093
:100560000100010001000100010001000100010083
:100570000100010001000100010001000100010073
:100580000100010001000100010001000100010063
:100590000100010001000100010001000100010053
:1005A0000100000001000100010001000100010044
:1005B0000100010001000100010001000100010033
:1005C0000100010001000100010001000100010023
:1005D0000100010001000100010001000100010013
:1005E0000100010001000100010001000100010003
:1005F00001000100010001000100010001000100F3
:1006000001000100010001000100010001000100E2
:1006100001000100010001000100010001000100D2
:1006200001000100010001000100010001000100C2
:1006300001000100010001000100010001000100B2
:1006400001000100010001000100010001000100A2
:100650000100010001000100010001000100010092
:100660000100010001000100010001000100010082
:100670000100010001000100010001000100010072
:100680000100010001000100010001000100010062
:100690000100010001000100010001000100010052
:1006A0000100000001000100010001000100010043
:1006B0000100010001000100010001000100010032
:1006C0000100010001000100010001000100010022
:1006D0000100010001000100010001000100010012
:1006E0000100010001000100010001000100010002
:1006F00001000100010001000100010001000100F2
:1007000001000100010001000100010001000100E1
:1007100001000100010001000100010001000100D1
:1007200001000100010001000100010001000100C1
:1007300001000100010001000100010001000100B1
:1007400001000100010001000100010001000100A1
:100750000100010001000100010001000100010091
:100760000100010001000100010001000100010081
:100770000100010001000100010001000100010071
:100780000100010001000100010001000100010061
:100790000100010001000100010001000100010051
:1007A0000100000001000100010001000100010042
:1007B0000100010001000100010001000100010031
:1007C0000100010001000100010001000100010021
:1007D0000100010001000100010001000100010011
:1007E0000100010001000100010001000100010001
:1007F00001000100010001000100010001000100F1
:1008000001000100010001000100010001000100E0
:1008100001000100010001000100010001000100D0
:1008200001000100010001000100010001000100C0
:1008300001000100010001000100010001000100B0
:1008400001000100010001000100010001000100A0
:100850000100010001000100010001000100010090
:100860000100010001000100010001000100010080
:100870000100010001000100010001000100010070
:100880000100010001000100010001000100010060
:100890000100010001000100010001000100010050
:1008A0000100000001000100010001000100010041
:1008B0000100010001000100010001000100010030
:1008C0000100010001000100010001000100010020
:1008D0000100010001000100010001000100010010
:1008E0000100010001000100010001000100010000
:1008F00001000100010001000100010001000100F0
:1009000001000100010001000100010001000100DF
:1009100001000100010001000100010001000100CF
:1009200001000100010001000100010001000100BF
:1009300001000100010001000100010001000100AF
:10094000010001000100010001000100010001009F
:10095000010001000100010001000100010001008F
:10096000010001000100010001000100010001007F
:10097000010001000100010001000100010001006F
:10098000010001000100010001000100010001005F
:10099000010001000100010001000100010001004F
:1009A0000100000001000100010001000100010040
:1009B000010001000100010001000100010001002F
:1009C000010001000100010001000100010001001F
:1009D000010001000100010001000100010001000F
:1009E00001000100010001000100010001000100FF
:1009F00001000100010001000100010001000100EF
:100A000001000100010001000100010001000100DE
:100A100001000100010001000100010001000100CE
:100A200001000100010001000100010001000100BE
:100A300001000100010001000100010001000100AE
:100A4000010001000100010001000100010001009E
:100A5000010001000100010001000100010001008E
:100A6000010001000100010001000100010001007E
:100A7000010001000100010001000100010001006E
:100A8000010001000100010001000100010001005E
:100A9000010001000100010001000100010001004E
:100AA000010000000100010001000100010001003F
:100AB000010001000100010001000100010001002E
:100AC000010001000100010001000100010001001E
:100AD000010001000100010001000100010001000E
:100AE00001000100010001000100010001000100FE
:100AF00001000100010001000100010001000100EE
:100B000001000100010001000100010001000100DD
:100B100001000100010001000100010001000100CD
:100B200001000100010001000100010001000100BD
:100B300001000100010001000100010001000100AD
:100B4000010001000100010001000100010001009D
:100B5000010001000100010001000100010001008D
:100B6000010001000100010001000100010001007D
:100B7000010001000100010001000100010001006D
:100B8000010001000100010001000100010001005D
:100B9000010001000100010001000100010001004D
:100BA000010000000100010001000100010001003E
:100BB000010001000100010001000100010001002D
:100BC000010001000100010001000100010001001D
:100BD000010001000100010001000100010001000D
:100BE00001000100010001000100010001000100FD
:100BF00001000100010001000100010001000100ED
:100C000001000100010001000100010001000100DC
:100C100001000100010001000100010001000100CC
:100C200001000100010001000100010001000100BC
:100C300001000100010001000100010001000100AC
:100C4000010001000100010001000100010001009C
:100C5000010001000100010001000100010001008C
:100C6000010001000100010001000100010001007C
:100C7000010001000100010001000100010001006C
:100C8000010001000100010001000100010001005C
:100C9000010001000100010001000100010001004C
:100CA000010000000100010001000100010001003D
:100CB000010001000100010001000100010001002C
:100CC000010001000100010001000100010001001C
:100CD000010001000100010001000100010001000C
:100CE00001000100010001000100010001000100FC
:100CF00001000100010001000100010001000100EC
:100D000001000100010001000100010001000100DB
:100D100001000100010001000100010001000100CB
:100D200001000100010001000100010001000100BB
:100D300001000100010001000100010001000100AB
:100D4000010001000100010001000100010001009B
:100D5000010001000100010001000100010001008B
:100D6000010001000100010001000100010001007B
:100D7000010001000100010001000100010001006B
:100D8000010001000100010001000100010001005B
:100D9000010001000100010001000100010001004B
:100DA000010000000100010001000100010001003C
:100DB000010001000100010001000100010001002B
:100DC000010001000100010001000100010001001B
:100DD000010001000100010001000100010001000B
:100DE00001000100010001000100010001000100FB
:100DF00001000100010001000100010001000100EB
:100E000001000100010001000100010001000100DA
:100E100001000100010001000100010001000100CA
:100E200001000100010001000100010001000100BA
:100E300001000100010001000100010001000100AA
:100E4000010001000100010001000100010001009A
:100E5000010001000100010001000100010001008A
:100E6000010001000100010001000100010001007A
:100E7000010001000100010001000100010001006A
:100E8000010001000100010001000100010001005A
:100E9000010001000100010001000100010001004A
:100EA000010000000100010001000100010001003B
:100EB000010001000100010001000100010001002A
:100EC000010001000100010001000100010001001A
:100ED000010001000100010001000100010001000A
:100EE00001000100010001000100010001000100FA
:100EF00001000100010001000100010001000100EA
:100F000001000100010001000100010001000100D9
:100F100001000100010001000100010001000100C9
:100F200001000100010001000100010001000100B9
:100F300001000100010001000100010001000100A9
:100F40000100010001000100010001000100010099
:100F50000100010001000100010001000100010089
:100F60000100010001000100010001000100010079
:100F70000100010001000100010001000100010069
:100F80000100010001000100010001000100010059
:100F90000100010001000100010001000100010049
:100FA000010000000100010001000100010001003A
:100FB0000100010001000100010001000100010029
:100FC0000100010001000100010001000100010019
:100FD0000100010001000100010001000100010009
:100FE00001000100010001000100010001000100F9
:100FF00001000100010001000100010001000100E9
:1010000001000100010001000100010001000100D8
:1010100001000100010001000100010001000100C8
:1010200001000100010001000100010001000100B8
:1010300001000100010001000100010001000100A8
:101040000100010001000100010001000100010098
:101050000100010001000100010001000100010088
:101060000100010001000100010001000100010078
:101070000100010001000100010001000100010068
:101080000100010001000100010001000100010058
:10109000010001000100010012036B0065007900EE
:1010A00062006F00610072006400000016037100AE
:1010B0006D006B006200750069006C0064006500E3
:1010C000720000000403090409026D00040100A07D
:1010D000FA090400000103010100092111010001C6
:1010E0002240000705810308000A090401000103EA
:1010F000010200092111010001224D0007058203B0
:1011000008000A090402000103000000092111017E
:1011100000012236000705830308000A09040300C2
:101120000103000000092111010001223900070517
:1011300084032000011201100100000008EDFE6090
:101140006001000102000105010906A1010507195E
:10115000E029E715002501950875018102050819A8
:101160000129059505750191029501750391010508
:1011700007190029F71500250195F875018102C0AE
:1011800005010980A10185021601002603001A81CC
:10119000002A8300751095018100C0050C0901A18A
:1011A000018503160100269C021A01002A9C027583
:1011B0001095018100C005010902A1010901A100EA
:1011C00005091901290515002501950575018102FB
:1011D0009501750381010501093009311581257FCC
:1011E00095027508810609381581257F95017508D6
:1011F0008106050C0A38021581257F950175088145
:1012000006C0C005010906A101050719E029E71577
:101210000025019508750181029501750881010578
:10122000081901290595057501910295017503912C
:10123000010507190029FF150026FF00950675080E
:101240008100C00011241FBECFEFD0E2DEBFCDBFB2
:1012500004B603FE27C08091D4029091D502A091DC
:10126000D602B091D7028730904BA740B04BD1F453
:101270001092D4021092D5021092D6021092D70288
:1012800014BE84B7877F84BF0FB6F894A895809169
:101290006000886180936000109260000FBEE0E003
:1012A000F8EF099511E0A0E0B1E0E6E1FEE400E02E
:1012B0000BBF02C007900D92A239B107D9F722E007
:1012C000A2E9B1E001C01D92A43DB207E1F70E947E
:1012D000F21F0C94C1260C94000090E080E0089569
:1012E0000895089581E0089581FF03C0509A5898A9
:1012F00008955098FCCF81E008950C9472090E94E3
:101300003C122FEF84E39CE0215080409040E1F7B5
:1013100000C000000C944F1AEF92FF920F931F939E
:10132000CF93DF938C01FC01E080F1808091DE019E
:10133000811140C082818823C1F1C7010E94A31797
:10134000C82F682FC7010E944F17B7018C2F0E942A
:10135000C40AEC01B8010E947D09882309F44BC03E
:10136000B801CE010E94450C882309F444C0C53160
:10137000F0E7DF0720F5C23080E7D80708F04DC05E
:10138000C115E0E7DE0791F1C130D047E1F181E01E
:101390008093940180939501C801DF91CF911F91B3
:1013A0000F91FF90EF900C947B09C7010E947B176F
:1013B000C82FCBCFC7010E94A317B701C8CFCC332A
:1013C00080E7D80709F49BC0CD33D04701F7F80177
:1013D0008281882309F4BAC0109295010E94FB19FA
:1013E000909393018093920180E296C0F8018281EC
:1013F00081110E947F0980E0DF91CF911F910F91B1
:10140000FF90EF900895F80182818823A1F38091E5
:101410009402816080939402EECFF8018281882348
:1014200009F4BACF0E945C19811102C00E944219CE
:101430000E94791990E090939B0280939A02FE019A
:10144000E350F04780919A028160E231F10538F46F
:10145000ED53F94D0C946E2680919A028260809330
:101460009A0280919A020E947D190E943C12C3CF79
:1014700080919A028460F3CF80919A028860EFCFC6
:1014800080919A028061EBCF80919A028062E7CFCF
:1014900080919A028064E3CF80919A028068DFCFC6
:1014A00080919A028C60DBCF80919A028E7FD7CF99
:1014B00080919A028D7FD3CF80919A028B7FCFCF7C
:1014C00080919A02877FCBCF80919A028F7EC7CF7F
:1014D00080919A028F7DC3CF80919A028F7BBFCF7C
:1014E00080919A028F77BBCF80919A02837FB7CF8A
:1014F00090919A02892F97FB87F98058B0CFF80115
:101500008281882361F0109294010E94FB199093CC
:1015100093018093920182E00E949D0F6CCF809195
:10152000940181110FC080919201909193010E94CA
:10153000071A883C910530F486E20E94EC0E86E2A0
:101540000E944E0F82E00E94A40F55CF809195011A
:1015500081110FC080919201909193010E94071A0E
:10156000883C910530F487E20E94EC0E87E20E94ED
:101570004E0F80E2E8CF0C94940C0C94960C0C94D3
:1015800074090C94BF0A089528E0829FC0011124B9
:10159000870F911D24E0880F991F2A95E1F7FC0120
:1015A000E60FF11DEE0FFF1FE856FF4F8591949156
:1015B0000895FC01EE0FFF1FE856FF4E85919491B0
:1015C00008950E94C40A0E94C90B9C018115904491
:1015D000F0F5211580E3380708F0AFC0203E310553
:1015E000F0F4203C310508F090C0283A310570F441
:1015F000253A310508F08DC02130310529F0C901A7
:101600000497813A910540F4C9010895C901885AA7
:101610009109459708F486C030E020E0F5CF211508
:1016200040E2340770F42F3F310509F068F7283E97
:10163000310550F3C901805F91093065409720F36F
:10164000EBCFC9019F700E94D90A9C01DDCF211503
:1016500084E5380708F042C0211543E5340708F057
:1016600077C0211582E5380740F5211541E534079B
:1016700008F069C0211580E5380708F461C0C90188
:1016800054E0969587955A95E1F7382F3370822F5D
:1016900086958695837040E2849FC0011124932B28
:1016A000422F437021E030E002C0220F331F4A95E1
:1016B000E2F7282B392B3C68A7CFA90143705527A7
:1016C00081E090E002C0880F991F4A95E2F72695C5
:1016D000269540E2249F90011124EBCF211586E549
:1016E000380750F4922F88272115354508F044C05B
:1016F0009C01246F306A88CFC90190563F708115D4
:10170000904108F089CF30627FCFC901805C910998
:101710009ACF253A3105A1F1263A3105A1F123E806
:1017200030E472CF283A310589F1220F331FF901D5
:10173000EF53F0402081318167CF3327306C64CF85
:101740003F70306A61CF322F2227216F306A5CCF21
:10175000A9014370552781E090E002C0880F991FCE
:101760004A95E2F72695269540E2249F90011124A0
:10177000282B392B3A6848CF88279F719C01C3CF0B
:1017800021E830E441CF22E830E43ECF22EE34E4D9
:101790003BCF803E910581F1C8F48133910509F476
:1017A00062C048F48932910509F456C08A32910525
:1017B00009F460C0089589339105B9F08238910524
:1017C000A1F08533910509F440C00895863E910546
:1017D00061F138F4823E9105B1F0833E9105E1F06C
:1017E0000895873E910551F1089520919A02237042
:1017F000D9F080EE90E0089520919A0220FF14C065
:1018000089E390E0089520919A0222FF0DC024FD03
:1018100009C083EE90E0089520919A0222FD31C024
:1018200024FF02C090E080E0089520919A0223FFF7
:10183000FBCF24FDF7CF87EE90E0089520919A0228
:1018400023FFEECF86EE90E0089520919A0225FFC7
:10185000EBCF89E290E0089520919A0225FFE4CF32
:1018600085E390E0089520919A0226FFDDCF8AE279
:1018700090E0089520919A0226FFD6CF81E390E070
:10188000089582EE90E0089508950F931F93CF93EB
:101890008C01FB018281811106C0C1E08C2FCF91A8
:1018A0001F910F910895C091A301C11125C0053169
:1018B000104799F70E94440C81E08093A3010E9495
:1018C000FB199093A2018093A101109296011092AE
:1018D00098011092970110929A011092990110921A
:1018E0009C0110929B0110929E0110929D011092FA
:1018F000A00110929F01D2CF8091A1019091A201ED
:101900000E94071A883C910540F680919601E82FC5
:10191000F0E0EE0FFF1FE956FE4F118300838F5F4B
:1019200080939601C0E0BACF0C9470090C947109B1
:1019300085B7806885BF85B7806885BFABE3B1E0B8
:101940004BE451E061E070E08D91E82FE295EF709B
:10195000F0E091A18F709B0101C0220F8A95EAF7F8
:10196000822F8095892381A382A1822B82A34A178B
:101970005B0751F7ABE4B1E043E551E061E070E0B3
:101980008D91E82FE295EF70F0E091A18F709B01AF
:1019900001C0220F8A95EAF7822F8095892381A3BF
:1019A00082A1822B82A34A175B0751F780E1E4EB07
:1019B000F1E0DF01982F1D929A95E9F7E4EAF1E052
:1019C000DF011D928A95E9F70C94BB0A3F924F9272
:1019D0005F926F927F928F929F92AF92BF92CF92BF
:1019E000DF92EF92FF920F931F93CF93DF9300D07C
:1019F00000D0CDB7DEB70BE311E01A821982EE24D6
:101A0000E394F12C94EB692E91E0792E33243394F6
:101A1000D8018D918D01E82FE295EF70F0E091A152
:101A20008F70570101C0AA0C8A95EAF7892F8A297D
:101A300081A382A15A2C5094852182A3B0EABA9541
:101A4000F1F7B701098002C0660F771F0A94E2F729
:101A50004B018094909484EA91E09C838B834BE4C7
:101A600051E0412CAB81BC812D913D91BC83AB8376
:101A7000DA01DD90AD018D2D82958F70805E90E052
:101A8000DC018C9190E0BD2DBF7002C095958795CB
:101A9000BA95E2F780FD5DC0C901862B972BCB80FC
:101AA000DC80A2E0CA1AD108D6018D939C93281736
:101AB000390711F0442443948B819C816816790680
:101AC00089F681A1582251A282A18A2982A34420A9
:101AD00041F03092C4010E94FB199093C60180939B
:101AE000C501A981BA811196BA83A983509709F0DB
:101AF0008FCF8091C401882399F08091C501909186
:101B0000C6010E94071A069758F080E1E4EAF1E066
:101B1000A4EBB1E001900D928A95E1F71092C40117
:101B20000E94BD0A81E00F900F900F900F90DF91FF
:101B3000CF911F910F91FF90EF90DF90CF90BF90CA
:101B4000AF909F908F907F906F905F904F903F905D
:101B50000895C90188219921A2CFE82FF0E0EE0F66
:101B6000FF1FEC54FE4F808191810895089590935A
:101B7000CC018093CB010895E091CB01F091CC0191
:101B8000309721F00190F081E02D099480E00895D4
:101B9000E091CB01F091CC01309721F00280F381EC
:101BA000E02D09940895E091CB01F091CC0130979C
:101BB00021F00480F581E02D099408952091C90158
:101BC0003091CA012817390771F09093CA018093A8
:101BD000C901E091CB01F091CC01309721F0068052
:101BE000F781E02D099408952091C7013091C80133
:101BF0002817390771F09093C8018093C701E091CD
:101C0000CB01F091CC01309721F00084F185E02DDB
:101C10000994089508950C940A0E0E94F2190E94E6
:101C2000980C0C94BC1A7F928F929F92AF92BF92A5
:101C3000CF92DF92EF92FF920F931F93CF93DF9398
:101C400000D000D00F92CDB7DEB70E94E60C9EEC1C
:101C5000A92E91E0B92E10E000E088248394912C05
:101C6000702E802F0E94AD0D7C01F501C190D190A6
:101C70005F01C816D90609F45CC08091940281FD09
:101C80000E94B60D96012E253F2590E080E064016C
:101C9000082E02C0CC0CDD1C0A94E2F7A6014223F8
:101CA0005323452B09F440C089837A82EC20FD2020
:101CB00081E0EF2809F480E08B830E94FB198160AA
:101CC000782F9D838C8349815A816B81892F0E9453
:101CD000C30E000F111FF801E253FE4F8081918166
:101CE0008C259D25918380830E94471D0E94BC0DF9
:101CF0009091CD018917A1F10E94BC0D8093CD0177
:101D00000F900F900F900F900F90DF91CF911F9138
:101D10000F91FF90EF90DF90CF90BF90AF909F908A
:101D20008F907F900C94C10A01968031910509F043
:101D3000AECF0F5F1F4F0830110509F091CF8FEF25
:101D400089838A831B820E94FB198160782F9D837F
:101D50008C8349815A816B81892F0E94C30EC4CF25
:101D60000F900F900F900F900F90DF91CF911F91D8
:101D70000F91FF90EF90DF90CF90BF90AF909F902A
:101D80008F907F900895CF93DF93CDB7DEB72B97D9
:101D90000FB6F894DEBF0FBECDBF4F83588769875B
:101DA0007A878B871E8285E0FE013796DE011196C9
:101DB00001900D928A95E1F749815A816B817C816E
:101DC0008D819E812B960FB6F894DEBF0FBECDBFDE
:101DD000DF91CF910C94A914882309F45EC0823856
:101DE00071F40E94BC0D81FD58C089E30E944B181C
:101DF0000E94131989E30E9487180C9413198338E1
:101E000059F40E94BC0D80FD48C083E50E944B1828
:101E10000E94131983E5EFCF843859F40E94BC0D5A
:101E200082FD3BC087E40E944B180E94131987E48F
:101E3000E2CF9CEF980F913A18F40E944B18DDCF37
:101E400090E2980F983050F4877091E001C0990F9C
:101E50008A95EAF7892F0E94CA18CFCF9BE5980F81
:101E6000933070F4853A31F0863A39F083E890E0A7
:101E70000C94DE0D81E890E0FBCF82E890E0F8CF93
:101E8000885A853150F4E82FF0E0EE0FFF1FED5A2D
:101E9000FE4F808191810C94F40D0895882309F4FC
:101EA0004BC0823871F40E94BC0D81FF45C089E3AC
:101EB0000E944B180E94131989E30E9487180C9402
:101EC0001319833859F40E94BC0D80FF35C083E597
:101ED0000E944B180E94131983E5EFCF843859F400
:101EE0000E94BC0D82FF28C087E40E944B180E940C
:101EF000131987E4E2CF9CEF980F913AF0F290E249
:101F0000980F983050F4877091E001C0990F8A952E
:101F1000EAF7892F0E94D018D2CF9BE5980F933013
:101F200020F490E080E00C94DE0D885A853120F496
:101F300090E080E00C94F40D0895882321F00E9435
:101F4000CA180C9413190895882321F00E94D01800
:101F50000C94131908958F929F92AF92BF92DF92C3
:101F6000EF92FF920F931F93CF93DF9300D000D097
:101F70000F92CDB7DEB77C016D837983FC010581BB
:101F800002950F70128111110E94E9180E944418E5
:101F9000D82E882371F01123A1F08D81805E8830C6
:101FA00080F082E00E942E180E94441891E0D82E02
:101FB000D926E981E295EF70F0E0EB52F94D0C94EF
:101FC0006E26D12CF6CF09810F70F981F07F11F0C8
:101FD0000295007F1123B1F0002361F08D81805EB6
:101FE000883018F02D81211109C0802F0E94CA1855
:101FF0000E9413198D810E94EC0E15C0802F0E9443
:10200000DB18F6CF8D810E944E0F002361F08D8189
:10201000805E883018F03D81311129C0802F0E94E8
:10202000D0180E941319DD2009F4D7C10E9421188D
:1020300080FDD3C1F70112820E941B180E9469160D
:10204000C7010E94FE110E941B180F900F900F9065
:102050000F900F90DF91CF911F910F91FF90EF9014
:10206000DF90BF90AF909F908F900C948A16802F36
:102070000E94E118D6CF49814F70B42E5981507F0C
:10208000503219F0B29480EFB8228D81882369F024
:10209000813029F1112369F1002359F0F70185817D
:1020A00080FFA8CF8F70858304C0112361F00111D8
:1020B00004C08B2D0E949D0FB6CF8B2D0130D1F720
:1020C0000E94FD18B0CF011106C00E9400198B2D8F
:1020D0000E94A40FA8CF013009F4A5CFF6CF112399
:1020E00021F0063008F09FCFE4CF053008F09BCFF9
:1020F000EECF002361F38D810E944E0F94CF898132
:1021000086958695837069F0813009F08CCF8D813A
:1021100099819370111102C090E080E00E94F40D4B
:1021200082CF8D8199819370111102C090E080E07F
:102130000E94DE0D78CF8D81112329F00E94771C3B
:102140000E943C1D70CF0E94C91CFACF8981837008
:1021500009F05FC0111167CF2D8122952695277058
:10216000220F220F8D818F7090E0B0E0A0E04C0133
:102170005D01022E04C0880C991CAA1CBB1C0A9489
:10218000D2F7FD8160E070E0CB01F4FF0FC06FE09B
:1021900070E080E090E004C0660F771F881F991FF1
:1021A0002A95D2F76095709580959095298126950E
:1021B000269523702D832230B1F0233019F19B0135
:1021C000AC01282939294A295B2929833A834B8381
:1021D0005C833D8169817A818B819C813130B1F052
:1021E0000E94F61520CF9B01AC01282939294A29E4
:1021F0005B2929833A834B835C83CA01B9010E941E
:10220000201611CF0E94F615C501B4010E94CC150D
:102210000ACF112309F447C0398130FF04CF2D8143
:10222000229526952770220F220F8D818F7090E0C6
:10223000B0E0A0E04C015D01022E04C0880C991CA6
:10224000AA1CBB1C0A94D2F75D8160E070E0CB0150
:1022500054FF0FC06FE070E080E090E004C0660FB4
:10226000771F881F991F2A95D2F7609570958095E2
:102270009095E981E695E695E370ED83E230F1F023
:10228000E33059F19B01AC01282939294A295B29FE
:1022900029833A834B835C83E13049F0CA01B90159
:1022A0000E94FA16C0CE498141FFBDCEB8CF6981E8
:1022B0007A818B819C810E94D016B5CE9B01AC01A6
:1022C000282939294A295B2929833A834B835C834E
:1022D000CA01B9010E942417A6CE0E94FA16C501B0
:1022E000B401E9CF3D81323F09F447C080F4303F6B
:1022F00079F1313FD9F1832F805E8031D0F0112305
:1023000009F456C0011176CE89818F7133C04D8199
:10231000433FD1F1443F99F7112309F43FC089812C
:102320008F7189830E94691663E089810E94251854
:102330007ACE5D815F705D8389818F71112321F079
:102340000E9469168D81B6CE0E948A168D81C0CEFC
:10235000112341F0053008F066CE89818F710E940B
:10236000AF1661CE063008F05ECEF7CF89818F714F
:10237000112339F00E94691656CE89818F7111237D
:10238000C9F30E948A164FCE112329F089818F71DB
:102390000E94541648CE0E944A1645CE81E00E9403
:1023A0002E18023008F43FCE82E00E942E183BCE59
:1023B0000111A1CE89818F71E4CF49814F706D8168
:1023C000C7010E946D090E9443152DCE49814F70AF
:1023D0006D81C7010E94C30A26CE0F900F900F9007
:1023E0000F900F90DF91CF911F910F91FF90EF9081
:1023F000DF90BF90AF909F908F9008950F931F93A1
:10240000CF93DF93EC01988189812B813C81232B31
:1024100019F089238F3F29F4DF91CF911F910F91FC
:102420000895CE010E948C098823B1F368817981D7
:102430008A810E94F1178C010E944E170E94C115DB
:10244000B801CE01DF91CF911F910F910C94AB0F8A
:102450000E94E9180E94FA180E94BC180E941319E1
:102460000E942D1E0E943C1D90E080E00E94DE0D27
:1024700090E080E00C94F40D0E94D8180C9428127F
:102480000E94E517282F892F82958F70903C80F449
:102490008A30B0F4843020F4823090F480E00895E3
:1024A0008630E1F781E0203E88F0213FB9F70EC089
:1024B0008C3011F08F3091F793FB882780F90895C5
:1024C00081E0203F39F018F4203E40F70895243F82
:1024D00029F7FCCF0895CF93DF9300D000D00F925F
:1024E000CDB7DEB70F900F900F900F900F90DF9148
:1024F000CF910895CF93DF9300D000D000D0CDB717
:10250000DEB726960FB6F894DEBF0FBECDBFDF91C3
:10251000CF9108951F93CF93DF93E091DF0116E0F1
:102520008091E0018E1304C0DF91CF911F91089537
:10253000CE2FD0E01E9FF0011124EF51FE4F4081BD
:10254000518162817381848195810E947A122196E2
:10255000EC2FE770E5CF409111025091120260918B
:1025600013027091140280911502909116020C943E
:102570007A12CF9380911602807FA9F48091130282
:10258000882389F08091DF01A091E0017091110210
:10259000609112024091140250911502B62FB72398
:1025A000C6E0A81302C0CF91089590E041155105EF
:1025B00011F0BF3F31F401968770F3CF21503109FC
:1025C00019C0C89FF001C99FF00D1124EF51FE4FB3
:1025D00021816213F0CF20812713EDCF22812111B9
:1025E000EACF0380F481E02D9F01241B350BE41713
:1025F000F50720F3283C3105F0F6209116022F70E4
:1026000020612093160226E0289FF001299FF00DFB
:102610001124EA51FE4F80818F708061808381E1B7
:1026200092E00E94FE11CF910C948A129F92AF9279
:10263000BF92CF92DF92EF92FF920F931F93CF93AF
:10264000DF93CDB7DEB72B970FB6F894DEBF0FBE82
:10265000CDBF8C0185E0F801DE01179601900D9247
:102660008A95E1F7D8011296EC9012973C91119659
:102670002C9111971396CD90DC90409111025091BE
:10268000120260911402709115026115710529F012
:10269000842F85238F3F09F046C1EE2009F455C1F0
:1026A0008F8198850E944012882309F44EC1F8C09A
:1026B000C616D70628F1FF24F394883C910508F04C
:1026C000F12C81E1A82E82E0B82E80911602982F7D
:1026D000907FF11017C009F0F2C04F8158856985CD
:1026E0007A858B850E946B1281E192E00E94FE1137
:1026F00086E0D5011D928A95E9F70E94AB1219C0B8
:102700000197D9CF9111A8C0FE2C251325C04313E2
:1027100023C0E11021C08F708061809316020E9457
:10272000AB1281E192E00E94FE1180911602F80145
:1027300085838F2D2B960FB6F894DEBF0FBECDBFCD
:10274000DF91CF911F910F91FF90EF90DF90CF908D
:10275000BF90AF909F900895CD2829F0822F8323BA
:102760008F3F09F076C080E0F82FF170DF2EE09106
:10277000DF014091E00156E080FD1CC0EE20C9F26F
:1027800080911602816080931602F12CD2CF8E2F99
:1027900090E05E9FF0011124EF51FE4F61812613FE
:1027A00006C06081361303C06281E612E7CF01964E
:1027B000E82FE770E413EBCF8F8198850E94E5172F
:1027C000292F22952F70903268F0225F2F702230CF
:1027D00080F49F7059F0D80115969C91907F31F448
:1027E000D12C0AC09F7011F08823D1F3805E88300D
:1027F000B8F3C8010E94FE11FD2C9BCF01979EC02B
:1028000086E0F801A1E1B2E001900D928A95E1F72E
:1028100090CF8F8198850E944012811141C0809194
:102820001602816080931602C8010E94FE1181CFBA
:102830004F81588569857A858B850E946B1286E069
:10284000E1E1F2E0DF011D928A95E9F70E94AB1207
:102850009CCF81E08E2588CF251306C0431304C08A
:10286000F801EE2009F452C08F8198850E94401231
:10287000882309F46AC0EE2009F467C0809116022B
:10288000803270F020911102309112023A83298334
:102890001B82DD82CC828E83CE0101960E94FE11C6
:1028A00086E0F801A1E1B2E001900D928A95E1F78E
:1028B0000E94B9120E94AB12FF24F3943ACF251361
:1028C000D3CF4313D1CFE110CFCFF8018583C80117
:1028D0000E94FE1186E0D5011D928A95E9F7F92C38
:1028E00028CF251396CF431394CF8091160280FDF5
:1028F00087CF982F907F09F483CFF8018583903F8D
:1029000031F0982F907F905F8F70892B8583C8015D
:102910000E94FE1186E0F801A1E1B2E001900D9263
:102920008A95E1F7EACE90901302C601861B970BB9
:102930009110BECEC616D70608F460CF883C91052C
:1029400008F076CFFE2CE110CCCFC8010E94FE111A
:10295000B3CF1F93CF93DF93CDB7DEB72C970FB6CE
:10296000F894DEBF0FBECDBF4F83588769877A8743
:102970008B879C87CE0107960E941613882369F0E7
:102980008A859B85892B39F058854F81852F842333
:102990008F3F09F071C016E05FC086E0FE013796F8
:1029A000DE01119601900D928A95E1F78F8198854D
:1029B0002091E0014091DF016A857B85672B59F307
:1029C00089238F3F41F330E0C90101968770992731
:1029D0004817190671F40E943C121092E0011092FF
:1029E000DF0186E0E1E1F2E0DF011D928A95E9F77F
:1029F000D2CF96E0929FD001939FB00D1124AF519A
:102A0000BE4FFE01319601900D929A95E1F78093A9
:102A1000E0010E948A12BFCF819FC00111248F5113
:102A20009E4F0E9416138823E9F0E091DF011E9F5C
:102A3000F0011124EF51FE4F408151816281738179
:102A4000848195810E947A128091DF0190E0019645
:102A5000877099278093DF018091DF019091E001D9
:102A60008913DACF2C960FB6F894DEBF0FBECDBF18
:102A7000DF91CF911F91089569857A858B859C851B
:102A80000E947A1288CFEF92FF920F931F93CF93F9
:102A9000DF938C01892B89F0F12CEE24E394E8017B
:102AA0002196F8018491843709F458C0A0F482304B
:102AB00009F43FC048F48130D1F0DF91CF911F91EC
:102AC0000F91FF90EF9008959CEF980F9037A8F723
:102AD0000E94EC0E0AC0853709F44EC09CE7980F9F
:102AE000903758F78F770E944E0F8E0116C00E5FF9
:102AF0001F4FFE01849190E2980F983060F4877028
:102B0000FE2D01C0FF0F8A95EAF78F2F0E94EC1867
:102B10000E94131902C00E94EC0E8F2D882309F425
:102B2000BECFEFE9FFE03197F1F700C00000815020
:102B3000F5CF0E5F1F4FFE01849190E2980F983001
:102B400050F48770FE2D01C0FF0F8A95EAF78F2F92
:102B50000E94F218DDCF0E944E0FDFCF0E5F1F4F95
:102B6000FE01C491CC23C9F28FE99FE00197F1F7F0
:102B700000C00000C150F6CF0E5F1F4FFE01F49061
:102B8000CCCF089560936B0270936C0280936D02BA
:102B900090936E020C942812CF93DF9300D000D054
:102BA000CDB7DEB769837A838B839C8380916B0278
:102BB00090916C02A0916D02B0916E0229813A81D0
:102BC0004B815C81822B932BA42BB52B80936B02C2
:102BD00090936C02A0936D02B0936E020F900F90D1
:102BE0000F900F90DF91CF910C942812CF93DF9329
:102BF00000D000D0CDB7DEB769837A838B839C8306
:102C000080916B0290916C02A0916D02B0916E0266
:102C100029813A814B815C8182239323A423B523AC
:102C200080936B0290936C02A0936D02B0936E023E
:102C30000F900F900F900F90DF91CF910C9428126E
:102C4000CF93DF9300D000D0CDB7DEB769837A830E
:102C50008B839C8380916B0290916C02A0916D029A
:102C6000B0916E0229813A814B815C818227932742
:102C7000A427B52780936B0290936C02A0936D02FA
:102C8000B0936E020F900F900F900F90DF91CF9145
:102C90000C94281210926702109268021092690236
:102CA00010926A020C94281241E050E060E070E05B
:102CB00004C0440F551F661F771F8A95D2F74093B3
:102CC0006702509368026093690270936A020C94E1
:102CD000281241E050E060E070E004C0440F551F4E
:102CE000661F771F8A95D2F78091670290916802DC
:102CF000A0916902B0916A02842B952BA62BB72B69
:102D00008093670290936802A0936902B0936A026D
:102D10000C94281241E050E060E070E004C0440FE1
:102D2000551F661F771F8A95D2F74095509560957D
:102D300070958091670290916802A0916902B091AC
:102D40006A0284239523A623B72380936702909376
:102D50006802A0936902B0936A020C94281241E0C1
:102D600050E060E070E004C0440F551F661F771FFD
:102D70008A95D2F78091670290916802A0916902CA
:102D8000B0916A0284279527A627B7278093670208
:102D900090936802A0936902B0936A020C9428127F
:102DA000CF93DF9300D000D0CDB7DEB769837A83AD
:102DB0008B839C838091670290916802A091690245
:102DC000B0916A0229813A814B815C81822B932BDD
:102DD000A42BB52B8093670290936802A09369029D
:102DE000B0936A020F900F900F900F90DF91CF91E8
:102DF0000C942812CF93DF9300D000D0CDB7DEB76C
:102E000069837A838B839C838091670290916802A7
:102E1000A0916902B0916A0229813A814B815C815B
:102E200082239323A423B52380936702909368029F
:102E3000A0936902B0936A020F900F900F900F90C9
:102E4000DF91CF910C942812CF93DF9300D000D064
:102E5000CDB7DEB769837A838B839C8380916702C9
:102E600090916802A0916902B0916A0229813A8129
:102E70004B815C8182279327A427B5278093670223
:102E800090936802A0936902B0936A020F900F902A
:102E90000F900F90DF91CF910C9428120895929586
:102EA000907FE92FE80F877041E001C0440F8A95B9
:102EB000EAF7E695E695E69585E0E89FF0011124AE
:102EC000E95EFD4F30E020E070E05191DF011197A5
:102ED000CB01022E02C0969587950A94E2F7817085
:102EE00081958527842385278C932F5F3F4F25303D
:102EF000310559F70895E92FE295E07FE80F982F03
:102F00009770E695E695E69585E0E89FF001112437
:102F1000E95EFD4F50E040E080E0219130E0092E75
:102F200002C0369527950A94E2F721703327042EC4
:102F300001C0220F0A94EAF7822B4F5F5F4F4530A2
:102F4000510559F70895BF92CF92DF92EF92FF9209
:102F50000F931F93CF93DF938C01C0906702D090A3
:102F60006802E0906902F0906A0280916B02909191
:102F70006C02A0916D02B0916E02C82AD92AEA2A89
:102F8000FB2ACFE1D0E0BC2ED701C6010C2E04C035
:102F9000B695A795979587950A94D2F780FD0EC0B0
:102FA000219788F7B12C8B2DDF91CF911F910F9135
:102FB000FF90EF90DF90CF90BF900895B8018C2FD5
:102FC0000E94E10A019761F3EECFCF93DF93D82FF0
:102FD000C92F0E94A3176D2F7C2FDF91CF910C94E6
:102FE000E10A1F93CF93DF93162FD72F9091DE0125
:102FF000992339F0862F972FDF91CF911F910C9451
:10300000E517882391F0862F972F0E94A317C82FCA
:10301000682F812F9D2F0E944F17612F7D2F8C2F9E
:10302000DF91CF911F910C94E10A862F972F0E9478
:103030007B17C82FF2CF80916F0285958595859576
:10304000089580916F028770089598E0899F90019C
:103050001124622B60936F020C94691690916F0299
:103060008095892380936F02282F277061F4282F81
:10307000082E000C330B9217130629F085958595C1
:1030800085950C948A16089590916F02977081E04F
:1030900009F480E00895909112019923D9F090915C
:1030A0009A0297FF17C0982F9695969596959F31FF
:1030B00031F1E0910001F0910101E90FF11D8770FC
:1030C00021E030E001C0220F8A95EAF78181822B4E
:1030D000818308952091000130910101F901329618
:1030E0009FEF40E05191851751F09F3F19F4511126
:1030F00001C0942F4F5F4E31A9F79F3F09F4089507
:10310000290F311D97FD3A95F90182830895909119
:1031100012019923F9F090919A0297FF1BC0982F02
:103120009695969596959F3131F1E0910001F09139
:103130000101E90FF11D877021E030E0A90102C013
:10314000440F551F8A95E2F7CA0180959181892322
:10315000818308952091000130910101F901329697
:10316000205E3F4F9191891303C0DF0111971C929C
:10317000E217F307B9F7089581E090E0E0910001CC
:10318000F0910101E80FF91F10820196803291053C
:10319000A9F7089590919302982B90939302089524
:1031A000982F90958091930289238093930208959C
:1031B00010929302089590919202982B909392020C
:1031C0000895982F9095809192028923809392027E
:1031D000089510929202089590919102982B9093E5
:1031E00091020895982F9095809191028923809360
:1031F00091020895109291020895809370020895AB
:103200001092700208952091000130910101F9019E
:103210003196205E3F4F80E0919191118F5FE217D0
:10322000F307D1F70895E0910001F0910101809139
:1032300093028083E0910001F091010180819091DF
:103240009202892B8083E0910001F091010180813D
:1032500090919102892B808390917002992361F063
:10326000E0910001F09101018081892B80830E940F
:103270000319811110927002809100019091010157
:103280000C94C80D6DEE7EEF90E080E00E94AB26BE
:1032900060E082E090E00E94992660E083E090E0A8
:1032A0000E94992660E084E090E00E94992660E008
:1032B00085E090E00C94992690E080E00E949326AF
:1032C0009C0181E02D3E3E4F09F080E0089582E0B0
:1032D00090E00C948B26682F82E090E00C94992665
:1032E00083E090E00C948B26682F83E090E00C94B0
:1032F000992684E090E00C948B26682F84E090E07F
:103300000C9499268091CA02843039F1109295026A
:1033100088E190E020E40FB6F894A89580936000CF
:103320000FBE2093600080E00E94C10A83B7817FB6
:10333000846083BF83B7816083BF7894889583B7A7
:103340008E7F83BF0FB6F894A89580916000886146
:1033500080936000109260000FBE08950895089554
:10336000CF930E94AE190E94E60C0E94AF19C0E0F4
:103370008C2F0E94AD0D892B31F4CF5FC830C1F77F
:1033800080E0CF91089581E0FCCF0E943C120E9422
:10339000BC0D0C94C10A1F921FB61F9211248F936B
:1033A0009F93AF93BF9380919502811113C0809139
:1033B000960290919702A0919802B091990241963D
:1033C000A11DB11D8093960290939702A09398023D
:1033D000B0939902BF91AF919F918F911F901FBEA3
:1033E0001F90189582E084BD93E095BD9AEF97BD3C
:1033F00080936E0008952FB7F89480919602909173
:103400009702A0919802B09199022FBF0895CF9290
:10341000DF92EF92FF929C014FB7F8948091960251
:1034200090919702A0919802B09199024FBF6C01C0
:103430007D01EE24FF24A90170E060E0C416D506EA
:10344000E606F70638F0821B930BFF90EF90DF90B3
:10345000CF9008950197F7CF1F921FB61F921124A6
:103460008F939F93AF93BF93809196029091970211
:10347000A0919802B09199020196A11DB11D80936F
:10348000960290939702A0939802B0939902BF91ED
:10349000AF919F918F911F901FBE1F9018950E9412
:1034A0002122F8942FEF87EA91E621508040904046
:1034B000E1F700C0000087E090EBDC018093D402CC
:1034C0009093D502A093D602B093D70288E19CE0F6
:1034D0000FB6F894A895809360000FBE909360009B
:1034E000FFCFAF92BF92CF92DF92EF92FF920F93F6
:1034F0001F93CF93C0E0AA24A394B12CE82EF12C03
:103500008C2F0E94AD0D6C0110E000E0C501002E73
:1035100002C0880F991F0A94E2F78C219D21892B04
:1035200099F0602F7C2F80E00E94C40AE816F9060B
:1035300059F481E0CF911F910F91FF90EF90DF90B0
:10354000CF90BF90AF9008950F5F1F4F00311105CE
:10355000E9F6CF5FC830A1F680E0ECCFCF93C82F5B
:103560008CE20E94711A882321F08C2FCF910C9449
:10357000711A80E0CF910895CF93DF9300D000D0EF
:10358000CDB7DEB70E945C19811102C00E944219BA
:1035900095E6998308C00E94E60C8FE39CE90197A9
:1035A000F1F700C00000A981A150A983A111F3CFB8
:1035B00089E20E94AE1A811110C18AE20E94AE1AFD
:1035C00081110E94421985E00E94AE1A81110E9469
:1035D0004F1A0E9467198093940287E00E94AE1AE6
:1035E000882371F08BE10E94AE1A882309F4D1C0C0
:1035F00090919402892F8D7F91FF82608093940235
:10360000809194020E946B190E94791990E0909326
:103610009B0280939A0280EE0E94AE1A882341F0AA
:1036200090919A02892F8E7F90FF816080939A02F9
:1036300089E30E94AE1A882341F090919A02892F63
:103640008D7F91FF826080939A0282EE0E94AE1A73
:10365000882341F090919A02892F8B7F92FF84609A
:1036600080939A0286EE0E94AE1A882341F09091D0
:103670009A02892F877F93FF886080939A0283EE56
:103680000E94AE1A882341F090919A02892F8F7E72
:1036900094FF806180939A0285E30E94AE1A88238A
:1036A00041F090919A02892F8F7D95FF80628093DF
:1036B0009A0281E30E94AE1A882341F090919A0207
:1036C000892F8F7B96FF806480939A0281E10E940C
:1036D000AE1A882341F090919A02892F97FB87F9BF
:1036E000805880939A0280919A020E947D1987E205
:1036F0000E94AE1A89838EE10E94AE1A882319F0C7
:10370000B981B260B9838FE10E94AE1A882319F0A3
:1037100029812460298380E20E94AE1A882319F04F
:1037200039813860398381E20E94AE1A882319F00A
:1037300049814061498382E20E94AE1A882319F0D0
:1037400059815062598383E20E94AE1A882319F08E
:1037500089818064898384E20E94AE1A8823B1F152
:1037600099819068998389810E9474193981232FE6
:1037700030E050E040E029833A834B835C83CA0108
:10378000B9010F900F900F900F90DF91CF910C9493
:10379000C2158EE00E94AE1A882339F090919402EF
:1037A000892F8B7F92FF846029CF80E10E94AE1A1F
:1037B00090919402882329F0892F877F93FF886056
:1037C0001DCF892F8E7F90FF816018CFA981A11115
:1037D000CACF0E947019282FCBCF0F900F900F9057
:1037E0000F90DF91CF91089580919E0280FF12C0CB
:1037F0006091050185E0689FB0011124759567957A
:103800007595679560387105A8F561157105A1F189
:10381000862F089581FF09C06091050185E0689FAA
:10382000B001112475956795EDCF6091050182FD7A
:103830000AC020919F022223D1F09091040160914F
:103840000501291728F085E0689FB0011124DACF1F
:10385000269F9001112485E0829FA001839F500D37
:103860001124692F70E0CA010E945A26CBCF65E06F
:1038700070E0CECF8FE7089581E0089580919E0299
:1038800080FF0CC06091030170E075956795759598
:1038900067956115710549F1862F089581FF06C06E
:1038A0006091030170E075956795F3CF6091030116
:1038B00082FD0BC090919F029923A1F060910201BB
:1038C00080910301961738F0682F70E06038710519
:1038D00000F38FE70895899FC001112470E00E94D2
:1038E0005A26F4CF61E070E0D7CF81E00895805F81
:1038F000803108F045C0E82FF0E0EB51F94D0C9411
:103900006E260E94F41B81958093A20208950E9466
:10391000F41BFACF0E94F41B81958093A1020895B5
:103920000E94F41BFACF0E943E1C8093A3020895CC
:103930000E943E1C8195F9CF0E943E1C8195809388
:10394000A40208950E943E1CFACF8091A0028160DB
:103950008093A00208958091A0028260F9CF8091A7
:10396000A0028460F5CF8091A0028860F1CF8091A1
:10397000A0028061EDCF80919E02816080939E02C3
:10398000089580919E028260F9CF80919E028460AA
:10399000F5CFE82F3091A2022091A1029091A302CD
:1039A0008091A402E03F91F437FD1092A202809131
:1039B000A1029091A202892B9091A302892B909150
:1039C000A402892B11F410929F020895E13F19F48B
:1039D00013165CF3ECCFE23F29F427FFE8CF1092F7
:1039E000A102E5CFE33F19F41216CCF3E0CFE93F93
:1039F00029F41916E4F61092A302D9CFEA3F19F47C
:103A000097FFD5CFF8CFEB3F29F487FFD0CF1092A7
:103A1000A402CDCFEC3F19F41816CCF3C8CFE45F65
:103A2000EC3008F0C4CFF0E0EB50F94D0C946E266A
:103A30008091A0028E7F8093A002B9CF8091A002D6
:103A40008D7FF9CF8091A0028B7FF5CF8091A0026E
:103A5000877FF1CF8091A0028F7EEDCF80919E0273
:103A60008E7F80939E02A3CF80919E028D7FF9CF9F
:103A700080919E028B7FF5CF80EA92E00E94D30D69
:103A80000E94FB1990939D0280939C0208951F93BE
:103A9000CF93DF9300D000D000D0CDB7DEB78091B8
:103AA0009C0290919D020E94071AAC0180919F0296
:103AB0002091060130E0811106C0209107019AE0B3
:103AC000299F900111244217530788F02091A102E9
:103AD000A091A202A9831091A302B091A402BE8377
:103AE00021110FC09A2F912B9B2B09F0B2C0269663
:103AF0000FB6F894DEBF0FBECDBFDF91CF911F91FF
:103B000008958F3F19F08F5F80939F02121624F45F
:103B10000E94F41B8093A1028091A10287FF05C03F
:103B20000E94F41B81958093A1022981121624F42E
:103B30000E94F41B8093A2028091A20287FF05C01D
:103B40000E94F41B81958093A2028091A102882398
:103B500009F455C03091A2023D83332309F44FC0CC
:103B6000282F880F330B440B550B29833A834B8343
:103B70005C83CA01B9010E94612523E333E343E377
:103B80005FE369837A838B839C8369817A818B81EC
:103B90009C810E94C52569837A838B839C8369817C
:103BA0007A818B819C810E9429256093A1028D815D
:103BB000082E000C990BAA0BBB0B89839A83AB834D
:103BC000BC83BC01CD010E94612523E333E343E3C1
:103BD0005FE369837A838B839C8369817A818B819C
:103BE0009C810E94C52569837A838B839C8369812C
:103BF0007A818B819C810E9429256093A2021116F3
:103C000024F40E943E1C8093A3028091A30287FFAC
:103C100005C00E943E1C81958093A3029E811916C7
:103C200024F40E943E1C8093A4028091A40287FF8A
:103C300005C00E943E1C81958093A40226960FB673
:103C4000F894DEBF0FBECDBFDF91CF911F910C94D2
:103C50003C1D8F3F09F057CF68CF85E0E0EAF2E0E6
:103C6000DF011D928A95E9F710929F0210929E0241
:103C700008958091C5020895CF93DF9300D00F92ED
:103C8000CDB7DEB72091CA02243019F523E029838D
:103C90008A839B832093E9008FEF9091E800815005
:103CA00095FD06C095ED9A95F1F700008111F5CFCD
:103CB0008091E80085FF0DC050E040E063E070E0D7
:103CC000CE0101960E9499208091E8008E77809322
:103CD000E8000F900F900F90DF91CF910895CF9350
:103CE000DF9300D00F92CDB7DEB79C018091CA025E
:103CF000843031F582E08983205831093B832A835F
:103D000083E08093E9008FEF9091E800815095FD6A
:103D100006C095ED9A95F1F700008111F5CF8091DD
:103D2000E80085FF0DC050E040E063E070E0CE01A8
:103D300001960E9499208091E8008E778093E80098
:103D40000F900F900F90DF91CF9108952091CA02AC
:103D50002430F1F422E02093E9002FEF3091E800C5
:103D6000215035FD06C035ED3A95F1F700002111DF
:103D7000F5CF2091E80025FF0BC050E040E065E062
:103D800070E00E9499208091E8008E778093E8008F
:103D90000895CF93DF93D82FC92F8091CA02843022
:103DA000F1F4909112019923E9F090919A0297FF12
:103DB00019C08093E9008FEF9091E800815095FD44
:103DC00006C095E19A95F1F700008111F5CF809139
:103DD000E80050E040E060E270E085FD1AC0DF914D
:103DE000CF91089581E08093E9008FEF9091E800F2
:103DF000815095FD06C095ED9A95F1F7000081116F
:103E0000F5CF8091E80085FFEACF50E040E068E020
:103E100070E08D2F9C2F0E9499208091E8008E7772
:103E20008093E80080E2ED2FFC2FA5EAB2E001903C
:103E30000D928A95E1F7D3CF8091D302811109C009
:103E40000E9421220E9483228091E200846080935C
:103E5000E20008951092D3020895089508950C94F5
:103E6000C51942E061EC81E00E949D2142E061ECD5
:103E700082E00E949D2142E061EC83E00E949D214E
:103E800042E261EC84E00C949D218091CC02893067
:103E900089F148F4823009F494C0833009F44FC0AA
:103EA000813041F008958A3009F47BC08B3009F4E9
:103EB00061C008958091CB02813A09F03FC08091A2
:103EC000E800877F8093E8008091CF029091D00234
:103ED000892B61F460E285EA92E070E00E94E820BC
:103EE0008091E8008B778093E800089560E090E08F
:103EF00080E0F3CF8091CB02813201F58091CF0237
:103F00009091D002009711F00397C1F48091E800DE
:103F1000877F8093E8008091E80082FF0BC080914A
:103F2000F1008093C5028091E8008B778093E800D0
:103F30000C94D1218091CA028111EDCF0895809116
:103F4000CB02813AD9F78091CF029091D002892B90
:103F5000A9F78091E800877F8093E8008091E800CE
:103F600080FFFCCF809112018093F1008091E800E6
:103F70008E77DCCF8091CB02813201F78091CF0226
:103F80009091D002892BD1F68091E800877F8093B1
:103F9000E8000E94D1218091CD02809312010C94FF
:103FA0003C128091CB02813249F68091E800877FF4
:103FB0008093E8000E94D1218091CE028093C602B6
:103FC00008958091CB02813A09F0B8CF8091E80042
:103FD000877F8093E8008091E80080FFFCCF80918C
:103FE000C602C2CF84B7877F84BF0FB6F894A89566
:103FF00080916000886180936000109260000FBE25
:1040000080E880936100109261000E940B0E0E9474
:1040100021220E9483228091E20084608093E2004A
:1040200078940E940F250E940D0E88E091E00E9476
:10403000B70D8091CA02853019F00E94130EF9CF96
:104040000E9482198091C702882399F30E94B019B7
:10405000882379F30E948320ECCF9C01DA01892F19
:10406000992783309105C1F068F48130910509F4F6
:1040700045C0029761F48DE690E028EC30E12D9385
:104080003C93089581329105E1F0829739F190E0F7
:1040900080E030E020E0F3CFC9019927213059F0CA
:1040A0008230910559F0E4ECF0E1892B81F784919D
:1040B00090E09F01E4CFECEAF0E1F9CFE8E9F0E12C
:1040C000F6CF643020F7E62FF0E0EE0FFF1FE75742
:1040D000FE4F2081318189E090E0D1CF6430B8F685
:1040E00070E0FB01EE0FFF1FEF57FE4F2081318183
:1040F00063587E4FFB01808190E0C1CF82E190E068
:1041000025E331E1BCCF84E189BD86E189BD09B4F5
:1041100000FEFDCF8091D8008F7D8093D8008091E4
:10412000E00082608093E0008091E00081FDFCCFA0
:104130000895AF92BF92CF92DF92FF920F931F9399
:10414000CF93DF936C01EB018A010E94F021F82EDE
:10415000811123C00115110539F0F8018081918189
:10416000C81BD90BC80ED91EB12CA12C2097A9F0C1
:104170008091E80085FD22C08091E8008E778093D1
:10418000E80001151105A1F0F801808191818A0DE7
:104190009B1D9183808385E0F82E8F2DDF91CF9139
:1041A0001F910F91FF90DF90CF90BF90AF90089537
:1041B0000E94F0218823D1F2F82EEFCFF6018191F1
:1041C0006F018093F1002197FFEFAF1ABF0ACECFA6
:1041D000FC01CB012091D1023091D2022617370782
:1041E00090F0009729F42091E8002E772093E800C2
:1041F00040E0009751F4411108C08091E80082FF2F
:1042000031C080E00895C901F3CF2091CA02222372
:10421000A9F12530A9F12091E80023FD2DC02091BE
:10422000E80022FDEACF2091E80020FFE2CF2091B4
:10423000F2003091F300009719F02830310558F062
:1042400041E02830310509F040E02091E8002E7768
:104250002093E800CECF41914093F10001972F5F6A
:104260003F4FE9CF8091CA02882341F0853041F069
:104270008091E80083FFC1CF81E0089582E0089536
:1042800083E00895FC01CB012091D1023091D2024C
:104290002617370790F0009729F42091E8002E7731
:1042A0002093E80040E0009751F4411108C080914C
:1042B000E80082FF32C080E00895C901F3CF209169
:1042C000CA022223B1F12530B1F12091E80023FD8B
:1042D0002EC02091E80022FDEACF2091E80020FFC7
:1042E000E2CF2091F2003091F300009719F02830CE
:1042F000310558F041E02830310509F040E02091C7
:10430000E8002E772093E800CECF44914093F1004F
:10431000319601972F5F3F4FE8CF8091CA028823E3
:1043200041F0853041F08091E80083FFC0CF81E00B
:10433000089582E0089583E00895982F973028F03B
:104340008F708093E90081E008959093E900242F15
:10435000762F50E0981731F07091EC002091ED002D
:104360005091F00021FD02C09F5FE8CF3091EB003B
:104370003E7F3093EB003091ED003D7F3093ED00B8
:104380003091EB0031603093EB007093EC002093A0
:10439000ED005093F0002091EE0027FDE5CF80E086
:1043A00008958091CB0287FF13C08091E80082FFBF
:1043B00006C08091E8008B778093E80004C080916C
:1043C000CA028111F2CF08958091CA028823D9F3DD
:1043D0008091E80080FFF8CF8091E8008E77ECCFE5
:1043E0002091E4003091E50095E6A9012091EC00D0
:1043F000822F817020FF06C08091E80080FF06C0F8
:1044000080E008952091E80022FD1AC08091CA0240
:10441000882389F0853089F08091EB0085FD0FC0FD
:104420002091E4003091E50042175307F9F29150D2
:10443000E1F684E0089582E0089583E0089581E044
:1044400008950E9492220E949A22E0EEF0E080817C
:1044500081608083E8EDF0E080818F77808319BCF4
:10446000A7EDB0E08C918E7F8C9380818F7E8083CE
:104470001092D30208950F931F93CF93DF930E945E
:1044800092220E949A22C8EDD0E088818F7788839B
:1044900088818068888388818F7D8883E7EDF0E05C
:1044A00080818068808319BC1092CA021092C90270
:1044B0001092C7021092C80200EE10E0F80180814D
:1044C0008B7F808388818160888342E060E080E028
:1044D0000E949D21E1EEF0E080818E7F8083E2EEFC
:1044E000F0E0808181608083808188608083F80132
:1044F00080818E7F8083888180618883DF91CF91E6
:104500001F910F910895E8EDF0E080818F7E808308
:10451000E7EDF0E080818160808381E08093D302C9
:104520000C943B22E8EDF0E080818C7F8083109238
:10453000E20008951092DA001092E10008951F92AF
:104540000F920FB60F9211240BB60F922F933F9339
:104550004F935F936F937F938F939F93AF93BF938B
:10456000EF93FF938091E10082FF0BC08091E20006
:1045700082FF07C08091E1008B7F8093E1000E9461
:104580000E258091DA0080FF19C08091D80080FF4D
:1045900015C08091DA008E7F8093DA008091D90077
:1045A00080FF96C084E189BD86E189BD09B400FE23
:1045B000FDCF81E08093CA020E941C1F8091E10020
:1045C00080FF19C08091E20080FF15C08091E20059
:1045D0008E7F8093E2008091E20080618093E20010
:1045E0008091D80080628093D80019BC85E08093C8
:1045F000CA020E942E1F8091E10084FF29C0809191
:10460000E20084FF25C084E189BD86E189BD09B44B
:1046100000FEFDCF8091D8008F7D8093D8008091DF
:10462000E1008F7E8093E1008091E2008F7E809395
:10463000E2008091E20081608093E2008091C902F3
:10464000882309F44BC084E08093CA020E942F1F84
:104650008091E10083FF29C08091E20083FF25C0A3
:104660008091E100877F8093E10082E08093CA021D
:104670001092C9028091E1008E7F8093E1008091C9
:10468000E2008E7F8093E2008091E200806180935F
:10469000E20042E060E080E00E949D218091F00015
:1046A00088608093F0000E942D1FFF91EF91BF91D1
:1046B000AF919F918F917F916F915F914F913F91BA
:1046C0002F910F900BBE0F900FBE0F901F9018955B
:1046D00019BC1092CA020E942A1F70CF8091E30079
:1046E00087FD02C081E0B0CF83E0AECF1F920F9272
:1046F0000FB60F9211240BB60F92FF920F931F93D8
:104700002F933F934F935F936F937F938F939F93D9
:10471000AF93BF93CF93DF93EF93FF9309EE10E036
:10472000F8018081C091EC00C795CC27C7958F70A8
:10473000FC2EF82A1082C0EFD0E08881877F888322
:1047400078940E94C323F80110828881886088834E
:10475000CF2DCF70C083FF91EF91DF91CF91BF91AB
:10476000AF919F918F917F916F915F914F913F9109
:104770002F911F910F91FF900F900BBE0F900FBEC6
:104780000F901F9018951F93CF93DF93CDB7DEB78F
:10479000AA970FB6F894DEBF0FBECDBF8BEC92E0A8
:1047A000FC0101962091F100208322E0833D9207D5
:1047B000B9F70E94451F8091E80083FF82C0809175
:1047C000CB029091CC029A3008F07BC0E92FF0E048
:1047D000EF5FF84D0C946E26803881F0823809F036
:1047E00070C08091CF028F708093E9008091EB00C0
:1047F00085FB882780F91092E90006C08091C802E5
:104800009091C702911182609091E800977F9093F8
:10481000E8008093F1001092F1008091E8008E771B
:10482000F8C0882309F4E5C0823009F04AC08091BD
:10483000CD028111E9C08091CF028F7009F441C08F
:104840008093E9002091EB0020FFDEC0933031F42B
:104850008091EB0080628093EB00D6C09091EB00DA
:1048600090619093EB0021E030E001C0220F8A9527
:10487000EAF72093EA001092EA008091EB0088604A
:10488000EACF81111EC01091CD021F778091E30005
:104890008078812B8093E3008091E800877F80936C
:1048A000E8000E94D1218091E80080FFFCCF809138
:1048B000E30080688093E30082E0111183E080933D
:1048C000CA028091E80083FF0AC08091E800877FD8
:1048D0008093E8008091EB0080628093EB00AA96C1
:1048E0000FB6F894DEBF0FBECDBFDF91CF911F9101
:1048F00008958058823028F78091CD029091CE02A1
:104900008C3D23E0920799F583E08A838AE28983CC
:104910004FB7F894DE01139620E03EE051E2E32F1A
:10492000F0E050935700849120FF03C082958F7070
:104930003F5F8F708A30C8F0895C90E08D939D93C3
:104940002F5F243161F74FBF8091E800877F80930C
:10495000E8006AE270E0CE0101960E94E8208091B2
:10496000E8008B778093E800ACCF805DE6CFAE01A6
:104970004F5F5F4F6091CF020E942D20BC01892BB9
:1049800009F49FCF8091E800877F8093E8008981B8
:104990009A810E944221E3CF803809F092CF809122
:1049A000E800877F8093E8008091C9028093F1003E
:1049B00034CF811186CF9091CD02923008F081CF13
:1049C0008091E800877F8093E8009093C9020E945D
:1049D000D1218091C902882311F084E005C0809123
:1049E000E30087FDFACF81E08093CA020E94311F65
:1049F00068CF8091CD02813009F063CF81E09330A0
:104A000009F080E08093C7021092E9008091E800ED
:104A1000877F8093E8000E94D12153CF0895CF93E0
:104A20008091CA02882399F08091E900C091EC003E
:104A3000C795CC27C7958F70C82B1092E90080913D
:104A4000E80083FD0E94C323CF70C093E900CF919B
:104A500008950E9430256894B1110C94BF250895E3
:104A60000E94A42588F09F5798F0B92F9927B75135
:104A7000B0F0E1F0660F771F881F991F1AF0BA9502
:104A8000C9F714C0B13091F00E94BE25B1E008957D
:104A90000C94BE25672F782F8827B85F39F0B93F6F
:104AA000CCF3869577956795B395D9F73EF49095B5
:104AB0008095709561957F4F8F4F9F4F0895E89433
:104AC00009C097FB3EF490958095709561957F4F56
:104AD0008F4F9F4F9923A9F0F92F96E9BB27939504
:104AE000F695879577956795B795F111F8CFFAF414
:104AF000BB0F11F460FF1BC06F5F7F4F8F4F9F4F45
:104B000016C0882311F096E911C0772321F09EE8A2
:104B1000872F762F05C0662371F096E8862F70E008
:104B200060E02AF09A95660F771F881FDAF7880FE2
:104B30009695879597F9089557FD9058440F551FFE
:104B400059F05F3F71F04795880F97FB991F61F00F
:104B50009F3F79F087950895121613061406551F86
:104B6000F2CF4695F1DF08C0161617061806991FF2
:104B7000F1CF86957105610508940895E894BB27E7
:104B800066277727CB0197F908950E94D8250C94C2
:104B900049260E943B2638F00E94422620F09523A9
:104BA00011F00C9432260C94382611240C94BF2555
:104BB0000E949C2570F3959FC1F3950F50E0551FFF
:104BC000629FF001729FBB27F00DB11D639FAA2762
:104BD000F00DB11DAA1F649F6627B00DA11D661FB1
:104BE000829F2227B00DA11D621F739FB00DA11DD2
:104BF000621F839FA00D611D221F749F3327A00D8C
:104C0000611D231F849F600D211D822F762F6A2F27
:104C100011249F5750409AF0F1F088234AF0EE0F8C
:104C2000FF1FBB1F661F771F881F91505040A9F7B9
:104C30009E3F510580F00C9432260C94BF255F3FB7
:104C4000E4F3983ED4F3869577956795B795F795F5
:104C5000E7959F5FC1F7FE2B880F911D969587956D
:104C600097F9089597F99F6780E870E060E00895EC
:104C70009FEF80EC089500240A9416161706180674
:104C80000906089500240A94121613061406050650
:104C90000895092E0394000C11F4882352F0BB0FE1
:104CA00040F4BF2B11F460FF04C06F5F7F4F8F4F44
:104CB0009F4F089597FB072E16F4009407D077FDB9
:104CC00009D00E94772607FC05D03EF49095819587
:104CD0009F4F0895709561957F4F0895EE0FFF1FC8
:104CE0000024001C0BBE0790F691E02D0994AA1B2E
:104CF000BB1B51E107C0AA1FBB1FA617B70710F0C7
:104D0000A61BB70B881F991F5A95A9F780959095F8
:104D1000BC01CD010895F999FECF92BD81BDF89AED
:104D2000992780B50895A8E1B0E042E050E00C94E6
:104D3000B326262FF999FECF92BD81BDF89A01972F
:104D400000B4021639F01FBA20BD0FB6F894FA9AD3
:104D5000F99A0FBE08950196272F0E949A260C9467
:104D60009926DC01CB01FC01F999FECF06C0F2BD0A
:104D7000E1BDF89A319600B40D9241505040B8F719
:104D80000895F894FFCF2C0A380A3C0A400A440AD6
:104D9000480A4C0A500A540A580A5C0A600A640A13
:104DA000680A6C0A700A740A780AE30FE30F3B1072
:104DB0003B107F109B1013101310A61013107211CC
:104DC0007211DD1113101310E611811C871C8A1C4F
:104DD000901CA51CAB1CAF1CB31CB71C931C981CCF
:104DE0009C1CA21CBB1CC11CC51C181D1E1D221D09
:104DF000261D2A1DD71CD71CD71CD71C2E1D341DC1
:104E0000381DEC23112461241124612441247924C8
:064E10006124CC24D9242A
:104E160071022808140A321E391EC91EA61E6F1EEC
:104E26003C1E01E944EA44B544B644B744CD448344
:104E360045CC448A45924594452146234624462539
:104E460046264627462A46B344B444F7F6F5F4F315
:104E5600F2F1F0C730C660C1C0979537909192368F
:104E6600353433E200E900EA00B500B600B700CDFC
:104E7600008301CC008A01920194012102230224BD
:104E8600022502260227022A02B300B400404D364C
:104E9600390312B61180114711DA10F3100C1125DF
:024EA6001100F9
:00000001FF
