:100000000C9492090C94DB090C94DB090C94DB0929
:100010000C94DB090C94DB090C94DB090C94DB09D0
:100020000C94DB090C94DB090C94FC220C94D32374
:100030000C94281A0C94DB090C94DB090C94DB0952
:100040000C94DB090C94DB090C94DB090C94DB09A0
:100050000C94DB090C94891A0C94DB090C94DB09D1
:100060000C94DB090C94DB090C94DB090C94DB0980
:100070000C94DB090C94DB090C94DB090C94DB0970
:100080000C94DB090C94DB090C94DB090C94DB0960
:100090000C94DB090C94DB0960004E005600000054
:1000A000250018000D00000001510B001C00240069
:1000B0000000000000005D004F0057000000260017
:1000C0000C000E00100011000A00170023000000B1
:1000D000000000005A004D005800000027001200E8
:1000E0000F00360005000900150022000000000086
:1000F0000000590051005E0029002D00130033005C
:10010000370019000700080021000000000000006F
:100110005C004A005B00E7002E002F00340038002E
:10012000060016001A0020000000000000005F001A
:1001300050006300E20031003000280000001B0086
:10014000040014001F000000E500000062005200DF
:100150006100E6002A004600540055001D00000022
:100160002B001E0000000000000000004B000000FB
:1001700000000000000000002C00E0000000000073
:10018000350000000000000000000000000000003A
:10019000000000000000000000000000000000005F
:1001A000E000E10000000100AD000100000041009E
:1001B00001000100000001000100010040000000FA
:1001C000000000000100AB0001000000420001003F
:1001D000010001000100010001003F0000000000DB
:1001E00000000100A900010000004300010001001F
:1001F00001000100010001003E00000000000000BD
:100200000100AE00010001004400010001000100F6
:100210000100010001003D0000000000000001009D
:10022000A8000100010045000100010001000100DB
:10023000010001003C000000000000000100AC00D3
:1002400001000100E700010053000000010001006F
:1002500001003B000000010000000100AA000100B5
:100260000100E5004C0049006500010000000100AC
:100270003A000000000000000000480000000000FC
:100280000000000000000100010000000000290043
:10029000000000000000000000000000000000005E
:1002A000000000000000000000000000000001004D
:1002B0000100000001000100010000000100010038
:1002C0000100000001000100010001000000000029
:1002D0000000010001000100000001000100010018
:1002E0000100010001000100010000000000000009
:1002F00001000100010000000100010001000100F7
:1003000001000100010001000000000000000100E8
:1003100001000100010001000100010001000100D5
:1003200001000100010000000000000001000100C8
:1003300001000100010001000100010001000100B5
:1003400001000100000000000000010001000100A8
:100350000100010001000100000001000100010096
:100360000100000001000000010001000100010087
:100370000100010001000100010000000100010076
:10038000000000000000000001000000000000006C
:10039000000000000100010000000000010000005A
:1003A000000000000000000000000000000000004D
:1003B000000000000000000000000000010001003B
:1003C0000000010001000100000001000100010027
:1003D0000000010001000100010000000000000019
:1003E0000100010001000000010001000100010006
:1003F00001000100010001000000000000000100F8
:1004000001000100000001000100010001000100E5
:1004100001000100010000000000000001000100D7
:1004200001000100010001000100010001000100C4
:1004300001000100000000000000010001000100B7
:1004400001000100010001000100010001000100A4
:100450000100000000000000010001000100010097
:100460000100010001000000010001000100010085
:100470000000010000000100010001000100010076
:100480000100010001000100000001000100000066
:10049000000000000000010000000000000000005B
:1004A0000000010001000000000001000000000049
:1004B000000000000000000000000000000000003C
:1004C000000000000000000000000100010000002A
:1004D0000100010001000000010001000100000016
:1004E0000100010001000100000000000000010007
:1004F00001000100000001000100010001000100F5
:1005000001000100010000000000000001000100E6
:1005100001000000010001000100010001000100D4
:1005200001000100000000000000010001000100C6
:1005300001000100010001000100010001000100B3
:1005400001000000000000000100010001000100A6
:100550000100010001000100010001000100010093
:100560000000000000000100010001000100010086
:100570000100010000000100010001000100000075
:100580000100000001000100010001000100010064
:100590000100010001000000010001000000000056
:1005A000000000000100000000000000000000004A
:1005B0000100010000000000010000000000000038
:1005C000000000000000000000000000000000002B
:1005D0000000000000000000010001000000010018
:1005E0000100010000000100010001000000010005
:1005F00001000100010000000000000001000100F6
:1006000001000000010001000100010001000100E3
:1006100001000100000000000000010001000100D5
:1006200000000100010001000100010001000100C3
:1006300001000000000000000100010001000100B5
:1006400001000100010001000100010001000100A2
:100650000000000000000100010001000100010095
:100660000100010001000100010001000100000083
:100670000000000001000100010001000100010074
:100680000100000001000100010001000000010064
:100690000000010001000100010001000100010053
:1006A0000100010000000100010000000000000046
:1006B0000000010000000000000000000000010038
:1006C0000100000000000100000000000000000028
:1006D000000000000000000000000000000000001A
:1006E0000000000000000100010000000100010006
:1006F00001000000010001000100000001000100F4
:1007000001000100000000000000010001000100E4
:1007100000000100010001000100010001000100D2
:1007200001000000000000000100010001000000C5
:1007300001000100010001000100010001000100B1
:1007400000000000000001000100010001000100A4
:100750000100010001000100010001000100000092
:100760000000000001000100010001000100010083
:100770000100010001000100010001000000000073
:100780000000010001000100010001000100010062
:100790000000010001000100010000000100000054
:1007A0000100010001000100010001000100010041
:1007B0000100000001000100000000000000000036
:1007C0000100000000000000000000000100010026
:1007D0000000000001000000000000000000000018
:1007E0000000000000000000000000000000000009
:1007F00000000000010001000000010001000100F4
:1008000000000100010001000000010001000100E2
:1008100001000000000000000100010001000000D4
:1008200001000100010001000100010001000100C0
:1008300000000000000001000100010000000100B4
:1008400001000100010001000100010001000000A1
:100850000000000001000100010001000100010092
:100860000100010001000100010001000000000082
:100870000000010001000100010001000100010071
:100880000100010001000100010000000000000063
:100890000100010001000100010001000100000051
:1008A0000100010001000100000001000000010042
:1008B0000100010001000100010001000100010030
:1008C0000000010001000000000000000000010025
:1008D0000000000000000000000001000100000016
:1008E0000000010000000000000000000000000007
:1008F00000000000000000000000000000000000F8
:1009000000000100010000000100010001000000E2
:1009100001000100010000000100010001000100D0
:1009200000000000000001000100010000000100C3
:1009300001000100010001000100010001000000B0
:1009400000000000010001000100000001000100A2
:100950000100010001000100010001000000000091
:100960000000010001000100010001000100010080
:100970000100010001000100010000000000000072
:10098000010001000100010001000100010001005F
:100990000100010001000100000000000000010052
:1009A0000100010001000100010001000000010040
:1009B0000100010001000000010000000100010031
:1009C0000100010001000100010001000100000020
:1009D0000100010000000000000000000100000014
:1009E0000000000000000000010001000000000005
:1009F00001000000000000000000000000000000F6
:100A000000000000000000000000000000000000E6
:100A100001000100000001000100010000000100D0
:100A200001000100000001000100010001000000C0
:100A300000000000010001000100000001000100B1
:100A400001000100010001000100010000000000A0
:100A50000000010001000100000001000100010090
:100A60000100010001000100010000000000000081
:100A7000010001000100010001000100010001006E
:100A80000100010001000100000000000000010061
:100A9000010001000100010001000100010001004E
:100AA0000100010001000000000000000100010041
:100AB000010001000100010001000000010001002F
:100AC0000100010000000100000001000100010020
:100AD000010001000100010001000100000001000F
:100AE0000100000000000000000001000000000004
:100AF00000000000000001000100000000000100F3
:100B000000000000000000000000000000000000E5
:100B100000000000000000000000000000000100D4
:100B200001000000010001000100000001000100BF
:100B300001000000010001000100010000000000B0
:100B4000000001000100010000000100010001009F
:100B50000100010001000100010000000000000090
:100B6000010001000100000001000100010001007E
:100B70000100010001000100000000000000010070
:100B8000010001000100010001000100010001005D
:100B90000100010001000000000000000100010050
:100BA000010001000100010001000100010001003D
:100BB0000100010000000000000001000100010030
:100BC000010001000100010000000100010001001E
:100BD000010000000100000001000100010001000F
:100BE00001000100010001000100000001000100FE
:100BF00000000000000000000100000000000000F4
:100C000000000000010001000000000001000000E1
:100C100000000000000000000000000000000000D4
:100C200000000000000000000000000001000100C2
:100C300000000100010001000000010001000100AE
:100C400000000100010001000100000000000000A0
:100C5000010001000100000001000100010001008D
:100C6000010001000100010000000000000001007F
:100C7000010001000000010001000100010001006D
:100C8000010001000100000000000000010001005F
:100C9000010001000100010001000100010001004C
:100CA000010001000000000000000100010001003F
:100CB000010001000100010001000100010001002C
:100CC000010000000000000001000100010001001F
:100CD000010001000100000001000100010001000D
:100CE00000000100000001000100010001000100FE
:100CF00001000100010001000000010001000000EE
:100D000000000000000001000000000000000000E2
:100D100000000100010000000000010000000000D0
:100D200000000000000000000000000000000000C3
:100D300000000000000000000000010001000000B1
:100D4000010001000100000001000100010000009D
:100D5000010001000100010000000000000001008E
:100D6000010001000000010001000100010001007C
:100D7000010001000100000000000000010001006E
:100D8000010000000100010001000100010001005C
:100D9000010001000000000000000100010001004E
:100DA000010001000100010001000100010001003B
:100DB000010000000000000001000100010001002E
:100DC000010001000100010001000100010001001B
:100DD000000000000000010001000100010001000E
:100DE00001000100000001000100010001000000FD
:100DF00001000000010001000100010001000100EC
:100E000001000100010000000100010000000000DD
:100E100000000000010000000000000000000000D1
:100E200001000100000000000100000000000000BF
:100E300000000000000000000000000000000000B2
:100E4000000000000000000001000100000001009F
:100E5000010001000000010001000100000001008C
:100E6000010001000100000000000000010001007D
:100E7000010000000100010001000100010001006B
:100E8000010001000000000000000100010001005D
:100E9000000001000100010001000100010001004B
:100EA000010000000000000001000100010001003D
:100EB000010001000100010001000100010001002A
:100EC000000000000000010001000100010001001D
:100ED000010001000100010001000100010000000B
:100EE00000000000010001000100010001000100FC
:100EF00001000000010001000100010000000100EC
:100F000000000100010001000100010001000100DA
:100F100001000100000001000100000000000000CD
:100F200000000100000000000000000000000100BF
:100F300001000000000001000000000000000000AF
:100F400000000000000000000000000000000000A1
:100F5000000000000000010001000000010001008D
:100F6000010000000100010001000000010001007B
:100F7000010001000000000000000100010001006C
:100F8000000001000100010001000100010001005A
:100F9000010000000000000001000100010000004D
:100FA0000100010001000100010001000100010039
:100FB000000000000000010001000100010001002C
:100FC000010001000100010001000100010000001A
:100FD000000000000100010001000100010001000B
:100FE00001000100010001000100010000000000FB
:100FF00000000100010001000100010001000100EA
:1010000000000100010001000100000001000000DB
:1010100001000100010001000100010001000100C8
:1010200001000000010001000000000000000000BD
:1010300001000000000000000000000001000100AD
:10104000000000000100000000000000000000009F
:101050000000000000000000000000000000000090
:10106000000000000100010000000100010001007B
:10107000000001000100010000000100010001006A
:10108000010000000000000001000100010000005C
:101090000100010001000100010001000100010048
:1010A000000000000000010001000100000001003C
:1010B0000100010001000100010001000100000029
:1010C000000000000100010001000100010001001A
:1010D000010001000100010001000100000000000A
:1010E00000000100010001000100010001000100F9
:1010F00001000100010001000100000000000000EB
:1011000001000100010001000100010001000000D8
:1011100001000100010001000000010000000100C9
:1011200001000100010001000100010001000100B7
:1011300000000100010000000000000000000100AC
:10114000000000000000000000000100010000009D
:10115000000001000000000000000000000000008E
:10116000000000000000000000000000000000007F
:10117000000001000100000012036B00650079000F
:1011800062006F00610072006400000016037100CD
:101190006D006B006200750069006C006400650002
:1011A000720000000403090409026D00040100A09C
:1011B000FA090400000103010100092111010001E5
:1011C0002240000705810308000A09040100010309
:1011D000010200092111010001224D0007058203CF
:1011E00008000A090402000103000000092111019E
:1011F00000012236000705830308000A09040300E2
:101200000103000000092111010001223900070536
:1012100084032000011201100100000008EDFE60AF
:101220006001000102000105010906A1010507197D
:10123000E029E715002501950875018102050819C7
:101240000129059505750191029501750391010527
:1012500007190029F71500250195F875018102C0CD
:1012600005010980A10185021601002603001A81EB
:10127000002A8300751095018100C0050C0901A1A9
:10128000018503160100269C021A01002A9C0275A2
:101290001095018100C005010902A1010901A10009
:1012A000050919012905150025019505750181021A
:1012B0009501750381010501093009311581257FEB
:1012C00095027508810609381581257F95017508F5
:1012D0008106050C0A38021581257F950175088164
:1012E00006C0C005010906A101050719E029E71597
:1012F0000025019508750181029501750881010598
:10130000081901290595057501910295017503914B
:10131000010507190029FF150026FF00950675082D
:101320008100C00011241FBECFEFD0E2DEBFCDBFD1
:1013300004B603FE27C08091DF029091E002A091E5
:10134000E102B091E2028730904BA740B04BD1F45C
:101350001092DF021092E0021092E1021092E2027B
:1013600014BE84B7877F84BF0FB6F894A895809188
:101370006000886180936000109260000FBEE0E022
:10138000F8EF099511E0A0E0B1E0E0EDFEE400E047
:101390000BBF02C007900D92A239B107D9F722E026
:1013A000A2E9B1E001C01D92AF3DB207E1F70E9492
:1013B0004F200C941E270C94000090E080E00895CC
:1013C0000895089581E00895089581E008950C94AA
:1013D000E2090E9496122FEF84E39CE021508040A6
:1013E0009040E1F700C000000C94AC1AEF92FF921D
:1013F0000F931F93CF93DF938C01FC01E080F1806A
:101400008091E401811140C082818823C1F1C7012C
:101410000E940018C82F682FC7010E94A917B701A2
:101420008C2F0E942E0BEC01B8010E94E709882343
:1014300009F44BC0B801CE010E94AE0C882309F418
:1014400044C0C531F0E7DF0720F5C23080E7D80798
:1014500008F04DC0C115E0E7DE0791F1C130D0477B
:10146000E1F181E08093940180939501C801DF91BF
:10147000CF911F910F91FF90EF900C94E509C70158
:101480000E94D717C82FCBCFC7010E940018B70101
:10149000C8CFCC3380E7D80709F49BC0CD33D04701
:1014A00001F7F8018281882309F4BAC010929501EE
:1014B0000E94581A909393018093920180E296C003
:1014C000F801828181110E94E90980E0DF91CF91CA
:1014D0001F910F91FF90EF900895F801828188236A
:1014E000A1F380919F02816080939F02EECFF8016B
:1014F0008281882309F4BACF0E94B919811102C0F0
:101500000E949F190E94D61990E09093A6028093A2
:10151000A502FE01E350F0478091A5028160E2310F
:10152000F10538F4E05EF84D0C94CB268091A502CD
:1015300082608093A5028091A5020E94DA190E9420
:101540009612C3CF8091A5028460F3CF8091A5024B
:101550008860EFCF8091A5028061EBCF8091A502DA
:101560008062E7CF8091A5028064E3CF8091A502DD
:101570008068DFCF8091A5028C60DBCF8091A502CF
:101580008E7FD7CF8091A5028D7FD3CF8091A5028A
:101590008B7FCFCF8091A502877FCBCF8091A50293
:1015A0008F7EC7CF8091A5028F7DC3CF8091A5028A
:1015B0008F7BBFCF8091A5028F77BBCF8091A50293
:1015C000837FB7CF9091A502892F97FB87F9805829
:1015D000B0CFF8018281882361F0109294010E94BB
:1015E000581A909393018093920182E00E94F70F22
:1015F0006CCF8091940181110FC0809192019091E4
:1016000093010E94641A883C910530F486E20E949E
:10161000460F86E20E94A80F82E00E94FE0F55CF7F
:101620008091950181110FC0809192019091930159
:101630000E94641A883C910530F487E20E94460FAC
:1016400087E20E94A80F80E2E8CF0C94FD0C0C9476
:10165000FF0C0C94E4090C94290B0895972F70E06B
:101660002FE0929F600D711D1124FB0197E8899F67
:10167000E00DF11D1124EE0FFF1FE856FF4F85917D
:1016800094910895FC01EE0FFF1FE858FE4E8591DE
:10169000949108950E942E0B0E94320C9C0181159A
:1016A0009044F0F5211580E3380708F0AFC0203EE4
:1016B0003105F0F4203C310508F090C0283A31059E
:1016C00070F4253A310508F08DC02130310529F03C
:1016D000C9010497813A910540F4C9010895C901EF
:1016E000885A9109459708F486C030E020E0F5CF8C
:1016F000211540E2340770F42F3F310509F068F7F7
:10170000283E310550F3C901805F9109306540974B
:1017100020F3EBCFC9019F700E94420B9C01DDCFEB
:10172000211584E5380708F042C0211543E5340748
:1017300008F077C0211582E5380740F5211541E50D
:10174000340708F069C0211580E5380708F461C046
:10175000C90154E0969587955A95E1F7382F337073
:10176000822F86958695837040E2849FC001112464
:10177000932B422F437021E030E002C0220F331F31
:101780004A95E2F7282B392B3C68A7CFA901437073
:10179000552781E090E002C0880F991F4A95E2F733
:1017A0002695269540E2249F90011124EBCF211528
:1017B00086E5380750F4922F88272115354508F023
:1017C00044C09C01246F306A88CFC90190563F7095
:1017D0008115904108F089CF30627FCFC901805CCC
:1017E00091099ACF253A3105A1F1263A3105A1F1A7
:1017F00023E830E472CF283A310589F1220F331FF4
:10180000F901EF53F0402081318167CF3327306CED
:1018100064CF3F70306A61CF322F2227216F306A48
:101820005CCFA9014370552781E090E002C0880F8A
:10183000991F4A95E2F72695269540E2249F90014C
:101840001124282B392B3A6848CF88279F719C0197
:10185000C3CF21E830E441CF22E830E43ECF22EE8E
:1018600034E43BCF803E910581F1C8F4813391058A
:1018700009F462C048F48932910509F456C08A32ED
:10188000910509F460C0089589339105B9F0823853
:101890009105A1F08533910509F440C00895863E75
:1018A000910561F138F4823E9105B1F0833E9105D6
:1018B000E1F00895873E910551F108952091A50228
:1018C0002370D9F080EE90E008952091A50220FFCA
:1018D00014C089E390E008952091A50222FF0DC075
:1018E00024FD09C083EE90E008952091A50222FD19
:1018F00031C024FF02C090E080E008952091A5024D
:1019000023FFFBCF24FDF7CF87EE90E008952091D1
:10191000A50223FFEECF86EE90E008952091A50268
:1019200025FFEBCF89E290E008952091A50225FFE5
:10193000E4CF85E390E008952091A50226FFDDCF56
:101940008AE290E008952091A50226FFD6CF81E398
:1019500090E0089582EE90E0089508950F931F930C
:10196000CF938C01FB018281811106C0C1E08C2FD5
:10197000CF911F910F910895C091A301C11125C06E
:101980000531104799F70E94AD0C81E08093A301C7
:101990000E94581A9093A2018093A101109296017F
:1019A000109298011092970110929A011092990149
:1019B00010929C0110929B0110929E0110929D0129
:1019C0001092A00110929F01D2CF8091A10190911D
:1019D000A2010E94641A883C910540F6809196010C
:1019E000E82FF0E0EE0FFF1FE956FE4F1183008352
:1019F0008F5F80939601C0E0BACF0C94E0090C94FD
:101A0000E10985B7806885BF85B7806885BFAAE48E
:101A1000B1E043E551E061E070E08D91E82FE2959F
:101A2000EF70F0E091A18F709B0101C0220F8A95A9
:101A3000EAF7822F8095892381A382A1822B82A33A
:101A40004A175B0751F7ABE3B1E04AE451E061E0CC
:101A500070E08D91E82FE295EF70F0E091A18F702A
:101A60009B0101C0220F8A95EAF7822F8095892376
:101A700081A382A1822B82A34A175B0751F782E1DF
:101A8000E6EBF1E0DF01982F1D929A95E9F7E4EA81
:101A9000F1E0DF011D928A95E9F70C94250B2F9256
:101AA0003F924F925F926F927F928F929F92AF92EE
:101AB000BF92CF92DF92EF92FF920F931F93CF933B
:101AC000DF9394EA292E91E0392E2AE4E22E21E0D8
:101AD000F22E36EB832E31E0932E01E010E06624E7
:101AE0006394E101A990B9901E01DE011E921E923D
:101AF000F70181917F01E82FE295EF70F0E091A16D
:101B00008F70A80101C0440F8A95EAF7892F842BB2
:101B100081A382A1742E7094872182A380EA8A9582
:101B2000F1F78BE3C82E81E0D82E90E080E0E6014B
:101B300059906E01252D22952F70205E30E0E9012D
:101B400048806D917C911197252D2F70E80102C07E
:101B5000CC0FDD1F2A95E2F79E01242109F054C025
:101B60009801082E02C0220F331F0A94E2F7622B5D
:101B7000732B11967C936E9301968F309105B9F675
:101B800081A1782271A282A1842B82A38D919C9144
:101B9000A816B90641F06092C8010E94581A9093A5
:101BA000CA018093C9018214930409F09ACF8091ED
:101BB000C801882399F08091C9019091CA010E94BF
:101BC000641A069758F082E1E4EAF1E0A6EBB1E08E
:101BD00001900D928A95E1F71092C8010E94270B9F
:101BE00081E0DF91CF911F910F91FF90EF90DF90F7
:101BF000CF90BF90AF909F908F907F906F905F90AD
:101C00004F903F902F90089520E030E0B0CFE82F24
:101C1000F0E0EE0FFF1FEA54FE4F8081918108959E
:101C200008959093D0018093CF010895E091CF0162
:101C3000F091D001309721F00190F081E02D0994CE
:101C400080E00895E091CF01F091D001309721F02C
:101C50000280F381E02D09940895E091CF01F09185
:101C6000D001309721F00480F581E02D099408958A
:101C70002091CD013091CE012817390771F0909352
:101C8000CE018093CD01E091CF01F091D00130974A
:101C900021F00680F781E02D099408952091CB0171
:101CA0003091CC012817390771F09093CC018093C3
:101CB000CB01E091CF01F091D001309721F0008469
:101CC000F185E02D0994089508950C94640E0E9406
:101CD0004F1A0E94010D0C94191B7F928F929F92B4
:101CE000AF92BF92CF92DF92EF92FF920F931F932A
:101CF000CF93DF9300D000D00F92CDB7DEB70E9414
:101D00004F0D92EDA92E91E0B92E10E000E088244D
:101D10008394912C702E802F0E94070E7C01F50178
:101D2000C190D1905F01C816D90609F45CC08091BA
:101D30009F0281FD0E94100E96012E253F2590E006
:101D400080E06401082E02C0CC0CDD1C0A94E2F78E
:101D5000A60142235323452B09F440C089837A828C
:101D6000EC20FD2081E0EF2809F480E08B830E94C5
:101D7000581A8160782F9D838C8349815A816B81A9
:101D8000892F0E941D0F000F111FF801EE52FE4F08
:101D9000808191818C259D25918380830E94A41D43
:101DA0000E94160E9091D1018917A1F10E94160E82
:101DB0008093D1010F900F900F900F900F90DF91B3
:101DC000CF911F910F91FF90EF90DF90CF90BF9038
:101DD000AF909F908F907F900C942B0B01968F303B
:101DE000910509F0AECF0F5F1F4F0930110509F0C3
:101DF00091CF8FEF89838A831B820E94581A81605A
:101E0000782F9D838C8349815A816B81892F0E9411
:101E10001D0FC4CF0F900F900F900F900F90DF9178
:101E2000CF911F910F91FF90EF90DF90CF90BF90D7
:101E3000AF909F908F907F900895CF93DF93CDB711
:101E4000DEB72B970FB6F894DEBF0FBECDBF4F8322
:101E5000588769877A878B871E8285E0FE013796CF
:101E6000DE01119601900D928A95E1F749815A8120
:101E70006B817C818D819E812B960FB6F894DEBF9D
:101E80000FBECDBFDF91CF910C940315882309F4C9
:101E90005EC0823871F40E94160E81FD58C089E33D
:101EA0000E94A8180E94701989E30E94E4180C94FB
:101EB0007019833859F40E94160E80FD48C083E5DE
:101EC0000E94A8180E94701983E5EFCF843859F456
:101ED0000E94160E82FD3BC087E40E94A8180E9453
:101EE000701987E4E2CF9CEF980F913A18F40E94A2
:101EF000A818DDCF90E2980F983050F4877091E0E9
:101F000001C0990F8A95EAF7892F0E942719CFCF30
:101F10009BE5980F933070F4853A31F0863A39F0AA
:101F200083E890E00C94380E81E890E0FBCF82E8E3
:101F300090E0F8CF885A853150F4E82FF0E0EE0FAA
:101F4000FF1FED5AFE4F808191810C944E0E089533
:101F5000882309F44BC0823871F40E94160E81FF69
:101F600045C089E30E94A8180E94701989E30E9465
:101F7000E4180C947019833859F40E94160E80FFEF
:101F800035C083E50E94A8180E94701983E5EFCF41
:101F9000843859F40E94160E82FF28C087E40E94FC
:101FA000A8180E94701987E4E2CF9CEF980F913A2D
:101FB000F0F290E2980F983050F4877091E001C0F1
:101FC000990F8A95EAF7892F0E942D19D2CF9BE5A8
:101FD000980F933020F490E080E00C94380E885AEB
:101FE000853120F490E080E00C944E0E0895882313
:101FF00021F00E9427190C9470190895882321F06C
:102000000E942D190C94701908958F929F92AF928F
:10201000BF92DF92EF92FF920F931F93CF93DF93C4
:1020200000D000D00F92CDB7DEB77C016D837983ED
:10203000FC01058102950F70128111110E94461951
:102040000E94A118D82E882371F01123A1F08D8150
:10205000805E883080F082E00E948B180E94A11878
:1020600091E0D82ED926E981E295EF70F0E0EE5CA0
:10207000F84D0C94CB26D12CF6CF09810F70F98145
:10208000F07F11F00295007F1123B1F0002361F081
:102090008D81805E883018F02D81211109C0802F3C
:1020A0000E9427190E9470198D810E94460F15C049
:1020B000802F0E943819F6CF8D810E94A80F00232F
:1020C00061F08D81805E883018F03D81311129C02A
:1020D000802F0E942D190E947019DD2009F4D7C1AC
:1020E0000E947E1880FDD3C1F70112820E947818E9
:1020F0000E94C316C7010E9458120E9478180F90C0
:102100000F900F900F900F90DF91CF911F910F9133
:10211000FF90EF90DF90BF90AF909F908F900C94C6
:10212000E416802F0E943E19D6CF49814F70B42EFD
:102130005981507F503219F0B29480EFB8228D81CE
:10214000882369F0813029F1112369F1002359F0C6
:10215000F701858180FFA8CF8F70858304C011238C
:1021600061F0011104C08B2D0E94F70FB6CF8B2DAB
:102170000130D1F70E945A19B0CF011106C00E9458
:102180005D198B2D0E94FE0FA8CF013009F4A5CF59
:10219000F6CF112321F0063008F09FCFE4CF0530B1
:1021A00008F09BCFEECF002361F38D810E94A80F32
:1021B00094CF898186958695837069F0813009F086
:1021C0008CCF8D8199819370111102C090E080E0D5
:1021D0000E944E0E82CF8D8199819370111102C0A1
:1021E00090E080E00E94380E78CF8D81112329F095
:1021F0000E94D41C0E94991D70CF0E94261DFACF08
:102200008981837009F05FC0111167CF2D812295FC
:1022100026952770220F220F8D818F7090E0B0E0FD
:10222000A0E04C015D01022E04C0880C991CAA1C80
:10223000BB1C0A94D2F7FD8160E070E0CB01F4FF93
:102240000FC06FE070E080E090E004C0660F771F81
:10225000881F991F2A95D2F7609570958095909563
:1022600029812695269523702D832230B1F02330C5
:1022700019F19B01AC01282939294A295B292983B5
:102280003A834B835C833D8169817A818B819C8118
:102290003130B1F00E94501620CF9B01AC012829AB
:1022A00039294A295B2929833A834B835C83CA01F4
:1022B000B9010E947A1611CF0E945016C501B401CF
:1022C0000E9426160ACF112309F447C0398130FF36
:1022D00004CF2D81229526952770220F220F8D8104
:1022E0008F7090E0B0E0A0E04C015D01022E04C0D0
:1022F000880C991CAA1CBB1C0A94D2F75D8160E073
:1023000070E0CB0154FF0FC06FE070E080E090E020
:1023100004C0660F771F881F991F2A95D2F7609512
:10232000709580959095E981E695E695E370ED834B
:10233000E230F1F0E33059F19B01AC012829392951
:102340004A295B2929833A834B835C83E13049F036
:10235000CA01B9010E945417C0CE498141FFBDCEC8
:10236000B8CF69817A818B819C810E942A17B5CE72
:102370009B01AC01282939294A295B2929833A8301
:102380004B835C83CA01B9010E947E17A6CE0E94CE
:102390005417C501B401E9CF3D81323F09F447C06C
:1023A00080F4303F79F1313FD9F1832F805E803165
:1023B000D0F0112309F456C0011176CE89818F71B6
:1023C00033C04D81433FD1F1443F99F7112309F4C4
:1023D0003FC089818F7189830E94C31663E0898120
:1023E0000E9482187ACE5D815F705D8389818F71D2
:1023F000112321F00E94C3168D81B6CE0E94E416EF
:102400008D81C0CE112341F0053008F066CE898160
:102410008F710E94091761CE063008F05ECEF7CFAB
:1024200089818F71112339F00E94C31656CE89819C
:102430008F711123C9F30E94E4164FCE112329F0A6
:1024400089818F710E94AE1648CE0E94A41645CE97
:1024500081E00E948B18023008F43FCE82E00E9497
:102460008B183BCE0111A1CE89818F71E4CF4981B8
:102470004F706D81C7010E94DD090E949D152DCE10
:1024800049814F706D81C7010E942D0B26CE0F90A0
:102490000F900F900F900F90DF91CF911F910F91A0
:1024A000FF90EF90DF90BF90AF909F908F90089536
:1024B0000F931F93CF93DF93EC01988189812B8138
:1024C0003C81232B19F089238F3F29F4DF91CF9191
:1024D0001F910F910895CE010E94F6098823B1F350
:1024E000688179818A810E944E188C010E94A81708
:1024F0000E941B16B801CE01DF91CF911F910F9161
:102500000C9405100E9446190E9457190E9419192F
:102510000E9470190E948A1E0E94991D90E080E01E
:102520000E94380E90E080E00C944E0E0E94351907
:102530000C9482120E944218282F892F82958F7046
:10254000903C80F48A30B0F4843020F4823090F4EF
:1025500080E008958630E1F781E0203E88F0213F59
:10256000B9F70EC08C3011F08F3091F793FB8827AC
:1025700080F9089581E0203F39F018F4203E40F7BB
:102580000895243F29F7FCCF0895CF93DF9300D01F
:1025900000D00F92CDB7DEB70F900F900F900F9035
:1025A0000F90DF91CF910895CF93DF9300D000D0AB
:1025B00000D0CDB7DEB726960FB6F894DEBF0FBEBB
:1025C000CDBFDF91CF9108951F93CF93DF93E0911B
:1025D000E50116E08091E6018E1304C0DF91CF91F2
:1025E0001F910895CE2FD0E01E9FF0011124E951D4
:1025F000FE4F4081518162817381848195810E9467
:10260000D4122196EC2FE770E5CF4091170250913C
:1026100018026091190270911A0280911B02909128
:102620001C020C94D412CF9380911C02807FA9F4D9
:1026300080911902882389F08091E501A091E6013B
:10264000709117026091180240911A0250911B027A
:10265000B62FB723C6E0A81302C0CF91089590E02B
:102660004115510511F0BF3F31F401968770F3CF4A
:102670002150310919C0C89FF001C99FF00D1124E4
:10268000E951FE4F21816213F0CF20812713EDCF56
:1026900022812111EACF0380F481E02D9F01241BC8
:1026A000350BE417F50720F3283C3105F0F62091AF
:1026B0001C022F70206120931C0226E0289FF0014D
:1026C000299FF00D1124E451FE4F80818F708061AD
:1026D000808387E192E00E945812CF910C94E4121B
:1026E0009F92AF92BF92CF92DF92EF92FF920F93A1
:1026F0001F93CF93DF93CDB7DEB72B970FB6F89428
:10270000DEBF0FBECDBF8C0185E0F801DE0117965C
:1027100001900D928A95E1F7D8011296EC901297EC
:102720003C9111962C9111971396CD90DC9040918D
:1027300017025091180260911A0270911B026115E4
:10274000710529F0842F85238F3F09F046C1EE20C3
:1027500009F455C18F8198850E949A12882309F443
:102760004EC1F8C0C616D70628F1FF24F394883C62
:10277000910508F0F12C87E1A82E82E0B82E809117
:102780001C02982F907FF11017C009F0F2C04F8102
:10279000588569857A858B850E94C51287E192E00C
:1027A0000E94581286E0D5011D928A95E9F70E9491
:1027B000051319C00197D9CF9111A8C0FE2C25137C
:1027C00025C0431323C0E11021C08F708061809326
:1027D0001C020E94051387E192E00E94581280912A
:1027E0001C02F80185838F2D2B960FB6F894DEBF5F
:1027F0000FBECDBFDF91CF911F910F91FF90EF9052
:10280000DF90CF90BF90AF909F900895CD2829F092
:10281000822F83238F3F09F076C080E0F82FF1707C
:10282000DF2EE091E5014091E60156E080FD1CC0FD
:10283000EE20C9F280911C02816080931C02F12C71
:10284000D2CF8E2F90E05E9FF0011124E951FE4F10
:102850006181261306C06081361303C06281E612CF
:10286000E7CF0196E82FE770E413EBCF8F819885CF
:102870000E944218292F22952F70903268F0225F13
:102880002F70223080F49F7059F0D80115969C91DA
:10289000907F31F4D12C0AC09F7011F08823D1F3BE
:1028A000805E8830B8F3C8010E945812FD2C9BCF7F
:1028B00001979EC086E0F801A7E1B2E001900D9279
:1028C0008A95E1F790CF8F8198850E949A128111A5
:1028D00041C080911C02816080931C02C8010E944B
:1028E000581281CF4F81588569857A858B850E94E2
:1028F000C51286E0E7E1F2E0DF011D928A95E9F773
:102900000E9405139CCF81E08E2588CF251306C039
:10291000431304C0F801EE2009F452C08F8198855A
:102920000E949A12882309F46AC0EE2009F467C055
:1029300080911C02803270F02091170230911802B1
:102940003A8329831B82DD82CC828E83CE0101965D
:102950000E94581286E0F801A7E1B2E001900D92C2
:102960008A95E1F70E9413130E940513FF24F39444
:102970003ACF2513D3CF4313D1CFE110CFCFF801F6
:102980008583C8010E94581286E0D5011D928A9560
:10299000E9F7F92C28CF251396CF431394CF8091D4
:1029A0001C0280FD87CF982F907F09F483CFF80118
:1029B0008583903F31F0982F907F905F8F70892BA7
:1029C0008583C8010E94581286E0F801A7E1B2E0B1
:1029D00001900D928A95E1F7EACE90901902C60116
:1029E000861B970B9110BECEC616D70608F460CF93
:1029F000883C910508F076CFFE2CE110CCCFC801C1
:102A00000E945812B3CF1F93CF93DF93CDB7DEB799
:102A10002C970FB6F894DEBF0FBECDBF4F835887FB
:102A200069877A878B879C87CE0107960E947013EF
:102A3000882369F08A859B85892B39F058854F81D9
:102A4000852F84238F3F09F071C016E05FC086E0B8
:102A5000FE013796DE01119601900D928A95E1F7FD
:102A60008F8198852091E6014091E5016A857B85FB
:102A7000672B59F389238F3F41F330E0C901019659
:102A8000877099274817190671F40E9496121092C0
:102A9000E6011092E50186E0E7E1F2E0DF011D9238
:102AA0008A95E9F7D2CF96E0929FD001939FB00D1F
:102AB0001124A951BE4FFE01319601900D929A95B5
:102AC000E1F78093E6010E94E412BFCF819FC0012D
:102AD000112489519E4F0E9470138823E9F0E091E0
:102AE000E5011E9FF0011124E951FE4F4081518103
:102AF00062817381848195810E94D4128091E50165
:102B000090E00196877099278093E5018091E50117
:102B10009091E6018913DACF2C960FB6F894DEBFB8
:102B20000FBECDBFDF91CF911F91089569857A8542
:102B30008B859C850E94D41288CFEF92FF920F93D1
:102B40001F93CF93DF938C01892B89F0F12CEE2416
:102B5000E394E8012196F8018491843709F458C080
:102B6000A0F4823009F43FC048F48130D1F0DF9105
:102B7000CF911F910F91FF90EF9008959CEF980FC8
:102B80009037A8F70E94460F0AC0853709F44EC057
:102B90009CE7980F903758F78F770E94A80F8E0107
:102BA00016C00E5F1F4FFE01849190E2980F98307F
:102BB00060F48770FE2D01C0FF0F8A95EAF78F2F12
:102BC0000E9449190E94701902C00E94460F8F2D61
:102BD000882309F4BECFEFE9FFE03197F1F700C099
:102BE00000008150F5CF0E5F1F4FFE01849190E2EF
:102BF000980F983050F48770FE2D01C0FF0F8A9512
:102C0000EAF78F2F0E944F19DDCF0E94A80FDFCF68
:102C10000E5F1F4FFE01C491CC23C9F28FE99FE0E4
:102C20000197F1F700C00000C150F6CF0E5F1F4FB3
:102C3000FE01F490CCCF08956093760270937702F2
:102C400080937802909379020C948212CF93DF9351
:102C500000D000D0CDB7DEB769837A838B839C83A5
:102C60008091760290917702A0917802B0917902DA
:102C700029813A814B815C81822B932BA42BB52B2C
:102C80008093760290937702A0937802B0937902B2
:102C90000F900F900F900F90DF91CF910C948212B4
:102CA000CF93DF9300D000D0CDB7DEB769837A83AE
:102CB0008B839C838091760290917702A091780219
:102CC000B091790229813A814B815C8182239323DF
:102CD000A423B5238093760290937702A093780281
:102CE000B09379020F900F900F900F90DF91CF91DA
:102CF0000C948212CF93DF9300D000D0CDB7DEB713
:102D000069837A838B839C8380917602909177028A
:102D1000A0917802B091790229813A814B815C813E
:102D200082279327A427B527809376029093770272
:102D3000A0937802B09379020F900F900F900F90AC
:102D4000DF91CF910C948212109272021092730252
:102D500010927402109275020C94821241E050E0BD
:102D600060E070E004C0440F551F661F771F8A950E
:102D7000D2F740937202509373026093740270937F
:102D800075020C94821241E050E060E070E004C0F3
:102D9000440F551F661F771F8A95D2F780917202E4
:102DA00090917302A0917402B0917502842B952BBF
:102DB000A62BB72B8093720290937302A093740298
:102DC000B09375020C94821241E050E060E070E034
:102DD00004C0440F551F661F771F8A95D2F7409590
:102DE0005095609570958091720290917302A091B8
:102DF0007402B091750284239523A623B723809390
:102E0000720290937302A0937402B09375020C94B3
:102E1000821241E050E060E070E004C0440F551FB2
:102E2000661F771F8A95D2F7809172029091730284
:102E3000A0917402B091750284279527A627B72721
:102E40008093720290937302A0937402B093750200
:102E50000C948212CF93DF9300D000D0CDB7DEB7B1
:102E600069837A838B839C83809172029091730231
:102E7000A0917402B091750229813A814B815C81E5
:102E8000822B932BA42BB52B809372029093730209
:102E9000A0937402B09375020F900F900F900F9053
:102EA000DF91CF910C948212CF93DF9300D000D0AA
:102EB000CDB7DEB769837A838B839C83809172025E
:102EC00090917302A0917402B091750229813A81A8
:102ED0004B815C8182239323A423B52380937202C8
:102EE00090937302A0937402B09375020F900F90A9
:102EF0000F900F90DF91CF910C948212CF93DF93BC
:102F000000D000D0CDB7DEB769837A838B839C83F2
:102F10008091720290917302A0917402B091750237
:102F200029813A814B815C8182279327A427B52789
:102F30008093720290937302A0937402B09375020F
:102F40000F900F900F900F90DF91CF910C94821201
:102F50000895E82F2FE0929FE00D11248E2F8770A7
:102F600041E001C0440F8A95EAF7E695E695E695BB
:102F700085E0E89FF0011124E35EFD4F30E020E0A2
:102F800070E05191DF011197CB01022E02C096959E
:102F900087950A94E2F78170819585278423852798
:102FA0008C932F5F3F4F2530310559F70895E82F57
:102FB0002FE0929FE00D11249E2F9770E695E695E5
:102FC000E69585E0E89FF0011124E35EFD4F50E0B7
:102FD00040E080E0219130E0092E02C0369527952F
:102FE0000A94E2F721703327042E01C0220F0A94BD
:102FF000EAF7822B4F5F5F4F4530510559F708952F
:10300000BF92CF92DF92EF92FF920F931F93CF93D5
:10301000DF938C01C0907202D0907302E090740232
:10302000F09075028091760290917702A0917802DB
:10303000B0917902C82AD92AEA2AFB2ACFE1D0E046
:10304000BC2ED701C6010C2E04C0B695A795979546
:1030500087950A94D2F780FD0EC0219788F7B12C8E
:103060008B2DDF91CF911F910F91FF90EF90DF900B
:10307000CF90BF900895B8018C2F0E944A0B019702
:1030800061F3EECFCF93DF93D82FC92F0E940018A2
:103090006D2F7C2FDF91CF910C944A0B1F93CF9310
:1030A000DF93162FD72F9091E401992339F0862FC3
:1030B000972FDF91CF911F910C944218882391F0A4
:1030C000862F972F0E940018C82F682F812F9D2FC1
:1030D0000E94A917612F7D2F8C2FDF91CF911F9117
:1030E0000C944A0B862F972F0E94D717C82FF2CF28
:1030F00080917A02859585958595089580917A02CB
:103100008770089598E0899F90011124622B609345
:103110007A020C94C31690917A0280958923809349
:103120007A02282F277061F4282F082E000C330B09
:103130009217130629F08595859585950C94E416CC
:10314000089590917A02977081E009F480E00895E3
:10315000909112019923D9F09091A50297FF17C081
:10316000982F9695969596959F3131F1E0910001B3
:10317000F0910101E90FF11D877021E030E001C0FD
:10318000220F8A95EAF78181822B8183089520910D
:10319000000130910101F90132969FEF40E0519119
:1031A000851751F09F3F19F4511101C0942F4F5FC3
:1031B0004E31A9F79F3F09F40895290F311D97FD5E
:1031C0003A95F90182830895909112019923F9F0BB
:1031D0009091A50297FF1BC0982F9695969596956E
:1031E0009F3131F1E0910001F0910101E90FF11DF2
:1031F000877021E030E0A90102C0440F551F8A9575
:10320000E2F7CA01809591818923818308952091F5
:10321000000130910101F9013296205E3F4F9191FA
:10322000891303C0DF0111971C92E217F307B9F766
:10323000089581E090E0E0910001F0910101E80F34
:10324000F91F1082019680329105A9F70895909197
:103250009E02982B90939E020895982F90958091AE
:103260009E02892380939E02089510929E020895E3
:1032700090919D02982B90939D020895982F909580
:1032800080919D02892380939D02089510929D0252
:10329000089590919C02982B90939C020895982FEA
:1032A000909580919C02892380939C0208951092AE
:1032B0009C02089580937B02089510927B020895EA
:1032C0002091000130910101F9013196205E3F4FBC
:1032D00080E0919191118F5FE217F307D1F7089584
:1032E000E0910001F091010180919E028083E091C4
:1032F0000001F0910101808190919D02892B8083D2
:10330000E0910001F0910101808190919C02892B54
:10331000808390917B02992361F0E0910001F0910C
:1033200001018081892B80830E9460198111109294
:103330007B0280910001909101010C94220E6DEEB0
:103340007EEF90E080E00E94082760E082E090E05D
:103350000E94F62660E083E090E00E94F62660E09E
:1033600084E090E00E94F62660E085E090E00C9416
:10337000F62690E080E00E94F0269C0181E02D3E40
:103380003E4F09F080E0089582E090E00C94E8263A
:10339000682F82E090E00C94F62683E090E00C9495
:1033A000E826682F83E090E00C94F62684E090E015
:1033B0000C94E826682F84E090E00C94F626809127
:1033C000D502843039F11092A00288E190E020E427
:1033D0000FB6F894A895809360000FBE209360000C
:1033E00080E00E942B0B83B7817F846083BF83B70B
:1033F000816083BF7894889583B78E7F83BF0FB633
:10340000F894A89580916000886180936000109284
:1034100060000FBE089508950895CF930E940B1A7F
:103420000E944F0D0E940C1AC0E08C2F0E94070EC4
:10343000892B31F4CF5FC930C1F780E0CF91089577
:1034400081E0FCCF0E9496120E94160E0C942B0B6A
:103450001F921FB61F9211248F939F93AF93BF9318
:103460008091A002811113C08091A1029091A202CB
:10347000A091A302B091A4024196A11DB11D809319
:10348000A1029093A202A093A302B093A402BF91C1
:10349000AF919F918F911F901FBE1F90189582E052
:1034A00084BD93E095BD9AEF97BD80936E0008951B
:1034B0002FB7F8948091A1029091A202A091A3024B
:1034C000B091A4022FBF0895CF92DF92EF92FF92A6
:1034D0009C014FB7F8948091A1029091A202A09113
:1034E000A302B091A4024FBF6C017D01EE24FF2422
:1034F000A90170E060E0C416D506E606F70638F0CC
:10350000821B930BFF90EF90DF90CF90089501976F
:10351000F7CF1F921FB61F9211248F939F93AF93E3
:10352000BF938091A1029091A202A091A302B091B9
:10353000A4020196A11DB11D8093A1029093A20245
:10354000A093A302B093A402BF91AF919F918F91DA
:103550001F901FBE1F9018950E947E22F8942FEF97
:1035600087EA91E6215080409040E1F700C00000DA
:1035700087E090EBDC018093DF029093E002A09360
:10358000E102B093E20288E19CE00FB6F894A895BE
:10359000809360000FBE90936000FFCFAF92BF9208
:1035A000CF92DF92EF92FF920F931F93CF93C0E0E1
:1035B000AA24A394B12CE82EF12C8C2F0E94070E84
:1035C0006C0110E000E0C501002E02C0880F991FB9
:1035D0000A94E2F78C219D21892B99F0602F7C2F92
:1035E00080E00E942E0BE816F90659F481E0CF9195
:1035F0001F910F91FF90EF90DF90CF90BF90AF9011
:1036000008950F5F1F4F0F301105E9F6CF5FC930E6
:10361000A1F680E0ECCFCF93C82F8CE20E94CE1AA7
:10362000882321F08C2FCF910C94CE1A80E0CF917B
:103630000895CF93DF9300D000D0CDB7DEB70E94BE
:10364000B919811102C00E949F1995E6998308C09B
:103650000E944F0D8FE39CE90197F1F700C0000035
:10366000A981A150A983A111F3CF89E20E940B1B6C
:10367000811110C18AE20E940B1B81110E949F19C7
:1036800085E00E940B1B81110E94AC1A0E94C41994
:1036900080939F0287E00E940B1B882371F08BE1CF
:1036A0000E940B1B882309F4D1C090919F02892F9F
:1036B0008D7F91FF826080939F0280919F020E9484
:1036C000C8190E94D61990E09093A6028093A50293
:1036D00080EE0E940B1B882341F09091A502892F58
:1036E0008E7F90FF81608093A50289E30E940B1B6F
:1036F000882341F09091A502892F8D7F91FF8260F0
:103700008093A50282EE0E940B1B882341F09091CA
:10371000A502892F8B7F92FF84608093A50286EE9D
:103720000E940B1B882341F09091A502892F877F6F
:1037300093FF88608093A50283EE0E940B1B882371
:1037400041F09091A502892F8F7E94FF8061809334
:10375000A50285E30E940B1B882341F09091A502EE
:10376000892F8F7D95FF80628093A50281E30E945F
:103770000B1B882341F09091A502892F8F7B96FF28
:1037800080648093A50281E10E940B1B882341F095
:103790009091A502892F97FB87F980588093A50205
:1037A0008091A5020E94DA1987E20E940B1B89838F
:1037B0008EE10E940B1B882319F0B981B260B98396
:1037C0008FE10E940B1B882319F029812460298333
:1037D00080E20E940B1B882319F0398138603983FD
:1037E00081E20E940B1B882319F0498140614983C3
:1037F00082E20E940B1B882319F059815062598381
:1038000083E20E940B1B882319F0898180648983DD
:1038100084E20E940B1B8823B1F1998190689983FF
:1038200089810E94D1193981232F30E050E040E096
:1038300029833A834B835C83CA01B9010F900F90AF
:103840000F900F90DF91CF910C941C168EE00E9488
:103850000B1B882339F090919F02892F8B7F92FF59
:10386000846029CF80E10E940B1B90919F028823E6
:1038700029F0892F877F93FF88601DCF892F8E7F46
:1038800090FF816018CFA981A111CACF0E94CD19E4
:10389000282FCBCF0F900F900F900F90DF91CF91EB
:1038A00008958091A90280FF12C06091050185E012
:1038B000689FB00111247595679575956795603877
:1038C0007105A8F561157105A1F1862F089581FF95
:1038D00009C06091050185E0689FB00111247595CC
:1038E0006795EDCF6091050182FD0AC02091AA0283
:1038F0002223D1F09091040160910501291728F04D
:1039000085E0689FB0011124DACF269F9001112431
:1039100085E0829FA001839F500D1124692F70E0E4
:10392000CA010E94B726CBCF65E070E0CECF8FE70B
:10393000089581E008958091A90280FF0CC06091F4
:10394000030170E07595679575956795611571052B
:1039500049F1862F089581FF06C06091030170E050
:1039600075956795F3CF6091030182FD0BC090912F
:10397000AA029923A1F06091020180910301961798
:1039800038F0682F70E06038710500F38FE7089514
:10399000899FC001112470E00E94B726F4CF61E036
:1039A00070E0D7CF81E00895805F803108F045C096
:1039B000E82FF0E0EE5BF84D0C94CB260E94511CF2
:1039C00081958093AD0208950E94511CFACF0E9408
:1039D000511C81958093AC0208950E94511CFACF2E
:1039E0000E949B1C8093AE0208950E949B1C8195AF
:1039F000F9CF0E949B1C81958093AF0208950E948D
:103A00009B1CFACF8091AB0281608093AB0208953A
:103A10008091AB028260F9CF8091AB028460F5CFD8
:103A20008091AB028860F1CF8091AB028061EDCFD5
:103A30008091A90281608093A90208958091A902D2
:103A40008260F9CF8091A9028460F5CFE82F309190
:103A5000AD022091AC029091AE028091AF02E03FA6
:103A600091F437FD1092AD028091AC029091AD02BD
:103A7000892B9091AE02892B9091AF02892B11F482
:103A80001092AA020895E13F19F413165CF3ECCFEB
:103A9000E23F29F427FFE8CF1092AC02E5CFE33FE5
:103AA00019F41216CCF3E0CFE93F29F41916E4F625
:103AB0001092AE02D9CFEA3F19F497FFD5CFF8CFD5
:103AC000EB3F29F487FFD0CF1092AF02CDCFEC3F70
:103AD00019F41816CCF3C8CFE45FEC3008F0C4CF6B
:103AE000F0E0EE5AF84D0C94CB268091AB028E7F1D
:103AF0008093AB02B9CF8091AB028D7FF9CF8091DB
:103B0000AB028B7FF5CF8091AB02877FF1CF8091A5
:103B1000AB028F7EEDCF8091A9028E7F8093A902A8
:103B2000A3CF8091A9028D7FF9CF8091A9028B7FCD
:103B3000F5CF8BEA92E00E942D0E0E94581A9093C6
:103B4000A8028093A70208951F93CF93DF9300D01C
:103B500000D000D0CDB7DEB78091A7029091A80227
:103B60000E94641AAC018091AA022091060130E003
:103B7000811106C0209107019AE0299F900111242C
:103B80004217530788F02091AC02A091AD02A9839F
:103B90001091AE02B091AF02BE8321110FC09A2FD7
:103BA000912B9B2B09F0B2C026960FB6F894DEBF7E
:103BB0000FBECDBFDF91CF911F9108958F3F19F0B8
:103BC0008F5F8093AA02121624F40E94511C8093E6
:103BD000AC028091AC0287FF05C00E94511C819508
:103BE0008093AC022981121624F40E94511C809308
:103BF000AD028091AD0287FF05C00E94511C8195E6
:103C00008093AD028091AC02882309F455C03091B5
:103C1000AD023D83332309F44FC0282F880F330BA7
:103C2000440B550B29833A834B835C83CA01B9014A
:103C30000E94BE2523E333E343E35FE369837A8392
:103C40008B839C8369817A818B819C810E9422264F
:103C500069837A838B839C8369817A818B819C8140
:103C60000E9486256093AC028D81082E000C990B72
:103C7000AA0BBB0B89839A83AB83BC83BC01CD01A8
:103C80000E94BE2523E333E343E35FE369837A8342
:103C90008B839C8369817A818B819C810E942226FF
:103CA00069837A838B839C8369817A818B819C81F0
:103CB0000E9486256093AD02111624F40E949B1C7D
:103CC0008093AE028091AE0287FF05C00E949B1CCC
:103CD00081958093AE029E81191624F40E949B1C4C
:103CE0008093AF028091AF0287FF05C00E949B1CAA
:103CF00081958093AF0226960FB6F894DEBF0FBE73
:103D0000CDBFDF91CF911F910C94991D8F3F09F08A
:103D100057CF68CF85E0EBEAF2E0DF011D928A958C
:103D2000E9F71092AA021092A90208958091D00298
:103D30000895CF93DF9300D00F92CDB7DEB72091D7
:103D4000D502243019F523E029838A839B832093AD
:103D5000E9008FEF9091E800815095FD06C095ED48
:103D60009A95F1F700008111F5CF8091E80085FF69
:103D70000DC050E040E063E070E0CE0101960E948B
:103D8000F6208091E8008E778093E8000F900F90E6
:103D90000F90DF91CF910895CF93DF9300D00F92D2
:103DA000CDB7DEB79C018091D502843031F582E039
:103DB0008983205831093B832A8383E08093E9007B
:103DC0008FEF9091E800815095FD06C095ED9A9592
:103DD000F1F700008111F5CF8091E80085FF0DC05B
:103DE00050E040E063E070E0CE0101960E94F620D2
:103DF0008091E8008E778093E8000F900F900F90ED
:103E0000DF91CF9108952091D5022430F1F422E082
:103E10002093E9002FEF3091E800215035FD06C0D6
:103E200035ED3A95F1F700002111F5CF2091E8002A
:103E300025FF0BC050E040E065E070E00E94F620F6
:103E40008091E8008E778093E8000895CF93DF9308
:103E5000D82FC92F8091D5028430F1F490911201AE
:103E60009923E9F09091A50297FF19C08093E9008A
:103E70008FEF9091E800815095FD06C095E19A95ED
:103E8000F1F700008111F5CF8091E80050E040E0AB
:103E900060E270E085FD1AC0DF91CF91089581E066
:103EA0008093E9008FEF9091E800815095FD06C066
:103EB00095ED9A95F1F700008111F5CF8091E8001A
:103EC00085FFEACF50E040E068E070E08D2F9C2F46
:103ED0000E94F6208091E8008E778093E80080E2CF
:103EE000ED2FFC2FA0EBB2E001900D928A95E1F747
:103EF000D3CF8091DE02811109C00E947E220E94F0
:103F0000E0228091E20084608093E20008951092A4
:103F1000DE020895089508950C94221A42E061EC9F
:103F200081E00E94FA2142E061EC82E00E94FA21E5
:103F300042E061EC83E00E94FA2142E261EC84E01D
:103F40000C94FA218091D702893089F148F48230AB
:103F500009F494C0833009F44FC0813041F00895D2
:103F60008A3009F47BC08B3009F461C008958091D8
:103F7000D602813A09F03FC08091E800877F8093A4
:103F8000E8008091DA029091DB02892B61F460E213
:103F900080EB92E070E00E9445218091E8008B77F1
:103FA0008093E800089560E090E080E0F3CF809196
:103FB000D602813201F58091DA029091DB020097FE
:103FC00011F00397C1F48091E800877F8093E800A7
:103FD0008091E80082FF0BC08091F1008093D002B5
:103FE0008091E8008B778093E8000C942E228091DA
:103FF000D5028111EDCF08958091D602813AD9F78B
:104000008091DA029091DB02892BA9F78091E80078
:10401000877F8093E8008091E80080FFFCCF80914B
:1040200012018093F1008091E8008E77DCCF8091BF
:10403000D602813201F78091DA029091DB02892B5E
:10404000D1F68091E800877F8093E8000E942E22BD
:104050008091D802809312010C9496128091D6021E
:10406000813249F68091E800877F8093E8000E94C2
:104070002E228091D9028093D10208958091D60298
:10408000813A09F0B8CF8091E800877F8093E800FB
:104090008091E80080FFFCCF8091D102C2CF84B72D
:1040A000877F84BF0FB6F894A895809160008861DF
:1040B00080936000109260000FBE80E880936100E2
:1040C000109261000E94650E0E947E220E94E022F2
:1040D0008091E20084608093E20078940E946C25D5
:1040E0000E94670E88E091E00E94110E8091D50237
:1040F000853019F00E946D0EF9CF0E94DF19809172
:10410000D202882399F30E940D1A882379F30E9422
:10411000E020ECCF9C01DA01892F992783309105AB
:10412000C1F068F48130910509F445C0029761F44B
:104130008DE690E028EA31E12D933C930895813299
:104140009105E1F0829739F190E080E030E020E0E5
:10415000F3CFC9019927213059F08230910559F0E8
:10416000E4EAF1E1892B81F7849190E09F01E4CFAB
:10417000ECE8F1E1F9CFE8E7F1E1F6CF643020F7C0
:10418000E62FF0E0EE0FFF1FE757FE4F2081318151
:1041900089E090E0D1CF6430B8F670E0FB01EE0F1B
:1041A000FF1FEF57FE4F2081318163587E4FFB0187
:1041B000808190E0C1CF82E190E025E132E1BCCF87
:1041C00084E189BD86E189BD09B400FEFDCF8091FF
:1041D000D8008F7D8093D8008091E000826080932A
:1041E000E0008091E00081FDFCCF0895AF92BF9286
:1041F000CF92DF92FF920F931F93CF93DF936C01C7
:10420000EB018A010E944D22F82E811123C0011575
:10421000110539F0F80180819181C81BD90BC80EB6
:10422000D91EB12CA12C2097A9F08091E80085FD22
:1042300022C08091E8008E778093E8000115110577
:10424000A1F0F801808191818A0D9B1D918380836B
:1042500085E0F82E8F2DDF91CF911F910F91FF9068
:10426000DF90CF90BF90AF9008950E944D22882399
:10427000D1F2F82EEFCFF60181916F018093F1001A
:104280002197FFEFAF1ABF0ACECFFC01CB012091DF
:10429000DC023091DD022617370790F0009729F4F1
:1042A0002091E8002E772093E80040E0009751F439
:1042B000411108C08091E80082FF31C080E008957C
:1042C000C901F3CF2091D5022223A9F12530A9F10C
:1042D0002091E80023FD2DC02091E80022FDEACFC7
:1042E0002091E80020FFE2CF2091F2003091F3000E
:1042F000009719F02830310558F041E02830310599
:1043000009F040E02091E8002E772093E800CECF1E
:1043100041914093F10001972F5F3F4FE9CF80918A
:10432000D502882341F0853041F08091E80083FF79
:10433000C1CF81E0089582E0089583E00895FC01F3
:10434000CB012091DC023091DD022617370790F077
:10435000009729F42091E8002E772093E80040E0B0
:10436000009751F4411108C08091E80082FF32C0EB
:1043700080E00895C901F3CF2091D5022223B1F145
:104380002530B1F12091E80023FD2EC02091E800F6
:1043900022FDEACF2091E80020FFE2CF2091F20039
:1043A0003091F300009719F02830310558F041E0C2
:1043B0002830310509F040E02091E8002E77209365
:1043C000E800CECF44914093F100319601972F5FE2
:1043D0003F4FE8CF8091D502882341F0853041F0EE
:1043E0008091E80083FFC0CF81E0089582E00895C6
:1043F00083E00895982F973028F08F708093E9001C
:1044000081E008959093E900242F762F50E09817CB
:1044100031F07091EC002091ED005091F00021FD01
:1044200002C09F5FE8CF3091EB003E7F3093EB00FE
:104430003091ED003D7F3093ED003091EB00316025
:104440003093EB007093EC002093ED005093F0005C
:104450002091EE0027FDE5CF80E008958091D602FF
:1044600087FF13C08091E80082FF06C08091E800BA
:104470008B778093E80004C08091D5028111F2CF40
:1044800008958091D5028823D9F38091E80080FFB8
:10449000F8CF8091E8008E77ECCF2091E400309146
:1044A000E50095E6A9012091EC00822F817020FFA4
:1044B00006C08091E80080FF06C080E0089520914A
:1044C000E80022FD1AC08091D502882389F085304A
:1044D00089F08091EB0085FD0FC02091E4003091C0
:1044E000E50042175307F9F29150E1F684E0089590
:1044F00082E0089583E0089581E008950E94EF220C
:104500000E94F722E0EEF0E0808181608083E8ED98
:10451000F0E080818F77808319BCA7EDB0E08C91AB
:104520008E7F8C9380818F7E80831092DE0208952F
:104530000F931F93CF93DF930E94EF220E94F722E5
:10454000C8EDD0E088818F778883888180688883F0
:1045500088818F7D8883E7EDF0E0808180688083AB
:1045600019BC1092D5021092D4021092D20210926D
:10457000D30200EE10E0F80180818B7F8083888178
:104580008160888342E060E080E00E94FA21E1EEF1
:10459000F0E080818E7F8083E2EEF0E080818160B8
:1045A0008083808188608083F80180818E7F808312
:1045B000888180618883DF91CF911F910F91089549
:1045C000E8EDF0E080818F7E8083E7EDF0E0808190
:1045D0008160808381E08093DE020C949822E8ED74
:1045E000F0E080818C7F80831092E2000895109229
:1045F000DA001092E10008951F920F920FB60F9209
:1046000011240BB60F922F933F934F935F936F93A9
:104610007F938F939F93AF93BF93EF93FF9380917B
:10462000E10082FF0BC08091E20082FF07C0809111
:10463000E1008B7F8093E1000E946B258091DA007E
:1046400080FF19C08091D80080FF15C08091DA00EA
:104650008E7F8093DA008091D90080FF96C084E13C
:1046600089BD86E189BD09B400FEFDCF81E080935C
:10467000D5020E94791F8091E10080FF19C08091CE
:10468000E20080FF15C08091E2008E7F8093E200FF
:104690008091E20080618093E2008091D800806286
:1046A0008093D80019BC85E08093D5020E948B1FAF
:1046B0008091E10084FF29C08091E20084FF25C041
:1046C00084E189BD86E189BD09B400FEFDCF8091FA
:1046D000D8008F7D8093D8008091E1008F7E8093F9
:1046E000E1008091E2008F7E8093E2008091E20001
:1046F00081608093E2008091D402882309F44BC04A
:1047000084E08093D5020E948C1F8091E10083FF9A
:1047100029C08091E20083FF25C08091E100877F5E
:104720008093E10082E08093D5021092D4028091C0
:10473000E1008E7F8093E1008091E2008E7F809384
:10474000E2008091E20080618093E20042E060E05C
:1047500080E00E94FA218091F00088608093F00050
:104760000E948A1FFF91EF91BF91AF919F918F910E
:104770007F916F915F914F913F912F910F900BBE61
:104780000F900FBE0F901F90189519BC1092D50274
:104790000E94871F70CF8091E30087FD02C081E0F7
:1047A000B0CF83E0AECF1F920F920FB60F921124BD
:1047B0000BB60F92FF920F931F932F933F934F933C
:1047C0005F936F937F938F939F93AF93BF93CF9399
:1047D000DF93EF93FF9309EE10E0F8018081C09121
:1047E000EC00C795CC27C7958F70FC2EF82A108255
:1047F000C0EFD0E08881877F888378940E9420244E
:10480000F8011082888188608883CF2DCF70C083A3
:10481000FF91EF91DF91CF91BF91AF919F918F91D8
:104820007F916F915F914F913F912F911F910F91C8
:10483000FF900F900BBE0F900FBE0F901F9018951A
:104840001F93CF93DF93CDB7DEB7AA970FB6F89437
:10485000DEBF0FBECDBF86ED92E0FC010196209138
:10486000F100208322E08E3D9207B9F70E94A21F3B
:104870008091E80083FF82C08091D6029091D70298
:104880009A3008F07BC0E92FF0E0E25AF84D0C9422
:10489000CB26803881F0823809F070C08091DA022E
:1048A0008F708093E9008091EB0085FB882780F969
:1048B0001092E90006C08091D3029091D20291112A
:1048C00082609091E800977F9093E8008093F100D8
:1048D0001092F1008091E8008E77F8C0882309F4E7
:1048E000E5C0823009F04AC08091D8028111E9C048
:1048F0008091DA028F7009F441C08093E900209121
:10490000EB0020FFDEC0933031F48091EB00806239
:104910008093EB00D6C09091EB0090619093EB00F8
:1049200021E030E001C0220F8A95EAF72093EA00E7
:104930001092EA008091EB008860EACF81111EC0DE
:104940001091D8021F778091E3008078812B8093AB
:10495000E3008091E800877F8093E8000E942E2288
:104960008091E80080FFFCCF8091E3008068809315
:10497000E30082E0111183E08093D5028091E8008A
:1049800083FF0AC08091E800877F8093E8008091D0
:10499000EB0080628093EB00AA960FB6F894DEBF1E
:1049A0000FBECDBFDF91CF911F9108958058823007
:1049B00028F78091D8029091D9028C3D23E092078C
:1049C00099F583E08A838AE289834FB7F894DE0100
:1049D000139620E03EE051E2E32FF0E050935700C1
:1049E000849120FF03C082958F703F5F8F708A3063
:1049F000C8F0895C90E08D939D932F5F243161F71F
:104A00004FBF8091E800877F8093E8006AE270E002
:104A1000CE0101960E9445218091E8008B7780931A
:104A2000E800ACCF805DE6CFAE014F5F5F4F609195
:104A3000DA020E948A20BC01892B09F49FCF809161
:104A4000E800877F8093E80089819A810E949F21F6
:104A5000E3CF803809F092CF8091E800877F809380
:104A6000E8008091D4028093F10034CF811186CF89
:104A70009091D802923008F081CF8091E800877F32
:104A80008093E8009093D4020E942E228091D40259
:104A9000882311F084E005C08091E30087FDFACF00
:104AA00081E08093D5020E948E1F68CF8091D8024A
:104AB000813009F063CF81E0933009F080E080938A
:104AC000D2021092E9008091E800877F8093E8008D
:104AD0000E942E2253CF0895CF938091D502882330
:104AE00099F08091E900C091EC00C795CC27C7955B
:104AF0008F70C82B1092E9008091E80083FD0E941E
:104B00002024CF70C093E900CF9108950E948D2595
:104B10006894B1110C941C2608950E94012688F017
:104B20009F5798F0B92F9927B751B0F0E1F0660F71
:104B3000771F881F991F1AF0BA95C9F714C0B130B2
:104B400091F00E941B26B1E008950C941B26672F5C
:104B5000782F8827B85F39F0B93FCCF386957795E1
:104B60006795B395D9F73EF49095809570956195CA
:104B70007F4F8F4F9F4F0895E89409C097FB3EF4F5
:104B800090958095709561957F4F8F4F9F4F99239A
:104B9000A9F0F92F96E9BB279395F6958795779518
:104BA0006795B795F111F8CFFAF4BB0F11F460FFD8
:104BB0001BC06F5F7F4F8F4F9F4F16C0882311F030
:104BC00096E911C0772321F09EE8872F762F05C044
:104BD000662371F096E8862F70E060E02AF09A95DF
:104BE000660F771F881FDAF7880F9695879597F9D4
:104BF000089557FD9058440F551F59F05F3F71F0CD
:104C00004795880F97FB991F61F09F3F79F0879533
:104C10000895121613061406551FF2CF4695F1DFBC
:104C200008C0161617061806991FF1CF869571054C
:104C3000610508940895E894BB2766277727CB0180
:104C400097F908950E9435260C94A6260E9498266E
:104C500038F00E949F2620F0952311F00C948F26A7
:104C60000C94952611240C941C260E94F92570F3AF
:104C7000959FC1F3950F50E0551F629FF001729F01
:104C8000BB27F00DB11D639FAA27F00DB11DAA1F10
:104C9000649F6627B00DA11D661F829F2227B00D5D
:104CA000A11D621F739FB00DA11D621F839FA00DE8
:104CB000611D221F749F3327A00D611D231F849F38
:104CC000600D211D822F762F6A2F11249F5750408F
:104CD0009AF0F1F088234AF0EE0FFF1FBB1F661F0A
:104CE000771F881F91505040A9F79E3F510580F0D3
:104CF0000C948F260C941C265F3FE4F3983ED4F36B
:104D0000869577956795B795F795E7959F5FC1F776
:104D1000FE2B880F911D9695879597F9089597F921
:104D20009F6780E870E060E008959FEF80EC089551
:104D300000240A941616170618060906089500247A
:104D40000A9412161306140605060895092E0394F4
:104D5000000C11F4882352F0BB0F40F4BF2B11F468
:104D600060FF04C06F5F7F4F8F4F9F4F089597FB89
:104D7000072E16F4009407D077FD09D00E94D426A0
:104D800007FC05D03EF4909581959F4F089570954E
:104D900061957F4F0895EE0FFF1F0024001C0BBE8E
:104DA0000790F691E02D0994AA1BBB1B51E107C0A7
:104DB000AA1FBB1FA617B70710F0A61BB70B881FAB
:104DC000991F5A95A9F780959095BC01CD0108953A
:104DD000F999FECF92BD81BDF89A992780B50895C3
:104DE000A8E1B0E042E050E00C941027262FF9999A
:104DF000FECF92BD81BDF89A019700B4021639F03A
:104E00001FBA20BD0FB6F894FA9AF99A0FBE08950A
:104E10000196272F0E94F7260C94F626DC01CB0181
:104E2000FC01F999FECF06C0F2BDE1BDF89A3196BA
:104E300000B40D9241505040B8F70895F894FFCF58
:104E4000960AA20AA60AAA0AAE0AB20AB60ABA0ABA
:104E5000BE0AC20AC60ACA0ACE0AD20AD60ADA0AA2
:104E6000DE0AE20A3D103D1095109510D910F5109C
:104E70006D106D1000116D10CC11CC1137126D102A
:104E80006D104012DE1CE41CE71CED1C021D081D09
:104E90000C1D101D141DF01CF51CF91CFF1C181D09
:104EA0001E1D221D751D7B1D7F1D831D871D341D2D
:104EB000341D341D341D8B1D911D951D49246E24F8
:104EC000BE246E24BE249E24D624BE242925362545
:104ED0007C022808140A321E961E261F031FCC1EB1
:104EE000991E01E944EA44B544B644B744CD44832D
:104EF00045CC448A4592459445214623462446257F
:104F000046264627462A46B344B444C7676660C16E
:104F1000C0973495949392903606F7F6F5F4F332F1
:104F2000F1F062E200E900EA00B500B600B700CD9A
:104F3000008301CC008A0192019401210223022402
:104F4000022502260227022A02B300B400404D3691
:104F500039E312961260122712BA11D311EC11051F
:024F600012003D
:00000001FF
