:100000000C94A2080C94EB080C94EB080C94EB08ED
:100010000C94EB080C94EB080C94EB080C94EB0894
:100020000C94EB080C94EB080C9449230C942024BA
:100030000C94531A0C94EB080C94EB080C94EB08FA
:100040000C94EB080C94EB080C94EB080C94EB0864
:100050000C94EB080C94B41A0C94EB080C94EB0879
:100060000C94EB080C94EB080C94EB080C94EB0844
:100070000C94EB080C94EB080C94EB080C94EB0834
:100080000C94EB080C94EB080C94EB080C94EB0824
:100090000C94EB080C94EB083500250014001200BA
:1000A00009003100360050005E0049005500015142
:1000B0003A00420000001E0026001A0013000A0049
:1000C0001D0037004F005900520D570000003B0043
:1000D000430000001F00270008002F000B001B003A
:1000E000380051005A00510D670000003C004400E8
:1000F000580020002D00150030000D00060064009F
:100100005F005B0000008500E0003D004500E50069
:1001100021002E00170028000E001900E2006000E8
:10012000620001510000E0003E00A8000000220033
:1001300031001C0004000F0005002C00610063006A
:1001400048000000E1003F00AA00000023002A0050
:100150001800160033001100E6005C00290056006C
:100160000000E3004000A900000024002B000C0068
:1001700007003400100052005D0000005400000031
:10018000000041004C004600010001000100010098
:100190000100FC000100F20001004B000100010021
:1001A000680070000000010001000100FD00010076
:1001B0000100F600F30001004D000100000069009D
:1001C00071000000010001000100F90001000100C0
:1001D000F700F10001004E00010000006A0072000B
:1001E0000100010001000100FE0001000100F80013
:1001F000010001000000010001006B007300F50028
:10020000010001000100F4000100010001000100F3
:1002100001000100000001006C00AC0000000100C2
:1002200001000100010001000100010001000100C6
:100230000100000001006D00AE000000010001009F
:1002400001000100FB000100010001003D0401006C
:10025000000001006E00AB00000001000100010081
:100260000100FA000100F0000100000001000000A0
:1002700000006F004A001A010100010001000100A6
:100280000100010001000100010001000100010066
:100290000100010000000100010001000100010057
:1002A0000100010001000100010001000000010047
:1002B0000100000001000100010001000100010037
:1002C0000100010001000100010000000100010027
:1002D0000100010001000100010001000100010016
:1002E0000100010000000100010001000100010007
:1002F00001000100010001000100010001000100F6
:1003000001000100000001000100010000000100E7
:1003100001000100010001000100010001000100D5
:1003200001000000010001000100000001000100C7
:1003300001000100010001000100010001000100B5
:1003400000000100010001000000010001000100A7
:100350000100010001000100010000000100000097
:100360000000010001000100010001000100010086
:100370000100010001000100010001000100010075
:100380000100010000000100010001000100010066
:100390000100010001000100010001000000010056
:1003A0000100000001000100010001000100010046
:1003B0000100010001000100010000000100010036
:1003C0000100010001000100010001000100010025
:1003D0000100010000000100010001000100010016
:1003E0000100010001000100010001000100010005
:1003F00001000100000001000100010000000100F7
:1004000001000100010001000100010001000100E4
:1004100001000000010001000100000001000100D6
:1004200001000100010001000100010001000100C4
:1004300000000100010001000000010001000100B6
:1004400001000100010001000100000001000000A6
:100450000000010001000100010001000100010095
:100460000100010001000100010001000100010084
:100470000100010000000100010001000100010075
:100480000100010001000100010001000000010065
:100490000100000001000100010001000100010055
:1004A0000100010001000100010000000100010045
:1004B0000100010001000100010001000100010034
:1004C0000100010000000100010001000100010025
:1004D0000100010001000100010001000100010014
:1004E0000100010000000100010001000000010006
:1004F00001000100010001000100010001000100F4
:1005000001000000010001000100000001000100E5
:1005100001000100010001000100010001000100D3
:1005200000000100010001000000010001000100C5
:1005300001000100010001000100000001000000B5
:1005400000000100010001000100010001000100A4
:100550000100010001000100010001000100010093
:100560000100010000000100010001000100010084
:100570000100010001000100010001000000010074
:100580000100000001000100010001000100010064
:100590000100010001000100010000000100010054
:1005A0000100010001000100010001000100010043
:1005B0000100010000000100010001000100010034
:1005C0000100010001000100010001000100010023
:1005D0000100010000000100010001000000010015
:1005E0000100010001000100010001000100010003
:1005F00001000000010001000100000001000100F5
:1006000001000100010001000100010001000100E2
:1006100000000100010001000000010001000100D4
:1006200001000100010001000100000001000000C4
:1006300000000100010001000100010001000100B3
:1006400001000100010001000100010001000100A2
:100650000100010000000100010001000100010093
:100660000100010001000100010001000000010083
:100670000100000001000100010001000100010073
:100680000100010001000100010000000100010063
:100690000100010001000100010001000100010052
:1006A0000100010000000100010001000100010043
:1006B0000100010001000100010001000100010032
:1006C0000100010000000100010001000000010024
:1006D0000100010001000100010001000100010012
:1006E0000100000001000100010000000100010004
:1006F00001000100010001000100010001000100F2
:1007000000000100010001000000010001000100E3
:1007100001000100010001000100000001000000D3
:1007200000000100010001000100010001000100C2
:1007300001000100010001000100010001000100B1
:1007400001000100000001000100010001000100A2
:100750000100010001000100010001000000010092
:100760000100000001000100010001000100010082
:100770000100010001000100010000000100010072
:100780000100010001000100010001000100010061
:100790000100010000000100010001000100010052
:1007A0000100010001000100010001000100010041
:1007B0000100010000000100010001000000010033
:1007C0000100010001000100010001000100010021
:1007D0000100000001000100010000000100010013
:1007E0000100010001000100010001000100010001
:1007F00000000100010001000000010001000100F3
:1008000001000100010001000100000001000000E2
:1008100000000100010001000100010001000100D1
:1008200001000100010001000100010001000100C0
:1008300001000100000001000100010001000100B1
:1008400001000100010001000100010000000100A1
:100850000100000001000100010001000100010091
:100860000100010001000100010000000100010081
:100870000100010001000100010001000100010070
:100880000100010000000100010001000100010061
:100890000100010001000100010001000100010050
:1008A0000100010000000100010001000000010042
:1008B0000100010001000100010001000100010030
:1008C0000100000001000100010000000100010022
:1008D0000100010001000100010001000100010010
:1008E0000000010001000100000001000100010002
:1008F00001000100010001000100000001000000F2
:1009000000000100010001000100010001000100E0
:1009100001000100010001000100010001000100CF
:1009200001000100000001000100010001000100C0
:1009300001000100010001000100010000000100B0
:1009400001000000010001000100010001000100A0
:100950000100010001000100010000000100010090
:10096000010001000100010001000100010001007F
:100970000100010000000100010001000100010070
:10098000010001000100010001000100010001005F
:100990000100010000000100010001000000010051
:1009A000010001000100010001000100010001003F
:1009B0000100000001000100010000000100010031
:1009C000010001000100010001000100010001001F
:1009D0000000010001000100000001000100010011
:1009E0000100010001000100010000000100000001
:1009F00000000100010001000100010001000100F0
:100A000001000100010001000100010001000100DE
:100A100001000100000001000100010001000100CF
:100A200001000100010001000100010000000100BF
:100A300001000000010001000100010001000100AF
:100A4000010001000100010001000000010001009F
:100A5000010001000100010001000100010001008E
:100A6000010001000000010001000100010001007F
:100A7000010001000100010001000100010001006E
:100A80000100010000000100010001000000010060
:100A9000010001000100010001000100010001004E
:100AA0000100000001000100010000000100010040
:100AB000010001000100010001000100010001002E
:100AC0000000010001000100000001000100010020
:100AD0000100010001000100010000000100000010
:100AE00000000100010001000100010001000100FF
:100AF00001000100010001000100010001000100EE
:100B000001000100000001000100010001000100DE
:100B100001000100010001000100010000000100CE
:100B200001000000010001000100010001000100BE
:100B300001000100010001000100000001000100AE
:100B4000010001000100010001000100010001009D
:100B5000010001000000010001000100010001008E
:100B6000010001000100010001000100010001007D
:100B7000010001000000010001000100000001006F
:100B8000010001000100010001000100010001005D
:100B9000010000000100010001000000010001004F
:100BA000010001000100010001000100010001003D
:100BB000000001000100010000000100010001002F
:100BC000010001000100010001000000010000001F
:100BD000000001000100010001000100010001000E
:100BE00001000100010001000100010001000100FD
:100BF00001000100000001000100010001000100EE
:100C000001000100010001000100010000000100DD
:100C100001000000010001000100010001000100CD
:100C200001000100010001000100000001000100BD
:100C300001000100010001000100010001000100AC
:100C4000010001000000010001000100010001009D
:100C5000010001000100010001000100010001008C
:100C6000010001000000010001000100000001007E
:100C7000010001000100010001000100010001006C
:100C8000010000000100010001000000010001005E
:100C9000010001000100010001000100010001004C
:100CA000000001000100010000000100010001003E
:100CB000010001000100010001000000010000002E
:100CC000000001000100010001000100010001001D
:100CD000010001000100010001000100010001000C
:100CE00001000100000001000100010001000100FD
:100CF00001000100010001000100010000000100ED
:100D000001000000010001000100010001000100DC
:100D100001000100010001000100000001000100CC
:100D200001000100010001000100010001000100BB
:100D300001000100000001000100010001000100AC
:100D4000010001000100010001000100010001009B
:100D5000010001000000010001000100000001008D
:100D6000010001000100010001000100010001007B
:100D7000010000000100010001000000010001006D
:100D8000010001000100010001000100010001005B
:100D9000000001000100010000000100010001004D
:100DA000010001000100010001000000010000003D
:100DB000000001000100010001000100010001002C
:100DC000010001000100010001000100010001001B
:100DD000010001000000010001000100010001000C
:100DE00001000100010001000100010000000100FC
:100DF00001000000010001000100010001000100EC
:100E000001000100010001000100000001000100DB
:100E100001000100010001000100010001000100CA
:100E200001000100000001000100010001000100BB
:100E300001000100010001000100010001000100AA
:100E4000010001000000010001000100000001009C
:100E5000010001000100010001000100010001008A
:100E6000010000000100010001000000010001007C
:100E7000010001000100010001000100010001006A
:100E8000000001000100010000000100010001005C
:100E9000010001000100010001000000010000004C
:100EA000000001000100010001000100010001003B
:100EB000010001000100010001000100010001002A
:100EC000010001000000010001000100010001001B
:100ED000010001000100010001000100000001000B
:100EE00001000000010001000100010001000100FB
:100EF00001000100010001000100000001000100EB
:100F000001000100010001000100010001000100D9
:100F100001000100000001000100010001000100CA
:100F200001000100010001000100010001000100B9
:100F300001000100000001000100010000000100AB
:100F40000100010001000100010001000100010099
:100F5000010000000100010001000000010001008B
:100F60000100010001000100010001000100010079
:100F7000000001000100010000000100010001006B
:100F8000010001000100010001000000010000005B
:100F9000000001000100010012036B0065007900F0
:100FA00062006F00610072006400000016037100AF
:100FB0006D006B006200750069006C0064006500E4
:100FC000720000000403090409026D00040100A07E
:100FD000FA090400000103010100092111010001C7
:100FE0002240000705810308000A090401000103EB
:100FF000010200092111010001224D0007058203B1
:1010000008000A090402000103000000092111017F
:1010100000012236000705830308000A09040300C3
:101020000103000000092111010001223900070518
:1010300084032000011201100100000008EDFE6091
:101040006001000102000105010906A1010507195F
:10105000E029E715002501950875018102050819A9
:101060000129059505750191029501750391010509
:1010700007190029F71500250195F875018102C0AF
:1010800005010980A10185021601002603001A81CD
:10109000002A8300751095018100C0050C0901A18B
:1010A000018503160100269C021A01002A9C027584
:1010B0001095018100C005010902A1010901A100EB
:1010C00005091901290515002501950575018102FC
:1010D0009501750381010501093009311581257FCD
:1010E00095027508810609381581257F95017508D7
:1010F0008106050C0A38021581257F950175088146
:1011000006C0C005010906A101050719E029E71578
:101110000025019508750181029501750881010579
:10112000081901290595057501910295017503912D
:10113000010507190029FF150026FF00950675080F
:101140008100C00011241FBECFEFD0E2DEBFCDBFB3
:1011500004B603FE27C080917B0290917C02A0918F
:101160007D02B0917E028730904BA740B04BD1F406
:1011700010927B0210927C0210927D0210927E02ED
:1011800014BE84B7877F84BF0FB6F894A89580916A
:101190006000886180936000109260000FBEE0E004
:1011A000F8EF099511E0A0E0B1E0E8E2FFE400E02B
:1011B0000BBF02C007900D92AE33B107D9F722E002
:1011C000AEE3B1E001C01D92AB37B207E1F70E9478
:1011D0009C200C9466270C94000090E080E0089519
:1011E0000895089581E00895089581E008950C948C
:1011F000F2080E94A4122FEF84E39CE0215080406B
:101200009040E1F700C000000C94D71AEF92FF92D3
:101210000F931F93CF93DF938C01FC01E080F1804B
:1012200080918A01811140C082818823C1F1C70168
:101230000E942918C82F682FC7010E94D217B70132
:101240008C2F0E943E0AEC01B8010E94F708882307
:1012500009F44BC0B801CE010E94470C882309F461
:1012600044C0C531F0E7DF0720F5C23080E7D8077A
:1012700008F04DC0C115E0E7DE0791F1C130D0475D
:10128000E1F181E08093400180934101C801DF9149
:10129000CF911F910F91FF90EF900C94F508C7012B
:1012A0000E940018C82FCBCFC7010E942918B70190
:1012B000C8CFCC3380E7D80709F49BC0CD33D047E3
:1012C00001F7F8018281882309F4BAC01092410124
:1012D0000E94831A90933F0180933E0180E296C062
:1012E000F801828181110E94F90880E0DF91CF919D
:1012F0001F910F91FF90EF900895F801828188234C
:10130000A1F380913B02816080933B02EECFF80114
:101310008281882309F4BACF0E94E419811102C0A6
:101320000E94CA190E94011A90E090936D02809366
:101330006C02FE01E350F04780916C028160E23163
:10134000F10538F4E859F84D0C94132780916C029C
:10135000826080936C0280916C020E94051A0E9448
:10136000A412C3CF80916C028460F3CF80916C0291
:101370008860EFCF80916C028061EBCF80916C022E
:101380008062E7CF80916C028064E3CF80916C0231
:101390008068DFCF80916C028C60DBCF80916C0223
:1013A0008E7FD7CF80916C028D7FD3CF80916C02DE
:1013B0008B7FCFCF80916C02877FCBCF80916C02E7
:1013C0008F7EC7CF80916C028F7DC3CF80916C02DE
:1013D0008F7BBFCF80916C028F77BBCF80916C02E7
:1013E000837FB7CF90916C02892F97FB87F9805844
:1013F000B0CFF8018281882361F0109240010E94F1
:10140000831A90933F0180933E0182E00E9409106D
:101410006CCF8091400181110FC080913E0190916D
:101420003F010E948F1A883C910530F486E20E94A9
:10143000DE0E86E20E94BA0F82E00E94101055CFA5
:101440008091410181110FC080913E0190913F0137
:101450000E948F1A883C910530F487E20E94DE0ECC
:1014600087E20E94BA0F80E2E8CF0C94960C0C94AD
:10147000980C0C94F4080C94390A0895972F70E096
:101480002FE0929F600D711D1124FB0198E7899F49
:10149000E00DF11D1124EE0FFF1FE856FF4F85915F
:1014A00094910895FC01EE0FFF1FE856F04F8591CF
:1014B000949108950E943E0A0E94CB0B9C018115D5
:1014C00040E4940708F097C0211580E3380708F03E
:1014D000FAC0203E310508F074C0203C310508F008
:1014E000E5C0283A310588F4253A310508F0E2C014
:1014F0002130310509F477C0C9010497813A91057B
:1015000008F471C030E020E06EC0C901885A91092A
:101510004597C0F7283A310509F4FEC0293A31054C
:1015200009F4FDC02A3A310509F4FCC02B3A310513
:1015300009F4FBC02C3A310509F4FAC02B3B310504
:1015400009F4F9C02C3B310509F4F8C02D3A3105F6
:1015500009F4F7C0203B310509F4F6C02E3A3105F5
:1015600009F4F5C02F3A310509F4F4C0213B3105E7
:1015700009F4F3C0223B310509F4F2C0233B3105E5
:1015800009F4F1C0243B310509F4F0C0253B3105D5
:1015900009F4EFC0263B310509F4EEC0273B3105C5
:1015A00009F4EDC0283B310509F4ECC0293B3105B5
:1015B00009F4EBC02A3B310509F4EAC020E034E429
:1015C00012C0211590E2390780F42F3F310509F050
:1015D00050F4283E310538F0C901805F910930652B
:1015E000409708F08FCFC9010895C9019F700E94EC
:1015F000520A9C01F8CF8115944508F041C021158D
:1016000083E5380708F06AC0211592E5390738F5F7
:10161000211541E5340708F05CC0211580E5380745
:1016200008F454C0C90134E0969587953A95E1F7DE
:101630008370422F46954695437090E2499FA001E2
:101640001124582B822F837021E030E002C0220F3A
:10165000331F8A95E2F7242B352B3C68C4CFC90190
:101660008370992741E050E002C0440F551F8A95CE
:10167000E2F72695269580E2289F90011124EBCF72
:10168000211596E5390748F4922F8827211535450D
:10169000C8F59C01246F306AA6CFC90190563F70EF
:1016A0008115904108F02ECF30629DCFC901805C3A
:1016B00091099DCF253A310549F1263A310549F581
:1016C00022E830E490CF3327306C8DCF3F70306A02
:1016D0008ACF322F2227216F306A85CFC9018370CC
:1016E000992741E050E002C0440F551F8A95E2F768
:1016F0002695269580E2289F90011124242B352BD6
:101700003A6871CF88279F719C01CECF21E830E4E1
:101710006ACF23E830E467CF22EE34E464CF29EEC9
:1017200034E461CF2AEE34E45ECF25EB34E45BCFC2
:1017300026EB34E458CF23EB34E455CF24EB34E4E8
:1017400052CF27EB34E44FCF2CEC34E44CCF2DECCC
:1017500034E449CF23E835E446CF2AE835E443CFE3
:1017600022E935E440CF24E935E43DCF21E236E4F7
:101770003ACF23E236E437CF24E236E434CF25E211
:1017800036E431CF26E236E42ECF27E236E42BCF03
:101790002AE236E428CF803E910581F1C8F48133F6
:1017A000910509F462C048F48932910509F456C0E4
:1017B0008A32910509F460C0089589339105B9F022
:1017C00082389105A1F08533910509F440C0089550
:1017D000863E910561F138F4823E9105B1F0833E79
:1017E0009105E1F00895873E910551F1089520910A
:1017F0006C022370D9F080EE90E0089520916C0285
:1018000020FF14C089E390E0089520916C0222FF2C
:101810000DC024FD09C083EE90E0089520916C0274
:1018200022FD31C024FF02C090E080E008952091A5
:101830006C0223FFFBCF24FDF7CF87EE90E00895E5
:1018400020916C0223FFEECF86EE90E00895209168
:101850006C0225FFEBCF89E290E0089520916C02A5
:1018600025FFE4CF85E390E0089520916C0226FFE8
:10187000DDCF8AE290E0089520916C0226FFD6CF5A
:1018800081E390E0089582EE90E0089508950F932B
:101890001F93CF938C01FB018281811106C0C1E0AF
:1018A0008C2FCF911F910F910895C0914F01C111BD
:1018B00025C00531104799F70E94460C81E08093BE
:1018C0004F010E94831A90934E0180934D01109214
:1018D000420110924401109243011092460110926D
:1018E0004501109248011092470110924A0110924E
:1018F000490110924C0110924B01D2CF80914D01C1
:1019000090914E010E948F1A883C910540F680917B
:101910004201E82FF0E0EE0FFF1FED5BFE4F118359
:1019200000838F5F80934201C0E0BACF0C94F0082F
:101930000C94F10885B7806885BF85B7806885BF3E
:10194000A2E2B1E061E070E08D91E82FE295EF70E6
:10195000F0E041A18F709B0101C0220F8A95EAF748
:10196000922F9095942391A382A1822B82A381E050
:10197000AA32B80749F7A3E1B1E061E070E08D91C8
:10198000E82FE295EF70F0E041A18F709B0101C05C
:10199000220F8A95EAF7922F9095942391A382A122
:1019A000822B82A381E0A232B80749F7E0E6F1E09A
:1019B000A0E5B1E080E791E0119211921D921D9295
:1019C0008E179F07C9F70C94350A2F923F924F92BA
:1019D0005F926F927F928F929F92AF92BF92CF92BF
:1019E000DF92EF92FF920F931F93CF93DF9300E567
:1019F00011E082E2C82E81E0D82E1801EE24E39493
:101A0000F12C66246394D1018D909D901D011E924E
:101A10001E92E60189916E01E82FE295EF70F0E0E9
:101A200091A18F70970101C0220F8A95EAF7892F43
:101A3000822B81A382A1722E7094872182A3D0EA87
:101A4000DA95F1F763E171E090E080E0EB01599005
:101A5000BE01452D42954F7050E0EA0148A0AD907F
:101A6000BC901197552D5F70E70102C0CC0FDD1FB0
:101A70005A95E2F7AE01442109F059C0A701082E9A
:101A800002C0440F551F0A94E2F74A295B291196B8
:101A90005C934E9301968F309105C1F681A1782217
:101AA00071A282A1282B22A38D919C918816990660
:101AB00041F0609270010E94831A909372018093AA
:101AC0007101D0E62D16D1E03D0609F09CCF809142
:101AD00070018823B1F080917101909172010E9490
:101AE0008F1A069770F0E0E6F1E0D8018D919D9194
:101AF0008D0181939193B1E000361B07B1F71092ED
:101B000070010E94370A81E0DF91CF911F910F9100
:101B1000FF90EF90DF90CF90BF90AF909F908F900D
:101B20007F906F905F904F903F902F90089550E07E
:101B300040E0ABCFE82FF0E0EE0FFF1FE05AFE4F82
:101B40008081918108950895909378018093770121
:101B50000895E0917701F0917801309721F001909C
:101B6000F081E02D099480E00895E0917701F091F3
:101B70007801309721F00280F381E02D09940895D7
:101B8000E0917701F0917801309721F00480F581A0
:101B9000E02D099408952091750130917601281760
:101BA000390771F09093760180937501E091770188
:101BB000F0917801309721F00680F781E02D0994AB
:101BC000089520917301309174012817390771F03D
:101BD0009093740180937301E0917701F091780103
:101BE000309721F00084F185E02D0994089508953F
:101BF0000C94F70D0E947A1A0E949A0C0C94441BC4
:101C00005F926F927F928F929F92AF92BF92CF928C
:101C1000DF92EF92FF920F931F93CF93DF9300D049
:101C200000D00F92CDB7DEB70E94E50C9AE7A92E3F
:101C300091E0B92E10E000E088248394912C502E7E
:101C4000802F0E949A0D7C01F501C190D1905F0117
:101C5000C816D90609F45DC080913B0281FD0E943F
:101C6000A30D90E080E0CE24DF243401082E02C0D2
:101C7000660C771C0A94E2F7960126213721232B64
:101C800009F442C089835A82E620F72081E0EF28D8
:101C900009F480E08B830E94831A8160782F9D83F2
:101CA0008C8349815A816B818D810E94B50E000F12
:101CB000111FF801E658FE4F808191816826792630
:101CC000718260820E94F11D0E94A90D909179019C
:101CD0008917B1F10E94A90D809379010F900F909F
:101CE0000F900F900F90DF91CF911F910F91FF9068
:101CF000EF90DF90CF90BF90AF909F908F907F90AC
:101D00006F905F900C943B0A01968F30910509F01B
:101D1000ACCF0F5F1F4F0830110509F090CF8FEF48
:101D200089838A831B820E94831A8160782F9D8316
:101D30008C8349815A816B818D810E94B50EC2CFFF
:101D40000F900F900F900F900F90DF91CF911F91F8
:101D50000F91FF90EF90DF90CF90BF90AF909F904A
:101D60008F907F906F905F900895CF93DF93CDB762
:101D7000DEB72B970FB6F894DEBF0FBECDBF4F83F3
:101D8000588769877A878B871E8285E0FE013796A0
:101D9000DE01119601900D928A95E1F749815A81F1
:101DA0006B817C818D819E812B960FB6F894DEBF6E
:101DB0000FBECDBFDF91CF910C942C15882309F471
:101DC000D8C0823871F40E94A90D81FDD2C089E388
:101DD0000E94D1180E949B1989E30E940E190C944D
:101DE0009B19833859F40E94A90D80FDC2C083E578
:101DF0000E94D1180E949B1983E5EFCF843859F4D3
:101E00000E94A90D82FDB5C087E40E94D1180E94EE
:101E10009B1987E4E2CF9CEF980F913A18F40E9447
:101E2000D118DDCF90E2980F983050F4877091E090
:101E300001C0990F8A95EAF7892F0E945219CFCFD6
:101E40009BE5980F933070F4853A31F0863A39F07B
:101E500083E890E00C94CB0D81E890E0FBCF82E822
:101E600090E0F8CF98E5980F953108F082C0883A55
:101E700009F440C0893A09F440C08A3A09F440C0E4
:101E80008B3A09F440C08C3A09F440C08B3B09F40A
:101E900040C08C3B09F440C08D3A09F440C0803BFF
:101EA00009F440C08E3A09F440C08F3A09F440C0AA
:101EB000813B09F440C0823B09F440C0833B09F4F4
:101EC00040C0843B09F440C0853B09F440C0863BD8
:101ED00009F440C0873B09F440C0883B09F440C086
:101EE000893B09F440C08A3B09F440C090E080E09F
:101EF0000C94E10D82EE90E0FBCF89EE90E0F8CFFC
:101F00008AEE90E0F5CF85EB90E0F2CF86EB90E0A3
:101F1000EFCF83EB90E0ECCF84EB90E0E9CF87EB61
:101F200090E0E6CF8CEC90E0E3CF8DEC90E0E0CF5A
:101F300083E891E0DDCF8AE891E0DACF82E991E0B1
:101F4000D7CF84E991E0D4CF81E292E0D1CF83E290
:101F500092E0CECF84E292E0CBCF85E292E0C8CF90
:101F600086E292E0C5CF87E292E0C2CF8AE292E0B9
:101F7000BFCF0895882309F44BC0823871F40E94C2
:101F8000A90D81FF45C089E30E94D1180E949B19C9
:101F900089E30E940E190C949B19833859F40E940E
:101FA000A90D80FF35C083E50E94D1180E949B19BE
:101FB00083E5EFCF843859F40E94A90D82FF28C031
:101FC00087E40E94D1180E949B1987E4E2CF9CEF1E
:101FD000980F913AF0F290E2980F983050F4877091
:101FE00091E001C0990F8A95EAF7892F0E9458194C
:101FF000D2CF9BE5980F933020F490E080E00C94D2
:10200000CB0D885A853120F490E080E00C94E10DEE
:102010000895882321F00E9452190C949B19089569
:10202000882321F00E9458190C949B1908958F92CF
:102030009F92AF92BF92DF92EF92FF920F931F9306
:10204000CF93DF9300D000D00F92CDB7DEB77C01E5
:102050006D837983FC01058102950F701281111146
:102060000E9471190E94CA18D82E882371F011237A
:10207000A1F08D81805E883080F082E00E94B418EB
:102080000E94CA1891E0D82ED926E981E295EF7016
:10209000F0E0E658F84D0C941327D12CF6CF0981C7
:1020A0000F70F981F07F11F00295007F1123B1F0DC
:1020B000002361F08D81805E883018F02D81211120
:1020C00009C0802F0E9452190E949B198D810E9485
:1020D000DE0E15C0802F0E946319F6CF8D810E94FD
:1020E000BA0F002361F08D81805E883018F03D8149
:1020F000311129C0802F0E9458190E949B19DD20A0
:1021000009F4D3C10E94A71880FDCFC1F701128244
:102110000E94A1180E94EA16C7010E9466120E943E
:10212000A1180F900F900F900F900F90DF91CF910B
:102130001F910F91FF90EF90DF90BF90AF909F9015
:102140008F900C940C17802F0E946919D6CF49816B
:102150004F70B42E5981507F503219F0B29480EFF5
:10216000B8228D81882369F0813029F1112369F12A
:10217000002359F0F701858180FFA8CF8F708583F8
:1021800004C0112361F0011104C08B2D0E940910BD
:10219000B6CF8B2D0130D1F70E948519B0CF011138
:1021A00006C00E9488198B2D0E941010A8CF013004
:1021B00009F4A5CFF6CF112321F0063008F09FCF08
:1021C000E4CF053008F09BCFEECF002361F38D8183
:1021D0000E94BA0F94CF898186958695837069F0A5
:1021E000813009F08CCF8D8199819370111102C0DB
:1021F00090E080E00E94E10D82CF8D819981937003
:10220000111102C090E080E00E94CB0D78CF8D814B
:10221000112329F00E94FF1C0E94E61D70CF0E942E
:10222000671DFACF8981837009F05FC0111167CFF4
:102230002D81229526952770220F220F8D818F7078
:1022400090E0B0E0A0E04C015D01022E04C0880CDB
:10225000991CAA1CBB1C0A94D2F7FD8160E070E0B7
:10226000CB01F4FF0FC06FE070E080E090E004C0AD
:10227000660F771F881F991F2A95D2F76095709572
:102280008095909529812695269523702D8322305F
:10229000B1F0233019F19B01AC01282939294A29D1
:1022A0005B2929833A834B835C833D8169817A81F1
:1022B0008B819C813130B1F00E94771620CF9B0139
:1022C000AC01282939294A295B2929833A834B8380
:1022D0005C83CA01B9010E94A11611CF0E94771632
:1022E000C501B4010E944D160ACF8695112311F045
:1022F00089818170882309F402CF2D81229526954A
:102300002770220F220F8D818F7090E0B0E0A0E047
:102310004C015D01022E04C0880C991CAA1CBB1C38
:102320000A94D2F73D8160E070E0CB0134FF0FC02A
:102330006FE070E080E090E004C0660F771F881FB8
:10234000991F2A95D2F7609570958095909549814F
:102350004695469543704D834230B1F0433019F1B4
:102360009B01AC01282939294A295B2929833A8311
:102370004B835C833D8169817A818B819C81313083
:10238000B1F00E947D17BBCE9B01AC0128293929F1
:102390004A295B2929833A834B835C83CA01B901AB
:1023A0000E94A717ACCE0E947D17C501B4010E9400
:1023B0005317A5CE3D81323F09F447C080F4303F2A
:1023C00079F1313FD9F1832F805E8031D0F0112334
:1023D00009F456C001117ACE89818F7133C04D81C5
:1023E000433FD1F1443F99F7112309F43FC089815C
:1023F0008F7189830E94EA1663E089810E94AB187D
:102400007ECE5D815F705D8389818F71112321F0A4
:102410000E94EA168D81BACE0E940C178D81C4CE1F
:10242000112341F0053008F06ACE89818F710E9436
:10243000311765CE063008F062CEF7CF89818F71F3
:10244000112339F00E94EA165ACE89818F71112327
:10245000C9F30E940C1753CE112329F089818F7183
:102460000E94D5164CCE0E94CB1649CE81E00E9428
:10247000B418023008F443CE82E00E94B4183FCE74
:102480000111A5CE89818F71E4CF49814F706D8193
:10249000C7010E94ED080E94C61531CE49814F70D8
:1024A0006D81C7010E943D0A2ACE0F900F900F90B8
:1024B0000F900F90DF91CF911F910F91FF90EF90B0
:1024C000DF90BF90AF909F908F9008950F931F93D0
:1024D000CF93DF93EC018B819C81892B29F088813C
:1024E000998189238F3F29F4DF91CF911F910F911B
:1024F0000895CE010E9406098823B1F3688179818D
:102500008A810E9477188C010E94D1170E9442167E
:10251000B801CE01DF91CF911F910F910C9417104C
:102520000E9471190E9482190E9444190E949B19ED
:102530000E94D71E0E94E61D90E080E00E94CB0D15
:1025400090E080E00C94E10D0E9460190C949012D0
:102550000E946B18282F892F82958F70903C80F4F1
:102560008A30B0F4843020F4823090F480E0089512
:102570008630E1F781E0203E88F0213FB9F70EC0B8
:102580008C3011F08F3091F793FB882780F90895F4
:1025900081E0203F39F018F4203E40F70895243FB1
:1025A00029F7FCCF0895CF93DF9300D000D00F928E
:1025B000CDB7DEB70F900F900F900F900F90DF9177
:1025C000CF910895CF93DF9300D000D000D0CDB746
:1025D000DEB726960FB6F894DEBF0FBECDBFDF91F3
:1025E000CF9108951F93CF93DF93E0918B0116E075
:1025F00080918C018E1304C0DF91CF911F910895BB
:10260000CE2FD0E01E9FF0011124E357FE4F4081F2
:10261000518162817381848195810E94E212FE0161
:102620003196E770E5CF4091BD015091BE016091B8
:10263000BF017091C0018091C1019091C2010C94C1
:10264000E2121F93CF93DF938091C201807FC1F488
:102650008091BF018823A1F080918B01C0918C01F2
:102660006091BD017091BE014091C0015091C101C6
:10267000D62FD723DA01A095B09516E0C81304C071
:10268000DF91CF911F91089590E04115510511F010
:10269000DF3F31F401968770F1CF2A0F3B1F17C03F
:1026A000189FF001199FF00D1124E357FE4F21816F
:1026B0002713F0CF20812613EDCF22812111EACFFD
:1026C000238134812417350740F3241B350B283C24
:1026D000310500F72091C2012F7020612093C201C3
:1026E00026E0289FF001299FF00D1124EE56FE4FA1
:1026F00080818F70806180838DEB91E00E946612F3
:10270000DF91CF911F910C94F2129F92AF92BF92E2
:10271000CF92DF92EF92FF920F931F93CF93DF93AD
:10272000CDB7DEB72B970FB6F894DEBF0FBECDBF87
:102730008C0185E0F801DE01179601900D928A95D3
:10274000E1F7D8014C9111965C9111971296EC909B
:1027500012978091C0019091C101009709F46BC15B
:102760002091BD013091BE01632F62236F3F09F4B8
:1027700062C11396CD90DC909090BF01992009F42E
:10278000F8C0C816D90608F43FC0F601E81BF90BDB
:10279000CF01FF24F394883C910508F0F12C8DEBD8
:1027A000A82E81E0B82E8091C201982F907FFF2043
:1027B00009F4B7C0911180C0FE2C35132AC0241330
:1027C00028C0E11026C08F7080618093C2010E94F2
:1027D0001313C5010E9466128091C201D80115969B
:1027E0008C938F2D2B960FB6F894DEBF0FBECDBF06
:1027F000DF91CF911F910F91FF90EF90DF90CF90DD
:10280000BF90AF909F900895809590958C0D9D1DE1
:10281000C0CFCD2829F0842F85238F3F09F019C11F
:1028200080E0B82FB170DB2EE0918B0120918C01FC
:1028300036E080FD1CC0EE20A1F28091C2018160D3
:102840008093C201F12CCDCF8E2F90E03E9FF001FE
:102850001124E357FE4F6181651306C06081641344
:1028600003C062816E11E7CFFC013196E770E2137D
:10287000EBCF4F8358878F8198850E946B18292F43
:1028800022952F70903260F0225F2F70223078F402
:102890009F7051F0F8019581907F31F4D12C0AC0DE
:1028A0009F7011F08823D1F3805E8830B8F3C8019F
:1028B0000E946612FD2C95CF351306C0241304C068
:1028C000D801EE2009F47BC04F8358878F8198850B
:1028D0000E94A812882309F4B8C0EE2009F4B5C0FC
:1028E0008091C201803270F02091BD013091BE0113
:1028F0003A8329831B82DD82CC828E83CE010196AE
:102900000E94661286E0F801ADEBB1E001900D92F5
:102910008A95E1F70E9421130E941313FF24F39478
:1029200060CF911113C07C2DDB86CA866E2D8B85FE
:102930000E94D3128DEB91E00E94661286E0F501B1
:1029400011928A95E9F70E9413134BCF3513BCCF30
:102950002413BACFE110B8CFD80115968C93C801D3
:102960000E94661286E0F50111928A95E9F7F92C2A
:1029700038CFC816D90688F1B601681B790BCB0190
:10298000F12C883C910508F047C0FE2CEE2009F49C
:102990005CC0351330C024132EC08091C20180FD6D
:1029A00021C0982F907FF1F0D80115968C93159740
:1029B000903F39F0982F907F905F8F70892B1596FC
:1029C0008C93C8010E94661286E0F801ADEBB1E07D
:1029D00001900D928A95E1F7B6CF809590958C0D78
:1029E0009D1DCECF86E0F801ADEBB1E001900D92D8
:1029F0008A95E1F7F6CE4F8358878F8198850E949C
:102A0000A81281117FCF8091C20181608093C201A1
:102A1000C8010E946612E5CE7C2DDB86CA866E2D2B
:102A20008B850E94D31286E0EDEBF1E0DF011D9271
:102A30008A95E9F788CFEE2041F04F8358878F8140
:102A400098850E94A81281115DCFC8010E9466126C
:102A500065CF81E08E25E5CE1F93CF93DF93CDB771
:102A6000DEB72C970FB6F894DEBF0FBECDBF4F83F5
:102A7000588769877A878B879C87CE0107960E9443
:102A80008513882369F08A859B85892B39F04F81CE
:102A90005885842F85238F3F09F071C016E05FC0F1
:102AA00086E0FE013796DE01119601900D928A951F
:102AB000E1F78A859B85892B89F388859F81892306
:102AC0008F3F61F320918C0130E0C901019687703E
:102AD000992740918B014817190671F40E94A4129E
:102AE00010928C0110928B0186E0EDEBF1E0DF019A
:102AF0001D928A95E9F7D2CF96E0929FD001939FDD
:102B0000B00D1124A357BE4FFE01319601900D92D6
:102B10009A95E1F780938C010E94F212BFCF819FBA
:102B2000C001112483579E4F0E9485138823E9F02A
:102B3000E0918B011E9FF0011124E357FE4F40816D
:102B4000518162817381848195810E94E21280911A
:102B50008B0190E001968770992780938B0180917B
:102B60008B0190918C018913DACF2C960FB6F894D3
:102B7000DEBF0FBECDBFDF91CF911F910895698554
:102B80007A858B859C850E94E21288CFEF92FF9216
:102B90000F931F93CF93DF938C01892B89F0F12C36
:102BA000EE24E394E8012196F8018491843709F436
:102BB00057C0A0F4823009F43EC048F48130D1F00F
:102BC000DF91CF911F910F91FF90EF9008959CEFAF
:102BD000980F9037A8F70E94DE0E0AC0853709F4D7
:102BE0004CC09CE7980F903758F78F770E94BA0F28
:102BF0008E0116C00E5F1F4FFE01849190E2980F68
:102C0000983060F48770FE2D01C0FF0F8A95EAF7B7
:102C10008F2F0E9474190E949B1902C00E94DE0E21
:102C20008F2D815008F4BECFEFE9FFE03197F1F727
:102C300000C00000F6CF0E5F1F4FFE01849190E2AE
:102C4000980F983050F48770FE2D01C0FF0F8A95C1
:102C5000EAF78F2F0E947A19DECF0E94BA0FE0CFD9
:102C60000E5F1F4FFE01C491C150D0F28FE99FE06B
:102C70000197F1F700C00000F7CF0E5F1F4FFE0174
:102C8000F490CECF08956093120270931302809354
:102C90001402909315020C949012CF93DF9300D0FE
:102CA00000D0CDB7DEB769837A838B839C83809114
:102CB000120290911302A0911402B0911502298181
:102CC0003A814B815C81822B932BA42BB52B809373
:102CD000120290931302A0931402B09315020F9066
:102CE0000F900F900F90DF91CF910C949012CF9393
:102CF000DF9300D000D0CDB7DEB769837A838B83B2
:102D00009C838091120290911302A0911402B091C1
:102D1000150229813A814B815C8182239323A4236C
:102D2000B5238093120290931302A0931402B093E0
:102D300015020F900F900F900F90DF91CF910C9490
:102D40009012CF93DF9300D000D0CDB7DEB7698368
:102D50007A838B839C838091120290911302A091BD
:102D60001402B091150229813A814B815C8182273E
:102D70009327A427B5278093120290931302A09360
:102D80001402B09315020F900F900F900F90DF91E7
:102D9000CF910C94901210920E0210920F0210928A
:102DA0001002109211020C94901241E050E060E089
:102DB00070E004C0440F551F661F771F8A95D2F735
:102DC00040930E0250930F02609310027093110211
:102DD0000C949012282F81E090E0A0E0B0E004C0B5
:102DE000880F991FAA1FBB1F2A95D2F740910E0288
:102DF00050910F026091100270911102842B952B5B
:102E0000A62BB72B80930E0290930F02A093100273
:102E1000B09311020C94901241E050E060E070E039
:102E200004C0440F551F661F771F8A95D2F740953F
:102E300050956095709580910E0290910F02A0912F
:102E40001002B091110284239523A623B723809307
:102E50000E0290930F02A0931002B09311020C94F3
:102E60009012282F81E090E0A0E0B0E004C0880F2D
:102E7000991FAA1FBB1F2A95D2F740910E025091AD
:102E80000F02609110027091110284279527A627E6
:102E9000B72780930E0290930F02A0931002B09375
:102EA00011020C949012CF93DF9300D000D0CDB7D5
:102EB000DEB769837A838B839C8380910E02909125
:102EC0000F02A0911002B091110229813A814B8129
:102ED0005C81822B932BA42BB52B80930E029093B5
:102EE0000F02A0931002B09311020F900F900F9059
:102EF0000F90DF91CF910C949012CF93DF9300D07D
:102F000000D0CDB7DEB769837A838B839C838091B1
:102F10000E0290910F02A0911002B091110229812E
:102F20003A814B815C8182239323A423B523809330
:102F30000E0290930F02A0931002B09311020F9013
:102F40000F900F900F90DF91CF910C949012CF9330
:102F5000DF9300D000D0CDB7DEB769837A838B834F
:102F60009C8380910E0290910F02A0911002B0916B
:102F7000110229813A814B815C8182279327A42702
:102F8000B52780930E0290930F02A0931002B09386
:102F900011020F900F900F900F90DF91CF910C9432
:102FA00090120895E82F2FE0929FE00D11248E2FAC
:102FB000877041E001C0440F8A95EAF7E695E695EF
:102FC000E69585E0E89FF0011124ED53FE4F30E0D7
:102FD00020E070E05191DF011197CB01022E02C079
:102FE000969587950A94E2F78170819585278423C9
:102FF00085278C932F5F3F4F2530310559F7089572
:10300000E82F2FE0929FE00D11249E2F9770E695F8
:10301000E695E69585E0E89FF0011124ED53FE4F1B
:1030200050E040E080E0219130E0092E02C036956A
:1030300027950A94E2F721703327042E01C0220F4E
:103040000A94EAF7822B4F5F5F4F4530510559F7DD
:103050000895BF92CF92DF92EF92FF920F931F934A
:10306000CF93DF938C01C0900E02D0900F02E090BE
:103070001002F09011028091120290911302A0911F
:103080001402B0911502C82AD92AEA2AFB2ACFE1F4
:10309000D0E0BC2ED701C6010C2E04C0B695A79572
:1030A000979587950A94D2F780FD0EC0219788F7EF
:1030B000B12C8B2DDF91CF911F910F91FF90EF904D
:1030C000DF90CF90BF900895B8018C2F0E945A0ACC
:1030D000019761F3EECFCF93DF93D82FC92F0E94D2
:1030E00029186D2F7C2FDF91CF910C945A0A1F93D2
:1030F000CF93DF93162FD72F90918A01992339F020
:10310000862F972FDF91CF911F910C946B188823F6
:1031100091F0862F972F0E942918C82F682F812F92
:103120009D2F0E94D217612F7D2F8C2FDF91CF9181
:103130001F910C945A0A862F972F0E940018C82FAF
:10314000F2CF809116028595859585950895809199
:1031500016028770089598E0899F90011124622BD0
:10316000609316020C94EA169091160280958923BA
:1031700080931602282F277061F4282F082E000C48
:10318000330B9217130629F08595859585950C9438
:103190000C17089590911602977081E009F480E071
:1031A0000895909112019923E1F090916C0297FF9C
:1031B00018C0E82FE695E695E695EF3139F12091B4
:1031C000000130910101E20FF32FF11D877021E022
:1031D00030E001C0220F8A95EAF78181822B81833A
:1031E00008952091000130910101F90132969FEF7D
:1031F00040E05191851751F09F3F19F4511101C0E2
:10320000942F4F5F4E31A9F79F3F09F40895290F7E
:10321000311D97FD3A95F90182830895909112012D
:10322000992301F190916C0297FF1CC0E82FE6955D
:10323000E695E695EF3139F12091000130910101D9
:10324000E20FF32FF11D877021E030E0A90102C0E9
:10325000440F551F8A95E2F7CA0180959181892311
:10326000818308952091000130910101F901329686
:10327000205E3F4F9191891303C0DF0111971C928B
:10328000E217F307B9F7089581E090E0E0910001BB
:10329000F0910101E80FF91F10820196803291052B
:1032A000A9F7089590913A02982B90933A020895C5
:1032B000982F909580913A02892380933A0208953D
:1032C00010923A02089590913902982B9093390206
:1032D0000895982F9095809139028923809339021F
:1032E000089510923902089590913802982B909386
:1032F00038020895982F9095809138028923809301
:1033000038020895109238020895809317020895A4
:103310001092170208952091000130910101F901E6
:103320003196205E3F4F80E0919191118F5FE217BF
:10333000F307D1F70895E0910001F0910101809128
:103340003A028083E0910001F09101018081909127
:103350003902892B8083E0910001F0910101808185
:1033600090913802892B808390911702992361F004
:10337000E0910001F09101018081892B80830E94FE
:103380008B19811110921702809100019091010117
:103390000C94B50D6DEE7EEF90E080E00E9450271A
:1033A00060E082E090E00E943E2760E083E090E0F1
:1033B0000E943E2760E084E090E00E943E2760E0AB
:1033C00085E090E00C943E2790E080E00E94382752
:1033D0009C0181E02D3E3E4F09F080E0089582E09F
:1033E00090E00C943027682F82E090E00C943E2708
:1033F00083E090E00C943027682F83E090E00C94F9
:103400003E2784E090E00C943027682F84E090E021
:103410000C943E2780917202843039F110923C0264
:1034200088E190E020E40FB6F894A89580936000BE
:103430000FBE2093600080E00E943B0A83B7817F2B
:10344000846083BF83B7816083BF7894889583B796
:103450008E7F83BF0FB6F894A89580916000886135
:1034600080936000109260000FBE08950895089543
:10347000CF930E94361A0E94E50C0E94371AC0E0D2
:103480008C2F0E949A0D892B31F4CF5FC830C1F781
:1034900080E0CF91089581E0FCCF0E94A4120E94A9
:1034A000A90D0C943B0A1F921FB61F9211248F93F3
:1034B0009F93AF93BF9380913C02811113C0809181
:1034C000680290916902A0916A02B0916B024196E4
:1034D000A11DB11D8093680290936902A0936A02B6
:1034E000B0936B02BF91AF919F918F911F901FBEC0
:1034F0001F90189582E084BD93E095BD9AEF97BD2B
:1035000080936E0008952FB7F8948091680290918F
:103510006902A0916A02B0916B022FBF0895CF9209
:10352000DF92EF92FF929C014FB7F894809168026E
:1035300090916902A0916A02B0916B024FBF6C0139
:103540007D01EE24FF24A90170E060E0C416D506D9
:10355000E606F70638F0821B930BFF90EF90DF90A2
:10356000CF9008950197F7CF1F921FB61F92112495
:103570008F939F93AF93BF9380916802909169025C
:10358000A0916A02B0916B020196A11DB11D8093BA
:10359000680290936902A0936A02B0936B02BF9194
:1035A000AF919F918F911F901FBE1F9018950E9401
:1035B000CB22F8942FEF87EA91E62150804090408B
:1035C000E1F700C0000087E090EBDC0180937B0214
:1035D00090937C02A0937D02B0937E0288E19CE0F0
:1035E0000FB6F894A895809360000FBE909360008A
:1035F000FFCFAF92BF92CF92DF92EF92FF920F93E5
:103600001F93CF93C0E0AA24A394B12CE82EF12CF1
:103610008C2F0E949A0D6C0110E000E0C501002E75
:1036200002C0880F991F0A94E2F78C219D21892BF3
:1036300099F0602F7C2F80E00E943E0AE816F90680
:1036400059F481E0CF911F910F91FF90EF90DF909F
:10365000CF90BF90AF9008950F5F1F4F0F301105AF
:10366000E9F6CF5FC830A1F680E0ECCFCF93C82F4A
:103670008CE20E94F91A882321F08C2FCF910C94B0
:10368000F91A80E0CF910895CF93DF9300D000D056
:10369000CDB7DEB70E94E419811102C00E94CA1999
:1036A00095E6998308C00E94E50C8FE39CE9019799
:1036B000F1F700C00000A981A150A983A111F3CFA7
:1036C00089E20E94361B811110C18AE20E94361BDA
:1036D00081110E94CA1985E00E94361B81110E9447
:1036E000D71A0E94EF1980933B0287E00E94361B95
:1036F000882371F08BE10E94361B882309F4D1C026
:1037000090913B02892F8D7F91FF826080933B02D5
:1037100080913B020E94F3190E94011A90E090935D
:103720006D0280936C0280EE0E94361B882341F06C
:1037300090916C02892F8E7F90FF816080936C0244
:1037400089E30E94361B882341F090916C02892FF7
:103750008D7F91FF826080936C0282EE0E94361B07
:10376000882341F090916C02892F8B7F92FF8460B7
:1037700080936C0286EE0E94361B882341F0909164
:103780006C02892F877F93FF886080936C0283EEA1
:103790000E94361B882341F090916C02892F8F7E06
:1037A00094FF806180936C0285E30E94361B88231E
:1037B00041F090916C02892F8F7D95FF80628093FC
:1037C0006C0281E30E94361B882341F090916C02C9
:1037D000892F8F7B96FF806480936C0281E10E9429
:1037E000361B882341F090916C02892F97FB87F953
:1037F000805880936C0280916C020E94051A87E2C7
:103800000E94361B89838EE10E94361B882319F0A3
:10381000B981B260B9838FE10E94361B882319F009
:1038200029812460298380E20E94361B882319F0B5
:1038300039813860398381E20E94361B882319F070
:1038400049814061498382E20E94361B882319F036
:1038500059815062598383E20E94361B882319F0F4
:1038600089818064898384E20E94361B8823B1F1B8
:1038700099819068998389810E94FC193981232F4D
:1038800030E050E040E029833A834B835C83CA01F7
:10389000B9010F900F900F900F90DF91CF910C9482
:1038A00043168EE00E94361B882339F090913B022C
:1038B000892F8B7F92FF846029CF80E10E94361B85
:1038C00090913B02882329F0892F877F93FF88609E
:1038D0001DCF892F8E7F90FF816018CFA981A11104
:1038E000CACF0E94F819282FCBCF0F900F900F90BE
:1038F0000F90DF91CF91089580913F0280FF12C019
:103900006091050185E0689FB00111247595679568
:103910007595679560387105A8F561157105A1F178
:10392000862F089581FF09C06091050185E0689F99
:10393000B001112475956795EDCF6091050182FD69
:103940000AC0809140028823D1F0909104016091D7
:103950000501891728F085E0689FB0011124DACFAE
:10396000869FB001112485E0869F9001879F300DCE
:103970001124692F70E0C9010E94FF26CBCF65E0BA
:1039800070E0CECF8FE7089581E0089580913F02E7
:1039900080FF0CC06091030170E075956795759587
:1039A00067956115710549F1862F089581FF06C05D
:1039B0006091030170E075956795F3CF6091030105
:1039C00082FD0BC0909140029923A1F06091020109
:1039D00080910301961738F0682F70E06038710508
:1039E00000F38FE70895899FC001112470E00E94C1
:1039F000FF26F4CF61E070E0D7CF81E00895803FEB
:103A000031F40E947C1C8195809343020895813F8C
:103A100019F40E947C1CF8CF823F31F40E947C1C78
:103A20008195809342020895833F19F40E947C1C83
:103A3000F8CF893F29F40E94C61C80934402089560
:103A40008A3F21F40E94C61C8195F7CF8B3F31F449
:103A50000E94C61C81958093450208958C3F19F4FD
:103A60000E94C61CF8CF843F31F4809141028160EE
:103A7000809341020895853F21F480914102826044
:103A8000F7CF863F21F4809141028460F1CF873FD8
:103A900021F4809141028860EBCF883F21F480912E
:103AA00041028061E5CF8D3F31F480913F0281601A
:103AB00080933F0208958E3F21F480913F028260FF
:103AC000F7CF8F3FB9F780913F028460F1CF90919B
:103AD0004202803F41F48091430287FD10924302ED
:103AE000992371F00895813F29F4809143021816BB
:103AF000ACF3F6CF823F81F497FFF2CF10924202EF
:103B00008091430290914402892B90914502892B28
:103B100049F7109240020895833F19F4191674F37F
:103B2000DFCF893F39F4809144021816CCF6109209
:103B30004402D6CF8A3F29F48091440287FFD0CF38
:103B4000F6CF8B3F39F48091450287FFC9CF1092A1
:103B50004502C6CF8C3F29F4809145021816BCF36C
:103B6000BFCF843F31F4809141028E7F8093410228
:103B7000B7CF853F21F4809141028D7FF7CF863FFB
:103B800021F4809141028B7FF1CF873F21F4809116
:103B90004102877FEBCF883F21F4809141028F7EE5
:103BA000E5CF8D3F31F480913F028E7F80933F02BD
:103BB00097CF8E3F21F480913F028D7FF7CF8F3FCB
:103BC00009F08ECF80913F028B7FF0CF81E492E0AD
:103BD0000E94C00D0E94831A90933E0280933D0282
:103BE00008951F93CF93DF9300D000D000D0CDB7BE
:103BF000DEB780913D0290913E020E948F1AAC0187
:103C0000809140022091060130E0811106C0209190
:103C100007019AE0299F900111244217530788F069
:103C200020914202A0914302A98310914402B091D5
:103C30004502BE8321110FC09A2F912B9B2B09F0B7
:103C4000B2C026960FB6F894DEBF0FBECDBFDF918F
:103C5000CF911F9108958F3F19F08F5F809340029D
:103C6000121624F40E947C1C80934202809142022E
:103C700087FF05C00E947C1C8195809342022981A8
:103C8000121624F40E947C1C80934302809143020C
:103C900087FF05C00E947C1C819580934302809120
:103CA0004202882309F455C0309143023D833323F7
:103CB00009F44FC0282F880F330B440B550B298371
:103CC0003A834B835C83CA01B9010E94062623E331
:103CD00033E343E35FE369837A838B839C83698166
:103CE0007A818B819C810E946A2669837A838B8387
:103CF0009C8369817A818B819C810E94CE2560930F
:103D000042028D81082E000C990BAA0BBB0B8983F4
:103D10009A83AB83BC83BC01CD010E94062623E3BA
:103D200033E343E35FE369837A838B839C83698115
:103D30007A818B819C810E946A2669837A838B8336
:103D40009C8369817A818B819C810E94CE256093BE
:103D50004302111624F40E94C61C809344028091F1
:103D6000440287FF05C00E94C61C819580934402CF
:103D70009E81191624F40E94C61C809345028091EE
:103D8000450287FF05C00E94C61C819580934502AD
:103D900026960FB6F894DEBF0FBECDBFDF91CF9150
:103DA0001F910C94E61D8F3F09F057CF68CF85E037
:103DB000E1E4F2E0DF011D928A95E9F710924002FA
:103DC00010923F020895809166020895CF93DF9389
:103DD00000D00F92CDB7DEB720917202243019F5D2
:103DE00023E029838A839B832093E9008FEF9091BE
:103DF000E800815095FD06C095ED9A95F1F7000019
:103E00008111F5CF8091E80085FF0DC050E040E0C2
:103E100063E070E0CE0101960E9443218091E800AA
:103E20008E778093E8000F900F900F90DF91CF91E5
:103E30000895CF93DF9300D00F92CDB7DEB79C01EA
:103E400080917202843031F582E0898320583109F3
:103E50003B832A8383E08093E9008FEF9091E80011
:103E6000815095FD06C095ED9A95F1F700008111FE
:103E7000F5CF8091E80085FF0DC050E040E063E0A1
:103E800070E0CE0101960E9443218091E8008E7778
:103E90008093E8000F900F900F90DF91CF910895DD
:103EA000209172022430F1F422E02093E9002FEFF8
:103EB0003091E800215035FD06C035ED3A95F1F717
:103EC00000002111F5CF2091E80025FF0BC050E044
:103ED00040E065E070E00E9443218091E8008E7729
:103EE0008093E8000895CF93DF93D82FC92F809156
:103EF00072028430F1F4909112019923E9F09091CB
:103F00006C0297FF19C08093E9008FEF9091E80051
:103F1000815095FD06C095E19A95F1F70000811159
:103F2000F5CF8091E80050E040E060E270E085FD70
:103F30001AC0DF91CF91089581E08093E9008FEF5F
:103F40009091E800815095FD06C095ED9A95F1F7A6
:103F500000008111F5CF8091E80085FFEACF50E0A5
:103F600040E068E070E08D2F9C2F0E9443218091FB
:103F7000E8008E778093E80080E2ED2FFC2FA6E426
:103F8000B2E001900D928A95E1F7D3CF8091710252
:103F9000811109C00E94CB220E942D238091E20052
:103FA00084608093E200089510927102089508954C
:103FB00008950C944D1A42E061EC81E00E94472282
:103FC00042E061EC82E00E94472242E061EC83E043
:103FD0000E94472242E261EC84E00C9447228091E7
:103FE0007402893089F148F4823009F494C0833036
:103FF00009F44FC0813041F008958A3009F47BC044
:104000008B3009F461C0089580917302813A09F000
:104010003FC08091E800877F8093E800809177021D
:1040200090917802892B61F460E286E492E070E07E
:104030000E9492218091E8008B778093E800089598
:1040400060E090E080E0F3CF80917302813201F56F
:104050008091770290917802009711F00397C1F454
:104060008091E800877F8093E8008091E80082FFDC
:104070000BC08091F100809366028091E8008B77FD
:104080008093E8000C947B22809172028111EDCF25
:10409000089580917302813AD9F7809177029091C7
:1040A0007802892BA9F78091E800877F8093E80048
:1040B0008091E80080FFFCCF809112018093F10095
:1040C0008091E8008E77DCCF80917302813201F716
:1040D0008091770290917802892BD1F68091E80047
:1040E000877F8093E8000E947B22809175028093F5
:1040F00012010C94A41280917302813249F68091CE
:10410000E800877F8093E8000E947B2280917602FE
:1041100080936702089580917302813A09F0B8CFC5
:104120008091E800877F8093E8008091E80080FF1D
:10413000FCCF80916702C2CF84B7877F84BF0FB660
:10414000F894A89580916000886180936000109237
:1041500060000FBE80E880936100109261000E94B1
:10416000F80D0E94CB220E942D238091E2008460F2
:104170008093E20078940E94B3250E94FA0D88E0B3
:1041800091E00E94A40D80917202853019F00E9486
:10419000000EF9CF0E940A1A80917002882399F3C9
:1041A0000E94381A882379F30E942D21ECCF9C01BC
:1041B000DA01892F992783309105C1F068F48130A5
:1041C000910509F445C0029761F48DE690E028EC72
:1041D0003FE02D933C93089581329105E1F0829761
:1041E00039F190E080E030E020E0F3CFC901992779
:1041F000213059F08230910559F0E4ECFFE0892B31
:1042000081F7849190E09F01E4CFECEAFFE0F9CFE1
:10421000E8E9FFE0F6CF643020F7E62FF0E0EE0F9C
:10422000FF1FEA5CFE4F2081318189E090E0D1CF11
:104230006430B8F670E0FB01EE0FFF1FE25DFE4F49
:1042400020813181665D7E4FFB01808190E0C1CF8E
:1042500082E190E025E330E1BCCF84E189BD86E1D5
:1042600089BD09B400FEFDCF8091D8008F7D809379
:10427000D8008091E00082608093E0008091E000AF
:1042800081FDFCCF0895AF92BF92CF92DF92FF9253
:104290000F931F93CF93DF936C01EB018A010E9470
:1042A0009A22F82E811123C00115110539F0F80169
:1042B00080819181C81BD90BC80ED91EB12CA12CAD
:1042C0002097A9F08091E80085FD22C08091E80048
:1042D0008E778093E80001151105A1F0F801808127
:1042E0009181A80EB91EB182A08285E0F82E8F2D93
:1042F000DF91CF911F910F91FF90DF90CF90BF90F2
:10430000AF9008950E949A228823D1F2F82EEFCF21
:10431000F60181916F018093F1002197FFEFAF1AB1
:10432000BF0ACECFFC01CB012091790230917A02F5
:104330002617370790F0009729F42091E8002E7790
:104340002093E80040E0009751F4411108C08091AB
:10435000E80082FF31C080E00895C901F3CF2091C9
:1043600072022223A9F12530A9F12091E80023FD52
:104370002DC02091E80022FDEACF2091E80020FF27
:10438000E2CF2091F2003091F300009719F028302D
:10439000310558F041E02830310509F040E0209126
:1043A000E8002E772093E800CECF41914093F100B2
:1043B00001972F5F3F4FE9CF80917202882341F030
:1043C000853041F08091E80083FFC1CF81E00895FE
:1043D00082E0089583E00895FC01CB0120917902E9
:1043E00030917A022617370790F0009729F4209130
:1043F000E8002E772093E80040E0009751F4411147
:1044000008C08091E80082FF32C080E00895C901B1
:10441000F3CF209172022223B1F12530B1F1209126
:10442000E80023FD2EC02091E80022FDEACF209174
:10443000E80020FFE2CF2091F2003091F3000097D6
:1044400019F02830310558F041E02830310509F0E5
:1044500040E02091E8002E772093E800CECF4491F1
:104460004093F100319601972F5F3F4FE8CF809145
:104470007202882341F0853041F08091E80083FF8B
:10448000C0CF81E0089582E0089583E00895982FD9
:10449000973028F08F708093E90081E00895909321
:1044A000E900242F762F50E0981731F07091EC003E
:1044B0002091ED005091F00021FD02C09F5FE8CFF8
:1044C0003091EB003E7F3093EB003091ED003D7F6B
:1044D0003093ED003091EB0031603093EB0070933E
:1044E000EC002093ED005093F0002091EE0027FDAA
:1044F000E5CF80E008958091730287FF13C080911B
:10450000E80082FF06C08091E8008B778093E80086
:1045100004C0809172028111F2CF089580917202DD
:104520008823D9F38091E80080FFF8CF8091E800DC
:104530008E77ECCF2091E4003091E50095E6A9015B
:104540002091EC00822F817020FF06C08091E8004E
:1045500080FF06C080E008952091E80022FD1AC087
:1045600080917202882389F0853089F08091EB0078
:1045700085FD0FC02091E4003091E50042175307FC
:10458000F9F29150E1F684E0089582E0089583E025
:10459000089581E008950E943C230E944423E0EEA8
:1045A000F0E0808181608083E8EDF0E080818F77AA
:1045B000808319BCA7EDB0E08C918E7F8C938081B5
:1045C0008F7E80831092710208950F931F93CF9373
:1045D000DF930E943C230E944423C8EDD0E08881F1
:1045E0008F77888388818068888388818F7D88839E
:1045F000E7EDF0E080818068808319BC1092720240
:1046000010926E021092700210926F0200EE10E093
:10461000F80180818B7F808388818160888342E07C
:1046200060E080E00E944722E1EEF0E080818E7F32
:104630008083E2EEF0E08081816080838081886009
:104640008083F80180818E7F808388818061888368
:10465000DF91CF911F910F910895E8EDF0E08081F7
:104660008F7E8083E7EDF0E080818160808381E050
:10467000809371020C94E522E8EDF0E080818C7F5C
:1046800080831092E20008951092DA001092E10007
:1046900008951F920F920FB60F9211240BB60F922E
:1046A0002F933F934F935F936F937F938F939F933A
:1046B000AF93BF93EF93FF938091E10082FF0BC014
:1046C0008091E20082FF07C08091E1008B7F8093A0
:1046D000E1000E94B2258091DA0080FF19C080912C
:1046E000D80080FF15C08091DA008E7F8093DA00B9
:1046F0008091D90080FF96C084E189BD86E189BDA3
:1047000009B400FEFDCF81E0809372020E94C61FB3
:104710008091E10080FF19C08091E20080FF15C008
:104720008091E2008E7F8093E2008091E2008061C0
:104730008093E2008091D80080628093D80019BCF9
:1047400085E0809372020E94D81F8091E10084FF6F
:1047500029C08091E20084FF25C084E189BD86E103
:1047600089BD09B400FEFDCF8091D8008F7D809374
:10477000D8008091E1008F7E8093E1008091E2007B
:104780008F7E8093E2008091E20081608093E2005E
:1047900080916E02882309F44BC084E080937202FA
:1047A0000E94D91F8091E10083FF29C08091E2001F
:1047B00083FF25C08091E100877F8093E10082E044
:1047C0008093720210926E028091E1008E7F80933E
:1047D000E1008091E2008E7F8093E2008091E20010
:1047E00080618093E20042E060E080E00E94472226
:1047F0008091F00088608093F0000E94D71FFF91A5
:10480000EF91BF91AF919F918F917F916F915F9148
:104810004F913F912F910F900BBE0F900FBE0F90B5
:104820001F90189519BC109272020E94D41F70CF6D
:104830008091E30087FD02C081E0B0CF83E0AECF7E
:104840001F920F920FB60F9211240BB60F922F9357
:104850003F934F935F936F937F938F939F93AF9308
:10486000BF93CF93DF93EF93FF93D091E900DF7075
:104870008091EC00C82FC17080FDC0E81092E90063
:104880008091F000877F8093F00078940E946824E4
:104890001092E9008091F00088608093F000CD2BA9
:1048A000CF70C093E900FF91EF91DF91CF91BF915D
:1048B000AF919F918F917F916F915F914F913F91B8
:1048C0002F910F900BBE0F900FBE0F901F90189559
:1048D0001F93CF93DF93CDB7DEB7AA970FB6F894A7
:1048E000DEBF0FBECDBF83E792E0FC0101962091B1
:1048F000F100208322E08B379207B9F70E94EF1F67
:104900008091E80083FF16C1809173029091740238
:104910009A3008F00FC1E92FF0E0E657F84D0C94FB
:104920001327803881F0823809F004C18091770222
:104930008F708093E9008091EB0085FB882780F9D8
:104940001092E90006C080916F029091700291115F
:1049500082609091E800977F9093E8008093F10047
:104960001092F1008091E8008E77E0C0882309F46E
:10497000CEC0823009F0DEC0809175028111D1C0B5
:10498000809177028F7009F4D5C08093E90020915F
:10499000EB0020FFC6C0933031F48091EB008062C1
:1049A0008093EB00BEC09091EB0090619093EB0080
:1049B00021E030E001C0220F8A95EAF72093EA0057
:1049C0001092EA008091EB008860EACF8111B2C0BA
:1049D000109175021F778091E3008078812B80937E
:1049E000E3008091E800877F8093E8000E947B22AB
:1049F0008091E80080FFFCCF8091E3008068809385
:104A0000E30082E0111183E08093720293C080582A
:104A1000823008F08FC080917502909176028C3DB3
:104A200023E09207A1F583E08A838AE289834FB766
:104A3000F894DE01139620E03EE051E2E32FF0E02F
:104A400050935700E49120FF03C0E295EF703F5F61
:104A5000EF708E2F90E0EA30C0F0C7968D939D9353
:104A60002F5F243159F74FBF8091E800877F8093F3
:104A7000E8006AE270E0CE0101960E9492218091E6
:104A8000E8008B778093E80055C0C096E7CFAE0171
:104A90004F5F5F4F609177020E94D720BC01892B46
:104AA00009F448C08091E800877F8093E8008981FD
:104AB0009A810E94EC21E3CF8038E1F58091E800F3
:104AC000877F8093E80080916E028093F1004ACF47
:104AD000811130C090917502923060F58091E800AC
:104AE000877F8093E80090936E020E947B228091E2
:104AF0006E02882311F084E005C08091E30087FDF9
:104B0000FACF81E0809372020E94DB1F13C0809174
:104B10007502813079F481E0933009F080E0809370
:104B200070021092E9008091E800877F8093E8008E
:104B30000E947B228091E80083FF0AC08091E800F8
:104B4000877F8093E8008091EB0080628093EB0088
:104B5000AA960FB6F894DEBF0FBECDBFDF91CF91FE
:104B60001F9108950895CF93809172028823A1F038
:104B7000C091E900CF709091EC00892F817090FD79
:104B800080E8C82B1092E9008091E80083FD0E9424
:104B90006824CF70C093E900CF9108950E94D52575
:104BA0006894B1110C94642608950E94492688F0F7
:104BB0009F5798F0B92F9927B751B0F0E1F0660FE1
:104BC000771F881F991F1AF0BA95C9F714C0B13022
:104BD00091F00E946326B1E008950C946326672F3C
:104BE000782F8827B85F39F0B93FCCF38695779551
:104BF0006795B395D9F73EF490958095709561953A
:104C00007F4F8F4F9F4F0895E89409C097FB3EF464
:104C100090958095709561957F4F8F4F9F4F992309
:104C2000A9F0F92F96E9BB279395F6958795779587
:104C30006795B795F111F8CFFAF4BB0F11F460FF47
:104C40001BC06F5F7F4F8F4F9F4F16C0882311F09F
:104C500096E911C0772321F09EE8872F762F05C0B3
:104C6000662371F096E8862F70E060E02AF09A954E
:104C7000660F771F881FDAF7880F9695879597F943
:104C8000089557FD9058440F551F59F05F3F71F03C
:104C90004795880F97FB991F61F09F3F79F08795A3
:104CA0000895121613061406551FF2CF4695F1DF2C
:104CB00008C0161617061806991FF1CF86957105BC
:104CC000610508940895E894BB2766277727CB01F0
:104CD00097F908950E947D260C94EE260E94E02606
:104CE00038F00E94E72620F0952311F00C94D72687
:104CF0000C94DD2611240C9464260E94412670F346
:104D0000959FC1F3950F50E0551F629FF001729F70
:104D1000BB27F00DB11D639FAA27F00DB11DAA1F7F
:104D2000649F6627B00DA11D661F829F2227B00DCC
:104D3000A11D621F739FB00DA11D621F839FA00D57
:104D4000611D221F749F3327A00D611D231F849FA7
:104D5000600D211D822F762F6A2F11249F575040FE
:104D60009AF0F1F088234AF0EE0FFF1FBB1F661F79
:104D7000771F881F91505040A9F79E3F510580F042
:104D80000C94D7260C9464265F3FE4F3983ED4F34A
:104D9000869577956795B795F795E7959F5FC1F7E6
:104DA000FE2B880F911D9695879597F9089597F991
:104DB0009F6780E870E060E008959FEF80EC0895C1
:104DC00000240A94161617061806090608950024EA
:104DD0000A9412161306140605060895092E039464
:104DE000000C11F4882352F0BB0F40F4BF2B11F4D8
:104DF00060FF04C06F5F7F4F8F4F9F4F089597FBF9
:104E0000072E16F4009407D077FD09D00E941C27C6
:104E100007FC05D03EF4909581959F4F08957095BD
:104E200061957F4F0895EE0FFF1F0024001C0BBEFD
:104E30000790F691E02D0994AA1BBB1B51E107C016
:104E4000AA1FBB1FA617B70710F0A61BB70B881F1A
:104E5000991F5A95A9F780959095BC01CD010895A9
:104E6000F999FECF92BD81BDF89A992780B5089532
:104E7000A8E1B0E042E050E00C945827262FF999C1
:104E8000FECF92BD81BDF89A019700B4021639F0A9
:104E90001FBA20BD0FB6F894FA9AF99A0FBE08957A
:104EA0000196272F0E943F270C943E27DC01CB015F
:104EB000FC01F999FECF06C0F2BDE1BDF89A31962A
:104EC00000B40D9241505040B8F70895F894FFCFC8
:104ED000A609B209B609BA09BE09C209C609CA09B2
:104EE000CE09D209D609DA09DE09E209E609EA099A
:104EF000EE09F2094F104F10A710A710EB10071181
:104F00007F107F1012117F10DA11DA1145127F1015
:104F10007F104E129124B6249A25B6249A25E624B1
:084F200007259A255C25682590
:104F280018022808140A321EE31E731F501F191F87
:104F3800E61E013790919293949597C060616263E1
:104F48006465F0F1F2F3F4F5F6F7404D36390311E4
:0E4F5800B61080104710DA0FF30F0C10251062
:00000001FF
