:100000000C94A2070C94EB070C94EB070C94EB07F1
:100010000C94EB070C94EB070C94EB070C94EB0798
:100020000C94EB070C94EB070C9466220C943D2384
:100030000C9470190C94EB070C94EB070C94EB07E1
:100040000C94EB070C94EB070C94EB070C94EB0768
:100050000C94EB070C94D1190C94EB070C94EB0760
:100060000C94EB070C94EB070C94EB070C94EB0748
:100070000C94EB070C94EB070C94EB070C94EB0738
:100080000C94EB070C94EB070C94EB070C94EB0728
:100090000C94EB070C94EB07E2000500340007001A
:1000A000E60065005A0060003F00120014002400C2
:1000B000E3002C001100350009004D004A005B00F0
:1000C0006100400013001A0025002900E000100024
:1000D000E1000A00510052006200560041002F006A
:1000E000080026001E003A00360000000B004E00FB
:1000F0004B0063005C0042003000150027001F0029
:100100003B0037001D000D004900A80000005D0005
:100110004300280017002D0020003C0038001B0081
:100120000E004C00500044005E004600E0001C0041
:100130002E0021003D00310006000F005800E400B1
:1001400045005700AA00040018002A0022003E00C3
:1001500055001900330054004F00A90059005F00FA
:1001600016000C002B00230001000100010001001B
:100170000100010001000100010001000100010077
:100180000100010001000100010001000100010067
:100190000100010001000100010001000100010057
:1001A0000100010001000100010001000100010047
:1001B0000100010001000100010000000100010038
:1001C0000100010001000100010001000100010027
:1001D0000100010001000100010001000000010018
:1001E0000100010001000100010001000100010007
:1001F00001000100010001000100010001000100F7
:1002000001000100010001000100010001000100E6
:1002100001000100010001000100010001000100D6
:1002200001000100010001000100010001000100C6
:1002300001000100010001000100010001000100B6
:1002400001000100010001000100010001000100A6
:100250000100010001000100010001000100010096
:100260000100010001000100010001000100010086
:100270000100010001000100010001000100010076
:100280000100010001000100010000000100010067
:100290000100010001000100010001000100010056
:1002A0000100010001000100010001000000010047
:1002B0000100010001000100010001000100010036
:1002C0000100010001000100010001000100010026
:1002D0000100010001000100010001000100010016
:1002E0000100010001000100010001000100010006
:1002F00001000100010001000100010001000100F6
:1003000001000100010001000100010001000100E5
:1003100001000100010001000100010001000100D5
:1003200001000100010001000100010001000100C5
:1003300001000100010001000100010001000100B5
:1003400001000100010001000100010001000100A5
:100350000100010001000100010000000100010096
:100360000100010001000100010001000100010085
:100370000100010001000100010001000000010076
:100380000100010001000100010001000100010065
:100390000100010001000100010001000100010055
:1003A0000100010001000100010001000100010045
:1003B0000100010001000100010001000100010035
:1003C0000100010001000100010001000100010025
:1003D0000100010001000100010001000100010015
:1003E0000100010001000100010001000100010005
:1003F00001000100010001000100010001000100F5
:1004000001000100010001000100010001000100E4
:1004100001000100010001000100010001000100D4
:1004200001000100010001000100000001000100C5
:1004300001000100010001000100010001000100B4
:1004400001000100010001000100010000000100A5
:100450000100010001000100010001000100010094
:100460000100010001000100010001000100010084
:100470000100010001000100010001000100010074
:100480000100010001000100010001000100010064
:100490000100010001000100010001000100010054
:1004A0000100010001000100010001000100010044
:1004B0000100010001000100010001000100010034
:1004C0000100010001000100010001000100010024
:1004D0000100010001000100010001000100010014
:1004E0000100010001000100010001000100010004
:1004F00001000100010001000100000001000100F5
:1005000001000100010001000100010001000100E3
:1005100001000100010001000100010000000100D4
:1005200001000100010001000100010001000100C3
:1005300001000100010001000100010001000100B3
:1005400001000100010001000100010001000100A3
:100550000100010001000100010001000100010093
:100560000100010001000100010001000100010083
:100570000100010001000100010001000100010073
:100580000100010001000100010001000100010063
:100590000100010001000100010001000100010053
:1005A0000100010001000100010001000100010043
:1005B0000100010001000100010001000100010033
:1005C0000100010001000100010000000100010024
:1005D0000100010001000100010001000100010013
:1005E0000100010001000100010001000000010004
:1005F00001000100010001000100010001000100F3
:1006000001000100010001000100010001000100E2
:1006100001000100010001000100010001000100D2
:1006200001000100010001000100010001000100C2
:1006300001000100010001000100010001000100B2
:1006400001000100010001000100010001000100A2
:100650000100010001000100010001000100010092
:100660000100010001000100010001000100010082
:100670000100010001000100010001000100010072
:100680000100010001000100010001000100010062
:100690000100010001000100010000000100010053
:1006A0000100010001000100010001000100010042
:1006B0000100010001000100010001000000010033
:1006C0000100010001000100010001000100010022
:1006D0000100010001000100010001000100010012
:1006E0000100010001000100010001000100010002
:1006F00001000100010001000100010001000100F2
:1007000001000100010001000100010001000100E1
:1007100001000100010001000100010001000100D1
:1007200001000100010001000100010001000100C1
:1007300001000100010001000100010001000100B1
:1007400001000100010001000100010001000100A1
:100750000100010001000100010001000100010091
:100760000100010001000100010000000100010082
:100770000100010001000100010001000100010071
:100780000100010001000100010001000000010062
:100790000100010001000100010001000100010051
:1007A0000100010001000100010001000100010041
:1007B0000100010001000100010001000100010031
:1007C0000100010001000100010001000100010021
:1007D0000100010001000100010001000100010011
:1007E0000100010001000100010001000100010001
:1007F00001000100010001000100010001000100F1
:1008000001000100010001000100010001000100E0
:1008100001000100010001000100010001000100D0
:1008200001000100010001000100010001000100C0
:1008300001000100010001000100000001000100B1
:1008400001000100010001000100010001000100A0
:100850000100010001000100010001000000010091
:100860000100010001000100010001000100010080
:100870000100010001000100010001000100010070
:100880000100010001000100010001000100010060
:100890000100010001000100010001000100010050
:1008A0000100010001000100010001000100010040
:1008B0000100010001000100010001000100010030
:1008C0000100010001000100010001000100010020
:1008D0000100010001000100010001000100010010
:1008E0000100010001000100010001000100010000
:1008F00001000100010001000100010001000100F0
:1009000001000100010001000100000001000100E0
:1009100001000100010001000100010001000100CF
:1009200001000100010001000100010000000100C0
:1009300001000100010001000100010001000100AF
:10094000010001000100010001000100010001009F
:10095000010001000100010001000100010001008F
:10096000010001000100010001000100010001007F
:10097000010001000100010001000100010001006F
:10098000010001000100010001000100010001005F
:10099000010001000100010001000100010001004F
:1009A000010001000100010001000100010001003F
:1009B000010001000100010001000100010001002F
:1009C000010001000100010001000100010001001F
:1009D0000100010001000100010000000100010010
:1009E00001000100010001000100010001000100FF
:1009F00001000100010001000100010000000100F0
:100A000001000100010001000100010001000100DE
:100A100001000100010001000100010001000100CE
:100A200001000100010001000100010001000100BE
:100A300001000100010001000100010001000100AE
:100A4000010001000100010001000100010001009E
:100A5000010001000100010001000100010001008E
:100A6000010001000100010001000100010001007E
:100A7000010001000100010001000100010001006E
:100A8000010001000100010001000100010001005E
:100A9000010001000100010001000100010001004E
:100AA000010001000100010001000000010001003F
:100AB000010001000100010001000100010001002E
:100AC000010001000100010001000100000001001F
:100AD000010001000100010001000100010001000E
:100AE00001000100010001000100010001000100FE
:100AF00001000100010001000100010001000100EE
:100B000001000100010001000100010001000100DD
:100B100001000100010001000100010001000100CD
:100B200001000100010001000100010001000100BD
:100B300001000100010001000100010001000100AD
:100B4000010001000100010001000100010001009D
:100B5000010001000100010001000100010001008D
:100B6000010001000100010001000100010001007D
:100B7000010001000100010001000000010001006E
:100B8000010001000100010001000100010001005D
:100B9000010001000100010001000100000001004E
:100BA000010001000100010001000100010001003D
:100BB000010001000100010001000100010001002D
:100BC000010001000100010001000100010001001D
:100BD000010001000100010001000100010001000D
:100BE00001000100010001000100010001000100FD
:100BF00001000100010001000100010001000100ED
:100C000001000100010001000100010001000100DC
:100C100001000100010001000100010001000100CC
:100C200001000100010001000100010001000100BC
:100C300001000100010001000100010001000100AC
:100C4000010001000100010001000000010001009D
:100C5000010001000100010001000100010001008C
:100C6000010001000100010001000100000001007D
:100C7000010001000100010001000100010001006C
:100C8000010001000100010001000100010001005C
:100C9000010001000100010001000100010001004C
:100CA000010001000100010001000100010001003C
:100CB000010001000100010001000100010001002C
:100CC000010001000100010001000100010001001C
:100CD000010001000100010001000100010001000C
:100CE00001000100010001000100010001000100FC
:100CF00001000100010001000100010001000100EC
:100D000001000100010001000100010001000100DB
:100D100001000100010001000100000001000100CC
:100D200001000100010001000100010001000100BB
:100D300001000100010001000100010000000100AC
:100D4000010001000100010001000100010001009B
:100D5000010001000100010001000100010001008B
:100D6000010001000100010001000100010001007B
:100D7000010001000100010001000100010001006B
:100D8000010001000100010001000100010001005B
:100D9000010001000100010012036B0065007900F1
:100DA00062006F00610072006400000016037100B1
:100DB0006D006B006200750069006C0064006500E6
:100DC000720000000403090409026D00040100A080
:100DD000FA090400000103010100092111010001C9
:100DE0002240000705810308000A090401000103ED
:100DF000010200092111010001224D0007058203B3
:100E000008000A0904020001030000000921110181
:100E100000012236000705830308000A09040300C5
:100E2000010300000009211101000122390007051A
:100E300084032000011201100100000008EDFE6093
:100E40006001000102000105010906A10105071961
:100E5000E029E715002501950875018102050819AB
:100E6000012905950575019102950175039101050B
:100E700007190029F71500250195F875018102C0B1
:100E800005010980A10185021601002603001A81CF
:100E9000002A8300751095018100C0050C0901A18D
:100EA000018503160100269C021A01002A9C027586
:100EB0001095018100C005010902A1010901A100ED
:100EC00005091901290515002501950575018102FE
:100ED0009501750381010501093009311581257FCF
:100EE00095027508810609381581257F95017508D9
:100EF0008106050C0A38021581257F950175088148
:100F000006C0C005010906A101050719E029E7157A
:100F1000002501950875018102950175088101057B
:100F2000081901290595057501910295017503912F
:100F3000010507190029FF150026FF009506750811
:100F40008100C00011241FBECFEFD0E2DEBFCDBFB5
:100F500004B603FE27C080916F0290917002A091A9
:100F60007102B09172028730904BA740B04BD1F420
:100F700010926F021092700210927102109272021F
:100F800014BE84B7877F84BF0FB6F894A89580916C
:100F90006000886180936000109260000FBEE0E006
:100FA000F8EF099511E0A0E0B1E0E0E6FDE400E033
:100FB0000BBF02C007900D92AC33B107D9F722E006
:100FC000ACE3B1E001C01D92AF36B207E1F70E9479
:100FD000B91F0C9482260C94000090E080E00895E4
:100FE0000895089581E0089580FF0BC0209A289805
:100FF00081FF09C06F9A779882FF07C06E9A769832
:1010000008952098F4CF6F98F6CF6E98F8CF81E0CE
:1010100008950C94F2070E94CA112FEF84E39CE01C
:10102000215080409040E1F700C000000C94F4197A
:10103000EF92FF920F931F93CF93DF938C01FC01EC
:10104000E080F18080918801811140C082818823F5
:10105000C1F1C7010E944817C82F682FC7010E941D
:10106000F116B7018C2F0E945009EC01B8010E94C3
:101070000908882309F44BC0B801CE010E945A0B1D
:10108000882309F444C0C531F0E7DF0720F5C230FA
:1010900080E7D80708F04DC0C115E0E7DE0791F101
:1010A000C130D047E1F181E080933E0180933F0160
:1010B000C801DF91CF911F910F91FF90EF900C9499
:1010C0000708C7010E941F17C82FCBCFC7010E9476
:1010D0004817B701C8CFCC3380E7D80709F49BC0C5
:1010E000CD33D04701F7F8018281882309F4BAC0D3
:1010F00010923F010E94A01990933D0180933C0102
:1011000080E296C0F801828181110E940B0880E084
:10111000DF91CF911F910F91FF90EF900895F8010B
:1011200082818823A1F380912F02816080932F0216
:10113000EECFF8018281882309F4BACF0E94011909
:10114000811102C00E94E7180E941E1990E090933E
:10115000360280933502FE01E350F047809135025C
:101160008160E231F10538F4EC57F94D0C942F26EB
:1011700080913502826080933502809135020E9411
:1011800022190E94CA11C3CF809135028460F3CF27
:10119000809135028860EFCF809135028061EBCF7E
:1011A000809135028062E7CF809135028064E3CF81
:1011B000809135028068DFCF809135028C60DBCF73
:1011C000809135028E7FD7CF809135028D7FD3CF2E
:1011D000809135028B7FCFCF80913502877FCBCF37
:1011E000809135028F7EC7CF809135028F7DC3CF2E
:1011F000809135028F7BBFCF809135028F77BBCF37
:1012000080913502837FB7CF90913502892F97FB6C
:1012100087F98058B0CFF8018281882361F010925D
:101220003E010E94A01990933D0180933C0182E011
:101230000E942B0F6CCF80913E0181110FC08091D5
:101240003C0190913D010E94AC19883C910530F41D
:1012500086E20E94000E86E20E94DC0E82E00E947E
:10126000320F55CF80913F0181110FC080913C0119
:1012700090913D010E94AC19883C910530F487E2C1
:101280000E94000E87E20E94DC0E80E2E8CF0C9400
:10129000A90B0C94AB0B0C94F4070C944B09089518
:1012A000972F70E02DE0929F600D711D1124FB01BE
:1012B00098E6899FE00DF11D1124EE0FFF1FE856FF
:1012C000FF4F859194910895FC01EE0FFF1FE856A2
:1012D000F24F8591949108950E9450090E94DE0A70
:1012E0009C018115904408F097C0211580E33807D0
:1012F00008F0FCC0203E310508F074C0203C3105E8
:1013000008F0E7C0283A310588F4253A310508F09D
:10131000E4C02130310509F477C0C9010497813A4E
:10132000910508F471C030E020E06EC0C901885A10
:1013300091094597C0F7283A310509F400C1293AC7
:10134000310509F4FFC02A3A310509F4FEC02B3AF1
:10135000310509F4FDC02C3A310509F4FCC02B3BE2
:10136000310509F4FBC02C3B310509F4FAC02D3AD4
:10137000310509F4F9C0203B310509F4F8C02E3AD3
:10138000310509F4F7C02F3A310509F4F6C0213BC5
:10139000310509F4F5C0223B310509F4F4C0233BC3
:1013A000310509F4F3C0243B310509F4F2C0253BB3
:1013B000310509F4F1C0263B310509F4F0C0273BA3
:1013C000310509F4EFC0283B310509F4EEC0293B93
:1013D000310509F4EDC02A3B310509F4ECC020E0E9
:1013E00034E412C0211540E2340780F42F3F310568
:1013F00009F050F4283E310538F0C901805F9109A9
:101400003065409708F08FCFC9010895C9019F70DA
:101410000E9464099C01F8CF211584E5380708F083
:1014200042C0211543E5340708F06BC0211582E561
:10143000380740F5211541E5340708F05DC0211556
:1014400080E5380708F455C0C90134E096958795C2
:101450003A95E1F7382F3370822F86958695837001
:1014600040E2849FC0011124932B422F437021E05E
:1014700030E002C0220F331F4A95E2F7282B392BA8
:101480003C68C2CFA9014370552781E090E002C0BB
:10149000880F991F4A95E2F72695269540E2249FEA
:1014A00090011124EBCF211586E5380748F4922FDF
:1014B000882721153545C8F59C01246F306AA4CFD3
:1014C000C90190563F708115904108F02CCF3062D1
:1014D0009BCFC901805C91099BCF253A310549F129
:1014E000263A310549F522E830E48ECF3327306CB7
:1014F0008BCF3F70306A88CF322F2227216F306A1E
:1015000083CFA9014370552781E090E002C0880F86
:10151000991F4A95E2F72695269540E2249F90016F
:101520001124282B392B3A686FCF88279F719C0193
:10153000CECF21E830E468CF23E830E465CF22EE57
:1015400034E462CF29EE34E45FCF2AEE34E45CCF9A
:1015500025EB34E459CF26EB34E456CF23EB34E4C7
:1015600053CF24EB34E450CF27EB34E44DCF2CECB5
:1015700034E44ACF2DEC34E447CF23E835E444CFBC
:101580002AE835E441CF22E935E43ECF24E935E4C9
:101590003BCF21E236E438CF23E236E435CF24E2F4
:1015A00036E432CF25E236E42FCF26E236E42CCFE4
:1015B00027E236E429CF2AE236E426CF803E9105A1
:1015C00081F1C8F48133910509F462C048F489328D
:1015D000910509F456C08A32910509F460C0089556
:1015E00089339105B9F082389105A1F085339105D1
:1015F00009F440C00895863E910561F138F4823EB9
:101600009105B1F0833E9105E1F00895873E910583
:1016100051F10895209135022370D9F080EE90E0C9
:1016200008952091350220FF14C089E390E00895C9
:101630002091350222FF0DC024FD09C083EE90E009
:1016400008952091350222FD31C024FF02C090E0B0
:1016500080E008952091350223FFFBCF24FDF7CFD2
:1016600087EE90E008952091350223FFEECF86EEBD
:1016700090E008952091350225FFEBCF89E290E0BC
:1016800008952091350225FFE4CF85E390E0089589
:101690002091350226FFDDCF8AE290E00895209167
:1016A000350226FFD6CF81E390E0089582EE90E0E8
:1016B000089508950F931F93CF938C01FB018281AE
:1016C000811106C0C1E08C2FCF911F910F91089519
:1016D000C0914D01C11125C00531104799F70E94F5
:1016E000590B81E080934D010E94A01990934C0109
:1016F00080934B01109240011092420110924101DF
:10170000109244011092430110924601109245013B
:10171000109248011092470110924A01109249011B
:10172000D2CF80914B0190914C010E94AC19883C22
:10173000910540F680914001E82FF0E0EE0FFF1F89
:10174000EF5BFE4F118300838F5F80934001C0E009
:10175000BACF0C94F0070C94F107CF93DF9385B7C1
:10176000806885BF85B7806885BFC3E1D1E020E28E
:1017700031E041E050E08991E82FE295EF70A1E27D
:10178000AE0FB0E0FC918F70BA0101C0660F8A9570
:10179000EAF7962F90959F239C93EE5DF0E0808171
:1017A000862B80832C173D0731F7C0E2D1E028E279
:1017B00031E041E050E08991E82FE295EF70A1E23D
:1017C000AE0FB0E0FC918F70BA0101C0660F8A9530
:1017D000EAF7962F90959F239C93EE5DF0E0808131
:1017E000862B80832C173D0731F780E1EEE5F1E091
:1017F000DF01982F1D929A95E9F7EEE4F1E0DF0101
:101800001D928A95E9F7DF91CF910C9447092F92A9
:101810003F924F925F926F927F928F929F92AF9280
:10182000BF92CF92DF92EF92FF920F931F93CF93CD
:10183000DF9383E1682E81E0782E10E000E08824B9
:101840008394912CFF24F394E30189913E01E82FC6
:10185000E295EF70A1E2AE0FB0E09C918F70240191
:1018600001C0440C8A95EAF7892F84298C93EE5D98
:10187000F0E08081B42CB0948B218083D0EADA959B
:10188000F1F76401002E02C0CC0CDD1C0A94E2F7D3
:101890001601209430942EE431E060E271E0E12CF6
:1018A000E901499159919E01EB01A990BE01CA2D10
:1018B000C295CF70C05ED0E0888190E0CA2DCF7015
:1018C00002C095958795CA95E2F7E901229780FDB8
:1018D00054C0CA018C299D29998388838881998164
:1018E0004817590711F0EE24E3948EE591E0821732
:1018F0009307B1F68C91B822BC928081482A40822D
:10190000EE2041F0F0926E010E94A01990937001B8
:1019100080936F010F5F1F4F0D30110509F094CFB9
:1019200080916E01882399F080916F0190917001F0
:101930000E94AC19069758F080E1EEE4F1E0AEE5C4
:10194000B1E001900D928A95E1F710926E010E942C
:10195000490981E0DF91CF911F910F91FF90EF90A6
:10196000DF90CF90BF90AF909F908F907F906F90BF
:101970005F904F903F902F900895CA01822193214C
:10198000ABCFE82FF0E0EE0FFF1FE25AFE4F808151
:10199000918108950895909376018093750108953B
:1019A000E0917501F0917601309721F00190F0817E
:1019B000E02D099480E00895E0917501F0917601A1
:1019C000309721F00280F381E02D09940895E09191
:1019D0007501F0917601309721F00480F581E02DBA
:1019E00009940895209173013091740128173907E3
:1019F00071F09093740180937301E0917501F091FF
:101A00007601309721F00680F781E02D0994089542
:101A100020917101309172012817390771F090936C
:101A2000720180937101E0917501F0917601309718
:101A300021F00084F185E02D0994089508950C9417
:101A40001E0D0E9497190E94AD0B0C94611A7F9293
:101A50008F929F92AF92BF92CF92DF92EF92FF92BE
:101A60000F931F93CF93DF9300D000D00F92CDB789
:101A7000DEB70E94070C98E7A92E91E0B92E10E07E
:101A800000E088248394912C702E802F0E94C10C3A
:101A90007C01F501C190D1905F01C816D90609F407
:101AA0005CC080912F0281FD0E94CA0C96012E25F8
:101AB0003F2590E080E06401082E02C0CC0CDD1CC4
:101AC0000A94E2F7A60142235323452B09F440C0B0
:101AD00089837A82EC20FD2081E0EF2809F480E000
:101AE0008B830E94A0198160782F9D838C8349810C
:101AF0005A816B818D810E94D70D000F111FF80153
:101B0000E858FE4F80819181C826D926D182C082B3
:101B10000E940E1D0E94D00C909177018917A1F1AF
:101B20000E94D00C809377010F900F900F900F9030
:101B30000F90DF91CF911F910F91FF90EF90DF9069
:101B4000CF90BF90AF909F908F907F900C944D0955
:101B500001968D30910509F0AECF0F5F1F4F083011
:101B6000110509F091CF8FEF89838A831B820E9430
:101B7000A0198160782F9D838C8349815A816B8164
:101B80008D810E94D70DC4CF0F900F900F900F90B2
:101B90000F90DF91CF911F910F91FF90EF90DF9009
:101BA000CF90BF90AF909F908F907F900895CF93EC
:101BB000DF93CDB7DEB72B970FB6F894DEBF0FBE1D
:101BC000CDBF4F83588769877A878B871E8285E0D0
:101BD000FE013796DE01119601900D928A95E1F78C
:101BE00049815A816B817C818D819E812B960FB6B4
:101BF000F894DEBF0FBECDBFDF91CF910C94491496
:101C0000882309F4D8C0823871F40E94D00C81FD79
:101C1000D2C089E30E94F0170E94B81889E30E949D
:101C20002C180C94B818833859F40E94D00C80FDFD
:101C3000C2C083E50E94F0170E94B81883E5EFCF79
:101C4000843859F40E94D00C82FDB5C087E40E940C
:101C5000F0170E94B81887E4E2CF9CEF980F913AF2
:101C600018F40E94F017DDCF90E2980F983050F4EE
:101C7000877091E001C0990F8A95EAF7892F0E9439
:101C80006F18CFCF9BE5980F933070F4853A31F001
:101C9000863A39F083E890E00C94F20C81E890E009
:101CA000FBCF82E890E0F8CF98E5980F953108F0E7
:101CB00082C0883A09F440C0893A09F440C08A3A9F
:101CC00009F440C08B3A09F440C08C3A09F440C092
:101CD0008B3B09F440C08C3B09F440C08D3A09F4B9
:101CE00040C0803B09F440C08E3A09F440C08F3AAE
:101CF00009F440C0813B09F440C0823B09F440C074
:101D0000833B09F440C0843B09F440C0853B09F49F
:101D100040C0863B09F440C0873B09F440C0883B83
:101D200009F440C0893B09F440C08A3B09F440C033
:101D300090E080E00C94080D82EE90E0FBCF89EEFD
:101D400090E0F8CF8AEE90E0F5CF85EB90E0F2CF0F
:101D500086EB90E0EFCF83EB90E0ECCF84EB90E06C
:101D6000E9CF87EB90E0E6CF8CEC90E0E3CF8DEC11
:101D700090E0E0CF83E891E0DDCF8AE891E0DACF30
:101D800082E991E0D7CF84E991E0D4CF81E292E07B
:101D9000D1CF83E292E0CECF84E292E0CBCF85E256
:101DA00092E0C8CF86E292E0C5CF87E292E0C2CF50
:101DB0008AE292E0BFCF0895882309F44BC08238AD
:101DC00071F40E94D00C81FF45C089E30E94F01796
:101DD0000E94B81889E30E942C180C94B818833814
:101DE00059F40E94D00C80FF35C083E50E94F017A3
:101DF0000E94B81883E5EFCF843859F40E94D00CC4
:101E000082FF28C087E40E94F0170E94B81887E478
:101E1000E2CF9CEF980F913AF0F290E2980F983051
:101E200050F4877091E001C0990F8A95EAF7892FE5
:101E30000E947518D2CF9BE5980F933020F490E064
:101E400080E00C94F20C885A853120F490E080E018
:101E50000C94080D0895882321F00E946F180C94AB
:101E6000B8180895882321F00E9475180C94B818AA
:101E700008958F929F92AF92BF92DF92EF92FF925E
:101E80000F931F93CF93DF9300D000D00F92CDB765
:101E9000DEB77C016D837983FC01058102950F70AB
:101EA000128111110E948E180E94E917D82E8823E2
:101EB00071F01123A1F08D81805E883080F082E086
:101EC0000E94D3170E94E91791E0D82ED926E98104
:101ED000E295EF70F0E0EA56F94D0C942F26D12CE4
:101EE000F6CF09810F70F981F07F11F00295007F24
:101EF0001123B1F0002361F08D81805E883018F0ED
:101F00002D81211109C0802F0E946F180E94B818DE
:101F10008D810E94000E15C0802F0E948018F6CF80
:101F20008D810E94DC0E002361F08D81805E8830FF
:101F300018F03D81311129C0802F0E9475180E9430
:101F4000B818DD2009F4D7C10E94C61780FDD3C19F
:101F5000F70112820E94C0170E940916C7010E9451
:101F60008C110E94C0170F900F900F900F900F9040
:101F7000DF91CF911F910F91FF90EF90DF90BF9075
:101F8000AF909F908F900C942B16802F0E948618F4
:101F9000D6CF49814F70B42E5981507F503219F0FD
:101FA000B29480EFB8228D81882369F0813029F1C5
:101FB000112369F1002359F0F701858180FFA8CF33
:101FC0008F70858304C0112361F0011104C08B2D33
:101FD0000E942B0FB6CF8B2D0130D1F70E94A21893
:101FE000B0CF011106C00E94A5188B2D0E94320FA0
:101FF000A8CF013009F4A5CFF6CF112321F0063088
:1020000008F09FCFE4CF053008F09BCFEECF002340
:1020100061F38D810E94DC0E94CF8981869586952F
:10202000837069F0813009F08CCF8D819981937034
:10203000111102C090E080E00E94080D82CF8D81D6
:1020400099819370111102C090E080E00E94F20C1F
:1020500078CF8D81112329F00E941C1C0E94031D42
:1020600070CF0E94841CFACF8981837009F05FC011
:10207000111167CF2D81229526952770220F220FEF
:102080008D818F7090E0B0E0A0E04C015D01022EE8
:1020900004C0880C991CAA1CBB1C0A94D2F7FD81B1
:1020A00060E070E0CB01F4FF0FC06FE070E080E013
:1020B00090E004C0660F771F881F991F2A95D2F7FA
:1020C0006095709580959095298126952695237029
:1020D0002D832230B1F0233019F19B01AC01282966
:1020E00039294A295B2929833A834B835C833D81C3
:1020F00069817A818B819C813130B1F00E94961583
:1021000020CF9B01AC01282939294A295B29298341
:102110003A834B835C83CA01B9010E94C01511CF79
:102120000E949615C501B4010E946C150ACF1123B7
:1021300009F447C0398130FF04CF2D8122952695BF
:102140002770220F220F8D818F7090E0B0E0A0E009
:102150004C015D01022E04C0880C991CAA1CBB1CFA
:102160000A94D2F75D8160E070E0CB0154FF0FC0AC
:102170006FE070E080E090E004C0660F771F881F7A
:10218000991F2A95D2F76095709580959095E98171
:10219000E695E695E370ED83E230F1F0E33059F136
:1021A0009B01AC01282939294A295B2929833A83D3
:1021B0004B835C83E13049F0CA01B9010E949C164F
:1021C000C0CE498141FFBDCEB8CF69817A818B8174
:1021D0009C810E947216B5CE9B01AC012829392939
:1021E0004A295B2929833A834B835C83CA01B9015D
:1021F0000E94C616A6CE0E949C16C501B401E9CF66
:102200003D81323F09F447C080F4303F79F1313FDE
:10221000D9F1832F805E8031D0F0112309F456C0AC
:10222000011176CE89818F7133C04D81433FD1F149
:10223000443F99F7112309F43FC089818F71898345
:102240000E94091663E089810E94CA177ACE5D81D7
:102250005F705D8389818F71112321F00E940916BF
:102260008D81B6CE0E942B168D81C0CE112341F0F8
:10227000053008F066CE89818F710E94501661CEBC
:10228000063008F05ECEF7CF89818F71112339F0C7
:102290000E94091656CE89818F711123C9F30E94BD
:1022A0002B164FCE112329F089818F710E94F415CE
:1022B00048CE0E94EA1545CE81E00E94D317023035
:1022C00008F43FCE82E00E94D3173BCE0111A1CE8D
:1022D00089818F71E4CF49814F706D81C7010E9460
:1022E000ED070E94E3142DCE49814F706D81C70127
:1022F0000E944F0926CE0F900F900F900F900F90D5
:10230000DF91CF911F910F91FF90EF90DF90BF90E1
:10231000AF909F908F9008950F931F93CF93DF936B
:10232000EC018B819C81892B29F0898198818923FB
:102330008F3F29F4DF91CF911F910F910895CE0126
:102340000E9418088823B1F3688179818A810E94EC
:1023500096178C010E94F0160E946115B801CE01FB
:10236000DF91CF911F910F910C94390F0E948E181D
:102370000E949F180E9461180E94B8180E94F41DC4
:102380000E94031D90E080E00E94F20C90E080E04B
:102390000C94080D0E947D180C94B6110E948A17A7
:1023A000282F892F82958F70903C80F48A30B0F46A
:1023B000843020F4823090F480E008958630E1F794
:1023C00081E0203E88F0213FB9F70EC08C3011F03B
:1023D0008F3091F793FB882780F9089581E0203FA3
:1023E00039F018F4203E40F70895243F29F7FCCF38
:1023F0000895CF93DF9300D000D00F92CDB7DEB712
:102400000F900F900F900F900F90DF91CF91089544
:10241000CF93DF9300D000D000D0CDB7DEB72696A3
:102420000FB6F894DEBF0FBECDBFDF91CF910895F8
:102430001F93CF93DF93E091890116E080918A0189
:102440008E1304C0DF91CF911F910895CE2FD0E05D
:102450001E9FF0011124E557FE4F4081518162819A
:102460007381848195810E940812FE013196E77084
:10247000E5CF4091BB015091BC016091BD017091CD
:10248000BE018091BF019091C0010C9408121F936E
:10249000CF93DF938091C001807FC1F48091BD0113
:1024A0008823A1F080918901C0918A017091BB01BC
:1024B0006091BC014091BE015091BF01D62FD7233E
:1024C000DA01A095B09516E0C81304C0DF91CF9152
:1024D0001F91089590E04115510511F0DF3F31F44F
:1024E00001968770F1CF2A0F3B1F17C0189FF0018C
:1024F000199FF00D1124E557FE4F21816213F0CF93
:1025000020812713EDCF22812111EACF238134814D
:102510002417350740F3241B350B283C310500F701
:102520002091C0012F7020612093C00126E0289FD8
:10253000F001299FF00D1124E057FE4F80818F702C
:10254000806180838BEB91E00E948C11DF91CF91B1
:102550001F910C9418129F92AF92BF92CF92DF926C
:10256000EF92FF920F931F93CF93DF93CDB7DEB718
:102570002B970FB6F894DEBF0FBECDBF8C0185E060
:10258000F801DE01179601900D928A95E1F7D801C6
:102590001296EC908091BE019091BF01009749F096
:1025A0004091BB015091BC01242F25232F3F09F0FE
:1025B0004BC1EE2009F4C0C08F8198850E94CE11D6
:1025C000882309F4B9C0F9C0C816D90648F1F60144
:1025D000E81BF90BCF01FF24F394883C910508F028
:1025E000F12C8BEBA82E81E0B82E8091C001982FA2
:1025F000907FF1101AC009F0EFC04F8158856985AE
:102600007A858B850E94F9118BEB91E00E948C11E9
:1026100086E0F50111928A95E9F70E9439121DC0F2
:10262000809590958C0D9D1DD6CF9111A4C0FE2C48
:10263000251326C0431324C0E11022C08F7080618F
:102640008093C0010E9439128BEB91E00E948C11A3
:102650008091C001D80115968C938F2D2B960FB6C3
:10266000F894DEBF0FBECDBFDF91CF911F910F91C8
:10267000FF90EF90DF90CF90BF90AF909F90089524
:10268000CD2829F0822F83238F3F09F071C080E08D
:10269000B82FB170DB2EE091890140918A0156E09C
:1026A00080FD1CC0EE20C9F28091C0018160809342
:1026B000C001F12CD2CF8E2F90E05E9FF00111244B
:1026C000E557FE4F6181261306C06081361303C0B3
:1026D0006281E612E7CFFC013196E770E413EBCF9D
:1026E0008F8198850E948A17292F22952F7090320A
:1026F00060F0225F2F70223078F49F7051F0F80163
:102700009581907F31F4D12C0AC09F7011F08823FD
:10271000D1F3805E8830B8F3C8010E948C11FD2C83
:102720009CCF809590958C0D9D1D883C910508F05F
:102730009FC0FE2CE11063C0C8010E948C1149C0EB
:1027400086E0F801ABEBB1E001900D928A95E1F7DC
:1027500084CF8F8198850E94CE1181112EC08091E7
:10276000C00181608093C001C8010E948C1175CFA7
:1027700081E08E258DCF251306C0431304C0D801F8
:10278000EE2009F453C08F8198850E94CE118823D2
:1027900099F2EE2089F28091C001803270F0209190
:1027A000BB013091BC013A8329831B82DD82CC823C
:1027B0008E83CE0101960E948C1186E0F801ABEB6E
:1027C000B1E001900D928A95E1F70E9447120E94B4
:1027D0003912FF24F39441CF2513D5CF4313D3CF20
:1027E000E110D1CFD80115968C93C8010E948C11AD
:1027F00086E0F50111928A95E9F7F92C2ECF251381
:10280000A8CF4313A6CF8091C00180FD99CF982F08
:10281000907F09F495CFD80115968C931597903F2A
:1028200039F0982F907F905F8F70892B15968C933D
:10283000C8010E948C1186E0F801ABEBB1E0019079
:102840000D928A95E1F7E9CEF80130812181C380AC
:10285000D4809090BD019110B7CEC816D90608F467
:1028600060CFC81AD90AF8ECCF16D10408F461CFAA
:102870004F81588569857A858B850E94F91186E09C
:10288000EBEBF1E0DF011D928A95E9F70E94391226
:1028900010CF1F93CF93DF93CDB7DEB72C970FB632
:1028A000F894DEBF0FBECDBF4F83588769877A8704
:1028B0008B879C87CE0107960E94AB12882369F014
:1028C0008A859B85892B39F058854F81852F8423F4
:1028D0008F3F09F071C016E05FC086E0FE013796B9
:1028E000DE01119601900D928A95E1F78A859B850C
:1028F000892B89F38F81988589238F3F61F32091FC
:102900008A0130E0C90101968770992740918901B9
:102910004817190671F40E94CA1110928A01109288
:10292000890186E0EBEBF1E0DF011D928A95E9F782
:10293000D2CF96E0929FD001939FB00D1124A5575E
:10294000BE4FFE01319601900D929A95E1F780936A
:102950008A010E941812BFCF819FC00111248557A0
:102960009E4F0E94AB128823E9F0E09189011E9FDF
:10297000F0011124E557FE4F40815181628173813E
:10298000848195810E9408128091890190E00196CE
:1029900087709927809389018091890190918A019C
:1029A0008913DACF2C960FB6F894DEBF0FBECDBFD9
:1029B000DF91CF911F91089569857A858B859C85DC
:1029C0000E94081288CFEF92FF920F931F93CF932C
:1029D000DF938C01892B89F0F12CEE24E394E8013C
:1029E0002196F8018491843709F458C0A0F482300C
:1029F00009F43FC048F48130D1F0DF91CF911F91AD
:102A00000F91FF90EF9008959CEF980F9037A8F7E3
:102A10000E94000E0AC0853709F44EC09CE7980F4B
:102A2000903758F78F770E94DC0E8E0116C00E5F2C
:102A30001F4FFE01849190E2980F983060F48770E8
:102A4000FE2D01C0FF0F8A95EAF78F2F0E94911883
:102A50000E94B81802C00E94000E8F2D882309F42E
:102A6000BECFEFE9FFE03197F1F700C000008150E1
:102A7000F5CF0E5F1F4FFE01849190E2980F9830C2
:102A800050F48770FE2D01C0FF0F8A95EAF78F2F53
:102A90000E949718DDCF0E94DC0EDFCF0E5F1F4F24
:102AA000FE01C491CC23C9F28FE99FE00197F1F7B1
:102AB00000C00000C150F6CF0E5F1F4FFE01F49022
:102AC000CCCF0895609306027093070280930802AA
:102AD000909309020C94B611CF93DF9300D000D0ED
:102AE000CDB7DEB769837A838B839C83809106029E
:102AF00090910702A0910802B091090229813A81C0
:102B00004B815C81822B932BA42BB52B80930602E7
:102B100090930702A0930802B09309020F900F90C0
:102B20000F900F90DF91CF910C94B611CF93DF935C
:102B300000D000D0CDB7DEB769837A838B839C83C6
:102B40008091060290910702A0910802B0910902BB
:102B500029813A814B815C8182239323A423B5236D
:102B60008093060290930702A0930802B093090293
:102B70000F900F900F900F90DF91CF910C94B611A2
:102B8000CF93DF9300D000D0CDB7DEB769837A83CF
:102B90008B839C838091060290910702A09108028A
:102BA000B091090229813A814B815C818227932768
:102BB000A427B5278093060290930702A0930802EA
:102BC000B09309020F900F900F900F90DF91CF916B
:102BD0000C94B61110920202109203021092040299
:102BE000109205020C94B61141E050E060E070E0F4
:102BF00004C0440F551F661F771F8A95D2F7409374
:102C000002025093030260930402709305020C9435
:102C1000B611282F81E090E0A0E0B0E004C0880F5A
:102C2000991FAA1FBB1F2A95D2F74091020250910B
:102C300003026091040270910502842B952BA62B50
:102C4000B72B8093020290930302A0930402B093E7
:102C500005020C94B61141E050E060E070E004C061
:102C6000440F551F661F771F8A95D2F740955095E0
:102C7000609570958091020290910302A0910402E8
:102C8000B091050284239523A623B72380930202E3
:102C900090930302A0930402B09305020C94B61122
:102CA000282F81E090E0A0E0B0E004C0880F991FD9
:102CB000AA1FBB1F2A95D2F740910202509103022E
:102CC000609104027091050284279527A627B727F3
:102CD0008093020290930302A0930402B093050232
:102CE0000C94B611CF93DF9300D000D0CDB7DEB7F0
:102CF00069837A838B839C83809102029091030283
:102D0000A0910402B091050229813A814B815C8136
:102D1000822B932BA42BB52B80930202909303025A
:102D2000A0930402B09305020F900F900F900F90A4
:102D3000DF91CF910C94B611CF93DF9300D000D0E8
:102D4000CDB7DEB769837A838B839C83809102023F
:102D500090910302A0910402B091050229813A8169
:102D60004B815C8182239323A423B52380930202A9
:102D700090930302A0930402B09305020F900F906A
:102D80000F900F90DF91CF910C94B611CF93DF93FA
:102D900000D000D0CDB7DEB769837A838B839C8364
:102DA0008091020290910302A0910402B091050269
:102DB00029813A814B815C8182279327A427B527FB
:102DC0008093020290930302A0930402B093050241
:102DD0000F900F900F900F90DF91CF910C94B61140
:102DE0000895E82F2DE0929FE00D11248E2F87701B
:102DF00041E001C0440F8A95EAF7E695E695E6952D
:102E000085E0E89FF0011124EF53FE4F30E020E011
:102E100070E05191DF011197CB01022E02C096950F
:102E200087950A94E2F78170819585278423852709
:102E30008C932F5F3F4F2530310559F70895E82FC8
:102E40002DE0929FE00D11249E2F9770E695E69558
:102E5000E69585E0E89FF0011124EF53FE4F50E026
:102E600040E080E0219130E0092E02C036952795A0
:102E70000A94E2F721703327042E01C0220F0A942E
:102E8000EAF7822B4F5F5F4F4530510559F70895A0
:102E9000BF92CF92DF92EF92FF920F931F93CF9347
:102EA000DF938C01C0900202D0900302E0900402F4
:102EB000F09005028091060290910702A09108020D
:102EC000B0910902C82AD92AEA2AFB2ACFE1D0E028
:102ED000BC2ED701C6010C2E04C0B695A7959795B8
:102EE00087950A94D2F780FD0EC0219788F7B12C00
:102EF0008B2DDF91CF911F910F91FF90EF90DF907D
:102F0000CF90BF900895B8018C2F0E946C09019753
:102F100061F3EECFCF93DF93D82FC92F0E944817CC
:102F20006D2F7C2FDF91CF910C946C091F93CF9361
:102F3000DF93162FD72F90918801992339F0862F90
:102F4000972FDF91CF911F910C948A17882391F0CE
:102F5000862F972F0E944817C82F682F812F9D2FEB
:102F60000E94F116612F7D2F8C2FDF91CF911F9141
:102F70000C946C09862F972F0E941F17C82FF2CF31
:102F800080910A02859585958595089580910A021C
:102F90008770089598E0899F90011124622B6093B7
:102FA0000A020C94091690910A0280958923809355
:102FB0000A02282F277061F4282F082E000C330BEB
:102FC0009217130629F08595859585950C942B16F7
:102FD000089590910A02977081E009F480E00895C5
:102FE000909112019923D9F09091350297FF17C063
:102FF000982F9695969596959F3131F1E091000125
:10300000F0910101E90FF11D877021E030E001C06E
:10301000220F8A95EAF78181822B8183089520917E
:10302000000130910101F90132969FEF40E051918A
:10303000851751F09F3F19F4511101C0942F4F5F34
:103040004E31A9F79F3F09F40895290F311D97FDCF
:103050003A95F90182830895909112019923F9F02C
:103060009091350297FF1BC0982F9695969596954F
:103070009F3131F1E0910001F0910101E90FF11D63
:10308000877021E030E0A90102C0440F551F8A95E6
:10309000E2F7CA0180959181892381830895209167
:1030A000000130910101F9013296205E3F4F91916C
:1030B000891303C0DF0111971C92E217F307B9F7D8
:1030C000089581E090E0E0910001F0910101E80FA6
:1030D000F91F1082019680329105A9F70895909109
:1030E0002E02982B90932E020895982F9095809100
:1030F0002E02892380932E02089510922E020895A5
:1031000090912D02982B90932D020895982F9095D1
:1031100080912D02892380932D02089510922D0213
:10312000089590912C02982B90932C020895982F3B
:10313000909580912C02892380932C0208951092FF
:103140002C02089580930B02089510920B020895AB
:103150002091000130910101F9013196205E3F4F2D
:1031600080E0919191118F5FE217F307D1F70895F5
:10317000E0910001F091010180912E028083E091A5
:103180000001F0910101808190912D02892B8083B3
:10319000E0910001F0910101808190912C02892B36
:1031A000808390910B02992361F0E0910001F091EE
:1031B00001018081892B80830E94A81881111092BF
:1031C0000B0280910001909101010C94DC0C6DEEDA
:1031D0007EEF90E080E00E946C2660E082E090E06C
:1031E0000E945A2660E083E090E00E945A2660E048
:1031F00084E090E00E945A2660E085E090E00C9424
:103200005A2690E080E00E9454269C0181E02D3EE9
:103210003E4F09F080E0089582E090E00C944C2647
:10322000682F82E090E00C945A2683E090E00C94A2
:103230004C26682F83E090E00C945A2684E090E0BE
:103240000C944C26682F84E090E00C945A268091D0
:103250006502843039F11092300288E190E020E478
:103260000FB6F894A895809360000FBE209360007D
:1032700080E00E944D0983B7817F846083BF83B75C
:10328000816083BF7894889583B78E7F83BF0FB6A4
:10329000F894A895809160008861809360001092F6
:1032A00060000FBE089508950895CF930E945319AA
:1032B0000E94070C0E945419C0E08C2F0E94C10C80
:1032C000892B31F4CF5FC830C1F780E0CF910895EA
:1032D00081E0FCCF0E94CA110E94D00C0C944D09D1
:1032E0001F921FB61F9211248F939F93AF93BF938A
:1032F00080913002811113C080913102909132028D
:10330000A0913302B09134024196A11DB11D80936A
:10331000310290933202A0933302B0933402BF91F2
:10332000AF919F918F911F901FBE1F90189582E0C3
:1033300084BD93E095BD9AEF97BD80936E0008958C
:103340002FB7F8948091310290913202A09133020C
:10335000B09134022FBF0895CF92DF92EF92FF9287
:103360009C014FB7F8948091310290913202A09164
:103370003302B09134024FBF6C017D01EE24FF2473
:10338000A90170E060E0C416D506E606F70638F03D
:10339000821B930BFF90EF90DF90CF9008950197E1
:1033A000F7CF1F921FB61F9211248F939F93AF9355
:1033B000BF938091310290913202A0913302B0917B
:1033C00034020196A11DB11D809331029093320207
:1033D000A0933302B0933402BF91AF919F918F912C
:1033E0001F901FBE1F9018950E94E821F8942FEFA0
:1033F00087EA91E6215080409040E1F700C000004C
:1034000087E090EBDC0180936F0290937002A093B1
:103410007102B093720288E19CE00FB6F894A8950F
:10342000809360000FBE90936000FFCFAF92BF9279
:10343000CF92DF92EF92FF920F931F93CF93C0E052
:10344000AA24A394B12CE82EF12C8C2F0E94C10C3D
:103450006C0110E000E0C501002E02C0880F991F2A
:103460000A94E2F78C219D21892B99F0602F7C2F03
:1034700080E00E945009E816F90659F481E0CF91E6
:103480001F910F91FF90EF90DF90CF90BF90AF9082
:1034900008950F5F1F4F0D301105E9F6CF5FC8305B
:1034A000A1F680E0ECCFCF93C82F8CE20E94161AD1
:1034B000882321F08C2FCF910C94161A80E0CF91A5
:1034C0000895CF93DF9300D000D0CDB7DEB70E9430
:1034D0000119811102C00E94E71895E6998308C07E
:1034E0000E94070C8FE39CE90197F1F700C00000F0
:1034F000A981A150A983A111F3CF89E20E94531A97
:10350000811110C18AE20E94531A81110E94E718AA
:1035100085E00E94531A81110E94F4190E940C192F
:1035200080932F0287E00E94531A882371F08BE169
:103530000E94531A882309F4D1C090912F02892F39
:103540008D7F91FF826080932F0280912F020E94D5
:1035500010190E941E1990E0909336028093350254
:1035600080EE0E94531A882341F090913502892FF2
:103570008E7F90FF81608093350289E30E94531A09
:10358000882341F090913502892F8D7F91FF8260D1
:103590008093350282EE0E94531A882341F0909165
:1035A0003502892F8B7F92FF84608093350286EEEF
:1035B0000E94531A882341F090913502892F877F0A
:1035C00093FF88608093350283EE0E94531A88230C
:1035D00041F090913502892F8F7E94FF8061809316
:1035E000350285E30E94531A882341F090913502F9
:1035F000892F8F7D95FF80628093350281E30E9441
:10360000531A882341F090913502892F8F7B96FFC2
:1036100080648093350281E10E94531A882341F02F
:1036200090913502892F97FB87F980588093350256
:10363000809135020E94221987E20E94531A8983E1
:103640008EE10E94531A882319F0B981B260B983C0
:103650008FE10E94531A882319F02981246029835D
:1036600080E20E94531A882319F039813860398327
:1036700081E20E94531A882319F0498140614983ED
:1036800082E20E94531A882319F0598150625983AB
:1036900083E20E94531A882319F089818064898308
:1036A00084E20E94531A8823B1F19981906899832A
:1036B00089810E9419193981232F30E050E040E0C0
:1036C00029833A834B835C83CA01B9010F900F9021
:1036D0000F900F90DF91CF910C9462158EE00E94B5
:1036E000531A882339F090912F02892F8B7F92FFF4
:1036F000846029CF80E10E94531A90912F02882381
:1037000029F0892F877F93FF88601DCF892F8E7FB7
:1037100090FF816018CFA981A111CACF0E9415190D
:10372000282FCBCF0F900F900F900F90DF91CF915C
:1037300008958091390280FF12C06091050185E0F3
:10374000689FB001112475956795759567956038E8
:103750007105A8F561157105A1F1862F089581FF06
:1037600009C06091050185E0689FB001112475953D
:103770006795EDCF6091050182FD0AC080913A0204
:103780008823D1F09091040160910501891728F0F8
:1037900085E0689FB0011124DACF869FB001112423
:1037A00085E0869F9001879F300D1124692F70E07E
:1037B000C9010E941B26CBCF65E070E0CECF8FE71A
:1037C000089581E008958091390280FF0CC06091D6
:1037D000030170E07595679575956795611571059D
:1037E00049F1862F089581FF06C06091030170E0C2
:1037F00075956795F3CF6091030182FD0BC09091A1
:103800003A029923A1F06091020180910301961779
:1038100038F0682F70E06038710500F38FE7089585
:10382000899FC001112470E00E941B26F4CF61E043
:1038300070E0D7CF81E00895803F31F40E94991B5A
:10384000819580933D020895813F19F40E94991B50
:10385000F8CF823F31F40E94991B819580933C02FE
:103860000895833F19F40E94991BF8CF893F29F4EA
:103870000E94E31B80933E0208958A3F21F40E9438
:10388000E31B8195F7CF8B3F31F40E94E31B8195B9
:1038900080933F0208958C3F19F40E94E31BF8CFF8
:1038A000843F31F480913B02816080933B02089514
:1038B000853F21F480913B028260F7CF863F21F45F
:1038C00080913B028460F1CF873F21F480913B02DD
:1038D0008860EBCF883F21F480913B028061E5CF87
:1038E0008D3F31F4809139028160809339020895CF
:1038F0008E3F21F4809139028260F7CF8F3FB9F774
:10390000809139028460F1CF90913C02803F41F474
:1039100080913D0287FD10923D02992371F0089538
:10392000813F29F480913D021816ACF3F6CF823F17
:1039300081F497FFF2CF10923C0280913D0290916A
:103940003E02892B90913F02892B49F710923A024F
:103950000895833F19F4191674F3DFCF893F39F4C2
:1039600080913E021816CCF610923E02D6CF8A3FC6
:1039700029F480913E0287FFD0CFF6CF8B3F39F4F8
:1039800080913F0287FFC9CF10923F02C6CF8C3F84
:1039900029F480913F021816BCF3BFCF843F31F465
:1039A00080913B028E7F80933B02B7CF853F21F40D
:1039B00080913B028D7FF7CF863F21F480913B02BF
:1039C0008B7FF1CF873F21F480913B02877FEBCF44
:1039D000883F21F480913B028F7EE5CF8D3F31F40B
:1039E000809139028E7F8093390297CF8E3F21F4E8
:1039F000809139028D7FF7CF8F3F09F08ECF809174
:103A000039028B7FF0CF8BE392E00E94E70C0E949B
:103A1000A019909338028093370208951F93CF9393
:103A2000DF9300D000D000D0CDB7DEB78091370251
:103A3000909138020E94AC19AC0180913A02209119
:103A4000060130E0811106C0209107019AE0299F0C
:103A5000900111244217530788F020913C02A09155
:103A60003D02A98310913E02B0913F02BE83211115
:103A70000FC09A2F912B9B2B09F0B2C026960FB640
:103A8000F894DEBF0FBECDBFDF91CF911F91089597
:103A90008F3F19F08F5F80933A02121624F40E9430
:103AA000991B80933C0280913C0287FF05C00E94D5
:103AB000991B819580933C022981121624F40E945F
:103AC000991B80933D0280913D0287FF05C00E94B3
:103AD000991B819580933D0280913C02882309F4D3
:103AE00055C030913D023D83332309F44FC0282F48
:103AF000880F330B440B550B29833A834B835C832C
:103B0000CA01B9010E94222523E333E343E35FE3C3
:103B100069837A838B839C8369817A818B819C8181
:103B20000E94862569837A838B839C8369817A814D
:103B30008B819C810E94EA2460933C028D81082E37
:103B4000000C990BAA0BBB0B89839A83AB83BC83B4
:103B5000BC01CD010E94222523E333E343E35FE36D
:103B600069837A838B839C8369817A818B819C8131
:103B70000E94862569837A838B839C8369817A81FD
:103B80008B819C810E94EA2460933D02111624F4EB
:103B90000E94E31B80933E0280913E0287FF05C096
:103BA0000E94E31B819580933E029E81191624F4A6
:103BB0000E94E31B80933F0280913F0287FF05C074
:103BC0000E94E31B819580933F0226960FB6F894DE
:103BD000DEBF0FBECDBFDF91CF911F910C94031DAF
:103BE0008F3F09F057CF68CF85E0EBE3F2E0DF01CC
:103BF0001D928A95E9F710923A02109239020895BF
:103C0000809160020895CF93DF9300D00F92CDB7DB
:103C1000DEB720916502243019F523E029838A83D9
:103C20009B832093E9008FEF9091E800815095FDF0
:103C300006C095ED9A95F1F700008111F5CF8091BE
:103C4000E80085FF0DC050E040E063E070E0CE0189
:103C500001960E9460208091E8008E778093E800B2
:103C60000F900F900F90DF91CF910895CF93DF9336
:103C700000D00F92CDB7DEB79C01809165028430F1
:103C800031F582E08983205831093B832A8383E020
:103C90008093E9008FEF9091E800815095FD06C078
:103CA00095ED9A95F1F700008111F5CF8091E8002C
:103CB00085FF0DC050E040E063E070E0CE0101966A
:103CC0000E9460208091E8008E778093E8000F903A
:103CD0000F900F90DF91CF910895209165022430CD
:103CE000F1F422E02093E9002FEF3091E800215019
:103CF00035FD06C035ED3A95F1F700002111F5CFFD
:103D00002091E80025FF0BC050E040E065E070E046
:103D10000E9460208091E8008E778093E8000895EB
:103D2000CF93DF93D82FC92F809165028430F1F4AF
:103D3000909112019923E9F09091350297FF19C0F3
:103D40008093E9008FEF9091E800815095FD06C0C7
:103D500095E19A95F1F700008111F5CF8091E80087
:103D600050E040E060E270E085FD1AC0DF91CF9145
:103D7000089581E08093E9008FEF9091E8008150F1
:103D800095FD06C095ED9A95F1F700008111F5CFEC
:103D90008091E80085FFEACF50E040E068E070E005
:103DA0008D2F9C2F0E9460208091E8008E77809359
:103DB000E80080E2ED2FFC2FA0E4B2E001900D922C
:103DC0008A95E1F7D3CF80916E02811109C00E94DC
:103DD000E8210E944A228091E20084608093E20000
:103DE000089510926E020895089508950C946A192A
:103DF00042E061EC81E00E94642142E061EC82E0FB
:103E00000E94642142E061EC83E00E94642142E26E
:103E100061EC84E00C94642180916702893089F11F
:103E200048F4823009F494C0833009F44FC08130E3
:103E300041F008958A3009F47BC08B3009F461C0E9
:103E4000089580916602813A09F03FC08091E800B0
:103E5000877F8093E80080916A0290916B02892BA2
:103E600061F460E280E492E070E00E94AF20809113
:103E7000E8008B778093E800089560E090E080E0B0
:103E8000F3CF80916602813201F580916A029091B0
:103E90006B02009711F00397C1F48091E800877FCF
:103EA0008093E8008091E80082FF0BC08091F100D0
:103EB000809360028091E8008B778093E8000C94F7
:103EC0009821809165028111EDCF0895809166025D
:103ED000813AD9F780916A0290916B02892BA9F7F8
:103EE0008091E800877F8093E8008091E80080FF60
:103EF000FCCF809112018093F1008091E8008E77D1
:103F0000DCCF80916602813201F780916A02909144
:103F10006B02892BD1F68091E800877F8093E800BF
:103F20000E94982180916802809312010C94CA111A
:103F300080916602813249F68091E800877F809304
:103F4000E8000E949821809169028093610208959F
:103F500080916602813A09F0B8CF8091E800877FAE
:103F60008093E8008091E80080FFFCCF809161029F
:103F7000C2CF84B7877F84BF0FB6F894A89580918D
:103F80006000886180936000109260000FBE80E83E
:103F900080936100109261000E941F0D0E94E82131
:103FA0000E944A228091E20084608093E20078942B
:103FB0000E94CF240E94210D88E091E00E94CB0C4A
:103FC00080916502853019F00E94270DF9CF0E947B
:103FD000271980916202882399F30E94551988233A
:103FE00079F30E944A20ECCF9C01DA01892F9927AE
:103FF00083309105C1F068F48130910509F445C022
:10400000029761F48DE690E028EC3DE02D933C931F
:10401000089581329105E1F0829739F190E080E0D6
:1040200030E020E0F3CFC9019927213059F08230E8
:10403000910559F0E4ECFDE0892B81F7849190E043
:104040009F01E4CFECEAFDE0F9CFE8E9FDE0F6CF2F
:10405000643020F7E62FF0E0EE0FFF1FEC5CFE4F20
:104060002081318189E090E0D1CF6430B8F670E0F2
:10407000FB01EE0FFF1FE45DFE4F20813181685D83
:104080007E4FFB01808190E0C1CF82E190E025E38B
:104090003EE0BCCF84E189BD86E189BD09B400FE64
:1040A000FDCF8091D8008F7D8093D8008091E00073
:1040B00082608093E0008091E00081FDFCCF089554
:1040C000AF92BF92CF92DF92FF920F931F93CF9345
:1040D000DF936C01EB018A010E94B721F82E811158
:1040E00023C00115110539F0F80180819181C81BA9
:1040F000D90BC80ED91EB12CA12C2097A9F0809104
:10410000E80085FD22C08091E8008E778093E8006A
:1041100001151105A1F0F80180819181A80EB91E49
:10412000B182A08285E0F82E8F2DDF91CF911F9173
:104130000F91FF90DF90CF90BF90AF9008950E94B5
:10414000B7218823D1F2F82EEFCFF60181916F01CC
:104150008093F1002197FFEFAF1ABF0ACECFFC0189
:10416000CB0120916C0230916D022617370790F039
:10417000009729F42091E8002E772093E80040E092
:10418000009751F4411108C08091E80082FF31C0CE
:1041900080E00895C901F3CF209165022223A9F19F
:1041A0002530A9F12091E80023FD2DC02091E800E1
:1041B00022FDEACF2091E80020FFE2CF2091F2001B
:1041C0003091F300009719F02830310558F041E0A4
:1041D0002830310509F040E02091E8002E77209347
:1041E000E800CECF41914093F10001972F5F3F4F00
:1041F000E9CF80916502882341F0853041F08091BC
:10420000E80083FFC1CF81E0089582E0089583E054
:104210000895FC01CB0120916C0230916D022617AC
:10422000370790F0009729F42091E8002E7720932B
:10423000E80040E0009751F4411108C08091E80087
:1042400082FF32C080E00895C901F3CF209165025A
:104250002223B1F12530B1F12091E80023FD2EC0D9
:104260002091E80022FDEACF2091E80020FFE2CF74
:104270002091F2003091F300009719F028303105B9
:1042800058F041E02830310509F040E02091E80085
:104290002E772093E800CECF44914093F1003196E1
:1042A00001972F5F3F4FE8CF80916502882341F04F
:1042B000853041F08091E80083FFC0CF81E0089510
:1042C00082E0089583E00895982F973028F08F704A
:1042D0008093E90081E008959093E900242F762FE0
:1042E00050E0981731F07091EC002091ED00509162
:1042F000F00021FD02C09F5FE8CF3091EB003E7FD0
:104300003093EB003091ED003D7F3093ED00309124
:10431000EB0031603093EB007093EC002093ED00E4
:104320005093F0002091EE0027FDE5CF80E0089546
:104330008091660287FF13C08091E80082FF06C06B
:104340008091E8008B778093E80004C0809165023B
:104350008111F2CF0895809165028823D9F380916D
:10436000E80080FFF8CF8091E8008E77ECCF2091B5
:10437000E4003091E50095E6A9012091EC00822F40
:10438000817020FF06C08091E80080FF06C080E0B9
:1043900008952091E80022FD1AC0809165028823CB
:1043A00089F0853089F08091EB0085FD0FC0209168
:1043B000E4003091E50042175307F9F29150E1F61D
:1043C00084E0089582E0089583E0089581E00895EF
:1043D0000E9459220E946122E0EEF0E0808181601B
:1043E0008083E8EDF0E080818F77808319BCA7EDB2
:1043F000B0E08C918E7F8C9380818F7E8083109231
:104400006E0208950F931F93CF93DF930E9459225A
:104410000E946122C8EDD0E088818F7788838881EF
:104420008068888388818F7D8883E7EDF0E08081D4
:104430008068808319BC1092650210926402109209
:1044400062021092630200EE10E0F80180818B7F1F
:10445000808388818160888342E060E080E00E9400
:104460006421E1EEF0E080818E7F8083E2EEF0E077
:10447000808181608083808188608083F801808171
:104480008E7F8083888180618883DF91CF911F91A7
:104490000F910895E8EDF0E080818F7E8083E7ED55
:1044A000F0E080818160808381E080936E020C94D3
:1044B0000222E8EDF0E080818C7F80831092E200A0
:1044C00008951092DA001092E10008951F920F9261
:1044D0000FB60F9211240BB60F922F933F934F9369
:1044E0005F936F937F938F939F93AF93BF93EF935C
:1044F000FF938091E10082FF0BC08091E20082FF78
:1045000007C08091E1008B7F8093E1000E94CE2460
:104510008091DA0080FF19C08091D80080FF15C01B
:104520008091DA008E7F8093DA008091D90080FF3D
:1045300096C084E189BD86E189BD09B400FEFDCF46
:1045400081E0809365020E94E31E8091E10080FF7C
:1045500019C08091E20080FF15C08091E2008E7F3B
:104560008093E2008091E20080618093E20080917C
:10457000D80080628093D80019BC85E080936502E2
:104580000E94F51E8091E10084FF29C08091E20025
:1045900084FF25C084E189BD86E189BD09B400FEA0
:1045A000FDCF8091D8008F7D8093D8008091E1006D
:1045B0008F7E8093E1008091E2008F7E8093E20005
:1045C0008091E20081608093E20080916402882300
:1045D00009F44BC084E0809365020E94F61E80912E
:1045E000E10083FF29C08091E20083FF25C0809114
:1045F000E100877F8093E10082E080936502109262
:1046000064028091E1008E7F8093E1008091E2005E
:104610008E7F8093E2008091E20080618093E200CF
:1046200042E060E080E00E9464218091F0008860B8
:104630008093F0000E94F41EFF91EF91BF91AF9123
:104640009F918F917F916F915F914F913F912F91AA
:104650000F900BBE0F900FBE0F901F90189519BCB6
:10466000109265020E94F11E70CF8091E30087FDD9
:1046700002C081E0B0CF83E0AECF1F920F920FB6A1
:104680000F9211240BB60F922F933F934F935F938A
:104690006F937F938F939F93AF93BF93CF93DF934A
:1046A000EF93FF93D091E900DF708091EC00C82F69
:1046B000C17080FDC0E81092E9008091F000877F12
:1046C0008093F00078940E9485231092E9008091F5
:1046D000F00088608093F000CD2BCF70C093E9008C
:1046E000FF91EF91DF91CF91BF91AF919F918F910A
:1046F0007F916F915F914F913F912F910F900BBEE2
:104700000F900FBE0F901F9018951F93CF93DF93BC
:10471000CDB7DEB7AA970FB6F894DEBF0FBECDBFF8
:1047200086E692E0FC0101962091F100208322E0D0
:104730008E369207B9F70E940C1F8091E80083FF24
:1047400015C180916602909167029A3008F00EC1FF
:10475000E92FF0E0EA55F94D0C942F26803881F0CE
:10476000823809F003C180916A028F708093E9005A
:104770008091EB0085FB882780F91092E90006C044
:104780008091630290916202911182609091E800A1
:10479000977F9093E8008093F1001092F100809150
:1047A000E8008E77DFC0882309F4CDC0823009F09D
:1047B000DDC0809168028111D0C080916A028F7043
:1047C00009F4D4C08093E9002091EB0020FFC5C01C
:1047D000933031F48091EB0080628093EB00BDC098
:1047E0009091EB0090619093EB0021E030E001C0EC
:1047F000220F8A95EAF72093EA001092EA0080914E
:10480000EB008860EACF8111B1C0109168021F7778
:104810008091E3008078812B8093E3008091E80011
:10482000877F8093E8000E9498218091E80080FFB4
:10483000FCCF8091E30080688093E30082E0111157
:1048400083E08093650292C08058823008F08EC069
:1048500080916802909169028C3D23E0920799F55E
:1048600083E08A838AE289834FB7F894DE01139646
:1048700020E03EE051E2E32FF0E0509357008491B6
:1048800020FF03C082958F703F5F8F708A30C8F021
:10489000895C90E08D939D932F5F243161F74FBF2A
:1048A0008091E800877F8093E8006AE270E0CE01A3
:1048B00001960E94AF208091E8008B778093E800FA
:1048C00055C0805DE6CFAE014F5F5F4F60916A02D9
:1048D0000E94F41FBC01892B09F448C08091E800B4
:1048E000877F8093E80089819A810E940921E3CF24
:1048F0008038E1F58091E800877F8093E80080911F
:1049000064028093F1004BCF811130C09091680216
:10491000923060F58091E800877F8093E800909363
:1049200064020E94982180916402882311F084E03F
:1049300005C08091E30087FDFACF81E08093650296
:104940000E94F81E13C080916802813079F481E0E2
:10495000933009F080E0809362021092E900809128
:10496000E800877F8093E8000E9498218091E8000A
:1049700083FF0AC08091E800877F8093E8008091E0
:10498000EB0080628093EB00AA960FB6F894DEBF2E
:104990000FBECDBFDF91CF911F9108950895CF93A2
:1049A000809165028823A1F0C091E900CF709091B9
:1049B000EC00892F817090FD80E8C82B1092E900EF
:1049C0008091E80083FD0E948523CF70C093E900A9
:1049D000CF9108950E94F1246894B1110C94802520
:1049E00008950E94652588F09F5798F0B92F992760
:1049F000B751B0F0E1F0660F771F881F991F1AF0CA
:104A0000BA95C9F714C0B13091F00E947F25B1E08A
:104A100008950C947F25672F782F8827B85F39F089
:104A2000B93FCCF3869577956795B395D9F73EF462
:104A300090958095709561957F4F8F4F9F4F08950A
:104A4000E89409C097FB3EF4909580957095619528
:104A50007F4F8F4F9F4F9923A9F0F92F96E9BB27DE
:104A60009395F695879577956795B795F111F8CF5A
:104A7000FAF4BB0F11F460FF1BC06F5F7F4F8F4FC5
:104A80009F4F16C0882311F096E911C0772321F0BB
:104A90009EE8872F762F05C0662371F096E8862F53
:104AA00070E060E02AF09A95660F771F881FDAF7AA
:104AB000880F9695879597F9089557FD9058440F5C
:104AC000551F59F05F3F71F04795880F97FB991F6D
:104AD00061F09F3F79F0879508951216130614062A
:104AE000551FF2CF4695F1DF08C0161617061806B7
:104AF000991FF1CF86957105610508940895E89492
:104B0000BB2766277727CB0197F908950E9499253F
:104B10000C940A260E94FC2538F00E94032620F0FF
:104B2000952311F00C94F3250C94F92511240C9481
:104B300080250E945D2570F3959FC1F3950F50E08D
:104B4000551F629FF001729FBB27F00DB11D639F3F
:104B5000AA27F00DB11DAA1F649F6627B00DA11DE5
:104B6000661F829F2227B00DA11D621F739FB00D8B
:104B7000A11D621F839FA00D611D221F749F3327FB
:104B8000A00D611D231F849F600D211D822F762F94
:104B90006A2F11249F5750409AF0F1F088234AF071
:104BA000EE0FFF1FBB1F661F771F881F91505040DD
:104BB000A9F79E3F510580F00C94F3250C948025B5
:104BC0005F3FE4F3983ED4F3869577956795B79564
:104BD000F795E7959F5FC1F7FE2B880F911D96957E
:104BE000879597F9089597F99F6780E870E060E0EE
:104BF00008959FEF80EC089500240A941616170676
:104C000018060906089500240A94121613061406BD
:104C100005060895092E0394000C11F4882352F020
:104C2000BB0F40F4BF2B11F460FF04C06F5F7F4FD8
:104C30008F4F9F4F089597FB072E16F4009407D0CF
:104C400077FD09D00E94382607FC05D03EF49095E8
:104C500081959F4F0895709561957F4F0895EE0F50
:104C6000FF1F0024001C0BBE0790F691E02D099455
:104C7000AA1BBB1B51E107C0AA1FBB1FA617B70782
:104C800010F0A61BB70B881F991F5A95A9F780959E
:104C90009095BC01CD010895F999FECF92BD81BDDB
:104CA000F89A992780B50895A8E1B0E042E050E075
:104CB0000C947426262FF999FECF92BD81BDF89AE7
:104CC000019700B4021639F01FBA20BD0FB6F89450
:104CD000FA9AF99A0FBE08950196272F0E945B2633
:104CE0000C945A26DC01CB01FC01F999FECF06C0D9
:104CF000F2BDE1BDF89A319600B40D92415050409A
:104D0000B8F70895F894FFCFB808C408C808CC08CD
:104D1000D008D408D808DC08E008E408E808EC0863
:104D2000F008F408F808FC0800090409710F710F75
:104D3000C90FC90F0D102910A10FA10F3410A10F19
:104D4000001100116B11A10FA10F7411AE23D32319
:104D5000B624D323B62403242424B624782484241C
:104D60000C022808140A321E001E901E6D1E361EEC
:104D7000031E0193949592C0C16061626465666789
:104D8000F0F1F2F3F4F5F6F7404D3639030FB60EB5
:0C4D9000800E470EDA0DF30D0C0E250E00
:00000001FF
