:100000000C941F020C943E020C943E020C943E028F
:100010000C943E020C943E020C943E020C943E0260
:100020000C943E020C943E020C94E41D0C94BB1EF6
:100030000C94AF180C943E020C943E020C943E02B9
:100040000C943E020C943E020C943E020C943E0230
:100050000C943E020C9449190C943E020C943E02FE
:100060000C943E020C943E020C943E020C943E0210
:100070000C943E020C943E020C943E020C943E0200
:100080000C943E020C943E020C943E020C943E02F0
:100090000C943E020C943E0252005000E3004F00CC
:1000A00051000000E2005D005A004E002B03580092
:1000B0002C005700560055002C002C002C002C0062
:1000C0002C002C002C00670060004B004E006300E9
:1000D0005B005E00610054002C002C002C002C0002
:1000E0002C002C00E3004D004D004A004C00620043
:1000F00059005C005F005300E5001D001B00060076
:1001000019000500110010003600370038000151B9
:100110004E004D00E4002C00E10004001600070032
:1001200009000A000B000D000E000F0033004C0008
:10013000AB00310028003400E2002B0014001A004C
:100140000800150017001C0018000C001200AC007D
:100150002C0030002F001300390029001E001F0062
:1001600020002100220023002400250026004C004E
:100170002A002E002D002700E0003A003B003C0042
:100180003D003E003F004000410042004300AE0001
:10019000460035004500440017032B0309012B01DD
:1001A0001A010000010001000100AB000100010084
:1001B0000100010001000100010001000100010037
:1001C00001000100010001000100AC00010001007C
:1001D0000100010001000100010001000100010017
:1001E000010001000100AE000100AD0001000100AE
:1001F0000100010001000100E60001000100010012
:1002000001000100010001000100010001000100E6
:1002100001000100E40001000100010001000100F3
:1002200001000100010001000100010001000100C6
:10023000A9006400650001000100005C01000100EC
:100240000100010001000100010001000100AA00FD
:1002500001000100010001000100A50001000100F2
:100260000100010001000100010001000100010086
:1002700001000100010001000100680069006A003E
:100280006B006C006D006E006F0070007100A800C4
:1002900049004800730072003403220054004900F2
:1002A00020004C006F0077002000500072006F00AB
:1002B000660069006C00650020004B006500790055
:1002C00062006F00610072006400220000002603DB
:1002D000220054006500780061007300200049008E
:1002E0006E0073007400720075006D0065006E0092
:1002F0007400220000000403090409023B0002010B
:1003000000A0FA0904000001030101000921110104
:1003100000012240000705810308000109040100D3
:10032000010300000009211101000122B6000705A8
:1003300082032000011201000200000008EDFE69A6
:100340006909000102000105010902A101850209F4
:1003500001A1000509190129081500250195087555
:100360000181020501093009311581257F9502754A
:1003700008810609381581257F95017508810605D4
:100380000C0A38021581257F950175088106C0C0C9
:1003900005010980A101850319012AB7001501266D
:1003A000B700950175108100C0050C0901A10185F8
:1003B0000419012AA002150126A0029501751081D9
:1003C00000C005010906A1018506050719E029E716
:1003D000150025019508750181020507190029EF0F
:1003E0001500250195F075018102050819012905FF
:1003F000950575019102950175039101C0050109EB
:1004000006A101050719E029E715002501950875E2
:100410000181029501750881010507190029FF1561
:100420000026FF00950675088100050819012905B9
:10043000950575019102950175039101C000112484
:100440001FBECFEFD0E2DEBFCDBF11E0A0E0B1E034
:10045000E4E7F2E400E00BBF02C007900D92AE3873
:10046000B107D9F722E0AEE8B1E001C01D92A33F89
:10047000B207E1F70E94E4120C94F4200C940000FF
:10048000229A2A9A0895CF93C82F0E941503882391
:1004900019F0C1FF03C02A9ACF9108952A98FCCF82
:1004A00081E0089581E008950C94520208950C941F
:1004B00056021F93CF93DF9300D000D00F92CDB799
:1004C000DEB749835A836B833091910189819A8188
:1004D00031111DC06623B9F02223A9F00E945109F1
:1004E000182F682F89819A810E94FD0869817A817D
:1004F000812F0F900F900F900F900F90DF91CF9161
:100500001F910C9420100E942909182FEFCF0E94F0
:10051000510969817A81EDCFFC01262F40815181FB
:100520006281738184810C94590281E00895CF9394
:10053000DF93D82FC92F60E00E948C026D2F7C2F93
:10054000DF91CF910C9457020C9469110C946C11AB
:1005500008950E94E1060E94A8022FEF84E39CE028
:10056000215080409040E1F700C000000C946D19CC
:100570000F931F93CF93DF938C0161E00E948C0255
:10058000EC01B8010E9454028823A9F1B801CE0100
:100590000E94FA16882379F1B801CE010E946315F2
:1005A000882349F1B801CE010E945F16882319F112
:1005B000F8018281882361F0CB35FDE5DF0721F169
:1005C00070F4C115ECE5DE07A1F0CF3DDC45C9F0C4
:1005D000C801DF91CF911F910F910C945002CC353F
:1005E0008DE5D807A1F0CD35DD4591F70E94860D48
:1005F000EFCF0E94A90280E0DF91CF911F910F9170
:1006000008950E94400EF7CF0E948F0DE1CF0E9407
:10061000920DDECF0E9493180C9420030E942303B6
:100620000C94971808950C94120381E0089508958E
:10063000CF93C82F0E9413038C2FCF910C944302A9
:1006400080E00C9418030E9459170C9418030E9420
:10065000591790919001981721F0809390010C9474
:1006600018030895EF92FF920F931F93CF93DF9398
:10067000CDB7DEB72B970FB6F894DEBF0FBECDBF58
:10068000042F4F83152F588769877A878B87EA84D1
:10069000FB8461110E94D40C1E8285E0FE01379616
:1006A000DE01119601900D928A95E1F7EF28A9F4E9
:1006B00049815A816B817C818D819E810E94F30BDF
:1006C0002B960FB6F894DEBF0FBECDBFDF91CF9152
:1006D0001F910F91FF90EF90089510231F3F41F35A
:1006E000CE0101960E9495028111E2CFE9CFFC0173
:1006F000808191810C949309CF93C82F882309F4AA
:1007000046C08CEF8C0F813AA0F46C2F80910201CF
:10071000909103010E94CF17882329F08C2F0E940B
:10072000940C0E94F40C8C2F0E948D0CCF910C9491
:10073000F40C80E28C0F883048F4C77081E001C06F
:10074000880FCA95EAF70E94B50CF0CF8BE58C0FA5
:10075000833038F42C2F2452330BC901CF910C94E1
:100760008F17E8E5EC0FE73150F4F0E0EE0FFF1FD4
:10077000E75EFE4F80819181CF910C94A517CD3E0D
:1007800030F08C2F0E946813CF910C942A14CF91D3
:100790000895882361F19CEF980F913A20F40E940C
:1007A000940C0C94F40C90E2980F983050F48770ED
:1007B00091E001C0990F8A95EAF7892F0E94BB0C3E
:1007C000F0CF9BE5980F933020F490E080E00C94FC
:1007D0008F1798E5980F973120F490E080E00C9403
:1007E000A5178D3E20F00E94B1130C942A14089591
:1007F0001F93CF93DF93182FEB010E947C03209768
:1008000031F4812FDF91CF911F910C94C9038FE9AF
:100810009FE00197F1F700C000002197F0CF70E052
:1008200060E0893311F460E570E00C94F8038823EC
:1008300021F00E94B50C0C94F40C0895882321F04B
:100840000E94BB0C0C94F40C0895AF92BF92CF920F
:10085000DF92EF92FF920F931F93CF93DF9300D01D
:1008600000D00F92CDB7DEB76C016D837983FC01A8
:100870001281F580F2948FE0F8220E94AB0CE82EF2
:100880008823B9F0E12E1123A1F08981807F803483
:1008900021F08D81805E8830C8F08091C10282FD98
:1008A00015C082E00E94550D0E94AB0C91E0E82E2D
:1008B000E926898182958F70A82EB12C8C3008F0A2
:1008C0006CC0F501EA50FF4D0C948820E12CF1CF6B
:1008D00009810F70F981F07F11F00295007F1123DB
:1008E000A1F0002361F08D81805E883018F01D81B9
:1008F000111107C0802F0E94B50C0E94F40C8D814D
:1009000044C0802F0E94C60CF8CF8D810E94C9037D
:10091000002309F442C08D81805E883018F01D816B
:10092000111104C0802F0E94BB0C03C0802F0E94B5
:10093000CC0C0E94F40C31C009810F702981207FFA
:10094000203211F00295007F3D81332381F0313058
:1009500009F471C0112309F47BC0FF2009F471C0B0
:10096000F601858180FFCBCF8F7085836AC080912F
:10097000C10282FF40C0112359F0002329F0802FCB
:100980000E94B50C0E94F40C80E00E947C0305C01C
:1009900080E00E94C9030111C5CF88E0A81AB10800
:1009A00094E0A916B10420F40E9459170E9418037C
:1009B000EE2009F49FC10E94A70C80FD9BC1F601A7
:1009C00012820E94A10C0E94ED07C6010E94A1069E
:1009D0000E94A10C0F900F900F900F900F90DF913D
:1009E000CF911F910F91FF90EF90DF90CF90BF902C
:1009F000AF900C941E08112389F0F11006C00E94DC
:100A0000D70C802B0E941704C8CF81E0F812F7CFD3
:100A10000E94D70C802B0E94DD0CBFCFF11006C0C6
:100A20000E94EA0C802F0E941E04B7CF91E0F916B5
:100A300009F4B3CFF5CF112331F0E5E0EF1508F459
:100A4000ACCF802FDFCFF4E0FF1508F4A6CFEACFBC
:100A5000FF2041F30D81093349F41FEF27EE33E006
:100A6000115020403040E1F700C000008D810E940D
:100A7000C90393CF898186958695837069F081300B
:100A800009F08BCF8D8199819370111102C090E094
:100A900080E00E94A51781CF8D81998193701111FB
:100AA00002C090E080E00E948F1777CF8D811123E4
:100AB00029F00E9468130E942A146FCF0E94B1137C
:100AC000FACF8981837009F050C0111166CF2D8152
:100AD000229526952770220F220F4D814F7050E0EE
:100AE00070E060E0022E04C0440F551F661F771FA0
:100AF0000A94D2F70D8180E090E0DC0104FF0FC082
:100B00008FE090E0A0E0B0E004C0880F991FAA1F1A
:100B1000BB1F2A95D2F780959095A095B095198125
:100B20001695169513701D838C019D01042B152BB2
:100B3000262B372B09831A832B833C831D816981E4
:100B40007A818B819C81123051F0133059F0113031
:100B500019F00E94630721CF0E943B071ECF0E941D
:100B60008B071BCF0E94390718CF112309F448C007
:100B7000098100FF12CF2D81229526952770220F23
:100B8000220F4D814F7050E070E060E0022E04C0F3
:100B9000440F551F661F771F0A94D2F70D8180E01E
:100BA00090E0DC0104FF0FC08FE090E0A0E0B0E037
:100BB00004C0880F991FAA1FBB1F2A95D2F78095E2
:100BC0009095A095B09519811695169513701D8373
:100BD0008C019D01042B152B262B372B09831A839F
:100BE0002B833C831D8169817A818B819C811230AA
:100BF00071F0133079F0113039F00E94AC08CDCE8D
:100C0000198111FFCACEB7CF0E948408C6CE0E94B8
:100C1000D408C3CE0E94B707C0CE09810F700983E4
:100C2000112329F0802F0E94ED078D81EBCE8D815D
:100C30000E941E0489810E941E08AFCE0D81023FD2
:100C400059F160F4003FC1F0013F89F0112309F42C
:100C50004CC0F11054CE89818F7122C00D81033FA9
:100C600011F1043F99F78091C10282FF26C089816A
:100C70008F71112301F314C0112349F014E01F15E3
:100C800008F48BCE89818F710E94530886CE25E0AF
:100C90002F1508F482CEF6CF89818F711111CBCF39
:100CA0000E94ED077ACE112329F089818F710E946D
:100CB000C80773CE0E94C30770CE112359F0098173
:100CC0000F710983802F0E94ED0763E089810E94E4
:100CD0003A0D63CE81E00E94550D11E01F1508F01A
:100CE0005CCE82E00E94550D58CEF110B3CE8981C2
:100CF0008F71A1CF0F900F900F900F900F90DF91F9
:100D0000CF911F910F91FF90EF90DF90CF90BF9008
:100D1000AF9008950F931F93CF93DF93EC016881F9
:100D200079818A810E949F098C010E94FC080E949F
:100D30003807B801CE01DF91CF911F910F910C942C
:100D40002504CF93DF93EC01988189812B813C812D
:100D5000232B19F089238F3F59F4DF91CF91089508
:100D6000CE010E948A06CE01DF91CF910C949702AA
:100D7000CE010E94B8028111F3CF0E94AB0C8823F0
:100D800061F38A81882349F38091C10282FDE5CF16
:100D900082E0DF91CF910C94550D90E080E00E94AD
:100DA0008F1790E080E00E94A5170E94D40C0E944B
:100DB000F40C0E9455150C942A140E949B0C0C9460
:100DC000CD060E94C30C0C94DD06282F92959F70CF
:100DD000963091F060F4925F9F70923030F481E031
:100DE000203F81F030F4283E30F080E008959A5F93
:100DF000F3CF243FD1F7089581E0283EE0F3213F6F
:100E0000A1F7F9CF0895FC01808191810E94930997
:100E10000C94E506CF93DF9300D000D00F92CDB7AE
:100E2000DEB70F900F900F900F900F90DF91CF9142
:100E30000895CF93DF9300D000D000D0CDB7DEB7B8
:100E400026960FB6F894DEBF0FBECDBFDF91CF91CF
:100E5000089508950C9429070E942A076093E601DB
:100E60007093E7018093E8019093E9010C94CD061B
:100E700008950C942C07CF93DF9300D000D0CDB70A
:100E8000DEB769837A838B839C838091E60190919E
:100E9000E701A091E801B091E90129813A814B81F4
:100EA0005C81282B392B4A2B5B2B29833A834B837C
:100EB0005C83CA01B9010F900F900F900F90DF91E2
:100EC000CF910C942C07CF93DF9300D000D0CDB7F7
:100ED000DEB769837A838B839C838091E60190914E
:100EE000E701A091E801B091E90129813A814B81A4
:100EF0005C81282339234A235B2329833A834B834C
:100F00005C83CA01B9010F900F900F900F90DF9191
:100F1000CF910C942C07CF93DF9300D000D0CDB7A6
:100F2000DEB769837A838B839C838091E6019091FD
:100F3000E701A091E801B091E90129813A814B8153
:100F40005C81282739274A275B2729833A834B83EB
:100F50005C83CA01B9010F900F900F900F90DF9141
:100F6000CF910C942C070C9429070C94B3070E9482
:100F7000B5076093E2017093E3018093E4019093DD
:100F8000E5010C94CD0660E070E0CB010C94B7074E
:100F90000F931F93CF93DF9300D000D0CDB7DEB770
:100FA00041E050E060E070E08A019B0104C0000F66
:100FB000111F221F331F8A95D2F709831A832B83AF
:100FC0003C83C901B8010F900F900F900F90DF91F3
:100FD000CF911F910F910C94B7070F931F93CF934D
:100FE000DF9300D000D0CDB7DEB741E050E060E045
:100FF00070E004C0440F551F661F771F8A95D2F713
:101000008091E2019091E301A091E401B091E501AA
:101010008A019B01082B192B2A2B3B2B09831A834E
:101020002B833C83C901B8010F900F900F900F9054
:10103000DF91CF911F910F910C94B7070F931F93DE
:10104000CF93DF9300D000D0CDB7DEB741E050E0C2
:1010500060E070E004C0440F551F661F771F8A953B
:10106000D2F740955095609570958091E2019091EE
:10107000E301A091E401B091E5018A019B010823FD
:1010800019232A233B2309831A832B833C83C90119
:10109000B8010F900F900F900F90DF91CF911F919B
:1010A0000F910C94B7070F931F93CF93DF9300D04A
:1010B00000D0CDB7DEB741E050E060E070E004C0A2
:1010C000440F551F661F771F8A95D2F78091E20162
:1010D0009091E301A091E401B091E5018A019B01A7
:1010E000082719272A273B2709831A832B833C8348
:1010F000C901B8010F900F900F900F90DF91CF9121
:101100001F910F910C94B707CF93DF9300D000D0BD
:10111000CDB7DEB769837A838B839C838091E201AC
:101120009091E301A091E401B091E50129813A8118
:101130004B815C81282B392B4A2B5B2B29833A83EB
:101140004B835C83CA01B9010F900F900F900F90F1
:10115000DF91CF910C94B707CF93DF9300D000D0ED
:10116000CDB7DEB769837A838B839C838091E2015C
:101170009091E301A091E401B091E50129813A81C8
:101180004B815C81282339234A235B2329833A83BB
:101190004B835C83CA01B9010F900F900F900F90A1
:1011A000DF91CF910C94B707CF93DF9300D000D09D
:1011B000CDB7DEB769837A838B839C838091E2010C
:1011C0009091E301A091E401B091E50129813A8178
:1011D0004B815C81282739274A275B2729833A835B
:1011E0004B835C83CA01B9010F900F900F900F9051
:1011F000DF91CF910C94B70708959295907FE92FD6
:10120000E80F877041E001C0440F8A95EAF7E69540
:10121000E695E69585E0E89FF0011124EE56FE4F35
:1012200030E020E070E05191DF011197CB01022EF8
:1012300002C0969587950A94E2F78170819585277B
:10124000842385278C932F5F3F4F2530310559F735
:101250000895E92FE295E07FE80F982F9770E695C3
:10126000E695E69585E0E89FF0011124EE56FE4FE5
:1012700050E040E080E0219130E0092E02C0369538
:1012800027950A94E2F721703327042E01C0220F1C
:101290000A94EAF7822B4F5F5F4F4530510559F7AB
:1012A0000895BF92CF92DF92EF92FF920F931F9318
:1012B000CF93DF938C01C090E201D090E301E090E6
:1012C000E401F090E5018091E6019091E701A091A1
:1012D000E801B091E901C82AD92AEA2AFB2ACFE11C
:1012E000D0E0BC2ED701C6010C2E04C0B695A79540
:1012F000979587950A94D2F780FD0EC0219788F7BD
:10130000B12C8B2DDF91CF911F910F91FF90EF901A
:10131000DF90CF90BF900895B8018C2F0E943510B8
:10132000019761F3EECFCF93DF93D82FC92F0E949F
:1013300051096D2F7C2FDF91CF910C9435101F93A5
:10134000CF93DF93162FD72F90919101992339F0E6
:10135000862F972FDF91CF911F910C9493098823AB
:1013600091F0862F972F0E945109C82F682F812F47
:101370009D2F0E94FD08612F7D2F8C2FDF91CF9133
:101380001F910C943510862F972F0E942909C82F82
:10139000F2CF1F93CF93DF93E091EA0116E08091A3
:1013A000EB018E1304C0DF91CF911F910895CE2FD2
:1013B000D0E01E9FF0011124E451FE4F4081518185
:1013C00062817381848195810E9419072196EC2F97
:1013D000E770E5CF40911C0250911D0260911E0202
:1013E00070911F0280912002909121020C941907A4
:1013F000FF920F931F93CF93DF9380912102807F01
:10140000D1F480911E028823B1F08091EA011091FD
:10141000EB0170911C0260911D02A0911F02B0911E
:101420002002062F0723C0910001D091010196E010
:10143000F92E181306C0DF91CF911F910F91FF90E5
:10144000089590E0109711F00F3F19F401968770FE
:10145000F0CFF89E9001F99E300D1124F901E4516E
:10146000FE4F41816413F2CF40814713EFCF428199
:101470004111ECCF438154814A1B5B0B4C175D0734
:1014800028F7809121028F70806180932102F901F9
:10149000EF50FE4F80818F70806180838CE192E0FD
:1014A0000E94A106DF91CF911F910F91FF900C94A4
:1014B000C909AF92BF92CF92DF92EF92FF920F9342
:1014C0001F93CF93DF93CDB7DEB72B970FB6F8946A
:1014D000DEBF0FBECDBF8C0185E0F801DE0117969F
:1014E00001900D928A95E1F7D8011296EC9012972F
:1014F0001396CD90DC908CE1A82E82E0B82E20913E
:101500001C0290911D0240911F0250912002411532
:10151000510529F0892F82238F3F09F04DC1EE201C
:1015200009F45DC1C8010E940307F82E882309F45D
:1015300056C186E0F801ACE1B2E001900D928A95C7
:10154000E1F78CE192E00E9477030E94F80903C161
:1015500080912102E82FE07F4617570708F0ABC0C3
:10156000D80111963C911197E111E1C0FE2C39137D
:1015700025C09C91921322C0E11020C08F70806121
:10158000809321020E94EA098CE192E00E94A10668
:1015900080912102F80185838F2D2B960FB6F89448
:1015A000DEBF0FBECDBFDF91CF911F910F91FF9096
:1015B000EF90DF90CF90BF90AF9008952F81CD280E
:1015C00029F0832F82238F3F09F0AEC080E0F82FEF
:1015D000F170DF2EE091EA014091EB0156E080FDD1
:1015E0001CC0EE20C9F2809121028160809321020B
:1015F000F12CD2CF8E2F90E05E9FF0011124E451A8
:10160000FE4F6181361306C06081621303C06281A0
:10161000E612E7CF0196E82FE770E413EBCF8F8156
:1016200098850E949309292F22952F70903268F097
:10163000225F2F70223080F49F7059F0D8011596E8
:101640009C91907F31F4D12C0AC09F7011F08823B7
:10165000D1F3805E8830B8F3C8010E94A106FD2C4A
:101660009BCFC8010E940307882309F4B8C0EE206D
:1016700009F4B5C080912102803270F020911C02E3
:1016800030911D023A8329831B82DD82CC828E83B6
:10169000CE0101960E94A10686E0F801ACE1B2E01D
:1016A00001900D928A95E1F70E94F8090E94EA09DB
:1016B000FF24F39471CFE11151C04F8158856985A2
:1016C0007A858B850E940A078CE192E00E94A10630
:1016D00086E0D5011D928A95E9F70E94EA0988CF34
:1016E00086E0F801ACE1B2E001900D928A95E1F755
:1016F00053CFC8010E9403078111CECF80912102F0
:10170000816080932102C8010E94A10645CF4F81CC
:10171000588569857A858B850E940A0786E0D50100
:101720001D928A95E9F717C081E08E2550CF3913B5
:1017300098CFF8019081921394CFE11092CF8583D6
:10174000C8010E94A10686E0F801ACE1B2E0019078
:101750000D928A95E1F70E94EA091ECFF8013181C6
:1017600093137FCFF801908192137BCFE11079CF53
:101770008583C8010E94A10686E0D5011D928A9545
:10178000E9F70ACFD80111968C919813B2CFF801DE
:1017900080818213AECF8091210280FDA1CF982F4E
:1017A000907F09F49DCF8583903F51F2982F907FD1
:1017B000905F8F70892BC3CFF0901E02F601E41B5F
:1017C000F50BAF016091000170910101F110C0CEE5
:1017D0004617570708F09BCFFE2CE110D3CFC80166
:1017E0000E94A10665CF1F93CF93DF93CDB7DEB7DD
:1017F0002C970FB6F894DEBF0FBECDBF4F8358872E
:1018000069877A878B879C87CE0107960E94590A41
:10181000882369F08A859B85892B39F058854F810B
:10182000852F84238F3F09F071C016E05FC086E0EA
:10183000FE013796DE01119601900D928A95E1F72F
:101840008F8198852091EB014091EA016A857B8523
:10185000672B59F389238F3F41F330E0C90101968B
:10186000877099274817190671F40E94E1061092B3
:10187000EB011092EA0186E0ECE1F2E0DF011D925B
:101880008A95E9F7D2CF96E0929FD001939FB00D51
:101890001124A451BE4FFE01319601900D929A95EC
:1018A000E1F78093EB010E94C909BFCF819FC0017E
:1018B000112484519E4F0E94590A8823E9F0E09137
:1018C000EA011E9FF0011124E451FE4F4081518135
:1018D00062817381848195810E9419078091EA0158
:1018E00090E00196877099278093EA018091EA0140
:1018F0009091EB018913DACF2C960FB6F894DEBFE6
:101900000FBECDBFDF91CF911F91089569857A8574
:101910008B859C850E94190788CF682F80910201D2
:10192000909103010C945318682F809102019091BB
:1019300003010C945E1880910201909103010C94B4
:1019400069188091420285958595859508958091C5
:1019500042028770089590914202977081E009F4E5
:1019600080E0089580916502089590916502982B1A
:10197000909365020895982F909580916502892330
:101980008093650208951092650208959091640213
:10199000982B909364020895982F909580916402FB
:1019A00089238093640208951092640208958091BF
:1019B0004302089508950C94DA0C9091C10292FDAF
:1019C00008C090914302981721F0809343020C9431
:1019D000DB0C089580914302882329F01092430282
:1019E00080E00C94DB0C0895CF93DF93E09102012B
:1019F000F0910301809165028083E0910201F091F2
:101A00000301808190916402892B8083909143022D
:101A1000992381F0E0910201F09103018081892BEB
:101A2000808380910201909103010E94BB17811174
:101A30000E94EA0CC0910201D091030140E250E003
:101A400062E272E0CE010E94A520892B69F080E25B
:101A5000FE01A2E2B2E001900D928A95E1F7CE017B
:101A6000DF91CF910C946517DF91CF910895089580
:101A70000C94370D9091C10292FD10C098E0899F9F
:101A800090011124622B609342020E94ED07809125
:101A900042028595859585950C94380D0C94ED073B
:101AA0001092420280E00C94380D90914202809591
:101AB000892380934202282F277091F4282F082E23
:101AC000000C330B9217130659F09091C10292FD4E
:101AD00007C08595859585950E941E080C94500D2C
:101AE00008959091C10292FB222720F9281769F0EE
:101AF00080FB92F99093C1028091C0029091C10243
:101B00000E94BC0D82E00C94550D08958091C10295
:101B100082FB882780F991E089270C94710D81E080
:101B20000C94710D80E00C94710D6FEF7FEF90E0DD
:101B300080E00C94DE2090E080E00E94BA209C01BE
:101B400081E0293E3E4F09F080E0089582E090E078
:101B50000C94B22083E090E00C94B220CF9384E008
:101B600090E00E94B220C82F82E290E00E94B22052
:101B7000982F8C2FCF910895CF93682FC92F84E091
:101B800090E00E94C0206C2F82E290E0CF910C94F4
:101B9000C020AB01BC018FE090E00C94D220AB01DF
:101BA000BC0183E190E00C94D22060E070E0CB01B6
:101BB0000C94CF0D60E070E0CB010E94C90D0C9435
:101BC000D50D69EE7EEF90E080E00E94DE2060E0BF
:101BD00082E090E00E94C02060E083E090E00E94FC
:101BE000C0201092E6011092E7011092E8011092D5
:101BF000E90160E084E090E00E94C02060E082E2C1
:101C000090E00E94C02060E085E090E00E94C0204B
:101C100060E086E090E00E94C0206FEF87E090E0F7
:101C20000E94C02040E050E0BA0188E090E00E94AD
:101C3000D22060E08DE090E00E94C02040E050E0C3
:101C4000BA0188E190E00E94D22060E087E190E054
:101C50000E94C02040E050E0BA018CE190E00E9478
:101C6000D22070E060E080E290E00E94DE2040E060
:101C700050E0BA0188E190E00E94D2200C94DA0D85
:101C80000C94E10D682F8EE090E00C94C0200E942F
:101C90001A1960937A0270937B0280937C0290936E
:101CA0007D0260937602709377028093780290931E
:101CB0007902089585B7806885BF85B7806885BF3C
:101CC0000895089508950C94620E08950C94650E7D
:101CD0000E945A0E84E191E10E944F170E94610E0A
:101CE0000C94630E81E008950C94720E089508958B
:101CF0000E94760E0C94770E0E9431110C941703FB
:101D00000E9405190E9431120E947C0EE0ECF2E064
:101D10008081806880838091C0029091C1020E947E
:101D2000BC0D0C94660E7F928F929F92AF92BF92E1
:101D3000CF92DF92EF92FF920F931F93CF93DF9397
:101D400000D000D00F92CDB7DEB70E944612B82E59
:101D500081110E94470E56E6852E52E0952E10E026
:101D600000E0702E802F0E946E117C01F401C19062
:101D7000D1904F01C816D90609F452C080917E0255
:101D800081FD0E947711C6018E259F25A12CCC24B0
:101D9000C394D12C9C012C213D21232BD9F10E94ED
:101DA000740E8823A9F0A9827A82EC20FD2081E0BC
:101DB000EF2809F480E08B830E940E198160782F50
:101DC0009D838C8349815A816B81892F0E943203C4
:101DD000000F111FF801EA59FD4F808191818C2578
:101DE0009D259183808381E0B11001C080E00F9038
:101DF0000F900F900F900F90DF91CF911F910F9147
:101E0000FF90EF90DF90CF90BF90AF909F908F901A
:101E10007F900895A394CC0CDD1CF0E1AF12BACFF3
:101E20000F5F1F4F0830110509F09BCF8FEF89839B
:101E30008A831B820E940E198160782F9D838C8378
:101E400049815A816B81892F0E943203CCCF0E9435
:101E5000930E0E9444140C942703CF93DF930E94A7
:101E60003910EC01811522E5920708F05AC081155E
:101E700031E5930708F0B7C0883E9105E8F4803E4D
:101E8000910570F4883A910578F4853A910508F047
:101E900099C08130910521F00497813A910548F469
:101EA000CE01DF91CF910895885A9109479708F4A0
:101EB0008CC0D0E0C0E0F4CFC11580E5D807A0F415
:101EC000C11590E4D90708F08BC0CF3FD10509F0C8
:101ED00028F4CD3ED10568F3D065E2CFCE019A95C6
:101EE00081159F41E8F2E5CF9E01F4E036952795F4
:101EF000FA95E1F723708C2F86958695837030E2F2
:101F0000839FC0011124922BC37021E030E002C0F6
:101F1000220F331FCA95E2F7822B932BEC01DC686A
:101F2000BFCFC11586E5D80730F5C11595E5D907AE
:101F300008F06DC0C11524E5D207C0F48C2F86953A
:101F400086959E0123703327C115D34508F050C0F4
:101F5000C1E0D0E002C0CC0FDD1F2A95E2F720E2FD
:101F6000829FC0011124C82BD92BD9CFDC2FCC27BD
:101F7000C46FD06A95CFC1153AE5D30788F4C1156F
:101F800089E5D80708F04EC0CE0198558F3F9105DE
:101F900011F008F08ECFDC2FCC27C06FD06A80CF35
:101FA000CE0190568115904208F083CF8D2F8F710E
:101FB0000E94D11090E0982F882788279F718C2B42
:101FC000EC012EC0A497D0646BCFC85AD0E0CC0FE0
:101FD000DD1FC95BDE4F0990D881C02DD46460CF6E
:101FE000DF70D06A5DCFD82FCC27C16FD06A58CFB1
:101FF000C1E0D0E002C0CC0FDD1F2A95E2F730E24D
:10200000839FC0011124C82BD92BDA6849CF8C2FAC
:102010000E94D110C82FD0E0DC2FCC27CC27DF7155
:10202000D0623ECF8C2F8F700E94D11034E0D695B5
:10203000C7953A95E1F7CF709C2FEC01D06930CF6E
:1020400028E0829FC0011124870F911D24E0880F92
:10205000991F2A95E1F7FC01E60FF11DEE0FFF1F16
:10206000E856FF4F8591949108950E9420100C949A
:102070002D0F803E910599F1C8F48133910509F443
:1020800076C048F48932910509F46AC08A32910514
:1020900009F474C0089589339105D1F0823891050F
:1020A000B9F08533910509F454C00895843E910533
:1020B00099F138F4823E9105F9F0833E910509F1DA
:1020C0000895863E910599F1873E9105B9F10895ED
:1020D0002091C0022370A1F080EE90E0089520913D
:1020E000C00220FD52C03091C10230FF09C024FF60
:1020F0004FC090E080E004C02091C00222FDF7CFE5
:1021000008952091C00222FD46C03091C10230FDE9
:10211000E3CF24FFF5CFEDCF2091C10221FFF0CF17
:102120008091C00284FDE5CF87EE90E00895209174
:10213000C00223FFE5CF24FDDCCFF6CF2091C00203
:1021400023FD2CC03091C10231FFE3CF84EE90E03B
:1021500008952091C00225FFD3CF89E290E0089531
:102160002091C00225FFCCCF85E390E00895209117
:10217000C00226FFC5CF8AE290E008952091C002F8
:1021800026FFBECF81E390E0089589E390E00895B3
:1021900083EE90E0089582EE90E0089586EE90E060
:1021A00008959091C00292FF06C0282F2871283010
:1021B000F9F4877F846093FF06C0282F28712831A7
:1021C000F1F4877E84612091C10220FF06C0382F80
:1021D00038713830D9F4877F816021FF06C0282FFD
:1021E00028712831D1F4877E816194FD877E08951E
:1021F000282F24712430F9F68B7F8860DCCF282FBC
:102200002471243101F78B7E8861DDCF382F317145
:10221000313019F78E7F8860E0CF282F217121316E
:1022200021F78E7E8861E1CF80E008950C94950DB2
:102230000E9446122FEF86E791E0215080409040A7
:10224000E1F700C000000E94461280E00E946E117B
:1022500080FF04C00E9416110C946D1908950C940F
:102260001811CF93DF9300D000D0CDB7DEB70E9416
:102270009B0D811102C00E94400E0E94A60D80930A
:102280007E020E94AE0D9093C1028093C0020E9414
:102290002F110E94AA0D282F30E050E040E0CA0123
:1022A000B9010E9439078091E2019091E301A09168
:1022B000E401B091E50189839A83AB83BC83BC01BF
:1022C000CD010F900F900F900F90DF91CF910C9454
:1022D000B5070C94400208950C946B11E82FF0E0C0
:1022E000EE0FFF1FEE52FD4F8081918108950895FA
:1022F00080EA8A95F1F7089500C008950C9478114A
:10230000F894E82FE295EF70F0E041A18F7021E0A2
:1023100030E0B90102C0660F771F8A95E2F7CB0162
:10232000962F9095942391A392A1892B82A37894C0
:102330000895CF93DF93C5E7D1E089918F3F11F0E6
:102340000E94801181E0C538D807B9F7C5E8D1E00F
:1023500089918F3F11F00E94801181E0CD38D8071C
:10236000B9F7DF91CF910895AF92BF92DF92EF92CC
:10237000FF920F931F93CF93DF93D82EE92EF62E63
:102380008A01C62FD0E0CB58DE4F88818F3F09F4F9
:102390005EC0F894E82FE295EF70F0E091A18F70A5
:1023A00021E030E001C0220F8A95EAF7892F822BC5
:1023B00081A382A12095282322A378940E947C11D6
:1023C00085E8A82E81E0B82EED2DFE2DAF01405FEF
:1023D0005F4FE12CB80160957095D501DD905D01EE
:1023E00021913191BFEFDB1679F18D2D82958F70A0
:1023F000805E90E0DC018C9190E0BD2DBF7002C04A
:1024000095958795BA95E2F780FD1EC0202B312B5C
:10241000EE24E394CF010297DC012D933C934E17F9
:102420005F07D9F688818F3F11F00E9480116E2DD1
:102430008F2DDF91CF911F910F91FF90EF90DF9043
:10244000BF90AF900C947E1126233723E3CFDF910A
:10245000CF911F910F91FF90EF90DF90BF90AF90C1
:1024600008950E94991180E1E2EDF2E0DF01982FDA
:102470001D929A95E9F7E2ECF2E0DF011D928A9550
:10248000E9F788E00E949E120C94A402CF92DF929A
:10249000FF920F931F93CF93DF93CDB7DEB7609773
:1024A0000FB6F894DEBF0FBECDBFFE01319680E1BE
:1024B000DF011D928A95E9F710E0CC24C394D12C5A
:1024C000FE2E0F2FA601612F8F2D902F0E94B41189
:1024D0001F5FCC0CDD1C1031A9F740E150E06F2DDF
:1024E000702F82EC92E00E94A5209C0111E0892BC4
:1024F00009F410E0232B49F080E1EF2DF02FA2EC3E
:10250000B2E001900D928A95E1F7212F48E062ED4B
:1025100072E082EC92E00E949F120E94A602812F3C
:1025200060960FB6F894DEBF0FBECDBFDF91CF919E
:102530001F910F91FF90DF90CF9008950895FF9223
:102540000F931F93CF93DF93F82E092F162FD72FBA
:10255000C42F222349F081E0809381020E940E194A
:102560009093800280937F02809181028823A1F062
:1025700080917F02909180020E943A19059760F045
:10258000EF2DF02FA12FBD2F90E080E0D0E08C1731
:102590009D0744F010928102DF91CF911F910F911E
:1025A000FF900895219131912D933D930196EFCFA6
:1025B0000E94411B0E94800E0C944D1B0E94511BD7
:1025C0000E94270F0C946B1B0E94AE180E94281BC0
:1025D0000E94680E0E94D8120E94DE120E94780E9D
:1025E000FBCF8091880280FF0DC06091090170E0EF
:1025F000660F771F6038710570F56115710569F117
:10260000862F089581FF07C06091090184E0689FCB
:10261000B0011124EFCF6091090182FD0AC08091C1
:1026200087028823A9F0209108016091090182178F
:1026300010F088E0ECCF869FC001112433E0880FB2
:10264000991F3A95E1F7622F70E00E947420D2CF73
:1026500068E070E0D5CF8FE7089581E0089580911C
:10266000880280FF0CC06091050170E07595679548
:10267000759567956115710549F1862F089581FF5C
:1026800006C06091050170E075956795F3CF609184
:10269000050182FD0BC0909186029923A1F0609103
:1026A000040180910501961738F0682F70E06038BA
:1026B000710500F38FE70895899FC001112470E030
:1026C0000E947420F4CF61E070E0D7CF81E00895DC
:1026D000E3E1E80FE331E0F5F0E0EE5FFE4D0C944E
:1026E00088200E94F112819580938C0208950E94A7
:1026F000F112FACF0E94F112819580938B02089516
:102700000E94F112FACF0E942F1380938D02089538
:102710000E942F138195F9CF0E942F1381958093EA
:102720008E0208950E942F13FACF815F990B21E04A
:1027300030E001C0220F8A95EAF780918A02822B4D
:1027400080938A0208958091880281608093880234
:102750000895809188028260F9CF80918802846018
:10276000F5CF40918B028D3E59F480918C0287FF0A
:102770000DC010928C0241110BC01092870208C04C
:102780008E3E81F480918C0218169CF3442381F0D4
:1027900080918D0290918E02892B09F05AC010927F
:1027A000860208958F3E49F447FFF0CF10928B02C6
:1027B00080918C028111ECCFE0CF803F19F4141688
:1027C000ACF3E4CF90918D02893F29F41916F4F609
:1027D00010928D02DBCF8A3F19F497FFD7CFF8CF45
:1027E00090918E028B3F29F497FFD0CF10928E02EA
:1027F000CDCF8C3F19F41916CCF3C8CF9FE0980FBA
:10280000983090F4815F990B21E030E0B90102C06B
:10281000660F771F8A95E2F7CB01809590918A0227
:10282000892380938A02B2CF8D3F31F48091880250
:102830008E7F80938802AACF8E3F21F480918802F8
:102840008D7FF7CF8F3F09F0A1CF809188028B7FDA
:10285000F0CF08950E940E1920918B0230918C02C6
:10286000232B21F0809384029093850220918D0286
:1028700030918E02232B21F0809382029093830269
:1028800089E892E00C948017CF92DF92EF92FF924A
:102890000F931F93CF93DF9300D000D000D0CDB71C
:1028A000DEB726E0E9E8F2E0CE010196DC01019016
:1028B0000D922A95E1F7C0908B02D0908C02E090A7
:1028C0008D02F0908E0210928B0210928C02109268
:1028D0008D0210928E022C2D2D298C0191F0809169
:1028E0008402909185020E943A199C01809187028E
:1028F000882309F440C090910A019217130608F446
:1029000048C08E2D8F2991F0809182029091830290
:102910000E943A199C0180918602882309F478C0AC
:10292000909106019217130608F480C080918B02E3
:1029300090918C02892B90918D02892B90918E021F
:10294000892B11F00E942A1486E0F801A9E8B2E070
:1029500001900D928A95E1F726960FB6F894DEBFA6
:102960000FBECDBFDF91CF911F910F91FF90EF90E0
:10297000DF90CF90089540910B019AE0499FA0010C
:1029800011244217530708F0BCCF8F5F8093870252
:1029900002C08F3FD1F7CC2059F00E94F1129FEF77
:1029A0001C140CF491E0899F802D112480938B02DC
:1029B000DD2059F00E94F1129FEF1D140CF491E0FC
:1029C000899F802D112480938C0230918B023323B8
:1029D00009F497CF20918C02222309F492CF45EB82
:1029E0003403C0011124992359F090938B0245EBD5
:1029F000240390011124332339F030938C0281CFCA
:102A000081E080938B02F3CF81E080938C0279CFB9
:102A1000409107019AE0499FA001112442175307F2
:102A200008F084CF8F5F8093860202C08F3FD1F77A
:102A3000EE2059F00E942F139FEF1E140CF491E02A
:102A4000899F802D112480938D02FF2059F00E94D0
:102A50002F139FEF1F140CF491E0899F802D1124F8
:102A600080938E0230918D0220918E02332309F4DF
:102A70005DCF222309F45ACF45EB3403C001112462
:102A8000992359F090938D0245EB24039001112472
:102A9000332339F030938E0249CF81E080938D0249
:102AA000F3CF81E080938E0241CF86E0E9E8F2E047
:102AB000DF011D928A95E9F7109287021092860233
:102AC000109288020895CF93DF93EC01FB0182817D
:102AD000882309F4F2C0C236FDE5DF0749F048F566
:102AE000C631ECE5DE07E0F4C230FCE5DF07F0F0CC
:102AF0000E94AE0D9093C1028093C002C631ECE5F6
:102B0000DE0748F5C230FCE5DF07C0F48091C00263
:102B10009091C1020E94BC0D0E94E10680E006C0B7
:102B20009E012B5F3C452930310510F3DF91CF9199
:102B30000895C63A9DE5D907C9F7DACFFE01E350FB
:102B4000FC458091C0028160E331F10528F5EB5E20
:102B5000FE4D0C948820C4308DE5D80770F4CB3F2F
:102B60009CE5D90798F2FE01EC5FFC45E830F105E1
:102B700010F5E85DFE4D0C948820C236EDE5DE07C9
:102B800009F494C09091C002892F8E7F90FF8160DC
:102B9000C63ADD4509F0BACF8093C002B7CF809125
:102BA000C0028260F9CF8091C0028460F5CF80912D
:102BB000C0028860F1CF8091C10281608093C10220
:102BC000A5CF8091C1028260F9CF8091C00280615F
:102BD000E3CF8091C0028062DFCF8091C002806429
:102BE000DBCF0E94E1068091C0028068D5CF809142
:102BF000C0028C60D1CF8091C1028360DFCF809111
:102C0000C0028E7FC9CF8091C0028D7FC5CF8091D9
:102C1000C0028B7FC1CF8091C002877FBDCF8091E2
:102C2000C1028E7FCBCF8091C1028D7FC7CF8091B3
:102C3000C0028F7EB1CF8091C0028F7DADCF8091D9
:102C4000C0028F7BA9CF0E94E1068091C0028F77DE
:102C5000A3CF8091C002837F9FCF8091C1028C7FE0
:102C6000ADCF8091C00282FB992790F921E0922795
:102C700090FB82F990FB83F98FCF8091C102982F4E
:102C8000909591708E7F892B90FB81F997CF0E9450
:102C9000E1069091C002892F97FB87F980587CCF7D
:102CA00081E00E94420E32CF80E0FBCF9091C002C3
:102CB000892F8F7E94FF80616FCF81E037CFCF93D4
:102CC000DF93EB0186319C4539F50E94B20C982FB9
:102CD00091718A7A911180E09A81992399F091E01B
:102CE000811101C090E090938F02811109C089E2A7
:102CF0000E948D0C0E94F40C80E0DF91CF9108952A
:102D000085E3F6CF80918F02811104C089E20E9491
:102D1000940CF0CF85E3FBCF81E0EFCF0F931F93AF
:102D2000CF93DF93C42FD22FFC0182818823C9F077
:102D3000409392020E940E19909391028093900208
:102D400080E28C0F883008F050C0C77081E001C06D
:102D5000880FCA95EAF7DF91CF911F910F910C94DC
:102D6000170410919202141335C080919002909133
:102D700091020E943A19883C910560F5C0E2CD0F9E
:102D80001D17B9F080E2810F883040F4177081E0A0
:102D900001C0880F1A95EAF70E941E04C83048F453
:102DA00081E09D2F977001C0880F9A95EAF70E94E5
:102DB0001704802F0E940F04C830B8F4D77081E048
:102DC00001C0880FDA95EAF7DF91CF911F910F913B
:102DD0000C941E0480E28C0F883038F4C77081E0B8
:102DE00001C0880FCA95EAF7EFCFDF91CF911F910D
:102DF0000F9108950F939C01CB01243F4CE53407BC
:102E0000A1F190F4293DFCE53F0749F12A3D4CE54D
:102E10003407E9F1283D3C45C1F0FC01828188235B
:102E2000E1F11092920219C0263FFCE53F0719F12B
:102E3000273F4CE5340729F1253F3C4571F707E270
:102E400025EE44EE65EF7CE505C006E221EE41EE9D
:102E500068ED7CE50E948E1680E00F91089507E2F0
:102E600025EE45EE69ED7CE5F5CF06E221EE40EE7C
:102E700064EF7CE5EFCF06E221EE42EE66EF7CE503
:102E8000E9CF07E225EE46EE67EF7CE5E3CF08E207
:102E900021E045EE6AED7CE5DDCF81E0DECF909369
:102EA0008F0180938E0108959093980280939702EA
:102EB0000895E0919702F0919802309721F00190E7
:102EC000F081E02D099480E00895DC01E091970203
:102ED000F0919802309799F080911801882351F071
:102EE0008091C00287FF06C08C9111968C93119738
:102EF00086E08C930280F381E02DCD010994089542
:102F0000DC01E0919702F0919802309739F082E06D
:102F10008C930480F581E02DCD01099408952091D2
:102F20009502309196022817390771F09093960216
:102F300080939502E0919702F0919802309721F0EA
:102F40000680F781E02D0994089520919302309135
:102F500094022817390771F090939402809393029A
:102F6000E0919702F0919802309721F00084F1856A
:102F7000E02D09940895FC01329680911801882370
:102F800021F08091C0029EE187FF96E080E09150A1
:102F900008F4089521912223D1F38F5FF8CF9C018B
:102FA000662301F1809118018823F1F08091C0021D
:102FB00087FF1AC0462F469546954695603F90F488
:102FC000677081E090E002C0880F991F6A95E2F770
:102FD000240F311DF901228130E02823392381E0BB
:102FE000232B71F480E00895F9013296285F3F4F5A
:102FF0008191861721F0E217F307D1F7F3CF81E033
:1030000008959C01FC0132968FEF90E041914617A4
:1030100051F08F3F19F4411101C0892F9F5F963005
:10302000A9F78F3F09F40895280F311D87FD3A95C0
:10303000F901628308959C01FC013296285F3F4F9D
:103040008191861303C0DF0111971C92E217F307E9
:10305000B9F70895FC01862F869586958695603F81
:1030600060F4E80FF11D677021E030E001C0220F2D
:103070006A95EAF78281822B82830895FC01862F6C
:10308000869586958695603F68F4E80FF11D677018
:1030900081E090E001C0880F6A95EAF780959281FF
:1030A00089238283089520911801222329F02091F9
:1030B000C00227FD0C942A180C94011820911801C5
:1030C000222329F02091C00227FD0C943E180C9475
:1030D0001B18FC01329680911801882351F08091D1
:1030E000C00287FF06C08EE1DF011D928A95E9F7D5
:1030F000089586E0F9CF08950C947B188F5F809334
:1031000099020C947C1883E0809399020C947C18AB
:103110000C947E1881E0809399020C947C180C9496
:103120008A18089508950C949218089508950C949F
:103130009118CF930E9495180E9446120E949618EB
:10314000C0E08C2F0E946E11892B31F4CF5FC83004
:10315000C1F780E0CF91089581E0FCCF08951F92E0
:103160001FB61F9211248F939F93AF93BF938091AB
:103170009A02811113C08091E2029091E302A09122
:10318000E402B091E5024196A11DB11D8093E202D7
:103190009093E302A093E402B093E502BF91AF9154
:1031A0009F918F911F901FBE1F9018958091EA02EA
:1031B000843031F10E940A0310929A0288E190E073
:1031C00020E40FB6F894A895809360000FBE20937A
:1031D000600083B7817F846083BF83B7816083BFD2
:1031E0007894889583B78E7F83BF0FB6F894A8959F
:1031F00080916000886180936000109260000FBE33
:1032000008950E94E1060C940E0382E084BD93E0D1
:1032100095BD9AEF97BD80936E0008952FB7F894EF
:103220008091E2029091E302A091E402B091E50264
:103230002FBF0895CF93DF9300D000D0CDB7DEB776
:103240008FB7F8942091E2023091E3024091E402BA
:103250005091E50229833A834B835C838FBF698158
:103260007A818B819C810F900F900F900F90DF914E
:10327000CF9108959C014FB7F8948091E20290910C
:10328000E302A091E402B091E5024FBF821B930BD1
:10329000089578941F921FB61F9211248F939F93C5
:1032A000AF93BF938091E2029091E302A091E40278
:1032B000B091E5020196A11DB11D8093E2029093A9
:1032C000E302A093E402B093E502BF91AF919F9116
:1032D0008F911F901FBE1F901895F89481E08093E6
:1032E000E00080E28093D800E9ECF0E010828FE10A
:1032F0009EE40197F1F700C000001DBA109268002B
:103300001CBC10BE1FBA10927A0010926E00109270
:103310006F00109270001092710010821092BC0029
:1033200011B814B817B81AB81DB810BA12B815B831
:1033300018B81BB81EB811BA0C9400FE08958091FD
:10334000BE020895089522E02093E9002FEF309106
:10335000E800215035FD06C035ED3A95F1F7000043
:103360002111F5CF2091E80025FF0BC050E040E08F
:1033700066E070E00E94DE1B8091E8008E7780930B
:10338000E8000895CF93DF93D82FC92F80911801BB
:103390008823C1F18091C00287FF34C060E282E0DF
:1033A0008093E9008FEF9091E800815095FD06C071
:1033B00095ED9A95F1F700008111F5CF8091E80025
:1033C00085FF1DC08091180170E050E040E0811140
:1033D00004C050E040E068E070E08D2F9C2F0E9418
:1033E000DE1B8091E8008E778093E80080E2ED2F6D
:1033F000FC2FAEE9B2E001900D928A95E1F7DF91E2
:10340000CF91089568E081E0CBCF80939B027093C9
:103410009D0260939C028091EA02843001F582E073
:103420008093E9008FEF9091E800815095FD06C0F0
:1034300095ED9A95F1F700008111F5CF8091E800A4
:1034400085FF0DC050E040E063E070E08BE992E062
:103450000E94DE1B8091E8008E778093E80008953B
:10346000BC0184E00C94051ABC0183E00C94051A9D
:103470008091E902811109C00E94661D0E94C81D49
:103480008091E20084608093E20008951092E90246
:1034900008950C948A186091E60281E0611101C0E0
:1034A00080E00C9483189091EA0281E0943009F056
:1034B00080E06091E6020C94881842E061EC81E0C3
:1034C0000E94E21C42E261EC82E00E94E21C9091C8
:1034D000EA0281E0943009F080E06091E6020C9409
:1034E0007E188091EC02893089F148F4823009F429
:1034F0009EC0833009F459C0813041F008958A306C
:1035000009F485C08B3009F46BC008958091EB02FB
:10351000813A09F049C08091E800877F8093E800F4
:103520008091EF029091F002892B61F460E28EE9C4
:1035300092E070E00E942D1C8091E8008B778093D0
:10354000E800089560E090E080E0F3CF8091EB0226
:10355000813251F58091EF029091F002029720F5AF
:103560008091E800877F8093E8008091E80082FFE7
:1035700017C08091F2009091F300029731F480918E
:10358000F100813011F0863021F48091F1008093B8
:10359000BE028091E8008B778093E8000C94161DA2
:1035A0008091EA028111E1CF08958091EB02813A86
:1035B000D9F78091EF029091F002892BA9F78091C1
:1035C000E800877F8093E8008091E80080FFFCCFCF
:1035D000809118018093F1008091E8008E77DCCF14
:1035E0008091EB02813201F78091EF029091F0021D
:1035F000892BD1F68091E800877F8093E8000E94B4
:10360000161D8091ED02809318010C94E1068091C3
:10361000EB02813249F68091E800877F8093E800D1
:103620000E94161D8091EE028093BF020895809142
:10363000EB02813A09F0B8CF8091E800877F809350
:10364000E8008091E80080FFFCCF8091BF02C2CFEC
:1036500084B7877F84BF0FB6F894A89580916000E7
:10366000886180936000109260000FBE80E890E057
:103670000FB6F89480936100909361000FBE0C9494
:103680008F180E94661D0E94C81DE2EEF0E0808146
:103690008460808378940C945A208CE091E00C94A0
:1036A00054178091EA028530A9F48091EA028530AE
:1036B00011F00C9401190E94D6188091E802882319
:1036C000A1F30E949918882381F30E94C81B0E94CD
:1036D000E106EBCF089508950C946E1BFC01CB011D
:1036E000DA012F2F332723303105D1F070F4213048
:1036F000310509F43EC02230310569F48BE390E0D6
:103700002AEF32E02D933C93089521323105E9F000
:103710002232310521F190E080E030E020E0F2CF6C
:10372000CF019927E13059F08230910559F0E6EF49
:10373000F2E0892B81F7849190E09F01E3CFEEECDA
:10374000F2E0F9CFE8E9F2E0F6CF892BB9F0613089
:10375000710509F789E090E025E233E0D3CF892BAA
:1037600091F061307105B9F686EB90E027E433E023
:10377000C9CF82E190E025E333E0C4CF89E090E057
:103780002CE033E0BFCF80E490E02DEF33E0BACF00
:1037900084E189BD86E189BD09B400FEFDCF809139
:1037A000D8008F7D8093D8008091E0008260809364
:1037B000E0008091E00081FDFCCF0895AF92BF92C0
:1037C000CF92DF92FF920F931F93CF93DF936C0101
:1037D000EB018A010E94351DF82E811123C00115CD
:1037E000110539F0F80180819181C81BD90BC80EF1
:1037F000D91EB12CA12C2097A9F08091E80085FD5D
:1038000022C08091E8008E778093E80001151105B1
:10381000A1F0F801808191818A0D9B1D91838083A5
:1038200085E0F82E8F2DDF91CF911F910F91FF90A2
:10383000DF90CF90BF90AF9008950E94351D8823F0
:10384000D1F2F82EEFCFF60181916F018093F10054
:103850002197FFEFAF1ABF0ACECFFC01CB01209119
:10386000F1023091F2022617370790F0009729F401
:103870002091E8002E772093E80040E0009751F473
:10388000411108C08091E80082FF31C080E00895B6
:10389000C901F3CF2091EA022223A9F12530A9F131
:1038A0002091E80023FD2DC02091E80022FDEACF01
:1038B0002091E80020FFE2CF2091F2003091F30048
:1038C000009719F02830310558F041E028303105D3
:1038D00009F040E02091E8002E772093E800CECF59
:1038E00041914093F10001972F5F3F4FE9CF8091C5
:1038F000EA02882341F0853041F08091E80083FF9F
:10390000C1CF81E0089582E0089583E00895FC012D
:10391000CB012091F1023091F2022617370790F087
:10392000009729F42091E8002E772093E80040E0EA
:10393000009751F4411108C08091E80082FF32C025
:1039400080E00895C901F3CF2091EA022223B1F16A
:103950002530B1F12091E80023FD2EC02091E80030
:1039600022FDEACF2091E80020FFE2CF2091F20073
:103970003091F300009719F02830310558F041E0FC
:103980002830310509F040E02091E8002E7720939F
:10399000E800CECF44914093F100319601972F5F1C
:1039A0003F4FE8CF8091EA02882341F0853041F013
:1039B0008091E80083FFC0CF81E0089582E0089500
:1039C00083E00895982F973028F08F708093E90056
:1039D00081E008959093E900242F762F50E0981706
:1039E00031F07091EC002091ED005091F00021FD3C
:1039F00002C09F5FE8CF3091EB003E7F3093EB0039
:103A00003091ED003D7F3093ED003091EB0031605F
:103A10003093EB007093EC002093ED005093F00096
:103A20002091EE0027FDE5CF80E008958091EB0224
:103A300087FF13C08091E80082FF06C08091E800F4
:103A40008B778093E80004C08091EA028111F2CF65
:103A500008958091EA028823D9F38091E80080FFDD
:103A6000F8CF8091E8008E77ECCF2091E400309180
:103A7000E50095E6A9012091EC00822F817020FFDE
:103A800006C08091E80080FF06C080E00895209184
:103A9000E80022FD1AC08091EA02882389F085306F
:103AA00089F08091EB0085FD0FC02091E4003091FA
:103AB000E50042175307F9F29150E1F684E00895CA
:103AC00082E0089583E0089581E008950E94D71D63
:103AD0000E94DF1DE0EEF0E0808181608083E8EDF0
:103AE000F0E080818F77808319BCA7EDB0E08C91E6
:103AF0008E7F8C9380818F7E80831092E90208955F
:103B00000F931F93CF93DF930E94D71D0E94DF1D59
:103B1000C8EDD0E088818F7788838881806888832A
:103B200088818F7D8883E7EDF0E0808180688083E5
:103B300019BC1092EA021092E6021092E80210926A
:103B4000E70200EE10E0F80180818B7F808388819E
:103B50008160888342E060E080E00E94E21CE1EE48
:103B6000F0E080818E7F8083E2EEF0E080818160F2
:103B70008083808188608083F80180818E7F80834C
:103B8000888180618883DF91CF911F910F91089583
:103B9000E8EDF0E080818F7E8083E7EDF0E08081CA
:103BA0008160808381E08093E9020C94801DE8EDC0
:103BB000F0E080818C7F80831092E2000895109263
:103BC000DA001092E10008951F920F920FB60F9243
:103BD00011240BB60F922F933F934F935F936F93E4
:103BE0007F938F939F93AF93BF93EF93FF938091B6
:103BF000E10082FF0BC08091E20082FF07C080914C
:103C0000E1008B7F8093E1000E9459208091DA00CF
:103C100080FF19C08091D80080FF15C08091DA0024
:103C20008E7F8093DA008091D90080FF96C084E176
:103C300089BD86E189BD09B400FEFDCF81E0809396
:103C4000EA020E94381A8091E10080FF19C0809139
:103C5000E20080FF15C08091E2008E7F8093E20039
:103C60008091E20080618093E2008091D8008062C0
:103C70008093D80019BC85E08093EA020E944B1A19
:103C80008091E10084FF29C08091E20084FF25C07B
:103C900084E189BD86E189BD09B400FEFDCF809134
:103CA000D8008F7D8093D8008091E1008F7E809333
:103CB000E1008091E2008F7E8093E2008091E2003B
:103CC00081608093E2008091E602882309F44BC072
:103CD00084E08093EA020E94531A8091E10083FFFE
:103CE00029C08091E20083FF25C08091E100877F99
:103CF0008093E10082E08093EA021092E6028091D4
:103D0000E1008E7F8093E1008091E2008E7F8093BE
:103D1000E2008091E20080618093E20042E060E096
:103D200080E00E94E21C8091F00088608093F000A7
:103D30000E94491AFF91EF91BF91AF919F918F918E
:103D40007F916F915F914F913F912F910F900BBE9B
:103D50000F900FBE0F901F90189519BC1092EA0299
:103D60000E94461A70CF8091E30087FD02C081E077
:103D7000B0CF83E0AECF1F920F920FB60F921124F7
:103D80000BB60F92FF920F931F932F933F934F9376
:103D90005F936F937F938F939F93AF93BF93CF93D3
:103DA000DF93EF93FF9309EE10E0F8018081C0915B
:103DB000EC00C795CC27C7958F70FC2EF82A10828F
:103DC000C0EFD0E08881877F888378940E94081FA5
:103DD000F8011082888188608883CF2DCF70C083DE
:103DE000FF91EF91DF91CF91BF91AF919F918F9113
:103DF0007F916F915F914F913F912F911F910F9103
:103E0000FF900F900BBE0F900FBE0F901F90189554
:103E10001F93CF93DF93CDB7DEB7AA970FB6F89471
:103E2000DEBF0FBECDBF8BEE92E0FC01019620916C
:103E3000F100208322E0833F9207B9F70E94711AB4
:103E40008091E80083FF1DC18091EB029091EC020C
:103E50009A3008F016C1E92FF0E0E05DFE4D0C94B9
:103E60008820803899F0823809F00BC18091EF02E8
:103E70008F70873008F005C18093E9008091EB00D6
:103E800085FB882780F91092E90006C08091E7023F
:103E90009091E802911182609091E800977F909351
:103EA000E8008093F1001092F1008091E8008E7795
:103EB000E4C0882309F4D2C0823009F0E2C08091C6
:103EC000ED028111D5C08091EF028F702FEF280F86
:103ED000263008F0D6C08093E9002091EB0020FF47
:103EE000C7C0933031F48091EB0080628093EB0087
:103EF000BFC09091EB0090619093EB0021E030E027
:103F000001C0220F8A95EAF72093EA001092EA0096
:103F10008091EB008860EACF8111B3C01091ED026F
:103F20001F778091E3008078812B8093E30080915C
:103F3000E800877F8093E8000E94161D8091E800CA
:103F400080FFFCCF8091E30080688093E30082E0F3
:103F5000111183E08093EA0294C08058823008F007
:103F600090C08091ED029091EE028C3D23E092078B
:103F700099F583E08A838AE289834FB7F894DE015A
:103F8000139620E03EE051E2E32FF0E0509357001B
:103F9000849120FF03C082958F703F5F8F708A30BD
:103FA000C8F0895C90E08D939D932F5F243161F779
:103FB0004FBF8091E800877F8093E8006AE270E05D
:103FC000CE0101960E942D1C8091E8008B77809392
:103FD000E80057C0805DE6CF6091EF027091F0027B
:103FE000AE014F5F5F4F0E946C1BBC01892B09F42F
:103FF00048C08091E800877F8093E80089819A819A
:104000000E94871CE1CF8038E1F58091E800877F2E
:104010008093E8008091E6028093F10046CF811101
:1040200030C09091ED02923060F58091E800877F7A
:104030008093E8009093E6020E94161D8091E602AC
:10404000882311F084E005C08091E30087FDFACF5A
:1040500081E08093EA020E945D1A13C08091ED0214
:10406000813079F481E0933009F080E08093E802B8
:104070001092E9008091E800877F8093E8000E9419
:10408000161D8091E80083FF0AC08091E800877FB9
:104090008093E8008091EB0080628093EB00AA9609
:1040A0000FB6F894DEBF0FBECDBFDF91CF911F9149
:1040B00008950895CF938091EA02882399F0809122
:1040C000E900C091EC00C795CC27C7958F70C82B2D
:1040D0001092E9008091E80083FD0E94081FCF70D4
:1040E000C093E900CF91089597FB072E16F4009432
:1040F00007D077FD09D00E94912007FC05D03EF43F
:10410000909581959F4F0895709561957F4F089583
:10411000EE0FFF1F0024001C0BBE0790F691E02D50
:104120000994AA1BBB1B51E107C0AA1FBB1FA617FE
:10413000B70710F0A61BB70B881F991F5A95A9F750
:1041400080959095BC01CD010895FB01DC0104C070
:104150008D910190801921F441505040C8F7881B7F
:10416000990B0895F999FECF92BD81BDF89A9927D0
:1041700080B50895A8E1B0E042E050E00C94E6205C
:10418000262FF999FECF92BD81BDF89A019700B410
:10419000021639F01FBA20BD0FB6F894FA9AF99AB0
:1041A0000FBE08950396272F0E94C1200E94C020B1
:1041B000252F0E94C120242F0C94C1200196272F67
:1041C0000E94C1200C94C020DC01CB01FC01F999B4
:1041D000FECF06C0F2BDE1BDF89A319600B40D9253
:1041E00041505040B8F70895F894FFCF6804680430
:1041F0009C049C043A055605CD04CD0461050D06CA
:104200001E061E06711377137A13801395139513E8
:10421000951395139513951395139513831388137D
:104220008C139213A313A913AD13CF15D315D71560
:10423000E515E915ED15F115F715FF150316071628
:104240000B1617161B161F1623162916471631169E
:10425000E1150F161316FB152D163D1650165416A4
:10426000311F591F4120591F41208C1FAD1F412074
:0442700003200F20F8
:10427400C8004402280850011E0A14019F19C219DB
:10428400A319341A301AA21901E200E900EA00B5B0
:1042940000B600B700CD008301CC008A01920194DE
:1042A400012102230224022502260227022A02B344
:1042B40000B4006F007000E200E900EA00B500B647
:1042C40000B700CD008301CC008A01920194012142
:1042D40002230224022502260227022A02B300B482
:1042E400006F007000F7F6F5F4F3F2F1F0C730C692
:0E42F40060C1C09795379091923635343300F3
:00000001FF
