:100000000C9422090C946B090C946B090C946B09E9
:100010000C946B090C946B090C946B090C946B0990
:100020000C946B090C946B090C94CA220C94A123B8
:100030000C94D1190C946B090C946B090C946B09FA
:100040000C946B090C946B090C946B090C946B0960
:100050000C946B090C94321A0C946B090C946B0978
:100060000C946B090C946B090C946B090C946B0940
:100070000C946B090C946B090C946B090C946B0930
:100080000C946B090C946B090C946B090C946B0920
:100090000C946B090C946B096900610073005300A8
:1000A00072006D006F006B0068006A0060005F0006
:1000B00071006C006E0070001A01380037000000FB
:1000C0003600060005001D004600E100E3002800A0
:1000D00010001B0019001100A90033000F000000E0
:1000E0000E0007000A000400AA00390034003100A5
:1000F0000D00160009000B003B00550045004B00A9
:1001000044003F0041003D003A003C0054004E00D6
:1001100043003E00400042002B015100E400490032
:10012000E6002C005100E2002B03E000E5004C004B
:1001300000002C002C006200560052005C004A00B7
:1001400050005E00590063005700580000004D0049
:100150005D005B005A004F00A800130012002A0047
:100160000C00080017001400AE002B002F00300018
:1001700018001A0015001C00AB00270026003500EF
:100180002500200022001E00AC0029002D002E00BA
:1001900024001F00210023000100010001000100D4
:1001A0000100010001000100010001000100010047
:1001B0000100010001000100010001000100000038
:1001C0000100010001000100010001000100010027
:1001D0000100010001000100010001000100000018
:1001E0000100010001000100010001000100010007
:1001F00001000100010001000100010001000100F7
:1002000001000100010001000100010001000100E6
:1002100001000100010001000100010001000100D6
:1002200001000100010001000100010001000100C6
:1002300000000100010001000100010001000100B7
:1002400001000100010001000100010000000100A7
:100250000100010001000100010001000100010096
:100260000100010001000100010001000100010086
:100270000100010001000100010001000100010076
:100280000100010001000100010001000100010066
:100290000100010001000100010001000100010056
:1002A0000100010001000100010001000100010046
:1002B0000100010001000100010001000100000037
:1002C0000100010001000100010001000100010026
:1002D0000100010001000100010001000100000017
:1002E0000100010001000100010001000100010006
:1002F00001000100010001000100010001000100F6
:1003000001000100010001000100010001000100E5
:1003100001000100010001000100010001000100D5
:1003200001000100010001000100010001000100C5
:1003300000000100010001000100010001000100B6
:1003400001000100010001000100010000000100A6
:100350000100010001000100010001000100010095
:100360000100010001000100010001000100010085
:100370000100010001000100010001000100010075
:100380000100010001000100010001000100010065
:100390000100010001000100010001000100010055
:1003A0000100010001000100010001000100010045
:1003B0000100010001000100010001000100000036
:1003C0000100010001000100010001000100010025
:1003D0000100010001000100010001000100000016
:1003E0000100010001000100010001000100010005
:1003F00001000100010001000100010001000100F5
:1004000001000100010001000100010001000100E4
:1004100001000100010001000100010001000100D4
:1004200001000100010001000100010001000100C4
:1004300000000100010001000100010001000100B5
:1004400001000100010001000100010000000100A5
:100450000100010001000100010001000100010094
:100460000100010001000100010001000100010084
:100470000100010001000100010001000100010074
:100480000100010001000100010001000100010064
:100490000100010001000100010001000100010054
:1004A0000100010001000100010001000100010044
:1004B0000100010001000100010001000100000035
:1004C0000100010001000100010001000100010024
:1004D0000100010001000100010001000100000015
:1004E0000100010001000100010001000100010004
:1004F00001000100010001000100010001000100F4
:1005000001000100010001000100010001000100E3
:1005100001000100010001000100010001000100D3
:1005200001000100010001000100010001000100C3
:1005300000000100010001000100010001000100B4
:1005400001000100010001000100010000000100A4
:100550000100010001000100010001000100010093
:100560000100010001000100010001000100010083
:100570000100010001000100010001000100010073
:100580000100010001000100010001000100010063
:100590000100010001000100010001000100010053
:1005A0000100010001000100010001000100010043
:1005B0000100010001000100010001000100000034
:1005C0000100010001000100010001000100010023
:1005D0000100010001000100010001000100000014
:1005E0000100010001000100010001000100010003
:1005F00001000100010001000100010001000100F3
:1006000001000100010001000100010001000100E2
:1006100001000100010001000100010001000100D2
:1006200001000100010001000100010001000100C2
:1006300000000100010001000100010001000100B3
:1006400001000100010001000100010000000100A3
:100650000100010001000100010001000100010092
:100660000100010001000100010001000100010082
:100670000100010001000100010001000100010072
:100680000100010001000100010001000100010062
:100690000100010001000100010001000100010052
:1006A0000100010001000100010001000100010042
:1006B0000100010001000100010001000100000033
:1006C0000100010001000100010001000100010022
:1006D0000100010001000100010001000100000013
:1006E0000100010001000100010001000100010002
:1006F00001000100010001000100010001000100F2
:1007000001000100010001000100010001000100E1
:1007100001000100010001000100010001000100D1
:1007200001000100010001000100010001000100C1
:1007300000000100010001000100010001000100B2
:1007400001000100010001000100010000000100A2
:100750000100010001000100010001000100010091
:100760000100010001000100010001000100010081
:100770000100010001000100010001000100010071
:100780000100010001000100010001000100010061
:100790000100010001000100010001000100010051
:1007A0000100010001000100010001000100010041
:1007B0000100010001000100010001000100000032
:1007C0000100010001000100010001000100010021
:1007D0000100010001000100010001000100000012
:1007E0000100010001000100010001000100010001
:1007F00001000100010001000100010001000100F1
:1008000001000100010001000100010001000100E0
:1008100001000100010001000100010001000100D0
:1008200001000100010001000100010001000100C0
:1008300000000100010001000100010001000100B1
:1008400001000100010001000100010000000100A1
:100850000100010001000100010001000100010090
:100860000100010001000100010001000100010080
:100870000100010001000100010001000100010070
:100880000100010001000100010001000100010060
:100890000100010001000100010001000100010050
:1008A0000100010001000100010001000100010040
:1008B0000100010001000100010001000100000031
:1008C0000100010001000100010001000100010020
:1008D0000100010001000100010001000100000011
:1008E0000100010001000100010001000100010000
:1008F00001000100010001000100010001000100F0
:1009000001000100010001000100010001000100DF
:1009100001000100010001000100010001000100CF
:1009200001000100010001000100010001000100BF
:1009300000000100010001000100010001000100B0
:1009400001000100010001000100010000000100A0
:10095000010001000100010001000100010001008F
:10096000010001000100010001000100010001007F
:10097000010001000100010001000100010001006F
:10098000010001000100010001000100010001005F
:10099000010001000100010001000100010001004F
:1009A000010001000100010001000100010001003F
:1009B0000100010001000100010001000100000030
:1009C000010001000100010001000100010001001F
:1009D0000100010001000100010001000100000010
:1009E00001000100010001000100010001000100FF
:1009F00001000100010001000100010001000100EF
:100A000001000100010001000100010001000100DE
:100A100001000100010001000100010001000100CE
:100A200001000100010001000100010001000100BE
:100A300000000100010001000100010001000100AF
:100A4000010001000100010001000100000001009F
:100A5000010001000100010001000100010001008E
:100A6000010001000100010001000100010001007E
:100A7000010001000100010001000100010001006E
:100A8000010001000100010001000100010001005E
:100A9000010001000100010001000100010001004E
:100AA000010001000100010001000100010001003E
:100AB000010001000100010001000100010000002F
:100AC000010001000100010001000100010001001E
:100AD000010001000100010001000100010000000F
:100AE00001000100010001000100010001000100FE
:100AF00001000100010001000100010001000100EE
:100B000001000100010001000100010001000100DD
:100B100001000100010001000100010001000100CD
:100B200001000100010001000100010001000100BD
:100B300000000100010001000100010001000100AE
:100B4000010001000100010001000100000001009E
:100B5000010001000100010001000100010001008D
:100B6000010001000100010001000100010001007D
:100B7000010001000100010001000100010001006D
:100B8000010001000100010001000100010001005D
:100B9000010001000100010001000100010001004D
:100BA000010001000100010001000100010001003D
:100BB000010001000100010001000100010000002E
:100BC000010001000100010001000100010001001D
:100BD000010001000100010001000100010000000E
:100BE00001000100010001000100010001000100FD
:100BF00001000100010001000100010001000100ED
:100C000001000100010001000100010001000100DC
:100C100001000100010001000100010001000100CC
:100C200001000100010001000100010001000100BC
:100C300000000100010001000100010001000100AD
:100C4000010001000100010001000100000001009D
:100C5000010001000100010001000100010001008C
:100C6000010001000100010001000100010001007C
:100C7000010001000100010001000100010001006C
:100C8000010001000100010001000100010001005C
:100C9000010001000100010001000100010001004C
:100CA000010001000100010001000100010001003C
:100CB000010001000100010001000100010000002D
:100CC000010001000100010001000100010001001C
:100CD000010001000100010001000100010000000D
:100CE00001000100010001000100010001000100FC
:100CF00001000100010001000100010001000100EC
:100D000001000100010001000100010001000100DB
:100D100001000100010001000100010001000100CB
:100D200001000100010001000100010001000100BB
:100D300000000100010001000100010001000100AC
:100D4000010001000100010001000100000001009C
:100D5000010001000100010001000100010001008B
:100D6000010001000100010001000100010001007B
:100D7000010001000100010001000100010001006B
:100D8000010001000100010001000100010001005B
:100D9000010001000100010001000100010001004B
:100DA000010001000100010001000100010001003B
:100DB000010001000100010001000100010000002C
:100DC000010001000100010001000100010001001B
:100DD000010001000100010001000100010000000C
:100DE00001000100010001000100010001000100FB
:100DF00001000100010001000100010001000100EB
:100E000001000100010001000100010001000100DA
:100E100001000100010001000100010001000100CA
:100E200001000100010001000100010001000100BA
:100E300000000100010001000100010001000100AB
:100E4000010001000100010001000100000001009B
:100E5000010001000100010001000100010001008A
:100E6000010001000100010001000100010001007A
:100E7000010001000100010001000100010001006A
:100E8000010001000100010001000100010001005A
:100E9000010001000100010001000100010001004A
:100EA000010001000100010001000100010001003A
:100EB000010001000100010001000100010000002B
:100EC000010001000100010001000100010001001A
:100ED000010001000100010001000100010000000B
:100EE00001000100010001000100010001000100FA
:100EF00001000100010001000100010001000100EA
:100F000001000100010001000100010001000100D9
:100F100001000100010001000100010001000100C9
:100F200001000100010001000100010001000100B9
:100F300000000100010001000100010001000100AA
:100F4000010001000100010001000100000001009A
:100F50000100010001000100010001000100010089
:100F60000100010001000100010001000100010079
:100F70000100010001000100010001000100010069
:100F80000100010001000100010001000100010059
:100F90000100010001000100010001000100010049
:100FA0000100010001000100010001000100010039
:100FB000010001000100010001000100010000002A
:100FC0000100010001000100010001000100010019
:100FD000010001000100010001000100010000000A
:100FE00001000100010001000100010001000100F9
:100FF00001000100010001000100010001000100E9
:1010000001000100010001000100010001000100D8
:1010100001000100010001000100010001000100C8
:1010200001000100010001000100010001000100B8
:1010300000000100010001000100010001000100A9
:101040000100010001000100010001000000010099
:101050000100010001000100010001000100010088
:101060000100010001000100010001000100010078
:101070000100010001000100010001000100010068
:101080000100010001000100010001000100010058
:10109000010001000100010012036B0065007900EE
:1010A00062006F00610072006400000016037100AE
:1010B0006D006B006200750069006C0064006500E3
:1010C000720000000403090409026D00040100A07D
:1010D000FA090400000103010100092111010001C6
:1010E0002240000705810308000A090401000103EA
:1010F000010200092111010001224D0007058203B0
:1011000008000A090402000103000000092111017E
:1011100000012236000705830308000A09040300C2
:101120000103000000092111010001223900070517
:1011300084032000011201100100000008EDFE6090
:101140006001000102000105010906A1010507195E
:10115000E029E715002501950875018102050819A8
:101160000129059505750191029501750391010508
:1011700007190029F71500250195F875018102C0AE
:1011800005010980A10185021601002603001A81CC
:10119000002A8300751095018100C0050C0901A18A
:1011A000018503160100269C021A01002A9C027583
:1011B0001095018100C005010902A1010901A100EA
:1011C00005091901290515002501950575018102FB
:1011D0009501750381010501093009311581257FCC
:1011E00095027508810609381581257F95017508D6
:1011F0008106050C0A38021581257F950175088145
:1012000006C0C005010906A101050719E029E71577
:101210000025019508750181029501750881010578
:10122000081901290595057501910295017503912C
:10123000010507190029FF150026FF00950675080E
:101240008100C00011241FBECFEFD0E2DEBFCDBFB2
:1012500004B603FE27C08091D4029091D502A091DC
:10126000D602B091D7028730904BA740B04BD1F453
:101270001092D4021092D5021092D6021092D70288
:1012800014BE84B7877F84BF0FB6F894A895809169
:101290006000886180936000109260000FBEE0E003
:1012A000F8EF099511E0A0E0B1E0EEE6FEE400E021
:1012B0000BBF02C007900D92A239B107D9F722E007
:1012C000A2E9B1E001C01D92A43DB207E1F70E947E
:1012D0001C200C94ED260C94000080E090E0089512
:1012E0000895089581E0089580FF0BC0699A719870
:1012F00081FF09C06A9A729882FF07C06B9A73983F
:1013000008956998F4CF6A98F6CF6B98F8CF81E08A
:1013100008950C9472090E9445122FEF84E39CE01B
:10132000215080409040E1F700C000000C94551A15
:10133000EF92FF920F931F93CF93DF938C01FC01E9
:10134000E080F1808091DE01811140C0828188239C
:10135000C1F1C7010E94A917C82F682FC7010E94B9
:101360005417B7018C2F0E94D00AEC01B8010E94DB
:101370008909882309F44BC0B801CE010E944A0CA8
:10138000882309F444C0C531F0E7DF0720F5C230F7
:1013900080E7D80708F04DC0C115E0E7DE0791F1FE
:1013A000C130D047E1F181E08093940180939501B1
:1013B000C801DF91CF911F910F91FF90EF900C9496
:1013C0008709C7010E948117C82FCBCFC7010E9490
:1013D000A917B701C8CFCC3380E7D80709F49BC061
:1013E000CD33D04701F7F8018281882309F4BAC0D0
:1013F000109295010E94011A90939301809392019B
:1014000080E296C0F801828181110E948B0980E000
:10141000DF91CF911F910F91FF90EF900895F80108
:1014200082818823A1F38091940281608093940249
:10143000EECFF8018281882309F4BACF0E946219A5
:10144000811102C00E9448190E947F1990E0909378
:101450009B0280939A02FE01E350F04780919A022A
:101460008160E231F10538F4E151F94D0C949A268E
:1014700080919A02826080939A0280919A020E94DF
:1014800083190E944512C3CF80919A028460F3CFE2
:1014900080919A028860EFCF80919A028061EBCFB1
:1014A00080919A028062E7CF80919A028064E3CFB4
:1014B00080919A028068DFCF80919A028C60DBCFA6
:1014C00080919A028E7FD7CF80919A028D7FD3CF61
:1014D00080919A028B7FCFCF80919A02877FCBCF6A
:1014E00080919A028F7EC7CF80919A028F7DC3CF61
:1014F00080919A028F7BBFCF80919A028F77BBCF6A
:1015000080919A02837FB7CF90919A02892F97FB9F
:1015100087F98058B0CFF8018281882361F010925A
:1015200094010E94011A909393018093920182E0AA
:101530000E94A20F6CCF8091940181110FC0809105
:101540009201909193010E940D1A883C910530F40C
:1015500086E20E94F10E86E20E94530F82E00E9412
:10156000A90F55CF8091950181110FC080919201F3
:10157000909193010E940D1A883C910530F487E206
:101580000E94F10E87E20E94530F80E2E8CF0C9494
:10159000960C0C94980C0C9474090C94CB0A089536
:1015A00028E0829FC0011124870F911D24E0880F3D
:1015B000991F2A95E1F7FC01E60FF11DEE0FFF1FC1
:1015C000E856FF4F859194910895FC01EE0FFF1F9F
:1015D000E856FF4E8591949108950E94D00A0E948A
:1015E000CC0B9C01811540E49407D0F5811560E394
:1015F000960708F0A3C0803E9105E0F4803C910579
:1016000008F085C0883A910568F4853A910508F09C
:1016100081C08130910521F00497813A910538F419
:10162000C9010895885A9109459708F47CC020E0C3
:1016300030E0F6CF811570E2970768F48F3F91058F
:1016400009F070F7883E910558F3805F9109306585
:10165000409730F3ECCF9F700E94E50A9C01E0CFE9
:10166000211584E53807E0F5211543E5340708F036
:1016700070C0211562E53607B0F0822F86958695F9
:1016800070E2879FC00111242370332741E050E0AE
:10169000BA0102C0660F771F2A95E2F79B01282B3B
:1016A000392B3C68BDCF211571E5370708F04CC0D8
:1016B000211580E5380708F444C0C90154E0969527
:1016C00087955A95E1F7382F3370822F8695869546
:1016D000837040E2849FC0011124932B2370D6CFE6
:1016E000211576E5370750F4922F882721153545C7
:1016F00008F045C09C01246F306A92CFC901905612
:101700003F708115904108F092CF306289CF805CA4
:101710009109A2CF853A9105B1F1863A9105B1F1CF
:1017200023E830E47DCF283A310599F1F901EE0F35
:10173000FF1FEF53F0402081318172CF3327306C8F
:101740006FCF3F70306A6CCF322F2227216F306A03
:1017500067CF822F8695869570E2879FC0011124FE
:101760002370332741E050E0BA0102C0660F771FB3
:101770002A95E2F79B01282B392B3A6851CF9C011F
:1017800022273F71C2CF21E830E44ACF22E830E47B
:1017900047CF22EE34E444CF803E910589F1C8F46E
:1017A0008133910509F461C048F48932910509F447
:1017B00055C08A32910509F45FC0089589339105B7
:1017C000B9F082389105A1F08533910509F43FC045
:1017D0000895863E910559F138F4823E9105B9F09D
:1017E000833E9105E9F00895873E910549F10895FA
:1017F00020919A0223702223C9F080EE90E0089590
:1018000020919A0220FF12C089E390E00895209170
:101810009A0222FF0BC024FF36C080E090E00895BA
:1018200020919A0222FD32C024FDF7CF0895209125
:101830009A0223FFFBCF24FDF0CF87EE90E00895BE
:1018400020919A0223FFF0CF86EE90E0EFCF209117
:101850009A0225FFEBCF89E290E0089520919A0249
:1018600025FFE4CF85E390E0089520919A0226FFBA
:10187000DDCF8AE290E0089520919A0226FFD6CF2C
:1018800081E390E0089583EE90E0089582EE90E089
:1018900008950895CF93DF93EC01FB0182818111BC
:1018A00004C081E0DF91CF9108958091A30181115F
:1018B00026C0C531D047A9F70E94490C81E080932A
:1018C000A3010E94011A9093A2018093A10110929A
:1018D0009601109298011092970110929A0110921D
:1018E000990110929C0110929B0110929E011092FE
:1018F0009D011092A00110929F0180E0D3CF8091B2
:10190000A1019091A2010E940D1A883C910548F610
:1019100080919601E82FF0E0EE0FFF1FE956FE4F91
:10192000D183C0838F5F80939601E7CF0C947009B9
:101930000C947109CF93DF9385B7806885BF85B715
:10194000806885BFABE4B1E023E531E061E070E0A1
:101950008D91E82FE295EF70F0E041A18F70EB01DF
:1019600002C0CC0FDD1F8A95E2F7CE019C2F909527
:10197000942391A392A1892B82A32A173B0741F7B5
:10198000ABE3B1E02BE431E061E070E08D91E82F52
:10199000E295EF70F0E041A18F70EB0102C0CC0F37
:1019A000DD1F8A95E2F7CE019C2F9095942391A399
:1019B00092A1892B82A32A173B0741F780E1E4EB30
:1019C000F1E0DF01C82F1D92CA95E9F7E4EAF1E0E2
:1019D000DF011D928A95E9F7DF91CF910C94C70A38
:1019E0002F923F925F926F927F928F929F92AF92CF
:1019F000BF92CF92DF92EF92FF920F931F93CF93FC
:101A0000DF9324EA222E21E0322E3BE4E32E31E064
:101A1000F32E44EB842E41E0942E01E010E0662486
:101A20006394E101A990B9901E01DE011E921E92FD
:101A3000F70181917F01E82FE295EF70F0E021A19D
:101A40008F70A80102C0440F551F8A95E2F7CA01A2
:101A5000242B21A322A1742E7094272122A350EAC3
:101A60005A95F1F79BE3C92E91E0D92E40E050E062
:101A7000E60129916E01622F62956F70605E70E0E1
:101A8000EB0158806D917C9111972F70E80102C095
:101A9000CC0FDD1F2A95E2F79E012521211154C0AC
:101AA0009801042E02C0220F331F0A94E2F7622B22
:101AB000732B11967C936E934F5F5F4F40315105AE
:101AC000B9F691A1792271A292A1892B82A38D915D
:101AD0009C91A816B90641F06092C4010E94011AB7
:101AE0009093C6018093C5018214930409F099CFA5
:101AF0008091C401882399F08091C5019091C6011D
:101B00000E940D1A069758F080E1E4EAF1E0A4EB98
:101B1000B1E001900D928A95E1F71092C4010E9404
:101B2000C90A81E0DF91CF911F910F91FF90EF9053
:101B3000DF90CF90BF90AF909F908F907F906F90ED
:101B40005F903F902F90089520E030E0B0CFE82FD5
:101B5000F0E0EE0FFF1FEC54FE4F8081918108955D
:101B600008959093CC018093CB010895E091CB012F
:101B7000F091CC01309721F00190F081E02D099493
:101B800080E00895E091CB01F091CC01309721F0F5
:101B90000280F381E02D09940895E091CB01F0914A
:101BA000CC01309721F00480F581E02D099408954F
:101BB0002091C9013091CA012817390771F090931B
:101BC000CA018093C901E091CB01F091CC0130971B
:101BD00021F00680F781E02D099408952091C70136
:101BE0003091C8012817390771F09093C80180938C
:101BF000C701E091CB01F091CC01309721F0008436
:101C0000F185E02D0994089508950C94040E0E9426
:101C1000F8190E949A0C0C94C21A7F928F929F928C
:101C2000AF92BF92CF92DF92EF92FF920F931F93EA
:101C3000CF93DF9300D000D00F92CDB7DEB70E94D4
:101C4000F00C9EECA92E91E0B92E00E010E0882463
:101C50008394912C702E802F0E94A70D7C01F5019A
:101C6000C190D1905F01C816D906B1F40F5F1F4F24
:101C70000830110579F78FEF89838A831B820E94D0
:101C8000011A8160782F9D838C8349815A816B81F1
:101C9000892F0E94C80E45C08091940281FD0E9448
:101CA000B00D96012E253F256901F1E0CF22DD24FC
:101CB000C114D10409F055C081E090E08031910554
:101CC000A9F26401082E02C0CC0CDD1C0A94E2F7D4
:101CD000AC014F5F5F4FB60162237323672B09F49A
:101CE00042C089837A82EC20FD2081E0EF2809F44C
:101CF00080E08B830E94011A8160782F9D838C8302
:101D000049815A816B81892F0E94C80E000F111FD3
:101D1000F801E253FE4F808191818C259D259183AE
:101D200080830E945E1D0E94B60D9091CD0189179F
:101D3000E1F00E94B60D8093CD010F900F900F90AF
:101D40000F900F90DF91CF911F910F91FF90EF9027
:101D5000DF90CF90BF90AF909F908F907F900C942A
:101D6000CD0A80E0BECFCA01A9CF0F900F900F908F
:101D70000F900F90DF91CF911F910F91FF90EF90F7
:101D8000DF90CF90BF90AF909F908F907F900895FD
:101D9000CF93DF93CDB7DEB72B970FB6F894DEBFA6
:101DA0000FBECDBF4F83588769877A878B871E8286
:101DB00085E0FE013796DE01119601900D928A951D
:101DC000E1F749815A816B817C818D819E812B96BF
:101DD0000FB6F894DEBF0FBECDBFDF91CF910C944C
:101DE000B314882309F45EC0823871F40E94B60DE2
:101DF00081FD58C089E30E9451180E94191989E396
:101E00000E948D180C941919833859F40E94B60D4C
:101E100080FD48C083E50E9451180E94191983E58E
:101E2000EFCF843859F40E94B60D82FD3BC087E4A1
:101E30000E9451180E94191987E4E2CF9CEF980F75
:101E4000913A18F40E945118DDCF90E2980F983023
:101E500050F4877091E001C0990F8A95EAF7892FB5
:101E60000E94D018CFCF9BE5980F933070F4853A3D
:101E700031F0863A39F482E890E00C94D80D81E88C
:101E800090E0FBCF83E890E0F8CF885A853150F49A
:101E9000E82FF0E0EE0FFF1FED5AFE4F8081918199
:101EA0000C94EE0D0895882309F44BC0823871F428
:101EB0000E94B60D81FF45C089E30E9451180E941F
:101EC000191989E30E948D180C941919833859F453
:101ED0000E94B60D80FF35C083E50E9451180E9414
:101EE000191983E5EFCF843859F40E94B60D82FFAB
:101EF00028C087E40E9451180E94191987E4E2CF94
:101F00009CEF980F913AF0F290E2980F983050F4CD
:101F1000877091E001C0990F8A95EAF7892F0E9496
:101F2000D618D2CF9BE5980F933020F480E090E054
:101F30000C94D80D885A853120F480E090E00C9400
:101F4000EE0D0895882321F00E94D0180C941919E1
:101F50000895882321F00E94D6180C941919089529
:101F6000CF92DF92EF92FF920F931F93CF93DF9365
:101F700000D000D000D0CDB7DEB77C016E837D836A
:101F8000FC01058102950F70128111110BC00E9496
:101F90004918D12CED81E295EF70F0E0EF5FF84D3C
:101FA0000C949A260E94EF180E944918882389F3FE
:101FB0008E81805E883068F382E00E9431180E9432
:101FC000491891E0D82ED926E5CF0D810F70FD81FB
:101FD000F03110F00295007F1123B1F0002361F081
:101FE0008E81805E883018F02E81211109C0802FEB
:101FF0000E94D0180E9419198E810E94F10E15C0FE
:10200000802F0E94E118F6CF8E810E94530F00238B
:1020100061F08E81805E883018F03E81311127C0DA
:10202000802F0E94D6180E941919DD2009F4E0C102
:102030000E94241880FDDCC1F70112820E941E1844
:102040000E946E16C7010E9407120E941E180F9070
:102050000F900F900F900F900F90DF91CF911F91E5
:102060000F91FF90EF90DF90CF900C948F16802F00
:102070000E94E718D8CF4D814F70C42E5D81507FEC
:10208000503219F0C29480EFC8226E81662369F045
:10209000613029F1112369F1002359F0F70185819D
:1020A00080FFAACF8F70858304C0112361F00111D6
:1020B00004C08C2D0E94A20FB8CF8C2D0130D1F717
:1020C0000E940319B2CF011106C00E9406198C2D7F
:1020D0000E94A90FAACF013009F4A7CFF6CF112390
:1020E00021F0063008F0A1CFE4CF053008F09DCFF5
:1020F000EECF002361F38E810E94530F96CF8D8126
:10210000869586958370882369F0813009F08DCF9C
:102110008E819D819370111102C080E090E00E9439
:10212000EE0D83CF8E819D819370111102C080E0EE
:1021300090E00E94D80D79CF8E81112329F00E9462
:102140008D1C0E94531D71CF0E94DF1CFACF8D8120
:102150008370811166C0111168CF2E81229526955A
:102160002770220F220F8E818F7090E0A0E0B0E0E8
:10217000AC01BD01022E04C0440F551F661F771F1E
:102180000A94D2F749835A836B837C835E8160E033
:1021900070E0CB0154FF0FC06FE070E080E090E092
:1021A00004C0660F771F881F991F2A95D2F7609584
:1021B000709580959095ED81E695E695E370ED83B9
:1021C000E230A9F0E33021F129813A814B815C8131
:1021D000262B372B482B592B29833A834B835C833F
:1021E000E130C1F0CA01B9010E94FB151ECF29815F
:1021F0003A814B815C81262B372B482B592B298325
:102200003A834B835C83CA01B9010E9425160DCF26
:102210000E94FB1569817A818B819C810E94D11576
:1022200004CF112309F44DC03D8130FFFECE2E8135
:10223000229526952770220F220F8E818F7090E0B5
:10224000A0E0B0E0AC01BD01022E04C0440F551F58
:10225000661F771F0A94D2F749835A836B837C8366
:102260005E8160E070E0CB0154FF0FC06FE070E072
:1022700080E090E004C0660F771F881F991F2A95A1
:10228000D2F76095709580959095ED81E695E695ED
:10229000E370ED83E230C9F0E33041F129813A8106
:1022A0004B815C81262B372B482B592B29833A8372
:1022B0004B835C83E130E1F0CA01B9010E94FF1653
:1022C000B4CE823008F4B1CEB2CF29813A814B81AD
:1022D0005C81262B372B482B592B29833A834B8340
:1022E0005C83CA01B9010E9429179FCE0E94FF1684
:1022F00069817A818B819C810E94D51696CE3E8120
:10230000323F09F445C080F4303F79F1313FC9F1E3
:10231000832F805E8031D0F0112309F454C0011165
:102320006BCE8D818F7131C04E81433FC1F1443FEF
:1023300099F71123F1F16D816F716983862F0E94E6
:102340006E1663E089810E9428186FCE5E815F70EF
:1023500059838D818F71112321F00E946E1689811E
:10236000A9CE0E948F168981B3CE112341F005308A
:1023700008F05BCE8D818F710E94B41656CE053069
:10238000F7CF8D818F71112339F00E946E164DCEDB
:102390008D818F711123C9F30E948F1646CE1123B0
:1023A00029F08D818F710E9459163FCE0E944F16E1
:1023B0003CCE81E00E943118023008F436CE82E033
:1023C0000E94311832CE011196CE8D818F71E4CFEB
:1023D0004D814F706E81C7010E946D090E944D159D
:1023E00024CE4D814F706E81C7010E94CF0A1DCE51
:1023F0000F900F900F900F900F900F90DF91CF9153
:102400001F910F91FF90EF90DF90CF9008950F9361
:102410001F93CF93DF93EC01988189812B813C81BD
:10242000232BD1F089238F3FB9F0CE010E94980968
:10243000882391F0688179818A810E94F4178C0148
:102440000E9453170E94C615B801CE01DF91CF91AB
:102450001F910F910C94B00FDF91CF911F910F91AD
:1024600008950E94EF180E9400190E94C2180E944D
:1024700019190E94571E0E94531D80E090E00E948F
:10248000D80D80E090E00C94EE0D0E94DE180C94C4
:1024900031120E94E817282F892F82958F70903C67
:1024A00078F48A30B0F4843020F4823090F480E004
:1024B00008958630E1F781E0203E88F0213F11C089
:1024C0008C3011F08F3099F79F7081E0983038F49C
:1024D000EECF81E0203F39F018F4203E40F7089518
:1024E000243F29F7FCCF0895CF93DF9300D000D08D
:1024F0000F92CDB7DEB70F900F900F900F900F9007
:10250000DF91CF910895CF93DF9300D000D000D01A
:10251000CDB7DEB70F900F900F900F900F900F90E8
:10252000DF91CF9108950F931F93CF93E091DF0137
:10253000C6E08091E0018E1304C0CF911F910F91EE
:1025400008950E2F10E0CE9FF0011124EF51FE4FA1
:102550004081518162817381848195810E948312BF
:10256000F8013196E770E5CF4091110250911202C7
:1025700060911302709114028091150290911602DD
:102580000C948312CF9380911602803108F05EC0C4
:1025900080911302882309F459C08091DF012091B2
:1025A000E001A09111023091120260911402709129
:1025B0001502B32FBA23C6E0281709F447C090E0EC
:1025C0006115710509F44AC0BF3F09F447C0C89FAF
:1025D000F001C99FF00D1124EF51FE4F41813413DA
:1025E00030C040814A1334C04281411131C0038060
:1025F000F481E02DAF01461B570BE617F707E0F01B
:10260000483C510528F5209116022F702061209337
:10261000160226E0289FF001299FF00D1124EA51AF
:10262000FE4F80818F708061808381E192E00E9403
:102630000712CF910C94931241505109483C510517
:1026400010F30196877099272813BECFCF91089574
:102650000196877099272813BACFF8CF0196877013
:10266000ABCFAF92BF92DF92EF92FF920F931F9387
:10267000CF93DF93CDB7DEB72B970FB6F894DEBFBD
:102680000FBECDBF8C0185E0F801DE0117960190E9
:102690000D928A95E1F7D8011296FC9012972C9131
:1026A00011963C9111971396AD90BC9040911102F8
:1026B00050911202E0911402F0911502309709F442
:1026C00049C1842F85238F3F09F444C1D090130260
:1026D000C5018E1B9F0BDD2009F4FAC06091160224
:1026E000AE16BF06D8F0883C910590F1603108F035
:1026F000DCC04F81588569857A858B850E9474126C
:1027000081E192E00E94071286E0E1E1F2E0DF0160
:102710001D928A95E9F70E94B41233C00197883C54
:10272000910520F7603178F1351394C0421392C0BF
:10273000F11090C0F8016583C8010E94071286E07D
:10274000F801A1E1B2E001900D928A95E1F7A8C0ED
:10275000603150F7EF2C35131EC042131CC0F1102E
:1027600026C0809116028F708061809316020E94AD
:10277000B41281E192E00E94071280911602F801E2
:102780008583E12C52C0EF2C351302C0421739F378
:10279000AB2809F45BC0832F82238F3F09F456C016
:1027A000E091DF018091E00196E0FF20C9F0809187
:1027B0001602816080931602E4CF4E2F50E09E9F58
:1027C000F0011124EF51FE4F6181361306C0608184
:1027D000261303C062816111D4CFFA013196E770EC
:1027E000E813EBCF8F8198850E94E817292F229557
:1027F0002F70903248F49F70992311F08823A9F02C
:10280000805E883090F004C0225F2F70223028F064
:10281000C8010E940712ED2C08C09F70992381F314
:10282000D80115969C91903158F78E2D2B960FB6A6
:10283000F894DEBF0FBECDBFDF91CF911F910F91F6
:10284000FF90EF90DF90BF90AF900895FF2009F4C4
:1028500098CFADCF8F8198850E944912882309F4C3
:102860006DC0FF2009F46AC080911602803270F0BA
:1028700020911102309112023A8329831B82BD827A
:10288000AC828E83CE0101960E94071286E0F80189
:10289000A1E1B2E001900D928A95E1F70E94C21287
:1028A0000E94B412EE24E394C0CF3513D3CF421369
:1028B000D1CFF110CFCFF8016583C8010E94071274
:1028C000E1E1F2E086E0DF011D928A95E9F7EACFC7
:1028D000AE16BF06E8F0883C9105A0F5FF2071F127
:1028E000351321C042131FC08091160280FD12C013
:1028F000803180F0F8018583982F907F903F09F414
:102900001BCF982F907F905F8F70892B858314CF7A
:102910000197E1CF86E0F801A1E1B2E001900D92CC
:102920008A95E1F7BFCF8F8198850E944912811166
:10293000ADCF80911602816080931602C8010E947B
:102940000712B0CF4F81588569857A858B850E94A3
:102950007412DACEFF2091F38F8198850E9449127C
:10296000882361F393CF1F93CF93DF93CDB7DEB767
:102970002C970FB6F894DEBF0FBECDBF4F8358879C
:1029800069877A878B879C87CE0107960E943113CF
:10299000882309F18A859B85892B61F058854F81B1
:1029A000852F84238F3F31F069857A858B859C85BF
:1029B0000E94831216E08091DF019091E00189135B
:1029C0004AC02C960FB6F894DEBF0FBECDBFDF9184
:1029D000CF911F91089586E0FE013796DE01119692
:1029E00001900D928A95E1F78F8198852091E00101
:1029F0004091DF016A857B85672BE1F289238F3F58
:102A0000C9F230E0C90101968770992750E0841718
:102A1000950771F40E9445121092E0011092DF01B7
:102A200086E0E1E1F2E0DF011D928A95E9F7C2CF8D
:102A300096E0929FD001939FB00D1124AF51BE4FED
:102A4000FE01319601900D929A95E1F78093E00195
:102A50000E949312AFCF189FC00111248F519E4F37
:102A60000E943113882309F4ACCFE091DF011E9F4F
:102A7000F0011124EF51FE4F408151816281738139
:102A8000848195810E9483128091DF0190E00196FC
:102A9000877099278093DF018ECFFF920F931F934A
:102AA000CF93DF938C01892B79F0F12CE8012196EB
:102AB000F8018491843709F455C098F4823009F400
:102AC0003EC040F48130C9F0DF91CF911F910F914A
:102AD000FF9008959CEF980F9037B0F70E94F10E89
:102AE0000AC0853709F44CC09CE7980F903760F70F
:102AF0008F770E94530F8E0116C0FE01849190E2E1
:102B0000980F983060F4877091E001C0990F8A9512
:102B1000EAF7892F0E94F2180E94191902C00E9438
:102B2000F10E0E5F1F4F8F2D882309F4BFCFEFE901
:102B3000FFE03197F1F700C000008150F5CFFE01B2
:102B4000849190E2980F983050F4877091E001C022
:102B5000990F8A95EAF7892F0E94F818DDCF0E9415
:102B6000530FDFCF0E5F1F4FFE01C491CC23D9F26C
:102B70008FE99FE00197F1F700C00000C150F6CF48
:102B80000E5F1F4FFE01C491FC2ECDCF08956093C0
:102B90006B0270936C0280936D0290936E020C94A2
:102BA0003112CF93DF9300D000D0CDB7DEB7698369
:102BB0007A838B839C8380916B0290916C02A091AD
:102BC0006D02B0916E0229813A814B815C81822B2A
:102BD000932BA42BB52B80936B0290936C02A09344
:102BE0006D02B0936E020F900F900F900F90DF91D7
:102BF000CF910C943112CF93DF9300D000D0CDB79A
:102C0000DEB769837A838B839C8380916B0290917A
:102C10006C02A0916D02B0916E0229813A814B81C4
:102C20005C8182239323A423B52380936B0290932A
:102C30006C02A0936D02B0936E020F900F900F90F4
:102C40000F90DF91CF910C943112CF93DF9300D08E
:102C500000D0CDB7DEB769837A838B839C83809164
:102C60006B0290916C02A0916D02B0916E0229816D
:102C70003A814B815C8182279327A427B5278093D3
:102C80006B0290936C02A0936D02B0936E020F9052
:102C90000F900F900F90DF91CF910C943112109202
:102CA0006702109268021092690210926A020C94F4
:102CB000311241E050E060E070E004C0440F551F65
:102CC000661F771F8A95D2F7409367025093680278
:102CD0006093690270936A020C94311241E050E0F3
:102CE00060E070E004C0440F551F661F771F8A958F
:102CF000D2F78091670290916802A0916902B09129
:102D00006A02842B952BA62BB72B80936702909396
:102D10006802A0936902B0936A020C94311241E0F8
:102D200050E060E070E004C0440F551F661F771F3D
:102D30008A95D2F74095509560957095809167027D
:102D400090916802A0916902B0916A028423952350
:102D5000A623B7238093670290936802A093690229
:102D6000B0936A020C94311241E050E060E070E0F0
:102D700004C0440F551F661F771F8A95D2F78091B4
:102D8000670290916802A0916902B0916A0284275B
:102D90009527A627B7278093670290936802A09390
:102DA0006902B0936A020C943112CF93DF9300D082
:102DB00000D0CDB7DEB769837A838B839C83809103
:102DC000670290916802A0916902B0916A0229811C
:102DD0003A814B815C81822B932BA42BB52B809362
:102DE000670290936802A0936902B0936A020F9001
:102DF0000F900F900F90DF91CF910C943112CF93E1
:102E0000DF9300D000D0CDB7DEB769837A838B83A0
:102E10009C838091670290916802A0916902B091B1
:102E20006A0229813A814B815C8182239323A42306
:102E3000B5238093670290936802A0936902B093D0
:102E40006A020F900F900F900F90DF91CF910C942A
:102E50003112CF93DF9300D000D0CDB7DEB76983B6
:102E60007A838B839C838091670290916802A09102
:102E70006902B0916A0229813A814B815C81822783
:102E80009327A427B5278093670290936802A093A5
:102E90006902B0936A020F900F900F900F90DF912C
:102EA000CF910C94311208959295907FE92FE80FFD
:102EB000877091E001C0990F8A95EAF7892FE6950E
:102EC000E695E69595E0E99FF0011124E95EFD4F56
:102ED00040E050E070E09191DF0111979B01042EDA
:102EE00002C0369527950A94E2F72170219529278B
:102EF000282329272C934F5F5F4F4530510559F701
:102F00000895E92FE295E07FE80F982F9770E695F6
:102F1000E695E69585E0E89FF0011124E95EFD4F16
:102F200040E050E080E0219130E0092E02C036956B
:102F300027950A94E2F721703327042E01C0220F4F
:102F40000A94EAF7822B4F5F5F4F4530510559F7DE
:102F50000895CF92DF92EF92FF920F931F93CF933A
:102F6000DF938C01C0906702D0906802E090690204
:102F7000F0906A0280916B0290916C02A0916D02B8
:102F8000B0916E02C82AD92AEA2AFB2ACFE1D0E002
:102F9000D701C6010C2E04C0B695A79597958795C5
:102FA0000A94D2F780FD0CC0219790F780E0DF9162
:102FB000CF911F910F91FF90EF90DF90CF900895E8
:102FC000B8018C2F0E94ED0A019771F38C2FEFCF7F
:102FD000CF93DF93D82FC92F0E94A9176D2F7C2F75
:102FE000DF91CF910C94ED0A1F93CF93DF93162FAF
:102FF000D72F9091DE01992339F0862F972FDF91FB
:10300000CF911F910C94E817882391F0862F972F6A
:103010000E94A917C82F682F812F9D2F0E94541737
:10302000612F7D2F8C2FDF91CF911F910C94ED0A92
:10303000862F972F0E948117C82FF2CF80916F02A1
:10304000859585958595089580916F02877008957F
:1030500098E0899F90011124622B60936F020C9479
:103060006E1620916F028095822380936F02982FB5
:10307000977091110DC030E0482F082E000C550BB1
:103080002417350729F08595859585950C948F161D
:10309000089590916F02977081E0911101C080E0D6
:1030A0000895909112019923D9F090919A0297FF77
:1030B00017C0982F9695969596959F3131F1E0918E
:1030C0000001F0910101E90FF11D877021E030E06E
:1030D00001C0220F8A95EAF78181822B81830895AE
:1030E0002091000130910101F90132969FEF40E0FB
:1030F0005191851751F09F3F19F4511101C0942F40
:103100004F5F4E31A9F79F3F09F40895290F311DF4
:1031100097FD3A95F90182830895909112019923C0
:10312000F9F090919A0297FF1BC0982F969596956B
:1031300096959F3131F1E0910001F0910101E90F85
:10314000F11D877021E030E0A90102C0440F551F36
:103150008A95E2F7CA018095918189238183089538
:103160002091000130910101F9013296205E3F4F1C
:103170009191891303C0DF0111971C92E217F307A5
:10318000B9F7089581E090E0E0910001F09101012C
:10319000E80FF91F1082019680329105A9F7089572
:1031A00090919302982B909393020895982F909565
:1031B0008091930289238093930208951092930241
:1031C000089590919202982B909392020895982FCF
:1031D0009095809192028923809392020895109293
:1031E0009202089590919102982B909391020895E4
:1031F000982F909580919102892380939102089550
:1032000010929102089580937002089510927002B6
:1032100008952091000130910101F9013196205E5D
:103220003F4F80E0919191118F5FE217F307D1F743
:103230000895E0910001F091010180919302808353
:10324000E0910001F0910101808190919202892B1F
:103250008083E0910001F0910101808190919102C1
:10326000892B808390917002992361F0E091000195
:10327000F09101018081892B80830E9409198111BD
:103280001092700280910001909101010C94C20D86
:103290006DEE7EEF80E090E00E94D72660E082E055
:1032A00090E00E94C52660E083E090E00E94C52681
:1032B00060E084E090E00E94C52660E085E090E058
:1032C0000C94C52680E090E00E94BF269C0181E01E
:1032D0002D3E3E4F09F080E0089582E090E00C948E
:1032E000B726682F82E090E00C94C52683E090E03A
:1032F0000C94B726682F83E090E00C94C52684E0F8
:1033000090E00C94B726682F84E090E00C94C526DA
:103310008091CA02843039F11092950288E190E0E0
:1033200020E40FB6F894A895809360000FBE209318
:10333000600080E00E94CD0A83B7817F846083BFF4
:1033400083B7816083BF7894889583B78E7F83BF6E
:103350000FB6F894A8958091600088618093600012
:10336000109260000FBE089508950895CF930E94B3
:10337000B4190E94F00C0E94B519C0E08C2F0E9475
:10338000A70D892B31F4CF5FC830C1F780E0CF9112
:10339000089581E0FCCF0E9445120E94B60D0C9466
:1033A000CD0A1F921FB61F9211248F939F93AF9344
:1033B000BF9380919502811113C0809196029091E4
:1033C0009702A0919802B09199024196A11DB11D5A
:1033D0008093960290939702A0939802B0939902DB
:1033E000BF91AF919F918F911F901FBE1F90189515
:1033F00082E084BD93E095BD9AEF97BD80936E0007
:1034000008952FB7F8948091960290919702A09119
:103410009802B09199022FBF0895CF92DF92EF9258
:10342000FF929C014FB7F894809196029091970279
:10343000A0919802B09199024FBF6C017D01EE24DA
:10344000FF24A90160E070E0C416D506E606F70681
:1034500038F0821B930BFF90EF90DF90CF90089590
:103460000197F7CF1F921FB61F9211248F939F933E
:10347000AF93BF938091960290919702A09198028A
:10348000B09199020196A11DB11D8093960290936F
:103490009702A0939802B0939902BF91AF919F9128
:1034A0008F911F901FBE1F9018950E944C22F89478
:1034B0002FEF87EA91E6215080409040E1F700C06D
:1034C000000087E090EBDC018093D4029093D5025A
:1034D000A093D602B093D70288E19CE00FB6F8948F
:1034E000A895809360000FBE90936000FFCFAF92CD
:1034F000BF92CF92DF92EF92FF920F931F93CF93E1
:10350000C0E0AA24A394B12CE82EF12C8C2F0E94A9
:10351000A70D6C0100E010E0C501002E02C0880F6D
:10352000991F0A94E2F78C219D21892B99F0602F35
:103530007C2F80E00E94D00AE816F90659F481E059
:10354000CF911F910F91FF90EF90DF90CF90BF90A0
:10355000AF9008950F5F1F4F00311105E9F6CF5F5F
:10356000C830A1F680E0ECCFCF93C82F8CE20E9448
:10357000771A882321F08C2FCF910C94771A80E052
:10358000CF910895CF93DF9300D000D0CDB7DEB7B1
:103590000E946219811102C00E94481924E6298301
:1035A0000E94F00C8FE39CE90197F1F700C0000046
:1035B0009981915099839111F3CF89E20E94B41AB5
:1035C000811116C18AE20E94B41A81110E94481921
:1035D00085E00E94B41A81110E94551A0E946D194B
:1035E0008093940287E00E94B41A882371F08BE1E3
:1035F0000E94B41A882309F4CEC090919402892FB6
:103600008D7F91FF826080939402809194020E944A
:1036100071190E947F1990E090939B0280939A0207
:1036200080EE0E94B41A882341F090919A02892F6B
:103630008E7F90FF816080939A0289E30E94B41A82
:10364000882341F090919A02892F8D7F91FF8260AB
:1036500080939A0282EE0E94B41A882341F09091DE
:103660009A02892F8B7F92FF846080939A0286EE64
:103670000E94B41A882341F090919A02892F877F83
:1036800093FF886080939A0283EE0E94B41A882385
:1036900041F090919A02892F8F7E94FF80618093F0
:1036A0009A0285E30E94B41A882341F090919A020D
:1036B000892F8F7D95FF806280939A0281E30E941B
:1036C000B41A882341F090919A02892F8F7B96FF3C
:1036D000806480939A0281E10E94B41A882341F0A9
:1036E00090919A02892F97FB87F9805880939A02CC
:1036F00080919A020E94831987E20E94B41A8983FA
:103700008EE10E94B41A882319F0A981A260A983CE
:103710008FE10E94B41A882319F0B981B460B9838B
:1037200080E20E94B41A882319F029812860298335
:1037300081E20E94B41A882319F0398130613983FB
:1037400082E20E94B41A882319F0498140624983B9
:1037500083E20E94B41A8823D9F1598150645983B5
:1037600084E20E94B41A811138C089810E947A19BA
:103770003981232F30E040E050E029833A834B83A6
:103780005C83CA01B9010F900F900F900F90DF91E9
:10379000CF910C94C7158EE00E94B41A882339F09B
:1037A00090919402892F8B7F92FF84602CCF80E1CF
:1037B0000E94B41A90919402882329F0892F877F60
:1037C00093FF886020CF892F8E7F90FF81601BCF71
:1037D00084E20E94B41A882321F089818068898359
:1037E000C4CF99819111C1CF0E947619282FC2CFE1
:1037F0000F900F900F900F90DF91CF9108958091CF
:103800009E0280FF12C06091050185E0689FB001B3
:103810001124759567957595679560387105E8F57C
:1038200061157105E1F1862F089581FF09C060914E
:10383000050185E0689FB001112475956795EDCF6E
:1038400082FF07C06091050185E0689FB0011124E7
:10385000E4CF20919F022223E9F06091040180913E
:10386000050190E0261738F025E0289FB001299F38
:10387000700D1124D2CF289FA001299F500D112433
:1038800025E0249FC001259F900D112470E00E9427
:103890008626C3CF65E070E0C6CF8FE7089581E04C
:1038A000089580919E0280FF0CC06091030170E03A
:1038B00075956795759567956115710561F1862F09
:1038C000089581FF06C06091030170E075956795CA
:1038D000F3CF6091030170E082FD15C020919F023B
:1038E0002223B1F0909102016091030170E0291749
:1038F00050F4269FA001279F500D1124692F70E0DE
:10390000CA010E94862660387105B0F28FE70895DB
:1039100061E070E0D4CF81E00895E0E1E80F803FFE
:1039200008F444C0F0E0EF5EF84D0C949A260E9433
:10393000FF1B81958093A20208950E94FF1BFACF7E
:103940000E94FF1B81958093A10208950E94FF1B96
:10395000FACF0E94511C8093A30208950E94511C2B
:103960008195F9CF0E94511C81958093A4020895FE
:103970000E94511CFACF8091A00281608093A00226
:1039800008958091A0028260F9CF8091A0028460A6
:10399000F5CF8091A0028860F1CF8091A002806174
:1039A000EDCF80919E02816080939E020895809168
:1039B0009E028260F9CF80919E028460F5CF2091B3
:1039C000A3029091A4024091A2023091A102803FF3
:1039D00099F447FD1092A2028091A1029091A20257
:1039E000892B9091A302892B9091A402892B81119C
:1039F00002C010929F020895813F19F4141654F3E7
:103A0000EBCF823F29F437FFE7CF1092A102E4CF3A
:103A1000833F19F41316CCF3DFCF893F29F4121634
:103A2000DCF61092A302D8CF8A3F19F427FFD4CF37
:103A3000F8CF8B3F29F497FFCFCF1092A402CCCFC1
:103A40008C3F19F41916CCF3C7CFECE0E80F843F94
:103A500008F4C2CFF0E0EF5DF84D0C949A26809107
:103A6000A0028E7F8093A002B7CF8091A0028D7FAD
:103A7000F9CF8091A0028B7FF5CF8091A002877F44
:103A8000F1CF8091A0028F7EEDCF80919E028E7F3C
:103A900080939E02A1CF80919E028D7FF9CF80916D
:103AA0009E028B7FF5CF80EA92E00E94CD0D0E94AE
:103AB000011A90939D0280939C020895CF93DF9307
:103AC00000D000D00F92CDB7DEB780919C029091CC
:103AD0009D020E940D1A9C0180919F02882371F023
:103AE0004091060150E02417350710F50F900F9014
:103AF0000F900F900F90DF91CF91089540910701A3
:103B00009AE0499FA00111242417350778F390917A
:103B1000A1029111C1C09091A202911119C090917E
:103B2000A302911115C09091A40291110FC0DECF94
:103B30009091A1029111AEC02091A3029091A40294
:103B40003091A202311102C0222379F38F3F19F084
:103B50008F5F80939F028091A10287FF05C00E9422
:103B6000FF1B81958093A1028091A202181624F474
:103B70000E94FF1B8093A2028091A20287FF05C0D2
:103B80000E94FF1B81958093A2028091A10288234D
:103B900009F455C0A091A202AD83AA2309F44FC035
:103BA000282F880F330B440B550B29833A834B8303
:103BB0005C83CA01B9010E948D2523E333E343E30B
:103BC0005FE369837A838B839C8369817A818B81AC
:103BD0009C810E94F12569837A838B839C83698110
:103BE0007A818B819C810E9455256093A1028D81F1
:103BF000082E000C990BAA0BBB0B89839A83AB830D
:103C0000BC83BC01CD010E948D2523E333E343E354
:103C10005FE369837A838B839C8369817A818B815B
:103C20009C810E94F12569837A838B839C836981BF
:103C30007A818B819C810E9455256093A20280919C
:103C4000A302181624F40E94511C8093A3028091B1
:103C5000A30287FF05C00E94511C81958093A30297
:103C60008091A402181624F40E94511C8093A4028F
:103C70008091A40287FF05C00E94511C819580930A
:103C8000A4020F900F900F900F900F90DF91CF91A3
:103C90000C94531D8F3F19F08F5F80939F0219166C
:103CA0000CF059CF0E94FF1B8093A10254CF85E0F6
:103CB000E0EAF2E0DF011D928A95E9F710929F0297
:103CC00010929E0208958091C5020895CF93DF93CC
:103CD00000D00F92CDB7DEB72091CA02243019F57B
:103CE00023E029838A839B832093E9008FEF9091BF
:103CF000E80095FD07C095ED9A95F1F70000815019
:103D00008111F5CF8091E80085FF0DC040E050E0C3
:103D100063E070E0CE0101960E94C4208091E8002B
:103D20008E778093E8000F900F900F90DF91CF91E6
:103D30000895CF93DF9300D00F92CDB7DEB79C01EB
:103D40008091CA02843031F582E08983205831099C
:103D50003B832A8383E08093E9008FEF9091E80012
:103D600095FD07C095ED9A95F1F7000081508111FE
:103D7000F5CF8091E80085FF0DC040E050E063E0A2
:103D800070E0CE0101960E94C4208091E8008E77F9
:103D90008093E8000F900F900F90DF91CF910895DE
:103DA0002091CA022430F1F422E02093E9002FEFA1
:103DB0003091E80035FD07C035ED3A95F1F7000088
:103DC00021502111F5CF2091E80025FF0BC040E0E4
:103DD00050E065E070E00E94C4208091E8008E779A
:103DE0008093E8000895CF93DF93D82FC92F809157
:103DF000CA02843081F590911201992379F1909152
:103E00009A0297FF2BC08093E9008FEF9091E80012
:103E100095FD07C095E19A95F1F700008150811159
:103E2000F5CF8091E80085FF16C040E050E060E2E9
:103E300070E08D2F9C2F0E94C4208091E8008E7727
:103E40008093E80080E2ED2FFC2FA5EAB2E001901C
:103E50000D928A95E1F7DF91CF91089581E08093EB
:103E6000E9008FEF9091E80095FD07C095ED9A95D8
:103E7000F1F7000081508111F5CF8091E80085FFB6
:103E8000EACF40E050E068E070E0D3CF8091D30209
:103E9000811109C00E944C220E94AE228091E20052
:103EA00084608093E20008951092D30208950895EB
:103EB00008950C94CB1942E061EC81E00E94C82186
:103EC00042E061EC82E00E94C82142E061EC83E0C4
:103ED0000E94C82142E261EC84E00C94C8218091E8
:103EE000CC02893089F148F4823009F494C08330DF
:103EF00009F44FC0813041F008958A3009F47BC045
:103F00008B3009F461C008958091CB02813A09F0A9
:103F10003FC08091E800877F8093E8008091CF02C6
:103F20009091D002892B61F060E080E090E070E039
:103F30000E9413218091E8008B778093E800089518
:103F400060E285EA92E0F3CF8091CB02813201F505
:103F50008091CF029091D002009711F00397C1F4A5
:103F60008091E800877F8093E8008091E80082FFDD
:103F70000BC08091F1008093C5028091E8008B779F
:103F80008093E8000C94FC218091CA028111EDCF4E
:103F900008958091CB02813AD9F78091CF02909118
:103FA000D002892BA9F78091E800877F8093E800F1
:103FB0008091E80080FFFCCF809112018093F10096
:103FC0008091E8008E77DCCF8091CB02813201F7BF
:103FD0008091CF029091D002892BD1F68091E80098
:103FE000877F8093E8000E94FC218091CD0280931E
:103FF00012010C9445128091CB02813249F68091D6
:10400000E800877F8093E8000E94FC218091CE0227
:104010008093C60208958091CB02813A09F0B8CF0F
:104020008091E800877F8093E8008091E80080FF1E
:10403000FCCF8091C602C2CF84B7877F84BF0FB602
:10404000F894A89580916000886180936000109238
:1040500060000FBE80E880936100109261000E94B2
:10406000050E0E944C220E94AE228091E2008460E4
:104070008093E20078940E943B250E94070E88E01E
:1040800091E00E94B10D8091CA02853019F00E9422
:104090000D0EF9CF0E9488198091C702882399F3E9
:1040A0000E94B619882379F30E94AE20ECCF9C01C0
:1040B000DA01892F99278330910511F160F481305D
:1040C000910509F441C0029709F443C080E090E0F3
:1040D00020E030E023C08132910549F18297B1F7A9
:1040E0006430A0F770E0FB01EE0FFF1FEF57FE4FAB
:1040F0002081318163587E4FFB01808190E00EC0AA
:10410000C9019927213069F08230910569F0E4EC0A
:10411000F0E1892BD9F6849190E09F012D933C9397
:104120000895ECEAF0E1F7CFE8E9F0E1F4CF64308C
:1041300068F6E62FF0E0EE0FFF1FE757FE4F2081F5
:10414000318189E090E0EACF82E190E025E331E13E
:10415000E5CF8DE690E028EC30E1E0CF84E189BD49
:1041600086E189BD09B400FEFDCF8091D8008F7D26
:104170008093D8008091E00082608093E00080917D
:10418000E00081FDFCCF0895AF92BF92CF92DF9205
:10419000FF920F931F93CF93DF936C01EB018A0182
:1041A0000E941B22F82E811123C00115110539F040
:1041B000F80180819181C81BD90BC80ED91EA12C92
:1041C000B12C2097A9F08091E80085FD22C0809154
:1041D000E8008E778093E80001151105A1F0F80141
:1041E000808191818A0D9B1D9183808385E0F82ECB
:1041F0008F2DDF91CF911F910F91FF90DF90CF9086
:10420000BF90AF9008950E941B228823E1F2F82E00
:10421000EFCFF60181916F018093F1002197FFEFBD
:10422000AF1ABF0ACECFFC019B018091D1029091C1
:10423000D2028617970718F0672B61F0C90140E09A
:10424000009771F441110CC08091E80082FF35C0E5
:1042500080E008958091E8008E778093E800EECFAB
:104260002091CA022223A9F12530A9F12091E8006A
:1042700023FD2DC02091E80022FDE6CF2091E8002B
:1042800020FFDECF2091F2003091F300009719F06B
:104290002830310558F041E02830310509F040E080
:1042A0002091E8002E772093E800CACF41914093F7
:1042B000F10001972F5F3F4FE9CF8091CA02882319
:1042C00041F0853041F08091E80083FFBDCF81E06F
:1042D000089582E0089583E00895FC019B01809198
:1042E000D1029091D2028617970718F0672B61F0E0
:1042F000C90140E0009771F441110CC08091E800C1
:1043000082FF36C080E008958091E8008E77809328
:10431000E800EECF2091CA022223B1F12530B1F19D
:104320002091E80023FD2EC02091E80022FDE6CF79
:104330002091E80020FFDECF2091F2003091F300C1
:10434000009719F02830310558F041E02830310548
:1043500009F040E02091E8002E772093E800CACFD2
:1043600044914093F100319601972F5F3F4FE8CF82
:104370008091CA02882341F0853041F08091E800A5
:1043800083FFBCCF81E0089582E0089583E0089523
:10439000982F973028F08F708093E90081E008957E
:1043A0009093E900242F762F50E0981731F0709108
:1043B000EC002091ED005091F00021FD02C09F5FC4
:1043C000E8CF3091EB003E7F3093EB003091ED0071
:1043D0003D7F3093ED003091EB0031603093EB0086
:1043E0007093EC002093ED005093F0002091EE00CC
:1043F00027FDE5CF80E008958091CB0287FF13C0B1
:104400008091E80082FF06C08091E8008B7780935E
:10441000E80004C08091CA028111F2CF0895809112
:10442000CA028823D9F38091E80080FFF8CF8091F9
:10443000E8008E77ECCF2091E4003091E50095E61E
:10444000A9018091EC008170882331F08091E8000F
:1044500080FF06C080E008952091E80022FD1BC087
:104460008091CA02882391F0853091F08091EB0011
:1044700085FD10C02091E4003091E50042175307FC
:1044800001F391509111DCCF84E0089582E008950A
:1044900083E0089581E008950E94BD220E94C52214
:1044A000E0EEF0E0808181608083E8EDF0E08081E3
:1044B0008F77808319BCA7EDB0E08C918E7F8C93B1
:1044C00080818F7E80831092D30208950F931F9373
:1044D000CF93DF930E94BD220E94C522C8EDD0E099
:1044E00088818F77888388818068888388818F7DA1
:1044F0008883E7EDF0E080818068808319BC1092AA
:10450000CA021092C9021092C7021092C80200EEAD
:1045100010E0F80180818B7F8083888181608883AF
:1045200042E060E080E00E94C821E1EEF0E080819E
:104530008E7F8083E2EEF0E08081816080838081E5
:1045400088608083F80180818E7F8083888180618C
:104550008883DF91CF911F910F910895E8EDF0E0EE
:1045600080818F7E8083E7EDF0E0808181608083B1
:1045700081E08093D3020C946622E8EDF0E0808124
:104580008C7F80831092E20008951092DA001092DE
:10459000E10008951F920F920FB60F9211240BB6EF
:1045A0000F922F933F934F935F936F937F938F93CC
:1045B0009F93AF93BF93EF93FF938091E10082FFAE
:1045C0000BC08091E20082FF07C08091E1008B7FE9
:1045D0008093E1000E943A258091DA0080FF19C0A3
:1045E0008091D80080FF15C08091DA008E7F809383
:1045F000DA008091D90080FF96C084E189BD86E110
:1046000089BD09B400FEFDCF81E08093CA020E94FB
:10461000461F8091E10080FF19C08091E20080FF79
:1046200015C08091E2008E7F8093E2008091E200CD
:1046300080618093E2008091D80080628093D800EE
:1046400019BC85E08093CA020E94581F8091E10046
:1046500084FF29C08091E20084FF25C084E189BDE8
:1046600086E189BD09B400FEFDCF8091D8008F7D21
:104670008093D8008091E1008F7E8093E10080914B
:10468000E2008F7E8093E2008091E200816080935F
:10469000E2008091C902882309F44BC084E0809332
:1046A000CA020E94591F8091E10083FF29C08091B6
:1046B000E20083FF25C08091E100877F8093E100C5
:1046C00082E08093CA021092C9028091E1008E7F3D
:1046D0008093E1008091E2008E7F8093E2008091E0
:1046E000E20080618093E20042E060E080E00E94AE
:1046F000C8218091F00088608093F0000E94571FCD
:10470000FF91EF91BF91AF919F918F917F916F91A9
:104710005F914F913F912F910F900BBE0F900FBE65
:104720000F901F90189519BC1092CA020E94541F36
:1047300070CF8091E30087FF02C083E0B0CF81E0BB
:10474000AECF1F920F920FB60F9211240BB60F929D
:10475000FF920F931F932F933F934F935F936F930A
:104760007F938F939F93AF93BF93CF93DF93EF93F9
:10477000FF9309EE10E0F8018081C091EC00C7952D
:10478000CC27C7958F70FC2EF82A1082C0EFD0E09E
:104790008881877F888378940E94EE23F8011082B5
:1047A000888188608883CF2DCF70C083FF91EF917F
:1047B000DF91CF91BF91AF919F918F917F916F9139
:1047C0005F914F913F912F911F910F91FF900F900B
:1047D0000BBE0F900FBE0F901F9018951F93CF9395
:1047E000DF93CDB7DEB7AA970FB6F894DEBF0FBE42
:1047F000CDBF8BEC92E0FC0101962091F10020836B
:1048000022E0833D9207B9F70E946F1F8091E80074
:1048100083FF36C08091CB029091CC029A3080F514
:10482000E92FF0E0E35DF84D0C949A26803879F09A
:10483000823831F58091CF028F708093E9008091AA
:10484000EB0085FB882780F91092E90006C0809173
:10485000C8029091C702911182609091E800977F01
:104860009093E8008093F1001092F1008091E800AD
:104870008E7729C081111CC08091CD02813041F119
:104880008091E80083FF0AC08091E800877F8093D1
:10489000E8008091EB0080628093EB00AA960FB64F
:1048A000F894DEBF0FBECDBFDF91CF911F91089569
:1048B000823031F78091CD02882389F01092E9008F
:1048C0008091E800877F8093E8000E94FC21D8CF88
:1048D00081E0933009F080E08093C702EFCF8091B0
:1048E000CF028F70882361F28093E9002091EB0062
:1048F00020FFE4CF933031F48091EB00806280930D
:10490000EB00DCCF9091EB0090619093EB0021E005
:1049100030E0A90102C0440F551F8A95E2F7409389
:10492000EA001092EA008091EB008860E8CF8111E4
:10493000A7CF1091CD021F778091E3008078812B63
:104940008093E3008091E800877F8093E8000E94D5
:10495000FC218091E80080FFFCCF8091E30080681B
:104960008093E30083E0111101C082E08093CA02CA
:1049700087CF8058823008F083CF8091CD0290910C
:10498000CE028C3D53E0950799F583E08A838AE255
:1049900089834FB7F894DE01139620E03EE051E2A0
:1049A000E32FF0E050935700849120FF03C08295DD
:1049B0008F703F5F8F708A30C8F0895C90E08D9374
:1049C0009D932F5F243161F74FBF8091E800877F6F
:1049D0008093E8006AE270E0CE0101960E94132104
:1049E0008091E8008B778093E8004ACF805DE6CF26
:1049F000AE014F5F5F4F6091CF020E945720BC0114
:104A0000892B09F43DCF8091E800877F8093E800EF
:104A100089819A810E946D21E3CF803809F030CFDF
:104A20008091E800877F8093E8008091C90280939D
:104A3000F1001CCF811124CF9091CD02923008F06B
:104A40001FCF8091E800877F8093E8009093C90290
:104A50000E94FC218091C902882331F084E0809378
:104A6000CA020E945B1F0CCF8091E30087FDF6CF46
:104A700081E0F5CF0895CF938091CA02882399F001
:104A80008091E900C091EC00C795CC27C7958F7045
:104A9000C82B1092E9008091E80083FD0E94EE236C
:104AA000CF70C093E900CF9108950E945C2568946F
:104AB000B1110C94EB2508950E94D02588F09F57E2
:104AC00098F0B92F9927B751B0F0E1F0660F771F32
:104AD000881F991F1AF0BA95C9F714C0B13091F028
:104AE0000E94EA25B1E008950C94EA25672F782FFB
:104AF0008827B85F39F0B93FCCF3869577956795ED
:104B0000B395D9F73EF490958095709561957F4F58
:104B10008F4F9F4F0895E89409C097FB3EF49095FE
:104B20008095709561957F4F8F4F9F4F9923A9F086
:104B3000F92F96E9BB279395F69587957795679515
:104B4000B795F111F8CFFAF4BB0F11F460FF1BC059
:104B50006F5F7F4F8F4F9F4F16C0882311F096E9EC
:104B600011C0772321F09EE8872F762F05C066239A
:104B700071F096E8862F70E060E02AF09A95660F53
:104B8000771F881FDAF7880F9695879597F908950C
:104B900057FD9058440F551F59F05F3F71F04795EE
:104BA000880F97FB991F61F09F3F79F087950895D3
:104BB000121613061406551FF2CF4695F1DF08C0F2
:104BC000161617061806991FF1CF8695710561050F
:104BD00008940895E894BB2766277727CB0197F9B7
:104BE00008950E9404260C9475260E94672638F0CA
:104BF0000E946E2620F0952311F00C945E260C94F2
:104C0000642611240C94EB250E94C82570F3959F0F
:104C1000C1F3950F50E0551F629FF001729FBB27B3
:104C2000F00DB11D639FAA27F00DB11DAA1F649F4F
:104C30006627B00DA11D661F829F2227B00DA11D02
:104C4000621F739FB00DA11D621F839FA00D611D88
:104C5000221F749F3327A00D611D231F849F600DA9
:104C6000211D822F762F6A2F11249F5750409AF0D2
:104C7000F1F088234AF0EE0FFF1FBB1F661F771F5E
:104C8000881F91505040A9F79E3F510580F00C9429
:104C90005E260C94EB255F3FE4F3983ED4F38695B3
:104CA00077956795B795F795E7959F5FC1F7FE2BC9
:104CB000880F911D9695879597F9089597F99F67A5
:104CC00080E870E060E008959FEF80EC0895002494
:104CD0000A941616170618060906089500240A9461
:104CE00012161306140605060895092E0394000CE7
:104CF00011F4882352F0BB0F40F4BF2B11F460FF76
:104D000004C06F5F7F4F8F4F9F4F089597FB072E13
:104D100016F4009407D077FD09D00E94A32607FC63
:104D200005D03EF4909581959F4F089570956195BB
:104D30007F4F0895EE0FFF1F0024001C0BBE07904D
:104D4000F691E02D0994AA1BBB1B51E107C0AA1FD5
:104D5000BB1FA617B70710F0A61BB70B881F991F1C
:104D60005A95A9F780959095BC01CD010895F999C0
:104D7000FECF92BD81BDF89A992780B50895A8E12C
:104D8000B0E042E050E00C94DF26262FF999FECFE8
:104D900092BD81BDF89A019700B4021639F01FBA8E
:104DA00020BD0FB6F894FA9AF99A0FBE08950196AD
:104DB000272F0E94C6260C94C526DC01CB01FC01DE
:104DC000F999FECF06C0F2BDE1BDF89A319600B464
:104DD0000D9241505040B8F70895F894FFCF380A2B
:104DE000440A480A4C0A500A540A580A5C0A600AE3
:104DF000640A680A6C0A700A740A780A7C0A800AD3
:104E0000840AE50FE50F3B103B107F109C10151036
:104E10001510A71015107F117F11E811151015102E
:104E2000F111971C9D1CA01CA61CBB1CC11CC51C01
:104E3000C91CCD1CA91CAE1CB21CB81CD11CD71C93
:104E4000DB1C2F1D351D391D3D1D411DEC1CEC1CAF
:104E5000EC1CEC1C451D4B1D4F1D16243A24402410
:0E4E60003A2440249724B92440240D251A2515
:104E6E0071022808140A321E631EF31ED01E991EEC
:104E7E00661E01E944EA44B544B644B744CD4483C2
:104E8E0045CC448A459245944521462346244625E1
:104E9E0046264627462A46B344B444F1F00100C6DE
:104EAE00C730316160C1C097049594323334359365
:104EBE00929190E200E900EA00B500B600B700CD8D
:104ECE00008301CC008A0192019401210223022465
:104EDE00022502260227022A02B300B400404D36F4
:104EEE00390312B61180114711DA10F3100C112587
:024EFE001100A1
:00000001FF
