:100000000C946C020C94B3020C94B3020C94B302E3
:100010000C94B3020C94B3020C94B3020C94B3028C
:100020000C94B3020C94B3020C94F81C0C94CB1DEA
:100030000C940D140C94B3020C94B3020C94B30200
:100040000C94B3020C94B3020C94B3020C94B3025C
:100050000C94B3020C946E140C94B3020C94B3027F
:100060000C94B3020C94B3020C94B3020C94B3023C
:100070000C94B3020C94B3020C94B3020C94B3022C
:100080000C94B3020C94B3020C94B3020C94B3021C
:100090000C94B3020C94B3020C94B3020C94B3020C
:1000A0000C94B3020C94B3020C94B30263005D0091
:1000B0005E005C0000005700600061005F0000000F
:1000C0005600015355000000540062005A005B00C6
:1000D00059005800007052004E004D000000A90069
:1000E0004C004B004A00000001000100E00000004D
:1000F000E3002A0051004F005000AA000100010057
:1001000001000100000001000100010001000000E9
:1001100001000100010000000100010001000100D8
:1001200001000100010001000100010000000100C8
:1001300001000100010000000100010001000000B9
:1001400001000100010001000100010001000100A7
:100150000100010000000100010001000100000099
:100160000100010001000000010001000100010088
:100170000100010001000100010001000000010078
:100180000100010001000000010001000100000069
:100190000100010001000100010001000100010057
:1001A0000100010000000100010001000100000049
:1001B0000100010001000000010001000100010038
:1001C0000100010001000100010001000000010028
:1001D0000100010001000000010001000100000019
:1001E0000100010001000100010001000100010007
:1001F00001000100000001000100010001000000F9
:1002000001000100010000000100010001000100E7
:1002100001000100010001000100010000000100D7
:1002200001000100010000000100010001000000C8
:1002300001000100010001000100010001000100B6
:1002400001000100000001000100010001000000A8
:100250000100010001000000010001000100010097
:100260000100010001000100010001000000010087
:100270000100010001000000010001000100000078
:100280000100010001000100010001000100010066
:100290000100010000000100010001000100000058
:1002A0000100010001000000010001000100010047
:1002B0000100010001000100010001000000010037
:1002C0000100010001000000010001000100000028
:1002D0000100010001000100010001000100010016
:1002E0000100010000000100010001000100000008
:1002F00001000100010000000100010001000100F7
:1003000001000100010001000100010000000100E6
:1003100001000100010000000100010001000000D7
:1003200001000100010001000100010012036B0047
:100330006500790062006F006100720064000000D7
:10034000160371006D006B006200750069006C009F
:1003500064006500720000000403090409026D00D6
:10036000040100A0FA0904000001030101000921B1
:10037000110100012240000705810308000A090459
:1003800001000103010200092111010001224D00B9
:100390000705820308000A090402000103000000A7
:1003A0000921110100012236000705830308000A14
:1003B00009040300010300000009211101000122CA
:1003C000390007058403200001120110010000001C
:1003D00008EDFE606001000102000105010906A1AF
:1003E00001050719E029E715002501950875018128
:1003F00002050819012905950575019102950175F8
:100400000391010507190029F71500250195F875D5
:10041000018102C005010980A101850216010026A3
:1004200003001A81002A8300751095018100C00520
:100430000C0901A1018503160100269C021A010086
:100440002A9C02751095018100C005010902A101D5
:100450000901A100050919012905150025019505C6
:10046000750181029501750381010501093009318A
:100470001581257F95027508810609381581257F2C
:10048000950175088106050C0A38021581257F95AE
:100490000175088106C0C005010906A101050719FB
:1004A000E029E71500250195087501810295017580
:1004B0000881010508190129059505750191029525
:1004C00001750391010507190029FF150026FF009A
:1004D000950675088100C00011241FBECFEFDAE039
:1004E000DEBFCDBF04B603FE27C080910D02909100
:1004F0000E02A0910F02B09110028730904BA740DE
:10050000B04BD1F410920D0210920E0210920F0215
:100510001092100214BE84B7877F84BF0FB6F89480
:10052000A8958091600088618093600010926000BF
:100530000FBEE0E0F8E3099511E0A0E0B1E0E0E7EC
:10054000F2E402C005900D92A033B107D9F722E082
:10055000A0E3B1E001C01D92AD30B207E1F70E9407
:100560004E1A0C940A210C94000090E080E008954B
:100570000895089581E00895089581E008950C9408
:10058000BA020E945D0C2FEF84E39CE02150804072
:100590009040E1F700C000000C949114EF92FF929C
:1005A0000F931F93CF93DF938C01FC01E080F180C8
:1005B00080915801811140C082818823C1F1C70117
:1005C0000E94E411C82F682FC7010E948B11B70148
:1005D0008C2F0E940604EC01B8010E94BF02882300
:1005E00009F44BC0B801CE010E940F06882309F41C
:1005F00044C0C531F0E7DF0720F5C23080E7D807F7
:1006000008F04DC0C115E0E7DE0791F1C130D047D9
:10061000E1F181E08093320180933301C801DF91E1
:10062000CF911F910F91FF90EF900C94BD02C701E5
:100630000E94BA11C82FCBCFC7010E94E411B701A5
:10064000C8CFCC3380E7D80709F49BC0CD33D0475F
:1006500001F7F8018281882309F4BAC010923301AE
:100660000E943D14909331018093300180E296C046
:10067000F801828181110E94C10280E0DF91CF9157
:100680001F910F91FF90EF900895F80182818823C8
:10069000A1F38091CD0181608093CD01EECFF8016F
:1006A0008281882309F4BACF0E949F13811102C06E
:1006B0000E9485130E94BC1390E09093FF018093E9
:1006C000FE01FE01E350F0478091FE018160E231BE
:1006D000F10538F4E45FFE4D0C94BA208091FE01E0
:1006E00082608093FE018091FE010E94C0130E94EF
:1006F0005D0CC3CF8091FE018460F3CF8091FE0139
:100700008860EFCF8091FE018061EBCF8091FE0188
:100710008062E7CF8091FE018064E3CF8091FE018B
:100720008068DFCF8091FE018C60DBCF8091FE017D
:100730008E7FD7CF8091FE018D7FD3CF8091FE0138
:100740008B7FCFCF8091FE01877FCBCF8091FE0141
:100750008F7EC7CF8091FE018F7DC3CF8091FE0138
:100760008F7BBFCF8091FE018F77BBCF8091FE0141
:10077000837FB7CF9091FE01892F97FB87F980582F
:10078000B0CFF8018281882361F0109232010E947B
:100790003D14909331018093300182E00E94C209A0
:1007A0006CCF8091320181110FC080913001909106
:1007B00031010E944914883C910530F486E20E9480
:1007C000970886E20E94730982E00E94C90955CF0A
:1007D0008091330181110FC08091300190913101DE
:1007E0000E944914883C910530F487E20E949708E2
:1007F00087E20E94730980E2E8CF0C945E060C94B5
:1008000060060C94BC020C9401040895972F70E0CC
:1008100025E0929F600D711D1124FB0194E1899FD9
:10082000E00DF11D1124EE0FFF1FE455FF4F8591E0
:1008300094910895FC01EE0FFF1FE45DFC4F85913C
:10084000949108950E9406040E9493059C018115CD
:1008500040E4940708F097C0211580E3380708F0BA
:10086000FAC0203E310508F074C0203C310508F084
:10087000E5C0283A310588F4253A310508F0E2C090
:100880002130310509F477C0C9010497813A9105F7
:1008900008F471C030E020E06EC0C901885A9109A7
:1008A0004597C0F7283A310509F4FEC0293A3105C9
:1008B00009F4FDC02A3A310509F4FCC02B3A310590
:1008C00009F4FBC02C3A310509F4FAC02B3B310581
:1008D00009F4F9C02C3B310509F4F8C02D3A310573
:1008E00009F4F7C0203B310509F4F6C02E3A310572
:1008F00009F4F5C02F3A310509F4F4C0213B310564
:1009000009F4F3C0223B310509F4F2C0233B310561
:1009100009F4F1C0243B310509F4F0C0253B310551
:1009200009F4EFC0263B310509F4EEC0273B310541
:1009300009F4EDC0283B310509F4ECC0293B310531
:1009400009F4EBC02A3B310509F4EAC020E034E4A5
:1009500012C0211590E2390780F42F3F310509F0CC
:1009600050F4283E310538F0C901805F91093065A7
:10097000409708F08FCFC9010895C9019F700E9468
:100980001A049C01F8CF8115944508F041C0211547
:1009900083E5380708F06AC0211592E5390738F574
:1009A000211541E5340708F05CC0211580E53807C2
:1009B00008F454C0C90134E0969587953A95E1F75B
:1009C0008370422F46954695437090E2499FA0015F
:1009D0001124582B822F837021E030E002C0220FB7
:1009E000331F8A95E2F7242B352B3C68C4CFC9010D
:1009F0008370992741E050E002C0440F551F8A954B
:100A0000E2F72695269580E2289F90011124EBCFEE
:100A1000211596E5390748F4922F88272115354589
:100A2000C8F59C01246F306AA6CFC90190563F706B
:100A30008115904108F02ECF30629DCFC901805CB6
:100A400091099DCF253A310549F1263A310549F5FD
:100A500022E830E490CF3327306C8DCF3F70306A7E
:100A60008ACF322F2227216F306A85CFC901837048
:100A7000992741E050E002C0440F551F8A95E2F7E4
:100A80002695269580E2289F90011124242B352B52
:100A90003A6871CF88279F719C01CECF21E830E45E
:100AA0006ACF23E830E467CF22EE34E464CF29EE46
:100AB00034E461CF2AEE34E45ECF25EB34E45BCF3F
:100AC00026EB34E458CF23EB34E455CF24EB34E465
:100AD00052CF27EB34E44FCF2CEC34E44CCF2DEC49
:100AE00034E449CF23E835E446CF2AE835E443CF60
:100AF00022E935E440CF24E935E43DCF21E236E474
:100B00003ACF23E236E437CF24E236E434CF25E28D
:100B100036E431CF26E236E42ECF27E236E42BCF7F
:100B20002AE236E428CF803E910581F1C8F4813372
:100B3000910509F462C048F48932910509F456C060
:100B40008A32910509F460C0089589339105B9F09E
:100B500082389105A1F08533910509F440C00895CC
:100B6000863E910561F138F4823E9105B1F0833EF5
:100B70009105E1F00895873E910551F10895209186
:100B8000FE012370D9F080EE90E008952091FE01DF
:100B900020FF14C089E390E008952091FE0122FF18
:100BA0000DC024FD09C083EE90E008952091FE0160
:100BB00022FD31C024FF02C090E080E00895209122
:100BC000FE0123FFFBCF24FDF7CF87EE90E00895D1
:100BD0002091FE0123FFEECF86EE90E00895209154
:100BE000FE0125FFEBCF89E290E008952091FE0100
:100BF00025FFE4CF85E390E008952091FE0126FFD4
:100C0000DDCF8AE290E008952091FE0126FFD6CF45
:100C100081E390E0089582EE90E0089508950F93A7
:100C20001F93CF938C01FB018281811106C0C1E02B
:100C30008C2FCF911F910F910895C0914101C11147
:100C400025C00531104799F70E940E0681E0809378
:100C500041010E943D149093400180933F01109206
:100C60003401109236011092350110923801109221
:100C7000370110923A011092390110923C01109202
:100C80003B0110923E0110923D01D2CF80913F0175
:100C9000909140010E944914883C910540F6809152
:100CA0003401E82FF0E0EE0FFF1FEB5CFE4F1183E5
:100CB00000838F5F80933401C0E0BACF0C94B802F8
:100CC0000C94B902CF93DF9385B7806885BF85B751
:100CD000806885BFA3E1B1E048E151E0C1E0D0E028
:100CE0008D91E82FE295EF70F0E061A18F709E0189
:100CF00001C0220F8A95EAF7922F9095962391A32F
:100D000082A1822B82A34A175B0751F7A8E1B1E0C9
:100D10004CE151E0C1E0D0E08D91E82FE295EF7019
:100D2000F0E061A18F709E0101C0220F8A95EAF761
:100D3000922F9095962391A382A1822B82A34A178A
:100D40005B0751F710924601109242011092470141
:100D500010924301109248011092440110924901EF
:100D600010924501DF91CF910C94FD034F925F9259
:100D70006F927F928F929F92AF92BF92CF92DF92AB
:100D8000EF92FF920F931F93CF93DF9303E111E054
:100D9000512C412CCC24C394D12C96E4E92E91E023
:100DA000F92EBB24B394E80189918E01E82FE295D6
:100DB000EF70F0E091A18F70960101C0220F8A952B
:100DC000EAF7892F822B81A382A1722E709487214A
:100DD00082A3D0EADA95F1F7C601042C01C0880F8E
:100DE0000A94EAF7682EA82EA094A2E4B1E048E1A4
:100DF00051E0812C9D90EA016991AE01862F829588
:100E00008F7090E0EC0188A190E06F7002C0959522
:100E100087956A95E2F7BD016150710980FD56C062
:100E2000862D8929EB0188838881981611F0882402
:100E30008394EA16FB06F1F681A1782271A282A1C1
:100E4000282B22A3882041F0B0924A010E943D1431
:100E500090934C0180934B01DFEF4D1A5D0AE5E062
:100E60004E16510409F09FCF80914A018823D1F09A
:100E700080914B0190914C010E944914069790F08B
:100E80008091420180934601809143018093470104
:100E900080914401809348018091450180934901EC
:100EA00010924A010E94FF0381E0DF91CF911F91D0
:100EB0000F91FF90EF90DF90CF90BF90AF909F90F9
:100EC0008F907F906F905F904F9008958A2D892129
:100ED000A9CFE82FF0E0EA5BFE4F808108950895E6
:100EE00090935201809351010895E0915101F09146
:100EF0005201309721F00190F081E02D099480E0BB
:100F00000895E0915101F0915201309721F0028053
:100F1000F381E02D09940895E0915101F09152017F
:100F2000309721F00480F581E02D099408952091F7
:100F30004F01309150012817390771F090935001FB
:100F400080934F01E0915101F0915201309721F0CF
:100F50000680F781E02D0994089520914D0130918C
:100F60004E012817390771F090934E0180934D017F
:100F7000E0915101F0915201309721F00084F18508
:100F8000E02D0994089508950C94C3070E94341429
:100F90000E9462060C94F614BF92CF92DF92EF92F9
:100FA000FF920F931F93CF93DF9300D000D00F9247
:100FB000CDB7DEB70E94B60684E5C82E81E0D82EF4
:100FC00010E000E0E02E802F0E946907B82EF601A5
:100FD000F1906F01F81609F45BC08091CD0181FD9D
:100FE0000E946F0730E020E0FB244F2D50E0922F4D
:100FF000BA01022E02C0759567950A94E2F760FF68
:1010000041C02983EA8221E030E0790102C0EE0C80
:10101000FF1C9A95E2F72B2D30E02E213F2181E035
:10102000232B09F480E08B830E943D148160782F8C
:101030009D838C8349815A816B818D810E946E08CA
:10104000F801EC5AFE4F80818E2580830E94A31701
:101050000E94750790915301891789F10E947507C5
:10106000809353010F900F900F900F900F90DF918E
:10107000CF911F910F91FF90EF90DF90CF90BF9095
:101080000C9403042F5F3F4F2530310509F0AFCF9B
:101090000F5F1F4F0430110509F094CF8FEF898344
:1010A0008A831B820E943D148160782F9D838C83EC
:1010B00049815A816B818D810E946E08C7CF0F9044
:1010C0000F900F900F900F90DF91CF911F910F9184
:1010D000FF90EF90DF90CF90BF900895CF93DF9374
:1010E000CDB7DEB72B970FB6F894DEBF0FBECDBFDE
:1010F0004F83588769877A878B871E8285E0FE0138
:101100003796DE01119601900D928A95E1F749819B
:101110005A816B817C818D819E812B960FB6F894CC
:10112000DEBF0FBECDBFDF91CF910C94E50E8823BB
:1011300009F4D8C0823871F40E94750781FDD2C0CD
:1011400089E30E948C120E94561389E30E94C912FF
:101150000C945613833859F40E94750780FDC2C061
:1011600083E50E948C120E94561383E5EFCF8438EA
:1011700059F40E94750782FDB5C087E40E948C1265
:101180000E94561387E4E2CF9CEF980F913A18F42F
:101190000E948C12DDCF90E2980F983050F4877047
:1011A00091E001C0990F8A95EAF7892F0E940D13EB
:1011B000CFCF9BE5980F933070F4853A31F0863AA3
:1011C00039F083E890E00C94970781E890E0FBCF3A
:1011D00082E890E0F8CF98E5980F953108F082C04A
:1011E000883A09F440C0893A09F440C08A3A09F4BF
:1011F00040C08B3A09F440C08C3A09F440C08B3BA4
:1012000009F440C08C3B09F440C08D3A09F440C059
:10121000803B09F440C08E3A09F440C08F3A09F48B
:1012200040C0813B09F440C0823B09F440C0833B8D
:1012300009F440C0843B09F440C0853B09F440C038
:10124000863B09F440C0873B09F440C0883B09F461
:1012500040C0893B09F440C08A3B09F440C090E09B
:1012600080E00C94AD0782EE90E0FBCF89EE90E039
:10127000F8CF8AEE90E0F5CF85EB90E0F2CF86EBE9
:1012800090E0EFCF83EB90E0ECCF84EB90E0E9CF00
:1012900087EB90E0E6CF8CEC90E0E3CF8DEC90E034
:1012A000E0CF83E891E0DDCF8AE891E0DACF82E910
:1012B00091E0D7CF84E991E0D4CF81E292E0D1CF21
:1012C00083E292E0CECF84E292E0CBCF85E292E05F
:1012D000C8CF86E292E0C5CF87E292E0C2CF8AE231
:1012E00092E0BFCF0895882309F44BC0823871F48F
:1012F0000E94750781FF45C089E30E948C120E94FD
:10130000561389E30E94C9120C945613833859F47A
:101310000E94750780FF35C083E50E948C120E94F1
:10132000561383E5EFCF843859F40E94750782FF86
:1013300028C087E40E948C120E94561387E4E2CFF3
:101340009CEF980F913AF0F290E2980F983050F499
:10135000877091E001C0990F8A95EAF7892F0E9462
:101360001313D2CF9BE5980F933020F490E080E0E8
:101370000C949707885A853120F490E080E00C9413
:10138000AD070895882321F00E940D130C94561385
:101390000895882321F00E9413130C945613089586
:1013A0008F929F92AF92BF92DF92EF92FF920F9334
:1013B0001F93CF93DF9300D000D00F92CDB7DEB74D
:1013C0007C016D837983FC01058102950F70128188
:1013D00011110E942C130E948512D82E882371F0BF
:1013E0001123A1F08D81805E883080F082E00E9420
:1013F0006F120E94851291E0D82ED926E981E295DC
:10140000EF70F0E0E25EFE4D0C94BA20D12CF6CFE6
:1014100009810F70F981F07F11F00295007F11238F
:10142000B1F0002361F08D81805E883018F02D814D
:10143000211109C0802F0E940D130E9456138D8127
:101440000E94970815C0802F0E941E13F6CF8D8131
:101450000E947309002361F08D81805E883018F04E
:101460003D81311129C0802F0E9413130E94561311
:10147000DD2009F4D3C10E94621280FDCFC1F701C3
:1014800012820E945C120E94A310C7010E941F0CCE
:101490000E945C120F900F900F900F900F90DF91B1
:1014A000CF911F910F91FF90EF90DF90BF90AF9081
:1014B0009F908F900C94C510802F0E942413D6CF3C
:1014C00049814F70B42E5981507F503219F0B29437
:1014D00080EFB8228D81882369F0813029F11123B2
:1014E00069F1002359F0F701858180FFA8CF8F7043
:1014F000858304C0112361F0011104C08B2D0E946B
:10150000C209B6CF8B2D0130D1F70E944013B0CF66
:10151000011106C00E9443138B2D0E94C909A8CF58
:10152000013009F4A5CFF6CF112321F0063008F0E1
:101530009FCFE4CF053008F09BCFEECF002361F3BF
:101540008D810E94730994CF8981869586958370D9
:1015500069F0813009F08CCF8D81998193701111E0
:1015600002C090E080E00E94AD0782CF8D8199811A
:101570009370111102C090E080E00E94970778CF2D
:101580008D81112329F00E94B1160E94981770CF07
:101590000E941917FACF8981837009F05FC0111179
:1015A00067CF2D81229526952770220F220F8D81DE
:1015B0008F7090E0B0E0A0E04C015D01022E04C00D
:1015C000880C991CAA1CBB1C0A94D2F7FD8160E010
:1015D00070E0CB01F4FF0FC06FE070E080E090E0BE
:1015E00004C0660F771F881F991F2A95D2F7609550
:1015F00070958095909529812695269523702D8349
:101600002230B1F0233019F19B01AC01282939298E
:101610004A295B2929833A834B835C833D81698115
:101620007A818B819C813130B1F00E94301020CFC3
:101630009B01AC01282939294A295B2929833A834E
:101640004B835C83CA01B9010E945A1011CF0E94DA
:101650003010C501B4010E9406100ACF86951123EF
:1016600011F089818170882309F402CF2D812295A0
:1016700026952770220F220F8D818F7090E0B0E0A9
:10168000A0E04C015D01022E04C0880C991CAA1C2C
:10169000BB1C0A94D2F73D8160E070E0CB0134FFBF
:1016A0000FC06FE070E080E090E004C0660F771F2D
:1016B000881F991F2A95D2F760957095809590950F
:1016C00049814695469543704D834230B1F0433091
:1016D00019F19B01AC01282939294A295B29298361
:1016E0003A834B835C833D8169817A818B819C81C4
:1016F0003130B1F00E943611BBCE9B01AC012829DC
:1017000039294A295B2929833A834B835C83CA019F
:10171000B9010E946011ACCE0E943611C501B4011E
:101720000E940C11A5CE3D81323F09F447C080F4E0
:10173000303F79F1313FD9F1832F805E8031D0F095
:10174000112309F456C001117ACE89818F7133C0FB
:101750004D81433FD1F1443F99F7112309F43FC034
:1017600089818F7189830E94A31063E089810E941F
:1017700066127ECE5D815F705D8389818F711123DA
:1017800021F00E94A3108D81BACE0E94C5108D81D8
:10179000C4CE112341F0053008F06ACE89818F71E3
:1017A0000E94EA1065CE063008F062CEF7CF89813C
:1017B0008F71112339F00E94A3105ACE89818F7145
:1017C0001123C9F30E94C51053CE112329F089813A
:1017D0008F710E948E104CCE0E94841049CE81E001
:1017E0000E946F12023008F443CE82E00E946F1212
:1017F0003FCE0111A5CE89818F71E4CF49814F7011
:101800006D81C7010E94B5020E947F0F31CE4981D0
:101810004F706D81C7010E9405042ACE0F900F9072
:101820000F900F900F90DF91CF911F910F91FF902C
:10183000EF90DF90BF90AF909F908F9008950F939F
:101840001F93CF93DF93EC018B819C81892B29F02F
:101850008881998189238F3F29F4DF91CF911F914E
:101860000F910895CE010E94CE028823B1F36881C2
:1018700079818A810E9432128C010E948A110E9411
:10188000FB0FB801CE01DF91CF911F910F910C9406
:10189000D0090E942C130E943D130E94FF120E9447
:1018A00056130E9489180E94981790E080E00E94C9
:1018B000970790E080E00C94AD070E941B130C94F6
:1018C000490C0E942612282F892F82958F70903CF8
:1018D00080F48A30B0F4843020F4823090F480E0D8
:1018E00008958630E1F781E0203E88F0213FB9F786
:1018F0000EC08C3011F08F3091F793FB882780F960
:10190000089581E0203F39F018F4203E40F7089513
:10191000243F29F7FCCF0895CF93DF9300D000D068
:101920000F92CDB7DEB70F900F900F900F900F90E2
:10193000DF91CF910895CF93DF9300D000D000D0F6
:10194000CDB7DEB726960FB6F894DEBF0FBECDBF7B
:10195000DF91CF9108951F93CF93DF93E0915901C9
:1019600016E080915A018E1304C0DF91CF911F9130
:101970000895CE2FD0E01E9FF0011124E55AFE4FAE
:101980004081518162817381848195810E949B0C89
:10199000FE013196E770E5CF40918B0150918C01AB
:1019A00060918D0170918E0180918F0190919001D5
:1019B0000C949B0C1F93CF93DF9380919001807FB9
:1019C000C1F480918D018823A1F080915901C091CB
:1019D0005A0160918B0170918C0140918E01509160
:1019E0008F01D62FD723DA01A095B09516E0C81342
:1019F00004C0DF91CF911F91089590E041155105EA
:101A000011F0DF3F31F401968770F1CF2A0F3B1FB1
:101A100017C0189FF001199FF00D1124E55AFE4FD1
:101A200021812713F0CF20812613EDCF22812111B0
:101A3000EACF238134812417350740F3241B350B6B
:101A4000283C310500F7209190012F7020612093F0
:101A5000900126E0289FF001299FF00D1124E05A03
:101A6000FE4F80818F70806180838BE891E00E94BF
:101A70001F0CDF91CF911F910C94AB0C9F92AF92F2
:101A8000BF92CF92DF92EF92FF920F931F93CF936B
:101A9000DF93CDB7DEB72B970FB6F894DEBF0FBE3E
:101AA000CDBF8C0185E0F801DE01179601900D9203
:101AB0008A95E1F7D8014C9111965C911197129695
:101AC000EC90129780918E0190918F01009709F40C
:101AD0006BC120918B0130918C01632F62236F3F8A
:101AE00009F462C11396CD90DC9090908D019920FD
:101AF00009F4F8C0C816D90608F43FC0F601E81B7F
:101B0000F90BCF01FF24F394883C910508F0F12CE8
:101B10008BE8A82E81E0B82E80919001982F907FBD
:101B2000FF2009F4B7C0911180C0FE2C35132AC0E4
:101B3000241328C0E11026C08F708061809390012B
:101B40000E94CC0CC5010E941F0C80919001D8010D
:101B500015968C938F2D2B960FB6F894DEBF0FBE83
:101B6000CDBFDF91CF911F910F91FF90EF90DF904C
:101B7000CF90BF90AF909F900895809590958C0DD9
:101B80009D1DC0CFCD2829F0842F85238F3F09F0DC
:101B900019C180E0B82FB170DB2EE091590120917E
:101BA0005A0136E080FD1CC0EE20A1F28091900128
:101BB000816080939001F12CCDCF8E2F90E03E9FDD
:101BC000F0011124E55AFE4F6181651306C0608162
:101BD000641303C062816E11E7CFFC013196E77098
:101BE000E213EBCF4F8358878F8198850E9426128E
:101BF000292F22952F70903260F0225F2F702230B3
:101C000078F49F7051F0F8019581907F31F4D12CD8
:101C10000AC09F7011F08823D1F3805E8830B8F33A
:101C2000C8010E941F0CFD2C95CF351306C024134C
:101C300004C0D801EE2009F47BC04F8358878F8100
:101C400098850E94610C882309F4B8C0EE2009F43D
:101C5000B5C080919001803270F020918B0130915D
:101C60008C013A8329831B82DD82CC828E83CE0154
:101C700001960E941F0C86E0F801ABE8B1E00190EC
:101C80000D928A95E1F70E94DA0C0E94CC0CFF2499
:101C9000F39460CF911113C07C2DDB86CA866E2D24
:101CA0008B850E948C0C8BE891E00E941F0C86E0D3
:101CB000F50111928A95E9F70E94CC0C4BCF3513B0
:101CC000BCCF2413BACFE110B8CFD80115968C93AE
:101CD000C8010E941F0C86E0F50111928A95E9F770
:101CE000F92C38CFC816D90688F1B601681B790BD4
:101CF000CB01F12C883C910508F047C0FE2CEE206A
:101D000009F45CC0351330C024132EC080919001BB
:101D100080FD21C0982F907FF1F0D80115968C930B
:101D20001597903F39F0982F907F905F8F70892B97
:101D300015968C93C8010E941F0C86E0F801ABE851
:101D4000B1E001900D928A95E1F7B6CF809590951C
:101D50008C0D9D1DCECF86E0F801ABE8B1E001907F
:101D60000D928A95E1F7F6CE4F8358878F8198853B
:101D70000E94610C81117FCF8091900181608093DE
:101D80009001C8010E941F0CE5CE7C2DDB86CA861F
:101D90006E2D8B850E948C0C86E0EBE8F1E0DF0174
:101DA0001D928A95E9F788CFEE2041F04F8358873E
:101DB0008F8198850E94610C81115DCFC8010E94BE
:101DC0001F0C65CF81E08E25E5CE1F93CF93DF9367
:101DD000CDB7DEB72C970FB6F894DEBF0FBECDBFE0
:101DE0004F83588769877A878B879C87CE010796B0
:101DF0000E943E0D882369F08A859B85892B39F0E6
:101E00004F815885842F85238F3F09F071C016E0DC
:101E10005FC086E0FE013796DE01119601900D92BB
:101E20008A95E1F78A859B85892B89F388859F812F
:101E300089238F3F61F320915A0130E0C901019657
:101E400087709927409159014817190671F40E942B
:101E50005D0C10925A011092590186E0EBE8F1E016
:101E6000DF011D928A95E9F7D2CF96E0929FD001CB
:101E7000939FB00D1124A55ABE4FFE0131960190DB
:101E80000D929A95E1F780935A010E94AB0CBFCF57
:101E9000819FC0011124855A9E4F0E943E0D8823C8
:101EA000E9F0E09159011E9FF0011124E55AFE4F1F
:101EB0004081518162817381848195810E949B0C54
:101EC0008091590190E0019687709927809359017C
:101ED0008091590190915A018913DACF2C960FB64F
:101EE000F894DEBF0FBECDBFDF91CF911F91089553
:101EF00069857A858B859C850E949B0C88CFEF92A3
:101F0000FF920F931F93CF93DF938C01892B89F05E
:101F1000F12CEE24E394E8012196F80184918437B2
:101F200009F457C0A0F4823009F43EC048F481306F
:101F3000D1F0DF91CF911F910F91FF90EF90089515
:101F40009CEF980F9037A8F70E9497080AC0853732
:101F500009F44CC09CE7980F903758F78F770E9490
:101F600073098E0116C00E5F1F4FFE01849190E22F
:101F7000980F983060F48770FE2D01C0FF0F8A958E
:101F8000EAF78F2F0E942F130E94561302C00E945F
:101F900097088F2D815008F4BECFEFE9FFE031970D
:101FA000F1F700C00000F6CF0E5F1F4FFE018491D5
:101FB00090E2980F983050F48770FE2D01C0FF0F0B
:101FC0008A95EAF78F2F0E943513DECF0E9473099E
:101FD000E0CF0E5F1F4FFE01C491C150D0F28FE9D8
:101FE0009FE00197F1F700C00000F7CF0E5F1F4F91
:101FF000FE01F490CECF08956093A4017093A501E3
:102000008093A6019093A7010C94490CCF93DF9382
:1020100000D000D0CDB7DEB769837A838B839C83F1
:102020008091A4019091A501A091A601B091A70172
:1020300029813A814B815C81822B932BA42BB52B78
:102040008093A4019093A501A093A601B093A7014A
:102050000F900F900F900F90DF91CF910C94490C3F
:10206000CF93DF9300D000D0CDB7DEB769837A83FA
:102070008B839C838091A4019091A501A091A601DE
:10208000B091A70129813A814B815C8182239323FE
:10209000A423B5238093A4019093A501A093A60146
:1020A000B093A7010F900F900F900F90DF91CF91F9
:1020B0000C94490CCF93DF9300D000D0CDB7DEB79E
:1020C00069837A838B839C838091A4019091A5017D
:1020D000A091A601B091A70129813A814B815C8131
:1020E00082279327A427B5278093A4019093A50165
:1020F000A093A601B093A7010F900F900F900F909F
:10210000DF91CF910C94490C1092A0011092A10183
:102110001092A2011092A3010C94490C41E050E0EE
:1021200060E070E004C0440F551F661F771F8A955A
:10213000D2F74093A0015093A1016093A201709344
:10214000A3010C94490C282F81E090E0A0E0B0E0BE
:1021500004C0880F991FAA1FBB1F2A95D2F7409170
:10216000A0015091A1016091A2017091A301842B63
:10217000952BA62BB72B8093A0019093A101A09340
:10218000A201B093A3010C94490C41E050E060E03F
:1021900070E004C0440F551F661F771F8A95D2F761
:1021A00040955095609570958091A0019091A10106
:1021B000A091A201B091A30184239523A623B72364
:1021C0008093A0019093A101A093A201B093A301D9
:1021D0000C94490C282F81E090E0A0E0B0E004C00E
:1021E000880F991FAA1FBB1F2A95D2F74091A00103
:1021F0005091A1016091A2017091A30184279527BC
:10220000A627B7278093A0019093A101A093A201D4
:10221000B093A3010C94490CCF93DF9300D000D06E
:10222000CDB7DEB769837A838B839C838091A001CD
:102230009091A101A091A201B091A30129813A81BD
:102240004B815C81822B932BA42BB52B8093A00117
:102250009093A101A093A201B093A3010F900F90BE
:102260000F900F90DF91CF910C94490CCF93DF9397
:1022700000D000D0CDB7DEB769837A838B839C838F
:102280008091A0019091A101A091A201B091A30120
:1022900029813A814B815C8182239323A423B52336
:1022A0008093A0019093A101A093A201B093A301F8
:1022B0000F900F900F900F90DF91CF910C94490CDD
:1022C000CF93DF9300D000D0CDB7DEB769837A8398
:1022D0008B839C838091A0019091A101A091A20188
:1022E000B091A30129813A814B815C818227932798
:1022F000A427B5278093A0019093A101A093A201E8
:10230000B093A3010F900F900F900F90DF91CF919A
:102310000C94490C0895292F220F220FE22FE90F68
:10232000E80F8E2F877041E001C0440F8A95EAF7CD
:10233000E695E695E69585E0E89FF0011124EF56D5
:10234000FE4F30E020E070E05191DF011197CB01AA
:10235000022E02C0969587950A94E2F781708195C6
:102360008527842385278C932F5F3F4F25303105A8
:1023700059F70895292F220F220FE22FE90FE80FB6
:102380009E2F9770E695E695E69585E0E89FF0012B
:102390001124EF56FE4F50E040E080E0219130E004
:1023A000092E02C0369527950A94E2F7217033274B
:1023B000042E01C0220F0A94EAF7822B4F5F5F4F71
:1023C0004530510559F70895BF92CF92DF92EF92B1
:1023D000FF920F931F93CF93DF938C01C090A001C6
:1023E000D090A101E090A201F090A3018091A401FE
:1023F0009091A501A091A601B091A701C82AD92A60
:10240000EA2AFB2ACFE1D0E0BC2ED701C6010C2E70
:1024100004C0B695A795979587950A94D2F780FD45
:102420000EC0219788F7B12C8B2DDF91CF911F9192
:102430000F91FF90EF90DF90CF90BF900895B8017B
:102440008C2F0E942204019761F3EECFCF93DF938C
:10245000D82FC92F0E94E4116D2F7C2FDF91CF91CF
:102460000C9422041F93CF93DF93162FD72F9091B4
:102470005801992339F0862F972FDF91CF911F9123
:102480000C942612882391F0862F972F0E94E41136
:10249000C82F682F812F9D2F0E948B11612F7D2FB8
:1024A0008C2FDF91CF911F910C942204862F972FB0
:1024B0000E94BA11C82FF2CF8091A8018595859509
:1024C000859508958091A8018770089598E0899F67
:1024D00090011124622B6093A8010C94A310909199
:1024E000A801809589238093A801282F277061F483
:1024F000282F082E000C330B9217130629F0859510
:10250000859585950C94C51008959091A8019770B4
:1025100081E009F480E00895909112019923E1F09F
:102520009091FE0197FF18C0E82FE695E695E69595
:10253000EF3139F12091000130910101E20FF32FC9
:10254000F11D877021E030E001C0220F8A95EAF783
:102550008181822B818308952091000130910101B6
:10256000F90132969FEF40E05191851751F09F3F5E
:1025700019F4511101C0942F4F5F4E31A9F79F3FBD
:1025800009F40895290F311D97FD3A95F9018283C9
:10259000089590911201992301F19091FE0197FF06
:1025A0001CC0E82FE695E695E695EF3139F12091CC
:1025B000000130910101E20FF32FF11D877021E03E
:1025C00030E0A90102C0440F551F8A95E2F7CA0105
:1025D0008095918189238183089520910001309114
:1025E0000101F9013296205E3F4F9191891303C09A
:1025F000DF0111971C92E217F307B9F7089581E004
:1026000090E0E0910001F0910101E80FF91F1082C4
:10261000019680329105A9F708959091CC01982BED
:102620009093CC010895982F90958091CC018923A7
:102630008093CC0108951092CC0108959091CB0124
:10264000982B9093CB010895982F90958091CB0172
:1026500089238093CB0108951092CB010895909126
:10266000CA01982B9093CA010895982F9095809154
:10267000CA0189238093CA0108951092CA0108955E
:102680008093A90108951092A90108952091000155
:1026900030910101F9013196205E3F4F80E0919128
:1026A00091118F5FE217F307D1F70895E0910001D0
:1026B000F09101018091CC018083E0910001F091C3
:1026C000010180819091CB01892B8083E0910001F1
:1026D000F091010180819091CA01892B80839091B2
:1026E000A901992361F0E0910001F091010180813D
:1026F000892B80830E94461381111092A901809139
:102700000001909101010C9481076DEE7EEF90E045
:1027100080E00E94F42060E082E090E00E94E220ED
:1027200060E083E090E00E94E22060E084E090E0DE
:102730000E94E22060E085E090E00C94E22090E0CE
:1027400080E00E94DC209C0181E02D3E3E4F09F09C
:1027500080E0089582E090E00C94D420682F82E01D
:1027600090E00C94E22083E090E00C94D420682F59
:1027700083E090E00C94E22084E090E00C94D4207C
:10278000682F84E090E00C94E22080910402843071
:1027900039F11092CE0188E190E020E40FB6F89470
:1027A000A895809360000FBE2093600080E00E9497
:1027B000030483B7817F846083BF83B7816083BF55
:1027C0007894889583B78E7F83BF0FB6F894A895C9
:1027D00080916000886180936000109260000FBE5D
:1027E000089508950895CF930E94F1130E94B606AC
:1027F0000E94F213C0E08C2F0E946907811105C06E
:10280000CF5FC430C1F7CF91089581E0FCCF0E9423
:102810005D0C0E9475070C9403041F921FB61F9253
:1028200011248F939F93AF93BF938091CE01811119
:1028300013C08091FA019091FB01A091FC01B0912D
:10284000FD014196A11DB11D8093FA019093FB01FA
:10285000A093FC01B093FD01BF91AF919F918F9127
:102860001F901FBE1F90189582E084BD93E095BD18
:102870009AEF97BD80936E0008952FB7F8948091DA
:10288000FA019091FB01A091FC01B091FD012FBFD5
:102890000895CF92DF92EF92FF929C014FB7F89488
:1028A0008091FA019091FB01A091FC01B091FD0192
:1028B0004FBF6C017D01EE24FF24A90170E060E0B0
:1028C000C416D506E606F70638F0821B930BFF9078
:1028D000EF90DF90CF9008950197F7CF1F921FB62A
:1028E0001F9211248F939F93AF93BF938091FA010E
:1028F0009091FB01A091FC01B091FD010196A11DF9
:10290000B11D8093FA019093FB01A093FC01B09359
:10291000FD01BF91AF919F918F911F901FBE1F909E
:1029200018950E947D1CF8942FEF87EA91E62150BC
:1029300080409040E1F700C0000087E090EBDC01B0
:1029400080930D0290930E02A0930F02B093100299
:1029500088E19CE00FB6F894A895809360000FBEC4
:1029600090936000FFCFCF92DF92EF92FF920F9390
:102970001F93CF93C0E0E82EF12C8C2F0E946907A3
:1029800010E000E0C82ED12CC601002E02C09595A3
:1029900087950A94E2F780FF11C0602F7C2F80E0BA
:1029A0000E940604E816F90649F481E0CF911F91D0
:1029B0000F91FF90EF90DF90CF9008950F5F1F4F22
:1029C0000530110509F7CF5FC430B9F680E0EECFCE
:1029D000CF93C82F8CE20E94B314882321F08C2F50
:1029E000CF910C94B31480E0CF910895CF93DF93EF
:1029F00000D000D0CDB7DEB70E949F13811102C076
:102A00000E94851395E6998308C00E94B6068FE35D
:102A10009CE90197F1F700C00000A981A150A983AA
:102A2000A111F3CF89E20E94E814811110C18AE25A
:102A30000E94E81481110E94851385E00E94E81429
:102A400081110E9491140E94AA138093CD0187E006
:102A50000E94E814882371F08BE10E94E814882317
:102A600009F4D1C09091CD01892F8D7F91FF8260B3
:102A70008093CD018091CD010E94AE130E94BC13C2
:102A800090E09093FF018093FE0180EE0E94E81495
:102A9000882341F09091FE01892F8E7F90FF816005
:102AA0008093FE0189E30E94E814882341F090910D
:102AB000FE01892F8D7F91FF82608093FE0182EE5F
:102AC0000E94E814882341F09091FE01892F8B7FAA
:102AD00092FF84608093FE0186EE0E94E8148823B2
:102AE00041F09091FE01892F877F93FF886080934A
:102AF000FE0183EE0E94E814882341F09091FE01CC
:102B0000892F8F7E94FF80618093FE0185E30E9470
:102B1000E814882341F09091FE01892F8F7D95FF65
:102B200080628093FE0181E30E94E814882341F0D3
:102B30009091FE01892F8F7B96FF80648093FE0128
:102B400081E10E94E814882341F09091FE01892FD1
:102B500097FB87F980588093FE018091FE010E94C7
:102B6000C01387E20E94E81489838EE10E94E81472
:102B7000882319F0B981B260B9838FE10E94E8140B
:102B8000882319F029812460298380E20E94E814B7
:102B9000882319F039813860398381E20E94E81472
:102BA000882319F049814061498382E20E94E81438
:102BB000882319F059815062598383E20E94E814F6
:102BC000882319F089818064898384E20E94E81453
:102BD0008823B1F199819068998389810E94B71304
:102BE0003981232F30E050E040E029833A834B8342
:102BF0005C83CA01B9010F900F900F900F90DF9185
:102C0000CF910C94FC0F8EE00E94E814882339F0D9
:102C10009091CD01892F8B7F92FF846029CF80E135
:102C20000E94E8149091CD01882329F0892F877F95
:102C300093FF88601DCF892F8E7F90FF816018CF12
:102C4000A981A111CACF0E94B313282FCBCF0F9017
:102C50000F900F900F90DF91CF9108958091D10147
:102C600080FF12C06091050185E0689FB0011124CA
:102C7000759567957595679560387105A8F5611527
:102C80007105A1F1862F089581FF09C060910501AA
:102C900085E0689FB001112475956795EDCF60912F
:102CA000050182FD0AC08091D2018823D1F0909164
:102CB000040160910501891728F085E0689FB00143
:102CC0001124DACF869FB001112485E0869F900100
:102CD000879F300D1124692F70E0C9010E94A62042
:102CE000CBCF65E070E0CECF8FE7089581E0089507
:102CF0008091D10180FF0CC06091030170E0759557
:102D00006795759567956115710549F1862F089549
:102D100081FF06C06091030170E075956795F3CF60
:102D20006091030182FD0BC09091D2019923A1F023
:102D30006091020180910301961738F0682F70E0CE
:102D40006038710500F38FE70895899FC001112451
:102D500070E00E94A620F4CF61E070E0D7CF81E060
:102D60000895803F31F40E942E1681958093D501FD
:102D70000895813F19F40E942E16F8CF823F31F456
:102D80000E942E1681958093D4010895833F19F4F3
:102D90000E942E16F8CF893F29F40E94781680935E
:102DA000D60108958A3F21F40E9478168195F7CFC5
:102DB0008B3F31F40E94781681958093D701089556
:102DC0008C3F19F40E947816F8CF843F31F480913B
:102DD000D30181608093D3010895853F21F48091D0
:102DE000D3018260F7CF863F21F48091D3018460C4
:102DF000F1CF873F21F48091D3018860EBCF883FEA
:102E000021F48091D3018061E5CF8D3F31F4809131
:102E1000D10181608093D10108958E3F21F480918A
:102E2000D1018260F7CF8F3FB9F78091D1018460E3
:102E3000F1CF9091D401803F41F48091D50187FD7D
:102E40001092D501992371F00895813F29F4809162
:102E5000D5011816ACF3F6CF823F81F497FFF2CF7D
:102E60001092D4018091D5019091D601892B909137
:102E7000D701892B49F71092D2010895833F19F4A5
:102E8000191674F3DFCF893F39F48091D6011816F3
:102E9000CCF61092D601D6CF8A3F29F48091D60184
:102EA00087FFD0CFF6CF8B3F39F48091D70187FFD2
:102EB000C9CF1092D701C6CF8C3F29F48091D7019A
:102EC0001816BCF3BFCF843F31F48091D3018E7FBD
:102ED0008093D301B7CF853F21F48091D3018D7FBB
:102EE000F7CF863F21F48091D3018B7FF1CF873FCD
:102EF00021F48091D301877FEBCF883F21F480912B
:102F0000D3018F7EE5CF8D3F31F48091D1018E7F4B
:102F10008093D10197CF8E3F21F48091D1018D7F95
:102F2000F7CF8F3F09F08ECF8091D1018B7FF0CF0B
:102F300083ED91E00E948C070E943D149093D00194
:102F40008093CF0108951F93CF93DF9300D000D0DB
:102F500000D0CDB7DEB78091CF019091D0010E9413
:102F60004914AC018091D2012091060130E0811119
:102F700006C0209107019AE0299F90011124421771
:102F8000530788F02091D401A091D501A983109115
:102F9000D601B091D701BE8321110FC09A2F912B7A
:102FA0009B2B09F0B2C026960FB6F894DEBF0FBE79
:102FB000CDBFDF91CF911F9108958F3F19F08F5FA3
:102FC0008093D201121624F40E942E168093D4010D
:102FD0008091D40187FF05C00E942E1681958093B1
:102FE000D4012981121624F40E942E168093D50153
:102FF0008091D50187FF05C00E942E168195809390
:10300000D5018091D401882309F455C03091D501B0
:103010003D83332309F44FC0282F880F330B440B13
:10302000550B29833A834B835C83CA01B9010E9403
:10303000AD1F23E333E343E35FE369837A838B8349
:103040009C8369817A818B819C810E941120698394
:103050007A838B839C8369817A818B819C810E9496
:10306000751F6093D4018D81082E000C990BAA0B5B
:10307000BB0B89839A83AB83BC83BC01CD010E94C7
:10308000AD1F23E333E343E35FE369837A838B83F9
:103090009C8369817A818B819C810E941120698344
:1030A0007A838B839C8369817A818B819C810E9446
:1030B000751F6093D501111624F40E947816809331
:1030C000D6018091D60187FF05C00E9478168195B0
:1030D0008093D6019E81191624F40E94781680935D
:1030E000D7018091D70187FF05C00E94781681958E
:1030F0008093D70126960FB6F894DEBF0FBECDBFE2
:10310000DF91CF911F910C9498178F3F09F057CF03
:1031100068CF85E0E3EDF1E0DF011D928A95E9F7E4
:103120001092D2011092D10108958091F801089572
:10313000CF93DF9300D00F92CDB7DEB7209104027A
:10314000243019F523E029838A839B832093E900A7
:103150008FEF9091E800815095FD06C095ED9A950E
:10316000F1F700008111F5CF8091E80085FF0DC0D7
:1031700050E040E063E070E0CE0101960E94F51A55
:103180008091E8008E778093E8000F900F900F9069
:10319000DF91CF910895CF93DF9300D00F92CDB7F9
:1031A000DEB79C0180910402843031F582E089838E
:1031B000205831093B832A8383E08093E9008FEF15
:1031C0009091E800815095FD06C095ED9A95F1F734
:1031D00000008111F5CF8091E80085FF0DC050E01F
:1031E00040E063E070E0CE0101960E94F51A809104
:1031F000E8008E778093E8000F900F900F90DF919A
:10320000CF910895209104022430F1F422E020931C
:10321000E9002FEF3091E800215035FD06C035ED73
:103220003A95F1F700002111F5CF2091E80025FF34
:103230000BC050E040E065E070E00E94F51A80911C
:10324000E8008E778093E8000895CF93DF93D82F1E
:10325000C92F809104028430F1F4909112019923D6
:10326000E9F09091FE0197FF19C08093E9008FEF7C
:103270009091E800815095FD06C095E19A95F1F78F
:1032800000008111F5CF8091E80050E040E060E25D
:1032900070E085FD1AC0DF91CF91089581E08093A1
:1032A000E9008FEF9091E800815095FD06C095ED03
:1032B0009A95F1F700008111F5CF8091E80085FF24
:1032C000EACF50E040E068E070E08D2F9C2F0E9434
:1032D000F51A8091E8008E778093E80080E2ED2F68
:1032E000FC2FA8EDB1E001900D928A95E1F7D3CFC4
:1032F00080910302811109C00E947D1C0E94DA1C8A
:103300008091E20084608093E200089510920302AD
:103310000895089508950C94071442E061EC81E04B
:103320000E94F91B42E061EC82E00E94F91B42E03E
:1033300061EC83E00E94F91B42E261EC84E00C94B2
:10334000F91B80910602893089F148F4823009F432
:1033500094C0833009F44FC0813041F008958A3021
:1033600009F47BC08B3009F461C008958091050297
:10337000813A09F03FC08091E800877F8093E800A0
:103380008091090290910A02892B61F460E288ED34
:1033900091E070E00E94441B8091E8008B7780935D
:1033A000E800089560E090E080E0F3CF80910502AE
:1033B000813201F58091090290910A02009711F083
:1033C0000397C1F48091E800877F8093E8008091A3
:1033D000E80082FF0BC08091F1008093F80180919A
:1033E000E8008B778093E8000C942D1C80910402F8
:1033F0008111EDCF089580910502813AD9F780912E
:10340000090290910A02892BA9F78091E800877F31
:103410008093E8008091E80080FFFCCF809112014A
:103420008093F1008091E8008E77DCCF80910502D7
:10343000813201F78091090290910A02892BD1F61D
:103440008091E800877F8093E8000E942D1C809186
:103450000702809312010C945D0C80910502813269
:1034600049F68091E800877F8093E8000E942D1C38
:10347000809108028093F901089580910502813AB4
:1034800009F0B8CF8091E800877F8093E8008091B1
:10349000E80080FFFCCF8091F901C2CF84B7877F1D
:1034A00084BF0FB6F894A8958091600088618093DE
:1034B0006000109260000FBE80E88093610010925F
:1034C00061000E94C4070E947D1C0E94DA1C80914A
:1034D000E20084608093E20078940E945A1F0E9468
:1034E000C60788E091E00E94700780910402853051
:1034F00019F00E94CC07F9CF0E94C51380910202F7
:10350000882399F30E94F313882379F30E94DF1A2A
:10351000ECCF9C01DA01892F992783309105C1F006
:1035200068F48130910509F445C0029761F48DE695
:1035300090E02CE533E02D933C9308958132910582
:10354000E1F0829739F190E080E030E020E0F3CFC5
:10355000C9019927213059F08230910559F0E8E5E9
:10356000F3E0892B81F7849190E09F01E4CFE0E4C0
:10357000F3E0F9CFECE2F3E0F6CF643020F7E62F8A
:10358000F0E0EE0FFF1FE85DFE4F2081318189E002
:1035900090E0D1CF6430B8F670E0FB01EE0FFF1F72
:1035A000E05EFE4F20813181645E7E4FFB018081B1
:1035B00090E0C1CF82E190E029EC33E0BCCF80E124
:1035C00089BD82E189BD09B400FEFDCF8091D8009C
:1035D0008F7D8093D8008091E00082608093E0002E
:1035E0008091E00081FDFCCF0895AF92BF92CF9211
:1035F000DF92FF920F931F93CF93DF936C01EB0148
:103600008A010E944C1CF82E811123C0011511055E
:1036100039F0F80180819181C81BD90BC80ED91EE1
:10362000B12CA12C2097A9F08091E80085FD22C043
:103630008091E8008E778093E80001151105A1F0D4
:10364000F80180819181A80EB91EB182A08285E027
:10365000F82E8F2DDF91CF911F910F91FF90DF906A
:10366000CF90BF90AF9008950E944C1C8823D1F258
:10367000F82EEFCFF60181916F018093F100219731
:10368000FFEFAF1ABF0ACECFFC01CB0120910B0296
:1036900030910C022617370790F0009729F42091FB
:1036A000E8002E772093E80040E0009751F44111A4
:1036B00008C08091E80082FF31C080E00895C90110
:1036C000F3CF209104022223A9F12530A9F1209102
:1036D000E80023FD2DC02091E80022FDEACF2091D3
:1036E000E80020FFE2CF3091F3002091F200009734
:1036F00019F02830310558F041E02830310509F043
:1037000040E02091E8002E772093E800CECF419151
:103710004093F10001972F5F3F4FE9CF8091040262
:10372000882341F0853041F08091E80083FFC1CFCC
:1037300081E0089582E0089583E00895FC01CB01C3
:1037400020910B0230910C022617370790F000975A
:1037500029F42091E8002E772093E80040E00097BC
:1037600051F4411108C08091E80082FF32C080E02E
:103770000895C901F3CF209104022223B1F125302D
:10378000B1F12091E80023FD2EC02091E80022FD38
:10379000EACF2091E80020FFE2CF3091F3002091A2
:1037A000F200009719F02830310558F041E0283038
:1037B000310509F040E02091E8002E772093E800E1
:1037C000CECF44914093F100319601972F5F3F4F48
:1037D000E8CF80910402882341F0853041F0809148
:1037E000E80083FFC0CF81E0089582E0089583E080
:1037F0000895982F973028F08F708093E90081E02A
:1038000008959093E900242F762F50E0981731F017
:103810007091EC002091ED005091F00021FD02C06C
:103820009F5FE8CF3091EB003E7F3093EB0030910B
:10383000ED003D7F3093ED003091EB00316030932F
:10384000EB007093EC002093ED005093F00020917A
:10385000EE0027FDE5CF80E008958091050287FF07
:1038600013C08091E80082FF06C08091E8008B774A
:103870008093E80004C0809104028111F2CF089582
:10388000809104028823D9F38091E80080FFF8CF6B
:103890008091E8008E77ECCF2091E4003091E50034
:1038A00095E6A9012091EC00822F817020FF06C0CF
:1038B0008091E80080FF06C080E008952091E80034
:1038C00022FD1AC080910402882389F0853089F096
:1038D0008091EB0085FD0FC02091E4003091E50060
:1038E00042175307F9F29150E1F684E0089582E01F
:1038F000089583E0089581E008950E94EB1C0E94E2
:10390000F31CE0EEF0E0808181608083E8EDF0E080
:1039100080818F77808319BCA7EDB0E08C918E7F7A
:103920008C9380818F7E80831092030208950F9381
:103930001F93CF93DF930E94EB1C0E94F31CC8EDF2
:10394000D0E088818F7788838881806888838881A8
:103950008F7D888319BC109204021092000210928D
:1039600002021092010200EE10E0F80180818B7FCC
:10397000808388818160888342E060E080E00E94EB
:10398000F91BE1EEF0E080818E7F8083E2EEF0E0D3
:10399000808181608083808188608083F80180815C
:1039A0008E7F8083888180618883DF91CF911F9192
:1039B0000F910895E8EDF0E080818F7E8083E7ED40
:1039C000F0E080818160808384E082BF81E0809329
:1039D00003020C94971CE8EDF0E080818E7F8083D9
:1039E0001092E20008951092DA001092E10008951A
:1039F0001F920F920FB60F9211242F933F934F9364
:103A00005F936F937F938F939F93AF93BF93EF9346
:103A1000FF938091E10082FF0BC08091E20082FF62
:103A200007C08091E1008B7F8093E1000E94591FC5
:103A30008091DA0080FF19C08091D80080FF15C006
:103A40008091DA008E7F8093DA008091D90080FF28
:103A500094C080E189BD82E189BD09B400FEFDCF3B
:103A600081E0809304020E9478198091E10080FF38
:103A700019C08091E20080FF15C08091E2008E7F26
:103A80008093E2008091E20080618093E200809167
:103A9000D80080628093D80019BC85E0809304022E
:103AA0000E948A198091E10084FF29C08091E20080
:103AB00084FF25C080E189BD82E189BD09B400FE93
:103AC000FDCF8091D8008F7D8093D8008091E10058
:103AD0008F7E8093E1008091E2008F7E8093E200F0
:103AE0008091E20081608093E2008091000288234F
:103AF00009F449C084E0809304020E948B198091EC
:103B0000E10083FF29C08091E20083FF25C08091FE
:103B1000E100877F8093E10082E0809304021092AD
:103B200000028091E1008E7F8093E1008091E200AD
:103B30008E7F8093E2008091E20080618093E200BA
:103B400042E060E080E00E94F91B8091F000886014
:103B50008093F0000E948919FF91EF91BF91AF917E
:103B60009F918F917F916F915F914F913F912F9195
:103B70000F900FBE0F901F90189519BC1092040261
:103B80000E94861972CF8091E30087FD02C081E018
:103B9000B2CF83E0B0CF1F920F920FB60F921124D5
:103BA0002F933F934F935F936F937F938F939F9345
:103BB000AF93BF93CF93DF93EF93FF93D091E9003F
:103BC000DF708091EC00C82FC17080FDC0E81092BA
:103BD000E9008091F000877F8093F00078940E9444
:103BE0000F1E1092E9008091F00088608093F00031
:103BF000CD2BCF70C093E900FF91EF91DF91CF9172
:103C0000BF91AF919F918F917F916F915F914F91F4
:103C10003F912F910F900FBE0F901F9018951F93FB
:103C2000CF93DF93CDB7DEB7AA970FB6F894DEBF78
:103C30000FBECDBF85E092E0FC0101962091F1001E
:103C4000208322E08D309207B9F70E94A11980915C
:103C5000E80083FF16C180910502909106029A3018
:103C600008F00FC1E92FF0E0E25DFE4D0C94BA20A0
:103C7000803881F0823809F004C1809109028F7088
:103C80008093E9008091EB0085FB882780F91092F2
:103C9000E90006C0809101029091020291118260B8
:103CA0009091E800977F9093E8008093F100109244
:103CB000F1008091E8008E77E0C0882309F4CEC03F
:103CC000823009F0DEC0809107028111D1C080915D
:103CD00009028F7009F4D5C08093E9002091EB00B0
:103CE00020FFC6C0933031F48091EB008062809356
:103CF000EB00BEC09091EB0090619093EB0021E04F
:103D000030E001C0220F8A95EAF72093EA00109272
:103D1000EA008091EB008860EACF8111B2C0109177
:103D200007021F778091E3008078812B8093E30066
:103D30008091E800877F8093E8000E942D1C80918D
:103D4000E80080FFFCCF8091E30080688093E3006F
:103D500082E0111183E08093040293C08058823086
:103D600008F08FC080910702909108028C3D23E0FB
:103D70009207A1F583E08A838AE289834FB7F8949A
:103D8000DE01139620E03EE051E2E32FF0E0509395
:103D90005700E49120FF03C0E295EF703F5FEF70A2
:103DA0008E2F90E0EA30C0F0C7968D939D932F5FE1
:103DB000243159F74FBF8091E800877F8093E80056
:103DC0006AE270E0CE0101960E94441B8091E800F7
:103DD0008B778093E80055C0C096E7CFAE014F5F68
:103DE0005F4F609109020E94891ABC01892B09F476
:103DF00048C08091E800877F8093E80089819A819C
:103E00000E949E1BE3CF8038E1F58091E800877F18
:103E10008093E800809100028093F1004ACF8111E5
:103E200030C090910702923060F58091E800877F62
:103E30008093E800909300020E942D1C8091000264
:103E4000882311F084E005C08091E30087FDFACF5C
:103E500081E0809304020E948D1913C080910702B3
:103E6000813079F481E0933009F080E080930202A0
:103E70001092E9008091E800877F8093E8000E941B
:103E80002D1C8091E80083FF0AC08091E800877FA5
:103E90008093E8008091EB0080628093EB00AA960B
:103EA0000FB6F894DEBF0FBECDBFDF91CF911F914B
:103EB00008950895CF93809104028823A1F0C091C2
:103EC000E900CF709091EC00892F817090FD80E81F
:103ED000C82B1092E9008091E80083FD0E940F1E1C
:103EE000CF70C093E900CF9108950E947C1F689421
:103EF000B1110C940B2008950E94F01F88F09F5779
:103F000098F0B92F9927B751B0F0E1F0660F771FFD
:103F1000881F991F1AF0BA95C9F714C0B13091F0F3
:103F20000E940A20B1E008950C940A20672F782F90
:103F30008827B85F39F0B93FCCF3869577956795B8
:103F4000B395D9F73EF490958095709561957F4F24
:103F50008F4F9F4F0895E89409C097FB3EF49095CA
:103F60008095709561957F4F8F4F9F4F9923A9F052
:103F7000F92F96E9BB279395F695879577956795E1
:103F8000B795F111F8CFFAF4BB0F11F460FF1BC025
:103F90006F5F7F4F8F4F9F4F16C0882311F096E9B8
:103FA00011C0772321F09EE8872F762F05C0662366
:103FB00071F096E8862F70E060E02AF09A95660F1F
:103FC000771F881FDAF7880F9695879597F90895D8
:103FD00057FD9058440F551F59F05F3F71F04795BA
:103FE000880F97FB991F61F09F3F79F0879508959F
:103FF000121613061406551FF2CF4695F1DF08C0BE
:10400000161617061806991FF1CF869571056105DA
:1040100008940895E894BB2766277727CB0197F982
:1040200008950E9424200C9495200E94872038F047
:104030000E948E2020F0952311F00C947E200C9489
:10404000842011240C940B200E94E81F70F3959F8C
:10405000C1F3950F50E0551F629FF001729FBB277F
:10406000F00DB11D639FAA27F00DB11DAA1F649F1B
:104070006627B00DA11D661F829F2227B00DA11DCE
:10408000621F739FB00DA11D621F839FA00D611D54
:10409000221F749F3327A00D611D231F849F600D75
:1040A000211D822F762F6A2F11249F5750409AF09E
:1040B000F1F088234AF0EE0FFF1FBB1F661F771F2A
:1040C000881F91505040A9F79E3F510580F00C94F5
:1040D0007E200C940B205F3FE4F3983ED4F386954A
:1040E00077956795B795F795E7959F5FC1F7FE2B95
:1040F000880F911D9695879597F9089597F99F6771
:1041000080E870E060E008959FEF80EC089500245F
:104110000A941616170618060906089500240A942C
:1041200012161306140605060895092E0394000CB2
:1041300011F4882352F0BB0F40F4BF2B11F460FF41
:1041400004C06F5F7F4F8F4F9F4F089597FB072EDF
:1041500016F4009407D077FD09D00E94C02007FC18
:1041600005D03EF4909581959F4F08957095619587
:104170007F4F0895EE0FFF1F0590F491E02D0994F5
:10418000AA1BBB1B51E107C0AA1FBB1FA617B7077D
:1041900010F0A61BB70B881F991F5A95A9F7809599
:1041A0009095BC01CD010895F999FECF92BD81BDD6
:1041B000F89A992780B50895A8E1B0E042E050E070
:1041C0000C94FC20262FF999FECF92BD81BDF89A60
:1041D000019700B4021639F01FBA20BD0FB6F8944B
:1041E000FA9AF99A0FBE08950196272F0E94E320AC
:1041F0000C94E220DC01CB01FC01F999FECF06C052
:10420000F2BDE1BDF89A319600B40D924150504094
:10421000B8F70895F894FFCF6E037A037E03820304
:1042200086038A038E03920396039A039E03A203D6
:10423000A603AA03AE03B203B603BA03080A080A28
:10424000600A600AA40AC00A380A380ACB0A380A87
:10425000930B930BFE0B380A380A070C381E5D1EB1
:10426000411F5D1E411F8D1EAE1E411F031F0F1FEC
:10427000AA012808140A321E951825190219CB180C
:104280009818019066C635F433F5F736404D363947
:1042900097044A041404DB036E038703A003B903E5
:00000001FF
