:100000000C94420B0C948B0B0C948B0B0C948B0B61
:100010000C948B0B0C948B0B0C948B0B0C948B0B08
:100020000C948B0B0C948B0B0C946A260C9441272C
:100030000C94751D0C948B0B0C948B0B0C948B0BEC
:100040000C948B0B0C948B0B0C948B0B0C948B0BD8
:100050000C948B0B0C94D61D0C948B0B0C948B0B6B
:100060000C948B0B0C948B0B0C948B0B0C948B0BB8
:100070000C948B0B0C948B0B0C948B0B0C948B0BA8
:100080000C948B0B0C948B0B0C948B0B0C948B0B98
:100090000C948B0B0C948B0B04516100000000003E
:1000A000000000002C005E005B00E1006300000027
:1000B000E000E300E2001D00E10001510351600097
:1000C00033000000000064002C005D005A000000B6
:1000D0002B002C00000000001B0004000000650045
:1000E00000425F000F0011000000380005005C00B6
:1000F0005900000062001900000000000700E00045
:100100000000AA004E00510512000B003600370017
:100110000A0052004F000000280006000000000006
:10012000160014000000A9004B005205000000005A
:1001300000000000000031005000000051000000ED
:100140000000000000000000000000004D002A0038
:100150004400240025002600220030002800000072
:10016000E40021000000000020001E0000003A0012
:100170000000000043004000410042003F0000003A
:100180000000000000003E00000000003D003C00B8
:1001900000003B004A00350027001C000D000C0049
:1001A00023002F0031000000E700150000000000D0
:1001B0001A001F000000290045002E002D00180025
:1001C00010000E001700130034000000E6000900C4
:1001D0000000000008002B000000A8000100010042
:1001E000000000000000000001000100010001000B
:1001F00001000000010001000100010001000100F8
:1002000001000100010000000000010001000100E8
:1002100001000000010001000000000001000100D9
:1002200000000100010001000100010000000100C8
:1002300001000100010000000100010000000000B9
:100240000100390000000100010049000100010027
:10025000010001000100A900AB000000AE00010098
:1002600000000000010001000000AC0001004C0093
:10027000000000000000000000000100AC000000D1
:10028000AA000000000000000000000000000000C4
:100290000100010001000100010001000100010056
:1002A0000100000001000100000000000100010049
:1002B0000000010000000000010001000100010039
:1002C000010000000000000000000100000000002C
:1002D0000100010000000100010001000100010017
:1002E0000100010001000100010000000100010007
:1002F00000000000010001000000010001000100F9
:1003000001000100010001000100010001000000E6
:1003100001000100000000000100010000000100D8
:1003200001000100000000000000000001000100C9
:1003300001000100010000000100010001000100B6
:1003400001000100010001000100000000000100A7
:100350000100010001000000010001000000000098
:100360000100010000000100010001000100010086
:100370000000010001000100010000000100010077
:10038000000000000100E000000001000100F50095
:1003900001000100010001000100F000F300000075
:1003A000F400010000000000010001000000010055
:1003B0000100F40000000000000000000000010047
:1003C000F2000000F100000000000000000000004A
:1003D0000000000001000100010001000100010017
:1003E0000100010001000000010001000000000008
:1003F00001000100000001000000000001000100F8
:1004000001000100010000000000000000000100E8
:1004100000000000010001000000010001000100D7
:1004200001000100010001000100010001000000C5
:1004300001000100000000000100010000000100B7
:1004400001000100010001000100010001000100A4
:100450000100000001000100000000000100010097
:100460000000010001000100000000000000000089
:100470000100010001000100010000000100010075
:100480000100010001000100010001000100000065
:100490000000010001000100010000000100010056
:1004A0000000000001000100000001000100010047
:1004B000010001000000010001000100FE00000039
:1004C000FD0001000000000001000100000001002B
:1004D0000100F80001000100010001000100F90025
:1004E000FC000000F6000100000000000100010017
:1004F000000001000100F700000000000000000003
:1005000000000100FB000000FA00000000000000F5
:1005100000000000000000000100010001000100D7
:1005200001000100010001000100000001000100C4
:1005300000000000010001000000010000000000B8
:1005400001000100010001000100000000000000A6
:100550000000010000000000010001000000010097
:100560000100010001000100010001000100010083
:100570000100000001000100000000000100010076
:100580000000010001000100010001000100010064
:100590000100010001000000010001000000000056
:1005A00001000100000001000100540000000000F3
:1005B0000000000001005500560001005700000037
:1005C0000100010001000100010001000100010023
:1005D0000100000000000100010001000100000016
:1005E00058000100000000000100010000000100AF
:1005F00001000100010001000000010001000100F4
:10060000590000006200010000000000010001002C
:1006100000000100010001000100010001000100D3
:1006200001000100010000000100010000000000C5
:1006300001000100000001000100010000000000B5
:1006400000000000000001000100000001000000A7
:100650000000000000000000000000000100010098
:100660000100010001000100010001000100000083
:100670000100010000000000010001000000010075
:100680000000000001000100010001000100000065
:100690000000000000000100000000000100010057
:1006A0000000010001000100010001000100010043
:1006B0000100010001000000010001000000000035
:1006C0000100010000000100010001000100010023
:1006D0000100010001000100010000000100010013
:1006E0000000000001000100000001000100010005
:1006F00000000000000000000100010001000100F6
:1007000001000000010001000100010001000100E2
:1007100001000100010000000000010001000100D3
:1007200001000000010001000000000001000100C4
:1007300000000100010001000100010000000100B3
:1007400001000100010000000100010000000000A4
:100750000100010000000100010001000100010092
:100760000100010001000100010000000100010082
:100770000000000001000100000001000100010074
:100780000000000000000000000001000100000067
:100790000100000000000000000000000000000058
:1007A0000100010001000100010001000100010041
:1007B0000100000001000100000000000100010034
:1007C0000000010000000000010001000100010024
:1007D0000100000000000000000001000000000017
:1007E0000100010000000100010001000100010002
:1007F00001000100010001000100000001000100F2
:1008000000000000010001000000010001000100E3
:1008100001000100010001000100010001000000D1
:1008200001000100000000000100010000000100C3
:1008300001000100000000000000000001000100B4
:1008400001000100010000000100010001000100A1
:100850000100010001000100010000000000010092
:100860000100010001000000010001000000000083
:100870000100010000000100010001000100010071
:100880000000010001000100010000000100010062
:100890000000000001000100000001000100010053
:1008A0000100010001000100010001000100000041
:1008B0000100010000000000010001000000010033
:1008C0000100010000000000000000000000010025
:1008D0000100000001000000000000000000000016
:1008E0000000000001000100010001000100010002
:1008F00001000100010000000100010000000000F3
:1009000001000100000001000000000001000100E2
:1009100001000100010000000000000000000100D3
:1009200000000000010001000000010001000100C2
:1009300001000100010001000100010001000000B0
:1009400001000100000000000100010000000100A2
:10095000010001000100010001000100010001008F
:100960000100000001000100000000000100010082
:100970000000010001000100000000000000000074
:100980000100010001000100010000000100010060
:100990000100010001000100010001000100000050
:1009A0000000010001000100010000000100010041
:1009B0000000000001000100000001000100010032
:1009C0000100010000000100010001000100000021
:1009D0000100010000000000010001000000010012
:1009E00001000100010001000100010001000100FF
:1009F00001000000010001000000000001000100F2
:100A000000000100010001000000000000000000E3
:100A100000000100010000000100000000000000D3
:100A200000000000000000000100010001000100C2
:100A300001000100010001000100000001000100AF
:100A400000000000010001000000010000000000A3
:100A50000100010001000100010000000000000091
:100A60000000010000000000010001000000010082
:100A7000010001000100010001000100010001006E
:100A80000100000001000100000000000100010061
:100A9000000001000100010001000100010001004F
:100AA0000100010001000000010001000000000041
:100AB0000100010000000100010001000000000031
:100AC0000000000001000100010001000100000021
:100AD000010001000100010001000100010001000E
:100AE0000100000000000100010001000100000001
:100AF00001000100000000000100010000000100F1
:100B000001000100010001000000010001000100DE
:100B100001000000010001000000000001000100D0
:100B200000000100010001000100010001000100BE
:100B300001000100010000000100010000000000B0
:100B400001000100000001000100010000000000A0
:100B50000000000000000100010000000100000092
:100B60000000000000000000000000000100010083
:100B7000010001000100010001000100010000006E
:100B80000100010000000000010001000000010060
:100B90000000000001000100010001000100000050
:100BA0000000000000000100000000000100010042
:100BB000000001000100010001000100010001002E
:100BC0000100010001000000010001000000000020
:100BD000010001000000010001000100010001000E
:100BE00001000100010001000100000001000100FE
:100BF00000000000010001000000010001000100F0
:100C000000000000000000000100010001000100E0
:100C100001000000010001000100010001000100CD
:100C200001000100010000000000010001000100BE
:100C300001000000010001000000000001000100AF
:100C4000000001000100010001000100000001009E
:100C5000010001000100000001000100000000008F
:100C6000010001000000010001000100010001007D
:100C7000010001000100010001000000010001006D
:100C8000000000000100010000000100010001005F
:100C90000000000000000000000001000100000052
:100CA0000100000000000000000000000000000043
:100CB000010001000100010001000100010001002C
:100CC000010000000100010000000000010001001F
:100CD000000001000000000001000100010001000F
:100CE0000100000000000000000001000000000002
:100CF00001000100000001000100010001000100ED
:100D000001000100010001000100000001000100DC
:100D100000000000010001000000010001000100CE
:100D200001000100010001000100010001000000BC
:100D300001000100000000000100010000000100AE
:100D4000010001000000000000000000010001009F
:100D5000010001000100000001000100010001008C
:100D6000010001000100010001000000000001007D
:100D7000010001000100000001000100000000006E
:100D8000010001000000010001000100010001005C
:100D9000000001000100010001000000010001004D
:100DA000000000000100010000000100010001003E
:100DB000010001000100010001000100010000002C
:100DC000010001000000000001000100000001001E
:100DD0000100010000000000000000000000010010
:100DE0000100000001000000000000000000000001
:100DF00000000000010001000100010001000100ED
:100E000001000100010000000100010000000000DD
:100E100001000100000001000000000001000100CD
:100E200001000100010000000000000000000100BE
:100E300000000000010001000000010001000100AD
:100E4000010001000100010001000100010000009B
:100E5000010001000000000001000100000001008D
:100E6000010001000100010001000100010001007A
:100E7000010000000100010000000000010001006D
:100E8000000001000100010000000000000000005F
:100E9000010001000100010001000000010001004B
:100EA000010001000100010001000100010000003B
:100EB000000001000100010001000000010001002C
:100EC000000000000100010000000100010001001D
:100ED000010001000000010001000100010000000C
:100EE00001000100000000000100010000000100FD
:100EF00001000100010001000100010001000100EA
:100F000001000000010001000000000001000100DC
:100F100000000100010001000000000000000000CE
:100F200000000100010000000100000000000000BE
:100F300000000000000000000100010001000100AD
:100F4000010001000100010001000000010001009A
:100F5000000000000100010000000100000000008E
:100F6000010001000100010001000000000000007C
:100F7000000001000000000001000100000001006D
:100F80000100010001000100010001000100010059
:100F9000010000000100010000000000010001004C
:100FA000000001000100010001000100010001003A
:100FB000010001000100000001000100000000002C
:100FC000010001000000010001000100000000001C
:100FD000000000000100010001000100010000000C
:100FE00001000100010001000100010001000100F9
:100FF00001000000000001000100010001000000EC
:1010000001000100000000000100010000000100DB
:1010100001000100010001000000010001000100C9
:1010200001000000010001000000000001000100BB
:1010300000000100010001000100010001000100A9
:10104000010001000100000001000100000000009B
:10105000010001000000010001000100000000008B
:10106000000000000000010001000000010000007D
:10107000000000000000000000000000010001006E
:101080000100010001000100010001000100000059
:10109000010001000000000001000100000001004B
:1010A000000000000100010001000100010000003B
:1010B000000000000000010000000000010001002D
:1010C0000000010001000100010001000100010019
:1010D000010001000100000001000100000000000B
:1010E00001000100000001000100010001000100F9
:1010F00001000100010001000100000001000100E9
:1011000000000000010001000000010001000100DA
:1011100000000000000000000100010001000100CB
:1011200001000000010001000100010001000100B8
:1011300001000100010000000000010001000100A9
:10114000010000000100010000000000010001009A
:101150000000010001000100010001000000010089
:10116000010001000100000001000100000000007A
:101170000100010000000100010001000100010068
:101180000100010001000100010000000100010058
:10119000000000000100010000000100010001004A
:1011A000000000000000000000000100010000003D
:1011B000010000000000000000000000000000002E
:1011C0000100010001000100010001000100010017
:1011D000010000000100010000000000010001000A
:1011E00000000100000000000100010001000100FA
:1011F00001000000000000000000010000000000ED
:1012000001000100000001000100010001000100D7
:1012100001000100010001000100000001000100C7
:1012200000000000010001000000010001000100B9
:1012300001000100010001000100010001000000A7
:101240000100010000000000010001000000010099
:10125000010001000000000000000000010001008A
:101260000100010001000000010001000100010077
:101270000100010001000100010000000000010068
:101280000100010001000000010001000000000059
:101290000100010000000100010001000100010047
:1012A0000000010001000100010000000100010038
:1012B0000000000001000100000001000100010029
:1012C0000100010001000100010001000100000017
:1012D0000100010000000000010001000000010009
:1012E00001000100000000000000000000000100FB
:1012F00001000000010000000000000000000000EC
:1013000000000000010001000100010001000100D7
:1013100001000100010000000100010000000000C8
:1013200001000100000001000000000001000100B8
:1013300001000100010000000000000000000100A9
:101340000000000001000100000001000100010098
:101350000100010001000100010001000100000086
:101360000100010000000000010001000000010078
:101370000100010001000100010001000100010065
:101380000100000001000100000000000100010058
:10139000000001000100010000000000000000004A
:1013A0000100010001000100010000000100010036
:1013B0000100010001000100010001000100000026
:1013C0000000010001000100010000000100010017
:1013D0000000000001000100000001000100010008
:1013E00001000100000001000100010001000000F7
:1013F00001000100000000000100010000000100E8
:1014000001000100010001000100010001000100D4
:1014100001000000010001000000000001000100C7
:1014200000000100010001000000000000000000B9
:1014300000000100010000000100000000000000A9
:101440000000000000000000010001000100010098
:101450000100010001000100010000000100010085
:101460000000000001000100000001000000000079
:101470000100010001000100010000000000000067
:101480000000010000000000010001000000010058
:101490000100010001000100010001000100010044
:1014A0000100000001000100000000000100010037
:1014B0000000010001000100010001000100010025
:1014C0000100010001000000010001000000000017
:1014D000010001000000010012036B0065007900AB
:1014E00062006F006100720064000000160371006A
:1014F0006D006B006200750069006C00640065009F
:10150000720000000403090409026D00040100A038
:10151000FA09040000010301010009211101000181
:101520002240000705810308000A090401000103A5
:10153000010200092111010001224D00070582036B
:1015400008000A090402000103000000092111013A
:1015500000012236000705830308000A090403007E
:1015600001030000000921110100012239000705D3
:1015700084032000011201100100000008EDFE604C
:101580006001000102000105010906A1010507191A
:10159000E029E71500250195087501810205081964
:1015A00001290595057501910295017503910105C4
:1015B00007190029F71500250195F875018102C06A
:1015C00005010980A10185021601002603001A8188
:1015D000002A8300751095018100C0050C0901A146
:1015E000018503160100269C021A01002A9C02753F
:1015F0001095018100C005010902A1010901A100A6
:1016000005091901290515002501950575018102B6
:101610009501750381010501093009311581257F87
:1016200095027508810609381581257F9501750891
:101630008106050C0A38021581257F950175088100
:1016400006C0C005010906A101050719E029E71533
:101650000025019508750181029501750881010534
:1016600008190129059505750191029501750391E8
:10167000010507190029FF150026FF0095067508CA
:101680008100C00011241FBECFEFD0E2DEBFCDBF6E
:1016900004B603FE27C08091D9029091DA02A0918E
:1016A000DB02B091DC028730904BA740B04BD1F405
:1016B0001092D9021092DA021092DB021092DC0230
:1016C00014BE84B7877F84BF0FB6F894A895809125
:1016D0006000886180936000109260000FBEE0E0BF
:1016E000F8EF099511E0A0E0B1E0E8E6F5E500E0EB
:1016F0000BBF02C007900D92A234B107D9F722E0C8
:10170000A2E4B1E001C01D92A93DB207E1F70E9439
:10171000BD230C94862A0C94000090E080E008958C
:101720000895089581E00895089581E008950C9446
:10173000920B0E94BF152FEF84E39CE02150804064
:101740009040E1F700C000000C94F91DEF92FF9269
:101750000F931F93CF93DF938C01FC01E080F18006
:101760008091CA01811140C082818823C1F1C701E3
:101770000E943D1BC82F682FC7010E94E61AB701BF
:101780008C2F0E94DE0CEC01B8010E94970B88237D
:1017900009F44BC0B801CE010E94E80E882309F479
:1017A00044C0C531F0E7DF0720F5C23080E7D80735
:1017B00008F04DC0C115E0E7DE0791F1C130D04718
:1017C000E1F181E08093440180934501C801DF91FC
:1017D000CF911F910F91FF90EF900C94950BC70143
:1017E0000E94141BC82FCBCFC7010E943D1BB7011D
:1017F000C8CFCC3380E7D80709F49BC0CD33D0479E
:1018000001F7F8018281882309F4BAC010924501DA
:101810000E94A51D909343018093420180E296C0EF
:10182000F801828181110E94990B80E0DF91CF91B4
:101830001F910F91FF90EF900895F8018281882306
:10184000A1F380919902816080939902EECFF80113
:101850008281882309F4BACF0E94F61C811102C04C
:101860000E94DC1C0E94131D90E09093A0028093C4
:101870009F02FE01E350F04780919F028160E231B8
:10188000F10538F4E857F54D0C94332A80919F0206
:10189000826080939F0280919F020E94171D0E9488
:1018A000BF15C3CF80919F028460F3CF80919F02C8
:1018B0008860EFCF80919F028061EBCF80919F0283
:1018C0008062E7CF80919F028064E3CF80919F0286
:1018D0008068DFCF80919F028C60DBCF80919F0278
:1018E0008E7FD7CF80919F028D7FD3CF80919F0233
:1018F0008B7FCFCF80919F02877FCBCF80919F023C
:101900008F7EC7CF80919F028F7DC3CF80919F0232
:101910008F7BBFCF80919F028F77BBCF80919F023B
:10192000837FB7CF90919F02892F97FB87F98058CB
:10193000B0CFF8018281882361F0109244010E94A7
:10194000A51D909343018093420182E00E942013E1
:101950006CCF8091440181110FC080914201909120
:1019600043010E94B11D883C910530F486E20E943B
:10197000F51186E20E94D11282E00E94271355CF12
:101980008091450181110FC08091420190914301E6
:101990000E94B11D883C910530F487E20E94F51148
:1019A00087E20E94D11280E2E8CF0C94370F0C94AA
:1019B000390F0C94940B0C94D90C0895972F70E068
:1019C00022E1929F600D711D1124FB0192EA899F13
:1019D000E00DF11D1124EE0FFF1FE856FF4F85911A
:1019E00094910895FC01EE0FFF1FE852FB4E859184
:1019F000949108950E94DE0C0E946C0E9C0181154A
:101A0000904408F097C0211580E3380708F0FCC027
:101A1000203E310508F074C0203C310508F0E7C0D5
:101A2000283A310588F4253A310508F0E4C0213020
:101A3000310509F477C0C9010497813A910508F48A
:101A400071C030E020E06EC0C901885A9109459705
:101A5000C0F7283A310509F400C1293A310509F4E3
:101A6000FFC02A3A310509F4FEC02B3A310509F4CA
:101A7000FDC02C3A310509F4FCC02B3B310509F4BB
:101A8000FBC02C3B310509F4FAC02D3A310509F4AD
:101A9000F9C0203B310509F4F8C02E3A310509F4AC
:101AA000F7C02F3A310509F4F6C0213B310509F49E
:101AB000F5C0223B310509F4F4C0233B310509F49C
:101AC000F3C0243B310509F4F2C0253B310509F48C
:101AD000F1C0263B310509F4F0C0273B310509F47C
:101AE000EFC0283B310509F4EEC0293B310509F46C
:101AF000EDC02A3B310509F4ECC020E034E412C00B
:101B0000211540E2340780F42F3F310509F050F4ED
:101B1000283E310538F0C901805F91093065409752
:101B200008F08FCFC9010895C9019F700E94F20C7F
:101B30009C01F8CF211584E5380708F042C0211533
:101B400043E5340708F06BC0211582E5380740F5FE
:101B5000211541E5340708F05DC0211580E53807FF
:101B600008F455C0C90134E0969587953A95E1F798
:101B7000382F3370822F86958695837040E2849F3C
:101B8000C0011124932B422F437021E030E002C0AA
:101B9000220F331F4A95E2F7282B392B3C68C2CF1E
:101BA000A9014370552781E090E002C0880F991F7A
:101BB0004A95E2F72695269540E2249F900111244C
:101BC000EBCF211586E5380748F4922F8827211599
:101BD0003545C8F59C01246F306AA4CFC9019056E1
:101BE0003F708115904108F02CCF30629BCFC90126
:101BF000805C91099BCF253A310549F1263A3105A0
:101C000049F522E830E48ECF3327306C8BCF3F701C
:101C1000306A88CF322F2227216F306A83CFA90103
:101C20004370552781E090E002C0880F991F4A95C4
:101C3000E2F72695269540E2249F90011124282B57
:101C4000392B3A686FCF88279F719C01CECF21E84E
:101C500030E468CF23E830E465CF22EE34E462CF8D
:101C600029EE34E45FCF2AEE34E45CCF25EB34E494
:101C700059CF26EB34E456CF23EB34E453CF24EB97
:101C800034E450CF27EB34E44DCF2CEC34E44ACF8E
:101C90002DEC34E447CF23E835E444CF2AE835E49B
:101CA00041CF22E935E43ECF24E935E43BCF21E2C0
:101CB00036E438CF23E236E435CF24E236E432CFBF
:101CC00025E236E42FCF26E236E42CCF27E236E4B5
:101CD00029CF2AE236E426CF803E910581F1C8F46F
:101CE0008133910509F462C048F48932910509F401
:101CF00056C08A32910509F460C008958933910570
:101D0000B9F082389105A1F08533910509F440C0FE
:101D10000895863E910561F138F4823E9105B1F057
:101D2000833E9105E1F00895873E910551F10895B4
:101D300020919F022370D9F080EE90E008952091C9
:101D40009F0220FF14C089E390E0089520919F0234
:101D500022FF0DC024FD09C083EE90E0089520917C
:101D60009F0222FD31C024FF02C090E080E0089570
:101D700020919F0223FFFBCF24FDF7CF87EE90E059
:101D8000089520919F0223FFEECF86EE90E0089504
:101D900020919F0225FFEBCF89E290E008952091EA
:101DA0009F0225FFE4CF85E390E0089520919F02F4
:101DB00026FFDDCF8AE290E0089520919F0226FF62
:101DC000D6CF81E390E0089582EE90E008950895E3
:101DD0000F931F93CF938C01FB018281811106C069
:101DE000C1E08C2FCF911F910F910895C0915301A5
:101DF000C11125C00531104799F70E94E70E81E017
:101E0000809353010E94A51D90935201809351012C
:101E100010924601109248011092470110924A0117
:101E20001092490110924C0110924B0110924E01F8
:101E300010924D011092500110924F01D2CF80911B
:101E40005101909152010E94B11D883C910540F6CC
:101E500080914601E82FF0E0EE0FFF1FE95BFE4F97
:101E6000118300838F5F80934601C0E0BACF0C944A
:101E7000900B0C94910BCF93DF9385B7806885BF4F
:101E800085B7806885BFC5E2D1E02EE231E041E050
:101E900050E08991E82FE295EF70A1E2AE0FB0E03B
:101EA000FC918F70BA0101C0660F8A95EAF7962FF0
:101EB00090959F239C93EE5DF0E08081862B80833C
:101EC0002C173D0731F7C3E1D1E025E231E041E0D5
:101ED00050E08991E82FE295EF70A1E2AE0FB0E0FB
:101EE000FC918F70BA0101C0660F8A95EAF7962FB0
:101EF00090959F239C93EE5DF0E08081862B8083FC
:101F00002C173D0731F784E2E8E7F1E0DF01982F75
:101F10001D929A95E9F7E4E5F1E0DF011D928A95BB
:101F2000E9F7DF91CF910C94D50C2F923F924F920D
:101F30005F926F927F928F929F92AF92BF92CF9259
:101F4000DF92EF92FF920F931F93CF93DF93CDB762
:101F5000DEB72A970FB6F894DEBF0FBECDBF24E5DB
:101F600031E038872F8345E251E05E834D83212C99
:101F7000312C2101239466246394EF81F8858190AC
:101F80009190A190B190F887EF83129212921292E1
:101F90001292CF01ED81FE812191FE83ED83E22F2C
:101FA000E295EF70A1E2AE0FB0E03C912F7041E0FE
:101FB00050E002C0440F551F2A95E2F75A83498327
:101FC000242F232B2C93EE5D2E2F30E03A87298788
:101FD000F9012081742E709427212083F0EAFA956C
:101FE000F1F723E131E03C832B8310E000E0EB814B
:101FF000FC814191FC83EB83242F22952F70205E7E
:1020000030E0F9015081FC01C080D180E280F38092
:102010004F7021E030E001C0220F4A95EAF72523F6
:1020200009F070C0B201A101002E04C0440F551F79
:10203000661F771F0A94D2F74C295D296E297F29E4
:10204000FC0140835183628373830F5F1F4F023112
:10205000110569F62C9172227C92E985FA8520811E
:10206000F9812F2BE985FA852083FC0180819181FC
:10207000A281B38188169906AA06BB0641F0609238
:102080009C010E94A51D90939E0180939D0128E7CD
:1020900031E04F8158852417350709F06ECF8091C4
:1020A0009C01882399F080919D0190919E010E944E
:1020B000B11D069758F084E2E4E5F1E0A8E7B1E04D
:1020C00001900D928A95E1F710929C010E94D70C25
:1020D00081E02A960FB6F894DEBF0FBECDBFDF9128
:1020E000CF911F910F91FF90EF90DF90CF90BF9015
:1020F000AF909F908F907F906F905F904F903F90A8
:102100002F90089540E050E060E070E095CFCF93CD
:10211000DF9300D000D0CDB7DEB794E0899FF00107
:102120001124E858FE4F80819181A281B381BC01C6
:10213000CD010F900F900F900F90DF91CF910895E8
:1021400008959093A4018093A3010895E091A301C1
:10215000F091A401309721F00190F081E02D0994D5
:1021600080E00895E091A301F091A401309721F05F
:102170000280F381E02D09940895E091A301F0918C
:10218000A401309721F00480F581E02D0994089591
:102190002091A1013091A2012817390771F0909385
:1021A000A2018093A101E091A301F091A4013097D5
:1021B00021F00680F781E02D0994089520919F0178
:1021C0003091A0012817390771F09093A0018093F6
:1021D0009F01E091A301F091A401309721F00084C8
:1021E000F185E02D0994089508950C94F4100E944F
:1021F0009C1D0E943B0F0C94651E4F925F926F9244
:102200007F929F92AF92BF92CF92DF92EF92FF9216
:102210000F931F93CF93DF9300D000D00F92CDB7D1
:10222000DEB70E94950F26EAA22E21E0B22E10E022
:1022300000E0902E802F0E9487106B017C01F50139
:1022400041905190619071905F014C145D046E0457
:102250007F0409F475C08091990281FD0E94A0104D
:102260004C245D246E247F2490E080E0B301A20121
:10227000082E04C076956795579547950A94D2F72E
:1022800040FF59C089839A82412C512C32014394DA
:1022900004C0440C551C661C771C8A95D2F7C420D8
:1022A000D520E620F72081E0CD28CE28CF2809F4DC
:1022B00080E08B830E94A51D8160782F9D838C8395
:1022C00049815A816B818D810E94CC11000F111FB1
:1022D000000F111FF801EA55FE4F80819181A28104
:1022E000B38184259525A625B72580839183A28374
:1022F000B3830E9412210E94A6109091A501891714
:10230000B1F10E94A6108093A5010F900F900F903D
:102310000F900F90DF91CF911F910F91FF90EF9051
:10232000DF90CF90BF90AF909F907F906F905F9025
:102330004F900C94DB0C01968231910509F096CFF9
:102340000F5F1F4F0930110509F073CF8FEF89839D
:102350008A831B820E94A51D8160782F9D838C83B8
:1023600049815A816B818D810E94CC11C2CF0F901F
:102370000F900F900F900F90DF91CF911F910F91C1
:10238000FF90EF90DF90CF90BF90AF909F907F90A5
:102390006F905F904F900895CF93DF93CDB7DEB7E6
:1023A0002B970FB6F894DEBF0FBECDBF4F83588773
:1023B00069877A878B871E8285E0FE013796DE016A
:1023C000119601900D928A95E1F749815A816B81AE
:1023D0007C818D819E812B960FB6F894DEBF0FBE57
:1023E000CDBFDF91CF910C943E18882309F4D8C05B
:1023F000823871F40E94A61081FDD2C089E30E9448
:10240000E51B0E94AD1C89E30E94211C0C94AD1CAD
:10241000833859F40E94A61080FDC2C083E50E9453
:10242000E51B0E94AD1C83E5EFCF843859F40E9470
:10243000A61082FDB5C087E40E94E51B0E94AD1C7A
:1024400087E4E2CF9CEF980F913A18F40E94E51BC5
:10245000DDCF90E2980F983050F4877091E001C082
:10246000990F8A95EAF7892F0E94641CCFCF9BE5CC
:10247000980F933070F4853A31F0863A39F083E85A
:1024800090E00C94C81081E890E0FBCF82E890E0E7
:10249000F8CF98E5980F953108F082C0883A09F492
:1024A00040C0893A09F440C08A3A09F440C08B3AE6
:1024B00009F440C08C3A09F440C08B3B09F440C099
:1024C0008C3B09F440C08D3A09F440C0803B09F4CC
:1024D00040C08E3A09F440C08F3A09F440C0813BB5
:1024E00009F440C0823B09F440C0833B09F440C07A
:1024F000843B09F440C0853B09F440C0863B09F4A5
:1025000040C0873B09F440C0883B09F440C0893B88
:1025100009F440C08A3B09F440C090E080E00C948C
:10252000DE1082EE90E0FBCF89EE90E0F8CF8AEEED
:1025300090E0F5CF85EB90E0F2CF86EB90E0EFCF27
:1025400083EB90E0ECCF84EB90E0E9CF87EB90E079
:10255000E6CF8CEC90E0E3CF8DEC90E0E0CF83E829
:1025600091E0DDCF8AE891E0DACF82E991E0D7CF40
:1025700084E991E0D4CF81E292E0D1CF83E292E08E
:10258000CECF84E292E0CBCF85E292E0C8CF86E264
:1025900092E0C5CF87E292E0C2CF8AE292E0BFCF5D
:1025A0000895882309F44BC0823871F40E94A61064
:1025B00081FF45C089E30E94E51B0E94AD1C89E3B1
:1025C0000E94211C0C94AD1C833859F40E94A61063
:1025D00080FF35C083E50E94E51B0E94AD1C83E5AA
:1025E000EFCF843859F40E94A61082FF28C087E4F8
:1025F0000E94E51B0E94AD1C87E4E2CF9CEF980F80
:10260000913AF0F290E2980F983050F4877091E090
:1026100001C0990F8A95EAF7892F0E946A1CD2CFD0
:102620009BE5980F933020F490E080E00C94C81064
:10263000885A853120F490E080E00C94DE100895F3
:10264000882321F00E94641C0C94AD1C08958823FB
:1026500021F00E946A1C0C94AD1C08958F929F92E9
:10266000AF92BF92DF92EF92FF920F931F93CF939F
:10267000DF9300D000D00F92CDB7DEB77C016D8321
:102680007983FC01058102950F70128111110E945E
:10269000831C0E94DE1BD82E882371F01123A1F029
:1026A0008D81805E883080F082E00E94C81B0E948D
:1026B000DE1B91E0D82ED926E981E295EF70F0E09B
:1026C000E656F54D0C94332AD12CF6CF09810F70C4
:1026D000F981F07F11F00295007F1123B1F0002302
:1026E00061F08D81805E883018F02D81211109C044
:1026F000802F0E94641C0E94AD1C8D810E94F511E8
:1027000015C0802F0E94751CF6CF8D810E94D112BA
:10271000002361F08D81805E883018F03D81311199
:1027200029C0802F0E946A1C0E94AD1CDD2009F484
:10273000D7C10E94BB1B80FDD3C1F70112820E944A
:10274000B51B0E94FE19C7010E9481150E94B51B8E
:102750000F900F900F900F900F90DF91CF911F91DE
:102760000F91FF90EF90DF90BF90AF909F908F9070
:102770000C94201A802F0E947B1CD6CF49814F7069
:10278000B42E5981507F503219F0B29480EFB822A4
:102790008D81882369F0813029F1112369F10023AB
:1027A00059F0F701858180FFA8CF8F70858304C021
:1027B000112361F0011104C08B2D0E942013B6CFAC
:1027C0008B2D0130D1F70E94971CB0CF011106C0AC
:1027D0000E949A1C8B2D0E942713A8CF013009F468
:1027E000A5CFF6CF112321F0063008F09FCFE4CF1C
:1027F000053008F09BCFEECF002361F38D810E945E
:10280000D11294CF898186958695837069F0813045
:1028100009F08CCF8D8199819370111102C090E0E5
:1028200080E00E94DE1082CF8D819981937011111A
:1028300002C090E080E00E94C81078CF8D81112303
:1028400029F00E9420200E94072170CF0E9488203A
:10285000FACF8981837009F05FC0111167CF2D8194
:10286000229526952770220F220F8D818F7090E080
:10287000B0E0A0E04C015D01022E04C0880C991C60
:10288000AA1CBB1C0A94D2F7FD8160E070E0CB016A
:10289000F4FF0FC06FE070E080E090E004C0660FCE
:1028A000771F881F991F2A95D2F76095709580959C
:1028B000909529812695269523702D832230B1F09D
:1028C000233019F19B01AC01282939294A295B29B8
:1028D00029833A834B835C833D8169817A818B8133
:1028E0009C813130B1F00E948B1920CF9B01AC014B
:1028F000282939294A295B2929833A834B835C8318
:10290000CA01B9010E94B51911CF0E948B19C501E6
:10291000B4010E9461190ACF112309F447C039811B
:1029200030FF04CF2D81229526952770220F220F8C
:102930008D818F7090E0B0E0A0E04C015D01022E2F
:1029400004C0880C991CAA1CBB1C0A94D2F75D8198
:1029500060E070E0CB0154FF0FC06FE070E080E0FA
:1029600090E004C0660F771F881F991F2A95D2F741
:102970006095709580959095E981E695E695E37070
:10298000ED83E230F1F0E33059F19B01AC012829ED
:1029900039294A295B2929833A834B835C83E130B7
:1029A00049F0CA01B9010E94911AC0CE498141FF84
:1029B000BDCEB8CF69817A818B819C810E94671AD4
:1029C000B5CE9B01AC01282939294A295B292983E5
:1029D0003A834B835C83CA01B9010E94BB1AA6CE1D
:1029E0000E94911AC501B401E9CF3D81323F09F43B
:1029F00047C080F4303F79F1313FD9F1832F805EB9
:102A00008031D0F0112309F456C0011176CE8981AE
:102A10008F7133C04D81433FD1F1443F99F711236A
:102A200009F43FC089818F7189830E94FE1963E098
:102A300089810E94BF1B7ACE5D815F705D83898131
:102A40008F71112321F00E94FE198D81B6CE0E9454
:102A5000201A8D81C0CE112341F0053008F066CEDA
:102A600089818F710E94451A61CE063008F05ECED2
:102A7000F7CF89818F71112339F00E94FE1956CE4C
:102A800089818F711123C9F30E94201A4FCE11231F
:102A900029F089818F710E94E91948CE0E94DF19BF
:102AA00045CE81E00E94C81B023008F43FCE82E090
:102AB0000E94C81B3BCE0111A1CE89818F71E4CF4A
:102AC00049814F706D81C7010E948D0B0E94D818FB
:102AD0002DCE49814F706D81C7010E94DD0C26CE3D
:102AE0000F900F900F900F900F90DF91CF911F914B
:102AF0000F91FF90EF90DF90BF90AF909F908F90DD
:102B000008950F931F93CF93DF93EC018B819C81EA
:102B1000892B29F08981988189238F3F29F4DF91BE
:102B2000CF911F910F910895CE010E94A60B88238B
:102B3000B1F3688179818A810E948B1B8C010E948C
:102B4000E51A0E945619B801CE01DF91CF911F916D
:102B50000F910C942E130E94831C0E94941C0E94BF
:102B6000561C0E94AD1C0E94F8210E94072190E093
:102B700080E00E94C81090E080E00C94DE100E947B
:102B8000721C0C94AB150E947F1B282F892F8295F5
:102B90008F70903C80F48A30B0F4843020F482301E
:102BA00090F480E008958630E1F781E0203E88F0DF
:102BB000213FB9F70EC08C3011F08F3091F793FBA5
:102BC000882780F9089581E0203F39F018F4203EED
:102BD00040F70895243F29F7FCCF0895CF93DF9362
:102BE00000D000D00F92CDB7DEB70F900F900F90AE
:102BF0000F900F90DF91CF910895CF93DF9300D086
:102C000000D000D0CDB7DEB726960FB6F894DEBF61
:102C10000FBECDBFDF91CF9108951F93CF93DF9368
:102C2000E091CB0116E08091CC018E1304C0DF91BE
:102C3000CF911F910895CE2FD0E01E9FF001112457
:102C4000E353FE4F4081518162817381848195817C
:102C50000E94FD15FE013196E770E5CF4091FD0120
:102C60005091FE016091FF0170910002809101027C
:102C7000909102020C94FD151F93CF93DF938091E6
:102C80000202807FC1F48091FF018823A1F080912E
:102C9000CB01C091CC017091FD016091FE0140918A
:102CA000000250910102D62FD723DA01A095B095EA
:102CB00016E0C81304C0DF91CF911F91089590E0F2
:102CC0004115510511F0DF3F31F401968770F1CFC6
:102CD0002A0F3B1F17C0189FF001199FF00D1124F8
:102CE000E353FE4F21816213F0CF20812713EDCFF4
:102CF00022812111EACF238134812417350740F343
:102D0000241B350B283C310500F7209102022F705F
:102D100020612093020226E0289FF001299FF00DF8
:102D20001124EE52FE4F80818F70806180838DEF81
:102D300091E00E948115DF91CF911F910C940D16A7
:102D40009F92AF92BF92CF92DF92EF92FF920F933A
:102D50001F93CF93DF93CDB7DEB72B970FB6F894C1
:102D6000DEBF0FBECDBF8C0185E0F801DE011796F6
:102D700001900D928A95E1F7D8011296EC9080911E
:102D8000000290910102009749F04091FD0150919D
:102D9000FE01242F25232F3F09F04BC1EE2009F41B
:102DA000C0C08F8198850E94C315882309F4B9C0DB
:102DB000F9C0C816D90648F1F601E81BF90BCF0196
:102DC000FF24F394883C910508F0F12C8DEFA82E98
:102DD00081E0B82E80910202982F907FF1101AC0E6
:102DE00009F0EFC04F81588569857A858B850E94EF
:102DF000EE158DEF91E00E94811586E0F5011192AC
:102E00008A95E9F70E942E161DC0809590958C0D2D
:102E10009D1DD6CF9111A4C0FE2C251326C04313AF
:102E200024C0E11022C08F708061809302020E9452
:102E30002E168DEF91E00E94811580910202D8013B
:102E400015968C938F2D2B960FB6F894DEBF0FBE80
:102E5000CDBFDF91CF911F910F91FF90EF90DF9049
:102E6000CF90BF90AF909F900895CD2829F0822FEA
:102E700083238F3F09F071C080E0B82FB170DB2E43
:102E8000E091CB014091CC0156E080FD1CC0EE20CA
:102E9000C9F280910202816080930202F12CD2CFAC
:102EA0008E2F90E05E9FF0011124E353FE4F61816D
:102EB000261306C06081361303C06281E612E7CF95
:102EC000FC013196E770E413EBCF8F8198850E9467
:102ED0007F1B292F22952F70903260F0225F2F7078
:102EE000223078F49F7051F0F8019581907F31F491
:102EF000D12C0AC09F7011F08823D1F3805E8830F6
:102F0000B8F3C8010E948115FD2C9CCF8095909547
:102F10008C0D9D1D883C910508F09FC0FE2CE11092
:102F200063C0C8010E94811549C086E0F801ADEF79
:102F3000B1E001900D928A95E1F784CF8F81988559
:102F40000E94C31581112EC080910202816080937E
:102F50000202C8010E94811575CF81E08E258DCFB8
:102F6000251306C0431304C0D801EE2009F453C052
:102F70008F8198850E94C315882399F2EE2089F2EB
:102F800080910202803270F02091FD013091FE01AB
:102F90003A8329831B82DD82CC828E83CE01019607
:102FA0000E94811586E0F801ADEFB1E001900D922D
:102FB0008A95E1F70E943C160E942E16FF24F39496
:102FC00041CF2513D5CF4313D3CFE110D1CFD801B3
:102FD00015968C93C8010E94811586E0F501119227
:102FE0008A95E9F7F92C2ECF2513A8CF4313A6CF46
:102FF0008091020280FD99CF982F907F09F495CFA0
:10300000D80115968C931597903F39F0982F907FA3
:10301000905F8F70892B15968C93C8010E94811543
:1030200086E0F801ADEFB1E001900D928A95E1F7ED
:10303000E9CEF80130812181C380D4809090FF01D6
:103040009110B7CEC816D90608F460CFC81AD90AAD
:10305000F8ECCF16D10408F461CF4F81588569850B
:103060007A858B850E94EE1586E0EDEFF1E0DF01B9
:103070001D928A95E9F70E942E1610CF1F93CF93C9
:10308000DF93CDB7DEB72C970FB6F894DEBF0FBE37
:10309000CDBF4F83588769877A878B879C87CE01FE
:1030A00007960E94A016882369F08A859B85892B44
:1030B00039F058854F81852F84238F3F09F071C0E7
:1030C00016E05FC086E0FE013796DE0111960190A2
:1030D0000D928A95E1F78A859B85892B89F38F81EB
:1030E000988589238F3F61F32091CC0130E0C9019D
:1030F0000196877099274091CB014817190671F402
:103100000E94BF151092CC011092CB0186E0EDEF2A
:10311000F1E0DF011D928A95E9F7D2CF96E0929F08
:10312000D001939FB00D1124A353BE4FFE013196E1
:1031300001900D929A95E1F78093CC010E940D16B3
:10314000BFCF819FC001112483539E4F0E94A016C0
:103150008823E9F0E091CB011E9FF0011124E35395
:10316000FE4F4081518162817381848195810E94EB
:10317000FD158091CB0190E001968770992780938F
:10318000CB018091CB019091CC018913DACF2C96A1
:103190000FB6F894DEBF0FBECDBFDF91CF911F9168
:1031A000089569857A858B859C850E94FD1588CF59
:1031B000EF92FF920F931F93CF93DF938C01892B94
:1031C00089F0F12CEE24E394E8012196F801849132
:1031D000843709F458C0A0F4823009F43FC048F4A1
:1031E0008130D1F0DF91CF911F910F91FF90EF903F
:1031F00008959CEF980F9037A8F70E94F5110AC028
:10320000853709F44EC09CE7980F903758F78F77B1
:103210000E94D1128E0116C00E5F1F4FFE018491D5
:1032200090E2980F983060F48770FE2D01C0FF0F78
:103230008A95EAF78F2F0E94861C0E94AD1C02C05F
:103240000E94F5118F2D882309F4BECFEFE9FFE02E
:103250003197F1F700C000008150F5CF0E5F1F4F8E
:10326000FE01849190E2980F983050F48770FE2D03
:1032700001C0FF0F8A95EAF78F2F0E948C1CDDCFCB
:103280000E94D112DFCF0E5F1F4FFE01C491CC23ED
:10329000C9F28FE99FE00197F1F700C00000C1502B
:1032A000F6CF0E5F1F4FFE01F490CCCF08956093D0
:1032B00070027093710280937202909373020C9467
:1032C000AB15CF93DF9300D000D0CDB7DEB76983C5
:1032D0007A838B839C838091700290917102A0917C
:1032E0007202B091730229813A814B815C81822BF9
:1032F000932BA42BB52B8093700290937102A09313
:103300007202B09373020F900F900F900F90DF91A5
:10331000CF910C94AB15CF93DF9300D000D0CDB7F5
:10332000DEB769837A838B839C838091700290914E
:103330007102A0917202B091730229813A814B818E
:103340005C8182239323A423B523809370029093FE
:103350007102A0937202B09373020F900F900F90BE
:103360000F90DF91CF910C94AB15CF93DF9300D0EA
:1033700000D0CDB7DEB769837A838B839C8380913D
:10338000700290917102A0917202B0917302298132
:103390003A814B815C8182279327A427B5278093AC
:1033A000700290937102A0937202B09373020F9017
:1033B0000F900F900F90DF91CF910C94AB1510925E
:1033C0006C0210926D0210926E0210926F020C94B9
:1033D000AB1541E050E060E070E004C0440F551FC1
:1033E000661F771F8A95D2F740936C0250936D0247
:1033F00060936E0270936F020C94AB15282F81E0DE
:1034000090E0A0E0B0E004C0880F991FAA1FBB1F86
:103410002A95D2F740916C0250916D0260916E0234
:1034200070916F02842B952BA62BB72B80936C0287
:1034300090936D02A0936E02B0936F020C94AB1543
:1034400041E050E060E070E004C0440F551F661F8B
:10345000771F8A95D2F74095509560957095809129
:103460006C0290916D02A0916E02B0916F02842364
:103470009523A623B72380936C0290936D02A093AB
:103480006E02B0936F020C94AB15282F81E090E090
:10349000A0E0B0E004C0880F991FAA1FBB1F2A95A7
:1034A000D2F740916C0250916D0260916E02709162
:1034B0006F0284279527A627B72780936C029093E5
:1034C0006D02A0936E02B0936F020C94AB15CF9374
:1034D000DF9300D000D0CDB7DEB769837A838B83CA
:1034E0009C8380916C0290916D02A0916E02B091CC
:1034F0006F0229813A814B815C81822B932BA42B13
:10350000B52B80936C0290936D02A0936E02B093E2
:103510006F020F900F900F900F90DF91CF910C944E
:10352000AB15CF93DF9300D000D0CDB7DEB7698362
:103530007A838B839C8380916C0290916D02A09121
:103540006E02B0916F0229813A814B815C818223A6
:103550009323A423B52380936C0290936D02A093D0
:103560006E02B0936F020F900F900F900F90DF914B
:10357000CF910C94AB15CF93DF9300D000D0CDB793
:10358000DEB769837A838B839C8380916C029091F0
:103590006D02A0916E02B0916F0229813A814B8138
:1035A0005C8182279327A427B52780936C02909390
:1035B0006D02A0936E02B0936F020F900F900F9068
:1035C0000F90DF91CF910C94AB150895E82F22E175
:1035D000929FE00D11248E2F877041E001C0440FAF
:1035E0008A95EAF7E695E695E69585E0E89FF0018D
:1035F0001124ED5FFD4F30E020E070E05191DF01DC
:103600001197CB01022E02C0969587950A94E2F796
:10361000817081958527842385278C932F5F3F4F69
:103620002530310559F70895E82F22E1929FE00DEA
:1036300011249E2F9770E695E695E69585E0E89F24
:10364000F0011124ED5FFD4F50E040E080E021915A
:1036500030E0092E02C0369527950A94E2F72170D2
:103660003327042E01C0220F0A94EAF7822B4F5F02
:103670005F4F4530510559F70895BF92CF92DF92C1
:10368000EF92FF920F931F93CF93DF938C01C09023
:103690006C02D0906D02E0906E02F0906F0280910B
:1036A000700290917102A0917202B0917302C82AC7
:1036B000D92AEA2AFB2ACFE1D0E0BC2ED701C601E5
:1036C0000C2E04C0B695A795979587950A94D2F7C6
:1036D00080FD0EC0219788F7B12C8B2DDF91CF9103
:1036E0001F910F91FF90EF90DF90CF90BF900895C2
:1036F000B8018C2F0E94FA0C019761F3EECFCF93A3
:10370000DF93D82FC92F0E943D1B6D2F7C2FDF9197
:10371000CF910C94FA0C1F93CF93DF93162FD72FD2
:103720009091CA01992339F0862F972FDF91CF917D
:103730001F910C947F1B882391F0862F972F0E9456
:103740003D1BC82F682F812F9D2F0E94E61A612FE5
:103750007D2F8C2FDF91CF911F910C94FA0C862F27
:10376000972F0E94141BC82FF2CF80917402859569
:10377000859585950895809174028770089598E0E5
:10378000899F90011124622B609374020C94FE199E
:10379000909174028095892380937402282F27705A
:1037A00061F4282F082E000C330B9217130629F012
:1037B0008595859585950C94201A089590917402AD
:1037C000977081E009F480E00895909112019923A7
:1037D000D9F090919F0297FF17C0982F96959695D4
:1037E00096959F3131F1E0910001F0910101E90FCF
:1037F000F11D877021E030E001C0220F8A95EAF7C1
:103800008181822B818308952091000130910101F3
:10381000F90132969FEF40E05191851751F09F3F9B
:1038200019F4511101C0942F4F5F4E31A9F79F3FFA
:1038300009F40895290F311D97FD3A95F901828306
:103840000895909112019923F9F090919F0297FFAA
:103850001BC0982F9695969596959F3131F1E091E2
:103860000001F0910101E90FF11D877021E030E0C6
:10387000A90102C0440F551F8A95E2F7CA0180953D
:103880009181892381830895209100013091010164
:10389000F9013296205E3F4F9191891303C0DF01F9
:1038A00011971C92E217F307B9F7089581E090E0B1
:1038B000E0910001F0910101E80FF91F10820196DB
:1038C00080329105A9F7089590919802982B9093D2
:1038D00098020895982F909580919802892380935B
:1038E0009802089510929802089590919702982B4B
:1038F000909397020895982F90958091970289232D
:1039000080939702089510929702089590919602DD
:10391000982B909396020895982F909580919602F7
:1039200089238093960208951092960208958093B9
:10393000750208951092750208952091000130914A
:103940000101F9013196205E3F4F80E09191911184
:103950008F5FE217F307D1F70895E0910001F0912E
:103960000101809198028083E0910001F0910101B2
:10397000808190919702892B8083E0910001F091E2
:103980000101808190919602892B8083909175022C
:10399000992361F0E0910001F09101018081892B70
:1039A00080830E949D1C81111092750280910001FC
:1039B000909101010C94B2106DEE7EEF90E080E0EA
:1039C0000E94702A60E082E090E00E945E2A60E03F
:1039D00083E090E00E945E2A60E084E090E00E9434
:1039E0005E2A60E085E090E00C945E2A90E080E042
:1039F0000E94582A9C0181E02D3E3E4F09F080E054
:103A0000089582E090E00C94502A682F82E090E0C4
:103A10000C945E2A83E090E00C94502A682F83E097
:103A200090E00C945E2A84E090E00C94502A682F79
:103A300084E090E00C945E2A8091CF02843039F1CA
:103A400010929A0288E190E020E40FB6F894A895CD
:103A5000809360000FBE2093600080E00E94DB0C2A
:103A600083B7817F846083BF83B7816083BF78948D
:103A7000889583B78E7F83BF0FB6F894A895809101
:103A80006000886180936000109260000FBE08950E
:103A900008950895CF93DF9300D000D00F92CDB753
:103AA000DEB70E94481D0E94950F0E94491D1D828D
:103AB0008D810E948710672B682B692B71F48D8193
:103AC0008F5F8D838930A1F780E00F900F900F906A
:103AD0000F900F90DF91CF91089581E0F6CF0E9473
:103AE000BF150E94A6100C94DB0C1F921FB61F92EC
:103AF00011248F939F93AF93BF9380919A0281116A
:103B000013C080919B0290919C02A0919D02B09164
:103B10009E024196A11DB11D80939B0290939C0231
:103B2000A0939D02B0939E02BF91AF919F918F9100
:103B30001F901FBE1F90189582E084BD93E095BD35
:103B40009AEF97BD80936E0008952FB7F8948091F7
:103B50009B0290919C02A0919D02B0919E022FBF6A
:103B60000895CF92DF92EF92FF929C014FB7F894A5
:103B700080919B0290919C02A0919D02B0919E0227
:103B80004FBF6C017D01EE24FF24A90170E060E0CD
:103B9000C416D506E606F70638F0821B930BFF9095
:103BA000EF90DF90CF9008950197F7CF1F921FB647
:103BB0001F9211248F939F93AF93BF9380919B0289
:103BC00090919C02A0919D02B0919E020196A11D30
:103BD000B11D80939B0290939C02A0939D02B09391
:103BE0009E02BF91AF919F918F911F901FBE1F901A
:103BF00018950E94EC25F8942FEF87EA91E6215062
:103C000080409040E1F700C0000087E090EBDC01CD
:103C10008093D9029093DA02A093DB02B093DC0286
:103C200088E19CE00FB6F894A895809360000FBEE1
:103C300090936000FFCFAF92BF92CF92DF92EF924E
:103C4000FF920F931F93CF93C0E0A82EB12C8C2F1F
:103C50000E9487106B017C0110E000E0D701C601D3
:103C6000002E04C0B695A795979587950A94D2F72C
:103C700080FF13C0602F7C2F80E00E94DE0CA8160E
:103C8000B90659F481E0CF911F910F91FF90EF9009
:103C9000DF90CF90BF90AF9008950F5F1F4F02311C
:103CA0001105E1F6CF5FC93091F680E0ECCFCF93FC
:103CB000C82F8CE20E941B1E882321F08C2FCF91ED
:103CC0000C941B1E80E0CF910895CF93DF9300D01A
:103CD00000D0CDB7DEB70E94F61C811102C00E9451
:103CE000DC1C95E6998308C00E94950F8FE39CE940
:103CF0000197F1F700C00000A981A150A983A1118B
:103D0000F3CF89E20E94571E811110C18AE20E94FE
:103D1000571E81110E94DC1C85E00E94571E8111F4
:103D20000E94F91D0E94011D8093990287E00E9464
:103D3000571E882371F08BE10E94571E882309F4D7
:103D4000D1C090919902892F8D7F91FF82608093DD
:103D50009902809199020E94051D0E94131D90E016
:103D60009093A00280939F0280EE0E94571E8823AA
:103D700041F090919F02892F8E7F90FF8160809308
:103D80009F0289E30E94571E882341F090919F0271
:103D9000892F8D7F91FF826080939F0282EE0E9427
:103DA000571E882341F090919F02892F8B7F92FFAD
:103DB000846080939F0286EE0E94571E882341F004
:103DC00090919F02892F877F93FF886080939F0245
:103DD00083EE0E94571E882341F090919F02892F05
:103DE0008F7E94FF806180939F0285E30E94571E1F
:103DF000882341F090919F02892F8F7D95FF8062EB
:103E000080939F0281E30E94571E882341F0909186
:103E10009F02892F8F7B96FF806480939F0281E1B0
:103E20000E94571E882341F090919F02892F97FB93
:103E300087F9805880939F0280919F020E94171DEE
:103E400087E20E94571E89838EE10E94571E8823B5
:103E500019F0B981B260B9838FE10E94571E88239F
:103E600019F029812460298380E20E94571E88234B
:103E700019F039813860398381E20E94571E882306
:103E800019F049814061498382E20E94571E8823CC
:103E900019F059815062598383E20E94571E88238A
:103EA00019F089818064898384E20E94571E8823E7
:103EB000B1F199819068998389810E940E1D3981A1
:103EC000232F30E050E040E029833A834B835C832A
:103ED000CA01B9010F900F900F900F90DF91CF9111
:103EE0000C9457198EE00E94571E882339F0909148
:103EF0009902892F8B7F92FF846029CF80E10E94F5
:103F0000571E90919902882329F0892F877F93FF6C
:103F100088601DCF892F8E7F90FF816018CFA98187
:103F2000A111CACF0E940A1D282FCBCF0F900F904E
:103F30000F900F90DF91CF9108958091A30280FFA1
:103F400012C06091050185E0689FB001112475954C
:103F500067957595679560387105A8F561157105C8
:103F6000A1F1862F089581FF09C06091050185E0C8
:103F7000689FB001112475956795EDCF609105019B
:103F800082FD0AC08091A4028823D1F0909104019F
:103F900060910501891728F085E0689FB001112420
:103FA000DACF869FB001112485E0869F9001879F1C
:103FB000300D1124692F70E0C9010E941F2ACBCF58
:103FC00065E070E0CECF8FE7089581E0089580919D
:103FD000A30280FF0CC06091030170E075956795A6
:103FE000759567956115710549F1862F089581FFD3
:103FF00006C06091030170E075956795F3CF6091FD
:10400000030182FD0BC09091A4029923A1F060915D
:10401000020180910301961738F0682F70E0603834
:10402000710500F38FE70895899FC001112470E0A6
:104030000E941F2AF4CF61E070E0D7CF81E008959D
:10404000803F31F40E949D1F81958093A7020895BF
:10405000813F19F40E949D1FF8CF823F31F40E94E6
:104060009D1F81958093A6020895833F19F40E94B5
:104070009D1FF8CF893F29F40E94E71F8093A80273
:1040800008958A3F21F40E94E71F8195F7CF8B3F67
:1040900031F40E94E71F81958093A90208958C3F17
:1040A00019F40E94E71FF8CF843F31F48091A502F4
:1040B00081608093A5020895853F21F48091A50237
:1040C0008260F7CF863F21F48091A5028460F1CF12
:1040D000873F21F48091A5028860EBCF883F21F4CF
:1040E0008091A5028061E5CF8D3F31F48091A302DC
:1040F00081608093A30208958E3F21F48091A302F2
:104100008260F7CF8F3FB9F78091A3028460F1CF2F
:104110009091A602803F41F48091A70287FD109202
:10412000A702992371F00895813F29F48091A70295
:104130001816ACF3F6CF823F81F497FFF2CF1092BE
:10414000A6028091A7029091A802892B9091A902C2
:10415000892B49F71092A4020895833F19F4191688
:1041600074F3DFCF893F39F48091A8021816CCF69A
:104170001092A802D6CF8A3F29F48091A80287FF27
:10418000D0CFF6CF8B3F39F48091A90287FFC9CFFA
:104190001092A902C6CF8C3F29F48091A90218166B
:1041A000BCF3BFCF843F31F48091A5028E7F809312
:1041B000A502B7CF853F21F48091A5028D7FF7CF6F
:1041C000863F21F48091A5028B7FF1CF873F21F4B8
:1041D0008091A502877FEBCF883F21F48091A502D3
:1041E0008F7EE5CF8D3F31F48091A3028E7F809347
:1041F000A30297CF8E3F21F48091A3028D7FF7CF4A
:104200008F3F09F08ECF8091A3028B7FF0CF85EA9C
:1042100092E00E94BD100E94A51D9093A20280937F
:10422000A10208951F93CF93DF9300D000D000D058
:10423000CDB7DEB78091A1029091A2020E94B11D7C
:10424000AC018091A4022091060130E0811106C0EA
:10425000209107019AE0299F9001112442175307EA
:1042600088F02091A602A091A702A9831091A8022C
:10427000B091A902BE8321110FC09A2F912B9B2BC5
:1042800009F0B2C026960FB6F894DEBF0FBECDBFC0
:10429000DF91CF911F9108958F3F19F08F5F809329
:1042A000A402121624F40E949D1F8093A6028091FE
:1042B000A60287FF05C00E949D1F81958093A602DC
:1042C0002981121624F40E949D1F8093A7028091D9
:1042D000A70287FF05C00E949D1F81958093A702BA
:1042E0008091A602882309F455C03091A7023D832E
:1042F000332309F44FC0282F880F330B440B550B81
:1043000029833A834B835C83CA01B9010E94262921
:1043100023E333E343E35FE369837A838B839C8303
:1043200069817A818B819C810E948A2969837A8341
:104330008B839C8369817A818B819C810E94EE288A
:104340006093A6028D81082E000C990BAA0BBB0B63
:1043500089839A83AB83BC83BC01CD010E9426294B
:1043600023E333E343E35FE369837A838B839C83B3
:1043700069817A818B819C810E948A2969837A83F1
:104380008B839C8369817A818B819C810E94EE283A
:104390006093A702111624F40E94E71F8093A802DD
:1043A0008091A80287FF05C00E94E71F8195809336
:1043B000A8029E81191624F40E94E71F8093A90287
:1043C0008091A90287FF05C00E94E71F8195809315
:1043D000A90226960FB6F894DEBF0FBECDBFDF91BF
:1043E000CF911F910C9407218F3F09F057CF68CFD1
:1043F00085E0E5EAF2E0DF011D928A95E9F7109287
:10440000A4021092A30208958091CA020895CF9346
:10441000DF9300D00F92CDB7DEB72091CF022430CA
:1044200019F523E029838A839B832093E9008FEF8A
:104430009091E800815095FD06C095ED9A95F1F7B1
:1044400000008111F5CF8091E80085FF0DC050E09C
:1044500040E063E070E0CE0101960E946424809108
:10446000E8008E778093E8000F900F900F90DF9117
:10447000CF910895CF93DF9300D00F92CDB7DEB7E1
:104480009C018091CF02843031F582E089832058ED
:1044900031093B832A8383E08093E9008FEF909179
:1044A000E800815095FD06C095ED9A95F1F7000062
:1044B0008111F5CF8091E80085FF0DC050E040E00C
:1044C00063E070E0CE0101960E9464248091E800D0
:1044D0008E778093E8000F900F900F90DF91CF912F
:1044E00008952091CF022430F1F422E02093E900D6
:1044F0002FEF3091E800215035FD06C035ED3A959B
:10450000F1F700002111F5CF2091E80025FF0BC045
:1045100050E040E065E070E00E9464248091E80093
:104520008E778093E8000895CF93DF93D82FC92F1B
:104530008091CF028430F1F4909112019923E9F037
:1045400090919F0297FF19C08093E9008FEF90919F
:10455000E800815095FD06C095E19A95F1F70000BD
:104560008111F5CF8091E80050E040E060E270E01A
:1045700085FD1AC0DF91CF91089581E08093E90015
:104580008FEF9091E800815095FD06C095ED9A95CA
:10459000F1F700008111F5CF8091E80085FFEACFA7
:1045A00050E040E068E070E08D2F9C2F0E94642472
:1045B0008091E8008E778093E80080E2ED2FFC2F59
:1045C000AAEAB2E001900D928A95E1F7D3CF8091EB
:1045D000D802811109C00E94EC250E944E268091CC
:1045E000E20084608093E20008951092D80208955A
:1045F000089508950C946F1D42E061EC81E00E94E3
:10460000682542E061EC82E00E94682542E061ECAE
:1046100083E00E94682542E261EC84E00C94682506
:104620008091D102893089F148F4823009F494C034
:10463000833009F44FC0813041F008958A3009F485
:104640007BC08B3009F461C008958091D002813A1B
:1046500009F03FC08091E800877F8093E800809157
:10466000D4029091D502892B61F460E28AEA92E04B
:1046700070E00E94B3248091E8008B778093E8007B
:10468000089560E090E080E0F3CF8091D002813225
:1046900001F58091D4029091D502009711F0039713
:1046A000C1F48091E800877F8093E8008091E80062
:1046B00082FF0BC08091F1008093CA028091E800D4
:1046C0008B778093E8000C949C258091CF02811118
:1046D000EDCF08958091D002813AD9F78091D4022C
:1046E0009091D502892BA9F78091E800877F80936C
:1046F000E8008091E80080FFFCCF80911201809358
:10470000F1008091E8008E77DCCF8091D002813279
:1047100001F78091D4029091D502892BD1F6809136
:10472000E800877F8093E8000E949C258091D20258
:10473000809312010C94BF158091D002813249F60A
:104740008091E800877F8093E8000E949C258091FB
:10475000D3028093CB0208958091D002813A09F070
:10476000B8CF8091E800877F8093E8008091E800CF
:1047700080FFFCCF8091CB02C2CF84B7877F84BFFC
:104780000FB6F894A89580916000886180936000CE
:10479000109260000FBE80E880936100109261006B
:1047A0000E94F5100E94EC250E944E268091E200A6
:1047B00084608093E20078940E94D3280E94F710CE
:1047C00088E091E00E94A1108091CF02853019F01D
:1047D0000E94FD10F9CF0E941C1D8091CC028823FD
:1047E00099F30E944A1D882379F30E944E24ECCF4E
:1047F0009C01DA01892F992783309105C1F068F473
:104800008130910509F445C0029761F48DE690E08E
:1048100028E035E12D933C93089581329105E1F034
:10482000829739F190E080E030E020E0F3CFC901D9
:104830009927213059F08230910559F0E4E0F5E1F3
:10484000892B81F7849190E09F01E4CFECEEF4E1B5
:10485000F9CFE8EDF4E1F6CF643020F7E62FF0E091
:10486000EE0FFF1FE65CFE4F2081318189E090E072
:10487000D1CF6430B8F670E0FB01EE0FFF1FEE5CA5
:10488000FE4F20813181625D7E4FFB01808190E08F
:10489000C1CF82E190E025E735E1BCCF84E189BD5D
:1048A00086E189BD09B400FEFDCF8091D8008F7DDF
:1048B0008093D8008091E00082608093E000809136
:1048C000E00081FDFCCF0895AF92BF92CF92DF92BE
:1048D000FF920F931F93CF93DF936C01EB018A013B
:1048E0000E94BB25F82E811123C00115110539F056
:1048F000F80180819181C81BD90BC80ED91EB12C3B
:10490000A12C2097A9F08091E80085FD22C080911C
:10491000E8008E778093E80001151105A1F0F801F9
:1049200080819181A80EB91EB182A08285E0F82E07
:104930008F2DDF91CF911F910F91FF90DF90CF903E
:10494000BF90AF9008950E94BB258823D1F2F82E26
:10495000EFCFF60181916F018093F1002197FFEF76
:10496000AF1ABF0ACECFFC01CB012091D602309105
:10497000D7022617370790F0009729F42091E80016
:104980002E772093E80040E0009751F4411108C0D1
:104990008091E80082FF31C080E00895C901F3CF23
:1049A0002091CF022223A9F12530A9F12091E8001E
:1049B00023FD2DC02091E80022FDEACF2091E800E0
:1049C00020FFE2CF2091F2003091F300009719F020
:1049D0002830310558F041E02830310509F040E039
:1049E0002091E8002E772093E800CECF41914093AC
:1049F000F10001972F5F3F4FE9CF8091CF028823CD
:104A000041F0853041F08091E80083FFC1CF81E023
:104A1000089582E0089583E00895FC01CB01209180
:104A2000D6023091D7022617370790F0009729F465
:104A30002091E8002E772093E80040E0009751F4A1
:104A4000411108C08091E80082FF32C080E00895E3
:104A5000C901F3CF2091CF022223B1F12530B1F16A
:104A60002091E80023FD2EC02091E80022FDEACF2E
:104A70002091E80020FFE2CF2091F2003091F30076
:104A8000009719F02830310558F041E02830310501
:104A900009F040E02091E8002E772093E800CECF87
:104AA00044914093F100319601972F5F3F4FE8CF3B
:104AB0008091CF02882341F0853041F08091E80059
:104AC00083FFC0CF81E0089582E0089583E00895D8
:104AD000982F973028F08F708093E90081E0089537
:104AE0009093E900242F762F50E0981731F07091C1
:104AF000EC002091ED005091F00021FD02C09F5F7D
:104B0000E8CF3091EB003E7F3093EB003091ED0029
:104B10003D7F3093ED003091EB0031603093EB003E
:104B20007093EC002093ED005093F0002091EE0084
:104B300027FDE5CF80E008958091D00287FF13C064
:104B40008091E80082FF06C08091E8008B77809317
:104B5000E80004C08091CF028111F2CF08958091C6
:104B6000CF028823D9F38091E80080FFF8CF8091AD
:104B7000E8008E77ECCF2091E4003091E50095E6D7
:104B8000A9012091EC00822F817020FF06C0809146
:104B9000E80080FF06C080E008952091E80022FD33
:104BA0001AC08091CF02882389F0853089F08091E6
:104BB000EB0085FD0FC02091E4003091E500421725
:104BC0005307F9F29150E1F684E0089582E00895E8
:104BD00083E0089581E008950E945D260E94652685
:104BE000E0EEF0E0808181608083E8EDF0E080819C
:104BF0008F77808319BCA7EDB0E08C918E7F8C936A
:104C000080818F7E80831092D80208950F931F9326
:104C1000CF93DF930E945D260E946526C8EDD0E009
:104C200088818F77888388818068888388818F7D59
:104C30008883E7EDF0E080818068808319BC109262
:104C4000CF021092CE021092CC021092CD0200EE52
:104C500010E0F80180818B7F808388818160888368
:104C600042E060E080E00E946825E1EEF0E08081B3
:104C70008E7F8083E2EEF0E080818160808380819E
:104C800088608083F80180818E7F80838881806145
:104C90008883DF91CF911F910F910895E8EDF0E0A7
:104CA00080818F7E8083E7EDF0E08081816080836A
:104CB00081E08093D8020C940626E8EDF0E0808134
:104CC0008C7F80831092E20008951092DA00109297
:104CD000E10008951F920F920FB60F9211240BB6A8
:104CE0000F922F933F934F935F936F937F938F9385
:104CF0009F93AF93BF93EF93FF938091E10082FF67
:104D00000BC08091E20082FF07C08091E1008B7FA1
:104D10008093E1000E94D2288091DA0080FF19C0C0
:104D20008091D80080FF15C08091DA008E7F80933B
:104D3000DA008091D90080FF96C084E189BD86E1C8
:104D400089BD09B400FEFDCF81E08093CF020E94AF
:104D5000E7228091E10080FF19C08091E20080FF8E
:104D600015C08091E2008E7F8093E2008091E20086
:104D700080618093E2008091D80080628093D800A7
:104D800019BC85E08093CF020E94F9228091E10056
:104D900084FF29C08091E20084FF25C084E189BDA1
:104DA00086E189BD09B400FEFDCF8091D8008F7DDA
:104DB0008093D8008091E1008F7E8093E100809104
:104DC000E2008F7E8093E2008091E2008160809318
:104DD000E2008091CE02882309F44BC084E08093E6
:104DE000CF020E94FA228091E10083FF29C08091C6
:104DF000E20083FF25C08091E100877F8093E1007E
:104E000082E08093CF021092CE028091E1008E7FEB
:104E10008093E1008091E2008E7F8093E200809198
:104E2000E20080618093E20042E060E080E00E9466
:104E300068258091F00088608093F0000E94F8223D
:104E4000FF91EF91BF91AF919F918F917F916F9162
:104E50005F914F913F912F910F900BBE0F900FBE1E
:104E60000F901F90189519BC1092CF020E94F52246
:104E700070CF8091E30087FD02C081E0B0CF83E076
:104E8000AECF1F920F920FB60F9211240BB60F9256
:104E90002F933F934F935F936F937F938F939F9342
:104EA000AF93BF93CF93DF93EF93FF93D091E9003C
:104EB000DF708091EC00C82FC17080FDC0E81092B7
:104EC000E9008091F000877F8093F00078940E9441
:104ED00089271092E9008091F00088608093F000AB
:104EE000CD2BCF70C093E900FF91EF91DF91CF916F
:104EF000BF91AF919F918F917F916F915F914F91F2
:104F00003F912F910F900BBE0F900FBE0F901F90EF
:104F100018951F93CF93DF93CDB7DEB7AA970FB63F
:104F2000F894DEBF0FBECDBF80ED92E0FC0101968C
:104F30002091F100208322E0883D9207B9F70E947A
:104F400010238091E80083FF15C18091D0029091D9
:104F5000D1029A3008F00EC1E92FF0E0E655F54D88
:104F60000C94332A803881F0823809F003C1809193
:104F7000D4028F708093E9008091EB0085FB882735
:104F800080F91092E90006C08091CD029091CC0288
:104F9000911182609091E800977F9093E800809350
:104FA000F1001092F1008091E8008E77DFC0882335
:104FB00009F4CDC0823009F0DDC08091D2028111A8
:104FC000D0C08091D4028F7009F4D4C08093E900DE
:104FD0002091EB0020FFC5C0933031F48091EB00AD
:104FE00080628093EB00BDC09091EB009061909344
:104FF000EB0021E030E001C0220F8A95EAF7209310
:10500000EA001092EA008091EB008860EACF8111FB
:10501000B1C01091D2021F778091E3008078812B7C
:105020008093E3008091E800877F8093E8000E94EE
:105030009C258091E80080FFFCCF8091E300806890
:105040008093E30082E0111183E08093CF0292C04D
:105050008058823008F08EC08091D2029091D302A5
:105060008C3D23E0920799F583E08A838AE2898365
:105070004FB7F894DE01139620E03EE051E2E32FB3
:10508000F0E050935700849120FF03C082958F7009
:105090003F5F8F708A30C8F0895C90E08D939D935C
:1050A0002F5F243161F74FBF8091E800877F8093A5
:1050B000E8006AE270E0CE0101960E94B32480917C
:1050C000E8008B778093E80055C0805DE6CFAE01A5
:1050D0004F5F5F4F6091D4020E94F823BC01892B7F
:1050E00009F448C08091E800877F8093E8008981B7
:1050F0009A810E940D25E3CF8038E1F58091E80088
:10510000877F8093E8008091CE028093F1004BCF9F
:10511000811130C09091D202923060F58091E80008
:10512000877F8093E8009093CE020E949C25809117
:10513000CE02882311F084E005C08091E30087FD52
:10514000FACF81E08093CF020E94FC2213C08091AD
:10515000D202813079F481E0933009F080E08093CD
:10516000CC021092E9008091E800877F8093E800EC
:105170000E949C258091E80083FF0AC08091E8008E
:10518000877F8093E8008091EB0080628093EB0042
:10519000AA960FB6F894DEBF0FBECDBFDF91CF91B8
:1051A0001F9108950895CF938091CF028823A1F095
:1051B000C091E900CF709091EC00892F817090FD33
:1051C00080E8C82B1092E9008091E80083FD0E94DE
:1051D0008927CF70C093E900CF9108950E94F528E8
:1051E0006894B1110C94842908950E94692988F06B
:1051F0009F5798F0B92F9927B751B0F0E1F0660F9B
:10520000771F881F991F1AF0BA95C9F714C0B130DB
:1052100091F00E948329B1E008950C948329672FAF
:10522000782F8827B85F39F0B93FCCF3869577950A
:105230006795B395D9F73EF49095809570956195F3
:105240007F4F8F4F9F4F0895E89409C097FB3EF41E
:1052500090958095709561957F4F8F4F9F4F9923C3
:10526000A9F0F92F96E9BB279395F6958795779541
:105270006795B795F111F8CFFAF4BB0F11F460FF01
:105280001BC06F5F7F4F8F4F9F4F16C0882311F059
:1052900096E911C0772321F09EE8872F762F05C06D
:1052A000662371F096E8862F70E060E02AF09A9508
:1052B000660F771F881FDAF7880F9695879597F9FD
:1052C000089557FD9058440F551F59F05F3F71F0F6
:1052D0004795880F97FB991F61F09F3F79F087955D
:1052E0000895121613061406551FF2CF4695F1DFE6
:1052F00008C0161617061806991FF1CF8695710576
:10530000610508940895E894BB2766277727CB01A9
:1053100097F908950E949D290C940E2A0E94002A54
:1053200038F00E94072A20F0952311F00C94F729F9
:105330000C94FD2911240C9484290E94612970F396
:10534000959FC1F3950F50E0551F629FF001729F2A
:10535000BB27F00DB11D639FAA27F00DB11DAA1F39
:10536000649F6627B00DA11D661F829F2227B00D86
:10537000A11D621F739FB00DA11D621F839FA00D11
:10538000611D221F749F3327A00D611D231F849F61
:10539000600D211D822F762F6A2F11249F575040B8
:1053A0009AF0F1F088234AF0EE0FFF1FBB1F661F33
:1053B000771F881F91505040A9F79E3F510580F0FC
:1053C0000C94F7290C9484295F3FE4F3983ED4F3BE
:1053D000869577956795B795F795E7959F5FC1F7A0
:1053E000FE2B880F911D9695879597F9089597F94B
:1053F0009F6780E870E060E008959FEF80EC08957B
:1054000000240A94161617061806090608950024A3
:105410000A9412161306140605060895092E03941D
:10542000000C11F4882352F0BB0F40F4BF2B11F491
:1054300060FF04C06F5F7F4F8F4F9F4F089597FBB2
:10544000072E16F4009407D077FD09D00E943C2A5D
:1054500007FC05D03EF4909581959F4F0895709577
:1054600061957F4F0895EE0FFF1F0024001C0BBEB7
:105470000790F691E02D0994AA1BBB1B51E107C0D0
:10548000AA1FBB1FA617B70710F0A61BB70B881FD4
:10549000991F5A95A9F780959095BC01CD01089563
:1054A000F999FECF92BD81BDF89A992780B50895EC
:1054B000A8E1B0E042E050E00C94782A262FF99958
:1054C000FECF92BD81BDF89A019700B4021639F063
:1054D0001FBA20BD0FB6F894FA9AF99A0FBE089534
:1054E0000196272F0E945F2A0C945E2ADC01CB01D3
:1054F000FC01F999FECF06C0F2BDE1BDF89A3196E4
:1055000000B40D9241505040B8F70895F894FFCF81
:10551000460C520C560C5A0C5E0C620C660C6A0C53
:105520006E0C720C760C7A0C7E0C820C860C8A0C3B
:105530008E0C920C66136613BE13BE1302141E1457
:105540009613961329149613F514F51460159613F3
:1055500096136915B227D727BA28D727BA2807285C
:085560002828BA287C288828BD
:1055680076022808140A321E0422942271223A2252
:1055780007220166656463626160C1C097F395F1B3
:105588009392919037C6C730313233343536404D17
:1055980036394316F615C01587151A1533154C15E7
:0255A800651587
:00000001FF
