:100000000C94AC060C94F3060C94F3060C94F306D3
:100010000C94F3060C94F3060C94F3060C94F3067C
:100020000C94F3060C94F3060C941C210C94EF2111
:100030000C9431180C94F3060C94F3060C94F3060C
:100040000C94F3060C94F3060C94F3060C94F3064C
:100050000C94F3060C9492180C94F3060C94F3068B
:100060000C94F3060C94F3060C94F3060C94F3062C
:100070000C94F3060C94F3060C94F3060C94F3061C
:100080000C94F3060C94F3060C94F3060C94F3060C
:100090000C94F3060C94F3060C94F3060C94F306FC
:1000A0000C94F3060C94F3060C94F3063A00440007
:1000B0003C004E003E00400042004D003B00450029
:1000C0003D004B003F0041004300E00029001E00BE
:1000D0002B0014000400E000E10031001F002000AC
:1000E0001A000800160007001D001B002100220056
:1000F0001500170009000A0019000600230024005B
:100100001C0018000B00050011002C002500260023
:100110000C0012000D000E003600100027002D000C
:10012000130050000F0033003700E4002E0052008F
:100130002F0030004F0034003800E3002A00510047
:100140004A002800350064004600E6004C00E2004A
:10015000000000000000000000000000010001009D
:100160000100010001000100010001000100010087
:100170000100010001000100010001000100010077
:100180000100010001000100010001000100010067
:100190000100010001000100010001000100010057
:1001A0000100010001000100010001000100010047
:1001B0000100010001000100010001000100010037
:1001C0000100010001000100010001000100010027
:1001D0000100010001000100010001000100010017
:1001E0000100010001000100010001000100010007
:1001F00001000100010001000100010001000100F7
:1002000000000000000000000000000001000100EC
:1002100001000100010001000100010001000100D6
:1002200001000100010001000100010001000100C6
:1002300001000100010001000100010001000100B6
:1002400001000100010001000100010001000100A6
:100250000100010001000100010001000100010096
:100260000100010001000100010001000100010086
:100270000100010001000100010001000100010076
:100280000100010001000100010001000100010066
:100290000100010001000100010001000100010056
:1002A0000100010001000100010001000100010046
:1002B000000000000000000000000000010001003C
:1002C0000100010001000100010001000100010026
:1002D0000100010001000100010001000100010016
:1002E0000100010001000100010001000100010006
:1002F00001000100010001000100010001000100F6
:1003000001000100010001000100010001000100E5
:1003100001000100010001000100010001000100D5
:1003200001000100010001000100010001000100C5
:1003300001000100010001000100010001000100B5
:1003400001000100010001000100010001000100A5
:100350000100010001000100010001000100010095
:10036000000000000000000000000000010001008B
:100370000100010001000100010001000100010075
:100380000100010001000100010001000100010065
:100390000100010001000100010001000100010055
:1003A0000100010001000100010001000100010045
:1003B0000100010001000100010001000100010035
:1003C0000100010001000100010001000100010025
:1003D0000100010001000100010001000100010015
:1003E0000100010001000100010001000100010005
:1003F00001000100010001000100010001000100F5
:1004000001000100010001000100010001000100E4
:1004100000000000000000000000000001000100DA
:1004200001000100010001000100010001000100C4
:1004300001000100010001000100010001000100B4
:1004400001000100010001000100010001000100A4
:100450000100010001000100010001000100010094
:100460000100010001000100010001000100010084
:100470000100010001000100010001000100010074
:100480000100010001000100010001000100010064
:100490000100010001000100010001000100010054
:1004A0000100010001000100010001000100010044
:1004B0000100010001000100010001000100010034
:1004C000000000000000000000000000010001002A
:1004D0000100010001000100010001000100010014
:1004E0000100010001000100010001000100010004
:1004F00001000100010001000100010001000100F4
:1005000001000100010001000100010001000100E3
:1005100001000100010001000100010001000100D3
:1005200001000100010001000100010001000100C3
:1005300001000100010001000100010001000100B3
:1005400001000100010001000100010001000100A3
:100550000100010001000100010001000100010093
:100560000100010001000100010001000100010083
:100570000000000000000000000000000100010079
:100580000100010001000100010001000100010063
:100590000100010001000100010001000100010053
:1005A0000100010001000100010001000100010043
:1005B0000100010001000100010001000100010033
:1005C0000100010001000100010001000100010023
:1005D0000100010001000100010001000100010013
:1005E0000100010001000100010001000100010003
:1005F00001000100010001000100010001000100F3
:1006000001000100010001000100010001000100E2
:1006100001000100010001000100010001000100D2
:1006200000000000000000000000000001000100C8
:1006300001000100010001000100010001000100B2
:1006400001000100010001000100010001000100A2
:100650000100010001000100010001000100010092
:100660000100010001000100010001000100010082
:100670000100010001000100010001000100010072
:100680000100010001000100010001000100010062
:100690000100010001000100010001000100010052
:1006A0000100010001000100010001000100010042
:1006B0000100010001000100010001000100010032
:1006C0000100010001000100010001000100010022
:1006D0000000000000000000000000000100010018
:1006E0000100010001000100010001000100010002
:1006F00001000100010001000100010001000100F2
:1007000001000100010001000100010001000100E1
:1007100001000100010001000100010001000100D1
:1007200001000100010001000100010001000100C1
:1007300001000100010001000100010001000100B1
:1007400001000100010001000100010001000100A1
:100750000100010001000100010001000100010091
:100760000100010001000100010001000100010081
:100770000100010001000100010001000100010071
:100780000000000000000000000000000100010067
:100790000100010001000100010001000100010051
:1007A0000100010001000100010001000100010041
:1007B0000100010001000100010001000100010031
:1007C0000100010001000100010001000100010021
:1007D0000100010001000100010001000100010011
:1007E0000100010001000100010001000100010001
:1007F00001000100010001000100010001000100F1
:1008000001000100010001000100010001000100E0
:1008100001000100010001000100010001000100D0
:1008200001000100010001000100010001000100C0
:1008300000000000000000000000000001000100B6
:1008400001000100010001000100010001000100A0
:100850000100010001000100010001000100010090
:100860000100010001000100010001000100010080
:100870000100010001000100010001000100010070
:100880000100010001000100010001000100010060
:100890000100010001000100010001000100010050
:1008A0000100010001000100010001000100010040
:1008B0000100010001000100010001000100010030
:1008C0000100010001000100010001000100010020
:1008D0000100010001000100010001000100010010
:1008E0000000000000000000000000000100010006
:1008F00001000100010001000100010001000100F0
:1009000001000100010001000100010001000100DF
:1009100001000100010001000100010001000100CF
:1009200001000100010001000100010001000100BF
:1009300001000100010001000100010001000100AF
:10094000010001000100010001000100010001009F
:10095000010001000100010001000100010001008F
:10096000010001000100010001000100010001007F
:10097000010001000100010001000100010001006F
:10098000010001000100010001000100010001005F
:100990000000000000000000000000000100010055
:1009A000010001000100010001000100010001003F
:1009B000010001000100010001000100010001002F
:1009C000010001000100010001000100010001001F
:1009D000010001000100010001000100010001000F
:1009E00001000100010001000100010001000100FF
:1009F00001000100010001000100010001000100EF
:100A000001000100010001000100010001000100DE
:100A100001000100010001000100010001000100CE
:100A200001000100010001000100010001000100BE
:100A300001000100010001000100010001000100AE
:100A400000000000000000000000000001000100A4
:100A5000010001000100010001000100010001008E
:100A6000010001000100010001000100010001007E
:100A7000010001000100010001000100010001006E
:100A8000010001000100010001000100010001005E
:100A9000010001000100010001000100010001004E
:100AA000010001000100010001000100010001003E
:100AB000010001000100010001000100010001002E
:100AC000010001000100010001000100010001001E
:100AD000010001000100010001000100010001000E
:100AE00001000100010001000100010001000100FE
:100AF00000000000000000000000000001000100F4
:100B000001000100010001000100010001000100DD
:100B100001000100010001000100010001000100CD
:100B200001000100010001000100010001000100BD
:100B300001000100010001000100010001000100AD
:100B4000010001000100010001000100010001009D
:100B5000010001000100010001000100010001008D
:100B6000010001000100010001000100010001007D
:100B7000010001000100010001000100010001006D
:100B8000010001000100010001000100010001005D
:100B9000010001000100010001000100010001004D
:100BA00000000000000000000000000012036B00C5
:100BB0006500790062006F0061007200640000004F
:100BC000160371006D006B006200750069006C0017
:100BD00064006500720000000403090409026D004E
:100BE000040100A0FA090400000103010100092129
:100BF000110100012240000705810308000A0904D1
:100C000001000103010200092111010001224D0030
:100C10000705820308000A0904020001030000001E
:100C20000921110100012236000705830308000A8B
:100C30000904030001030000000921110100012241
:100C40003900070584032000011201100100000093
:100C500008EDFE606001000102000105010906A126
:100C600001050719E029E71500250195087501819F
:100C7000020508190129059505750191029501756F
:100C80000391010507190029F71500250195F8754D
:100C9000018102C005010980A1018502160100261B
:100CA00003001A81002A8300751095018100C00598
:100CB0000C0901A1018503160100269C021A0100FE
:100CC0002A9C02751095018100C005010902A1014D
:100CD0000901A1000509190129051500250195053E
:100CE0007501810295017503810105010930093102
:100CF0001581257F95027508810609381581257FA4
:100D0000950175088106050C0A38021581257F9525
:100D10000175088106C0C005010906A10105071972
:100D2000E029E715002501950875018102950175F7
:100D3000088101050819012905950575019102959C
:100D400001750391010507190029FF150026FF0011
:100D5000950675088100C00011241FBECFEFDAE0B0
:100D6000DEBFCDBF04B603FE27C080915402909130
:100D70005502A0915602B09157028730904BA74080
:100D8000B04BD1F4109254021092550210925602B8
:100D90001092570214BE84B7877F84BF0FB6F894B1
:100DA000A895809160008861809360001092600037
:100DB0000FBEE0E0F8E3099511E0A0E0B1E0E8EB58
:100DC000FAE402C005900D92AA33B107D9F722E0E8
:100DD000AAE3B1E001C01D92A435B207E1F70E9479
:100DE000721E0C942E250C94000090E080E0089573
:100DF0000895089581E00895089581E008950C9480
:100E0000FA060E9484102FEF84E39CE0215080407A
:100E10009040E1F700C000000C94B518EF92FF92EB
:100E20000F931F93CF93DF938C01FC01E080F1803F
:100E300080917701811140C082818823C1F1C7016F
:100E40000E940816C82F682FC7010E94B215B7016B
:100E50008C2F0E944608EC01B8010E94FF068823EF
:100E600009F44BC0B801CE010E94500A882309F44E
:100E700044C0C531F0E7DF0720F5C23080E7D8076E
:100E800008F04DC0C115E0E7DE0791F1C130D04751
:100E9000E1F181E080933C0180933D01C801DF9145
:100EA000CF911F910F91FF90EF900C94FD06C70119
:100EB0000E94DF15C82FCBCFC7010E940816B701CB
:100EC000C8CFCC3380E7D80709F49BC0CD33D047D7
:100ED00001F7F8018281882309F4BAC010923D011C
:100EE0000E94611890933B0180933A0180E296C082
:100EF000F801828181110E94010780E0DF91CF918A
:100F00001F910F91FF90EF900895F801828188233F
:100F1000A1F380911402816080931402EECFF80156
:100F20008281882309F4BACF0E94C317811102C0BD
:100F30000E94A9170E94E01790E0909346028093C8
:100F40004502FE01E350F047809145028160E231A5
:100F5000F10538F4E05DFA4D0C94DE2480914502F1
:100F6000826080934502809145020E94E4170E94AE
:100F70008410C3CF809145028460F3CF80914502F5
:100F80008860EFCF809145028061EBCF8091450270
:100F90008062E7CF809145028064E3CF8091450273
:100FA0008068DFCF809145028C60DBCF8091450265
:100FB0008E7FD7CF809145028D7FD3CF8091450220
:100FC0008B7FCFCF80914502877FCBCF8091450229
:100FD0008F7EC7CF809145028F7DC3CF8091450220
:100FE0008F7BBFCF809145028F77BBCF8091450229
:100FF000837FB7CF90914502892F97FB87F980585F
:10100000B0CFF8018281882361F010923C010E94E8
:10101000611890933B0180933A0182E00E94E90DB0
:101020006CCF80913C0181110FC080913A01909169
:101030003B010E946D18883C910530F486E20E94C5
:10104000BE0C86E20E949A0D82E00E94F00D55CF00
:1010500080913D0181110FC080913A0190913B0137
:101060000E946D18883C910530F487E20E94BE0C06
:1010700087E20E949A0D80E2E8CF0C949F0A0C94BC
:10108000A10A0C94FC060C9441080895E72FF0E0A7
:101090009BE0899FE00DF11D112483E0EE0FFF1FFF
:1010A0008A95E1F7E60FF11DEE0FFF1FE455FF4FA4
:1010B000859194910895FC01EE0FFF1FE455F44FC4
:1010C0008591949108950E9446080E94D4099C013C
:1010D000811540E4940708F097C0211580E3380794
:1010E00008F0FAC0203E310508F074C0203C3105FC
:1010F00008F0E5C0283A310588F4253A310508F0B2
:10110000E2C02130310509F477C0C9010497813A62
:10111000910508F471C030E020E06EC0C901885A22
:1011200091094597C0F7283A310509F4FEC0293ADC
:10113000310509F4FDC02A3A310509F4FCC02B3A07
:10114000310509F4FBC02C3A310509F4FAC02B3BF8
:10115000310509F4F9C02C3B310509F4F8C02D3AEA
:10116000310509F4F7C0203B310509F4F6C02E3AE9
:10117000310509F4F5C02F3A310509F4F4C0213BDB
:10118000310509F4F3C0223B310509F4F2C0233BD9
:10119000310509F4F1C0243B310509F4F0C0253BC9
:1011A000310509F4EFC0263B310509F4EEC0273BB9
:1011B000310509F4EDC0283B310509F4ECC0293BA9
:1011C000310509F4EBC02A3B310509F4EAC020E0FF
:1011D00034E412C0211590E2390780F42F3F310525
:1011E00009F050F4283E310538F0C901805F9109BB
:1011F0003065409708F08FCFC9010895C9019F70ED
:101200000E945B089C01F8CF8115944508F041C00D
:10121000211583E5380708F06AC0211592E53907E2
:1012200038F5211541E5340708F05CC0211580E54B
:10123000380708F454C0C90134E0969587953A956B
:10124000E1F78370422F46954695437090E2499F9F
:10125000A0011124582B822F837021E030E002C0BE
:10126000220F331F8A95E2F7242B352B3C68C4CF1D
:10127000C9018370992741E050E002C0440F551F17
:101280008A95E2F72695269580E2289F9001112401
:10129000EBCF211596E5390748F4922F88272115C1
:1012A0003545C8F59C01246F306AA6CFC901905618
:1012B0003F708115904108F02ECF30629DCFC9015B
:1012C000805C91099DCF253A310549F1263A3105D7
:1012D00049F522E830E490CF3327306C8DCF3F7052
:1012E000306A8ACF322F2227216F306A85CFC90119
:1012F0008370992741E050E002C0440F551F8A9542
:10130000E2F72695269580E2289F90011124242B50
:10131000352B3A6871CF88279F719C01CECF21E889
:1013200030E46ACF23E830E467CF22EE34E464CFC0
:1013300029EE34E461CF2AEE34E45ECF25EB34E4C9
:101340005BCF26EB34E458CF23EB34E455CF24EBCA
:1013500034E452CF27EB34E44FCF2CEC34E44CCFC1
:101360002DEC34E449CF23E835E446CF2AE835E4D0
:1013700043CF22E935E440CF24E935E43DCF21E2F3
:1013800036E43ACF23E236E437CF24E236E434CFF2
:1013900025E236E431CF26E236E42ECF27E236E4EA
:1013A0002BCF2AE236E428CF803E910581F1C8F4A4
:1013B0008133910509F462C048F48932910509F43A
:1013C00056C08A32910509F460C0089589339105A9
:1013D000B9F082389105A1F08533910509F440C038
:1013E0000895863E910561F138F4823E9105B1F091
:1013F000833E9105E1F00895873E910551F10895EE
:10140000209145022370D9F080EE90E0089520915C
:10141000450220FF14C089E390E008952091450221
:1014200022FF0DC024FD09C083EE90E008952091B5
:10143000450222FD31C024FF02C090E080E0089503
:101440002091450223FFFBCF24FDF7CF87EE90E0EC
:1014500008952091450223FFEECF86EE90E0089597
:101460002091450225FFEBCF89E290E0089520917D
:10147000450225FFE4CF85E390E0089520914502E1
:1014800026FFDDCF8AE290E008952091450226FFF5
:10149000D6CF81E390E0089582EE90E0089508951C
:1014A0000F931F93CF938C01FB018281811106C0A2
:1014B000C1E08C2FCF911F910F910895C0914B01E6
:1014C000C11125C00531104799F70E944F0A81E0EC
:1014D00080934B010E94611890934A0180934901C7
:1014E00010923E011092400110923F011092420171
:1014F0001092410110924401109243011092460152
:10150000109245011092480110924701D2CF80916C
:10151000490190914A010E946D18883C910540F65E
:1015200080913E01E82FF0E0EE0FFF1FE15CFE4FDF
:10153000118300838F5F80933E01C0E0BACF0C948B
:10154000F8060C94F90685B7806885BF85B7806872
:1015500085BFABE1B1E061E070E08D91E82FE295ED
:10156000EF70F0E041A18F709B0101C0220F8A95BE
:10157000EAF7922F9095942391A382A1822B82A3C4
:1015800081E0A632B80749F7A3E1B1E061E070E07D
:101590008D91E82FE295EF70F0E041A18F709B01F3
:1015A00001C0220F8A95EAF7922F9095942391A378
:1015B00082A1822B82A381E0AB31B80749F7E7E52E
:1015C000F1E0ACE4B1E082E691E011921D928E1759
:1015D0009F07D9F70C943D084F925F926F927F92CC
:1015E0008F929F92AF92BF92CF92DF92EF92FF9233
:1015F0000F931F93CF93DF930CE411E08BE1C82E80
:1016000081E0D82E2801EE24E394F12CBB24B3947E
:10161000D2019D902D011E92E60189916E01E82F65
:10162000E295EF70F0E091A18F70970101C0220F59
:101630008A95EAF7892F822B81A382A1822E80943A
:10164000882182A3D0EADA95F1F763E171E090E0B6
:1016500080E0EB01A990BE014A2D42954F7050E009
:10166000EA0168A07C905A2D5F70E70102C0CC0FA0
:10167000DD1F5A95E2F7AE01462109F04FC04E2D0D
:10168000082E01C0440F0A94EAF747294C930196AB
:1016900088309105F1F681A1882181A382A1282BB0
:1016A00022A38C91981641F0B09262010E946118B9
:1016B0009093640180936301D7E54D16D1E05D06F8
:1016C00009F0A6CF809162018823A1F08091630187
:1016D000909164010E946D18069760F0E7E5F1E0D3
:1016E000D8018D918D018193B1E007351B07C1F7BA
:1016F000109262010E943F0881E0DF91CF911F911B
:101700000F91FF90EF90DF90CF90BF90AF909F90A0
:101710008F907F906F905F904F90089540E0B5CF8D
:10172000E82FF0E0E95AFE4F8081089508959093E4
:101730006A01809369010895E0916901F0916A015D
:10174000309721F00190F081E02D099480E0089518
:10175000E0916901F0916A01309721F00280F381F4
:10176000E02D09940895E0916901F0916A013097A4
:1017700021F00480F581E02D0994089520916701FE
:10178000309168012817390771F0909368018093B0
:101790006701E0916901F0916A01309721F00680BC
:1017A000F781E02D0994089520916501309166013B
:1017B0002817390771F09093660180936501E091D5
:1017C0006901F0916A01309721F00084F185E02DE4
:1017D0000994089508950C94EA0B0E9458180E94E9
:1017E000A30A0C941A19BF92CF92DF92EF92FF9244
:1017F0000F931F93CF93DF9300D000D00F92CDB7FC
:10180000DEB70E94EC0A8CE6C82E81E0D82E10E0EC
:1018100000E0E02E802F0E94900BB82EF601F19090
:101820006F01F81609F45BC08091140281FD0E94DB
:10183000960B30E020E0FB244F2D50E0922FBA01B0
:10184000022E02C0759567950A94E2F760FF41C0C9
:101850002983EA8221E030E0790102C0EE0CFF1C0E
:101860009A95E2F72B2D30E02E213F2181E0232BAA
:1018700009F480E08B830E9461188160782F9D833A
:101880008C8349815A816B818D810E94950CF8016E
:10189000E459FE4F80818E2580830E94C71B0E94E1
:1018A0009C0B90916B01891789F10E949C0B80938E
:1018B0006B010F900F900F900F900F90DF91CF91D1
:1018C0001F910F91FF90EF90DF90CF90BF900C94FD
:1018D00043082F5F3F4F2830310509F0AFCF0F5F2E
:1018E0001F4F0B30110509F094CF8FEF89838A8346
:1018F0001B820E9461188160782F9D838C834981AF
:101900005A816B818D810E94950CC7CF0F900F90EB
:101910000F900F900F90DF91CF911F910F91FF903B
:10192000EF90DF90CF90BF900895CF93DF93CDB726
:10193000DEB72B970FB6F894DEBF0FBECDBF4F8337
:10194000588769877A878B871E8285E0FE013796E4
:10195000DE01119601900D928A95E1F749815A8135
:101960006B817C818D819E812B960FB6F894DEBFB2
:101970000FBECDBFDF91CF910C940C13882309F4D7
:10198000D8C0823871F40E949C0B81FDD2C089E3DB
:101990000E94B0160E947A1789E30E94ED160C94FB
:1019A0007A17833859F40E949C0B80FDC2C083E5EE
:1019B0000E94B0160E947A1783E5EFCF843859F45D
:1019C0000E949C0B82FDB5C087E40E94B0160E9465
:1019D0007A1787E4E2CF9CEF980F913A18F40E94AF
:1019E000B016DDCF90E2980F983050F4877091E0F8
:1019F00001C0990F8A95EAF7892F0E943117CFCF3E
:101A00009BE5980F933070F4853A31F0863A39F0BF
:101A100083E890E00C94BE0B81E890E0FBCF82E875
:101A200090E0F8CF98E5980F953108F082C0883A99
:101A300009F440C0893A09F440C08A3A09F440C028
:101A40008B3A09F440C08C3A09F440C08B3B09F44E
:101A500040C08C3B09F440C08D3A09F440C0803B43
:101A600009F440C08E3A09F440C08F3A09F440C0EE
:101A7000813B09F440C0823B09F440C0833B09F438
:101A800040C0843B09F440C0853B09F440C0863B1C
:101A900009F440C0873B09F440C0883B09F440C0CA
:101AA000893B09F440C08A3B09F440C090E080E0E3
:101AB0000C94D40B82EE90E0FBCF89EE90E0F8CF4F
:101AC0008AEE90E0F5CF85EB90E0F2CF86EB90E0E8
:101AD000EFCF83EB90E0ECCF84EB90E0E9CF87EBA6
:101AE00090E0E6CF8CEC90E0E3CF8DEC90E0E0CF9F
:101AF00083E891E0DDCF8AE891E0DACF82E991E0F6
:101B0000D7CF84E991E0D4CF81E292E0D1CF83E2D4
:101B100092E0CECF84E292E0CBCF85E292E0C8CFD4
:101B200086E292E0C5CF87E292E0C2CF8AE292E0FD
:101B3000BFCF0895882309F44BC0823871F40E9406
:101B40009C0B81FF45C089E30E94B0160E947A1762
:101B500089E30E94ED160C947A17833859F40E9499
:101B60009C0B80FF35C083E50E94B0160E947A1757
:101B700083E5EFCF843859F40E949C0B82FF28C084
:101B800087E40E94B0160E947A1787E4E2CF9CEFA8
:101B9000980F913AF0F290E2980F983050F48770D5
:101BA00091E001C0990F8A95EAF7892F0E943717B3
:101BB000D2CF9BE5980F933020F490E080E00C9416
:101BC000BE0B885A853120F490E080E00C94D40B51
:101BD0000895882321F00E9431170C947A170895F4
:101BE000882321F00E9437170C947A1708958F925A
:101BF0009F92AF92BF92DF92EF92FF920F931F934B
:101C0000CF93DF9300D000D00F92CDB7DEB77C0129
:101C10006D837983FC01058102950F70128111118A
:101C20000E9450170E94A916D82E882371F0112304
:101C3000A1F08D81805E883080F082E00E94931652
:101C40000E94A91691E0D82ED926E981E295EF707D
:101C5000F0E0EE5BFA4D0C94DE24D12CF6CF098136
:101C60000F70F981F07F11F00295007F1123B1F020
:101C7000002361F08D81805E883018F02D81211164
:101C800009C0802F0E9431170E947A178D810E940F
:101C9000BE0C15C0802F0E944217F6CF8D810E9486
:101CA0009A0D002361F08D81805E883018F03D81AF
:101CB000311129C0802F0E9437170E947A17DD202A
:101CC00009F4D3C10E94861680FDCFC1F7011282AC
:101CD0000E9480160E94CA14C7010E9446100E94EA
:101CE00080160F900F900F900F900F90DF91CF9173
:101CF0001F910F91FF90EF90DF90BF90AF909F905A
:101D00008F900C94EC14802F0E944817D6CF4981F5
:101D10004F70B42E5981507F503219F0B29480EF39
:101D2000B8228D81882369F0813029F1112369F16E
:101D3000002359F0F701858180FFA8CF8F7085833C
:101D400004C0112361F0011104C08B2D0E94E90D24
:101D5000B6CF8B2D0130D1F70E946417B0CF01119F
:101D600006C00E9467178B2D0E94F00DA8CF01308E
:101D700009F4A5CFF6CF112321F0063008F09FCF4C
:101D8000E4CF053008F09BCFEECF002361F38D81C7
:101D90000E949A0D94CF898186958695837069F00B
:101DA000813009F08CCF8D8199819370111102C01F
:101DB00090E080E00E94D40B82CF8D819981937056
:101DC000111102C090E080E00E94BE0B78CF8D819F
:101DD000112329F00E94D51A0E94BC1B70CF0E94CB
:101DE0003D1BFACF8981837009F05FC0111167CF65
:101DF0002D81229526952770220F220F8D818F70BD
:101E000090E0B0E0A0E04C015D01022E04C0880C1F
:101E1000991CAA1CBB1C0A94D2F7FD8160E070E0FB
:101E2000CB01F4FF0FC06FE070E080E090E004C0F1
:101E3000660F771F881F991F2A95D2F760957095B6
:101E40008095909529812695269523702D832230A3
:101E5000B1F0233019F19B01AC01282939294A2915
:101E60005B2929833A834B835C833D8169817A8135
:101E70008B819C813130B1F00E94571420CF9B019F
:101E8000AC01282939294A295B2929833A834B83C4
:101E90005C83CA01B9010E94811411CF0E945714BA
:101EA000C501B4010E942D140ACF8695112311F0AB
:101EB00089818170882309F402CF2D81229526958E
:101EC0002770220F220F8D818F7090E0B0E0A0E08C
:101ED0004C015D01022E04C0880C991CAA1CBB1C7D
:101EE0000A94D2F73D8160E070E0CB0134FF0FC06F
:101EF0006FE070E080E090E004C0660F771F881FFD
:101F0000991F2A95D2F76095709580959095498193
:101F10004695469543704D834230B1F0433019F1F8
:101F20009B01AC01282939294A295B2929833A8355
:101F30004B835C833D8169817A818B819C813130C7
:101F4000B1F00E945D15BBCE9B01AC012829392957
:101F50004A295B2929833A834B835C83CA01B901EF
:101F60000E948715ACCE0E945D15C501B4010E9488
:101F70003315A5CE3D81323F09F447C080F4303F90
:101F800079F1313FD9F1832F805E8031D0F0112378
:101F900009F456C001117ACE89818F7133C04D8109
:101FA000433FD1F1443F99F7112309F43FC08981A0
:101FB0008F7189830E94CA1463E089810E948A1606
:101FC0007ECE5D815F705D8389818F71112321F0E9
:101FD0000E94CA148D81BACE0E94EC148D81C4CEA9
:101FE000112341F0053008F06ACE89818F710E947B
:101FF000111565CE063008F062CEF7CF89818F715A
:10200000112339F00E94CA145ACE89818F7111238D
:10201000C9F30E94EC1453CE112329F089818F71EA
:102020000E94B5144CCE0E94AB1449CE81E00E94B0
:102030009316023008F443CE82E00E9493163FCEFE
:102040000111A5CE89818F71E4CF49814F706D81D7
:10205000C7010E94F5060E94A61331CE49814F7038
:102060006D81C7010E9445082ACE0F900F900F90F6
:102070000F900F90DF91CF911F910F91FF90EF90F4
:10208000DF90BF90AF909F908F9008950F931F9314
:10209000CF93DF93EC018B819C81892B29F0888180
:1020A000998189238F3F29F4DF91CF911F910F915F
:1020B0000895CE010E940E078823B1F368817981CB
:1020C0008A810E9456168C010E94B1150E9422142A
:1020D000B801CE01DF91CF911F910F910C94F70DB4
:1020E0000E9450170E9461170E9423170E947A17BE
:1020F0000E94AD1C0E94BC1B90E080E00E94BE0BC1
:1021000090E080E00C94D40B0E943F170C94701068
:102110000E944A16282F892F82958F70903C80F458
:102120008A30B0F4843020F4823090F480E0089556
:102130008630E1F781E0203E88F0213FB9F70EC0FC
:102140008C3011F08F3091F793FB882780F9089538
:1021500081E0203F39F018F4203E40F70895243FF5
:1021600029F7FCCF0895CF93DF9300D000D00F92D2
:10217000CDB7DEB70F900F900F900F900F90DF91BB
:10218000CF910895CF93DF9300D000D000D0CDB78A
:10219000DEB726960FB6F894DEBF0FBECDBFDF9137
:1021A000CF9108951F93CF93DF93E091780116E0CC
:1021B000809179018E1304C0DF91CF911F91089512
:1021C000CE2FD0E01E9FF0011124E658FE4F408133
:1021D000518162817381848195810E94C210FE01C8
:1021E0003196E770E5CF4091AA015091AB01609123
:1021F000AC017091AD018091AE019091AF010C9452
:10220000C2101F93CF93DF938091AF01807FC1F401
:102210008091AC018823A1F080917801C09179016F
:102220006091AA017091AB014091AD015091AE0156
:10223000D62FD723DA01A095B09516E0C81304C0B5
:10224000DF91CF911F91089590E04115510511F054
:10225000DF3F31F401968770F1CF2A0F3B1F17C083
:10226000189FF001199FF00D1124E658FE4F2181AF
:102270002713F0CF20812613EDCF22812111EACF41
:10228000238134812417350740F3241B350B283C68
:10229000310500F72091AF012F7020612093AF012D
:1022A00026E0289FF001299FF00D1124E158FE4FF0
:1022B00080818F70806180838AEA91E00E9446105D
:1022C000DF91CF911F910C94D2109F92AF92BF9249
:1022D000CF92DF92EF92FF920F931F93CF93DF93F2
:1022E000CDB7DEB72B970FB6F894DEBF0FBECDBFCC
:1022F0008C0185E0F801DE01179601900D928A9518
:10230000E1F7D8014C9111965C9111971296EC90DF
:1023100012978091AD019091AE01009709F46BC1C5
:102320002091AA013091AB01632F62236F3F09F422
:1023300062C11396CD90DC909090AC01992009F485
:10234000F8C0C816D90608F43FC0F601E81BF90B1F
:10235000CF01FF24F394883C910508F0F12C8AEA20
:10236000A82E81E0B82E8091AF01982F907FFF209A
:1023700009F4B7C0911180C0FE2C35132AC0241374
:1023800028C0E11026C08F7080618093AF010E9449
:10239000F310C5010E9446108091AF01D801159637
:1023A0008C938F2D2B960FB6F894DEBF0FBECDBF4A
:1023B000DF91CF911F910F91FF90EF90DF90CF9021
:1023C000BF90AF909F900895809590958C0D9D1D26
:1023D000C0CFCD2829F0842F85238F3F09F019C164
:1023E00080E0B82FB170DB2EE09178012091790167
:1023F00036E080FD1CC0EE20A1F28091AF0181602B
:102400008093AF01F12CCDCF8E2F90E03E9FF00155
:102410001124E658FE4F6181651306C06081641384
:1024200003C062816E11E7CFFC013196E770E213C1
:10243000EBCF4F8358878F8198850E944A16292FAA
:1024400022952F70903260F0225F2F70223078F446
:102450009F7051F0F8019581907F31F4D12C0AC022
:102460009F7011F08823D1F3805E8830B8F3C801E3
:102470000E944610FD2C95CF351306C0241304C0CE
:10248000D801EE2009F47BC04F8358878F8198854F
:102490000E948810882309F4B8C0EE2009F4B5C062
:1024A0008091AF01803270F02091AA013091AB0190
:1024B0003A8329831B82DD82CC828E83CE010196F2
:1024C0000E94461086E0F801AAEAB1E001900D9260
:1024D0008A95E1F70E9401110E94F310FF24F39402
:1024E00060CF911113C07C2DDB86CA866E2D8B8543
:1024F0000E94B3108AEA91E00E94461086E0F5013E
:1025000011928A95E9F70E94F3104BCF3513BCCF97
:102510002413BACFE110B8CFD80115968C93C80117
:102520000E94461086E0F50111928A95E9F7F92C90
:1025300038CFC816D90688F1B601681B790BCB01D4
:10254000F12C883C910508F047C0FE2CEE2009F4E0
:102550005CC0351330C024132EC08091AF0180FDC4
:1025600021C0982F907FF1F0D80115968C93159784
:10257000903F39F0982F907F905F8F70892B159640
:102580008C93C8010E94461086E0F801AAEAB1E0E7
:1025900001900D928A95E1F7B6CF809590958C0DBC
:1025A0009D1DCECF86E0F801AAEAB1E001900D9220
:1025B0008A95E1F7F6CE4F8358878F8198850E94E0
:1025C000881081117FCF8091AF0181608093AF012E
:1025D000C8010E944610E5CE7C2DDB86CA866E2D92
:1025E0008B850E94B31086E0EAEAF1E0DF011D92DC
:1025F0008A95E9F788CFEE2041F04F8358878F8185
:1026000098850E94881081115DCFC8010E944610F4
:1026100065CF81E08E25E5CE1F93CF93DF93CDB7B5
:10262000DEB72C970FB6F894DEBF0FBECDBF4F8339
:10263000588769877A878B879C87CE0107960E9487
:102640006511882369F08A859B85892B39F04F8134
:102650005885842F85238F3F09F071C016E05FC035
:1026600086E0FE013796DE01119601900D928A9563
:10267000E1F78A859B85892B89F388859F8189234A
:102680008F3F61F32091790130E0C9010196877095
:102690009927409178014817190671F40E94841017
:1026A000109279011092780186E0EAEAF1E0DF0108
:1026B0001D928A95E9F7D2CF96E0929FD001939F21
:1026C000B00D1124A658BE4FFE01319601900D9217
:1026D0009A95E1F7809379010E94D210BFCF819F34
:1026E000C001112486589E4F0E9465118823E9F08D
:1026F000E09178011E9FF0011124E658FE4F4081C1
:10270000518162817381848195810E94C210809180
:10271000780190E0019687709927809378018091E5
:102720007801909179018913DACF2C960FB6F8943D
:10273000DEBF0FBECDBFDF91CF911F910895698598
:102740007A858B859C850E94C21088CFEF92FF927C
:102750000F931F93CF93DF938C01892B89F0F12C7A
:10276000EE24E394E8012196F8018491843709F47A
:1027700057C0A0F4823009F43EC048F48130D1F053
:10278000DF91CF911F910F91FF90EF9008959CEFF3
:10279000980F9037A8F70E94BE0C0AC0853709F43D
:1027A0004CC09CE7980F903758F78F770E949A0D8E
:1027B0008E0116C00E5F1F4FFE01849190E2980FAC
:1027C000983060F48770FE2D01C0FF0F8A95EAF7FC
:1027D0008F2F0E9453170E947A1702C00E94BE0CCE
:1027E0008F2D815008F4BECFEFE9FFE03197F1F76C
:1027F00000C00000F6CF0E5F1F4FFE01849190E2F3
:10280000980F983050F48770FE2D01C0FF0F8A9505
:10281000EAF78F2F0E945917DECF0E949A0DE0CF62
:102820000E5F1F4FFE01C491C150D0F28FE99FE0AF
:102830000197F1F700C00000F7CF0E5F1F4FFE01B8
:10284000F490CECF08956093EB017093EC018093E8
:10285000ED019093EE010C947010CF93DF9300D0B4
:1028600000D0CDB7DEB769837A838B839C83809158
:10287000EB019091EC01A091ED01B091EE01298165
:102880003A814B815C81822B932BA42BB52B8093B7
:10289000EB019093EC01A093ED01B093EE010F904A
:1028A0000F900F900F90DF91CF910C947010CF93F9
:1028B000DF9300D000D0CDB7DEB769837A838B83F6
:1028C0009C838091EB019091EC01A091ED01B0917E
:1028D000EE0129813A814B815C8182239323A423D9
:1028E000B5238093EB019093EC01A093ED01B0939D
:1028F000EE010F900F900F900F90DF91CF910C94FD
:102900007010CF93DF9300D000D0CDB7DEB76983CE
:102910007A838B839C838091EB019091EC01A09151
:10292000ED01B091EE0129813A814B815C818227D2
:102930009327A427B5278093EB019093EC01A093F4
:10294000ED01B093EE010F900F900F900F90DF917B
:10295000CF910C9470101092E7011092E801109240
:10296000E9011092EA010C94701041E050E060E03F
:1029700070E004C0440F551F661F771F8A95D2F779
:102980004093E7015093E8016093E9017093EA01F5
:102990000C947010282F81E090E0A0E0B0E004C01B
:1029A000880F991FAA1FBB1F2A95D2F74091E701F4
:1029B0005091E8016091E9017091EA01842B952B17
:1029C000A62BB72B8093E7019093E801A093E90130
:1029D000B093EA010C94701041E050E060E070E0C8
:1029E00004C0440F551F661F771F8A95D2F7409584
:1029F0005095609570958091E7019091E801A091C4
:102A0000E901B091EA0184239523A623B72380939B
:102A1000E7019093E801A093E901B093EA010C94D7
:102A20007010282F81E090E0A0E0B0E004C0880F93
:102A3000991FAA1FBB1F2A95D2F74091E701509119
:102A4000E8016091E9017091EA0184279527A627A2
:102A5000B7278093E7019093E801A093E901B09331
:102A6000EA010C947010CF93DF9300D000D0CDB763
:102A7000DEB769837A838B839C838091E701909191
:102A8000E801A091E901B091EA0129813A814B81E5
:102A90005C81822B932BA42BB52B8093E701909321
:102AA000E801A093E901B093EA010F900F900F9015
:102AB0000F90DF91CF910C947010CF93DF9300D0E3
:102AC00000D0CDB7DEB769837A838B839C838091F6
:102AD000E7019091E801A091E901B091EA01298113
:102AE0003A814B815C8182239323A423B523809375
:102AF000E7019093E801A093E901B093EA010F90F8
:102B00000F900F900F90DF91CF910C947010CF9396
:102B1000DF9300D000D0CDB7DEB769837A838B8393
:102B20009C838091E7019091E801A091E901B09127
:102B3000EA0129813A814B815C8182279327A4276E
:102B4000B5278093E7019093E801A093E901B09342
:102B5000EA010F900F900F900F90DF91CF910C949E
:102B600070100895990F990F990FE92FE80F87704A
:102B700041E001C0440F8A95EAF7E695E695E695AF
:102B800085E0E89FF0011124E055FE4F30E020E0A1
:102B900070E05191DF011197CB01022E02C0969592
:102BA00087950A94E2F7817081958527842385278C
:102BB0008C932F5F3F4F2530310559F70895E92F4A
:102BC000EE0FEE0FEE0FE80F982F9770E695E69553
:102BD000E69585E0E89FF0011124E055FE4F50E0B6
:102BE00040E080E0219130E0092E02C03695279523
:102BF0000A94E2F721703327042E01C0220F0A94B1
:102C0000EAF7822B4F5F5F4F4530510559F7089522
:102C1000BF92CF92DF92EF92FF920F931F93CF93C9
:102C2000DF938C01C090E701D090E801E090E901CA
:102C3000F090EA018091EB019091EC01A091ED01FF
:102C4000B091EE01C82AD92AEA2AFB2ACFE1D0E0C6
:102C5000BC2ED701C6010C2E04C0B695A79597953A
:102C600087950A94D2F780FD0EC0219788F7B12C82
:102C70008B2DDF91CF911F910F91FF90EF90DF90FF
:102C8000CF90BF900895B8018C2F0E9463080197E0
:102C900061F3EECFCF93DF93D82FC92F0E94081690
:102CA0006D2F7C2FDF91CF910C9463081F93CF93EE
:102CB000DF93162FD72F90917701992339F0862F24
:102CC000972FDF91CF911F910C944A16882391F092
:102CD000862F972F0E940816C82F682F812F9D2FAF
:102CE0000E94B215612F7D2F8C2FDF91CF911F9104
:102CF0000C946308862F972F0E94DF15C82FF2CF00
:102D00008091EF0185958595859508958091EF01D6
:102D10008770089598E0899F90011124622B609339
:102D2000EF010C94CA149091EF0180958923809350
:102D3000EF01282F277061F4282F082E000C330B89
:102D40009217130629F08595859585950C94EC14BA
:102D500008959091EF01977081E009F480E0089563
:102D6000909112019923E1F09091450297FF18C0CC
:102D7000E82FE695E695E695EF3139F120910001CF
:102D800030910101E20FF32FF11D877021E030E057
:102D900001C0220F8A95EAF78181822B81830895F1
:102DA0002091000130910101F90132969FEF40E03E
:102DB0005191851751F09F3F19F4511101C0942F83
:102DC0004F5F4E31A9F79F3F09F40895290F311D38
:102DD00097FD3A95F9018283089590911201992304
:102DE00001F19091450297FF1CC0E82FE695E6950A
:102DF000E695EF3139F12091000130910101E20FA8
:102E0000F32FF11D877021E030E0A90102C0440FCB
:102E1000551F8A95E2F7CA018095918189238183A4
:102E200008952091000130910101F9013296205E50
:102E30003F4F9191891303C0DF0111971C92E21754
:102E4000F307B9F7089581E090E0E0910001F09177
:102E50000101E80FF91F1082019680329105A9F750
:102E6000089590911302982B909313020895982F30
:102E700090958091130289238093130208951092F4
:102E80001302089590911202982B909312020895C4
:102E9000982F9095809112028923809312020895B1
:102EA00010921202089590911102982B90931102A2
:102EB0000895982F90958091110289238093110293
:102EC00008951092110208958093F00108951092D0
:102ED000F00108952091000130910101F90131962E
:102EE000205E3F4F80E0919191118F5FE217F307D1
:102EF000D1F70895E0910001F09101018091130252
:102F00008083E0910001F091010180819091120293
:102F1000892B8083E0910001F091010180819091E3
:102F20001102892B80839091F001992361F0E09147
:102F30000001F09101018081892B80830E946A1732
:102F400081111092F00180910001909101010C9487
:102F5000A80B6DEE7EEF90E080E00E94182560E007
:102F600082E090E00E94062560E083E090E00E940D
:102F7000062560E084E090E00E94062560E085E0A0
:102F800090E00C94062590E080E00E9400259C01D2
:102F900081E02D3E3E4F09F080E0089582E090E010
:102FA0000C94F824682F82E090E00C94062583E0CE
:102FB00090E00C94F824682F83E090E00C940625B0
:102FC00084E090E00C94F824682F84E090E00C9466
:102FD000062580914B02843039F11092150288E168
:102FE00090E020E40FB6F894A895809360000FBE9F
:102FF0002093600080E00E94430883B7817F846053
:1030000083BF83B7816083BF7894889583B78E7FB1
:1030100083BF0FB6F894A895809160008861809373
:103020006000109260000FBE089508950895CF9338
:103030000E9415180E94EC0A0E941618C0E08C2FFE
:103040000E94900B811105C0CF5FCB30C1F7CF91AB
:10305000089581E0FCCF0E9484100E949C0B0C9488
:1030600043081F921FB61F9211248F939F93AF9313
:10307000BF9380911502811113C0809141029091FC
:103080004202A0914302B09144024196A11DB11D9C
:103090008093410290934202A0934302B093440272
:1030A000BF91AF919F918F911F901FBE1F90189558
:1030B00082E084BD93E095BD9AEF97BD80936E004A
:1030C00008952FB7F8948091410290914202A09107
:1030D0004302B09144022FBF0895CF92DF92EF9246
:1030E000FF929C014FB7F894809141029091420267
:1030F000A0914302B09144024FBF6C017D01EE24C8
:10310000FF24A90170E060E0C416D506E606F706C4
:1031100038F0821B930BFF90EF90DF90CF900895D3
:103120000197F7CF1F921FB61F9211248F939F9381
:10313000AF93BF938091410290914202A0914302CC
:10314000B09144020196A11DB11D8093410290935C
:103150004202A0934302B0934402BF91AF919F916A
:103160008F911F901FBE1F9018950E94A120F89468
:103170002FEF87EA91E6215080409040E1F700C0B0
:10318000000087E090EBDC0180935402909355029D
:10319000A0935602B093570288E19CE00FB6F894D2
:1031A000A895809360000FBE90936000FFCFCF92F0
:1031B000DF92EF92FF920F931F93CF93C0E0E82E20
:1031C000F12C8C2F0E94900B10E000E0C82ED12C27
:1031D000C601002E02C0959587950A94E2F780FFFC
:1031E00011C0602F7C2F80E00E944608E816F90687
:1031F00049F481E0CF911F910F91FF90EF90DF9004
:10320000CF9008950F5F1F4F0830110509F7CF5F6A
:10321000CB30B9F680E0EECFCF93C82F8CE20E947E
:10322000D718882321F08C2FCF910C94D71880E0E9
:10323000CF910895CF93DF9300D000D0CDB7DEB704
:103240000E94C317811102C00E94A91795E69983B5
:1032500008C00E94EC0A8FE39CE90197F1F700C0D7
:103260000000A981A150A983A111F3CF89E20E9496
:103270000C19811110C18AE20E940C1981110E945F
:10328000A91785E00E940C1981110E94B5180E94AF
:10329000CE178093140287E00E940C19882371F0E6
:1032A0008BE10E940C19882309F4D1C0909114027B
:1032B000892F8D7F91FF8260809314028091140288
:1032C0000E94D2170E94E01790E0909346028093EC
:1032D000450280EE0E940C19882341F0909145022E
:1032E000892F8E7F90FF81608093450289E30E9441
:1032F0000C19882341F090914502892F8D7F91FF11
:1033000082608093450282EE0E940C19882341F06E
:1033100090914502892F8B7F92FF846080934502B4
:1033200086EE0E940C19882341F090914502892F66
:10333000877F93FF88608093450283EE0E940C197B
:10334000882341F090914502892F8F7E94FF806100
:103350008093450285E30E940C19882341F09091E7
:103360004502892F8F7D95FF80628093450281E31E
:103370000E940C19882341F090914502892F8F7B80
:1033800096FF80648093450281E10E940C19882396
:1033900041F090914502892F97FB87F980588093DF
:1033A0004502809145020E94E41787E20E940C19B1
:1033B00089838EE10E940C19882319F0B981B260CB
:1033C000B9838FE10E940C19882319F029812460A8
:1033D000298380E20E940C19882319F03981386012
:1033E000398381E20E940C19882319F049814061D8
:1033F000498382E20E940C19882319F05981506296
:10340000598383E20E940C19882319F08981806412
:10341000898384E20E940C198823B1F19981906814
:10342000998389810E94DB173981232F30E050E096
:1034300040E029833A834B835C83CA01B9010F9032
:103440000F900F900F90DF91CF910C9423148EE08A
:103450000E940C19882339F090911402892F8B7FD8
:1034600092FF846029CF80E10E940C199091140290
:10347000882329F0892F877F93FF88601DCF892FAC
:103480008E7F90FF816018CFA981A111CACF0E94C1
:10349000D717282FCBCF0F900F900F900F90DF9161
:1034A000CF9108958091180280FF12C060910501AC
:1034B00085E0689FB00111247595679575956795AE
:1034C00060387105A8F561157105A1F1862F089581
:1034D00081FF09C06091050185E0689FB00111245A
:1034E00075956795EDCF6091050182FD0AC08091C9
:1034F00019028823D1F09091040160910501891788
:1035000028F085E0689FB0011124DACF869FB001D2
:10351000112485E0869F9001879F300D1124692F2B
:1035200070E0C9010E94CA24CBCF65E070E0CECF25
:103530008FE7089581E008958091180280FF0CC004
:103540006091030170E075956795759567956115B4
:10355000710549F1862F089581FF06C0609103012E
:1035600070E075956795F3CF6091030182FD0BC004
:10357000909119029923A1F06091020180910301B9
:10358000961738F0682F70E06038710500F38FE708
:103590000895899FC001112470E00E94CA24F4CFCD
:1035A00061E070E0D7CF81E00895803F31F40E9460
:1035B000521A819580931C020895813F19F40E944C
:1035C000521AF8CF823F31F40E94521A81958093AB
:1035D0001B020895833F19F40E94521AF8CF893FC5
:1035E00029F40E949C1A80931D0208958A3F21F4B9
:1035F0000E949C1A8195F7CF8B3F31F40E949C1A50
:10360000819580931E0208958C3F19F40E949C1AA4
:10361000F8CF843F31F480911A02816080931A02BE
:103620000895853F21F480911A028260F7CF863F8A
:1036300021F480911A028460F1CF873F21F48091B8
:103640001A028860EBCF883F21F480911A028061D2
:10365000E5CF8D3F31F4809118028160809318028C
:1036600008958E3F21F4809118028260F7CF8F3F3A
:10367000B9F7809118028460F1CF90911B02803FCE
:1036800041F480911C0287FD10921C02992371F075
:103690000895813F29F480911C021816ACF3F6CFEF
:1036A000823F81F497FFF2CF10921B0280911C029F
:1036B00090911D02892B90911E02892B49F710923F
:1036C00019020895833F19F4191674F3DFCF893F67
:1036D00039F480911D021816CCF610921D02D6CF37
:1036E0008A3F29F480911D0287FFD0CFF6CF8B3F10
:1036F00039F480911E0287FFC9CF10921E02C6CFF7
:103700008C3F29F480911E021816BCF3BFCF843F72
:1037100031F480911A028E7F80931A02B7CF853FD1
:1037200021F480911A028D7FF7CF863F21F480919A
:103730001A028B7FF1CF873F21F480911A02877F95
:10374000EBCF883F21F480911A028F7EE5CF8D3F29
:1037500031F4809118028E7F8093180297CF8E3FAC
:1037600021F4809118028D7FF7CF8F3F09F08ECF23
:10377000809118028B7FF0CF8AE192E00E94B30B18
:103780000E946118909317028093160208951F9368
:10379000CF93DF9300D000D000D0CDB7DEB78091BB
:1037A0001602909117020E946D18AC0180911902C7
:1037B0002091060130E0811106C0209107019AE0B6
:1037C000299F900111244217530788F020911B0272
:1037D000A0911C02A98310911D02B0911E02BE830C
:1037E00021110FC09A2F912B9B2B09F0B2C0269666
:1037F0000FB6F894DEBF0FBECDBFDF91CF911F9102
:1038000008958F3F19F08F5F80931902121624F4E8
:103810000E94521A80931B0280911B0287FF05C0F1
:103820000E94521A819580931B022981121624F45A
:103830000E94521A80931C0280911C0287FF05C0CF
:103840000E94521A819580931C0280911B0288234A
:1038500009F455C030911C023D83332309F44FC055
:10386000282F880F330B440B550B29833A834B8346
:103870005C83CA01B9010E94D12323E333E343E30C
:103880005FE369837A838B839C8369817A818B81EF
:103890009C810E94352469837A838B839C83698110
:1038A0007A818B819C810E94992360931B028D8178
:1038B000082E000C990BAA0BBB0B89839A83AB8350
:1038C000BC83BC01CD010E94D12323E333E343E356
:1038D0005FE369837A838B839C8369817A818B819F
:1038E0009C810E94352469837A838B839C836981C0
:1038F0007A818B819C810E94992360931C0211160E
:1039000024F40E949C1A80931D0280911D0287FF5F
:1039100005C00E949C1A819580931D029E811916F4
:1039200024F40E949C1A80931E0280911E0287FF3D
:1039300005C00E949C1A819580931E0226960FB6A0
:10394000F894DEBF0FBECDBFDF91CF911F910C94D5
:10395000BC1B8F3F09F057CF68CF85E0EAE1F2E06A
:10396000DF011D928A95E9F7109219021092180250
:10397000089580913F020895CF93DF9300D00F9276
:10398000CDB7DEB720914B02243019F523E029830F
:103990008A839B832093E9008FEF9091E800815008
:1039A00095FD06C095ED9A95F1F700008111F5CFD0
:1039B0008091E80085FF0DC050E040E063E070E0DA
:1039C000CE0101960E94191F8091E8008E778093A6
:1039D000E8000F900F900F90DF91CF910895CF9353
:1039E000DF9300D00F92CDB7DEB79C0180914B02E0
:1039F000843031F582E08983205831093B832A8362
:103A000083E08093E9008FEF9091E800815095FD6D
:103A100006C095ED9A95F1F700008111F5CF8091E0
:103A2000E80085FF0DC050E040E063E070E0CE01AB
:103A300001960E94191F8091E8008E778093E8001C
:103A40000F900F900F90DF91CF91089520914B022E
:103A50002430F1F422E02093E9002FEF3091E800C8
:103A6000215035FD06C035ED3A95F1F700002111E2
:103A7000F5CF2091E80025FF0BC050E040E065E065
:103A800070E00E94191F8091E8008E778093E80013
:103A90000895CF93DF93D82FC92F80914B028430A4
:103AA000F1F4909112019923E9F09091450297FF6A
:103AB00019C08093E9008FEF9091E800815095FD47
:103AC00006C095E19A95F1F700008111F5CF80913C
:103AD000E80050E040E060E270E085FD1AC0DF9150
:103AE000CF91089581E08093E9008FEF9091E800F5
:103AF000815095FD06C095ED9A95F1F70000811172
:103B0000F5CF8091E80085FFEACF50E040E068E023
:103B100070E08D2F9C2F0E94191F8091E8008E77F6
:103B20008093E80080E2ED2FFC2FAFE1B2E001903E
:103B30000D928A95E1F7D3CF80914A02811109C095
:103B40000E94A1200E94FE208091E2008460809368
:103B5000E200089510924A020895089508950C9481
:103B60002B1842E061EC81E00E941D2042E061ECF4
:103B700082E00E941D2042E061EC83E00E941D2053
:103B800042E261EC84E00C941D2080914D0289306A
:103B900089F148F4823009F494C0833009F44FC0AD
:103BA000813041F008958A3009F47BC08B3009F4EC
:103BB00061C0089580914C02813A09F03FC0809124
:103BC000E800877F8093E800809150029091510235
:103BD000892B61F460E28FE192E070E00E94681F3F
:103BE0008091E8008B778093E800089560E090E092
:103BF00080E0F3CF80914C02813201F58091500238
:103C000090915102009711F00397C1F48091E80060
:103C1000877F8093E8008091E80082FF0BC080914D
:103C2000F10080933F028091E8008B778093E80059
:103C30000C94512080914B028111EDCF0895809119
:103C40004C02813AD9F78091500290915102892B10
:103C5000A9F78091E800877F8093E8008091E800D1
:103C600080FFFCCF809112018093F1008091E800E9
:103C70008E77DCCF80914C02813201F78091500227
:103C800090915102892BD1F68091E800877F809333
:103C9000E8000E94512080914E02809312010C9402
:103CA000841080914C02813249F68091E800877F30
:103CB0008093E8000E94512080914F02809340023F
:103CC000089580914C02813A09F0B8CF8091E800C4
:103CD000877F8093E8008091E80080FFFCCF80918F
:103CE0004002C2CF84B7877F84BF0FB6F894A895EF
:103CF00080916000886180936000109260000FBE28
:103D000080E880936100109261000E94EB0B0E949A
:103D1000A1200E94FE208091E20084608093E20056
:103D200078940E947E230E94ED0B88E091E00E942F
:103D3000970B80914B02853019F00E94F30BF9CF5D
:103D40000E94E91780914902882399F30E9417186D
:103D5000882379F30E94031FECCF9C01DA01892F9D
:103D6000992783309105C1F068F48130910509F4F9
:103D700045C0029761F48DE690E02CED3BE02D9379
:103D80003C93089581329105E1F0829739F190E0FA
:103D900080E030E020E0F3CFC9019927213059F0CD
:103DA0008230910559F0E8EDFBE0892B81F7849191
:103DB00090E09F01E4CFE0ECFBE0F9CFECEAFBE020
:103DC000F6CF643020F7E62FF0E0EE0FFF1FEE5C39
:103DD000FE4F2081318189E090E0D1CF6430B8F688
:103DE00070E0FB01EE0FFF1FE65DFE4F2081318189
:103DF0006A5D7E4FFB01808190E0C1CF82E190E05F
:103E000029E43CE0BCCF80E189BD82E189BD09B4F1
:103E100000FEFDCF8091D8008F7D8093D8008091E7
:103E2000E00082608093E0008091E00081FDFCCFA3
:103E30000895AF92BF92CF92DF92FF920F931F939C
:103E4000CF93DF936C01EB018A010E947020F82E62
:103E5000811123C00115110539F0F801808191818C
:103E6000C81BD90BC80ED91EB12CA12C2097A9F0C4
:103E70008091E80085FD22C08091E8008E778093D4
:103E8000E80001151105A1F0F80180819181A80ECB
:103E9000B91EB182A08285E0F82E8F2DDF91CF91DF
:103EA0001F910F91FF90DF90CF90BF90AF9008953A
:103EB0000E9470208823D1F2F82EEFCFF601819175
:103EC0006F018093F1002197FFEFAF1ABF0ACECFA9
:103ED000FC01CB0120915202309153022617370783
:103EE00090F0009729F42091E8002E772093E800C5
:103EF00040E0009751F4411108C08091E80082FF32
:103F000031C080E00895C901F3CF20914B022223F4
:103F1000A9F12530A9F12091E80023FD2DC02091C1
:103F2000E80022FDEACF2091E80020FFE2CF3091A7
:103F3000F3002091F200009719F02830310558F075
:103F400041E02830310509F040E02091E8002E776B
:103F50002093E800CECF41914093F10001972F5F6D
:103F60003F4FE9CF80914B02882341F0853041F0EB
:103F70008091E80083FFC1CF81E0089582E0089539
:103F800083E00895FC01CB0120915202309153024D
:103F90002617370790F0009729F42091E8002E7734
:103FA0002093E80040E0009751F4411108C080914F
:103FB000E80082FF32C080E00895C901F3CF20916C
:103FC0004B022223B1F12530B1F12091E80023FD0D
:103FD0002EC02091E80022FDEACF2091E80020FFCA
:103FE000E2CF3091F3002091F200009719F02830D1
:103FF000310558F041E02830310509F040E02091CA
:10400000E8002E772093E800CECF44914093F10052
:10401000319601972F5F3F4FE8CF80914B02882365
:1040200041F0853041F08091E80083FFC0CF81E00E
:10403000089582E0089583E00895982F973028F03E
:104040008F708093E90081E008959093E900242F18
:10405000762F50E0981731F07091EC002091ED0030
:104060005091F00021FD02C09F5FE8CF3091EB003E
:104070003E7F3093EB003091ED003D7F3093ED00BB
:104080003091EB0031603093EB007093EC002093A3
:10409000ED005093F0002091EE0027FDE5CF80E089
:1040A000089580914C0287FF13C08091E80082FF41
:1040B00006C08091E8008B778093E80004C080916F
:1040C0004B028111F2CF089580914B028823D9F3DE
:1040D0008091E80080FFF8CF8091E8008E77ECCFE8
:1040E0002091E4003091E50095E6A9012091EC00D3
:1040F000822F817020FF06C08091E80080FF06C0FB
:1041000080E008952091E80022FD1AC080914B02C2
:10411000882389F0853089F08091EB0085FD0FC000
:104120002091E4003091E50042175307F9F29150D5
:10413000E1F684E0089582E0089583E0089581E047
:1041400008950E940F210E941721E0EEF0E0808187
:1041500081608083E8EDF0E080818F77808319BCF7
:10416000A7EDB0E08C918E7F8C9380818F7E8083D1
:1041700010924A0208950F931F93CF93DF930E94EA
:104180000F210E941721C8EDD0E088818F778883A6
:1041900088818068888388818F7D888319BC10928C
:1041A0004B0210924702109249021092480200EE10
:1041B00010E0F80180818B7F808388818160888313
:1041C00042E060E080E00E941D20E1EEF0E08081AE
:1041D0008E7F8083E2EEF0E0808181608083808149
:1041E00088608083F80180818E7F808388818061F0
:1041F0008883DF91CF911F910F910895E8EDF0E052
:1042000080818F7E8083E7EDF0E080818160808314
:1042100084E082BF81E080934A020C94BB20E8EDE9
:10422000F0E080818E7F80831092E20008951092EA
:10423000DA001092E10008951F920F920FB60F92CC
:1042400011242F933F934F935F936F937F938F939B
:104250009F93AF93BF93EF93FF938091E10082FF11
:104260000BC08091E20082FF07C08091E1008B7F4C
:104270008093E1000E947D238091DA0080FF19C0C5
:104280008091D80080FF15C08091DA008E7F8093E6
:10429000DA008091D90080FF94C080E189BD82E17D
:1042A00089BD09B400FEFDCF81E080934B020E94DE
:1042B0009C1D8091E10080FF19C08091E20080FF89
:1042C00015C08091E2008E7F8093E2008091E20031
:1042D00080618093E2008091D80080628093D80052
:1042E00019BC85E080934B020E94AE1D8091E100D5
:1042F00084FF29C08091E20084FF25C080E189BD50
:1043000082E189BD09B400FEFDCF8091D8008F7D88
:104310008093D8008091E1008F7E8093E1008091AE
:10432000E2008F7E8093E2008091E20081608093C2
:10433000E20080914702882309F449C084E0809319
:104340004B020E94AF1D8091E10083FF29C0809144
:10435000E20083FF25C08091E100877F8093E10028
:1043600082E080934B02109247028091E1008E7FA1
:104370008093E1008091E2008E7F8093E200809143
:10438000E20080618093E20042E060E080E00E9411
:104390001D208091F00088608093F0000E94AD1D88
:1043A000FF91EF91BF91AF919F918F917F916F910D
:1043B0005F914F913F912F910F900FBE0F901F90E3
:1043C000189519BC10924B020E94AA1D72CF8091C1
:1043D000E30087FD02C081E0B2CF83E0B0CF1F923F
:1043E0000F920FB60F9211242F933F934F935F9329
:1043F0006F937F938F939F93AF93BF93CF93DF93ED
:10440000EF93FF93D091E900DF708091EC00C82F0B
:10441000C17080FDC0E81092E9008091F000877FB4
:104420008093F00078940E9433221092E9008091EA
:10443000F00088608093F000CD2BCF70C093E9002E
:10444000FF91EF91DF91CF91BF91AF919F918F91AC
:104450007F916F915F914F913F912F910F900FBE80
:104460000F901F9018951F93CF93DF93CDB7DEB7B2
:10447000AA970FB6F894DEBF0FBECDBF8CE492E0D2
:10448000FC0101962091F100208322E084359207FF
:10449000B9F70E94C51D8091E80083FF16C1809185
:1044A0004C0290914D029A3008F00FC1E92FF0E0D4
:1044B000EE5AFA4D0C94DE24803881F0823809F0EF
:1044C00004C1809150028F708093E9008091EB00CD
:1044D00085FB882780F91092E90006C08091480288
:1044E00090914902911182609091E800977F90939A
:1044F000E8008093F1001092F1008091E8008E773F
:10450000E0C0882309F4CEC0823009F0DEC080917B
:104510004E028111D1C0809150028F7009F4D5C034
:104520008093E9002091EB0020FFC6C0933031F466
:104530008091EB0080628093EB00BEC09091EB0015
:1045400090619093EB0021E030E001C0220F8A954A
:10455000EAF72093EA001092EA008091EB0088606D
:10456000EACF8111B2C010914E021F778091E30013
:104570008078812B8093E3008091E800877F80938F
:10458000E8000E9451208091E80080FFFCCF8091DC
:10459000E30080688093E30082E0111183E0809360
:1045A0004B0293C08058823008F08FC080914E0239
:1045B00090914F028C3D23E09207A1F583E08A831E
:1045C0008AE289834FB7F894DE01139620E03EE03B
:1045D00051E2E32FF0E050935700E49120FF03C035
:1045E000E295EF703F5FEF708E2F90E0EA30C0F001
:1045F000C7968D939D932F5F243159F74FBF8091BC
:10460000E800877F8093E8006AE270E0CE010196BF
:104610000E94681F8091E8008B778093E80055C066
:10462000C096E7CFAE014F5F5F4F609150020E948E
:10463000AD1EBC01892B09F448C08091E800877F3A
:104640008093E80089819A810E94C21FE3CF80385D
:10465000E1F58091E800877F8093E8008091470230
:104660008093F1004ACF811130C090914E02923078
:1046700060F58091E800877F8093E800909347027F
:104680000E94512080914702882311F084E005C0E8
:104690008091E30087FDFACF81E080934B020E9476
:1046A000B11D13C080914E02813079F481E09330C6
:1046B00009F080E0809349021092E9008091E800BF
:1046C000877F8093E8000E9451208091E80083FF5B
:1046D0000AC08091E800877F8093E8008091EB001A
:1046E00080628093EB00AA960FB6F894DEBF0FBEEF
:1046F000CDBFDF91CF911F9108950895CF93809101
:104700004B028823A1F0C091E900CF709091EC009A
:10471000892F817090FD80E8C82B1092E90080916C
:10472000E80083FD0E943322CF70C093E900CF914F
:1047300008950E94A0236894B1110C942F24089529
:104740000E94142488F09F5798F0B92F9927B751E9
:10475000B0F0E1F0660F771F881F991F1AF0BA9525
:10476000C9F714C0B13091F00E942E24B1E0089531
:104770000C942E24672F782F8827B85F39F0B93F23
:10478000CCF3869577956795B395D9F73EF49095D8
:104790008095709561957F4F8F4F9F4F0895E89456
:1047A00009C097FB3EF490958095709561957F4F79
:1047B0008F4F9F4F9923A9F0F92F96E9BB27939527
:1047C000F695879577956795B795F111F8CFFAF437
:1047D000BB0F11F460FF1BC06F5F7F4F8F4F9F4F68
:1047E00016C0882311F096E911C0772321F09EE8C6
:1047F000872F762F05C0662371F096E8862F70E02C
:1048000060E02AF09A95660F771F881FDAF7880F05
:104810009695879597F9089557FD9058440F551F21
:1048200059F05F3F71F04795880F97FB991F61F032
:104830009F3F79F087950895121613061406551FA9
:10484000F2CF4695F1DF08C0161617061806991F15
:10485000F1CF86957105610508940895E894BB270A
:1048600066277727CB0197F908950E9448240C9476
:10487000B9240E94AB2438F00E94B22420F0952382
:1048800011F00C94A2240C94A82411240C942F242D
:104890000E940C2470F3959FC1F3950F50E0551FB3
:1048A000629FF001729FBB27F00DB11D639FAA2785
:1048B000F00DB11DAA1F649F6627B00DA11D661FD4
:1048C000829F2227B00DA11D621F739FB00DA11DF5
:1048D000621F839FA00D611D221F749F3327A00DAF
:1048E000611D231F849F600D211D822F762F6A2F4B
:1048F00011249F5750409AF0F1F088234AF0EE0FB0
:10490000FF1FBB1F661F771F881F91505040A9F7DC
:104910009E3F510580F00C94A2240C942F245F3FFD
:10492000E4F3983ED4F3869577956795B795F79518
:10493000E7959F5FC1F7FE2B880F911D9695879590
:1049400097F9089597F99F6780E870E060E008950F
:104950009FEF80EC089500240A9416161706180697
:104960000906089500240A94121613061406050673
:104970000895092E0394000C11F4882352F0BB0F04
:1049800040F4BF2B11F460FF04C06F5F7F4F8F4F67
:104990009F4F089597FB072E16F4009407D077FDDC
:1049A00009D00E94E42407FC05D03EF4909581953F
:1049B0009F4F0895709561957F4F0895EE0FFF1FEB
:1049C0000590F491E02D0994AA1BBB1B51E107C08F
:1049D000AA1FBB1FA617B70710F0A61BB70B881F8F
:1049E000991F5A95A9F780959095BC01CD0108951E
:1049F000F999FECF92BD81BDF89A992780B50895A7
:104A0000A8E1B0E042E050E00C942025262FF9996F
:104A1000FECF92BD81BDF89A019700B4021639F01D
:104A20001FBA20BD0FB6F894FA9AF99A0FBE0895EE
:104A30000196272F0E9407250C940625DC01CB0147
:104A4000FC01F999FECF06C0F2BDE1BDF89A31969E
:104A500000B40D9241505040B8F70895F894FFCF3C
:104A6000AE07BA07BE07C207C607CA07CE07D207F6
:104A7000D607DA07DE07E207E607EA07EE07F207DE
:104A8000F607FA072F0E2F0E870E870ECB0EE70EB6
:104A90005F0E5F0EF20E5F0EBA0FBA0F25105F0E9B
:104AA0005F0E2E105C228122652381226523B122B4
:084AB000D222652327233323E2
:104AB800F1012808140A321EB91C491D261DEF1CD5
:104AC800BC1C01F4F5F6F731333236939291909489
:104AD8006697C6343530404D3639170DCA0C940CDC
:0A4AE8005B0CEE0B070C200C390CE0
:00000001FF
