:100000000C942C050C9473050C9473050C947305D7
:100010000C9473050C9473050C9473050C94730580
:100020000C9473050C9473050C949B1F0C946E2018
:100030000C94B0160C9473050C9473050C94730512
:100040000C9473050C9473050C9473050C94730550
:100050000C9473050C9411170C9473050C94730590
:100060000C9473050C9473050C9473050C94730530
:100070000C9473050C9473050C9473050C94730520
:100080000C9473050C9473050C9473050C94730510
:100090000C9473050C9473050C9473050C94730500
:1000A0000C9473050C9473050C947305360037009B
:1000B0002F003300300034002C00E1003800350000
:1000C00014001D001A0004002800E0001E001F009C
:1000D0000800090015000A002A0000412000210044
:1000E00017000B001C000D00460000002400250036
:1000F0001200160013000700E20000002200230097
:1001000018000E000C000F00310000002D002E0022
:1001100011001B0010000000E20000002600270074
:100120001900060005002B00E0000000010001009E
:100130005200500001004F00E300E100510029008F
:1001400001000100520050004600E7003A003B0069
:100150000100010001004C00A90001003C003D002D
:1001600049004D004A004E00AA0000004000410036
:100170000070510001004900E20000003E003F0015
:100180004B00010001000100A800000044004500F0
:10019000AC000100AB000000E4000000420043009E
:1001A000AE000100AD006500E000000001000100AC
:1001B0000100010001000100010001000100010037
:1001C0000100010001000100010001000100010027
:1001D0000100010001000100010001000100010017
:1001E0000100010001000100010000000100010008
:1001F00001000100010001000100010001000100F7
:1002000001000100010001000100000001000100E7
:1002100001000100010000000100000001000100D8
:1002200001000100010001000100000001000100C7
:1002300001000100010001000100010001000100B6
:1002400001000100010001000100010001000100A6
:100250000100010001000100010001000100010096
:100260000100010001000100010000000100010087
:100270000100010001000100010001000100010076
:100280000100010001000100010000000100010067
:100290000100010001000000010000000100010058
:1002A0000100010001000100010000000100010047
:1002B0000100010001000100010001000100010036
:1002C0000100010001000100010001000100010026
:1002D0000100010001000100010001000100010016
:1002E0000100010001000100010000000100010007
:1002F00001000100010001000100010001000100F6
:1003000001000100010001000100000001000100E6
:1003100001000100010000000100000001000100D7
:1003200001000100010001000100000001000100C6
:1003300001000100010001000100010001000100B5
:1003400001000100010001000100010001000100A5
:100350000100010001000100010001000100010095
:100360000100010001000100010000000100010086
:100370000100010001000100010001000100010075
:100380000100010001000100010000000100010066
:100390000100010001000000010000000100010057
:1003A0000100010001000100010000000100010046
:1003B0000100010001000100010001000100010035
:1003C0000100010001000100010001000100010025
:1003D0000100010001000100010001000100010015
:1003E0000100010001000100010000000100010006
:1003F00001000100010001000100010001000100F5
:1004000001000100010001000100000001000100E5
:1004100001000100010000000100000001000100D6
:1004200001000100010001000100000001000100C5
:1004300001000100010001000100010001000100B4
:1004400001000100010001000100010001000100A4
:100450000100010001000100010001000100010094
:100460000100010001000100010000000100010085
:100470000100010001000100010001000100010074
:100480000100010001000100010000000100010065
:100490000100010001000000010000000100010056
:1004A0000100010001000100010000000100010045
:1004B0000100010001000100010001000100010034
:1004C0000100010001000100010001000100010024
:1004D0000100010001000100010001000100010014
:1004E0000100010001000100010000000100010005
:1004F00001000100010001000100010001000100F4
:1005000001000100010001000100000001000100E4
:1005100001000100010000000100000001000100D5
:1005200001000100010001000100000001000100C4
:1005300001000100010001000100010001000100B3
:1005400001000100010001000100010001000100A3
:100550000100010001000100010001000100010093
:100560000100010001000100010000000100010084
:100570000100010001000100010001000100010073
:100580000100010001000100010000000100010064
:100590000100010001000000010000000100010055
:1005A0000100010001000100010000000100010044
:1005B0000100010001000100010001000100010033
:1005C0000100010001000100010001000100010023
:1005D0000100010001000100010001000100010013
:1005E0000100010001000100010000000100010004
:1005F00001000100010001000100010001000100F3
:1006000001000100010001000100000001000100E3
:1006100001000100010000000100000001000100D4
:1006200001000100010001000100000001000100C3
:1006300001000100010001000100010001000100B2
:1006400001000100010001000100010001000100A2
:100650000100010001000100010001000100010092
:100660000100010001000100010000000100010083
:100670000100010001000100010001000100010072
:100680000100010001000100010000000100010063
:100690000100010001000000010000000100010054
:1006A0000100010001000100010000000100010043
:1006B0000100010001000100010001000100010032
:1006C0000100010001000100010001000100010022
:1006D0000100010001000100010001000100010012
:1006E0000100010001000100010000000100010003
:1006F00001000100010001000100010001000100F2
:1007000001000100010001000100000001000100E2
:1007100001000100010000000100000001000100D3
:1007200001000100010001000100000001000100C2
:1007300001000100010001000100010001000100B1
:1007400001000100010001000100010001000100A1
:100750000100010001000100010001000100010091
:100760000100010001000100010000000100010082
:100770000100010001000100010001000100010071
:100780000100010001000100010000000100010062
:100790000100010001000000010000000100010053
:1007A0000100010001000100010000000100010042
:1007B0000100010001000100010001000100010031
:1007C0000100010001000100010001000100010021
:1007D0000100010001000100010001000100010011
:1007E0000100010001000100010000000100010002
:1007F00001000100010001000100010001000100F1
:1008000001000100010001000100000001000100E1
:1008100001000100010000000100000001000100D2
:1008200001000100010001000100000001000100C1
:1008300001000100010001000100010001000100B0
:1008400001000100010001000100010001000100A0
:100850000100010001000100010001000100010090
:100860000100010001000100010000000100010081
:100870000100010001000100010001000100010070
:100880000100010001000100010000000100010061
:100890000100010001000000010000000100010052
:1008A00001000100010001000100000012036B00C3
:1008B0006500790062006F00610072006400000052
:1008C000160371006D006B006200750069006C001A
:1008D00064006500720000000403090409026D0051
:1008E000040100A0FA09040000010301010009212C
:1008F000110100012240000705810308000A0904D4
:1009000001000103010200092111010001224D0033
:100910000705820308000A09040200010300000021
:100920000921110100012236000705830308000A8E
:100930000904030001030000000921110100012244
:100940003900070584032000011201100100000096
:1009500008EDFE606001000102000105010906A129
:1009600001050719E029E7150025019508750181A2
:100970000205081901290595057501910295017572
:100980000391010507190029F71500250195F87550
:10099000018102C005010980A1018502160100261E
:1009A00003001A81002A8300751095018100C0059B
:1009B0000C0901A1018503160100269C021A010001
:1009C0002A9C02751095018100C005010902A10150
:1009D0000901A10005091901290515002501950541
:1009E0007501810295017503810105010930093105
:1009F0001581257F95027508810609381581257FA7
:100A0000950175088106050C0A38021581257F9528
:100A10000175088106C0C005010906A10105071975
:100A2000E029E715002501950875018102950175FA
:100A3000088101050819012905950575019102959F
:100A400001750391010507190029FF150026FF0014
:100A5000950675088100C00011241FBECFEFDAE0B3
:100A6000DEBFCDBF04B603FE27C080913A0290914D
:100A70003B02A0913C02B0913D028730904BA740D1
:100A8000B04BD1F410923A0210923B0210923C0209
:100A900010923D0214BE84B7877F84BF0FB6F894CE
:100AA000A89580916000886180936000109260003A
:100AB0000FBEE0E0F8E3099511E0A0E0B1E0E6EB5D
:100AC000F7E402C005900D92A833B107D9F722E0F0
:100AD000A8E3B1E001C01D92AA33B207E1F70E947A
:100AE000F11C0C94AD230C94000090E080E008957C
:100AF0000895089581E00895089581E008950C9483
:100B00007A050E94030F2FEF84E39CE02150804080
:100B10009040E1F700C000000C943417EF92FF9270
:100B20000F931F93CF93DF938C01FC01E080F18042
:100B300080916C01811140C082818823C1F1C7017D
:100B40000E948714C82F682FC7010E943114B70173
:100B50008C2F0E94C606EC01B8010E947F058823F5
:100B600009F44BC0B801CE010E94CF08882309F4D4
:100B700044C0C531F0E7DF0720F5C23080E7D80771
:100B800008F04DC0C115E0E7DE0791F1C130D04754
:100B9000E1F181E080933A0180933B01C801DF914C
:100BA000CF911F910F91FF90EF900C947D05C7019D
:100BB0000E945E14C82FCBCFC7010E948714B701D3
:100BC000C8CFCC3380E7D80709F49BC0CD33D047DA
:100BD00001F7F8018281882309F4BAC010923B0121
:100BE0000E94E016909339018093380180E296C00C
:100BF000F801828181110E94810580E0DF91CF910F
:100C00001F910F91FF90EF900895F8018281882342
:100C1000A1F38091FA0181608093FA01EECFF8018F
:100C20008281882309F4BACF0E944216811102C042
:100C30000E9428160E945F1690E090932C028093E9
:100C40002B02FE01E350F04780912B028160E231DC
:100C5000F10538F4E155FC4D0C945D2380912B0295
:100C6000826080932B0280912B020E9463160E9467
:100C7000030FC3CF80912B028460F3CF80912B02AE
:100C80008860EFCF80912B028061EBCF80912B02A7
:100C90008062E7CF80912B028064E3CF80912B02AA
:100CA0008068DFCF80912B028C60DBCF80912B029C
:100CB0008E7FD7CF80912B028D7FD3CF80912B0257
:100CC0008B7FCFCF80912B02877FCBCF80912B0260
:100CD0008F7EC7CF80912B028F7DC3CF80912B0257
:100CE0008F7BBFCF80912B028F77BBCF80912B0260
:100CF000837FB7CF90912B02892F97FB87F980587C
:100D0000B0CFF8018281882361F010923A010E94ED
:100D1000E016909339018093380182E00E94680CBC
:100D20006CCF80913A0181110FC080913801909170
:100D300039010E94EC16883C910530F486E20E944D
:100D40003D0B86E20E94190C82E00E946F0C55CF89
:100D500080913B0181110FC0809138019091390140
:100D60000E94EC16883C910530F487E20E943D0B0E
:100D700087E20E94190C80E2E8CF0C941E090C94C3
:100D800020090C947C050C94C106089598E0899F75
:100D9000F0011124E70FF11D83E0EE0FFF1F8A958C
:100DA000E1F7E60FF11DEE0FFF1FE455FF4F8591B0
:100DB00094910895FC01EE0FFF1FE455F74F8591C4
:100DC000949108950E94C6060E9453089C018115C3
:100DD00040E4940708F097C0211580E3380708F035
:100DE000FAC0203E310508F074C0203C310508F0FF
:100DF000E5C0283A310588F4253A310508F0E2C00B
:100E00002130310509F477C0C9010497813A910571
:100E100008F471C030E020E06EC0C901885A910921
:100E20004597C0F7283A310509F4FEC0293A310543
:100E300009F4FDC02A3A310509F4FCC02B3A31050A
:100E400009F4FBC02C3A310509F4FAC02B3B3105FB
:100E500009F4F9C02C3B310509F4F8C02D3A3105ED
:100E600009F4F7C0203B310509F4F6C02E3A3105EC
:100E700009F4F5C02F3A310509F4F4C0213B3105DE
:100E800009F4F3C0223B310509F4F2C0233B3105DC
:100E900009F4F1C0243B310509F4F0C0253B3105CC
:100EA00009F4EFC0263B310509F4EEC0273B3105BC
:100EB00009F4EDC0283B310509F4ECC0293B3105AC
:100EC00009F4EBC02A3B310509F4EAC020E034E420
:100ED00012C0211590E2390780F42F3F310509F047
:100EE00050F4283E310538F0C901805F9109306522
:100EF000409708F08FCFC9010895C9019F700E94E3
:100F0000DA069C01F8CF8115944508F041C02115FF
:100F100083E5380708F06AC0211592E5390738F5EE
:100F2000211541E5340708F05CC0211580E538073C
:100F300008F454C0C90134E0969587953A95E1F7D5
:100F40008370422F46954695437090E2499FA001D9
:100F50001124582B822F837021E030E002C0220F31
:100F6000331F8A95E2F7242B352B3C68C4CFC90187
:100F70008370992741E050E002C0440F551F8A95C5
:100F8000E2F72695269580E2289F90011124EBCF69
:100F9000211596E5390748F4922F88272115354504
:100FA000C8F59C01246F306AA6CFC90190563F70E6
:100FB0008115904108F02ECF30629DCFC901805C31
:100FC00091099DCF253A310549F1263A310549F578
:100FD00022E830E490CF3327306C8DCF3F70306AF9
:100FE0008ACF322F2227216F306A85CFC9018370C3
:100FF000992741E050E002C0440F551F8A95E2F75F
:101000002695269580E2289F90011124242B352BCC
:101010003A6871CF88279F719C01CECF21E830E4D8
:101020006ACF23E830E467CF22EE34E464CF29EEC0
:1010300034E461CF2AEE34E45ECF25EB34E45BCFB9
:1010400026EB34E458CF23EB34E455CF24EB34E4DF
:1010500052CF27EB34E44FCF2CEC34E44CCF2DECC3
:1010600034E449CF23E835E446CF2AE835E443CFDA
:1010700022E935E440CF24E935E43DCF21E236E4EE
:101080003ACF23E236E437CF24E236E434CF25E208
:1010900036E431CF26E236E42ECF27E236E42BCFFA
:1010A0002AE236E428CF803E910581F1C8F48133ED
:1010B000910509F462C048F48932910509F456C0DB
:1010C0008A32910509F460C0089589339105B9F019
:1010D00082389105A1F08533910509F440C0089547
:1010E000863E910561F138F4823E9105B1F0833E70
:1010F0009105E1F00895873E910551F10895209101
:101100002B022370D9F080EE90E0089520912B02FD
:1011100020FF14C089E390E0089520912B0222FF64
:101120000DC024FD09C083EE90E0089520912B02AC
:1011300022FD31C024FF02C090E080E0089520919C
:101140002B0223FFFBCF24FDF7CF87EE90E008951D
:1011500020912B0223FFEECF86EE90E008952091A0
:101160002B0225FFEBCF89E290E0089520912B021E
:1011700025FFE4CF85E390E0089520912B0226FF20
:10118000DDCF8AE290E0089520912B0226FFD6CF92
:1011900081E390E0089582EE90E0089508950F9322
:1011A0001F93CF938C01FB018281811106C0C1E0A6
:1011B0008C2FCF911F910F910895C0914901C111BA
:1011C00025C00531104799F70E94CE0881E0809331
:1011D00049010E94E01690934801809347011092C4
:1011E0003C0110923E0110923D011092400110927C
:1011F0003F0110924201109241011092440110925D
:1012000043011092460110924501D2CF80914701CF
:10121000909148010E94EC16883C910540F680911F
:101220003C01E82FF0E0EE0FFF1FE35CFE4F11835F
:1012300000838F5F80933C01C0E0BACF0C947805A7
:101240000C94790585B7806885BF85B7806885BFB0
:10125000ABE1B1E061E070E08D91E82FE295EF70D5
:10126000F0E041A18F709B0101C0220F8A95EAF73F
:10127000922F9095942391A382A1822B82A381E047
:10128000A332B80749F7A3E1B1E061E070E08D91C6
:10129000E82FE295EF70F0E041A18F709B0101C053
:1012A000220F8A95EAF7922F9095942391A382A119
:1012B000822B82A381E0AB31B80749F7E2E5F1E088
:1012C000AAE4B1E08AE591E011921D928E179F0782
:1012D000D9F70C94BD064F925F926F927F928F92D6
:1012E0009F92AF92BF92CF92DF92EF92FF920F93B5
:1012F0001F93CF93DF930AE411E08BE1C82E81E0C6
:10130000D82E2801EE24E394F12CBB24B394D2010F
:101310009D902D011E92E60189916E01E82FE295C4
:10132000EF70F0E091A18F70970101C0220F8A95B4
:10133000EAF7892F822B81A382A1822E80948821B3
:1013400082A3D0EADA95F1F763E171E090E080E002
:10135000EB01A990BE014A2D42954F7050E0EA0181
:1013600068A07C905A2D5F70E70102C0CC0FDD1F92
:101370005A95E2F7AE01462109F04FC04E2D082ED6
:1013800001C0440F0A94EAF747294C93019688302C
:101390009105F1F681A1882181A382A1282B22A3A6
:1013A0008C91981641F0B0925A010E94E0169093E9
:1013B0005C0180935B01D2E54D16D1E05D0609F03A
:1013C000A6CF80915A018823A1F080915B01909172
:1013D0005C010E94EC16069760F0E2E5F1E0D801AE
:1013E0008D918D018193B1E002351B07C1F71092F9
:1013F0005A010E94BF0681E0DF91CF911F910F91AA
:10140000FF90EF90DF90CF90BF90AF909F908F9024
:101410007F906F905F904F90089540E0B5CFE82F98
:10142000F0E0EE5AFE4F8081089508959093620196
:10143000809361010895E0916101F091620130971C
:1014400021F00190F081E02D099480E00895E09171
:101450006101F0916201309721F00280F381E02D6B
:1014600009940895E0916101F0916201309721F0B3
:101470000480F581E02D0994089520915F01309159
:1014800060012817390771F09093600180935F0124
:10149000E0916101F0916201309721F00680F781BF
:1014A000E02D0994089520915D0130915E01281787
:1014B000390771F090935E0180935D01E0916101C5
:1014C000F0916201309721F00084F185E02D0994BC
:1014D000089508950C94690A0E94D7160E94220963
:1014E0000C949917BF92CF92DF92EF92FF920F93D5
:1014F0001F93CF93DF9300D000D00F92CDB7DEB70C
:101500000E946B0984E6C82E81E0D82E10E000E02E
:10151000E02E802F0E940F0AB82EF601F1906F0185
:10152000F81609F45BC08091FA0181FD0E94150A4A
:1015300030E020E0FB244F2D50E0922FBA01022E24
:1015400002C0759567950A94E2F760FF41C0298350
:10155000EA8221E030E0790102C0EE0CFF1C9A958E
:10156000E2F72B2D30E02E213F2181E0232B09F4DF
:1015700080E08B830E94E0168160782F9D838C83AE
:1015800049815A816B818D810E94140BF801EC59BD
:10159000FE4F80818E2580830E94461A0E941B0A7E
:1015A00090916301891789F10E941B0A809363015E
:1015B0000F900F900F900F900F90DF91CF911F9190
:1015C0000F91FF90EF90DF90CF90BF900C94C306E7
:1015D0002F5F3F4F2830310509F0AFCF0F5F1F4F0E
:1015E0000830110509F094CF8FEF89838A831B821D
:1015F0000E94E0168160782F9D838C8349815A81F7
:101600006B818D810E94140BC7CF0F900F900F90AC
:101610000F900F90DF91CF911F910F91FF90EF905E
:10162000DF90CF90BF900895CF93DF93CDB7DEB713
:101630002B970FB6F894DEBF0FBECDBF4F835887F0
:1016400069877A878B871E8285E0FE013796DE01E7
:10165000119601900D928A95E1F749815A816B812B
:101660007C818D819E812B960FB6F894DEBF0FBED4
:10167000CDBFDF91CF910C948B11882309F4D8C092
:10168000823871F40E941B0A81FDD2C089E30E9456
:101690002F150E94F91589E30E946C150C94F91519
:1016A000833859F40E941B0A80FDC2C083E50E9462
:1016B0002F150E94F91583E5EFCF843859F40E9465
:1016C0001B0A82FDB5C087E40E942F150E94F91500
:1016D00087E4E2CF9CEF980F913A18F40E942F15FF
:1016E000DDCF90E2980F983050F4877091E001C000
:1016F000990F8A95EAF7892F0E94B015CFCF9BE505
:10170000980F933070F4853A31F0863A39F083E8D7
:1017100090E00C943D0A81E890E0FBCF82E890E0F5
:10172000F8CF98E5980F953108F082C0883A09F40F
:1017300040C0893A09F440C08A3A09F440C08B3A63
:1017400009F440C08C3A09F440C08B3B09F440C016
:101750008C3B09F440C08D3A09F440C0803B09F449
:1017600040C08E3A09F440C08F3A09F440C0813B32
:1017700009F440C0823B09F440C0833B09F440C0F7
:10178000843B09F440C0853B09F440C0863B09F422
:1017900040C0873B09F440C0883B09F440C0893B06
:1017A00009F440C08A3B09F440C090E080E00C940A
:1017B000530A82EE90E0FBCF89EE90E0F8CF8AEEFC
:1017C00090E0F5CF85EB90E0F2CF86EB90E0EFCFA5
:1017D00083EB90E0ECCF84EB90E0E9CF87EB90E0F7
:1017E000E6CF8CEC90E0E3CF8DEC90E0E0CF83E8A7
:1017F00091E0DDCF8AE891E0DACF82E991E0D7CFBE
:1018000084E991E0D4CF81E292E0D1CF83E292E00B
:10181000CECF84E292E0CBCF85E292E0C8CF86E2E1
:1018200092E0C5CF87E292E0C2CF8AE292E0BFCFDA
:101830000895882309F44BC0823871F40E941B0A72
:1018400081FF45C089E30E942F150E94F91589E3A5
:101850000E946C150C94F915833859F40E941B0AE8
:1018600080FF35C083E50E942F150E94F91583E59E
:10187000EFCF843859F40E941B0A82FF28C087E406
:101880000E942F150E94F91587E4E2CF9CEF980F74
:10189000913AF0F290E2980F983050F4877091E00E
:1018A00001C0990F8A95EAF7892F0E94B615D2CF09
:1018B0009BE5980F933020F490E080E00C943D0A73
:1018C000885A853120F490E080E00C94530A089502
:1018D000882321F00E94B0150C94F91508958823EF
:1018E00021F00E94B6150C94F91508958F929F92DD
:1018F000AF92BF92DF92EF92FF920F931F93CF931D
:10190000DF9300D000D00F92CDB7DEB77C016D839E
:101910007983FC01058102950F70128111110E94DB
:10192000CF150E942815D82E882371F01123A1F01D
:101930008D81805E883080F082E00E9412150E94C6
:10194000281591E0D82ED926E981E295EF70F0E0D4
:10195000EF53FC4D0C945D23D12CF6CF09810F7011
:10196000F981F07F11F00295007F1123B1F000237F
:1019700061F08D81805E883018F02D81211109C0C1
:10198000802F0E94B0150E94F9158D810E943D0B99
:1019900015C0802F0E94C115F6CF8D810E94190CB1
:1019A000002361F08D81805E883018F03D81311117
:1019B00029C0802F0E94B6150E94F915DD2009F478
:1019C000D3C10E94051580FDCFC1F70112820E948C
:1019D000FF140E944913C7010E94C50E0E94FF1404
:1019E0000F900F900F900F900F90DF91CF911F915C
:1019F0000F91FF90EF90DF90BF90AF909F908F90EE
:101A00000C946B13802F0E94C715D6CF49814F705D
:101A1000B42E5981507F503219F0B29480EFB82221
:101A20008D81882369F0813029F1112369F1002328
:101A300059F0F701858180FFA8CF8F70858304C09E
:101A4000112361F0011104C08B2D0E94680CB6CFE8
:101A50008B2D0130D1F70E94E315B0CF011106C0E4
:101A60000E94E6158B2D0E946F0CA8CF013009F45F
:101A7000A5CFF6CF112321F0063008F09FCFE4CF99
:101A8000053008F09BCFEECF002361F38D810E94DB
:101A9000190C94CF898186958695837069F0813081
:101AA00009F08CCF8D8199819370111102C090E063
:101AB00080E00E94530A82CF8D8199819370111129
:101AC00002C090E080E00E943D0A78CF8D81112312
:101AD00029F00E9454190E943B1A70CF0E94BC1931
:101AE000FACF8981837009F05FC0111167CF2D8112
:101AF000229526952770220F220F8D818F7090E0FE
:101B0000B0E0A0E04C015D01022E04C0880C991CDD
:101B1000AA1CBB1C0A94D2F7FD8160E070E0CB01E7
:101B2000F4FF0FC06FE070E080E090E004C0660F4B
:101B3000771F881F991F2A95D2F760957095809519
:101B4000909529812695269523702D832230B1F01A
:101B5000233019F19B01AC01282939294A295B2935
:101B600029833A834B835C833D8169817A818B81B0
:101B70009C813130B1F00E94D61220CF9B01AC0184
:101B8000282939294A295B2929833A834B835C8395
:101B9000CA01B9010E94001311CF0E94D612C501DB
:101BA000B4010E94AC120ACF8695112311F08981ED
:101BB0008170882309F402CF2D8122952695277004
:101BC000220F220F8D818F7090E0B0E0A0E04C01D9
:101BD0005D01022E04C0880C991CAA1CBB1C0A942F
:101BE000D2F73D8160E070E0CB0134FF0FC06FE0C1
:101BF00070E080E090E004C0660F771F881F991F97
:101C00002A95D2F760957095809590954981469573
:101C1000469543704D834230B1F0433019F19B013A
:101C2000AC01282939294A295B2929833A834B8326
:101C30005C833D8169817A818B819C813130B1F0F7
:101C40000E94DC13BBCE9B01AC01282939294A290B
:101C50005B2929833A834B835C83CA01B9010E94C3
:101C60000614ACCE0E94DC13C501B4010E94B2136D
:101C7000A5CE3D81323F09F447C080F4303F79F171
:101C8000313FD9F1832F805E8031D0F0112309F4E8
:101C900056C001117ACE89818F7133C04D81433F87
:101CA000D1F1443F99F7112309F43FC089818F7125
:101CB00089830E94491363E089810E9409157ECEC1
:101CC0005D815F705D8389818F71112321F00E9496
:101CD00049138D81BACE0E946B138D81C4CE11231E
:101CE00041F0053008F06ACE89818F710E9490130F
:101CF00065CE063008F062CEF7CF89818F7111234F
:101D000039F00E9449135ACE89818F711123C9F38A
:101D10000E946B1353CE112329F089818F710E9489
:101D200034134CCE0E942A1349CE81E00E94121532
:101D3000023008F443CE82E00E9412153FCE01111A
:101D4000A5CE89818F71E4CF49814F706D81C70124
:101D50000E9475050E94251231CE49814F706D8118
:101D6000C7010E94C5062ACE0F900F900F900F90CA
:101D70000F90DF91CF911F910F91FF90EF90DF9027
:101D8000BF90AF909F908F9008950F931F93CF9324
:101D9000DF93EC018B819C81892B29F088819981CB
:101DA00089238F3F29F4DF91CF911F910F910895DF
:101DB000CE010E948E058823B1F3688179818A81E2
:101DC0000E94D5148C010E9430140E94A112B80107
:101DD000CE01DF91CF911F910F910C94760C0E9450
:101DE000CF150E94E0150E94A2150E94F9150E94CD
:101DF0002C1B0E943B1A90E080E00E943D0A90E07C
:101E000080E00C94530A0E94BE150C94EF0E0E94C1
:101E1000C914282F892F82958F70903C80F48A30C6
:101E2000B0F4843020F4823090F480E0089586305D
:101E3000E1F781E0203E88F0213FB9F70EC08C30F9
:101E400011F08F3091F793FB882780F9089581E096
:101E5000203F39F018F4203E40F70895243F29F739
:101E6000FCCF0895CF93DF9300D000D00F92CDB771
:101E7000DEB70F900F900F900F900F90DF91CF91E2
:101E80000895CF93DF9300D000D000D0CDB7DEB758
:101E900026960FB6F894DEBF0FBECDBFDF91CF916F
:101EA00008951F93CF93DF93E0916D0116E0809129
:101EB0006E018E1304C0DF91CF911F910895CE2F34
:101EC000D0E01E9FF0011124E159FE4F4081518165
:101ED00062817381848195810E94410FFE01319658
:101EE000E770E5CF40919F015091A0016091A10161
:101EF0007091A2018091A3019091A4010C94410FD3
:101F00001F93CF93DF938091A401807FC1F48091D0
:101F1000A1018823A1F080916D01C0916E016091B3
:101F20009F017091A0014091A2015091A301D62F71
:101F3000D723DA01A095B09516E0C81304C0DF914D
:101F4000CF911F91089590E04115510511F0DF3FA9
:101F500031F401968770F1CF2A0F3B1F17C0189FED
:101F6000F001199FF00D1124E159FE4F2181271333
:101F7000F0CF20812613EDCF22812111EACF2381DA
:101F800034812417350740F3241B350B283C3105D9
:101F900000F72091A4012F7020612093A40126E076
:101FA000289FF001299FF00D1124EC58FE4F8081ED
:101FB0008F70806180838FE991E00E94C50EDF9170
:101FC000CF911F910C94510F9F92AF92BF92CF92DD
:101FD000DF92EF92FF920F931F93CF93DF93CDB7D2
:101FE000DEB72B970FB6F894DEBF0FBECDBF8C01C6
:101FF00085E0F801DE01179601900D928A95E1F7D0
:10200000D8014C9111965C9111971296EC90129711
:102010008091A2019091A301009709F46BC12091D6
:102020009F013091A001632F62236F3F09F462C1C9
:102030001396CD90DC909090A101992009F4F8C0FE
:10204000C816D90608F43FC0F601E81BF90BCF010A
:10205000FF24F394883C910508F0F12C8FE9A82E19
:1020600081E0B82E8091A401982F907FFF2009F481
:10207000B7C0911180C0FE2C35132AC0241328C08C
:10208000E11026C08F7080618093A4010E94720FBE
:10209000C5010E94C50E8091A401D80115968C93AC
:1020A0008F2D2B960FB6F894DEBF0FBECDBFDF91FC
:1020B000CF911F910F91FF90EF90DF90CF90BF9045
:1020C000AF909F900895809590958C0D9D1DC0CFE9
:1020D000CD2829F0842F85238F3F09F019C180E096
:1020E000B82FB170DB2EE0916D0120916E0136E0CA
:1020F00080FD1CC0EE20A1F28091A401816080933C
:10210000A401F12CCDCF8E2F90E03E9FF001112441
:10211000E159FE4F6181651306C06081641303C0FD
:1021200062816E11E7CFFC013196E770E213EBCFCD
:102130004F8358878F8198850E94C914292F229533
:102140002F70903260F0225F2F70223078F49F70F1
:1021500051F0F8019581907F31F4D12C0AC09F7025
:1021600011F08823D1F3805E8830B8F3C8010E9453
:10217000C50EFD2C95CF351306C0241304C0D8011D
:10218000EE2009F47BC04F8358878F8198850E9489
:10219000070F882309F4B8C0EE2009F4B5C0809178
:1021A000A401803270F020919F013091A0013A8308
:1021B00029831B82DD82CC828E83CE0101960E9410
:1021C000C50E86E0F801AFE9B1E001900D928A9565
:1021D000E1F70E94800F0E94720FFF24F39460CFFA
:1021E000911113C07C2DDB86CA866E2D8B850E94D3
:1021F000320F8FE991E00E94C50E86E0F501119241
:102200008A95E9F70E94720F4BCF3513BCCF241388
:10221000BACFE110B8CFD80115968C93C8010E94AF
:10222000C50E86E0F50111928A95E9F7F92C38CFB1
:10223000C816D90688F1B601681B790BCB01F12CC1
:10224000883C910508F047C0FE2CEE2009F45CC0E4
:10225000351330C024132EC08091A40180FD21C00D
:10226000982F907FF1F0D80115968C931597903F99
:1022700039F0982F907F905F8F70892B15968C93F3
:10228000C8010E94C50E86E0F801AFE9B1E00190F7
:102290000D928A95E1F7B6CF809590958C0D9D1D96
:1022A000CECF86E0F801AFE9B1E001900D928A95BA
:1022B000E1F7F6CE4F8358878F8198850E94070FEC
:1022C00081117FCF8091A40181608093A401C80116
:1022D0000E94C50EE5CE7C2DDB86CA866E2D8B85D1
:1022E0000E94320F86E0EFE9F1E0DF011D928A954E
:1022F000E9F788CFEE2041F04F8358878F8198858A
:102300000E94070F81115DCFC8010E94C50E65CFE5
:1023100081E08E25E5CE1F93CF93DF93CDB7DEB757
:102320002C970FB6F894DEBF0FBECDBF4F835887F2
:1023300069877A878B879C87CE0107960E94E40F76
:10234000882369F08A859B85892B39F04F815885D0
:10235000842F85238F3F09F071C016E05FC086E0AF
:10236000FE013796DE01119601900D928A95E1F7F4
:102370008A859B85892B89F388859F8189238F3F57
:1023800061F320916E0130E0C901019687709927B1
:1023900040916D014817190671F40E94030F1092C5
:1023A0006E0110926D0186E0EFE9F1E0DF011D9210
:1023B0008A95E9F7D2CF96E0929FD001939FB00D16
:1023C0001124A159BE4FFE01319601900D929A95AC
:1023D000E1F780936E010E94510FBFCF819FC00132
:1023E000112481599E4F0E94E40F8823E9F0E09167
:1023F0006D011E9FF0011124E159FE4F4081518172
:1024000062817381848195810E94410F80916D0169
:1024100090E001968770992780936D0180916D01FE
:1024200090916E018913DACF2C960FB6F894DEBF27
:102430000FBECDBFDF91CF911F91089569857A8539
:102440008B859C850E94410F88CFEF92FF920F935E
:102450001F93CF93DF938C01892B89F0F12CEE240D
:10246000E394E8012196F8018491843709F457C078
:10247000A0F4823009F43EC048F48130D1F0DF91FD
:10248000CF911F910F91FF90EF9008959CEF980FBF
:102490009037A8F70E943D0B0AC0853709F44CC05D
:1024A0009CE7980F903758F78F770E94190C8E0190
:1024B00016C00E5F1F4FFE01849190E2980F983076
:1024C00060F48770FE2D01C0FF0F8A95EAF78F2F09
:1024D0000E94D2150E94F91502C00E943D0B8F2D5B
:1024E000815008F4BECFEFE9FFE03197F1F700C06B
:1024F0000000F6CF0E5F1F4FFE01849190E2980F0F
:10250000983050F48770FE2D01C0FF0F8A95EAF7CE
:102510008F2F0E94D815DECF0E94190CE0CF0E5FDE
:102520001F4FFE01C491C150D0F28FE99FE0019787
:10253000F1F700C00000F7CF0E5F1F4FFE01F490CF
:10254000CECF08956093D1017093D2018093D301CF
:102550009093D4010C94EF0ECF93DF9300D000D072
:10256000CDB7DEB769837A838B839C838091D10159
:102570009091D201A091D301B091D40129813A81E7
:102580004B815C81822B932BA42BB52B8093D101A3
:102590009093D201A093D301B093D4010F900F90E8
:1025A0000F900F90DF91CF910C94EF0ECF93DF93AC
:1025B00000D000D0CDB7DEB769837A838B839C834C
:1025C0008091D1019091D201A091D301B091D40119
:1025D00029813A814B815C8182239323A423B523F3
:1025E0008093D1019093D201A093D301B093D401F1
:1025F0000F900F900F900F90DF91CF910C94EF0EF2
:10260000CF93DF9300D000D0CDB7DEB769837A8354
:102610008B839C838091D1019091D201A091D301B1
:10262000B091D40129813A814B815C818227932723
:10263000A427B5278093D1019093D201A093D30111
:10264000B093D4010F900F900F900F90DF91CF9126
:102650000C94EF0E1092CD011092CE011092CF018A
:102660001092D0010C94EF0E41E050E060E070E079
:1026700004C0440F551F661F771F8A95D2F74093F9
:10268000CD015093CE016093CF017093D0010C9493
:10269000EF0E282F81E090E0A0E0B0E004C0880FAA
:1026A000991FAA1FBB1F2A95D2F74091CD015091C7
:1026B000CE016091CF017091D001842B952BA62B78
:1026C000B72B8093CD019093CE01A093CF01B0930F
:1026D000D0010C94EF0E41E050E060E070E004C0E7
:1026E000440F551F661F771F8A95D2F74095509566
:1026F000609570958091CD019091CE01A091CF0110
:10270000B091D00184239523A623B7238093CD01D4
:102710009093CE01A093CF01B093D0010C94EF0E13
:10272000282F81E090E0A0E0B0E004C0880F991F5E
:10273000AA1FBB1F2A95D2F74091CD015091CE011F
:102740006091CF017091D00184279527A627B727E4
:102750008093CD019093CE01A093CF01B093D0018F
:102760000C94EF0ECF93DF9300D000D0CDB7DEB73F
:1027700069837A838B839C838091CD019091CE0174
:10278000A091CF01B091D00129813A814B815C8128
:10279000822B932BA42BB52B8093CD019093CE014C
:1027A000A093CF01B093D0010F900F900F900F9096
:1027B000DF91CF910C94EF0ECF93DF9300D000D038
:1027C000CDB7DEB769837A838B839C838091CD01FB
:1027D0009091CE01A091CF01B091D00129813A8191
:1027E0004B815C8182239323A423B5238093CD0165
:1027F0009093CE01A093CF01B093D0010F900F9092
:102800000F900F90DF91CF910C94EF0ECF93DF9349
:1028100000D000D0CDB7DEB769837A838B839C83E9
:102820008091CD019091CE01A091CF01B091D001C6
:1028300029813A814B815C8182279327A427B52780
:102840008093CD019093CE01A093CF01B093D0019E
:102850000F900F900F900F90DF91CF910C94EF0E8F
:102860000895990F990F990FE92FE80F877041E0AC
:1028700001C0440F8A95EAF7E695E695E69585E06E
:10288000E89FF0011124EB55FE4F30E020E070E0AE
:102890005191DF011197CB01022E02C096958795C9
:1028A0000A94E2F7817081958527842385278C938C
:1028B0002F5F3F4F2530310559F70895E92FEE0F6F
:1028C000EE0FEE0FE80F982F9770E695E695E695D8
:1028D00085E0E89FF0011124EB55FE4F50E040E009
:1028E00080E0219130E0092E02C0369527950A94A8
:1028F000E2F721703327042E01C0220F0A94EAF771
:10290000822B4F5F5F4F4530510559F70895BF92B5
:10291000CF92DF92EF92FF920F931F93CF93DF93AB
:102920008C01C090CD01D090CE01E090CF01F0900D
:10293000D0018091D1019091D201A091D301B091A9
:10294000D401C82AD92AEA2AFB2ACFE1D0E0BC2E3A
:10295000D701C6010C2E04C0B695A795979587950B
:102960000A94D2F780FD0EC0219788F7B12C8B2DE9
:10297000DF91CF911F910F91FF90EF90DF90CF905B
:10298000BF900895B8018C2F0E94E206019761F371
:10299000EECFCF93DF93D82FC92F0E9487146D2FCE
:1029A0007C2FDF91CF910C94E2061F93CF93DF939E
:1029B000162FD72F90916C01992339F0862F972FDE
:1029C000DF91CF911F910C94C914882391F0862F29
:1029D000972F0E948714C82F682F812F9D2F0E9448
:1029E0003114612F7D2F8C2FDF91CF911F910C948B
:1029F000E206862F972F0E945E14C82FF2CF809197
:102A0000D50185958595859508958091D501877027
:102A1000089598E0899F90011124622B6093D5015D
:102A20000C9449139091D501809589238093D50109
:102A3000282F277061F4282F082E000C330B9217D3
:102A4000130629F08595859585950C946B1308954B
:102A50009091D501977081E009F480E008959091FC
:102A600012019923E1F090912B0297FF18C0E82FF3
:102A7000E695E695E695EF3139F120910001309128
:102A80000101E20FF32FF11D877021E030E001C05A
:102A9000220F8A95EAF78181822B81830895209104
:102AA000000130910101F90132969FEF40E0519110
:102AB000851751F09F3F19F4511101C0942F4F5FBA
:102AC0004E31A9F79F3F09F40895290F311D97FD55
:102AD0003A95F9018283089590911201992301F1A9
:102AE00090912B0297FF1CC0E82FE695E695E6959E
:102AF000EF3139F12091000130910101E20FF32F04
:102B0000F11D877021E030E0A90102C0440F551F7C
:102B10008A95E2F7CA01809591818923818308957E
:102B20002091000130910101F9013296205E3F4F62
:102B30009191891303C0DF0111971C92E217F307EB
:102B4000B9F7089581E090E0E0910001F091010172
:102B5000E80FF91F1082019680329105A9F70895B8
:102B60009091F901982B9093F9010895982F9095E1
:102B70008091F90189238093F90108951092F90158
:102B800008959091F801982B9093F8010895982F4B
:102B900090958091F80189238093F801089510920F
:102BA000F80108959091F701982B9093F7010895FB
:102BB000982F90958091F70189238093F7010895CC
:102BC0001092F70108958093D60108951092D601CE
:102BD00008952091000130910101F9013196205EA4
:102BE0003F4F80E0919191118F5FE217F307D1F78A
:102BF0000895E0910001F09101018091F901808335
:102C0000E0910001F091010180819091F801892B00
:102C10008083E0910001F091010180819091F701A2
:102C2000892B80839091D601992361F0E091000176
:102C3000F09101018081892B80830E94E915811127
:102C40001092D60180910001909101010C94270A05
:102C50006DEE7EEF90E080E00E94972360E082E0DE
:102C600090E00E94852360E083E090E00E9485234D
:102C700060E084E090E00E94852360E085E090E0E1
:102C80000C94852390E080E00E947F239C0181E0EA
:102C90002D3E3E4F09F080E0089582E090E00C94D4
:102CA0007723682F82E090E00C94852383E090E006
:102CB0000C947723682F83E090E00C94852384E0C4
:102CC00090E00C947723682F84E090E00C948523A7
:102CD00080913102843039F11092FB0188E190E05B
:102CE00020E40FB6F894A895809360000FBE20935F
:102CF000600080E00E94C30683B7817F846083BF49
:102D000083B7816083BF7894889583B78E7F83BFB4
:102D10000FB6F894A8958091600088618093600058
:102D2000109260000FBE089508950895CF930E94F9
:102D300094160E946B090E949516C0E08C2F0E9489
:102D40000F0A811105C0CF5FC830C1F7CF91089538
:102D500081E0FCCF0E94030F0E941B0A0C94C30663
:102D60001F921FB61F9211248F939F93AF93BF930F
:102D70008091FB01811113C080912702909128025C
:102D8000A0912902B0912A024196A11DB11D809304
:102D9000270290932802A0932902B0932A02BF91A0
:102DA000AF919F918F911F901FBE1F90189582E049
:102DB00084BD93E095BD9AEF97BD80936E00089512
:102DC0002FB7F8948091270290912802A0912902B0
:102DD000B0912A022FBF0895CF92DF92EF92FF9217
:102DE0009C014FB7F8948091270290912802A091FE
:102DF0002902B0912A024FBF6C017D01EE24FF240D
:102E0000A90170E060E0C416D506E606F70638F0C2
:102E1000821B930BFF90EF90DF90CF900895019766
:102E2000F7CF1F921FB61F9211248F939F93AF93DA
:102E3000BF938091270290912802A0912902B0911E
:102E40002A020196A11DB11D8093270290932802AA
:102E5000A0932902B0932A02BF91AF919F918F91C5
:102E60001F901FBE1F9018950E94201FF8942FEFEF
:102E700087EA91E6215080409040E1F700C00000D1
:102E800087E090EBDC0180933A0290933B02A093A1
:102E90003C02B0933D0288E19CE00FB6F894A895FF
:102EA000809360000FBE90936000FFCFCF92DF92BF
:102EB000EF92FF920F931F93CF93C0E0E82EF12C77
:102EC0008C2F0E940F0A10E000E0C82ED12CC60102
:102ED000002E02C0959587950A94E2F780FF11C0F5
:102EE000602F7C2F80E00E94C606E816F90649F4A0
:102EF00081E0CF911F910F91FF90EF90DF90CF90E5
:102F000008950F5F1F4F0830110509F7CF5FC830D4
:102F1000B9F680E0EECFCF93C82F8CE20E9456170F
:102F2000882321F08C2FCF910C94561780E0CF91FD
:102F30000895CF93DF9300D000D0CDB7DEB70E94C5
:102F40004216811102C00E94281695E6998308C096
:102F50000E946B098FE39CE90197F1F700C0000024
:102F6000A981A150A983A111F3CF89E20E948B17F7
:102F7000811110C18AE20E948B1781110E942816CC
:102F800085E00E948B1781110E9434170E944D1614
:102F90008093FA0187E00E948B17882371F08BE100
:102FA0000E948B17882309F4D1C09091FA01892FD0
:102FB0008D7F91FF82608093FA018091FA010E94D7
:102FC00051160E945F1690E090932C0280932B0282
:102FD00080EE0E948B17882341F090912B02892F5D
:102FE0008E7F90FF816080932B0289E30E948B1774
:102FF000882341F090912B02892F8D7F91FF826071
:1030000080932B0282EE0E948B17882341F09091CF
:103010002B02892F8B7F92FF846080932B0286EE98
:103020000E948B17882341F090912B02892F877F74
:1030300093FF886080932B0283EE0E948B17882376
:1030400041F090912B02892F8F7E94FF80618093B5
:103050002B0285E30E948B17882341F090912B026D
:10306000892F8F7D95FF806280932B0281E30E94E0
:103070008B17882341F090912B02892F8F7B96FF2D
:10308000806480932B0281E10E948B17882341F09A
:1030900090912B02892F97FB87F9805880932B0200
:1030A00080912B020E94631687E20E948B1789830E
:1030B0008EE10E948B17882319F0B981B260B98321
:1030C0008FE10E948B17882319F0298124602983BE
:1030D00080E20E948B17882319F039813860398388
:1030E00081E20E948B17882319F04981406149834E
:1030F00082E20E948B17882319F05981506259830C
:1031000083E20E948B17882319F089818064898368
:1031100084E20E948B178823B1F19981906899838A
:1031200089810E945A163981232F30E050E040E017
:1031300029833A834B835C83CA01B9010F900F90B6
:103140000F900F90DF91CF910C94A2128EE00E940D
:103150008B17882339F09091FA01892F8B7F92FF8A
:10316000846029CF80E10E948B179091FA01882317
:1031700029F0892F877F93FF88601DCF892F8E7F4D
:1031800090FF816018CFA981A111CACF0E94561665
:10319000282FCBCF0F900F900F900F90DF91CF91F2
:1031A00008958091FE0180FF12C06091050185E0C5
:1031B000689FB0011124759567957595679560387E
:1031C0007105A8F561157105A1F1862F089581FF9C
:1031D00009C06091050185E0689FB00111247595D3
:1031E0006795EDCF6091050182FD0AC08091FF01D6
:1031F0008823D1F09091040160910501891728F08E
:1032000085E0689FB0011124DACF869FB0011124B8
:1032100085E0869F9001879F300D1124692F70E013
:10322000C9010E944923CBCF65E070E0CECF8FE784
:10323000089581E008958091FE0180FF0CC06091A7
:10324000030170E075956795759567956115710532
:1032500049F1862F089581FF06C06091030170E057
:1032600075956795F3CF6091030182FD0BC0909136
:10327000FF019923A1F0609102018091030196174B
:1032800038F0682F70E06038710500F38FE708951B
:10329000899FC001112470E00E944923F4CF61E0AE
:1032A00070E0D7CF81E00895803F31F40E94D118BB
:1032B0008195809302020895813F19F40E94D118EC
:1032C000F8CF823F31F40E94D1188195809301029A
:1032D0000895833F19F40E94D118F8CF893F29F44B
:1032E0000E941B198093030208958A3F21F40E94D3
:1032F0001B198195F7CF8B3F31F40E941B198195E3
:103300008093040208958C3F19F40E941B19F8CF92
:10331000843F31F48091000281608093000208951F
:10332000853F21F4809100028260F7CF863F21F42F
:10333000809100028460F1CF873F21F480910002E8
:103340008860EBCF883F21F4809100028061E5CF57
:103350008D3F31F48091FE0181608093FE010895DC
:103360008E3F21F48091FE018260F7CF8F3FB9F745
:103370008091FE018460F1CF90910102803F41F481
:103380008091020287FD10920202992371F0089544
:10339000813F29F4809102021816ACF3F6CF823FE8
:1033A00081F497FFF2CF1092010280910202909176
:1033B0000302892B90910402892B49F71092FF0197
:1033C0000895833F19F4191674F3DFCF893F39F458
:1033D000809103021816CCF610920302D6CF8A3FD2
:1033E00029F48091030287FFD0CFF6CF8B3F39F4C9
:1033F0008091040287FFC9CF10920402C6CF8C3F90
:1034000029F4809104021816BCF3BFCF843F31F435
:10341000809100028E7F80930002B7CF853F21F418
:10342000809100028D7FF7CF863F21F480910002CA
:103430008B7FF1CF873F21F480910002877FEBCF14
:10344000883F21F4809100028F7EE5CF8D3F31F4DB
:103450008091FE018E7F8093FE0197CF8E3F21F4F5
:103460008091FE018D7FF7CF8F3F09F08ECF809145
:10347000FE018B7FF0CF80E092E00E94320A0E9432
:10348000E0169093FD018093FC0108951F93CF9364
:10349000DF9300D000D000D0CDB7DEB78091FC0123
:1034A0009091FD010E94EC16AC018091FF012091EA
:1034B000060130E0811106C0209107019AE0299FA2
:1034C000900111244217530788F020910102A09126
:1034D0000202A98310910302B0910402BE8321115C
:1034E0000FC09A2F912B9B2B09F0B2C026960FB6D6
:1034F000F894DEBF0FBECDBFDF91CF911F9108952D
:103500008F3F19F08F5F8093FF01121624F40E9401
:10351000D118809301028091010287FF05C00E94AB
:10352000D1188195809301022981121624F40E94FA
:10353000D118809302028091020287FF05C00E9489
:10354000D11881958093020280910102882309F4A9
:1035500055C0309102023D83332309F44FC0282F18
:10356000880F330B440B550B29833A834B835C83C1
:10357000CA01B9010E94502223E333E343E35FE32E
:1035800069837A838B839C8369817A818B819C8117
:103590000E94B42269837A838B839C8369817A81B8
:1035A0008B819C810E941822609301028D81082EDC
:1035B000000C990BAA0BBB0B89839A83AB83BC834A
:1035C000BC01CD010E94502223E333E343E35FE3D8
:1035D00069837A838B839C8369817A818B819C81C7
:1035E0000E94B42269837A838B839C8369817A8168
:1035F0008B819C810E94182260930202111624F490
:103600000E941B19809303028091030287FF05C06B
:103610000E941B198195809303029E81191624F440
:103620000E941B19809304028091040287FF05C049
:103630000E941B1981958093040226960FB6F89478
:10364000DEBF0FBECDBFDF91CF911F910C943B1A0F
:103650008F3F09F057CF68CF85E0E0E0F2E0DF016F
:103660001D928A95E9F71092FF011092FE010895CC
:10367000809125020895CF93DF9300D00F92CDB7AC
:10368000DEB720913102243019F523E029838A83A3
:103690009B832093E9008FEF9091E800815095FD86
:1036A00006C095ED9A95F1F700008111F5CF809154
:1036B000E80085FF0DC050E040E063E070E0CE011F
:1036C00001960E94981D8091E8008E778093E80013
:1036D0000F900F900F90DF91CF910895CF93DF93CC
:1036E00000D00F92CDB7DEB79C01809131028430BB
:1036F00031F582E08983205831093B832A8383E0B6
:103700008093E9008FEF9091E800815095FD06C00D
:1037100095ED9A95F1F700008111F5CF8091E800C1
:1037200085FF0DC050E040E063E070E0CE010196FF
:103730000E94981D8091E8008E778093E8000F909A
:103740000F900F90DF91CF91089520913102243096
:10375000F1F422E02093E9002FEF3091E8002150AE
:1037600035FD06C035ED3A95F1F700002111F5CF92
:103770002091E80025FF0BC050E040E065E070E0DC
:103780000E94981D8091E8008E778093E80008954C
:10379000CF93DF93D82FC92F809131028430F1F479
:1037A000909112019923E9F090912B0297FF19C093
:1037B0008093E9008FEF9091E800815095FD06C05D
:1037C00095E19A95F1F700008111F5CF8091E8001D
:1037D00050E040E060E270E085FD1AC0DF91CF91DB
:1037E000089581E08093E9008FEF9091E800815087
:1037F00095FD06C095ED9A95F1F700008111F5CF82
:103800008091E80085FFEACF50E040E068E070E09A
:103810008D2F9C2F0E94981D8091E8008E778093B9
:10382000E80080E2ED2FFC2FA5E0B2E001900D92C0
:103830008A95E1F7D3CF80913002811109C00E94AF
:10384000201F0E947D1F8091E20084608093E2002F
:103850000895109230020895089508950C94AA16C0
:1038600042E061EC81E00E949C1E42E061EC82E05B
:103870000E949C1E42E061EC83E00E949C1E42E29A
:1038800061EC84E00C949C1E80913302893089F1B4
:1038900048F4823009F494C0833009F44FC0813079
:1038A00041F008958A3009F47BC08B3009F461C07F
:1038B000089580913202813A09F03FC08091E8007A
:1038C000877F8093E8008091360290913702892BA0
:1038D00061F460E285E092E070E00E94E71D809173
:1038E000E8008B778093E800089560E090E080E046
:1038F000F3CF80913202813201F5809136029091AE
:103900003702009711F00397C1F48091E800877F98
:103910008093E8008091E80082FF0BC08091F10065
:10392000809325028091E8008B778093E8000C94C7
:10393000D01E809131028111EDCF08958091320225
:10394000813AD9F78091360290913702892BA9F7F5
:103950008091E800877F8093E8008091E80080FFF5
:10396000FCCF809112018093F1008091E8008E7766
:10397000DCCF80913202813201F780913602909142
:103980003702892BD1F68091E800877F8093E80089
:103990000E94D01E80913402809312010C94030F78
:1039A00080913202813249F68091E800877F8093CE
:1039B000E8000E94D01E809135028093260208956F
:1039C00080913202813A09F0B8CF8091E800877F78
:1039D0008093E8008091E80080FFFCCF8091260270
:1039E000C2CF84B7877F84BF0FB6F894A895809123
:1039F0006000886180936000109260000FBE80E8D4
:103A000080936100109261000E946A0A0E94201F48
:103A10000E947D1F8091E20084608093E200789490
:103A20000E94FD210E946C0A88E091E00E94160A23
:103A300080913102853019F00E94720AF9CF0E94FC
:103A4000681680912F02882399F30E949616882386
:103A500079F30E94821DECCF9C01DA01892F99270E
:103A600083309105C1F068F48130910509F445C0B7
:103A7000029761F48DE690E02CED38E02D933C93B5
:103A8000089581329105E1F0829739F190E080E06C
:103A900030E020E0F3CFC9019927213059F082307E
:103AA000910559F0E8EDF8E0892B81F7849190E0D9
:103AB0009F01E4CFE0ECF8E0F9CFECEAF8E0F6CFD4
:103AC000643020F7E62FF0E0EE0FFF1FE15DFE4FC0
:103AD0002081318189E090E0D1CF6430B8F670E088
:103AE000FB01EE0FFF1FE95DFE4F208131816D5D0F
:103AF0007E4FFB01808190E0C1CF82E190E029E41C
:103B000039E0BCCF80E189BD82E189BD09B400FE06
:103B1000FDCF8091D8008F7D8093D8008091E00008
:103B200082608093E0008091E00081FDFCCF0895E9
:103B3000AF92BF92CF92DF92FF920F931F93CF93DA
:103B4000DF936C01EB018A010E94EF1EF82E8111B8
:103B500023C00115110539F0F80180819181C81B3E
:103B6000D90BC80ED91EB12CA12C2097A9F0809199
:103B7000E80085FD22C08091E8008E778093E80000
:103B800001151105A1F0F80180819181A80EB91EDF
:103B9000B182A08285E0F82E8F2DDF91CF911F9109
:103BA0000F91FF90DF90CF90BF90AF9008950E944B
:103BB000EF1E8823D1F2F82EEFCFF60181916F012D
:103BC0008093F1002197FFEFAF1ABF0ACECFFC011F
:103BD000CB0120913802309139022617370790F037
:103BE000009729F42091E8002E772093E80040E028
:103BF000009751F4411108C08091E80082FF31C064
:103C000080E00895C901F3CF209131022223A9F168
:103C10002530A9F12091E80023FD2DC02091E80076
:103C200022FDEACF2091E80020FFE2CF3091F3009F
:103C30002091F200009719F02830310558F041E04A
:103C40002830310509F040E02091E8002E772093DC
:103C5000E800CECF41914093F10001972F5F3F4F95
:103C6000E9CF80913102882341F0853041F0809185
:103C7000E80083FFC1CF81E0089582E0089583E0EA
:103C80000895FC01CB0120913802309139022617AA
:103C9000370790F0009729F42091E8002E772093C1
:103CA000E80040E0009751F4411108C08091E8001D
:103CB00082FF32C080E00895C901F3CF2091310224
:103CC0002223B1F12530B1F12091E80023FD2EC06F
:103CD0002091E80022FDEACF2091E80020FFE2CF0A
:103CE0003091F3002091F200009719F0283031054F
:103CF00058F041E02830310509F040E02091E8001B
:103D00002E772093E800CECF44914093F100319676
:103D100001972F5F3F4FE8CF80913102882341F018
:103D2000853041F08091E80083FFC0CF81E00895A5
:103D300082E0089583E00895982F973028F08F70DF
:103D40008093E90081E008959093E900242F762F75
:103D500050E0981731F07091EC002091ED005091F7
:103D6000F00021FD02C09F5FE8CF3091EB003E7F65
:103D70003093EB003091ED003D7F3093ED003091BA
:103D8000EB0031603093EB007093EC002093ED007A
:103D90005093F0002091EE0027FDE5CF80E00895DC
:103DA0008091320287FF13C08091E80082FF06C035
:103DB0008091E8008B778093E80004C08091310205
:103DC0008111F2CF0895809131028823D9F3809137
:103DD000E80080FFF8CF8091E8008E77ECCF20914B
:103DE000E4003091E50095E6A9012091EC00822FD6
:103DF000817020FF06C08091E80080FF06C080E04F
:103E000008952091E80022FD1AC080913102882394
:103E100089F0853089F08091EB0085FD0FC02091FD
:103E2000E4003091E50042175307F9F29150E1F6B2
:103E300084E0089582E0089583E0089581E0089584
:103E40000E948E1F0E94961FE0EEF0E0808181604C
:103E50008083E8EDF0E080818F77808319BCA7ED47
:103E6000B0E08C918E7F8C9380818F7E80831092C6
:103E7000300208950F931F93CF93DF930E948E1FFC
:103E80000E94961FC8EDD0E088818F778883888153
:103E90008068888388818F7D888319BC1092310265
:103EA00010922D0210922F0210922E0200EE10E0BE
:103EB000F80180818B7F808388818160888342E0E4
:103EC00060E080E00E949C1EE1EEF0E080818E7F49
:103ED0008083E2EEF0E08081816080838081886071
:103EE0008083F80180818E7F8083888180618883D0
:103EF000DF91CF911F910F910895E8EDF0E080815F
:103F00008F7E8083E7EDF0E080818160808384E0B4
:103F100082BF81E0809330020C943A1FE8EDF0E01C
:103F200080818E7F80831092E20008951092DA00E3
:103F30001092E10008951F920F920FB60F92112474
:103F40002F933F934F935F936F937F938F939F93A1
:103F5000AF93BF93EF93FF938091E10082FF0BC07B
:103F60008091E20082FF07C08091E1008B7F809307
:103F7000E1000E94FC218091DA0080FF19C080914D
:103F8000D80080FF15C08091DA008E7F8093DA0020
:103F90008091D90080FF94C080E189BD82E189BD14
:103FA00009B400FEFDCF81E0809331020E941B1C0A
:103FB0008091E10080FF19C08091E20080FF15C070
:103FC0008091E2008E7F8093E2008091E200806128
:103FD0008093E2008091D80080628093D80019BC61
:103FE00085E0809331020E942D1C8091E10084FFC6
:103FF00029C08091E20084FF25C080E189BD82E173
:1040000089BD09B400FEFDCF8091D8008F7D8093DB
:10401000D8008091E1008F7E8093E1008091E200E2
:104020008F7E8093E2008091E20081608093E200C5
:1040300080912D02882309F449C084E080933102E5
:104040000E942E1C8091E10083FF29C08091E20034
:1040500083FF25C08091E100877F8093E10082E0AB
:104060008093310210922D028091E1008E7F809327
:10407000E1008091E2008E7F8093E2008091E20077
:1040800080618093E20042E060E080E00E949C1E3C
:104090008091F00088608093F0000E942C1CFF91BA
:1040A000EF91BF91AF919F918F917F916F915F91B0
:1040B0004F913F912F910F900FBE0F901F90189529
:1040C00019BC109231020E94291C72CF8091E3002A
:1040D00087FD02C081E0B2CF83E0B0CF1F920F9284
:1040E0000FB60F9211242F933F934F935F936F93CB
:1040F0007F938F939F93AF93BF93CF93DF93EF9370
:10410000FF93D091E900DF708091EC00C82FC1705F
:1041100080FDC0E81092E9008091F000877F8093D5
:10412000F00078940E94B2201092E9008091F00093
:1041300088608093F000CD2BCF70C093E900FF9191
:10414000EF91DF91CF91BF91AF919F918F917F912F
:104150006F915F914F913F912F910F900FBE0F90F4
:104160001F9018951F93CF93DF93CDB7DEB7AA9713
:104170000FB6F894DEBF0FBECDBF82E392E0FC0124
:1041800001962091F100208322E08A339207B9F74B
:104190000E94441C8091E80083FF16C18091320286
:1041A000909133029A3008F00FC1E92FF0E0EF52FE
:1041B000FC4D0C945D23803881F0823809F004C1F5
:1041C000809136028F708093E9008091EB0085FB2F
:1041D000882780F91092E90006C080912E02909104
:1041E0002F02911182609091E800977F9093E800F0
:1041F0008093F1001092F1008091E8008E77E0C08A
:10420000882309F4CEC0823009F0DEC080913402E8
:104210008111D1C0809136028F7009F4D5C080938E
:10422000E9002091EB0020FFC6C0933031F480916B
:10423000EB0080628093EB00BEC09091EB00906138
:104240009093EB0021E030E001C0220F8A95EAF75D
:104250002093EA001092EA008091EB008860EACF98
:104260008111B2C0109134021F778091E3008078F1
:10427000812B8093E3008091E800877F8093E800A2
:104280000E94D01E8091E80080FFFCCF8091E30067
:1042900080688093E30082E0111183E08093310213
:1042A00093C08058823008F08FC080913402909182
:1042B00035028C3D23E09207A1F583E08A838AE2F0
:1042C00089834FB7F894DE01139620E03EE051E277
:1042D000E32FF0E050935700E49120FF03C0E295F4
:1042E000EF703F5FEF708E2F90E0EA30C0F0C7961E
:1042F0008D939D932F5F243159F74FBF8091E80034
:10430000877F8093E8006AE270E0CE0101960E9408
:10431000E71D8091E8008B778093E80055C0C09638
:10432000E7CFAE014F5F5F4F609136020E942C1DB8
:10433000BC01892B09F448C08091E800877F8093F5
:10434000E80089819A810E94411EE3CF8038E1F51F
:104350008091E800877F8093E80080912D02809310
:10436000F1004ACF811130C090913402923060F553
:104370008091E800877F8093E80090932D020E944F
:10438000D01E80912D02882311F084E005C0809119
:10439000E30087FDFACF81E0809331020E94301C58
:1043A00013C080913402813079F481E0933009F0B8
:1043B00080E080932F021092E9008091E800877FCF
:1043C0008093E8000E94D01E8091E80083FF0AC01D
:1043D0008091E800877F8093E8008091EB00806205
:1043E0008093EB00AA960FB6F894DEBF0FBECDBF48
:1043F000DF91CF911F9108950895CF93809131025D
:104400008823A1F0C091E900CF709091EC00892F32
:10441000817090FD80E8C82B1092E9008091E8003F
:1044200083FD0E94B220CF70C093E900CF91089520
:104430000E941F226894B1110C94AE2208950E942C
:10444000932288F09F5798F0B92F9927B751B0F071
:10445000E1F0660F771F881F991F1AF0BA95C9F708
:1044600014C0B13091F00E94AD22B1E008950C94D7
:10447000AD22672F782F8827B85F39F0B93FCCF38A
:10448000869577956795B395D9F73EF49095809585
:10449000709561957F4F8F4F9F4F0895E89409C0A5
:1044A00097FB3EF490958095709561957F4F8F4F67
:1044B0009F4F9923A9F0F92F96E9BB279395F6957D
:1044C000879577956795B795F111F8CFFAF4BB0FFB
:1044D00011F460FF1BC06F5F7F4F8F4F9F4F16C05F
:1044E000882311F096E911C0772321F09EE8872FE9
:1044F000762F05C0662371F096E8862F70E060E0A5
:104500002AF09A95660F771F881FDAF7880F96951D
:10451000879597F9089557FD9058440F551F59F006
:104520005F3F71F04795880F97FB991F61F09F3FA0
:1045300079F087950895121613061406551FF2CFC9
:104540004695F1DF08C0161617061806991FF1CF19
:1045500086957105610508940895E894BB27662740
:104560007727CB0197F908950E94C7220C9438232E
:104570000E942A2338F00E94312320F0952311F065
:104580000C9421230C94272311240C94AE220E9416
:104590008B2270F3959FC1F3950F50E0551F629FDA
:1045A000F001729FBB27F00DB11D639FAA27F00D8C
:1045B000B11DAA1F649F6627B00DA11D661F829FB3
:1045C0002227B00DA11D621F739FB00DA11D621F98
:1045D000839FA00D611D221F749F3327A00D611DB5
:1045E000231F849F600D211D822F762F6A2F112497
:1045F0009F5750409AF0F1F088234AF0EE0FFF1FCA
:10460000BB1F661F771F881F91505040A9F79E3F20
:10461000510580F00C9421230C94AE225F3FE4F30B
:10462000983ED4F3869577956795B795F795E79576
:104630009F5FC1F7FE2B880F911D9695879597F97F
:10464000089597F99F6780E870E060E008959FEF14
:1046500080EC089500240A94161617061806090619
:10466000089500240A9412161306140605060895E8
:10467000092E0394000C11F4882352F0BB0F40F470
:10468000BF2B11F460FF04C06F5F7F4F8F4F9F4FB0
:10469000089597FB072E16F4009407D077FD09D0F4
:1046A0000E94632307FC05D03EF4909581959F4FAF
:1046B0000895709561957F4F0895EE0FFF1F059047
:1046C000F491E02D0994AA1BBB1B51E107C0AA1F5E
:1046D000BB1FA617B70710F0A61BB70B881F991FA3
:1046E0005A95A9F780959095BC01CD010895F99947
:1046F000FECF92BD81BDF89A992780B50895A8E1B3
:10470000B0E042E050E00C949F23262FF999FECFB1
:1047100092BD81BDF89A019700B4021639F01FBA14
:1047200020BD0FB6F894FA9AF99A0FBE0895019633
:10473000272F0E9486230C948523DC01CB01FC01EA
:10474000F999FECF06C0F2BDE1BDF89A319600B4EA
:104750000D9241505040B8F70895F894FFCF2E06BF
:104760003A063E06420646064A064E0652065606D9
:104770005A065E06620666066A066E0672067606C9
:104780007A06AE0CAE0C060D060D4A0D660DDE0C5B
:10479000DE0C710DDE0C390E390EA40EDE0CDE0CB3
:1047A000AD0EDB200021E4210021E4213021512144
:0647B000E421A621B22164
:1047B600D7012808140A321E381BC81BA51B6E1BFE
:1047C6003B1B01F4F5F6F731333236919094669738
:1047D600C63435404D3639170ACA0994095B09EEC5
:0847E600080709200939090048
:00000001FF
