:100000000C94A2080C94EB080C94EB080C94EB08ED
:100010000C94EB080C94EB080C94EB080C94EB0894
:100020000C94EB080C94EB080C941B220C94F22219
:100030000C9447190C94EB080C94EB080C94EB0807
:100040000C94EB080C94EB080C94EB080C94EB0864
:100050000C94EB080C94A8190C94EB080C94EB0886
:100060000C94EB080C94EB080C94EB080C94EB0844
:100070000C94EB080C94EB080C94EB080C94EB0834
:100080000C94EB080C94EB080C94EB080C94EB0824
:100090000C94EB080C94EB0846004C002A0031004D
:1000A0006400E60000000000000000004F00520065
:1000B00051005000280030002E0000000000000019
:1000C000270013003300380034002F002D000000FB
:1000D00000000000260012000F00370036000E005E
:1000E0000C0025000000000023001C000B00110084
:1000F00010000D001800240000000000220017006E
:100100000A00050019000900150021000000000088
:100110001F001A0016001B00060007000800200040
:10012000000000001E00140004001D002C00E3006D
:100130002B003500000000002900A800AA00A9003B
:100140004A004D004B004E000000E100000000009E
:10015000000000000000000000000000000001514D
:10016000000000000000000000000000000000008F
:100170000000E0000000000000000000000000009F
:10018000000000000000E1006500E2000100010045
:100190000100E30000000000000000000100010079
:1001A0000100010001000100450000000000000006
:1001B00043000100010001000100010044000000B3
:1001C00000000000420001000100010001000100E8
:1001D00001004100000000003F000100010001009B
:1001E0000100010001004000000000003E0001008D
:1001F000010001000100010001003D0000000000BD
:100200003B000100010001000100010001003C0071
:10021000000000003A00010001000100010001009F
:100220000100010000000000AD00AC00AE00AB001A
:100230004800010001000100000001000000000072
:1002400000000000000000000000000000000100AD
:10025000000000000000000000000000000000009E
:10026000000001000000000000000000000000008D
:100270000000000000000100010001000100010079
:10028000010001000000000000000000010001006A
:100290000100010001000100010000000000000059
:1002A0000100010001000100010001000100000047
:1002B0000000000001000100010001000100010038
:1002C0000100010000000000010001000100010028
:1002D0000100010001000100000000000100010018
:1002E0000100010001000100010001000000000008
:1002F00001000100010001000100010001000100F6
:1003000000000000010001000100010001000100E7
:1003100001000100000000000100010001000100D7
:1003200001000100010001000000010000000000C8
:1003300000000000000000000000000000000100BC
:1003400000000000000000000000000000000000AD
:10035000000001000000000000000000000000009C
:100360000000000000000100010001000100010088
:100370000100010000000000000000000100010079
:100380000100010001000100010000000000000068
:100390000100010001000100010001000100000056
:1003A0000000000001000100010001000100010047
:1003B0000100010000000000010001000100010037
:1003C0000100010001000100000000000100010027
:1003D0000100010001000100010001000000000017
:1003E0000100010001000100010001000100010005
:1003F00000000000010001000100010001000100F7
:1004000001000100000000000100010001000100E6
:1004100001000100010001000000010000000000D7
:1004200000000000000000000000000000000100CB
:1004300000000000000000000000000000000000BC
:1004400000000100000000000000000000000000AB
:100450000000000000000100010001000100010097
:100460000100010000000000000000000100010088
:100470000100010001000100010000000000000077
:100480000100010001000100010001000100000065
:100490000000000001000100010001000100010056
:1004A0000100010000000000010001000100010046
:1004B0000100010001000100000000000100010036
:1004C0000100010001000100010001000000000026
:1004D0000100010001000100010001000100010014
:1004E0000000000001000100010001000100010006
:1004F00001000100000000000100010001000100F6
:1005000001000100010001000000010000000000E6
:1005100000000000000000000000000000000100DA
:1005200000000000000000000000000000000000CB
:1005300000000100000000000000000000000000BA
:1005400000000000000001000100010001000100A6
:100550000100010000000000000000000100010097
:100560000100010001000100010000000000000086
:100570000100010001000100010001000100000074
:100580000000000001000100010001000100010065
:100590000100010000000000010001000100010055
:1005A0000100010001000100000000000100010045
:1005B0000100010001000100010001000000000035
:1005C0000100010001000100010001000100010023
:1005D0000000000001000100010001000100010015
:1005E0000100010000000000010001000100010005
:1005F00001000100010001000000010000000000F6
:1006000000000000000000000000000000000100E9
:1006100000000000000000000000000000000000DA
:1006200000000100000000000000000000000000C9
:1006300000000000000001000100010001000100B5
:1006400001000100000000000000000001000100A6
:100650000100010001000100010000000000000095
:100660000100010001000100010001000100000083
:100670000000000001000100010001000100010074
:100680000100010000000000010001000100010064
:100690000100010001000100000000000100010054
:1006A0000100010001000100010001000000000044
:1006B0000100010001000100010001000100010032
:1006C0000000000001000100010001000100010024
:1006D0000100010000000000010001000100010014
:1006E0000100010001000100000001000000000005
:1006F00000000000000000000000000000000100F9
:1007000000000000000000000000000000000000E9
:1007100000000100000000000000000000000000D8
:1007200000000000000001000100010001000100C4
:1007300001000100000000000000000001000100B5
:1007400001000100010001000100000000000000A4
:100750000100010001000100010001000100000092
:100760000000000001000100010001000100010083
:100770000100010000000000010001000100010073
:100780000100010001000100000000000100010063
:100790000100010001000100010001000000000053
:1007A0000100010001000100010001000100010041
:1007B0000000000001000100010001000100010033
:1007C0000100010000000000010001000100010023
:1007D0000100010001000100000001000000000014
:1007E0000000000000000000000000000000010008
:1007F00000000000000000000000000000000000F9
:1008000000000100000000000000000000000000E7
:1008100000000000000001000100010001000100D3
:1008200001000100000000000000000001000100C4
:1008300001000100010001000100000000000000B3
:1008400001000100010001000100010001000000A1
:100850000000000001000100010001000100010092
:100860000100010000000000010001000100010082
:100870000100010001000100000000000100010072
:100880000100010001000100010001000000000062
:100890000100010001000100010001000100010050
:1008A0000000000001000100010001000100010042
:1008B0000100010000000000010001000100010032
:1008C0000100010001000100000001000000000023
:1008D0000000000000000000000000000000010017
:1008E0000000000000000000000000000000000008
:1008F00000000100000000000000000000000000F7
:1009000000000000000001000100010001000100E2
:1009100001000100000000000000000001000100D3
:1009200001000100010001000100000000000000C2
:1009300001000100010001000100010001000000B0
:1009400000000000010001000100010001000100A1
:100950000100010000000000010001000100010091
:100960000100010001000100000000000100010081
:100970000100010001000100010001000000000071
:10098000010001000100010001000100010001005F
:100990000000000001000100010001000100010051
:1009A0000100010000000000010001000100010041
:1009B0000100010001000100000001000000000032
:1009C0000000000000000000000000000000010026
:1009D0000000000000000000000000000000000017
:1009E0000000010000000000000000000000000006
:1009F00000000000000001000100010001000100F2
:100A000001000100000000000000000001000100E2
:100A100001000100010001000100000000000000D1
:100A200001000100010001000100010001000000BF
:100A300000000000010001000100010001000100B0
:100A400001000100000000000100010001000100A0
:100A50000100010001000100000000000100010090
:100A60000100010001000100010001000000000080
:100A7000010001000100010001000100010001006E
:100A80000000000001000100010001000100010060
:100A90000100010000000000010001000100010050
:100AA0000100010001000100000001000000000041
:100AB0000000000000000000000000000000010035
:100AC0000000000000000000000000000000000026
:100AD0000000010000000000000000000000000015
:100AE0000000000000000100010001000100010001
:100AF00001000100000000000000000001000100F2
:100B000001000100010001000100000000000000E0
:100B100001000100010001000100010001000000CE
:100B200000000000010001000100010001000100BF
:100B300001000100000000000100010001000100AF
:100B4000010001000100010000000000010001009F
:100B5000010001000100010001000100000000008F
:100B6000010001000100010001000100010001007D
:100B7000000000000100010001000100010001006F
:100B8000010001000000000001000100010001005F
:100B90000100010001000100000001000000000050
:100BA0000000000000000000000000000000010044
:100BB0000000000000000000000000000000000035
:100BC0000000010000000000000000000000000024
:100BD0000000000000000100010001000100010010
:100BE0000100010000000000000000000100010001
:100BF00001000100010001000100000000000000F0
:100C000001000100010001000100010001000000DD
:100C100000000000010001000100010001000100CE
:100C200001000100000000000100010001000100BE
:100C300001000100010001000000000001000100AE
:100C4000010001000100010001000100000000009E
:100C5000010001000100010001000100010001008C
:100C6000000000000100010001000100010001007E
:100C7000010001000000000001000100010001006E
:100C8000010001000100010000000100000000005F
:100C90000000000000000000000000000000010053
:100CA0000000000000000000000000000000000044
:100CB0000000010000000000000000000000000033
:100CC000000000000000010001000100010001001F
:100CD0000100010000000000000000000100010010
:100CE00001000100010001000100000000000000FF
:100CF00001000100010001000100010001000000ED
:100D000000000000010001000100010001000100DD
:100D100001000100000000000100010001000100CD
:100D200001000100010001000000000001000100BD
:100D300001000100010001000100010000000000AD
:100D4000010001000100010001000100010001009B
:100D5000000000000100010001000100010001008D
:100D6000010001000000000001000100010001007D
:100D7000010001000100010000000100000000006E
:100D80000000000000000000000000000000010062
:100D90000000000000000000000000000000000053
:100DA0000000010000000000000000000000000042
:100DB000000000000000010001000100010001002E
:100DC000010001000000000000000000010001001F
:100DD000010001000100010001000000000000000E
:100DE00001000100010001000100010001000000FC
:100DF00000000000010001000100010001000100ED
:100E000001000100000000000100010001000100DC
:100E100001000100010001000000000001000100CC
:100E200001000100010001000100010000000000BC
:100E300001000100010001000100010001000100AA
:100E4000000000000100010001000100010001009C
:100E5000010001000000000001000100010001008C
:100E6000010001000100010000000100000000007D
:100E70000000000000000000000000000000010071
:100E80000000000000000000000000000000000062
:100E90000000010000000000000000000000000051
:100EA000000000000000010001000100010001003D
:100EB000010001000000000000000000010001002E
:100EC000010001000100010001000000000000001D
:100ED000010001000100010001000100010000000B
:100EE00000000000010001000100010001000100FC
:100EF00001000100000000000100010001000100EC
:100F000001000100010001000000000001000100DB
:100F100001000100010001000100010000000000CB
:100F200001000100010001000100010001000100B9
:100F300000000000010001000100010001000100AB
:100F4000010001000000000001000100010001009B
:100F5000010001000100010000000100000000008C
:100F60000000000000000000000000000000010080
:100F70000000000000000000000000000000000071
:100F80000000010000000000000000000000000060
:100F9000000000000000010012036B0065007900F2
:100FA00062006F00610072006400000016037100AF
:100FB0006D006B006200750069006C0064006500E4
:100FC000720000000403090409026D00040100A07E
:100FD000FA090400000103010100092111010001C7
:100FE0002240000705810308000A090401000103EB
:100FF000010200092111010001224D0007058203B1
:1010000008000A090402000103000000092111017F
:1010100000012236000705830308000A09040300C3
:101020000103000000092111010001223900070518
:1010300084032000011201100100000008EDFE6091
:101040006001000102000105010906A1010507195F
:10105000E029E715002501950875018102050819A9
:101060000129059505750191029501750391010509
:1010700007190029F71500250195F875018102C0AF
:1010800005010980A10185021601002603001A81CD
:10109000002A8300751095018100C0050C0901A18B
:1010A000018503160100269C021A01002A9C027584
:1010B0001095018100C005010902A1010901A100EB
:1010C00005091901290515002501950575018102FC
:1010D0009501750381010501093009311581257FCD
:1010E00095027508810609381581257F95017508D7
:1010F0008106050C0A38021581257F950175088146
:1011000006C0C005010906A101050719E029E71578
:101110000025019508750181029501750881010579
:10112000081901290595057501910295017503912D
:10113000010507190029FF150026FF00950675080F
:101140008100C00011241FBECFEFD0E2DEBFCDBFB3
:1011500004B603FE27C08091E5029091E602A091BB
:10116000E702B091E8028730904BA740B04BD1F432
:101170001092E5021092E6021092E7021092E80245
:1011800014BE84B7877F84BF0FB6F894A89580916A
:101190006000886180936000109260000FBEE0E004
:1011A000F8EF099511E0A0E0B1E0EEE0FDE400E029
:1011B0000BBF02C007900D92A039B107D9F722E00A
:1011C000A0E9B1E001C01D92A53EB207E1F70E947F
:1011D0006E1F0C943D260C94000090E080E0089572
:1011E0000895089581E00895089581E008950C948C
:1011F000F2080E94B5112FEF84E39CE0215080405B
:101200009040E1F700C000000C94CB19EF92FF92E0
:101210000F931F93CF93DF938C01FC01E080F1804B
:101220008091F401811140C082818823C1F1C701FE
:101230000E941F17C82F682FC7010E94C816B70148
:101240008C2F0E943E0AEC01B8010E94F708882307
:1012500009F44BC0B801CE010E94BE0B882309F4EB
:1012600044C0C531F0E7DF0720F5C23080E7D8077A
:1012700008F04DC0C115E0E7DE0791F1C130D0475D
:10128000E1F181E08093920180939301C801DF91A5
:10129000CF911F910F91FF90EF900C94F508C7012B
:1012A0000E94F616C82FCBCFC7010E941F17B701A7
:1012B000C8CFCC3380E7D80709F49BC0CD33D047E3
:1012C00001F7F8018281882309F4BAC010929301D2
:1012D0000E947719909391018093900180E296C0CB
:1012E000F801828181110E94F90880E0DF91CF919D
:1012F0001F910F91FF90EF900895F801828188234C
:10130000A1F38091A50281608093A502EECFF80140
:101310008281882309F4BACF0E94D818811102C0B3
:101320000E94BE180E94F51890E09093AC02809342
:10133000AB02FE01E350F0478091AB028160E231E5
:10134000F10538F4E15CF94D0C94EA258091AB028B
:1013500082608093AB028091AB020E94F9180E94D8
:10136000B511C3CF8091AB028460F3CF8091AB0203
:101370008860EFCF8091AB028061EBCF8091AB02B0
:101380008062E7CF8091AB028064E3CF8091AB02B3
:101390008068DFCF8091AB028C60DBCF8091AB02A5
:1013A0008E7FD7CF8091AB028D7FD3CF8091AB0260
:1013B0008B7FCFCF8091AB02877FCBCF8091AB0269
:1013C0008F7EC7CF8091AB028F7DC3CF8091AB0260
:1013D0008F7BBFCF8091AB028F77BBCF8091AB0269
:1013E000837FB7CF9091AB02892F97FB87F9805805
:1013F000B0CFF8018281882361F0109292010E949F
:101400007719909391018093900182E00E94160FCA
:101410006CCF8091920181110FC0809190019091C9
:1014200091010E948319883C910530F486E20E9464
:10143000650E86E20E94C70E82E00E941D0F55CF06
:101440008091930181110FC0809190019091910141
:101450000E948319883C910530F487E20E94650E52
:1014600087E20E94C70E80E2E8CF0C940D0C0C942A
:101470000F0C0C94F4080C94390A0895972F70E01F
:101480002AE0929F600D711D1124FB0198E7899F4E
:10149000E00DF11D1124EE0FFF1FE856FF4F85915F
:1014A00094910895FC01EE0FFF1FE856F04F8591CF
:1014B000949108950E943E0A0E94420B9C0181155E
:1014C0009044F0F5211580E3380708F0AFC0203EC6
:1014D0003105F0F4203C310508F090C0283A310580
:1014E00070F4253A310508F08DC02130310529F01E
:1014F000C9010497813A910540F4C9010895C901D1
:10150000885A9109459708F486C030E020E0F5CF6D
:10151000211540E2340770F42F3F310509F068F7D8
:10152000283E310550F3C901805F9109306540972D
:1015300020F3EBCFC9019F700E94520A9C01DDCFBE
:10154000211584E5380708F042C0211543E534072A
:1015500008F077C0211582E5380740F5211541E5EF
:10156000340708F069C0211580E5380708F461C028
:10157000C90154E0969587955A95E1F7382F337055
:10158000822F86958695837040E2849FC001112446
:10159000932B422F437021E030E002C0220F331F13
:1015A0004A95E2F7282B392B3C68A7CFA901437055
:1015B000552781E090E002C0880F991F4A95E2F715
:1015C0002695269540E2249F90011124EBCF21150A
:1015D00086E5380750F4922F88272115354508F005
:1015E00044C09C01246F306A88CFC90190563F7077
:1015F0008115904108F089CF30627FCFC901805CAE
:1016000091099ACF253A3105A1F1263A3105A1F188
:1016100023E830E472CF283A310589F1220F331FD5
:10162000F901EF53F0402081318167CF3327306CCF
:1016300064CF3F70306A61CF322F2227216F306A2A
:101640005CCFA9014370552781E090E002C0880F6C
:10165000991F4A95E2F72695269540E2249F90012E
:101660001124282B392B3A6848CF88279F719C0179
:10167000C3CF21E830E441CF22E830E43ECF22EE70
:1016800034E43BCF803E910581F1C8F4813391056C
:1016900009F462C048F48932910509F456C08A32CF
:1016A000910509F460C0089589339105B9F0823835
:1016B0009105A1F08533910509F440C00895863E57
:1016C000910561F138F4823E9105B1F0833E9105B8
:1016D000E1F00895873E910551F108952091AB0204
:1016E0002370D9F080EE90E008952091AB0220FFA6
:1016F00014C089E390E008952091AB0222FF0DC051
:1017000024FD09C083EE90E008952091AB0222FDF4
:1017100031C024FF02C090E080E008952091AB0228
:1017200023FFFBCF24FDF7CF87EE90E008952091B3
:10173000AB0223FFEECF86EE90E008952091AB023E
:1017400025FFEBCF89E290E008952091AB0225FFC1
:10175000E4CF85E390E008952091AB0226FFDDCF32
:101760008AE290E008952091AB0226FFD6CF81E374
:1017700090E0089582EE90E0089508950F931F93EE
:10178000CF938C01FB018281811106C0C1E08C2FB7
:10179000CF911F910F910895C091A101C11125C052
:1017A0000531104799F70E94BD0B81E08093A1019C
:1017B0000E9477199093A00180939F011092940149
:1017C0001092960110929501109298011092970133
:1017D00010929A011092990110929C0110929B0113
:1017E00010929E0110929D01D2CF80919F01909105
:1017F000A0010E948319883C910540F680919401D4
:10180000E82FF0E0EE0FFF1FEB56FE4F1183008331
:101810008F5F80939401C0E0BACF0C94F0080C94D1
:10182000F10885B7806885BF85B7806885BFABE361
:10183000B1E045E451E061E070E08D91E82FE29580
:10184000EF70F0E091A18F709B0101C0220F8A958B
:10185000EAF7822F8095892381A382A1822B82A31C
:101860004A175B0751F7A5E4B1E041E551E061E0BB
:1018700070E08D91E82FE295EF70F0E091A18F700C
:101880009B0101C0220F8A95EAF7822F8095892358
:1018900081A382A1822B82A34A175B0751F788E1BB
:1018A000EAEBF1E0DF01982F1D929A95E9F7E2EA61
:1018B000F1E0DF011D928A95E9F70C94350A3F9219
:1018C0004F925F926F927F928F929F92AF92BF9250
:1018D000CF92DF92EF92FF920F931F93CF93DF93FC
:1018E00000D000D0CDB7DEB70BE311E01A82198229
:1018F000EE24E394F12C9AEB692E91E0792E3324B7
:101900003394D8018D918D01E82FE295EF70F0E0CE
:1019100091A18F70570101C0AA0C8A95EAF7892F0F
:101920008A2981A382A15A2C5094852182A3B0EAEE
:10193000BA95F1F7B701098002C0660F771F0A94C4
:10194000E2F74B018094909482EA91E09C838B8330
:1019500045E451E0412CAB81BC812D913D91BC838C
:10196000AB83DA01DD90AD018D2D82958F70805EA5
:1019700090E0DC018C9190E0BD2DBF7002C0959588
:101980008795BA95E2F780FD5DC0C901862B972B3C
:10199000CB80DC80A2E0CA1AD108D6018D939C933B
:1019A0002817390711F0442443948B819C816816D1
:1019B000790689F681A1582251A282A18A2982A39F
:1019C000442041F03092D2010E9477199093D401C3
:1019D0008093D301A981BA811196BA83A9831A97FA
:1019E00009F08FCF8091D201882399F08091D301A3
:1019F0009091D4010E948319069758F088E1E2EA99
:101A0000F1E0AAEBB1E001900D928A95E1F7109216
:101A1000D2010E94370A81E00F900F900F900F9033
:101A2000DF91CF911F910F91FF90EF90DF90CF90BA
:101A3000BF90AF909F908F907F906F905F904F90EE
:101A40003F900895C90188219921A2CFE82FF0E0A5
:101A5000EE0FFF1FE654FE4F808191810895089597
:101A60009093DA018093D9010895E091D901F09122
:101A7000DA01309721F00190F081E02D099480E0A7
:101A80000895E091D901F091DA01309721F00280B8
:101A9000F381E02D09940895E091D901F091DA01E4
:101AA000309721F00480F581E02D0994089520916C
:101AB000D7013091D8012817390771F09093D801D8
:101AC0008093D701E091D901F091DA01309721F0AC
:101AD0000680F781E02D099408952091D501309179
:101AE000D6012817390771F09093D6018093D5015C
:101AF000E091D901F091DA01309721F00084F1856D
:101B0000E02D0994089508950C94830D0E946E1998
:101B10000E94110C0C94381A7F928F929F92AF9270
:101B2000BF92CF92DF92EF92FF920F931F93CF93CA
:101B3000DF9300D000D00F92CDB7DEB70E945F0CCC
:101B40009CEDA92E91E0B92E10E000E0882483944A
:101B5000912C702E802F0E94260D7C01F501C190E2
:101B6000D1905F01C816D90609F45CC08091A50226
:101B700081FD0E942F0D96012E253F2590E080E0EB
:101B80006401082E02C0CC0CDD1C0A94E2F7A60109
:101B900042235323452B09F440C089837A82EC20E9
:101BA000FD2081E0EF2809F480E08B830E94771903
:101BB0008160782F9D838C8349815A816B81892F25
:101BC0000E943C0E000F111FF801E452FE4F80816D
:101BD00091818C259D25918380830E94C31C0E9446
:101BE000350D9091DB018917A1F10E94350D80938D
:101BF000DB010F900F900F900F900F90DF91CF911E
:101C00001F910F91FF90EF90DF90CF90BF90AF901A
:101C10009F908F907F900C943B0A01968A3091059B
:101C200009F0AECF0F5F1F4F0C30110509F091CFB7
:101C30008FEF89838A831B820E9477198160782FB6
:101C40009D838C8349815A816B81892F0E943C0E30
:101C5000C4CF0F900F900F900F900F90DF91CF9106
:101C60001F910F91FF90EF90DF90CF90BF90AF90BA
:101C70009F908F907F900895CF93DF93CDB7DEB77D
:101C80002B970FB6F894DEBF0FBECDBF4F8358879A
:101C900069877A878B871E8285E0FE013796DE0191
:101CA000119601900D928A95E1F749815A816B81D5
:101CB0007C818D819E812B960FB6F894DEBF0FBE7E
:101CC000CDBFDF91CF910C942214882309F45EC01C
:101CD000823871F40E94350D81FD58C089E30E945D
:101CE000C7170E948F1889E30E9403180C948F185D
:101CF000833859F40E94350D80FD48C083E50E9469
:101D0000C7170E948F1883E5EFCF843859F40E94DB
:101D1000350D82FD3BC087E40E94C7170E948F18D3
:101D200087E4E2CF9CEF980F913A18F40E94C7170E
:101D3000DDCF90E2980F983050F4877091E001C0A9
:101D4000990F8A95EAF7892F0E944618CFCF9BE515
:101D5000980F933070F4853A31F0863A39F083E881
:101D600090E00C94570D81E890E0FBCF82E890E082
:101D7000F8CF885A853150F4E82FF0E0EE0FFF1FBE
:101D8000EF5AFE4F808191810C946D0D0895882348
:101D900009F44BC0823871F40E94350D81FF45C0B3
:101DA00089E30E94C7170E948F1889E30E940318D5
:101DB0000C948F18833859F40E94350D80FF35C07C
:101DC00083E50E94C7170E948F1883E5EFCF843800
:101DD00059F40E94350D82FF28C087E40E94C7177E
:101DE0000E948F1887E4E2CF9CEF980F913AF0F2AF
:101DF00090E2980F983050F4877091E001C0990FED
:101E00008A95EAF7892F0E944C18D2CF9BE5980F4C
:101E1000933020F490E080E00C94570D885A85317F
:101E200020F490E080E00C946D0D0895882321F05B
:101E30000E9446180C948F180895882321F00E9460
:101E40004C180C948F1808958F929F92AF92BF9266
:101E5000DF92EF92FF920F931F93CF93DF9300D007
:101E600000D00F92CDB7DEB77C016D837983FC0182
:101E7000058102950F70128111110E9465180E9450
:101E8000C017D82E882371F01123A1F08D81805EB8
:101E9000883080F082E00E94AA170E94C01791E06B
:101EA000D82ED926E981E295EF70F0E0EF5AF94D8E
:101EB0000C94EA25D12CF6CF09810F70F981F07FBF
:101EC00011F00295007F1123B1F0002361F08D81A4
:101ED000805E883018F02D81211109C0802F0E946A
:101EE00046180E948F188D810E94650E15C0802FA4
:101EF0000E945718F6CF8D810E94C70E002361F013
:101F00008D81805E883018F03D81311129C0802F8D
:101F10000E944C180E948F18DD2009F4D7C10E943E
:101F20009D1780FDD3C1F70112820E9497170E946E
:101F3000E215C7010E9477110E9497170F900F902A
:101F40000F900F900F90DF91CF911F910F91FF9005
:101F5000EF90DF90BF90AF909F908F900C940316FE
:101F6000802F0E945D18D6CF49814F70B42E5981C1
:101F7000507F503219F0B29480EFB8228D818823BF
:101F800069F0813029F1112369F1002359F0F7013B
:101F9000858180FFA8CF8F70858304C0112361F0F5
:101FA000011104C08B2D0E94160FB6CF8B2D01306E
:101FB000D1F70E947918B0CF011106C00E947C1899
:101FC0008B2D0E941D0FA8CF013009F4A5CFF6CFAD
:101FD000112321F0063008F09FCFE4CF053008F040
:101FE0009BCFEECF002361F38D810E94C70E94CF6B
:101FF000898186958695837069F0813009F08CCF50
:102000008D8199819370111102C090E080E00E944F
:102010006D0D82CF8D8199819370111102C090E076
:1020200080E00E94570D78CF8D81112329F00E9406
:10203000F31B0E94B81C70CF0E94451CFACF898107
:10204000837009F05FC0111167CF2D81229526950D
:102050002770220F220F8D818F7090E0B0E0A0E0FA
:102060004C015D01022E04C0880C991CAA1CBB1CEB
:102070000A94D2F7FD8160E070E0CB01F4FF0FC05D
:102080006FE070E080E090E004C0660F771F881F6B
:10209000991F2A95D2F76095709580959095298122
:1020A0002695269523702D832230B1F0233019F127
:1020B0009B01AC01282939294A295B2929833A83C4
:1020C0004B835C833D8169817A818B819C81313036
:1020D000B1F00E946F1520CF9B01AC01282939294E
:1020E0004A295B2929833A834B835C83CA01B9015E
:1020F0000E94991511CF0E946F15C501B4010E946D
:1021000045150ACF112309F447C0398130FF04CFA8
:102110002D81229526952770220F220F8D818F7099
:1021200090E0B0E0A0E04C015D01022E04C0880CFC
:10213000991CAA1CBB1C0A94D2F75D8160E070E078
:10214000CB0154FF0FC06FE070E080E090E004C06E
:10215000660F771F881F991F2A95D2F76095709593
:1021600080959095E981E695E695E370ED83E23000
:10217000F1F0E33059F19B01AC01282939294A29B2
:102180005B2929833A834B835C83E13049F0CA01A0
:10219000B9010E947316C0CE498141FFBDCEB8CFB0
:1021A00069817A818B819C810E944916B5CE9B0101
:1021B000AC01282939294A295B2929833A834B8391
:1021C0005C83CA01B9010E949D16A6CE0E947316B7
:1021D000C501B401E9CF3D81323F09F447C080F425
:1021E000303F79F1313FD9F1832F805E8031D0F0DB
:1021F000112309F456C0011176CE89818F7133C045
:102200004D81433FD1F1443F99F7112309F43FC079
:1022100089818F7189830E94E21563E089810E9420
:10222000A1177ACE5D815F705D8389818F711123E3
:1022300021F00E94E2158D81B6CE0E9403168D8199
:10224000C0CE112341F0053008F066CE89818F7130
:102250000E94281661CE063008F05ECEF7CF898145
:102260008F71112339F00E94E21556CE89818F714A
:102270001123C9F30E9403164FCE112329F089813F
:102280008F710E94CD1548CE0E94C31545CE81E0C6
:102290000E94AA17023008F43FCE82E00E94AA17DB
:1022A0003BCE0111A1CE89818F71E4CF49814F705E
:1022B0006D81C7010E94ED080E94BC142DCE49819A
:1022C0004F706D81C7010E943D0A26CE0F900F907E
:1022D0000F900F900F90DF91CF911F910F91FF9072
:1022E000EF90DF90BF90AF909F908F9008950F93E5
:1022F0001F93CF93DF93EC01988189812B813C81DF
:10230000232B19F089238F3F29F4DF91CF911F915F
:102310000F910895CE010E9406098823B1F36881C8
:1023200079818A810E946D178C010E94C7160E94D4
:102330003A15B801CE01DF91CF911F910F910C9406
:10234000240F0E9465180E9476180E9438180E9477
:102350008F180E94A91D0E94B81C90E080E00E9486
:10236000570D90E080E00C946D0D0E9454180C9471
:10237000A1110E946117282F892F82958F70903CA0
:1023800080F48A30B0F4843020F4823090F480E01D
:1023900008958630E1F781E0203E88F0213FB9F7CB
:1023A0000EC08C3011F08F3091F793FB882780F9A5
:1023B000089581E0203F39F018F4203E40F7089559
:1023C000243F29F7FCCF0895CF93DF9300D000D0AE
:1023D0000F92CDB7DEB70F900F900F900F900F9028
:1023E000DF91CF910895CF93DF9300D000D000D03C
:1023F000CDB7DEB726960FB6F894DEBF0FBECDBFC1
:10240000DF91CF9108951F93CF93DF93E091F50172
:1024100016E08091F6018E1304C0DF91CF911F91D9
:102420000895CE2FD0E01E9FF0011124E950FE4FF9
:102430004081518162817381848195810E94F31171
:102440002196EC2FE770E5CF4091270250912802AA
:102450006091290270912A0280912B0290912C02A6
:102460000C94F311CF9380912C02807FA9F480917A
:102470002902882389F08091F501A091F6017091DD
:1024800027026091280240912A0250912B02B62F18
:10249000B723C6E0A81302C0CF91089590E041157C
:1024A000510511F0BF3F31F401968770F3CF2150F1
:1024B000310919C0C89FF001C99FF00D1124E950DE
:1024C000FE4F21816213F0CF20812713EDCF2281AF
:1024D0002111EACF0380F481E02D9F01241B350BED
:1024E000E417F50720F3283C3105F0F620912C0283
:1024F0002F70206120932C0226E0289FF001299F55
:10250000F00D1124E450FE4F80818F708061808334
:1025100087E292E00E947711CF910C9403129F9270
:10252000AF92BF92CF92DF92EF92FF920F931F93E1
:10253000CF93DF93CDB7DEB72B970FB6F894DEBFFE
:102540000FBECDBF8C0185E0F801DE01179601902A
:102550000D928A95E1F7D8011296EC9012973C9172
:1025600011962C9111971396CD90DC9040912702F3
:102570005091280260912A0270912B026115710519
:1025800029F0842F85238F3F09F046C1EE2009F4FE
:1025900055C18F8198850E94B911882309F44EC1D5
:1025A000F8C0C616D70628F1FF24F394883C91059D
:1025B00008F0F12C87E2A82E82E0B82E80912C0240
:1025C000982F907FF11017C009F0F2C04F81588505
:1025D00069857A858B850E94E41187E292E00E94EA
:1025E000771186E0D5011D928A95E9F70E942412A1
:1025F00019C00197D9CF9111A8C0FE2C251325C071
:10260000431323C0E11021C08F70806180932C029E
:102610000E94241287E292E00E94771180912C029E
:10262000F80185838F2D2B960FB6F894DEBF0FBE71
:10263000CDBFDF91CF911F910F91FF90EF90DF9071
:10264000CF90BF90AF909F900895CD2829F0822F12
:1026500083238F3F09F076C080E0F82FF170DF2EE2
:10266000E091F5014091F60156E080FD1CC0EE209E
:10267000C9F280912C02816080932C02F12CD2CF80
:102680008E2F90E05E9FF0011124E950FE4F618192
:10269000261306C06081361303C06281E612E7CFBD
:1026A0000196E82FE770E413EBCF8F8198850E94A5
:1026B0006117292F22952F70903268F0225F2F70BA
:1026C000223080F49F7059F0D80115969C91907F2C
:1026D00031F4D12C0AC09F7011F08823D1F3805EB1
:1026E0008830B8F3C8010E947711FD2C9BCF019769
:1026F0009EC086E0F801A7E2B2E001900D928A95B3
:10270000E1F790CF8F8198850E94B911811141C066
:1027100080912C02816080932C02C8010E94771165
:1027200081CF4F81588569857A858B850E94E41118
:1027300086E0E7E2F2E0DF011D928A95E9F70E9468
:1027400024129CCF81E08E2588CF251306C0431329
:1027500004C0F801EE2009F452C08F8198850E94D0
:10276000B911882309F46AC0EE2009F467C080918A
:102770002C02803270F020912702309128023A8397
:1027800029831B82DD82CC828E83CE0101960E943A
:10279000771186E0F801A7E2B2E001900D928A95E8
:1027A000E1F70E9432120E942412FF24F3943ACFE0
:1027B0002513D3CF4313D1CFE110CFCFF8018583B9
:1027C000C8010E94771186E0D5011D928A95E9F72C
:1027D000F92C28CF251396CF431394CF80912C0248
:1027E00080FD87CF982F907F09F483CFF8018583F0
:1027F000903F31F0982F907F905F8F70892B858369
:10280000C8010E94771186E0F801A7E2B2E00190CA
:102810000D928A95E1F7EACE90902902C601861BB7
:10282000970B9110BECEC616D70608F460CF883C31
:10283000910508F076CFFE2CE110CCCFC8010E94A4
:102840007711B3CF1F93CF93DF93CDB7DEB72C971C
:102850000FB6F894DEBF0FBECDBF4F835887698790
:102860007A878B879C87CE0107960E948F128823D8
:1028700069F08A859B85892B39F058854F81852F92
:1028800084238F3F09F071C016E05FC086E0FE012F
:102890003796DE01119601900D928A95E1F78F81AE
:1028A00098852091F6014091F5016A857B85672B1B
:1028B00059F389238F3F41F330E0C90101968770B6
:1028C00099274817190671F40E94B5111092F60164
:1028D0001092F50186E0E7E2F2E0DF011D928A95B1
:1028E000E9F7D2CF96E0929FD001939FB00D1124CB
:1028F000A950BE4FFE01319601900D929A95E1F7D5
:102900008093F6010E940312BFCF819FC001112462
:1029100089509E4F0E948F128823E9F0E091F501C3
:102920001E9FF0011124E950FE4F408151816281C8
:102930007381848195810E94F3118091F50190E06B
:102940000196877099278093F5018091F501909108
:10295000F6018913DACF2C960FB6F894DEBF0FBEBE
:10296000CDBFDF91CF911F91089569857A858B85C1
:102970009C850E94F31188CFEF92FF920F931F93D3
:10298000CF93DF938C01892B89F0F12CEE24E39413
:10299000E8012196F8018491843709F458C0A0F425
:1029A000823009F43FC048F48130D1F0DF91CF91FB
:1029B0001F910F91FF90EF9008959CEF980F903723
:1029C000A8F70E94650E0AC0853709F44EC09CE73F
:1029D000980F903758F78F770E94C70E8E0116C058
:1029E0000E5F1F4FFE01849190E2980F983060F4C3
:1029F0008770FE2D01C0FF0F8A95EAF78F2F0E9486
:102A000068180E948F1802C00E94650E8F2D8823BF
:102A100009F4BECFEFE9FFE03197F1F700C0000005
:102A20008150F5CF0E5F1F4FFE01849190E2980F09
:102A3000983050F48770FE2D01C0FF0F8A95EAF799
:102A40008F2F0E946E18DDCF0E94C70EDFCF0E5F62
:102A50001F4FFE01C491CC23C9F28FE99FE001977B
:102A6000F1F700C00000C150F6CF0E5F1F4FFE010E
:102A7000F490CCCF089560937C0270937D02809394
:102A80007E0290937F020C94A111CF93DF9300D02C
:102A900000D0CDB7DEB769837A838B839C83809126
:102AA0007C0290917D02A0917E02B0917F022981EB
:102AB0003A814B815C81822B932BA42BB52B809385
:102AC0007C0290937D02A0937E02B0937F020F90D0
:102AD0000F900F900F90DF91CF910C94A111CF9395
:102AE000DF9300D000D0CDB7DEB769837A838B83C4
:102AF0009C8380917C0290917D02A0917E02B09196
:102B00007F0229813A814B815C8182239323A42314
:102B1000B52380937C0290937D02A0937E02B093B4
:102B20007F020F900F900F900F90DF91CF910C9438
:102B3000A111CF93DF9300D000D0CDB7DEB769836A
:102B40007A838B839C8380917C0290917D02A091FB
:102B50007E02B0917F0229813A814B815C8182277C
:102B60009327A427B52780937C0290937D02A0939E
:102B70007E02B0937F020F900F900F900F90DF9125
:102B8000CF910C94A11110927802109279021092B8
:102B90007A0210927B020C94A11141E050E060E0B7
:102BA00070E004C0440F551F661F771F8A95D2F747
:102BB000409378025093790260937A0270937B027B
:102BC0000C94A11141E050E060E070E004C0440FBB
:102BD000551F661F771F8A95D2F7809178029091D2
:102BE0007902A0917A02B0917B02842B952BA62BBF
:102BF000B72B8093780290937902A0937A02B093D6
:102C00007B020C94A11141E050E060E070E004C050
:102C1000440F551F661F771F8A95D2F74095509530
:102C2000609570958091780290917902A0917A02D6
:102C3000B0917B0284239523A623B7238093780247
:102C400090937902A0937A02B0937B020C94A11125
:102C500041E050E060E070E004C0440F551F661F83
:102C6000771F8A95D2F78091780290917902A0918E
:102C70007A02B0917B0284279527A627B7278093F5
:102C8000780290937902A0937A02B0937B020C941D
:102C9000A111CF93DF9300D000D0CDB7DEB7698309
:102CA0007A838B839C838091780290917902A091A2
:102CB0007A02B0917B0229813A814B815C81822B1F
:102CC000932BA42BB52B8093780290937902A09339
:102CD0007A02B0937B020F900F900F900F90DF91CC
:102CE000CF910C94A111CF93DF9300D000D0CDB73A
:102CF000DEB769837A838B839C838091780290917D
:102D00007902A0917A02B0917B0229813A814B81AC
:102D10005C8182239323A423B5238093780290932C
:102D20007902A0937A02B0937B020F900F900F90DC
:102D30000F90DF91CF910C94A111CF93DF9300D02E
:102D400000D0CDB7DEB769837A838B839C83809173
:102D5000780290917902A0917A02B0917B02298148
:102D60003A814B815C8182279327A427B5278093E2
:102D7000780290937902A0937A02B0937B020F902D
:102D80000F900F900F90DF91CF910C94A1110895A7
:102D9000E82F2AE0929FE00D11248E2F877041E0EA
:102DA00001C0440F8A95EAF7E695E695E69585E039
:102DB000E89FF0011124E35DFD4F30E020E070E07A
:102DC0005191DF011197CB01022E02C09695879594
:102DD0000A94E2F7817081958527842385278C9357
:102DE0002F5F3F4F2530310559F70895E82F2AE02E
:102DF000929FE00D11249E2F9770E695E695E6953B
:102E000085E0E89FF0011124E35DFD4F50E040E0D4
:102E100080E0219130E0092E02C0369527950A9472
:102E2000E2F721703327042E01C0220F0A94EAF73B
:102E3000822B4F5F5F4F4530510559F70895BF9280
:102E4000CF92DF92EF92FF920F931F93CF93DF9376
:102E50008C01C0907802D0907902E0907A02F090D4
:102E60007B0280917C0290917D02A0917E02B091C4
:102E70007F02C82AD92AEA2AFB2ACFE1D0E0BC2E59
:102E8000D701C6010C2E04C0B695A79597958795D6
:102E90000A94D2F780FD0EC0219788F7B12C8B2DB4
:102EA000DF91CF911F910F91FF90EF90DF90CF9026
:102EB000BF900895B8018C2F0E945A0A019761F3C0
:102EC000EECFCF93DF93D82FC92F0E941F176D2FFE
:102ED0007C2FDF91CF910C945A0A1F93CF93DF93ED
:102EE000162FD72F9091F401992339F0862F972F21
:102EF000DF91CF911F910C946117882391F0862F59
:102F0000972F0E941F17C82F682F812F9D2F0E9477
:102F1000C816612F7D2F8C2FDF91CF911F910C94BC
:102F20005A0A862F972F0E94F616C82FF2CF80914B
:102F3000800285958595859508958091800287709A
:102F4000089598E0899F90011124622B609380027C
:102F50000C94E215909180028095892380938002E1
:102F6000282F277061F4282F082E000C330B92179E
:102F7000130629F08595859585950C94031608957B
:102F800090918002977081E009F480E0089590911B
:102F900012019923D9F09091AB0297FF17C0982F97
:102FA0009695969596959F3131F1E0910001F091BB
:102FB0000101E90FF11D877021E030E001C0220F0F
:102FC0008A95EAF78181822B8183089520910001FF
:102FD00030910101F90132969FEF40E05191851740
:102FE00051F09F3F19F4511101C0942F4F5F4E31A2
:102FF000A9F79F3F09F40895290F311D97FD3A95D0
:10300000F90182830895909112019923F9F090912A
:10301000AB0297FF1BC0982F9695969596959F317A
:1030200031F1E0910001F0910101E90FF11D87708C
:1030300021E030E0A90102C0440F551F8A95E2F754
:10304000CA0180959181892381830895209100018F
:1030500030910101F9013296205E3F4F9191891321
:1030600003C0DF0111971C92E217F307B9F7089527
:1030700081E090E0E0910001F0910101E80FF91F7B
:103080001082019680329105A9F708959091A402CB
:10309000982B9093A4020895982F90958091A40264
:1030A00089238093A40208951092A4020895909118
:1030B000A302982B9093A3020895982F9095809146
:1030C000A30289238093A30208951092A302089576
:1030D0009091A202982B9093A2020895982F909518
:1030E0008091A20289238093A20208951092A202E5
:1030F000089580938102089510928102089520918D
:10310000000130910101F9013196205E3F4F80E0CE
:10311000919191118F5FE217F307D1F70895E09134
:103120000001F09101018091A4028083E0910001EF
:10313000F091010180819091A302892B8083E0911D
:103140000001F091010180819091A202892B80837E
:1031500090918102992361F0E0910001F0910101C9
:103160008081892B80830E947F18811110928102B7
:1031700080910001909101010C94410D6DEE7EEF64
:1031800090E080E00E94272660E082E090E00E94CC
:10319000152660E083E090E00E94152660E084E060
:1031A00090E00E94152660E085E090E00C941526E2
:1031B00090E080E00E940F269C0181E02D3E3E4F72
:1031C00009F080E0089582E090E00C940726682FD3
:1031D00082E090E00C94152683E090E00C940726A2
:1031E000682F83E090E00C94152684E090E00C9426
:1031F0000726682F84E090E00C9415268091DB026E
:10320000843039F11092A60288E190E020E40FB6F4
:10321000F894A895809360000FBE2093600080E032
:103220000E943B0A83B7817F846083BF83B781603C
:1032300083BF7894889583B78E7F83BF0FB6F89449
:10324000A895809160008861809360001092600072
:103250000FBE089508950895CF930E942A190E94E1
:103260005F0C0E942B19C0E08C2F0E94260D892B29
:1032700031F4CF5FCC30C1F780E0CF91089581E089
:10328000FCCF0E94B5110E94350D0C943B0A1F9291
:103290001FB61F9211248F939F93AF93BF9380917A
:1032A000A602811113C08091A7029091A802A0915B
:1032B000A902B091AA024196A11DB11D8093A70257
:1032C0009093A802A093A902B093AA02BF91AF91D4
:1032D0009F918F911F901FBE1F90189582E084BD13
:1032E00093E095BD9AEF97BD80936E0008952FB738
:1032F000F8948091A7029091A802A091A902B091A0
:10330000AA022FBF0895CF92DF92EF92FF929C0105
:103310004FB7F8948091A7029091A802A091A902BA
:10332000B091AA024FBF6C017D01EE24FF24A901D8
:1033300070E060E0C416D506E606F70638F0821B9A
:10334000930BFF90EF90DF90CF9008950197F7CF08
:103350001F921FB61F9211248F939F93AF93BF9319
:103360008091A7029091A802A091A902B091AA020F
:103370000196A11DB11D8093A7029093A802A0936E
:10338000A902B093AA02BF91AF919F918F911F9014
:103390001FBE1F9018950E949D21F8942FEF87EA79
:1033A00091E6215080409040E1F700C0000087E0A6
:1033B00090EBDC018093E5029093E602A093E70294
:1033C000B093E80288E19CE00FB6F894A89580934A
:1033D00060000FBE90936000FFCFAF92BF92CF927C
:1033E000DF92EF92FF920F931F93CF93C0E0AA2436
:1033F000A394B12CE82EF12C8C2F0E94260D6C0189
:1034000010E000E0C501002E02C0880F991F0A9449
:10341000E2F78C219D21892B99F0602F7C2F80E091
:103420000E943E0AE816F90659F481E0CF911F91F7
:103430000F91FF90EF90DF90CF90BF90AF900895E5
:103440000F5F1F4F0A301105E9F6CF5FCC30A1F6B0
:1034500080E0ECCFCF93C82F8CE20E94ED19882337
:1034600021F08C2FCF910C94ED1980E0CF9108952D
:10347000CF93DF9300D000D0CDB7DEB70E94D8182D
:10348000811102C00E94BE1895E6998308C00E946F
:103490005F0C8FE39CE90197F1F700C00000A98160
:1034A000A150A983A111F3CF89E20E942A1A8111A8
:1034B00010C18AE20E942A1A81110E94BE1885E07A
:1034C0000E942A1A81110E94CB190E94E31880934E
:1034D000A50287E00E942A1A882371F08BE10E94DE
:1034E0002A1A882309F4D1C09091A502892F8D7FD3
:1034F00091FF82608093A5028091A5020E94E71847
:103500000E94F51890E09093AC028093AB0280EE9D
:103510000E942A1A882341F09091AB02892F8E7F56
:1035200090FF81608093AB0289E30E942A1A88236E
:1035300041F09091AB02892F8D7F91FF8260809343
:10354000AB0282EE0E942A1A882341F09091AB02CE
:10355000892F8B7F92FF84608093AB0286EE0E945E
:103560002A1A882341F09091AB02892F877F93FF1D
:1035700088608093AB0283EE0E942A1A882341F070
:103580009091AB02892F8F7E94FF80618093AB0274
:1035900085E30E942A1A882341F09091AB02892F7B
:1035A0008F7D95FF80628093AB0281E30E942A1A8F
:1035B000882341F09091AB02892F8F7B96FF806426
:1035C0008093AB0281E10E942A1A882341F09091F6
:1035D000AB02892F97FB87F980588093AB028091CB
:1035E000AB020E94F91887E20E942A1A89838EE1B1
:1035F0000E942A1A882319F0B981B260B9838FE139
:103600000E942A1A882319F029812460298380E2E4
:103610000E942A1A882319F039813860398381E29F
:103620000E942A1A882319F049814061498382E265
:103630000E942A1A882319F059815062598383E223
:103640000E942A1A882319F089818064898384E280
:103650000E942A1A8823B1F19981906899838981FF
:103660000E94F0183981232F30E050E040E0298398
:103670003A834B835C83CA01B9010F900F900F907E
:103680000F90DF91CF910C943B158EE00E942A1A87
:10369000882339F09091A502892F8B7F92FF846057
:1036A00029CF80E10E942A1A9091A502882329F04F
:1036B000892F877F93FF88601DCF892F8E7F90FF92
:1036C000816018CFA981A111CACF0E94EC18282FC0
:1036D000CBCF0F900F900F900F90DF91CF91089567
:1036E0008091AF0280FF12C06091050185E0689F64
:1036F000B0011124759567957595679560387105CA
:10370000A8F561157105A1F1862F089581FF09C003
:103710006091050185E0689FB0011124759567955A
:10372000EDCF6091050182FD0AC02091B0022223F5
:10373000D1F09091040160910501291728F085E0EE
:10374000689FB0011124DACF269F9001112485E0F3
:10375000829FA001839F500D1124692F70E0CA0140
:103760000E94D625CBCF65E070E0CECF8FE70895DD
:1037700081E008958091AF0280FF0CC06091030149
:1037800070E075956795759567956115710549F1B7
:10379000862F089581FF06C06091030170E0759542
:1037A0006795F3CF6091030182FD0BC09091B00249
:1037B0009923A1F06091020180910301961738F0DE
:1037C000682F70E06038710500F38FE70895899FD6
:1037D000C001112470E00E94D625F4CF61E070E0B2
:1037E000D7CF81E00895805F803108F045C0E82F91
:1037F000F0E0EF59F94D0C94EA250E94701B819579
:103800008093B30208950E94701BFACF0E94701B30
:1038100081958093B20208950E94701BFACF0E9496
:10382000BA1B8093B40208950E94BA1B8195F9CF08
:103830000E94BA1B81958093B50208950E94BA1B1D
:10384000FACF8091B10281608093B1020895809196
:10385000B1028260F9CF8091B1028460F5CF80918E
:10386000B1028860F1CF8091B1028061EDCF80918B
:10387000AF0281608093AF0208958091AF028260B1
:10388000F9CF8091AF028460F5CFE82F3091B30279
:103890002091B2029091B4028091B502E03F91F480
:1038A00037FD1092B3028091B2029091B302892B3E
:1038B0009091B402892B9091B502892B11F410924A
:1038C000B0020895E13F19F413165CF3ECCFE23F28
:1038D00029F427FFE8CF1092B202E5CFE33F19F4B5
:1038E0001216CCF3E0CFE93F29F41916E4F6109252
:1038F000B402D9CFEA3F19F497FFD5CFF8CFEB3F09
:1039000029F487FFD0CF1092B502CDCFEC3F19F448
:103910001816CCF3C8CFE45FEC3008F0C4CFF0E069
:10392000EF58F94D0C94EA258091B1028E7F809377
:10393000B102B9CF8091B1028D7FF9CF8091B102F0
:103940008B7FF5CF8091B102877FF1CF8091B1025B
:103950008F7EEDCF8091AF028E7F8093AF02A3CF99
:103960008091AF028D7FF9CF8091AF028B7FF5CF31
:1039700081EB92E00E944C0D0E9477199093AE0269
:103980008093AD0208951F93CF93DF9300D000D0B2
:1039900000D0CDB7DEB78091AD029091AE020E940B
:1039A0008319AC018091B0022091060130E08111B1
:1039B00006C0209107019AE0299F90011124421727
:1039C000530788F02091B202A091B302A98310910D
:1039D000B402B091B502BE8321110FC09A2F912B72
:1039E0009B2B09F0B2C026960FB6F894DEBF0FBE2F
:1039F000CDBFDF91CF911F9108958F3F19F08F5F59
:103A00008093B002121624F40E94701B8093B202BD
:103A10008091B20287FF05C00E94701B8195809340
:103A2000B2022981121624F40E94701B8093B30203
:103A30008091B30287FF05C00E94701B819580931F
:103A4000B3028091B202882309F455C03091B302C9
:103A50003D83332309F44FC0282F880F330B440BC9
:103A6000550B29833A834B835C83CA01B9010E94B9
:103A7000DD2423E333E343E35FE369837A838B83CA
:103A80009C8369817A818B819C810E944125698315
:103A90007A838B839C8369817A818B819C810E944C
:103AA000A5246093B2028D81082E000C990BAA0BFD
:103AB000BB0B89839A83AB83BC83BC01CD010E947D
:103AC000DD2423E333E343E35FE369837A838B837A
:103AD0009C8369817A818B819C810E9441256983C5
:103AE0007A838B839C8369817A818B819C810E94FC
:103AF000A5246093B302111624F40E94BA1B80938C
:103B0000B4028091B40287FF05C00E94BA1B819560
:103B10008093B4029E81191624F40E94BA1B8093EC
:103B2000B5028091B50287FF05C00E94BA1B81953E
:103B30008093B50226960FB6F894DEBF0FBECDBFB8
:103B4000DF91CF911F910C94B81C8F3F09F057CF94
:103B500068CF85E0E1EBF2E0DF011D928A95E9F79D
:103B60001092B0021092AF0208958091D60208958B
:103B7000CF93DF9300D00F92CDB7DEB72091DB0259
:103B8000243019F523E029838A839B832093E9005D
:103B90008FEF9091E800815095FD06C095ED9A95C4
:103BA000F1F700008111F5CF8091E80085FF0DC08D
:103BB00050E040E063E070E0CE0101960E941520E5
:103BC0008091E8008E778093E8000F900F900F901F
:103BD000DF91CF910895CF93DF9300D00F92CDB7AF
:103BE000DEB79C018091DB02843031F582E089836D
:103BF000205831093B832A8383E08093E9008FEFCB
:103C00009091E800815095FD06C095ED9A95F1F7E9
:103C100000008111F5CF8091E80085FF0DC050E0D4
:103C200040E063E070E0CE0101960E941520809193
:103C3000E8008E778093E8000F900F900F90DF914F
:103C4000CF9108952091DB022430F1F422E02093FB
:103C5000E9002FEF3091E800215035FD06C035ED29
:103C60003A95F1F700002111F5CF2091E80025FFEA
:103C70000BC050E040E065E070E00E9415208091AC
:103C8000E8008E778093E8000895CF93DF93D82FD4
:103C9000C92F8091DB028430F1F4909112019923B5
:103CA000E9F09091AB0297FF19C08093E9008FEF84
:103CB0009091E800815095FD06C095E19A95F1F745
:103CC00000008111F5CF8091E80050E040E060E213
:103CD00070E085FD1AC0DF91CF91089581E0809357
:103CE000E9008FEF9091E800815095FD06C095EDB9
:103CF0009A95F1F700008111F5CF8091E80085FFDA
:103D0000EACF50E040E068E070E08D2F9C2F0E94E9
:103D100015208091E8008E778093E80080E2ED2FF7
:103D2000FC2FA6EBB2E001900D928A95E1F7D3CF7C
:103D30008091E402811109C00E949D210E94FF210F
:103D40008091E20084608093E20008951092E40282
:103D50000895089508950C94411942E061EC81E0C2
:103D60000E94192142E061EC82E00E94192142E0A8
:103D700061EC83E00E94192142E261EC84E00C9442
:103D800019218091DD02893089F148F4823009F4EB
:103D900094C0833009F44FC0813041F008958A30D7
:103DA00009F47BC08B3009F461C008958091DC0276
:103DB000813A09F03FC08091E800877F8093E80056
:103DC0008091E0029091E102892B61F460E286EB40
:103DD00092E070E00E9464208091E8008B778093ED
:103DE000E800089560E090E080E0F3CF8091DC028D
:103DF000813201F58091E0029091E102009711F08B
:103E00000397C1F48091E800877F8093E800809158
:103E1000E80082FF0BC08091F1008093D602809170
:103E2000E8008B778093E8000C944D218091DB02B1
:103E30008111EDCF08958091DC02813AD9F780910C
:103E4000E0029091E102892BA9F78091E800877F39
:103E50008093E8008091E80080FFFCCF8091120100
:103E60008093F1008091E8008E77DCCF8091DC02B6
:103E7000813201F78091E0029091E102892BD1F625
:103E80008091E800877F8093E8000E944D21809117
:103E9000DE02809312010C94B5118091DC02813214
:103EA00049F68091E800877F8093E8000E944D21C9
:103EB0008091DF028093D70208958091DC02813ADD
:103EC00009F0B8CF8091E800877F8093E800809167
:103ED000E80080FFFCCF8091D702C2CF84B7877FF4
:103EE00084BF0FB6F894A895809160008861809394
:103EF0006000109260000FBE80E880936100109215
:103F000061000E94840D0E949D210E94FF218091EA
:103F1000E20084608093E20078940E948B240E94E7
:103F2000860D88E091E00E94300D8091DB028530A3
:103F300019F00E948C0DF9CF0E94FE188091D802D2
:103F4000882399F30E942C19882379F30E94FF1F7C
:103F5000ECCF9C01DA01892F992783309105C1F0BC
:103F600068F48130910509F445C0029761F48DE64B
:103F700090E028EC3FE02D933C9308958132910529
:103F8000E1F0829739F190E080E030E020E0F3CF7B
:103F9000C9019927213059F08230910559F0E4EC9C
:103FA000FFE0892B81F7849190E09F01E4CFECEA58
:103FB000FFE0F9CFE8E9FFE0F6CF643020F7E62F25
:103FC000F0E0EE0FFF1FE957FE4F2081318189E0BD
:103FD00090E0D1CF6430B8F670E0FB01EE0FFF1F28
:103FE000E158FE4F2081318165587E4FFB01808171
:103FF00090E0C1CF82E190E025E330E1BCCF84E1E5
:1040000089BD86E189BD09B400FEFDCF8091D8004D
:104010008F7D8093D8008091E00082608093E000E3
:104020008091E00081FDFCCF0895AF92BF92CF92C6
:10403000DF92FF920F931F93CF93DF936C01EB01FD
:104040008A010E946C21F82E811123C001151105EF
:1040500039F0F80180819181C81BD90BC80ED91E97
:10406000B12CA12C2097A9F08091E80085FD22C0F9
:104070008091E8008E778093E80001151105A1F08A
:10408000F801808191818A0D9B1D9183808385E059
:10409000F82E8F2DDF91CF911F910F91FF90DF9020
:1040A000CF90BF90AF9008950E946C218823D1F2E9
:1040B000F82EEFCFF60181916F018093F1002197E7
:1040C000FFEFAF1ABF0ACECFFC01CB012091E20275
:1040D0003091E3022617370790F0009729F42091DA
:1040E000E8002E772093E80040E0009751F441115A
:1040F00008C08091E80082FF31C080E00895C901C6
:10410000F3CF2091DB022223A9F12530A9F12091E0
:10411000E80023FD2DC02091E80022FDEACF209188
:10412000E80020FFE2CF2091F2003091F3000097E9
:1041300019F02830310558F041E02830310509F0F8
:1041400040E02091E8002E772093E800CECF419107
:104150004093F10001972F5F3F4FE9CF8091DB0241
:10416000882341F0853041F08091E80083FFC1CF82
:1041700081E0089582E0089583E00895FC01CB0179
:104180002091E2023091E3022617370790F0009762
:1041900029F42091E8002E772093E80040E0009772
:1041A00051F4411108C08091E80082FF32C080E0E4
:1041B0000895C901F3CF2091DB022223B1F125300C
:1041C000B1F12091E80023FD2EC02091E80022FDEE
:1041D000EACF2091E80020FFE2CF2091F200309159
:1041E000F300009719F02830310558F041E02830ED
:1041F000310509F040E02091E8002E772093E80097
:10420000CECF44914093F100319601972F5F3F4FFD
:10421000E8CF8091DB02882341F0853041F0809126
:10422000E80083FFC0CF81E0089582E0089583E035
:104230000895982F973028F08F708093E90081E0DF
:1042400008959093E900242F762F50E0981731F0CD
:104250007091EC002091ED005091F00021FD02C022
:104260009F5FE8CF3091EB003E7F3093EB003091C1
:10427000ED003D7F3093ED003091EB0031603093E5
:10428000EB007093EC002093ED005093F000209130
:10429000EE0027FDE5CF80E008958091DC0287FFE6
:1042A00013C08091E80082FF06C08091E8008B7700
:1042B0008093E80004C08091DB028111F2CF089561
:1042C0008091DB028823D9F38091E80080FFF8CF4A
:1042D0008091E8008E77ECCF2091E4003091E500EA
:1042E00095E6A9012091EC00822F817020FF06C085
:1042F0008091E80080FF06C080E008952091E800EA
:1043000022FD1AC08091DB02882389F0853089F074
:104310008091EB0085FD0FC02091E4003091E50015
:1043200042175307F9F29150E1F684E0089582E0D4
:10433000089583E0089581E008950E940E220E946E
:104340001622E0EEF0E0808181608083E8EDF0E00D
:1043500080818F77808319BCA7EDB0E08C918E7F30
:104360008C9380818F7E80831092E40208950F9356
:104370001F93CF93DF930E940E220E941622C8ED56
:10438000D0E088818F77888388818068888388815E
:104390008F7D8883E7EDF0E080818068808319BCA1
:1043A0001092DB021092DA021092D8021092D90217
:1043B00000EE10E0F80180818B7F8083888181602E
:1043C000888342E060E080E00E941921E1EEF0E0A5
:1043D00080818E7F8083E2EEF0E080818160808347
:1043E000808188608083F80180818E7F80838881CE
:1043F00080618883DF91CF911F910F910895E8ED3F
:10440000F0E080818F7E8083E7EDF0E08081816045
:10441000808381E08093E4020C94B721E8EDF0E022
:1044200080818C7F80831092E20008951092DA00E0
:104430001092E10008951F920F920FB60F9211246F
:104440000BB60F922F933F934F935F936F937F938E
:104450008F939F93AF93BF93EF93FF938091E1006E
:1044600082FF0BC08091E20082FF07C08091E100D3
:104470008B7F8093E1000E948A248091DA0080FF84
:1044800019C08091D80080FF15C08091DA008E7F1E
:104490008093DA008091D90080FF96C084E189BDC5
:1044A00086E189BD09B400FEFDCF81E08093DB0287
:1044B0000E94981E8091E10080FF19C08091E20067
:1044C00080FF15C08091E2008E7F8093E200809192
:1044D000E20080618093E2008091D8008062809346
:1044E000D80019BC85E08093DB020E94AA1E80914F
:1044F000E10084FF29C08091E20084FF25C084E1AF
:1045000089BD86E189BD09B400FEFDCF8091D80048
:104510008F7D8093D8008091E1008F7E8093E100B1
:104520008091E2008F7E8093E2008091E2008160C2
:104530008093E2008091DA02882309F44BC084E082
:104540008093DB020E94AB1E8091E10083FF29C0B3
:104550008091E20083FF25C08091E100877F8093F6
:10456000E10082E08093DB021092DA028091E100A8
:104570008E7F8093E1008091E2008E7F8093E20045
:104580008091E20080618093E20042E060E080E0A0
:104590000E9419218091F00088608093F0000E94B1
:1045A000A91EFF91EF91BF91AF919F918F917F9144
:1045B0006F915F914F913F912F910F900BBE0F9094
:1045C0000FBE0F901F90189519BC1092DB020E942D
:1045D000A61E70CF8091E30087FD02C081E0B0CFBE
:1045E00083E0AECF1F920F920FB60F9211240BB63D
:1045F0000F92FF920F931F932F933F934F935F93CD
:104600006F937F938F939F93AF93BF93CF93DF93DA
:10461000EF93FF9309EE10E0F8018081C091EC0068
:10462000C795CC27C7958F70FC2EF82A1082C0EF53
:10463000D0E08881877F888378940E943F23F801A7
:104640001082888188608883CF2DCF70C083FF91CE
:10465000EF91DF91CF91BF91AF919F918F917F911A
:104660006F915F914F913F912F911F910F91FF900B
:104670000F900BBE0F900FBE0F901F9018951F93B9
:10468000CF93DF93CDB7DEB7AA970FB6F894DEBF0E
:104690000FBECDBF8CED92E0FC0101962091F100A0
:1046A000208322E0843E9207B9F70E94C11E8091C8
:1046B000E80083FF82C08091DC029091DD029A3095
:1046C00008F07BC0E92FF0E0E358F94D0C94EA259F
:1046D000803881F0823809F070C08091E0028F70DC
:1046E0008093E9008091EB0085FB882780F9109288
:1046F000E90006C08091D9029091D80291118260A0
:104700009091E800977F9093E8008093F1001092D9
:10471000F1008091E8008E77F8C0882309F4E5C0A5
:10472000823009F04AC08091DE028111E9C0809197
:10473000E0028F7009F441C08093E9002091EB0002
:1047400020FFDEC0933031F48091EB0080628093D3
:10475000EB00D6C09091EB0090619093EB0021E0CC
:1047600030E001C0220F8A95EAF72093EA00109208
:10477000EA008091EB008860EACF81111EC01091A1
:10478000DE021F778091E3008078812B8093E30025
:104790008091E800877F8093E8000E944D218091FE
:1047A000E80080FFFCCF8091E30080688093E30005
:1047B00082E0111183E08093DB028091E80083FFA7
:1047C0000AC08091E800877F8093E8008091EB0029
:1047D00080628093EB00AA960FB6F894DEBF0FBEFE
:1047E000CDBFDF91CF911F9108958058823028F777
:1047F0008091DE029091DF028C3D23E0920799F5D3
:1048000083E08A838AE289834FB7F894DE011396A6
:1048100020E03EE051E2E32FF0E050935700849116
:1048200020FF03C082958F703F5F8F708A30C8F081
:10483000895C90E08D939D932F5F243161F74FBF8A
:104840008091E800877F8093E8006AE270E0CE0103
:1048500001960E9464208091E8008B778093E800A5
:10486000ACCF805DE6CFAE014F5F5F4F6091E0025D
:104870000E94A91FBC01892B09F49FCF8091E800F9
:10488000877F8093E80089819A810E94BE20E3CFD0
:10489000803809F092CF8091E800877F8093E8000C
:1048A0008091DA028093F10034CF811186CF90910C
:1048B000DE02923008F081CF8091E800877F8093FC
:1048C000E8009093DA020E944D218091DA02882359
:1048D00011F084E005C08091E30087FDFACF81E00C
:1048E0008093DB020E94AD1E68CF8091DE02813092
:1048F00009F063CF81E0933009F080E08093D80223
:104900001092E9008091E800877F8093E8000E9480
:104910004D2153CF0895CF938091DB02882399F0E6
:104920008091E900C091EC00C795CC27C7958F70A6
:10493000C82B1092E9008091E80083FD0E943F237C
:10494000CF70C093E900CF9108950E94AC24689481
:10495000B1110C943B2508950E94202588F09F57A3
:1049600098F0B92F9927B751B0F0E1F0660F771F93
:10497000881F991F1AF0BA95C9F714C0B13091F089
:104980000E943A25B1E008950C943A25672F782FBC
:104990008827B85F39F0B93FCCF38695779567954E
:1049A000B395D9F73EF490958095709561957F4FBA
:1049B0008F4F9F4F0895E89409C097FB3EF4909560
:1049C0008095709561957F4F8F4F9F4F9923A9F0E8
:1049D000F92F96E9BB279395F69587957795679577
:1049E000B795F111F8CFFAF4BB0F11F460FF1BC0BB
:1049F0006F5F7F4F8F4F9F4F16C0882311F096E94E
:104A000011C0772321F09EE8872F762F05C06623FB
:104A100071F096E8862F70E060E02AF09A95660FB4
:104A2000771F881FDAF7880F9695879597F908956D
:104A300057FD9058440F551F59F05F3F71F047954F
:104A4000880F97FB991F61F09F3F79F08795089534
:104A5000121613061406551FF2CF4695F1DF08C053
:104A6000161617061806991FF1CF86957105610570
:104A700008940895E894BB2766277727CB0197F918
:104A800008950E9454250C94C5250E94B72538F03E
:104A90000E94BE2520F0952311F00C94AE250C94B5
:104AA000B42511240C943B250E94182570F3959F82
:104AB000C1F3950F50E0551F629FF001729FBB2715
:104AC000F00DB11D639FAA27F00DB11DAA1F649FB1
:104AD0006627B00DA11D661F829F2227B00DA11D64
:104AE000621F739FB00DA11D621F839FA00D611DEA
:104AF000221F749F3327A00D611D231F849F600D0B
:104B0000211D822F762F6A2F11249F5750409AF033
:104B1000F1F088234AF0EE0FFF1FBB1F661F771FBF
:104B2000881F91505040A9F79E3F510580F00C948A
:104B3000AE250C943B255F3FE4F3983ED4F3869575
:104B400077956795B795F795E7959F5FC1F7FE2B2A
:104B5000880F911D9695879597F9089597F99F6706
:104B600080E870E060E008959FEF80EC08950024F5
:104B70000A941616170618060906089500240A94C2
:104B800012161306140605060895092E0394000C48
:104B900011F4882352F0BB0F40F4BF2B11F460FFD7
:104BA00004C06F5F7F4F8F4F9F4F089597FB072E75
:104BB00016F4009407D077FD09D00E94F32507FC76
:104BC00005D03EF4909581959F4F0895709561951D
:104BD0007F4F0895EE0FFF1F0024001C0BBE0790AF
:104BE000F691E02D0994AA1BBB1B51E107C0AA1F37
:104BF000BB1FA617B70710F0A61BB70B881F991F7E
:104C00005A95A9F780959095BC01CD010895F99921
:104C1000FECF92BD81BDF89A992780B50895A8E18D
:104C2000B0E042E050E00C942F26262FF999FECFF9
:104C300092BD81BDF89A019700B4021639F01FBAEF
:104C400020BD0FB6F894FA9AF99A0FBE089501960E
:104C5000272F0E9416260C941526DC01CB01FC019F
:104C6000F999FECF06C0F2BDE1BDF89A319600B4C5
:104C70000D9241505040B8F70895F894FFCFA6091F
:104C8000B209B609BA09BE09C209C609CA09CE09DC
:104C9000D209D609DA09DE09E209E609EA09EE09CC
:104CA000F2095C0F5C0FB40FB40FF80F14108C0FE7
:104CB0008C0F1F108C0FEB10EB1056118C0F8C0FFC
:104CC0005F11FD1B031C061C0C1C211C271C2B1C2C
:104CD0002F1C331C0F1C141C181C1E1C371C3D1CC5
:104CE000411C941C9A1C9E1CA21CA61C531C531CE9
:104CF000531C531CAA1CB01CB41C68238D23DD2339
:0E4D00008D23DD23BD23F523DD234824552418
:104D0E0082022808140A321EB51D451E221EEB1DF6
:104D1E00B81D01E944EA44B544B644B744CD4483D2
:104D2E0045CC448A45924594452146234624462542
:104D3E0046264627462A46B344B4449737959431BF
:104D4E0030C7C636F0626364656667F7F6F5F3F250
:104D5E00F1E200E900EA00B500B600B700CD00832D
:104D6E0001CC008A01920194012102230224022522
:104D7E0002260227022A02B300B400404D36390340
:104D8E0011B61080104710DA0FF30F0C102510001B
:00000001FF
