:100000000C94A20A0C94EB0A0C94EB0A0C94EB0AE5
:100010000C94EB0A0C94EB0A0C94EB0A0C94EB0A8C
:100020000C94EB0A0C94EB0A0C94E1230C94B82486
:100030000C94151B0C94EB0A0C94EB0A0C94EB0A31
:100040000C94EB0A0C94EB0A0C94EB0A0C94EB0A5C
:100050000C94EB0A0C94761B0C94EB0A0C94EB0AB0
:100060000C94EB0A0C94EB0A0C94EB0A0C94EB0A3C
:100070000C94EB0A0C94EB0A0C94EB0A0C94EB0A2C
:100080000C94EB0A0C94EB0A0C94EB0A0C94EB0A1C
:100090000C94EB0A0C94EB0A290040003F003A0054
:1000A0003E003D003C003B0036005B005A0037003C
:1000B000590052000000380000000000000000005D
:1000C0000000000065000000E100000000000000EA
:1000D00000000000000000003600100011001D00AC
:1000E0000500190006001B0000005E005D004600D0
:1000F0005C000000550054000000000000000000FB
:100100000000E00000000000E0000D000B00040013
:100110000A000900070016003500240023001E0015
:100120002200210020001F002B0018001C001400DA
:100130001700150008001A000C004D004C001200BA
:10014000310030002F00130025004A00490026002E
:100150002A002E002D0027004100A900AA0042001D
:10016000A8004500440043002C0058006300000034
:1001700062004F0051005000000000000000E3004A
:10018000000000000000000000000000000000006F
:10019000000000000000E2000000610060000000BC
:1001A0005F005600570000000000E600000000005D
:1001B00000000000000000000E0000004B000F00D7
:1001C0004E0028003400330001000100010001004E
:1001D0000100010001000100010001000100010017
:1001E000010001000000010000000000000000000C
:1001F00000000000010000000100000000000000FD
:1002000000000000000000000100010001000100EA
:1002100001000100010001000000010001000100D7
:1002200001000000010001000000000000000000CB
:1002300000000100000000000100010001000100B9
:1002400001000100010001000100010001000100A6
:100250000100010001000100010001000100010096
:100260000100010001000100010001000100010086
:100270000100010001000100010001000100010076
:100280000100010001000100010001000100010066
:100290000100010001000100010001000100000057
:1002A0000100010001000100000000000000010049
:1002B000000000000000000000000000000000003E
:1002C000000000000000010000000100010000002B
:1002D000010001000100000000000100000000001A
:1002E000000000000000000001000000010001000B
:1002F00001000100010001000100010001000100F6
:1003000001000100010001000100010001000100E5
:1003100001000100000001000000000000000000DA
:1003200000000000010000000100000000000000CB
:1003300000000000000000000100010001000100B9
:1003400001000100010001000000010001000100A6
:10035000010000000100010000000000000000009A
:100360000000010000000000010001000100010088
:100370000100010001000100010001000100010075
:100380000100010001000100010001000100010065
:100390000100010001000100010001000100010055
:1003A0000100010001000100010001000100010045
:1003B0000100010001000100010001000100010035
:1003C0000100010001000100010001000100000026
:1003D0000100010001000100000000000000010018
:1003E000000000000000000000000000000000000D
:1003F00000000000000001000000010001000000FA
:1004000001000100010000000000010000000000E8
:1004100000000000000000000100000001000100D9
:1004200001000100010001000100010001000100C4
:1004300001000100010001000100010001000100B4
:1004400001000100000001000000000000000000A9
:10045000000000000100000001000000000000009A
:100460000000000000000000010001000100010088
:100470000100010001000100000001000100010075
:100480000100000001000100000000000000000069
:100490000000010000000000010001000100010057
:1004A0000100010001000100010001000100010044
:1004B0000100010001000100010001000100010034
:1004C0000100010001000100010001000100010024
:1004D0000100010001000100010001000100010014
:1004E0000100010001000100010001000100010004
:1004F00001000100010001000100010001000000F5
:1005000001000100010001000000000000000100E6
:1005100000000000000000000000000000000000DB
:1005200000000000000001000000010001000000C8
:1005300001000100010000000000010000000000B7
:1005400000000000000000000100000001000100A8
:100550000100010001000100010001000100010093
:100560000100010001000100010001000100010083
:100570000100010000000100000000000000000078
:100580000000000001000000010000000000000069
:100590000000000000000000010001000100010057
:1005A0000100010001000100000001000100010044
:1005B0000100000001000100000000000000000038
:1005C0000000010000000000010001000100010026
:1005D0000100010001000100010001000100010013
:1005E0000100010001000100010001000100010003
:1005F00001000100010001000100010001000100F3
:1006000001000100010001000100010001000100E2
:1006100001000100010001000100010001000100D2
:1006200001000100010001000100010001000000C3
:1006300001000100010001000000000000000100B5
:1006400000000000000000000000000000000000AA
:100650000000000000000100000001000100000097
:100660000100010001000000000001000000000086
:100670000000000000000000010000000100010077
:100680000100010001000100010001000100010062
:100690000100010001000100010001000100010052
:1006A0000100010000000100000000000000000047
:1006B0000000000001000000010000000000000038
:1006C0000000000000000000010001000100010026
:1006D0000100010001000100000001000100010013
:1006E0000100000001000100000000000000000007
:1006F00000000100000000000100010001000100F5
:1007000001000100010001000100010001000100E1
:1007100001000100010001000100010001000100D1
:1007200001000100010001000100010001000100C1
:1007300001000100010001000100010001000100B1
:1007400001000100010001000100010001000100A1
:100750000100010001000100010001000100000092
:100760000100010001000100000000000000010084
:100770000000000000000000000000000000000079
:100780000000000000000100000001000100000066
:100790000100010001000000000001000000000055
:1007A0000000000000000000010000000100010046
:1007B0000100010001000100010001000100010031
:1007C0000100010001000100010001000100010021
:1007D0000100010000000100000000000000000016
:1007E0000000000001000000010000000000000007
:1007F00000000000000000000100010001000100F5
:1008000001000100010001000000010001000100E1
:1008100001000000010001000000000000000000D5
:1008200000000100000000000100010001000100C3
:1008300001000100010001000100010001000100B0
:1008400001000100010001000100010001000100A0
:100850000100010001000100010001000100010090
:100860000100010001000100010001000100010080
:100870000100010001000100010001000100010070
:100880000100010001000100010001000100000061
:100890000100010001000100000000000000010053
:1008A0000000000000000000000000000000000048
:1008B0000000000000000100000001000100000035
:1008C0000100010001000000000001000000000024
:1008D0000000000000000000010000000100010015
:1008E0000100010001000100010001000100010000
:1008F00001000100010001000100010001000100F0
:1009000001000100000001000000000000000000E4
:1009100000000000010000000100000000000000D5
:1009200000000000000000000100010001000100C3
:1009300001000100010001000000010001000100B0
:1009400001000000010001000000000000000000A4
:100950000000010000000000010001000100010092
:10096000010001000100010001000100010001007F
:10097000010001000100010001000100010001006F
:10098000010001000100010001000100010001005F
:10099000010001000100010001000100010001004F
:1009A000010001000100010001000100010001003F
:1009B0000100010001000100010001000100000030
:1009C0000100010001000100000000000000010022
:1009D0000000000000000000000000000000000017
:1009E0000000000000000100000001000100000004
:1009F00001000100010000000000010000000000F3
:100A000000000000000000000100000001000100E3
:100A100001000100010001000100010001000100CE
:100A200001000100010001000100010001000100BE
:100A300001000100000001000000000000000000B3
:100A400000000000010000000100000000000000A4
:100A50000000000000000000010001000100010092
:100A6000010001000100010000000100010001007F
:100A70000100000001000100000000000000000073
:100A80000000010000000000010001000100010061
:100A9000010001000100010001000100010001004E
:100AA000010001000100010001000100010001003E
:100AB000010001000100010001000100010001002E
:100AC000010001000100010001000100010001001E
:100AD000010001000100010001000100010001000E
:100AE00001000100010001000100010001000000FF
:100AF00001000100010001000000000000000100F1
:100B000000000000000000000000000000000000E5
:100B100000000000000001000000010001000000D2
:100B200001000100010000000000010000000000C1
:100B300000000000000000000100000001000100B2
:100B4000010001000100010001000100010001009D
:100B5000010001000100010001000100010001008D
:100B60000100010000000100000000000000000082
:100B70000000000001000000010000000000000073
:100B80000000000000000000010001000100010061
:100B9000010001000100010000000100010001004E
:100BA0000100000001000100000000000000000042
:100BB0000000010000000000010001000100010030
:100BC000010001000100010001000100010001001D
:100BD000010001000100010001000100010001000D
:100BE00001000100010001000100010001000100FD
:100BF00001000100010001000100010001000100ED
:100C000001000100010001000100010001000100DC
:100C100001000100010001000100010001000000CD
:100C200001000100010001000000000000000100BF
:100C300000000000000000000000000000000000B4
:100C400000000000000001000000010001000000A1
:100C50000100010001000000000001000000000090
:100C60000000000000000000010000000100010081
:100C7000010001000100010001000100010001006C
:100C8000010001000100010001000100010001005C
:100C90000100010000000100000000000000000051
:100CA0000000000001000000010000000000000042
:100CB0000000000000000000010001000100010030
:100CC000010001000100010000000100010001001D
:100CD0000100000001000100000000000000000011
:100CE00000000100000000000100010001000100FF
:100CF00001000100010001000100010001000100EC
:100D000001000100010001000100010001000100DB
:100D100001000100010001000100010001000100CB
:100D200001000100010001000100010001000100BB
:100D300001000100010001000100010001000100AB
:100D4000010001000100010001000100010000009C
:100D5000010001000100010000000000000001008E
:100D60000000000000000000000000000000000083
:100D70000000000000000100000001000100000070
:100D8000010001000100000000000100000000005F
:100D90000000000000000000010000000100010050
:100DA000010001000100010001000100010001003B
:100DB000010001000100010001000100010001002B
:100DC0000100010000000100000000000000000020
:100DD0000000000001000000010000000000000011
:100DE00000000000000000000100010001000100FF
:100DF00001000100010001000000010001000100EC
:100E000001000000010001000000000000000000DF
:100E100000000100000000000100010001000100CD
:100E200001000100010001000100010001000100BA
:100E300001000100010001000100010001000100AA
:100E4000010001000100010001000100010001009A
:100E5000010001000100010001000100010001008A
:100E6000010001000100010001000100010001007A
:100E7000010001000100010001000100010000006B
:100E8000010001000100010000000000000001005D
:100E90000000000000000000000000000000000052
:100EA000000000000000010000000100010000003F
:100EB000010001000100000000000100000000002E
:100EC000000000000000000001000000010001001F
:100ED000010001000100010001000100010001000A
:100EE00001000100010001000100010001000100FA
:100EF00001000100000001000000000000000000EF
:100F000000000000010000000100000000000000DF
:100F100000000000000000000100010001000100CD
:100F200001000100010001000000010001000100BA
:100F300001000000010001000000000000000000AE
:100F4000000001000000000001000100010001009C
:100F50000100010001000100010001000100010089
:100F60000100010001000100010001000100010079
:100F70000100010001000100010001000100010069
:100F80000100010001000100010001000100010059
:100F90000100010001000100010001000100010049
:100FA000010001000100010001000100010000003A
:100FB000010001000100010000000000000001002C
:100FC0000000000000000000000000000000000021
:100FD000000000000000010000000100010000000E
:100FE00001000100010000000000010000000000FD
:100FF00000000000000000000100000001000100EE
:1010000001000100010001000100010001000100D8
:1010100001000100010001000100010001000100C8
:1010200001000100000001000000000000000000BD
:1010300000000000010000000100000000000000AE
:10104000000000000000000001000100010001009C
:101050000100010001000100000001000100010089
:10106000010000000100010000000000000000007D
:10107000000001000000000001000100010001006B
:101080000100010001000100010001000100010058
:101090000100010001000100010001000100010048
:1010A0000100010001000100010001000100010038
:1010B0000100010001000100010001000100010028
:1010C0000100010001000100010001000100010018
:1010D0000100010001000100010001000100000009
:1010E00001000100010001000000000000000100FB
:1010F00000000000000000000000000000000000F0
:1011000000000000000001000000010001000000DC
:1011100001000100010000000000010000000000CB
:1011200000000000000000000100000001000100BC
:1011300001000100010001000100010001000100A7
:101140000100010001000100010001000100010097
:10115000010001000000010000000000000000008C
:10116000000000000100000001000000000000007D
:10117000000000000000000001000100010001006B
:101180000100010001000100000001000100010058
:10119000010000000100010000000000000000004C
:1011A000000001000000000001000100010001003A
:1011B0000100010001000100010001000100010027
:1011C0000100010001000100010001000100010017
:1011D0000100010001000100010001000100010007
:1011E00001000100010001000100010001000100F7
:1011F00001000100010001000100010001000100E7
:1012000001000100010001000100010001000000D7
:1012100001000100010001000000000000000100C9
:1012200000000000000000000000000000000000BE
:1012300000000000000001000000010001000000AB
:10124000010001000100000000000100000000009A
:10125000000000000000000001000000010001008B
:101260000100010001000100010001000100010076
:101270000100010001000100010001000100010066
:10128000010001000000010000000000000000005B
:10129000000000000100000001000000000000004C
:1012A000000000000000000001000100010001003A
:1012B0000100010001000100000001000100010027
:1012C000010000000100010000000000000000001B
:1012D0000000010000000000010001000100010009
:1012E00001000100010001000100010001000100F6
:1012F00001000100010001000100010001000100E6
:1013000001000100010001000100010001000100D5
:1013100001000100010001000100010001000100C5
:1013200001000100010001000100010001000100B5
:1013300001000100010001000100010001000000A6
:101340000100010001000100000000000000010098
:10135000000000000000000000000000000000008D
:10136000000000000000010000000100010000007A
:101370000100010001000000000001000000000069
:10138000000000000000000001000000010001005A
:10139000010001000100010012036B0065007900EB
:1013A00062006F00610072006400000016037100AB
:1013B0006D006B006200750069006C0064006500E0
:1013C000720000000403090409026D00040100A07A
:1013D000FA090400000103010100092111010001C3
:1013E0002240000705810308000A090401000103E7
:1013F000010200092111010001224D0007058203AD
:1014000008000A090402000103000000092111017B
:1014100000012236000705830308000A09040300BF
:101420000103000000092111010001223900070514
:1014300084032000011201100100000008EDFE608D
:101440006001000102000105010906A1010507195B
:10145000E029E715002501950875018102050819A5
:101460000129059505750191029501750391010505
:1014700007190029F71500250195F875018102C0AB
:1014800005010980A10185021601002603001A81C9
:10149000002A8300751095018100C0050C0901A187
:1014A000018503160100269C021A01002A9C027580
:1014B0001095018100C005010902A1010901A100E7
:1014C00005091901290515002501950575018102F8
:1014D0009501750381010501093009311581257FC9
:1014E00095027508810609381581257F95017508D3
:1014F0008106050C0A38021581257F950175088142
:1015000006C0C005010906A101050719E029E71574
:101510000025019508750181029501750881010575
:101520000819012905950575019102950175039129
:10153000010507190029FF150026FF00950675080B
:101540008100C00011241FBECFEFD0E2DEBFCDBFAF
:1015500004B603FE27C08091EE029091EF02A091A5
:10156000F002B091F1028730904BA740B04BD1F41C
:101570001092EE021092EF021092F0021092F1021D
:1015800014BE84B7877F84BF0FB6F894A895809166
:101590006000886180936000109260000FBEE0E000
:1015A000F8EF099511E0A0E0B1E0EAE9F0E500E02C
:1015B0000BBF02C007900D92A439B107D9F722E002
:1015C000A4E9B1E001C01D92AE3EB207E1F70E946E
:1015D00034210C9403280C94000090E080E00895DE
:1015E0000895089581E00895089581E008950C9488
:1015F000F20A0E9485132FEF84E39CE02150804083
:101600009040E1F700C000000C94991BEF92FF920C
:101610000F931F93CF93DF938C01FC01E080F18047
:101620008091E901811140C082818823C1F1C70105
:101630000E94EE18C82F682FC7010E949818B701A2
:101640008C2F0E943E0CEC01B8010E94F70A8823FF
:1016500009F44BC0B801CE010E94BF0D882309F4E4
:1016600044C0C531F0E7DF0720F5C23080E7D80776
:1016700008F04DC0C115E0E7DE0791F1C130D04759
:10168000E1F181E08093960180939701C801DF9199
:10169000CF911F910F91FF90EF900C94F50AC70125
:1016A0000E94C518C82FCBCFC7010E94EE18B70102
:1016B000C8CFCC3380E7D80709F49BC0CD33D047DF
:1016C00001F7F8018281882309F4BAC010929701CA
:1016D0000E94451B909395018093940180E296C0EF
:1016E000F801828181110E94F90A80E0DF91CF9197
:1016F0001F910F91FF90EF900895F8018281882348
:10170000A1F38091AE0281608093AE02EECFF8012A
:101710008281882309F4BACF0E94A71A811102C0DE
:101720000E948D1A0E94C41A90E09093B502809393
:10173000B402FE01E350F0478091B4028160E231CF
:10174000F10538F4EB5FF74D0C94B0278091B402AB
:1017500082608093B4028091B4020E94C81A0E94F1
:101760008513C3CF8091B4028460F3CF8091B4021B
:101770008860EFCF8091B4028061EBCF8091B4029A
:101780008062E7CF8091B4028064E3CF8091B4029D
:101790008068DFCF8091B4028C60DBCF8091B4028F
:1017A0008E7FD7CF8091B4028D7FD3CF8091B4024A
:1017B0008B7FCFCF8091B402877FCBCF8091B40253
:1017C0008F7EC7CF8091B4028F7DC3CF8091B4024A
:1017D0008F7BBFCF8091B4028F77BBCF8091B40253
:1017E000837FB7CF9091B402892F97FB87F98058F8
:1017F000B0CFF8018281882361F0109296010E9497
:10180000451B909395018093940182E00E94E6101D
:101810006CCF8091960181110FC0809194019091BD
:1018200095010E94511B883C910530F486E20E948C
:10183000351086E20E94971082E00E94ED1055CF8D
:101840008091970181110FC0809194019091950131
:101850000E94511B883C910530F487E20E943510AC
:1018600087E20E94971080E2E8CF0C940E0E0C9451
:10187000100E0C94F40A0C94390C0895E72FF0E044
:1018800093E1899FE00DF11D112483E0EE0FFF1F0E
:101890008A95E1F7E60FF11DEE0FFF1FE856FF4FA7
:1018A000859194910895FC01EE0FFF1FE856FC4EC0
:1018B0008591949108950E943E0C0E94430D9C01D5
:1018C00081159044F0F5211580E3380708F0AFC08A
:1018D000203E3105F0F4203C310508F090C0283A54
:1018E000310570F4253A310508F08DC021303105FD
:1018F00029F0C9010497813A910540F4C90108957E
:10190000C901885A9109459708F486C030E020E063
:10191000F5CF211540E2340770F42F3F310509F06F
:1019200068F7283E310550F3C901805F91093065A1
:10193000409720F3EBCFC9019F700E94530C9C018C
:10194000DDCF211584E5380708F042C0211543E5B5
:10195000340708F077C0211582E5380740F52115D6
:1019600041E5340708F069C0211580E5380708F41F
:1019700061C0C90154E0969587955A95E1F7382FD3
:101980003370822F86958695837040E2849FC001D4
:101990001124932B422F437021E030E002C0220F2C
:1019A000331F4A95E2F7282B392B3C68A7CFA901B2
:1019B0004370552781E090E002C0880F991F4A9537
:1019C000E2F72695269540E2249F90011124EBCF63
:1019D000211586E5380750F4922F882721153545C3
:1019E00008F044C09C01246F306A88CFC90190562A
:1019F0003F708115904108F089CF30627FCFC901D7
:101A0000805C91099ACF253A3105A1F1263A31053A
:101A1000A1F123E830E472CF283A310589F1220F91
:101A2000331FF901EF53F0402081318167CF332715
:101A3000306C64CF3F70306A61CF322F2227216F24
:101A4000306A5CCFA9014370552781E090E002C065
:101A5000880F991F4A95E2F72695269540E2249F24
:101A600090011124282B392B3A6848CF88279F7181
:101A70009C01C3CF21E830E441CF22E830E43ECFDF
:101A800022EE34E43BCF803E910581F1C8F48133EE
:101A9000910509F462C048F48932910509F456C0F1
:101AA0008A32910509F460C0089589339105B9F02F
:101AB00082389105A1F08533910509F440C008955D
:101AC000863E910561F138F4823E9105B1F0833E86
:101AD0009105E1F00895873E910551F10895209117
:101AE000B4022370D9F080EE90E008952091B40202
:101AF00020FF14C089E390E008952091B40222FFF2
:101B00000DC024FD09C083EE90E008952091B40239
:101B100022FD31C024FF02C090E080E008952091B2
:101B2000B40223FFFBCF24FDF7CF87EE90E00895AA
:101B30002091B40223FFEECF86EE90E0089520912D
:101B4000B40225FFEBCF89E290E008952091B40222
:101B500025FFE4CF85E390E008952091B40226FFAD
:101B6000DDCF8AE290E008952091B40226FFD6CF1F
:101B700081E390E0089582EE90E0089508950F9338
:101B80001F93CF938C01FB018281811106C0C1E0BC
:101B90008C2FCF911F910F910895C091A501C11174
:101BA00025C00531104799F70E94BE0D81E0809352
:101BB000A5010E94451B9093A4018093A30110925C
:101BC000980110929A011092990110929C01109222
:101BD0009B0110929E0110929D011092A001109203
:101BE0009F011092A2011092A101D2CF8091A30176
:101BF0009091A4010E94511B883C910540F6809170
:101C00009801E82FF0E0EE0FFF1FE756FE4F11831B
:101C100000838F5F80939801C0E0BACF0C94F00AE4
:101C20000C94F10A85B7806885BF85B7806885BF49
:101C3000A3E4B1E046E551E061E070E08D91E82F6A
:101C4000E295EF70F0E091A18F709B0101C0220F2F
:101C50008A95EAF7822F8095892381A382A1822B1E
:101C600082A34A175B0751F7ABE3B1E043E451E0CD
:101C700061E070E08D91E82FE295EF70F0E091A1C6
:101C80008F709B0101C0220F8A95EAF7822F809501
:101C9000892381A382A1822B82A34A175B0751F774
:101CA00083E1E9EBF1E0DF01982F1D929A95E9F7C6
:101CB000E6EAF1E0DF011D928A95E9F70C94350C14
:101CC0004F925F926F927F928F929F92AF92BF924C
:101CD000CF92DF92EF92FF920F931F93CF93DF93F8
:101CE00086EA482E81E0582E93E4C92E91E0D92E41
:101CF00029EBE22E21E0F22E01E010E0BB24B394A8
:101D0000E20189902E01DE011E92F60181916F01A0
:101D1000E82FE295EF70F0E091A18F70A80101C06B
:101D2000440F8A95EAF7892F842B81A382A1A42EE0
:101D3000A0948A2182A380EA8A95F1F76BE371E08F
:101D400030E020E0EB019990BE01892D82958F70E3
:101D5000805E90E0EC0178806C90892D8F70E801B6
:101D600002C0CC0FDD1F8A95E2F7CE01872109F072
:101D70004DC0802F022E01C0880F0A94EAF78629F1
:101D80008C932F5F3F4F28303105E1F681A1A822C7
:101D9000A1A282A1842B82A38C91881641F0B092DB
:101DA000CC010E94451B9093CE018093CD01E41499
:101DB000F50409F0A5CF8091CC01882399F080919A
:101DC000CD019091CE010E94511B069758F083E1FE
:101DD000E6EAF1E0A9EBB1E001900D928A95E1F716
:101DE0001092CC010E94370C81E0DF91CF911F91BE
:101DF0000F91FF90EF90DF90CF90BF90AF909F90AA
:101E00008F907F906F905F904F90089580E0B7CF54
:101E1000E82FF0E0E754FE4F8081089508959093F5
:101E2000D4018093D3010895E091D301F091D401BE
:101E3000309721F00190F081E02D099480E0089521
:101E4000E091D301F091D401309721F00280F38129
:101E5000E02D09940895E091D301F091D4013097D9
:101E600021F00480F581E02D099408952091D1019D
:101E70003091D2012817390771F09093D2018093E5
:101E8000D101E091D301F091D401309721F0068087
:101E9000F781E02D099408952091CF013091D00170
:101EA0002817390771F09093D0018093CF01E0910A
:101EB000D301F091D401309721F00084F185E02D19
:101EC0000994089508950C94620F0E943C1B0E948F
:101ED000120E0C94FE1BBF92CF92DF92EF92FF92F4
:101EE0000F931F93CF93DF9300D000D00F92CDB705
:101EF000DEB70E94600E86EDC82E81E0D82E10E07D
:101F000000E0E02E802F0E94080FB82EF601F1901D
:101F10006F01F81609F45AC08091AE0281FD0E944B
:101F20000E0FFB2430E020E04F2D50E0822FBA014D
:101F3000022E02C0759567950A94E2F760FF40C0D3
:101F40002983EA8221E030E0790102C0EE0CFF1C17
:101F50008A95E2F78B2D90E08E219F21892B09F441
:101F600020E02B830E94451B8160782F9D838C830A
:101F700049815A816B81892F0E940C10F801EA5225
:101F8000FE4F80818E2580830E94891E0E94140F3F
:101F90009091D501891789F10E94140F8093D50182
:101FA0000F900F900F900F900F90DF91CF911F9196
:101FB0000F91FF90EF90DF90CF90BF900C943B0C6F
:101FC0002F5F3F4F2830310509F0B0CF0F5F1F4F13
:101FD0000331110509F095CF8FEF89838A831B8226
:101FE0000E94451B8160782F9D838C8349815A8193
:101FF0006B81892F0E940C10C7CF0F900F900F900C
:102000000F900F90DF91CF911F910F91FF90EF9064
:10201000DF90CF90BF900895CF93DF93CDB7DEB719
:102020002B970FB6F894DEBF0FBECDBF4F835887F6
:1020300069877A878B871E8285E0FE013796DE01ED
:10204000119601900D928A95E1F749815A816B8131
:102050007C818D819E812B960FB6F894DEBF0FBEDA
:10206000CDBFDF91CF910C94F215882309F45EC0A7
:10207000823871F40E94140F81FD58C089E30E94D8
:1020800096190E945E1A89E30E94D2190C945E1A76
:10209000833859F40E94140F80FD48C083E50E94E4
:1020A00096190E945E1A83E5EFCF843859F40E9496
:1020B000140F82FD3BC087E40E9496190E945E1AAD
:1020C00087E4E2CF9CEF980F913A18F40E9496199A
:1020D000DDCF90E2980F983050F4877091E001C006
:1020E000990F8A95EAF7892F0E94151ACFCF9BE5A1
:1020F000980F933070F4853A31F0863A39F083E8DE
:1021000090E00C94360F81E890E0FBCF82E890E0FD
:10211000F8CF885A853150F4E82FF0E0EE0FFF1F1A
:10212000EA5AFE4F808191810C944C0F08958823C8
:1021300009F44BC0823871F40E94140F81FF45C02E
:1021400089E30E9496190E945E1A89E30E94D219BF
:102150000C945E1A833859F40E94140F80FF35C026
:1021600083E50E9496190E945E1A83E5EFCF8438BA
:1021700059F40E94140F82FF28C087E40E94961928
:102180000E945E1A87E4E2CF9CEF980F913AF0F23A
:1021900090E2980F983050F4877091E001C0990F49
:1021A0008A95EAF7892F0E941B1AD2CF9BE5980FD8
:1021B000933020F490E080E00C94360F885A8531FB
:1021C00020F490E080E00C944C0F0895882321F0D7
:1021D0000E94151A0C945E1A0895882321F00E941B
:1021E0001B1A0C945E1A08958F929F92AF92BF9221
:1021F000DF92EF92FF920F931F93CF93DF9300D064
:1022000000D00F92CDB7DEB77C016D837983FC01DE
:10221000058102950F70128111110E94341A0E94DB
:102220008F19D82E882371F01123A1F08D81805E43
:10223000883080F082E00E9479190E948F1991E025
:10224000D82ED926E981E295EF70F0E0E95EF74DEE
:102250000C94B027D12CF6CF09810F70F981F07F53
:1022600011F00295007F1123B1F0002361F08D8100
:10227000805E883018F02D81211109C0802F0E94C6
:10228000151A0E945E1A8D810E94351015C0802F8C
:102290000E94261AF6CF8D810E949710002361F0CC
:1022A0008D81805E883018F03D81311129C0802FEA
:1022B0000E941B1A0E945E1ADD2009F4D7C10E94F9
:1022C0006C1980FDD3C1F70112820E9466190E9429
:1022D000B217C7010E9447130E9466190F900F9012
:1022E0000F900F900F90DF91CF911F910F91FF9062
:1022F000EF90DF90BF90AF909F908F900C94D3178A
:10230000802F0E942C1AD6CF49814F70B42E59814C
:10231000507F503219F0B29480EFB8228D8188231B
:1023200069F0813029F1112369F1002359F0F70197
:10233000858180FFA8CF8F70858304C0112361F051
:10234000011104C08B2D0E94E610B6CF8B2D0130F9
:10235000D1F70E94481AB0CF011106C00E944B1A53
:102360008B2D0E94ED10A8CF013009F4A5CFF6CF38
:10237000112321F0063008F09FCFE4CF053008F09C
:102380009BCFEECF002361F38D810E94971094CFF5
:10239000898186958695837069F0813009F08CCFAC
:1023A0008D8199819370111102C090E080E00E94AC
:1023B0004C0F82CF8D8199819370111102C090E0F2
:1023C00080E00E94360F78CF8D81112329F00E9482
:1023D000B91D0E947E1E70CF0E940B1EFACF89810C
:1023E000837009F05FC0111167CF2D81229526956A
:1023F0002770220F220F8D818F7090E0B0E0A0E057
:102400004C015D01022E04C0880C991CAA1CBB1C47
:102410000A94D2F7FD8160E070E0CB01F4FF0FC0B9
:102420006FE070E080E090E004C0660F771F881FC7
:10243000991F2A95D2F7609570958095909529817E
:102440002695269523702D832230B1F0233019F183
:102450009B01AC01282939294A295B2929833A8320
:102460004B835C833D8169817A818B819C81313092
:10247000B1F00E943F1720CF9B01AC0128293929D8
:102480004A295B2929833A834B835C83CA01B901BA
:102490000E94691711CF0E943F17C501B4010E9425
:1024A00015170ACF112309F447C0398130FF04CF33
:1024B0002D81229526952770220F220F8D818F70F6
:1024C00090E0B0E0A0E04C015D01022E04C0880C59
:1024D000991CAA1CBB1C0A94D2F75D8160E070E0D5
:1024E000CB0154FF0FC06FE070E080E090E004C0CB
:1024F000660F771F881F991F2A95D2F760957095F0
:1025000080959095E981E695E695E370ED83E2305C
:10251000F1F0E33059F19B01AC01282939294A290E
:102520005B2929833A834B835C83E13049F0CA01FC
:10253000B9010E944318C0CE498141FFBDCEB8CF3A
:1025400069817A818B819C810E941918B5CE9B018B
:10255000AC01282939294A295B2929833A834B83ED
:102560005C83CA01B9010E946D18A6CE0E9443186F
:10257000C501B401E9CF3D81323F09F447C080F481
:10258000303F79F1313FD9F1832F805E8031D0F037
:10259000112309F456C0011176CE89818F7133C0A1
:1025A0004D81433FD1F1443F99F7112309F43FC0D6
:1025B00089818F7189830E94B21763E089810E94AB
:1025C00070197ACE5D815F705D8389818F7111236F
:1025D00021F00E94B2178D81B6CE0E94D3178D8153
:1025E000C0CE112341F0053008F066CE89818F718D
:1025F0000E94F81761CE063008F05ECEF7CF8981D1
:102600008F71112339F00E94B21756CE89818F71D4
:102610001123C9F30E94D3174FCE112329F08981CA
:102620008F710E949D1748CE0E94931745CE81E07E
:102630000E947919023008F43FCE82E00E94791995
:102640003BCE0111A1CE89818F71E4CF49814F70BA
:102650006D81C7010E94ED0A0E948C162DCE498122
:102660004F706D81C7010E943D0C26CE0F900F90D8
:102670000F900F900F90DF91CF911F910F91FF90CE
:10268000EF90DF90BF90AF909F908F9008950F9341
:102690001F93CF93DF93EC01988189812B813C813B
:1026A000232B19F089238F3F29F4DF91CF911F91BC
:1026B0000F910895CE010E94060B8823B1F3688123
:1026C00079818A810E943C198C010E9497180E948E
:1026D0000A17B801CE01DF91CF911F910F910C9491
:1026E000F4100E94341A0E94451A0E94071A0E9490
:1026F0005E1A0E946F1F0E947E1E90E080E00E9482
:10270000360F90E080E00C944C0F0E94231A0C943A
:1027100071130E943019282F892F82958F70903C59
:1027200080F48A30B0F4843020F4823090F480E079
:1027300008958630E1F781E0203E88F0213FB9F727
:102740000EC08C3011F08F3091F793FB882780F901
:10275000089581E0203F39F018F4203E40F70895B5
:10276000243F29F7FCCF0895CF93DF9300D000D00A
:102770000F92CDB7DEB70F900F900F900F900F9084
:10278000DF91CF910895CF93DF9300D000D000D098
:10279000CDB7DEB726960FB6F894DEBF0FBECDBF1D
:1027A000DF91CF9108951F93CF93DF93E091EA01DA
:1027B00016E08091EB018E1304C0DF91CF911F9141
:1027C0000895CE2FD0E01E9FF0011124E451FE4F5A
:1027D0004081518162817381848195810E94C313FC
:1027E0002196EC2FE770E5CF40911C0250911D021D
:1027F00060911E0270911F0280912002909121022F
:102800000C94C313CF9380912102807FA9F480910F
:102810001E02882389F08091EA01A091EB0170915A
:102820001C0260911D0240911F0250912002B62FA0
:10283000B723C6E0A81302C0CF91089590E04115D8
:10284000510511F0BF3F31F401968770F3CF21504D
:10285000310919C0C89FF001C99FF00D1124E4513E
:10286000FE4F21816213F0CF20812713EDCF22810B
:102870002111EACF0380F481E02D9F01241B350B49
:10288000E417F50720F3283C3105F0F620912102EA
:102890002F7020612093210226E0289FF001299FBC
:1028A000F00D1124EF50FE4F80818F708061808386
:1028B0008CE192E00E944713CF910C94D3139F9226
:1028C000AF92BF92CF92DF92EF92FF920F931F933E
:1028D000CF93DF93CDB7DEB72B970FB6F894DEBF5B
:1028E0000FBECDBF8C0185E0F801DE011796019087
:1028F0000D928A95E1F7D8011296EC9012973C91CF
:1029000011962C9111971396CD90DC9040911C025A
:1029100050911D0260911F02709120026115710596
:1029200029F0842F85238F3F09F046C1EE2009F45A
:1029300055C18F8198850E948913882309F44EC15F
:10294000F8C0C616D70628F1FF24F394883C9105F9
:1029500008F0F12C8CE1A82E82E0B82E80912102A3
:10296000982F907FF11017C009F0F2C04F81588561
:1029700069857A858B850E94B4138CE192E00E9470
:10298000471386E0D5011D928A95E9F70E94F4135A
:1029900019C00197D9CF9111A8C0FE2C251325C0CD
:1029A000431323C0E11021C08F7080618093210206
:1029B0000E94F4138CE192E00E944713809121025F
:1029C000F80185838F2D2B960FB6F894DEBF0FBECE
:1029D000CDBFDF91CF911F910F91FF90EF90DF90CE
:1029E000CF90BF90AF909F900895CD2829F0822F6F
:1029F00083238F3F09F076C080E0F82FF170DF2E3F
:102A0000E091EA014091EB0156E080FD1CC0EE2010
:102A1000C9F280912102816080932102F12CD2CFF2
:102A20008E2F90E05E9FF0011124E451FE4F6181F2
:102A3000261306C06081361303C06281E612E7CF19
:102A40000196E82FE770E413EBCF8F8198850E9401
:102A50003019292F22952F70903268F0225F2F7045
:102A6000223080F49F7059F0D80115969C91907F88
:102A700031F4D12C0AC09F7011F08823D1F3805E0D
:102A80008830B8F3C8010E944713FD2C9BCF0197F3
:102A90009EC086E0F801ACE1B2E001900D928A950B
:102AA000E1F790CF8F8198850E948913811141C0F1
:102AB00080912102816080932102C8010E94471306
:102AC00081CF4F81588569857A858B850E94B413A3
:102AD00086E0ECE1F2E0DF011D928A95E9F70E94C1
:102AE000F4139CCF81E08E2588CF251306C04313B5
:102AF00004C0F801EE2009F452C08F8198850E942D
:102B00008913882309F46AC0EE2009F467C0809114
:102B10002102803270F020911C0230911D023A8314
:102B200029831B82DD82CC828E83CE0101960E9496
:102B3000471386E0F801ACE1B2E001900D928A956E
:102B4000E1F70E9402140E94F413FF24F3943ACF99
:102B50002513D3CF4313D1CFE110CFCFF801858315
:102B6000C8010E94471386E0D5011D928A95E9F7B6
:102B7000F92C28CF251396CF431394CF80912102AF
:102B800080FD87CF982F907F09F483CFF80185834C
:102B9000903F31F0982F907F905F8F70892B8583C5
:102BA000C8010E94471386E0F801ACE1B2E0019051
:102BB0000D928A95E1F7EACE90901E02C601861B1F
:102BC000970B9110BECEC616D70608F460CF883C8E
:102BD000910508F076CFFE2CE110CCCFC8010E9401
:102BE0004713B3CF1F93CF93DF93CDB7DEB72C97A7
:102BF0000FB6F894DEBF0FBECDBF4F8358876987ED
:102C00007A878B879C87CE0107960E945F14882362
:102C100069F08A859B85892B39F058854F81852FEE
:102C200084238F3F09F071C016E05FC086E0FE018B
:102C30003796DE01119601900D928A95E1F78F810A
:102C400098852091EB014091EA016A857B85672B8D
:102C500059F389238F3F41F330E0C9010196877012
:102C600099274817190671F40E9485131092EB01F9
:102C70001092EA0186E0ECE1F2E0DF011D928A9514
:102C8000E9F7D2CF96E0929FD001939FB00D112427
:102C9000A451BE4FFE01319601900D929A95E1F735
:102CA0008093EB010E94D313BFCF819FC0011124F9
:102CB00084519E4F0E945F148823E9F0E091EA015D
:102CC0001E9FF0011124E451FE4F40815181628129
:102CD0007381848195810E94C3138091EA0190E001
:102CE0000196877099278093EA018091EA0190917B
:102CF000EB018913DACF2C960FB6F894DEBF0FBE26
:102D0000CDBFDF91CF911F91089569857A858B851D
:102D10009C850E94C31388CFEF92FF920F931F935D
:102D2000CF93DF938C01892B89F0F12CEE24E3946F
:102D3000E8012196F8018491843709F458C0A0F481
:102D4000823009F43FC048F48130D1F0DF91CF9157
:102D50001F910F91FF90EF9008959CEF980F90377F
:102D6000A8F70E9435100AC0853709F44EC09CE7C9
:102D7000980F903758F78F770E9497108E0116C0E2
:102D80000E5F1F4FFE01849190E2980F983060F41F
:102D90008770FE2D01C0FF0F8A95EAF78F2F0E94E2
:102DA000371A0E945E1A02C00E9435108F2D8823A8
:102DB00009F4BECFEFE9FFE03197F1F700C0000062
:102DC0008150F5CF0E5F1F4FFE01849190E2980F66
:102DD000983050F48770FE2D01C0FF0F8A95EAF7F6
:102DE0008F2F0E943D1ADDCF0E949710DFCF0E5F1C
:102DF0001F4FFE01C491CC23C9F28FE99FE00197D8
:102E0000F1F700C00000C150F6CF0E5F1F4FFE016A
:102E1000F490CCCF089560938502709386028093DE
:102E20008702909388020C947113CF93DF9300D0A4
:102E300000D0CDB7DEB769837A838B839C83809182
:102E4000850290918602A0918702B0918802298123
:102E50003A814B815C81822B932BA42BB52B8093E1
:102E6000850290938602A0938702B09388020F9008
:102E70000F900F900F90DF91CF910C947113CF931F
:102E8000DF9300D000D0CDB7DEB769837A838B8320
:102E90009C838091850290918602A0918702B091D7
:102EA000880229813A814B815C8182239323A42368
:102EB000B5238093850290938602A0938702B093F6
:102EC00088020F900F900F900F90DF91CF910C948C
:102ED0007113CF93DF9300D000D0CDB7DEB76983F5
:102EE0007A838B839C838091850290918602A09146
:102EF0008702B091880229813A814B815C818227C7
:102F00009327A427B5278093850290938602A093E8
:102F10008702B09388020F900F900F900F90DF916F
:102F2000CF910C9471131092810210928202109230
:102F30008302109284020C94711341E050E060E02F
:102F400070E004C0440F551F661F771F8A95D2F7A3
:102F500040938102509382026093830270938402B3
:102F60000C94711341E050E060E070E004C0440F45
:102F7000551F661F771F8A95D2F780918102909125
:102F80008202A0918302B0918402842B952BA62B00
:102F9000B72B8093810290938202A0938302B09317
:102FA00084020C94711341E050E060E070E004C0D2
:102FB000440F551F661F771F8A95D2F7409550958D
:102FC000609570958091810290918202A091830218
:102FD000B091840284239523A623B7238093810292
:102FE00090938202A0938302B09384020C94711395
:102FF00041E050E060E070E004C0440F551F661FE0
:10300000771F8A95D2F78091810290918202A091D8
:103010008302B091840284279527A627B72780933F
:10302000810290938202A0938302B09384020C9455
:103030007113CF93DF9300D000D0CDB7DEB7698393
:103040007A838B839C838091810290918202A091EC
:103050008302B091840229813A814B815C81822B69
:10306000932BA42BB52B8093810290938202A09383
:103070008302B09384020F900F900F900F90DF9116
:10308000CF910C947113CF93DF9300D000D0CDB7C4
:10309000DEB769837A838B839C83809181029091D0
:1030A0008202A0918302B091840229813A814B81EE
:1030B0005C8182239323A423B52380938102909380
:1030C0008202A0938302B09384020F900F900F901E
:1030D0000F90DF91CF910C947113CF93DF9300D0B9
:1030E00000D0CDB7DEB769837A838B839C838091D0
:1030F000810290918202A0918302B0918402298181
:103100003A814B815C8182279327A427B52780933E
:10311000810290938202A0938302B09384020F9065
:103120000F900F900F90DF91CF910C947113089531
:10313000990F990F990FE92FE80F877041E001C0AF
:10314000440F8A95EAF7E695E695E69585E0E89FCF
:10315000F0011124EE5DFD4F30E020E070E0519170
:10316000DF011197CB01022E02C0969587950A9434
:10317000E2F7817081958527842385278C932F5FC3
:103180003F4F2530310559F70895E92FEE0FEE0F27
:10319000EE0FE80F982F9770E695E695E69585E097
:1031A000E89FF0011124EE5DFD4F50E040E080E02B
:1031B000219130E0092E02C0369527950A94E2F756
:1031C00021703327042E01C0220F0A94EAF7822BC4
:1031D0004F5F5F4F4530510559F70895BF92CF9229
:1031E000DF92EF92FF920F931F93CF93DF938C01A7
:1031F000C0908102D0908202E0908302F09084021D
:103200008091850290918602A0918702B0918802F8
:10321000C82AD92AEA2AFB2ACFE1D0E0BC2ED7015E
:10322000C6010C2E04C0B695A795979587950A946C
:10323000D2F780FD0EC0219788F7B12C8B2DDF913E
:10324000CF911F910F91FF90EF90DF90CF90BF90A3
:103250000895B8018C2F0E945B0C019761F3EECFAB
:10326000CF93DF93D82FC92F0E94EE186D2F7C2F9C
:10327000DF91CF910C945B0C1F93CF93DF93162FAC
:10328000D72F9091E901992339F0862F972FDF915D
:10329000CF911F910C943019882391F0862F972F8E
:1032A0000E94EE18C82F682F812F9D2F0E9498181A
:1032B000612F7D2F8C2FDF91CF911F910C945B0C90
:1032C000862F972F0E94C518C82FF2CF80918902B0
:1032D00085958595859508958091890287700895D3
:1032E00098E0899F90011124622B609389020C94CD
:1032F000B217909189028095892380938902282FA3
:10330000277061F4282F082E000C330B9217130638
:1033100029F08595859585950C94D31708959091FE
:103320008902977081E009F480E00895909112017C
:103330009923D9F09091B40297FF17C0982F9695D2
:10334000969596959F3131F1E0910001F091010140
:10335000E90FF11D877021E030E001C0220F8A954E
:10336000EAF78181822B81830895209100013091B9
:103370000101F90132969FEF40E05191851751F01C
:103380009F3F19F4511101C0942F4F5F4E31A9F79F
:103390009F3F09F40895290F311D97FD3A95F901D2
:1033A00082830895909112019923F9F09091B402CB
:1033B00097FF1BC0982F9695969596959F3131F162
:1033C000E0910001F0910101E90FF11D877021E00A
:1033D00030E0A90102C0440F551F8A95E2F7CA01E7
:1033E00080959181892381830895209100013091F6
:1033F0000101F9013296205E3F4F9191891303C07C
:10340000DF0111971C92E217F307B9F7089581E0E5
:1034100090E0E0910001F0910101E80FF91F1082A6
:10342000019680329105A9F708959091AD02982BED
:103430009093AD020895982F90958091AD028923C5
:103440008093AD0208951092AD0208959091AC0260
:10345000982B9093AC020895982F90958091AC0290
:1034600089238093AC0208951092AC020895909144
:10347000AB02982B9093AB020895982F9095809172
:10348000AB0289238093AB0208951092AB0208959A
:1034900080938A02089510928A0208952091000173
:1034A00030910101F9013196205E3F4F80E091910A
:1034B00091118F5FE217F307D1F70895E0910001B2
:1034C000F09101018091AD028083E0910001F091C3
:1034D000010180819091AC02892B8083E0910001F1
:1034E000F091010180819091AB02892B80839091B2
:1034F0008A02992361F0E0910001F091010180813D
:10350000892B80830E944E1A811110928A02809129
:103510000001909101010C94200F6DEE7EEF90E080
:1035200080E00E94ED2760E082E090E00E94DB27CF
:1035300060E083E090E00E94DB2760E084E090E0C0
:103540000E94DB2760E085E090E00C94DB2790E0B0
:1035500080E00E94D5279C0181E02D3E3E4F09F07E
:1035600080E0089582E090E00C94CD27682F82E0FF
:1035700090E00C94DB2783E090E00C94CD27682F3B
:1035800083E090E00C94DB2784E090E00C94CD275E
:10359000682F84E090E00C94DB278091E402843073
:1035A00039F11092AF0288E190E020E40FB6F89470
:1035B000A895809360000FBE2093600080E00E9479
:1035C0003B0C83B7817F846083BF83B7816083BFF7
:1035D0007894889583B78E7F83BF0FB6F894A895AB
:1035E00080916000886180936000109260000FBE3F
:1035F000089508950895CF930E94F91A0E94600ECD
:103600000E94FA1AC0E08C2F0E94080F811105C099
:10361000CF5FC331C1F7CF91089581E0FCCF0E9405
:1036200085130E94140F0C943B0C1F921FB61F921F
:1036300011248F939F93AF93BF938091AF02811119
:1036400013C08091B0029091B102A091B202B091EA
:10365000B3024196A11DB11D8093B0029093B102B7
:10366000A093B202B093B302BF91AF919F918F919B
:103670001F901FBE1F90189582E084BD93E095BDFA
:103680009AEF97BD80936E0008952FB7F8948091BC
:10369000B0029091B102A091B202B091B3022FBFDB
:1036A0000895CF92DF92EF92FF929C014FB7F8946A
:1036B0008091B0029091B102A091B202B091B30298
:1036C0004FBF6C017D01EE24FF24A90170E060E092
:1036D000C416D506E606F70638F0821B930BFF905A
:1036E000EF90DF90CF9008950197F7CF1F921FB60C
:1036F0001F9211248F939F93AF93BF938091B00239
:103700009091B102A091B202B091B3020196A11DB5
:10371000B11D8093B0029093B102A093B202B09316
:10372000B302BF91AF919F918F911F901FBE1F90C9
:1037300018950E946323F8942FEF87EA91E62150B1
:1037400080409040E1F700C0000087E090EBDC0192
:103750008093EE029093EF02A093F002B093F102F7
:1037600088E19CE00FB6F894A895809360000FBEA6
:1037700090936000FFCFCF92DF92EF92FF920F9372
:103780001F93CF93C0E0E82EF12C8C2F0E94080FDE
:1037900010E000E0C82ED12CC601002E02C0959585
:1037A00087950A94E2F780FF11C0602F7C2F80E09C
:1037B0000E943E0CE816F90649F481E0CF911F9172
:1037C0000F91FF90EF90DF90CF9008950F5F1F4F04
:1037D0000830110509F7CF5FC331B9F680E0EECFAD
:1037E000CF93C82F8CE20E94BB1B882321F08C2F23
:1037F000CF910C94BB1B80E0CF910895CF93DF93C2
:1038000000D000D0CDB7DEB70E94A71A811102C048
:103810000E948D1A95E6998308C00E94600E8FE37E
:103820009CE90197F1F700C00000A981A150A9838C
:10383000A111F3CF89E20E94F01B811110C18AE22D
:103840000E94F01B81110E948D1A85E00E94F01BDE
:1038500081110E94991B0E94B21A8093AE0287E0E8
:103860000E94F01B882371F08BE10E94F01B8823DB
:1038700009F4D1C09091AE02892F8D7F91FF8260B3
:103880008093AE028091AE020E94B61A0E94C41AC2
:1038900090E09093B5028093B40280EE0E94F01BFA
:1038A000882341F09091B402892F8E7F90FF816030
:1038B0008093B40289E30E94F01B882341F0909129
:1038C000B402892F8D7F91FF82608093B40282EED3
:1038D0000E94F01B882341F09091B402892F8B7FC6
:1038E00092FF84608093B40286EE0E94F01B8823CE
:1038F00041F09091B402892F877F93FF8860809375
:10390000B40283EE0E94F01B882341F09091B40230
:10391000892F8F7E94FF80618093B40285E30E949B
:10392000F01B882341F09091B402892F8F7D95FF81
:1039300080628093B40281E30E94F01B882341F0EF
:103940009091B402892F8F7B96FF80648093B4029C
:1039500081E10E94F01B882341F09091B402892FED
:1039600097FB87F980588093B4028091B4020E943B
:10397000C81A87E20E94F01B89838EE10E94F01B27
:10398000882319F0B981B260B9838FE10E94F01BDE
:10399000882319F029812460298380E20E94F01B8A
:1039A000882319F039813860398381E20E94F01B45
:1039B000882319F049814061498382E20E94F01B0B
:1039C000882319F059815062598383E20E94F01BC9
:1039D000882319F089818064898384E20E94F01B26
:1039E0008823B1F199819068998389810E94BF1AD7
:1039F0003981232F30E050E040E029833A834B8324
:103A00005C83CA01B9010F900F900F900F90DF9166
:103A1000CF910C940B178EE00E94F01B882339F095
:103A20009091AE02892F8B7F92FF846029CF80E135
:103A30000E94F01B9091AE02882329F0892F877F86
:103A400093FF88601DCF892F8E7F90FF816018CFF4
:103A5000A981A111CACF0E94BB1A282FCBCF0F90EA
:103A60000F900F900F90DF91CF9108958091B80241
:103A700080FF12C06091050185E0689FB0011124AC
:103A8000759567957595679560387105A8F5611509
:103A90007105A1F1862F089581FF09C0609105018C
:103AA00085E0689FB001112475956795EDCF609111
:103AB000050182FD0AC02091B9022223D1F0909124
:103AC000040160910501291728F085E0689FB00185
:103AD0001124DACF269F9001112485E0829FA00156
:103AE000839F500D1124692F70E0CA010E949C270A
:103AF000CBCF65E070E0CECF8FE7089581E00895E9
:103B00008091B80280FF0CC06091030170E0759550
:103B10006795759567956115710549F1862F08952B
:103B200081FF06C06091030170E075956795F3CF42
:103B30006091030182FD0BC09091B9029923A1F01D
:103B40006091020180910301961738F0682F70E0B0
:103B50006038710500F38FE70895899FC001112433
:103B600070E00E949C27F4CF61E070E0D7CF81E045
:103B70000895805F803108F045C0E82FF0E0E95DEE
:103B8000F74D0C94B0270E94361D81958093BC029E
:103B900008950E94361DFACF0E94361D81958093AC
:103BA000BB0208950E94361DFACF0E94801D8093AB
:103BB000BD0208950E94801D8195F9CF0E94801D4D
:103BC00081958093BE0208950E94801DFACF809156
:103BD000BA0281608093BA0208958091BA0282602D
:103BE000F9CF8091BA028460F5CF8091BA028860E3
:103BF000F1CF8091BA028061EDCF8091B8028160EF
:103C00008093B80208958091B8028260F9CF8091C4
:103C1000B8028460F5CFE82F3091BC022091BB023E
:103C20009091BD028091BE02E03F91F437FD109269
:103C3000BC028091BB029091BC02892B9091BD0285
:103C4000892B9091BE02892B11F41092B90208952C
:103C5000E13F19F413165CF3ECCFE23F29F427FFA0
:103C6000E8CF1092BB02E5CFE33F19F41216CCF374
:103C7000E0CFE93F29F41916E4F61092BD02D9CF3E
:103C8000EA3F19F497FFD5CFF8CFEB3F29F487FF30
:103C9000D0CF1092BE02CDCFEC3F19F41816CCF362
:103CA000C8CFE45FEC3008F0C4CFF0E0E95CF74D3A
:103CB0000C94B0278091BA028E7F8093BA02B9CF5C
:103CC0008091BA028D7FF9CF8091BA028B7FF5CFB8
:103CD0008091BA02877FF1CF8091BA028F7EEDCFBB
:103CE0008091B8028E7F8093B802A3CF8091B802F2
:103CF0008D7FF9CF8091B8028B7FF5CF8AEB92E070
:103D00000E942B0F0E94451B9093B7028093B6022E
:103D100008951F93CF93DF9300D000D000D0CDB78C
:103D2000DEB78091B6029091B7020E94511BAC01A0
:103D30008091B9022091060130E0811106C02091E6
:103D400007019AE0299F900111244217530788F038
:103D50002091BB02A091BC02A9831091BD02B09139
:103D6000BE02BE8321110FC09A2F912B9B2B09F00D
:103D7000B2C026960FB6F894DEBF0FBECDBFDF915E
:103D8000CF911F9108958F3F19F08F5F8093B902F3
:103D9000121624F40E94361D8093BB028091BB0250
:103DA00087FF05C00E94361D81958093BB02298143
:103DB000121624F40E94361D8093BC028091BC022E
:103DC00087FF05C00E94361D81958093BC028091BB
:103DD000BB02882309F455C03091BC023D833323D4
:103DE00009F44FC0282F880F330B440B550B298340
:103DF0003A834B835C83CA01B9010E94A32623E363
:103E000033E343E35FE369837A838B839C83698134
:103E10007A818B819C810E94072769837A838B83B7
:103E20009C8369817A818B819C810E946B2660933F
:103E3000BB028D81082E000C990BAA0BBB0B89834A
:103E40009A83AB83BC83BC01CD010E94A32623E3EC
:103E500033E343E35FE369837A838B839C836981E4
:103E60007A818B819C810E94072769837A838B8367
:103E70009C8369817A818B819C810E946B266093EF
:103E8000BC02111624F40E94801D8093BD02809113
:103E9000BD0287FF05C00E94801D81958093BD02F1
:103EA0009E81191624F40E94801D8093BE02809189
:103EB000BE0287FF05C00E94801D81958093BE02CF
:103EC00026960FB6F894DEBF0FBECDBFDF91CF911F
:103ED0001F910C947E1E8F3F09F057CF68CF85E06D
:103EE000EAEBF2E0DF011D928A95E9F71092B90240
:103EF0001092B80208958091DF020895CF93DF9366
:103F000000D00F92CDB7DEB72091E402243019F52E
:103F100023E029838A839B832093E9008FEF90918C
:103F2000E800815095FD06C095ED9A95F1F70000E7
:103F30008111F5CF8091E80085FF0DC050E040E091
:103F400063E070E0CE0101960E94DB218091E800E1
:103F50008E778093E8000F900F900F90DF91CF91B4
:103F60000895CF93DF9300D00F92CDB7DEB79C01B9
:103F70008091E402843031F582E089832058310950
:103F80003B832A8383E08093E9008FEF9091E800E0
:103F9000815095FD06C095ED9A95F1F700008111CD
:103FA000F5CF8091E80085FF0DC050E040E063E070
:103FB00070E0CE0101960E94DB218091E8008E77AF
:103FC0008093E8000F900F900F90DF91CF910895AC
:103FD0002091E4022430F1F422E02093E9002FEF55
:103FE0003091E800215035FD06C035ED3A95F1F7E6
:103FF00000002111F5CF2091E80025FF0BC050E013
:1040000040E065E070E00E94DB218091E8008E775F
:104010008093E8000895CF93DF93D82FC92F809124
:10402000E4028430F1F4909112019923E9F0909127
:10403000B40297FF19C08093E9008FEF9091E800D8
:10404000815095FD06C095E19A95F1F70000811128
:10405000F5CF8091E80050E040E060E270E085FD3F
:104060001AC0DF91CF91089581E08093E9008FEF2E
:104070009091E800815095FD06C095ED9A95F1F775
:1040800000008111F5CF8091E80085FFEACF50E074
:1040900040E068E070E08D2F9C2F0E94DB21809132
:1040A000E8008E778093E80080E2ED2FFC2FAFEBE5
:1040B000B2E001900D928A95E1F7D3CF8091ED02A5
:1040C000811109C00E9463230E94C5238091E200F0
:1040D00084608093E20008951092ED02089508959F
:1040E00008950C940F1B42E061EC81E00E94DF22F6
:1040F00042E061EC82E00E94DF2242E061EC83E07A
:104100000E94DF2242E261EC84E00C94DF22809185
:10411000E602893089F148F4823009F494C0833092
:1041200009F44FC0813041F008958A3009F47BC012
:104130008B3009F461C008958091E502813A09F05D
:104140003FC08091E800877F8093E8008091E9027A
:104150009091EA02892B61F460E28FEB92E070E0CB
:104160000E942A228091E8008B778093E8000895CE
:1041700060E090E080E0F3CF8091E502813201F5CC
:104180008091E9029091EA02009711F00397C1F43F
:104190008091E800877F8093E8008091E80082FFAB
:1041A0000BC08091F1008093DF028091E8008B7753
:1041B0008093E8000C9413238091E4028111EDCFE9
:1041C00008958091E502813AD9F78091E9029091B2
:1041D000EA02892BA9F78091E800877F8093E800A5
:1041E0008091E80080FFFCCF809112018093F10064
:1041F0008091E8008E77DCCF8091E502813201F773
:104200008091E9029091EA02892BD1F68091E80031
:10421000877F8093E8000E9413238091E7028093B8
:1042200012010C9485138091E502813249F6809148
:10423000E800877F8093E8000E9413238091E802C2
:104240008093E00208958091E502813A09F0B8CFA9
:104250008091E800877F8093E8008091E80080FFEC
:10426000FCCF8091E002C2CF84B7877F84BF0FB6B6
:10427000F894A89580916000886180936000109206
:1042800060000FBE80E880936100109261000E9480
:10429000630F0E9463230E94C5238091E200846023
:1042A0008093E20078940E9451260E94650F88E076
:1042B00091E00E940F0F8091E402853019F00E9476
:1042C0006B0FF9CF0E94CD1A8091E102882399F3F8
:1042D0000E94FB1A882379F30E94C521ECCF9C0130
:1042E000DA01892F992783309105C1F068F4813074
:1042F000910509F445C0029761F48DE690E028EC41
:1043000033E12D933C93089581329105E1F082973A
:1043100039F190E080E030E020E0F3CFC901992747
:10432000213059F08230910559F0E4ECF3E1892B0A
:1043300081F7849190E09F01E4CFECEAF3E1F9CFBB
:10434000E8E9F3E1F6CF643020F7E62FF0E0EE0F76
:10435000FF1FE457FE4F2081318189E090E0D1CFEB
:104360006430B8F670E0FB01EE0FFF1FEC57FE4F14
:104370002081318160587E4FFB01808190E0C1CF68
:1043800082E190E025E334E1BCCF84E189BD86E1A0
:1043900089BD09B400FEFDCF8091D8008F7D809348
:1043A000D8008091E00082608093E0008091E0007E
:1043B00081FDFCCF0895AF92BF92CF92DF92FF9222
:1043C0000F931F93CF93DF936C01EB018A010E943F
:1043D0003223F82E811123C00115110539F0F8019F
:1043E00080819181C81BD90BC80ED91EB12CA12C7C
:1043F0002097A9F08091E80085FD22C08091E80017
:104400008E778093E80001151105A1F0F8018081F5
:1044100091818A0D9B1D9183808385E0F82E8F2DDD
:10442000DF91CF911F910F91FF90DF90CF90BF90C0
:10443000AF9008950E9432238823D1F2F82EEFCF57
:10444000F60181916F018093F1002197FFEFAF1A80
:10445000BF0ACECFFC01CB012091EB023091EC02E0
:104460002617370790F0009729F42091E8002E775F
:104470002093E80040E0009751F4411108C080917A
:10448000E80082FF31C080E00895C901F3CF209198
:10449000E4022223A9F12530A9F12091E80023FDAF
:1044A0002DC02091E80022FDEACF2091E80020FFF6
:1044B000E2CF2091F2003091F300009719F02830FC
:1044C000310558F041E02830310509F040E02091F5
:1044D000E8002E772093E800CECF41914093F10081
:1044E00001972F5F3F4FE9CF8091E402882341F08D
:1044F000853041F08091E80083FFC1CF81E00895CD
:1045000082E0089583E00895FC01CB012091EB0245
:104510003091EC022617370790F0009729F420918C
:10452000E8002E772093E80040E0009751F4411115
:1045300008C08091E80082FF32C080E00895C90180
:10454000F3CF2091E4022223B1F12530B1F1209183
:10455000E80023FD2EC02091E80022FDEACF209143
:10456000E80020FFE2CF2091F2003091F3000097A5
:1045700019F02830310558F041E02830310509F0B4
:1045800040E02091E8002E772093E800CECF4491C0
:104590004093F100319601972F5F3F4FE8CF809114
:1045A000E402882341F0853041F08091E80083FFE8
:1045B000C0CF81E0089582E0089583E00895982FA8
:1045C000973028F08F708093E90081E008959093F0
:1045D000E900242F762F50E0981731F07091EC000D
:1045E0002091ED005091F00021FD02C09F5FE8CFC7
:1045F0003091EB003E7F3093EB003091ED003D7F3A
:104600003093ED003091EB0031603093EB0070930C
:10461000EC002093ED005093F0002091EE0027FD78
:10462000E5CF80E008958091E50287FF13C0809177
:10463000E80082FF06C08091E8008B778093E80055
:1046400004C08091E4028111F2CF08958091E402C8
:104650008823D9F38091E80080FFF8CF8091E800AB
:104660008E77ECCF2091E4003091E50095E6A9012A
:104670002091EC00822F817020FF06C08091E8001D
:1046800080FF06C080E008952091E80022FD1AC056
:104690008091E402882389F0853089F08091EB00D5
:1046A00085FD0FC02091E4003091E50042175307CB
:1046B000F9F29150E1F684E0089582E0089583E0F4
:1046C000089581E008950E94D4230E94DC23E0EE47
:1046D000F0E0808181608083E8EDF0E080818F7779
:1046E000808319BCA7EDB0E08C918E7F8C93808184
:1046F0008F7E80831092ED0208950F931F93CF93C6
:10470000DF930E94D4230E94DC23C8EDD0E088818F
:104710008F77888388818068888388818F7D88836C
:10472000E7EDF0E080818068808319BC1092E4029C
:104730001092E3021092E1021092E20200EE10E009
:10474000F80180818B7F808388818160888342E04B
:1047500060E080E00E94DF22E1EEF0E080818E7F69
:104760008083E2EEF0E080818160808380818860D8
:104770008083F80180818E7F808388818061888337
:10478000DF91CF911F910F910895E8EDF0E08081C6
:104790008F7E8083E7EDF0E080818160808381E01F
:1047A0008093ED020C947D23E8EDF0E080818C7F16
:1047B00080831092E20008951092DA001092E100D6
:1047C00008951F920F920FB60F9211240BB60F92FD
:1047D0002F933F934F935F936F937F938F939F9309
:1047E000AF93BF93EF93FF938091E10082FF0BC0E3
:1047F0008091E20082FF07C08091E1008B7F80936F
:10480000E1000E9450268091DA0080FF19C080915B
:10481000D80080FF15C08091DA008E7F8093DA0087
:104820008091D90080FF96C084E189BD86E189BD71
:1048300009B400FEFDCF81E08093E4020E945E2077
:104840008091E10080FF19C08091E20080FF15C0D7
:104850008091E2008E7F8093E2008091E20080618F
:104860008093E2008091D80080628093D80019BCC8
:1048700085E08093E4020E9470208091E10084FF33
:1048800029C08091E20084FF25C084E189BD86E1D2
:1048900089BD09B400FEFDCF8091D8008F7D809343
:1048A000D8008091E1008F7E8093E1008091E2004A
:1048B0008F7E8093E2008091E20081608093E2002D
:1048C0008091E302882309F44BC084E08093E402E2
:1048D0000E9471208091E10083FF29C08091E20055
:1048E00083FF25C08091E100877F8093E10082E013
:1048F0008093E4021092E3028091E1008E7F809326
:10490000E1008091E2008E7F8093E2008091E200DE
:1049100080618093E20042E060E080E00E94DF225C
:104920008091F00088608093F0000E946F20FF91DA
:10493000EF91BF91AF919F918F917F916F915F9117
:104940004F913F912F910F900BBE0F900FBE0F9084
:104950001F90189519BC1092E4020E946C2070CF31
:104960008091E30087FD02C081E0B0CF83E0AECF4D
:104970001F920F920FB60F9211240BB60F92FF9257
:104980000F931F932F933F934F935F936F937F9357
:104990008F939F93AF93BF93CF93DF93EF93FF9347
:1049A00009EE10E0F8018081C091EC00C795CC279A
:1049B000C7958F70FC2EF82A1082C0EFD0E0888156
:1049C000877F888378940E940525F801108288816A
:1049D00088608883CF2DCF70C083FF91EF91DF91E6
:1049E000CF91BF91AF919F918F917F916F915F9187
:1049F0004F913F912F911F910F91FF900F900BBE00
:104A00000F900FBE0F901F9018951F93CF93DF93B9
:104A1000CDB7DEB7AA970FB6F894DEBF0FBECDBFF5
:104A200085EE92E0FC0101962091F100208322E0C6
:104A30008D3E9207B9F70E9487208091E80083FF9E
:104A400082C08091E5029091E6029A3008F07BC026
:104A5000E92FF0E0ED5BF74D0C94B027803881F042
:104A6000823809F070C08091E9028F708093E9006C
:104A70008091EB0085FB882780F91092E90006C041
:104A80008091E2029091E102911182609091E800A0
:104A9000977F9093E8008093F1001092F10080914D
:104AA000E8008E77F8C0882309F4E5C0823009F069
:104AB0004AC08091E7028111E9C08091E9028F70BC
:104AC00009F441C08093E9002091EB0020FFDEC093
:104AD000933031F48091EB0080628093EB00D6C07C
:104AE0009091EB0090619093EB0021E030E001C0E9
:104AF000220F8A95EAF72093EA001092EA0080914B
:104B0000EB008860EACF81111EC01091E7021F7789
:104B10008091E3008078812B8093E3008091E8000E
:104B2000877F8093E8000E9413238091E80080FF34
:104B3000FCCF8091E30080688093E30082E0111154
:104B400083E08093E4028091E80083FF0AC08091B3
:104B5000E800877F8093E8008091EB00806280937B
:104B6000EB00AA960FB6F894DEBF0FBECDBFDF9163
:104B7000CF911F9108958058823028F78091E702E5
:104B80009091E8028C3D23E0920799F583E08A83B7
:104B90008AE289834FB7F894DE01139620E03EE065
:104BA00051E2E32FF0E050935700849120FF03C0BF
:104BB00082958F703F5F8F708A30C8F0895C90E07B
:104BC0008D939D932F5F243161F74FBF8091E80053
:104BD000877F8093E8006AE270E0CE0101960E9430
:104BE0002A228091E8008B778093E800ACCF805D2B
:104BF000E6CFAE014F5F5F4F6091E9020E946F21E7
:104C0000BC01892B09F49FCF8091E800877F8093B6
:104C1000E80089819A810E948422E3CF803809F0DC
:104C200092CF8091E800877F8093E8008091E30233
:104C30008093F10034CF811186CF9091E7029230BA
:104C400008F081CF8091E800877F8093E8009093FF
:104C5000E3020E9413238091E302882311F084E091
:104C600005C08091E30087FDFACF81E08093E402E4
:104C70000E94732068CF8091E702813009F063CFF2
:104C800081E0933009F080E08093E1021092E90026
:104C90008091E800877F8093E8000E94132353CF20
:104CA0000895CF938091E402882399F08091E900E0
:104CB000C091EC00C795CC27C7958F70C82B109278
:104CC000E9008091E80083FD0E940525CF70C09324
:104CD000E900CF9108950E9472266894B1110C9456
:104CE000012708950E94E62688F09F5798F0B92F73
:104CF0009927B751B0F0E1F0660F771F881F991F11
:104D00001AF0BA95C9F714C0B13091F00E9400278B
:104D1000B1E008950C940027672F782F8827B85F9B
:104D200039F0B93FCCF3869577956795B395D9F768
:104D30003EF490958095709561957F4F8F4F9F4F72
:104D40000895E89409C097FB3EF49095809570957E
:104D500061957F4F8F4F9F4F9923A9F0F92F96E9C7
:104D6000BB279395F695879577956795B795F1113C
:104D7000F8CFFAF4BB0F11F460FF1BC06F5F7F4FD9
:104D80008F4F9F4F16C0882311F096E911C07723EB
:104D900021F09EE8872F762F05C0662371F096E8F4
:104DA000862F70E060E02AF09A95660F771F881FC3
:104DB000DAF7880F9695879597F9089557FD9058DB
:104DC000440F551F59F05F3F71F04795880F97FBCF
:104DD000991F61F09F3F79F0879508951216130689
:104DE0001406551FF2CF4695F1DF08C016161706B8
:104DF0001806991FF1CF86957105610508940895ED
:104E0000E894BB2766277727CB0197F908950E947E
:104E10001A270C948B270E947D2738F00E94842744
:104E200020F0952311F00C9474270C947A27112408
:104E30000C9401270E94DE2670F3959FC1F3950F15
:104E400050E0551F629FF001729FBB27F00DB11D0E
:104E5000639FAA27F00DB11DAA1F649F6627B00D9E
:104E6000A11D661F829F2227B00DA11D621F739F87
:104E7000B00DA11D621F839FA00D611D221F749F95
:104E80003327A00D611D231F849F600D211D822FDC
:104E9000762F6A2F11249F5750409AF0F1F0882303
:104EA0004AF0EE0FFF1FBB1F661F771F881F915030
:104EB0005040A9F79E3F510580F00C9474270C9444
:104EC00001275F3FE4F3983ED4F386957795679585
:104ED000B795F795E7959F5FC1F7FE2B880F911D5A
:104EE0009695879597F9089597F99F6780E870E000
:104EF00060E008959FEF80EC089500240A94161650
:104F0000170618060906089500240A9412161306B7
:104F1000140605060895092E0394000C11F4882345
:104F200052F0BB0F40F4BF2B11F460FF04C06F5F61
:104F30007F4F8F4F9F4F089597FB072E16F40094D5
:104F400007D077FD09D00E94B92707FC05D03EF4B1
:104F5000909581959F4F0895709561957F4F089525
:104F6000EE0FFF1F0024001C0BBE0790F691E02DF2
:104F70000994AA1BBB1B51E107C0AA1FBB1FA617A0
:104F8000B70710F0A61BB70B881F991F5A95A9F7F2
:104F900080959095BC01CD010895F999FECF92BD01
:104FA00081BDF89A992780B50895A8E1B0E042E064
:104FB00050E00C94F527262FF999FECF92BD81BDC4
:104FC000F89A019700B4021639F01FBA20BD0FB647
:104FD000F894FA9AF99A0FBE08950196272F0E9425
:104FE000DC270C94DB27DC01CB01FC01F999FECF17
:104FF00006C0F2BDE1BDF89A319600B40D92415061
:105000005040B8F70895F894FFCFA60BB20BB60B3B
:10501000BA0BBE0BC20BC60BCA0BCE0BD20BD60BF8
:10502000DA0BDE0BE20BE60BEA0BEE0BF20B2C11AC
:105030002C1184118411C811E4115C115C11EF1161
:105040005C11BB12BB1226135C115C112F13C31D24
:10505000C91DCC1DD21DE71DED1DF11DF51DF91D4E
:10506000D51DDA1DDE1DE41DFD1D031E071E5A1E83
:10507000601E641E681E6C1E191E191E191E191E44
:10508000701E761E7A1E2E255325A3255325A32593
:0A5090008325BB25A3250E261B2651
:10509A008B022808140A321E7B1F0B20E81FB11F3F
:1050AA007E1F01E944EA44B544B644B744CD44837B
:1050BA0045CC448A459245944521462346244625B3
:1050CA0046264627462A46B344B444676061666268
:1050DA00636465F7F6F5F4F3F2F1F0C73031323371
:1050EA0095949392C097E200E900EA00B500B600F1
:1050FA00B700CD008301CC008A01920194012102FC
:10510A00230224022502260227022A02B300B4003F
:10511A00404D36390315B61480144714DA13F313C5
:04512A000C14251428
:00000001FF
