:100000000C94A2070C94EB070C94EB070C94EB07F1
:100010000C94EB070C94EB070C94EB070C94EB0798
:100020000C94EB070C94EB070C945B220C9432239A
:100030000C9465190C94EB070C94EB070C94EB07EC
:100040000C94EB070C94EB070C94EB070C94EB0768
:100050000C94EB070C94C6190C94EB070C94EB076B
:100060000C94EB070C94EB070C94EB070C94EB0748
:100070000C94EB070C94EB070C94EB070C94EB0738
:100080000C94EB070C94EB070C94EB070C94EB0728
:100090000C94EB070C94EB07E2000500340007001A
:1000A000E60065005A0060003F00120014002400C2
:1000B000E3002C001100350009004D004A005B00F0
:1000C0006100400013001A0025002900E000100024
:1000D000E1000A00510052006200560041002F006A
:1000E000080026001E003A00360000000B004E00FB
:1000F0004B0063005C0042003000150027001F0029
:100100003B0037001D000D004900A80000005D0005
:100110004300280017002D0020003C0038001B0081
:100120000E004C00500044005E004600E0001C0041
:100130002E0021003D00310006000F005800E400B1
:1001400045005700AA00040018002A0022003E00C3
:1001500055001900330054004F00A90059005F00FA
:1001600016000C002B00230001000100010001001B
:100170000100010001000100010001000100010077
:100180000100010001000100010001000100010067
:100190000100010001000100010001000100010057
:1001A0000100010001000100010001000100010047
:1001B0000100010001000100010000000100010038
:1001C0000100010001000100010001000100010027
:1001D0000100010001000100010001000000010018
:1001E0000100010001000100010001000100010007
:1001F00001000100010001000100010001000100F7
:1002000001000100010001000100010001000100E6
:1002100001000100010001000100010001000100D6
:1002200001000100010001000100010001000100C6
:1002300001000100010001000100010001000100B6
:1002400001000100010001000100010001000100A6
:100250000100010001000100010001000100010096
:100260000100010001000100010001000100010086
:100270000100010001000100010001000100010076
:100280000100010001000100010000000100010067
:100290000100010001000100010001000100010056
:1002A0000100010001000100010001000000010047
:1002B0000100010001000100010001000100010036
:1002C0000100010001000100010001000100010026
:1002D0000100010001000100010001000100010016
:1002E0000100010001000100010001000100010006
:1002F00001000100010001000100010001000100F6
:1003000001000100010001000100010001000100E5
:1003100001000100010001000100010001000100D5
:1003200001000100010001000100010001000100C5
:1003300001000100010001000100010001000100B5
:1003400001000100010001000100010001000100A5
:100350000100010001000100010000000100010096
:100360000100010001000100010001000100010085
:100370000100010001000100010001000000010076
:100380000100010001000100010001000100010065
:100390000100010001000100010001000100010055
:1003A0000100010001000100010001000100010045
:1003B0000100010001000100010001000100010035
:1003C0000100010001000100010001000100010025
:1003D0000100010001000100010001000100010015
:1003E0000100010001000100010001000100010005
:1003F00001000100010001000100010001000100F5
:1004000001000100010001000100010001000100E4
:1004100001000100010001000100010001000100D4
:1004200001000100010001000100000001000100C5
:1004300001000100010001000100010001000100B4
:1004400001000100010001000100010000000100A5
:100450000100010001000100010001000100010094
:100460000100010001000100010001000100010084
:100470000100010001000100010001000100010074
:100480000100010001000100010001000100010064
:100490000100010001000100010001000100010054
:1004A0000100010001000100010001000100010044
:1004B0000100010001000100010001000100010034
:1004C0000100010001000100010001000100010024
:1004D0000100010001000100010001000100010014
:1004E0000100010001000100010001000100010004
:1004F00001000100010001000100000001000100F5
:1005000001000100010001000100010001000100E3
:1005100001000100010001000100010000000100D4
:1005200001000100010001000100010001000100C3
:1005300001000100010001000100010001000100B3
:1005400001000100010001000100010001000100A3
:100550000100010001000100010001000100010093
:100560000100010001000100010001000100010083
:100570000100010001000100010001000100010073
:100580000100010001000100010001000100010063
:100590000100010001000100010001000100010053
:1005A0000100010001000100010001000100010043
:1005B0000100010001000100010001000100010033
:1005C0000100010001000100010000000100010024
:1005D0000100010001000100010001000100010013
:1005E0000100010001000100010001000000010004
:1005F00001000100010001000100010001000100F3
:1006000001000100010001000100010001000100E2
:1006100001000100010001000100010001000100D2
:1006200001000100010001000100010001000100C2
:1006300001000100010001000100010001000100B2
:1006400001000100010001000100010001000100A2
:100650000100010001000100010001000100010092
:100660000100010001000100010001000100010082
:100670000100010001000100010001000100010072
:100680000100010001000100010001000100010062
:100690000100010001000100010000000100010053
:1006A0000100010001000100010001000100010042
:1006B0000100010001000100010001000000010033
:1006C0000100010001000100010001000100010022
:1006D0000100010001000100010001000100010012
:1006E0000100010001000100010001000100010002
:1006F00001000100010001000100010001000100F2
:1007000001000100010001000100010001000100E1
:1007100001000100010001000100010001000100D1
:1007200001000100010001000100010001000100C1
:1007300001000100010001000100010001000100B1
:1007400001000100010001000100010001000100A1
:100750000100010001000100010001000100010091
:100760000100010001000100010000000100010082
:100770000100010001000100010001000100010071
:100780000100010001000100010001000000010062
:100790000100010001000100010001000100010051
:1007A0000100010001000100010001000100010041
:1007B0000100010001000100010001000100010031
:1007C0000100010001000100010001000100010021
:1007D0000100010001000100010001000100010011
:1007E0000100010001000100010001000100010001
:1007F00001000100010001000100010001000100F1
:1008000001000100010001000100010001000100E0
:1008100001000100010001000100010001000100D0
:1008200001000100010001000100010001000100C0
:1008300001000100010001000100000001000100B1
:1008400001000100010001000100010001000100A0
:100850000100010001000100010001000000010091
:100860000100010001000100010001000100010080
:100870000100010001000100010001000100010070
:100880000100010001000100010001000100010060
:100890000100010001000100010001000100010050
:1008A0000100010001000100010001000100010040
:1008B0000100010001000100010001000100010030
:1008C0000100010001000100010001000100010020
:1008D0000100010001000100010001000100010010
:1008E0000100010001000100010001000100010000
:1008F00001000100010001000100010001000100F0
:1009000001000100010001000100000001000100E0
:1009100001000100010001000100010001000100CF
:1009200001000100010001000100010000000100C0
:1009300001000100010001000100010001000100AF
:10094000010001000100010001000100010001009F
:10095000010001000100010001000100010001008F
:10096000010001000100010001000100010001007F
:10097000010001000100010001000100010001006F
:10098000010001000100010001000100010001005F
:10099000010001000100010001000100010001004F
:1009A000010001000100010001000100010001003F
:1009B000010001000100010001000100010001002F
:1009C000010001000100010001000100010001001F
:1009D0000100010001000100010000000100010010
:1009E00001000100010001000100010001000100FF
:1009F00001000100010001000100010000000100F0
:100A000001000100010001000100010001000100DE
:100A100001000100010001000100010001000100CE
:100A200001000100010001000100010001000100BE
:100A300001000100010001000100010001000100AE
:100A4000010001000100010001000100010001009E
:100A5000010001000100010001000100010001008E
:100A6000010001000100010001000100010001007E
:100A7000010001000100010001000100010001006E
:100A8000010001000100010001000100010001005E
:100A9000010001000100010001000100010001004E
:100AA000010001000100010001000000010001003F
:100AB000010001000100010001000100010001002E
:100AC000010001000100010001000100000001001F
:100AD000010001000100010001000100010001000E
:100AE00001000100010001000100010001000100FE
:100AF00001000100010001000100010001000100EE
:100B000001000100010001000100010001000100DD
:100B100001000100010001000100010001000100CD
:100B200001000100010001000100010001000100BD
:100B300001000100010001000100010001000100AD
:100B4000010001000100010001000100010001009D
:100B5000010001000100010001000100010001008D
:100B6000010001000100010001000100010001007D
:100B7000010001000100010001000000010001006E
:100B8000010001000100010001000100010001005D
:100B9000010001000100010001000100000001004E
:100BA000010001000100010001000100010001003D
:100BB000010001000100010001000100010001002D
:100BC000010001000100010001000100010001001D
:100BD000010001000100010001000100010001000D
:100BE00001000100010001000100010001000100FD
:100BF00001000100010001000100010001000100ED
:100C000001000100010001000100010001000100DC
:100C100001000100010001000100010001000100CC
:100C200001000100010001000100010001000100BC
:100C300001000100010001000100010001000100AC
:100C4000010001000100010001000000010001009D
:100C5000010001000100010001000100010001008C
:100C6000010001000100010001000100000001007D
:100C7000010001000100010001000100010001006C
:100C8000010001000100010001000100010001005C
:100C9000010001000100010001000100010001004C
:100CA000010001000100010001000100010001003C
:100CB000010001000100010001000100010001002C
:100CC000010001000100010001000100010001001C
:100CD000010001000100010001000100010001000C
:100CE00001000100010001000100010001000100FC
:100CF00001000100010001000100010001000100EC
:100D000001000100010001000100010001000100DB
:100D100001000100010001000100000001000100CC
:100D200001000100010001000100010001000100BB
:100D300001000100010001000100010000000100AC
:100D4000010001000100010001000100010001009B
:100D5000010001000100010001000100010001008B
:100D6000010001000100010001000100010001007B
:100D7000010001000100010001000100010001006B
:100D8000010001000100010001000100010001005B
:100D9000010001000100010012036B0065007900F1
:100DA00062006F00610072006400000016037100B1
:100DB0006D006B006200750069006C0064006500E6
:100DC000720000000403090409026D00040100A080
:100DD000FA090400000103010100092111010001C9
:100DE0002240000705810308000A090401000103ED
:100DF000010200092111010001224D0007058203B3
:100E000008000A0904020001030000000921110181
:100E100000012236000705830308000A09040300C5
:100E2000010300000009211101000122390007051A
:100E300084032000011201100100000008EDFE6093
:100E40006001000102000105010906A10105071961
:100E5000E029E715002501950875018102050819AB
:100E6000012905950575019102950175039101050B
:100E700007190029F71500250195F875018102C0B1
:100E800005010980A10185021601002603001A81CF
:100E9000002A8300751095018100C0050C0901A18D
:100EA000018503160100269C021A01002A9C027586
:100EB0001095018100C005010902A1010901A100ED
:100EC00005091901290515002501950575018102FE
:100ED0009501750381010501093009311581257FCF
:100EE00095027508810609381581257F95017508D9
:100EF0008106050C0A38021581257F950175088148
:100F000006C0C005010906A101050719E029E7157A
:100F1000002501950875018102950175088101057B
:100F2000081901290595057501910295017503912F
:100F3000010507190029FF150026FF009506750811
:100F40008100C00011241FBECFEFD0E2DEBFCDBFB5
:100F500004B603FE27C080916F0290917002A091A9
:100F60007102B09172028730904BA740B04BD1F420
:100F700010926F021092700210927102109272021F
:100F800014BE84B7877F84BF0FB6F894A89580916C
:100F90006000886180936000109260000FBEE0E006
:100FA000F8EF099511E0A0E0B1E0ECE4FDE400E029
:100FB0000BBF02C007900D92AC33B107D9F722E006
:100FC000ACE3B1E001C01D92AF36B207E1F70E9479
:100FD000AE1F0C9478260C94000090E080E00895F9
:100FE0000895089581E0089580FF0BC0209A289805
:100FF00081FF09C06F9A779882FF07C06E9A769832
:1010000008952098F4CF6F98F6CF6E98F8CF81E0CE
:1010100008950C94F2070E94B6112FEF84E39CE030
:10102000215080409040E1F700C000000C94E91985
:10103000EF92FF920F931F93CF93DF938C01FC01EC
:10104000E080F18080918801811140C082818823F5
:10105000C1F1C7010E943B17C82F682FC7010E942A
:10106000E416B7018C2F0E945009EC01B8010E94D0
:101070000908882309F44BC0B801CE010E94590B1E
:10108000882309F444C0C531F0E7DF0720F5C230FA
:1010900080E7D80708F04DC0C115E0E7DE0791F101
:1010A000C130D047E1F181E080933E0180933F0160
:1010B000C801DF91CF911F910F91FF90EF900C9499
:1010C0000708C7010E941217C82FCBCFC7010E9483
:1010D0003B17B701C8CFCC3380E7D80709F49BC0D2
:1010E000CD33D04701F7F8018281882309F4BAC0D3
:1010F00010923F010E94951990933D0180933C010D
:1011000080E296C0F801828181110E940B0880E084
:10111000DF91CF911F910F91FF90EF900895F8010B
:1011200082818823A1F380912F02816080932F0216
:10113000EECFF8018281882309F4BACF0E94F61815
:10114000811102C00E94DC180E94131990E0909354
:10115000610280936002FE01E350F04780916002DB
:101160008160E231F10538F4E658F94D0C942526FA
:1011700080916002826080936002809160020E9490
:1011800017190E94B611C3CF809160028460F3CF1B
:10119000809160028860EFCF809160028061EBCF28
:1011A000809160028062E7CF809160028064E3CF2B
:1011B000809160028068DFCF809160028C60DBCF1D
:1011C000809160028E7FD7CF809160028D7FD3CFD8
:1011D000809160028B7FCFCF80916002877FCBCFE1
:1011E000809160028F7EC7CF809160028F7DC3CFD8
:1011F000809160028F7BBFCF809160028F77BBCFE1
:1012000080916002837FB7CF90916002892F97FB16
:1012100087F98058B0CFF8018281882361F010925D
:101220003E010E94951990933D0180933C0182E01C
:101230000E941B0F6CCF80913E0181110FC08091E5
:101240003C0190913D010E94A119883C910530F428
:1012500086E20E94F00D86E20E94CC0E82E00E949F
:10126000220F55CF80913F0181110FC080913C0129
:1012700090913D010E94A119883C910530F487E2CC
:101280000E94F00D87E20E94CC0E80E2E8CF0C9421
:10129000A80B0C94AA0B0C94F4070C944B0908951A
:1012A000972F70E02DE0929F600D711D1124FB01BE
:1012B00098E6899FE00DF11D1124EE0FFF1FE856FF
:1012C000FF4F859194910895FC01EE0FFF1FE856A2
:1012D000F24F8591949108950E9450090E94DD0A71
:1012E0009C01811540E4940708F097C0211580E324
:1012F000380708F0FAC0203E310508F074C0203CE1
:10130000310508F0E5C0283A310588F4253A310561
:1013100008F0E2C02130310509F477C0C901049713
:10132000813A910508F471C030E020E06EC0C90137
:10133000885A91094597C0F7283A310509F4FEC04B
:10134000293A310509F4FDC02A3A310509F4FCC0F7
:101350002B3A310509F4FBC02C3A310509F4FAC0E7
:101360002B3B310509F4F9C02C3B310509F4F8C0D9
:101370002D3A310509F4F7C0203B310509F4F6C0D8
:101380002E3A310509F4F5C02F3A310509F4F4C0BD
:10139000213B310509F4F3C0223B310509F4F2C0C9
:1013A000233B310509F4F1C0243B310509F4F0C0B9
:1013B000253B310509F4EFC0263B310509F4EEC0A9
:1013C000273B310509F4EDC0283B310509F4ECC099
:1013D000293B310509F4EBC02A3B310509F4EAC089
:1013E00020E034E412C0211590E2390780F42F3F49
:1013F000310509F050F4283E310538F0C901805F0D
:1014000091093065409708F08FCFC9010895C9014F
:101410009F700E9464099C01F8CF8115944508F0E3
:1014200041C0211583E5380708F06AC0211592E50F
:10143000390738F5211541E5340708F05CC021155E
:1014400080E5380708F454C0C90134E096958795C3
:101450003A95E1F78370422F46954695437090E2A6
:10146000499FA0011124582B822F837021E030E086
:1014700002C0220F331F8A95E2F7242B352B3C68DC
:10148000C4CFC9018370992741E050E002C0440FE6
:10149000551F8A95E2F72695269580E2289F9001B0
:1014A0001124EBCF211596E5390748F4922F8827B0
:1014B00021153545C8F59C01246F306AA6CFC901B6
:1014C00090563F708115904108F02ECF30629DCF2D
:1014D000C901805C91099DCF253A310549F1263A31
:1014E000310549F522E830E490CF3327306C8DCFB9
:1014F0003F70306A8ACF322F2227216F306A85CF22
:10150000C9018370992741E050E002C0440F551F84
:101510008A95E2F72695269580E2289F900111246E
:10152000242B352B3A6871CF88279F719C01CECF31
:1015300021E830E46ACF23E830E467CF22EE34E4D8
:1015400064CF29EE34E461CF2AEE34E45ECF25EB9C
:1015500034E45BCF26EB34E458CF23EB34E455CFAF
:1015600024EB34E452CF27EB34E44FCF2CEC34E4BB
:101570004CCF2DEC34E449CF23E835E446CF2AE8BC
:1015800035E443CF22E935E440CF24E935E43DCFCB
:1015900021E236E43ACF23E236E437CF24E236E4E0
:1015A00034CF25E236E431CF26E236E42ECF27E2EF
:1015B00036E42BCF2AE236E428CF803E910581F134
:1015C000C8F48133910509F462C048F48932910569
:1015D00009F456C08A32910509F460C00895893330
:1015E0009105B9F082389105A1F08533910509F490
:1015F00040C00895863E910561F138F4823E910520
:10160000B1F0833E9105E1F00895873E910551F1D7
:101610000895209160022370D9F080EE90E0089543
:101620002091600220FF14C089E390E0089520918A
:10163000600222FF0DC024FD09C083EE90E00895F2
:101640002091600222FD31C024FF02C090E080E0C2
:1016500008952091600223FFFBCF24FDF7CF87EE92
:1016600090E008952091600223FFEECF86EE90E097
:1016700008952091600225FFEBCF89E290E0089564
:101680002091600225FFE4CF85E390E0089520914A
:10169000600226FFDDCF8AE290E00895209160028B
:1016A00026FFD6CF81E390E0089582EE90E0089582
:1016B00008950F931F93CF938C01FB0182818111B9
:1016C00006C0C1E08C2FCF911F910F910895C0915A
:1016D0004D01C11125C00531104799F70E94580BE3
:1016E00081E080934D010E94951990934C01809365
:1016F0004B01109240011092420110924101109250
:10170000440110924301109246011092450110923B
:1017100048011092470110924A0110924901D2CF1C
:1017200080914B0190914C010E94A119883C910538
:1017300040F680914001E82FF0E0EE0FFF1FEF5BD5
:10174000FE4F118300838F5F80934001C0E0BACFCA
:101750000C94F0070C94F10785B7806885BF85B7B6
:10176000806885BFA0E2B1E061E070E08D91E82F74
:10177000E295EF70F0E041A18F709B0101C0220F54
:101780008A95EAF7922F9095942391A382A1822BB8
:1017900082A381E0A832B80749F7A3E1B1E061E094
:1017A00070E08D91E82FE295EF70F0E041A18F702D
:1017B0009B0101C0220F8A95EAF7922F90959423FE
:1017C00091A382A1822B82A381E0A032B80749F7BE
:1017D000EEE5F1E0AEE4B1E08EE691E01192119217
:1017E0001D921D928E179F07C9F70C9447092F92DF
:1017F0003F924F925F926F927F928F929F92AF92A1
:10180000BF92CF92DF92EF92FF920F931F93CF93ED
:10181000DF930EE411E080E2C82E81E0D82E18019B
:10182000EE24E394F12C66246394D1018D909D9075
:101830001D011E921E92E60189916E01E82FE2952C
:10184000EF70F0E091A18F70970101C0220F8A958F
:10185000EAF7892F822B81A382A1722E70948721AF
:1018600082A3D0EADA95F1F763E171E090E080E0DD
:10187000EB015990BE01452D42954F7050E0EA01B1
:1018800048A0AD90BC901197552D5F70E70102C044
:10189000CC0FDD1F5A95E2F7AE01442109F059C083
:1018A000A701082E02C0440F551F0A94E2F74A29E7
:1018B0005B2911965C934E9301968D309105C1F68C
:1018C00081A1782271A282A1282B22A38D919C91C3
:1018D0008816990641F060926E010E9495199093C6
:1018E000700180936F01DEE52D16D1E03D0609F011
:1018F0009CCF80916E018823B1F080916F0190910F
:1019000070010E94A119069770F0EEE5F1E0D80190
:101910008D919D918D0181939193B1E00E351B07BF
:10192000B1F710926E010E94490981E0DF91CF91D9
:101930001F910F91FF90EF90DF90CF90BF90AF90ED
:101940009F908F907F906F905F904F903F902F90DF
:10195000089550E040E0ABCFE82FF0E0EE0FFF1F1E
:10196000E25AFE4F80819181089508959093760107
:10197000809375010895E0917501F091760130979B
:1019800021F00190F081E02D099480E00895E0912C
:101990007501F0917601309721F00280F381E02DFE
:1019A00009940895E0917501F0917601309721F046
:1019B0000480F581E02D0994089520917301309100
:1019C00074012817390771F09093740180937301A3
:1019D000E0917501F0917601309721F00680F78152
:1019E000E02D09940895209171013091720128171A
:1019F000390771F09093720180937101E091750144
:101A0000F0917601309721F00084F185E02D099462
:101A1000089508950C94090D0E948C190E94AC0B36
:101A20000C94561A5F926F927F928F929F92AF9210
:101A3000BF92CF92DF92EF92FF920F931F93CF93BB
:101A4000DF9300D000D00F92CDB7DEB70E94F70B26
:101A500098E7A92E91E0B92E10E000E08824839445
:101A6000912C502E802F0E94AC0C7C01F501C1906E
:101A7000D1905F01C816D90609F45DC080912F028C
:101A800081FD0E94B50C90E080E0CE24DF2434017B
:101A9000082E02C0660C771C0A94E2F796012621F4
:101AA0003721232B09F442C089835A82E620F7208C
:101AB00081E0EF2809F480E08B830E949519816012
:101AC000782F9D838C8349815A816B818D810E94FF
:101AD000C70D000F111FF801E858FE4F808191815A
:101AE00068267926718260820E94031D0E94BB0CC9
:101AF000909177018917B1F10E94BB0C8093770117
:101B00000F900F900F900F900F90DF91CF911F913A
:101B10000F91FF90EF90DF90CF90BF90AF909F908C
:101B20008F907F906F905F900C944D0901968D304F
:101B3000910509F0ACCF0F5F1F4F0830110509F078
:101B400090CF8FEF89838A831B820E9495198160D1
:101B5000782F9D838C8349815A816B818D810E946E
:101B6000C70DC2CF0F900F900F900F900F90DF9185
:101B7000CF911F910F91FF90EF90DF90CF90BF908A
:101B8000AF909F908F907F906F905F900895CF93CC
:101B9000DF93CDB7DEB72B970FB6F894DEBF0FBE3D
:101BA000CDBF4F83588769877A878B871E8285E0F0
:101BB000FE013796DE01119601900D928A95E1F7AC
:101BC00049815A816B817C818D819E812B960FB6D4
:101BD000F894DEBF0FBECDBFDF91CF910C943E14C1
:101BE000882309F4D8C0823871F40E94BB0C81FDAF
:101BF000D2C089E30E94E3170E94AD1889E30E94D6
:101C000020180C94AD18833859F40E94BB0C80FD49
:101C1000C2C083E50E94E3170E94AD1883E5EFCFB1
:101C2000843859F40E94BB0C82FDB5C087E40E9441
:101C3000E3170E94AD1887E4E2CF9CEF980F913A2A
:101C400018F40E94E317DDCF90E2980F983050F41B
:101C5000877091E001C0990F8A95EAF7892F0E9459
:101C60006418CFCF9BE5980F933070F4853A31F02C
:101C7000863A39F083E890E00C94DD0C81E890E03E
:101C8000FBCF82E890E0F8CF98E5980F953108F007
:101C900082C0883A09F440C0893A09F440C08A3ABF
:101CA00009F440C08B3A09F440C08C3A09F440C0B2
:101CB0008B3B09F440C08C3B09F440C08D3A09F4D9
:101CC00040C0803B09F440C08E3A09F440C08F3ACE
:101CD00009F440C0813B09F440C0823B09F440C094
:101CE000833B09F440C0843B09F440C0853B09F4C0
:101CF00040C0863B09F440C0873B09F440C0883BA4
:101D000009F440C0893B09F440C08A3B09F440C053
:101D100090E080E00C94F30C82EE90E0FBCF89EE33
:101D200090E0F8CF8AEE90E0F5CF85EB90E0F2CF2F
:101D300086EB90E0EFCF83EB90E0ECCF84EB90E08C
:101D4000E9CF87EB90E0E6CF8CEC90E0E3CF8DEC31
:101D500090E0E0CF83E891E0DDCF8AE891E0DACF50
:101D600082E991E0D7CF84E991E0D4CF81E292E09B
:101D7000D1CF83E292E0CECF84E292E0CBCF85E276
:101D800092E0C8CF86E292E0C5CF87E292E0C2CF70
:101D90008AE292E0BFCF0895882309F44BC08238CD
:101DA00071F40E94BB0C81FF45C089E30E94E317D8
:101DB0000E94AD1889E30E9420180C94AD18833856
:101DC00059F40E94BB0C80FF35C083E50E94E317E5
:101DD0000E94AD1883E5EFCF843859F40E94BB0C04
:101DE00082FF28C087E40E94E3170E94AD1887E4B1
:101DF000E2CF9CEF980F913AF0F290E2980F983072
:101E000050F4877091E001C0990F8A95EAF7892F05
:101E10000E946A18D2CF9BE5980F933020F490E08F
:101E200080E00C94DD0C885A853120F490E080E04D
:101E30000C94F30C0895882321F00E9464180C94EC
:101E4000AD180895882321F00E946A180C94AD18EB
:101E500008958F929F92AF92BF92DF92EF92FF927E
:101E60000F931F93CF93DF9300D000D00F92CDB785
:101E7000DEB77C016D837983FC01058102950F70CB
:101E8000128111110E9483180E94DC17D82E88231A
:101E900071F01123A1F08D81805E883080F082E0A6
:101EA0000E94C6170E94DC1791E0D82ED926E9813E
:101EB000E295EF70F0E0E457F94D0C942526D12C13
:101EC000F6CF09810F70F981F07F11F00295007F44
:101ED0001123B1F0002361F08D81805E883018F00D
:101EE0002D81211109C0802F0E9464180E94AD1815
:101EF0008D810E94F00D15C0802F0E947518F6CFBD
:101F00008D810E94CC0E002361F08D81805E88302F
:101F100018F03D81311129C0802F0E946A180E945B
:101F2000AD18DD2009F4D3C10E94B91780FDCFC1DF
:101F3000F70112820E94B3170E94FC15C7010E948C
:101F400078110E94B3170F900F900F900F900F9081
:101F5000DF91CF911F910F91FF90EF90DF90BF9095
:101F6000AF909F908F900C941E16802F0E947B182C
:101F7000D6CF49814F70B42E5981507F503219F01D
:101F8000B29480EFB8228D81882369F0813029F1E5
:101F9000112369F1002359F0F701858180FFA8CF53
:101FA0008F70858304C0112361F0011104C08B2D53
:101FB0000E941B0FB6CF8B2D0130D1F70E949718CE
:101FC000B0CF011106C00E949A188B2D0E94220FDB
:101FD000A8CF013009F4A5CFF6CF112321F00630A8
:101FE00008F09FCFE4CF053008F09BCFEECF002361
:101FF00061F38D810E94CC0E94CF89818695869560
:10200000837069F0813009F08CCF8D819981937054
:10201000111102C090E080E00E94F30C82CF8D810C
:1020200099819370111102C090E080E00E94DD0C54
:1020300078CF8D81112329F00E94111C0E94F81C79
:1020400070CF0E94791CFACF8981837009F05FC03C
:10205000111167CF2D81229526952770220F220F0F
:102060008D818F7090E0B0E0A0E04C015D01022E08
:1020700004C0880C991CAA1CBB1C0A94D2F7FD81D1
:1020800060E070E0CB01F4FF0FC06FE070E080E033
:1020900090E004C0660F771F881F991F2A95D2F71A
:1020A0006095709580959095298126952695237049
:1020B0002D832230B1F0233019F19B01AC01282986
:1020C00039294A295B2929833A834B835C833D81E3
:1020D00069817A818B819C813130B1F00E948915B0
:1020E00020CF9B01AC01282939294A295B29298362
:1020F0003A834B835C83CA01B9010E94B31511CFA7
:102100000E948915C501B4010E945F150ACF86950A
:10211000112311F089818170882309F402CF2D8168
:10212000229526952770220F220F8D818F7090E0C7
:10213000B0E0A0E04C015D01022E04C0880C991CA7
:10214000AA1CBB1C0A94D2F73D8160E070E0CB0171
:1021500034FF0FC06FE070E080E090E004C0660FD5
:10216000771F881F991F2A95D2F7609570958095E3
:10217000909549814695469543704D834230B1F024
:10218000433019F19B01AC01282939294A295B29DF
:1021900029833A834B835C833D8169817A818B817A
:1021A0009C813130B1F00E948F16BBCE9B01AC01F7
:1021B000282939294A295B2929833A834B835C835F
:1021C000CA01B9010E94B916ACCE0E948F16C50192
:1021D000B4010E946516A5CE3D81323F09F447C087
:1021E00080F4303F79F1313FD9F1832F805E803127
:1021F000D0F0112309F456C001117ACE89818F7174
:1022000033C04D81433FD1F1443F99F7112309F485
:102210003FC089818F7189830E94FC1563E08981A9
:102220000E94BD177ECE5D815F705D8389818F7155
:10223000112321F00E94FC158D81BACE0E941E163A
:102240008D81C4CE112341F0053008F06ACE89811A
:102250008F710E94431665CE063008F062CEF7CF2C
:1022600089818F71112339F00E94FC155ACE898122
:102270008F711123C9F30E941E1653CE112329F02A
:1022800089818F710E94E7154CCE0E94DD1549CEE1
:1022900081E00E94C617023008F443CE82E00E941B
:1022A000C6173FCE0111A5CE89818F71E4CF498138
:1022B0004F706D81C7010E94ED070E94D81431CE86
:1022C00049814F706D81C7010E944F092ACE0F903E
:1022D0000F900F900F900F90DF91CF911F910F9162
:1022E000FF90EF90DF90BF90AF909F908F900895F8
:1022F0000F931F93CF93DF93EC018B819C81892BEC
:1023000029F08881998189238F3F29F4DF91CF912A
:102310001F910F910895CE010E9418088823B1F3F0
:10232000688179818A810E9489178C010E94E31655
:102330000E945415B801CE01DF91CF911F910F91EA
:102340000C94290F0E9483180E9494180E9456181A
:102350000E94AD180E94E91D0E94F81C90E080E0E8
:102360000E94DD0C90E080E00C94F30C0E94721847
:102370000C94A2110E947D17282F892F82958F70AF
:10238000903C80F48A30B0F4843020F4823090F4B1
:1023900080E008958630E1F781E0203E88F0213F1B
:1023A000B9F70EC08C3011F08F3091F793FB88276E
:1023B00080F9089581E0203F39F018F4203E40F77D
:1023C0000895243F29F7FCCF0895CF93DF9300D0E1
:1023D00000D00F92CDB7DEB70F900F900F900F90F7
:1023E0000F90DF91CF910895CF93DF9300D000D06D
:1023F00000D0CDB7DEB726960FB6F894DEBF0FBE7D
:10240000CDBFDF91CF9108951F93CF93DF93E091DC
:10241000890116E080918A018E1304C0DF91CF916B
:102420001F910895CE2FD0E01E9FF0011124E55793
:10243000FE4F4081518162817381848195810E9428
:10244000F411FE013196E770E5CF4091BB01509148
:10245000BC016091BD017091BE018091BF0190915E
:10246000C0010C94F4111F93CF93DF938091C001AE
:10247000807FC1F48091BD018823A1F08091890102
:10248000C0918A016091BB017091BC014091BE0175
:102490005091BF01D62FD723DA01A095B09516E051
:1024A000C81304C0DF91CF911F91089590E04115AA
:1024B000510511F0DF3F31F401968770F1CF2A0FFB
:1024C0003B1F17C0189FF001199FF00D1124E5570D
:1024D000FE4F21812713F0CF20812613EDCF2281DB
:1024E0002111EACF238134812417350740F3241BBF
:1024F000350B283C310500F72091C0012F70206179
:102500002093C00126E0289FF001299FF00D11249F
:10251000E057FE4F80818F70806180838BEB91E06C
:102520000E947811DF91CF911F910C9404129F9219
:10253000AF92BF92CF92DF92EF92FF920F931F93D1
:10254000CF93DF93CDB7DEB72B970FB6F894DEBFEE
:102550000FBECDBF8C0185E0F801DE01179601901A
:102560000D928A95E1F7D8014C9111965C911197E3
:102570001296EC9012978091BE019091BF01009746
:1025800009F46BC12091BB013091BC01632F622320
:102590006F3F09F462C11396CD90DC909090BD011D
:1025A000992009F4F8C0C816D90608F43FC0F6010E
:1025B000E81BF90BCF01FF24F394883C910508F048
:1025C000F12C8BEBA82E81E0B82E8091C001982FC2
:1025D000907FFF2009F4B7C0911180C0FE2C351305
:1025E0002AC0241328C0E11026C08F708061809318
:1025F000C0010E942512C5010E9478118091C0017E
:10260000D80115968C938F2D2B960FB6F894DEBFBC
:102610000FBECDBFDF91CF911F910F91FF90EF9033
:10262000DF90CF90BF90AF909F9008958095909548
:102630008C0D9D1DC0CFCD2829F0842F85238F3F81
:1026400009F019C180E0B82FB170DB2EE09189014B
:1026500020918A0136E080FD1CC0EE20A1F280911D
:10266000C00181608093C001F12CCDCF8E2F90E00E
:102670003E9FF0011124E557FE4F6181651306C0AE
:102680006081641303C062816E11E7CFFC01319653
:10269000E770E213EBCF4F8358878F8198850E94B4
:1026A0007D17292F22952F70903260F0225F2F70B6
:1026B000223078F49F7051F0F8019581907F31F4C9
:1026C000D12C0AC09F7011F08823D1F3805E88302E
:1026D000B8F3C8010E947811FD2C95CF351306C0C0
:1026E000241304C0D801EE2009F47BC04F8358871F
:1026F0008F8198850E94BA11882309F4B8C0EE2012
:1027000009F4B5C08091C001803270F02091BB0106
:102710003091BC013A8329831B82DD82CC828E8377
:10272000CE0101960E94781186E0F801ABEBB1E092
:1027300001900D928A95E1F70E9433120E942512B2
:10274000FF24F39460CF911113C07C2DDB86CA86E1
:102750006E2D8B850E94E5118BEB91E00E94781124
:1027600086E0F50111928A95E9F70E9425124BCF78
:102770003513BCCF2413BACFE110B8CFD8011596CA
:102780008C93C8010E94781186E0F50111928A9518
:10279000E9F7F92C38CFC816D90688F1B601681BBD
:1027A000790BCB01F12C883C910508F047C0FE2C39
:1027B000EE2009F45CC0351330C024132EC0809184
:1027C000C00180FD21C0982F907FF1F0D8011596AF
:1027D0008C931597903F39F0982F907F905F8F7072
:1027E000892B15968C93C8010E94781186E0F80118
:1027F000ABEBB1E001900D928A95E1F7B6CF8095F1
:1028000090958C0D9D1DCECF86E0F801ABEBB1E02D
:1028100001900D928A95E1F7F6CE4F8358878F810C
:1028200098850E94BA1181117FCF8091C00181608B
:102830008093C001C8010E947811E5CE7C2DDB8613
:10284000CA866E2D8B850E94E51186E0EBEBF1E0E8
:10285000DF011D928A95E9F788CFEE2041F04F8382
:1028600058878F8198850E94BA1181115DCFC80168
:102870000E94781165CF81E08E25E5CE1F93CF931E
:10288000DF93CDB7DEB72C970FB6F894DEBF0FBE3F
:10289000CDBF4F83588769877A878B879C87CE0106
:1028A00007960E949712882369F08A859B85892B59
:1028B00039F04F815885842F85238F3F09F071C0EF
:1028C00016E05FC086E0FE013796DE0111960190AA
:1028D0000D928A95E1F78A859B85892B89F38885F6
:1028E0009F8189238F3F61F320918A0130E0C901E4
:1028F000019687709927409189014817190671F44C
:102900000E94B61110928A011092890186E0EBEBC9
:10291000F1E0DF011D928A95E9F7D2CF96E0929F10
:10292000D001939FB00D1124A557BE4FFE013196E3
:1029300001900D929A95E1F780938A010E9404120A
:10294000BFCF819FC001112485579E4F0E949712CF
:102950008823E9F0E09189011E9FF0011124E557D9
:10296000FE4F4081518162817381848195810E94F3
:10297000F4118091890190E00196877099278093E6
:1029800089018091890190918A018913DACF2C966F
:102990000FB6F894DEBF0FBECDBFDF91CF911F9170
:1029A000089569857A858B859C850E94F41188CF6E
:1029B000EF92FF920F931F93CF93DF938C01892B9C
:1029C00089F0F12CEE24E394E8012196F80184913A
:1029D000843709F457C0A0F4823009F43EC048F4AB
:1029E0008130D1F0DF91CF911F910F91FF90EF9047
:1029F00008959CEF980F9037A8F70E94F00D0AC039
:102A0000853709F44CC09CE7980F903758F78F77BB
:102A10000E94CC0E8E0116C00E5F1F4FFE018491E6
:102A200090E2980F983060F48770FE2D01C0FF0F80
:102A30008A95EAF78F2F0E9486180E94AD1802C06F
:102A40000E94F00D8F2D815008F4BECFEFE9FFE01A
:102A50003197F1F700C00000F6CF0E5F1F4FFE0167
:102A6000849190E2980F983050F48770FE2D01C049
:102A7000FF0F8A95EAF78F2F0E948C18DECF0E94F5
:102A8000CC0EE0CF0E5F1F4FFE01C491C150D0F2BB
:102A90008FE99FE00197F1F700C00000F7CF0E5FCC
:102AA0001F4FFE01F490CECF0895609306027093FD
:102AB000070280930802909309020C94A211CF930D
:102AC000DF9300D000D0CDB7DEB769837A838B83E4
:102AD0009C838091060290910702A0910802B09118
:102AE000090229813A814B815C81822B932BA42B93
:102AF000B52B8093060290930702A0930802B0932F
:102B000009020F900F900F900F90DF91CF910C94CE
:102B1000A211CF93DF9300D000D0CDB7DEB7698389
:102B20007A838B839C838091060290910702A09107
:102B30000802B091090229813A814B815C8182238C
:102B40009323A423B5238093060290930702A093B6
:102B50000802B09309020F900F900F900F90DF9131
:102B6000CF910C94A211CF93DF9300D000D0CDB7BA
:102B7000DEB769837A838B839C8380910602909170
:102B80000702A0910802B091090229813A814B8184
:102B90005C8182279327A427B52780930602909310
:102BA0000702A0930802B09309020F900F900F90B4
:102BB0000F90DF91CF910C94A2111092020210920B
:102BC000030210920402109205020C94A21141E03B
:102BD00050E060E070E004C0440F551F661F771F8F
:102BE0008A95D2F740930202509303026093040245
:102BF000709305020C94A211282F81E090E0A0E0D0
:102C0000B0E004C0880F991FAA1FBB1F2A95D2F7F6
:102C100040910202509103026091040270910502FA
:102C2000842B952BA62BB72B809302029093030243
:102C3000A0930402B09305020C94A21141E050E06D
:102C400060E070E004C0440F551F661F771F8A952F
:102C5000D2F74095509560957095809102029091C1
:102C60000302A0910402B091050284239523A623B8
:102C7000B7238093020290930302A0930402B093BF
:102C800005020C94A211282F81E090E0A0E0B0E0B2
:102C900004C0880F991FAA1FBB1F2A95D2F7409125
:102CA0000202509103026091040270910502842790
:102CB0009527A627B7278093020290930302A0933B
:102CC0000402B09305020C94A211CF93DF9300D0BD
:102CD00000D0CDB7DEB769837A838B839C838091E4
:102CE000020290910302A0910402B0910502298191
:102CF0003A814B815C81822B932BA42BB52B809343
:102D0000020290930302A0930402B09305020F9075
:102D10000F900F900F90DF91CF910C94A211CF9351
:102D2000DF9300D000D0CDB7DEB769837A838B8381
:102D30009C838091020290910302A0910402B091C1
:102D4000050229813A814B815C8182239323A4234C
:102D5000B5238093020290930302A0930402B093E0
:102D600005020F900F900F900F90DF91CF910C9470
:102D7000A211CF93DF9300D000D0CDB7DEB7698327
:102D80007A838B839C838091020290910302A091AD
:102D90000402B091050229813A814B815C8182272E
:102DA0009327A427B5278093020290930302A09350
:102DB0000402B09305020F900F900F900F90DF91D7
:102DC000CF910C94A2110895E82F2DE0929FE00D71
:102DD00011248E2F877041E001C0440F8A95EAF7D5
:102DE000E695E695E69585E0E89FF0011124EF531E
:102DF000FE4F30E020E070E05191DF011197CB01F0
:102E0000022E02C0969587950A94E2F7817081950B
:102E10008527842385278C932F5F3F4F25303105ED
:102E200059F70895E82F2DE0929FE00D11249E2F71
:102E30009770E695E695E69585E0E89FF001112408
:102E4000EF53FE4F50E040E080E0219130E0092E4A
:102E500002C0369527950A94E2F721703327042E95
:102E600001C0220F0A94EAF7822B4F5F5F4F453073
:102E7000510559F70895BF92CF92DF92EF92FF92DA
:102E80000F931F93CF93DF938C01C0900202D090D9
:102E90000302E0900402F0900502809106029091F6
:102EA0000702A0910802B0910902C82AD92AEA2A89
:102EB000FB2ACFE1D0E0BC2ED701C6010C2E04C006
:102EC000B695A795979587950A94D2F780FD0EC081
:102ED000219788F7B12C8B2DDF91CF911F910F9106
:102EE000FF90EF90DF90CF90BF900895B8018C2FA6
:102EF0000E946C09019761F3EECFCF93DF93D82F37
:102F0000C92F0E943B176D2F7C2FDF91CF910C941E
:102F10006C091F93CF93DF93162FD72F90918801C1
:102F2000992339F0862F972FDF91CF911F910C9421
:102F30007D17882391F0862F972F0E943B17C82F6B
:102F4000682F812F9D2F0E94E416612F7D2F8C2FDB
:102F5000DF91CF911F910C946C09862F972F0E94BF
:102F60001217C82FF2CF80910A0285958595859515
:102F7000089580910A028770089598E0899F9001D2
:102F80001124622B60930A020C94FC1590910A02A2
:102F90008095892380930A02282F277061F4282FB7
:102FA000082E000C330B9217130629F08595859592
:102FB00085950C941E16089590910A02977081E0F1
:102FC00009F480E00895909112019923E1F0909125
:102FD000600297FF18C0E82FE695E695E695EF3179
:102FE00039F12091000130910101E20FF32FF11D21
:102FF000877021E030E001C0220F8A95EAF78181D5
:10300000822B818308952091000130910101F90103
:1030100032969FEF40E05191851751F09F3F19F490
:10302000511101C0942F4F5F4E31A9F79F3F09F412
:103030000895290F311D97FD3A95F901828308956E
:1030400090911201992301F19091600297FF1CC0A9
:10305000E82FE695E695E695EF3139F120910001EC
:1030600030910101E20FF32FF11D877021E030E074
:10307000A90102C0440F551F8A95E2F7CA01809545
:10308000918189238183089520910001309101016C
:10309000F9013296205E3F4F9191891303C0DF0101
:1030A00011971C92E217F307B9F7089581E090E0B9
:1030B000E0910001F0910101E80FF91F10820196E3
:1030C00080329105A9F7089590912E02982B909344
:1030D0002E020895982F909580912E028923809337
:1030E0002E02089510922E02089590912D02982B91
:1030F00090932D020895982F909580912D02892309
:1031000080932D02089510922D02089590912C0223
:10311000982B90932C020895982F909580912C02D3
:10312000892380932C02089510922C020895809395
:103130000B02089510920B02089520910001309126
:103140000101F9013196205E3F4F80E0919191118C
:103150008F5FE217F307D1F70895E0910001F09136
:10316000010180912E028083E0910001F091010124
:10317000808190912D02892B8083E0910001F09154
:103180000101808190912C02892B808390910B0208
:10319000992361F0E0910001F09101018081892B78
:1031A00080830E949D18811110920B028091000172
:1031B000909101010C94C70C6DEE7EEF90E080E0E1
:1031C0000E94622660E082E090E00E94502660E06B
:1031D00083E090E00E94502660E084E090E00E944E
:1031E000502660E085E090E00C94502690E080E06E
:1031F0000E944A269C0181E02D3E3E4F09F080E06E
:10320000089582E090E00C944226682F82E090E0DE
:103210000C94502683E090E00C944226682F83E0C3
:1032200090E00C94502684E090E00C944226682FA5
:1032300084E090E00C94502680916602843039F14D
:103240001092300288E190E020E40FB6F894A8953F
:10325000809360000FBE2093600080E00E944D09C3
:1032600083B7817F846083BF83B7816083BF789495
:10327000889583B78E7F83BF0FB6F894A895809109
:103280006000886180936000109260000FBE089516
:1032900008950895CF930E9448190E94F70B0E9449
:1032A0004919C0E08C2F0E94AC0C892B31F4CF5F00
:1032B000C830C1F780E0CF91089581E0FCCF0E9433
:1032C000B6110E94BB0C0C944D091F921FB61F92A1
:1032D00011248F939F93AF93BF93809130028111FC
:1032E00013C080915C0290915D02A0915E02B0914A
:1032F0005F024196A11DB11D80935C0290935D0217
:10330000A0935E02B0935F02BF91AF919F918F91A6
:103310001F901FBE1F90189582E084BD93E095BD5D
:103320009AEF97BD80936E0008952FB7F89480911F
:103330005C0290915D02A0915E02B0915F022FBF8E
:103340000895CF92DF92EF92FF929C014FB7F894CD
:1033500080915C0290915D02A0915E02B0915F024B
:103360004FBF6C017D01EE24FF24A90170E060E0F5
:10337000C416D506E606F70638F0821B930BFF90BD
:10338000EF90DF90CF9008950197F7CF1F921FB66F
:103390001F9211248F939F93AF93BF9380915C02F0
:1033A00090915D02A0915E02B0915F020196A11D15
:1033B000B11D80935C0290935D02A0935E02B09376
:1033C0005F02BF91AF919F918F911F901FBE1F9081
:1033D00018950E94DD21F8942FEF87EA91E621509D
:1033E00080409040E1F700C0000087E090EBDC01F6
:1033F00080936F0290937002A0937102B093720257
:1034000088E19CE00FB6F894A895809360000FBE09
:1034100090936000FFCFAF92BF92CF92DF92EF9276
:10342000FF920F931F93CF93C0E0AA24A394B12CD3
:10343000E82EF12C8C2F0E94AC0C6C0110E000E007
:10344000C501002E02C0880F991F0A94E2F78C2153
:103450009D21892B99F0602F7C2F80E00E945009DC
:10346000E816F90659F481E0CF911F910F91FF9072
:10347000EF90DF90CF90BF90AF9008950F5F1F4FF8
:103480000D301105E9F6CF5FC830A1F680E0ECCF32
:10349000CF93C82F8CE20E940B1A882321F08C2F27
:1034A000CF910C940B1A80E0CF910895CF93DF93C6
:1034B00000D000D0CDB7DEB70E94F618811102C04F
:1034C0000E94DC1895E6998308C00E94F70B8FE3F1
:1034D0009CE90197F1F700C00000A981A150A983E0
:1034E000A111F3CF89E20E94481A811110C18AE22A
:1034F0000E94481A81110E94DC1885E00E94481A37
:1035000081110E94E9190E94011980932F0287E01E
:103510000E94481A882371F08BE10E94481A882380
:1035200009F4D1C090912F02892F8D7F91FF826085
:1035300080932F0280912F020E9405190E94131977
:1035400090E0909361028093600280EE0E94481A9E
:10355000882341F090916002892F8E7F90FF8160D7
:103560008093600289E30E94481A882341F0909179
:103570006002892F8D7F91FF82608093600282EECE
:103580000E94481A882341F090916002892F8B7F16
:1035900092FF84608093600286EE0E94481A88231E
:1035A00041F090916002892F877F93FF886080931C
:1035B000600283EE0E94481A882341F090916002D5
:1035C000892F8F7E94FF80618093600285E30E9443
:1035D000481A882341F090916002892F8F7D95FFD2
:1035E00080628093600281E30E94481A882341F040
:1035F00090916002892F8F7B96FF80648093600298
:1036000081E10E94481A882341F090916002892F3D
:1036100097FB87F9805880936002809160020E9436
:10362000171987E20E94481A89838EE10E94481A7E
:10363000882319F0B981B260B9838FE10E94481ADA
:10364000882319F029812460298380E20E94481A86
:10365000882319F039813860398381E20E94481A41
:10366000882319F049814061498382E20E94481A07
:10367000882319F059815062598383E20E94481AC5
:10368000882319F089818064898384E20E94481A22
:103690008823B1F199819068998389810E940E19DC
:1036A0003981232F30E050E040E029833A834B8377
:1036B0005C83CA01B9010F900F900F900F90DF91BA
:1036C000CF910C9455158EE00E94481A882339F04A
:1036D00090912F02892F8B7F92FF846029CF80E108
:1036E0000E94481A90912F02882329F0892F877F02
:1036F00093FF88601DCF892F8E7F90FF816018CF48
:10370000A981A111CACF0E940A19282FCBCF0F90EF
:103710000F900F900F90DF91CF9108958091330219
:1037200080FF12C06091050185E0689FB0011124FF
:10373000759567957595679560387105A8F561155C
:103740007105A1F1862F089581FF09C060910501DF
:1037500085E0689FB001112475956795EDCF609164
:10376000050182FD0AC0809134028823D1F0909136
:10377000040160910501891728F085E0689FB00178
:103780001124DACF869FB001112485E0869F900135
:10379000879F300D1124692F70E0C9010E94112606
:1037A000CBCF65E070E0CECF8FE7089581E008953C
:1037B0008091330280FF0CC06091030170E0759529
:1037C0006795759567956115710549F1862F08957F
:1037D00081FF06C06091030170E075956795F3CF96
:1037E0006091030182FD0BC0909134029923A1F0F6
:1037F0006091020180910301961738F0682F70E004
:103800006038710500F38FE70895899FC001112486
:1038100070E00E941126F4CF61E070E0D7CF81E024
:103820000895803F31F40E948E1B8195809337026A
:103830000895813F19F40E948E1BF8CF823F31F426
:103840000E948E1B8195809336020895833F19F460
:103850000E948E1BF8CF893F29F40E94D81B8093C9
:10386000380208958A3F21F40E94D81B8195F7CF32
:103870008B3F31F40E94D81B8195809339020895C3
:103880008C3F19F40E94D81BF8CF843F31F480910B
:1038900035028160809335020895853F21F480913F
:1038A00035028260F7CF863F21F480913502846033
:1038B000F1CF873F21F4809135028860EBCF883FBC
:1038C00021F4809135028061E5CF8D3F31F4809104
:1038D000330281608093330208958E3F21F48091FA
:1038E00033028260F7CF8F3FB9F780913302846053
:1038F000F1CF90913602803F41F48091370287FDED
:1039000010923702992371F00895813F29F4809134
:1039100037021816ACF3F6CF823F81F497FFF2CF4F
:10392000109236028091370290913802892B909143
:103930003902892B49F7109234020895833F19F414
:10394000191674F3DFCF893F39F4809138021816C5
:10395000CCF610923802D6CF8A3F29F480913802F3
:1039600087FFD0CFF6CF8B3F39F48091390287FFA4
:10397000C9CF10923902C6CF8C3F29F48091390209
:103980001816BCF3BFCF843F31F4809135028E7F8F
:1039900080933502B7CF853F21F4809135028D7F2A
:1039A000F7CF863F21F4809135028B7FF1CF873F9F
:1039B00021F480913502877FEBCF883F21F48091FD
:1039C00035028F7EE5CF8D3F31F4809133028E7FBB
:1039D0008093330297CF8E3F21F4809133028D7F05
:1039E000F7CF8F3F09F08ECF809133028B7FF0CFDE
:1039F00085E392E00E94D20C0E94951990933202C6
:103A00008093310208951F93CF93DF9300D000D0AD
:103A100000D0CDB7DEB780913102909132020E9482
:103A2000A119AC01809134022091060130E081118E
:103A300006C0209107019AE0299F900111244217A6
:103A4000530788F020913602A0913702A983109184
:103A50003802B0913902BE8321110FC09A2F912BE9
:103A60009B2B09F0B2C026960FB6F894DEBF0FBEAE
:103A7000CDBFDF91CF911F9108958F3F19F08F5FD8
:103A800080933402121624F40E948E1B8093360217
:103A90008091360287FF05C00E948E1B819580931E
:103AA00036022981121624F40E948E1B809337025D
:103AB0008091370287FF05C00E948E1B81958093FD
:103AC000370280913602882309F455C030913702BD
:103AD0003D83332309F44FC0282F880F330B440B49
:103AE000550B29833A834B835C83CA01B9010E9439
:103AF000182523E333E343E35FE369837A838B830E
:103B00009C8369817A818B819C810E947C25698359
:103B10007A838B839C8369817A818B819C810E94CB
:103B2000E024609336028D81082E000C990BAA0BBD
:103B3000BB0B89839A83AB83BC83BC01CD010E94FC
:103B4000182523E333E343E35FE369837A838B83BD
:103B50009C8369817A818B819C810E947C25698309
:103B60007A838B839C8369817A818B819C810E947B
:103B7000E02460933702111624F40E94D81B80932E
:103B800038028091380287FF05C00E94D81B8195BA
:103B9000809338029E81191624F40E94D81B8093CA
:103BA00039028091390287FF05C00E94D81B819598
:103BB0008093390226960FB6F894DEBF0FBECDBFB4
:103BC000DF91CF911F910C94F81C8F3F09F057CFD4
:103BD00068CF85E0E5E3F2E0DF011D928A95E9F721
:103BE0001092340210923302089580915A0208957F
:103BF000CF93DF9300D00F92CDB7DEB7209166024E
:103C0000243019F523E029838A839B832093E900DC
:103C10008FEF9091E800815095FD06C095ED9A9543
:103C2000F1F700008111F5CF8091E80085FF0DC00C
:103C300050E040E063E070E0CE0101960E94552024
:103C40008091E8008E778093E8000F900F900F909E
:103C5000DF91CF910895CF93DF9300D00F92CDB72E
:103C6000DEB79C0180916602843031F582E0898361
:103C7000205831093B832A8383E08093E9008FEF4A
:103C80009091E800815095FD06C095ED9A95F1F769
:103C900000008111F5CF8091E80085FF0DC050E054
:103CA00040E063E070E0CE0101960E9455208091D3
:103CB000E8008E778093E8000F900F900F90DF91CF
:103CC000CF910895209166022430F1F422E02093F0
:103CD000E9002FEF3091E800215035FD06C035EDA9
:103CE0003A95F1F700002111F5CF2091E80025FF6A
:103CF0000BC050E040E065E070E00E9455208091EC
:103D0000E8008E778093E8000895CF93DF93D82F53
:103D1000C92F809166028430F1F4909112019923A9
:103D2000E9F09091600297FF19C08093E9008FEF4E
:103D30009091E800815095FD06C095E19A95F1F7C4
:103D400000008111F5CF8091E80050E040E060E292
:103D500070E085FD1AC0DF91CF91089581E08093D6
:103D6000E9008FEF9091E800815095FD06C095ED38
:103D70009A95F1F700008111F5CF8091E80085FF59
:103D8000EACF50E040E068E070E08D2F9C2F0E9469
:103D900055208091E8008E778093E80080E2ED2F37
:103DA000FC2FAAE3B2E001900D928A95E1F7D3CF00
:103DB00080916502811109C00E94DD210E943F228D
:103DC0008091E20084608093E20008951092650281
:103DD0000895089508950C945F1942E061EC81E024
:103DE0000E94592142E061EC82E00E94592142E0A8
:103DF00061EC83E00E94592142E261EC84E00C9482
:103E0000592180916802893089F148F4823009F49F
:103E100094C0833009F44FC0813041F008958A3056
:103E200009F47BC08B3009F461C00895809167026A
:103E3000813A09F03FC08091E800877F8093E800D5
:103E400080916B0290916C02892B61F460E28AE3AD
:103E500092E070E00E94A4208091E8008B7780932C
:103E6000E800089560E090E080E0F3CF8091670281
:103E7000813201F580916B0290916C02009711F0F4
:103E80000397C1F48091E800877F8093E8008091D8
:103E9000E80082FF0BC08091F10080935A0280916C
:103EA000E8008B778093E8000C948D218091660266
:103EB0008111EDCF089580916702813AD9F7809101
:103EC0006B0290916C02892BA9F78091E800877FA3
:103ED0008093E8008091E80080FFFCCF8091120180
:103EE0008093F1008091E8008E77DCCF80916702AB
:103EF000813201F780916B0290916C02892BD1F68F
:103F00008091E800877F8093E8000E948D21809156
:103F10006902809312010C94B6118091670281327C
:103F200049F68091E800877F8093E8000E948D2108
:103F300080916A0280935B02089580916702813AC2
:103F400009F0B8CF8091E800877F8093E8008091E6
:103F5000E80080FFFCCF80915B02C2CF84B7877FEF
:103F600084BF0FB6F894A895809160008861809313
:103F70006000109260000FBE80E880936100109294
:103F800061000E940A0D0E94DD210E943F22809163
:103F9000E20084608093E20078940E94C5240E942D
:103FA0000C0D88E091E00E94B60C8091660285308D
:103FB00019F00E94120DF9CF0E941C198091640221
:103FC000882399F30E944A19882379F30E943F209D
:103FD000ECCF9C01DA01892F992783309105C1F03C
:103FE00068F48130910509F445C0029761F48DE6CB
:103FF00090E028EC3DE02D933C93089581329105AB
:10400000E1F0829739F190E080E030E020E0F3CFFA
:10401000C9019927213059F08230910559F0E4EC1B
:10402000FDE0892B81F7849190E09F01E4CFECEAD9
:10403000FDE0F9CFE8E9FDE0F6CF643020F7E62FA8
:10404000F0E0EE0FFF1FEC5CFE4F2081318189E034
:1040500090E0D1CF6430B8F670E0FB01EE0FFF1FA7
:10406000E45DFE4F20813181685D7E4FFB018081E0
:1040700090E0C1CF82E190E025E33EE0BCCF84E157
:1040800089BD86E189BD09B400FEFDCF8091D800CD
:104090008F7D8093D8008091E00082608093E00063
:1040A0008091E00081FDFCCF0895AF92BF92CF9246
:1040B000DF92FF920F931F93CF93DF936C01EB017D
:1040C0008A010E94AC21F82E811123C0011511052F
:1040D00039F0F80180819181C81BD90BC80ED91E17
:1040E000B12CA12C2097A9F08091E80085FD22C079
:1040F0008091E8008E778093E80001151105A1F00A
:10410000F80180819181A80EB91EB182A08285E05C
:10411000F82E8F2DDF91CF911F910F91FF90DF909F
:10412000CF90BF90AF9008950E94AC218823D1F228
:10413000F82EEFCFF60181916F018093F100219766
:10414000FFEFAF1ABF0ACECFFC01CB0120916D0269
:1041500030916E022617370790F0009729F42091CE
:10416000E8002E772093E80040E0009751F44111D9
:1041700008C08091E80082FF31C080E00895C90145
:10418000F3CF209166022223A9F12530A9F12091D5
:10419000E80023FD2DC02091E80022FDEACF209108
:1041A000E80020FFE2CF2091F2003091F300009769
:1041B00019F02830310558F041E02830310509F078
:1041C00040E02091E8002E772093E800CECF419187
:1041D0004093F10001972F5F3F4FE9CF8091660236
:1041E000882341F0853041F08091E80083FFC1CF02
:1041F00081E0089582E0089583E00895FC01CB01F9
:1042000020916D0230916E022617370790F00097CB
:1042100029F42091E8002E772093E80040E00097F1
:1042200051F4411108C08091E80082FF32C080E063
:104230000895C901F3CF209166022223B1F1253000
:10424000B1F12091E80023FD2EC02091E80022FD6D
:10425000EACF2091E80020FFE2CF2091F2003091D8
:10426000F300009719F02830310558F041E028306C
:10427000310509F040E02091E8002E772093E80016
:10428000CECF44914093F100319601972F5F3F4F7D
:10429000E8CF80916602882341F0853041F080911B
:1042A000E80083FFC0CF81E0089582E0089583E0B5
:1042B0000895982F973028F08F708093E90081E05F
:1042C00008959093E900242F762F50E0981731F04D
:1042D0007091EC002091ED005091F00021FD02C0A2
:1042E0009F5FE8CF3091EB003E7F3093EB00309141
:1042F000ED003D7F3093ED003091EB003160309365
:10430000EB007093EC002093ED005093F0002091AF
:10431000EE0027FDE5CF80E008958091670287FFDA
:1043200013C08091E80082FF06C08091E8008B777F
:104330008093E80004C0809166028111F2CF089555
:10434000809166028823D9F38091E80080FFF8CF3E
:104350008091E8008E77ECCF2091E4003091E50069
:1043600095E6A9012091EC00822F817020FF06C004
:104370008091E80080FF06C080E008952091E80069
:1043800022FD1AC080916602882389F0853089F069
:104390008091EB0085FD0FC02091E4003091E50095
:1043A00042175307F9F29150E1F684E0089582E054
:1043B000089583E0089581E008950E944E220E94AE
:1043C0005622E0EEF0E0808181608083E8EDF0E04D
:1043D00080818F77808319BCA7EDB0E08C918E7FB0
:1043E0008C9380818F7E80831092650208950F9355
:1043F0001F93CF93DF930E944E220E945622C8ED56
:10440000D0E088818F7788838881806888838881DD
:104410008F7D8883E7EDF0E080818068808319BC20
:10442000109266021092620210926402109263026D
:1044300000EE10E0F80180818B7F808388818160AD
:10444000888342E060E080E00E945921E1EEF0E0E4
:1044500080818E7F8083E2EEF0E0808181608083C6
:10446000808188608083F80180818E7F808388814D
:1044700080618883DF91CF911F910F910895E8EDBE
:10448000F0E080818F7E8083E7EDF0E080818160C5
:10449000808381E0809365020C94F721E8EDF0E0E1
:1044A00080818C7F80831092E20008951092DA0060
:1044B0001092E10008951F920F920FB60F921124EF
:1044C0000BB60F922F933F934F935F936F937F930E
:1044D0008F939F93AF93BF93EF93FF938091E100EE
:1044E00082FF0BC08091E20082FF07C08091E10053
:1044F0008B7F8093E1000E94C4248091DA0080FFCA
:1045000019C08091D80080FF15C08091DA008E7F9D
:104510008093DA008091D90080FF96C084E189BD44
:1045200086E189BD09B400FEFDCF81E0809366027B
:104530000E94D81E8091E10080FF19C08091E200A6
:1045400080FF15C08091E2008E7F8093E200809111
:10455000E20080618093E2008091D80080628093C5
:10456000D80019BC85E0809366020E94EA1E809103
:10457000E10084FF29C08091E20084FF25C084E12E
:1045800089BD86E189BD09B400FEFDCF8091D800C8
:104590008F7D8093D8008091E1008F7E8093E10031
:1045A0008091E2008F7E8093E2008091E200816042
:1045B0008093E20080916202882309F44BC084E07A
:1045C000809366020E94EB1E8091E10083FF29C068
:1045D0008091E20083FF25C08091E100877F809376
:1045E000E10082E080936602109262028091E10015
:1045F0008E7F8093E1008091E2008E7F8093E200C5
:104600008091E20080618093E20042E060E080E01F
:104610000E9459218091F00088608093F0000E94F0
:10462000E91EFF91EF91BF91AF919F918F917F9183
:104630006F915F914F913F912F910F900BBE0F9013
:104640000FBE0F901F90189519BC109266020E9421
:10465000E61E70CF8091E30087FD02C081E0B0CFFD
:1046600083E0AECF1F920F920FB60F9211240BB6BC
:104670000F922F933F934F935F936F937F938F93FB
:104680009F93AF93BF93CF93DF93EF93FF93D0911B
:10469000E900DF708091EC00C82FC17080FDC0E898
:1046A0001092E9008091F000877F8093F000789469
:1046B0000E947A231092E9008091F0008860809334
:1046C000F000CD2BCF70C093E900FF91EF91DF9107
:1046D000CF91BF91AF919F918F917F916F915F919A
:1046E0004F913F912F910F900BBE0F900FBE0F90E7
:1046F0001F9018951F93CF93DF93CDB7DEB7AA977E
:104700000FB6F894DEBF0FBECDBF87E692E0FC0186
:1047100001962091F100208322E08F369207B9F7AD
:104720000E94011F8091E80083FF16C180916702FB
:10473000909168029A3008F00FC1E92FF0E0E4563A
:10474000F94D0C942526803881F0823809F004C197
:1047500080916B028F708093E9008091EB0085FB64
:10476000882780F91092E90006C080916302909139
:104770006402911182609091E800977F9093E80025
:104780008093F1001092F1008091E8008E77E0C0F4
:10479000882309F4CEC0823009F0DEC0809169021E
:1047A0008111D1C080916B028F7009F4D5C08093C4
:1047B000E9002091EB0020FFC6C0933031F48091D6
:1047C000EB0080628093EB00BEC09091EB009061A3
:1047D0009093EB0021E030E001C0220F8A95EAF7C8
:1047E0002093EA001092EA008091EB008860EACF03
:1047F0008111B2C0109169021F778091E300807827
:10480000812B8093E3008091E800877F8093E8000C
:104810000E948D218091E80080FFFCCF8091E30011
:1048200080688093E30082E0111183E08093660248
:1048300093C08058823008F08FC0809169029091B7
:104840006A028C3D23E09207A1F583E08A838AE225
:1048500089834FB7F894DE01139620E03EE051E2E1
:10486000E32FF0E050935700E49120FF03C0E2955E
:10487000EF703F5FEF708E2F90E0EA30C0F0C79688
:104880008D939D932F5F243159F74FBF8091E8009E
:10489000877F8093E8006AE270E0CE0101960E9473
:1048A000A4208091E8008B778093E80055C0C096E3
:1048B000E7CFAE014F5F5F4F60916B020E94E91F2F
:1048C000BC01892B09F448C08091E800877F809360
:1048D000E80089819A810E94FE20E3CF8038E1F5CB
:1048E0008091E800877F8093E80080916202809346
:1048F000F1004ACF811130C090916902923060F589
:104900008091E800877F8093E800909362020E9484
:104910008D2180916202882311F084E005C080918E
:10492000E30087FDFACF81E0809366020E94ED1ECE
:1049300013C080916902813079F481E0933009F0ED
:1049400080E0809364021092E9008091E800877F04
:104950008093E8000E948D218091E80083FF0AC0C7
:104960008091E800877F8093E8008091EB0080626F
:104970008093EB00AA960FB6F894DEBF0FBECDBFB2
:10498000DF91CF911F9108950895CF938091660292
:104990008823A1F0C091E900CF709091EC00892F9D
:1049A000817090FD80E8C82B1092E9008091E800AA
:1049B00083FD0E947A23CF70C093E900CF910895C0
:1049C0000E94E7246894B1110C94762508950E9402
:1049D0005B2588F09F5798F0B92F9927B751B0F011
:1049E000E1F0660F771F881F991F1AF0BA95C9F773
:1049F00014C0B13091F00E947525B1E008950C9477
:104A00007525672F782F8827B85F39F0B93FCCF329
:104A1000869577956795B395D9F73EF490958095EF
:104A2000709561957F4F8F4F9F4F0895E89409C00F
:104A300097FB3EF490958095709561957F4F8F4FD1
:104A40009F4F9923A9F0F92F96E9BB279395F695E7
:104A5000879577956795B795F111F8CFFAF4BB0F65
:104A600011F460FF1BC06F5F7F4F8F4F9F4F16C0C9
:104A7000882311F096E911C0772321F09EE8872F53
:104A8000762F05C0662371F096E8862F70E060E00F
:104A90002AF09A95660F771F881FDAF7880F969588
:104AA000879597F9089557FD9058440F551F59F071
:104AB0005F3F71F04795880F97FB991F61F09F3F0B
:104AC00079F087950895121613061406551FF2CF34
:104AD0004695F1DF08C0161617061806991FF1CF84
:104AE00086957105610508940895E894BB276627AB
:104AF0007727CB0197F908950E948F250C94002603
:104B00000E94F22538F00E94F92520F0952311F03B
:104B10000C94E9250C94EF2511240C9476250E9421
:104B2000532570F3959FC1F3950F50E0551F629F79
:104B3000F001729FBB27F00DB11D639FAA27F00DF6
:104B4000B11DAA1F649F6627B00DA11D661F829F1D
:104B50002227B00DA11D621F739FB00DA11D621F02
:104B6000839FA00D611D221F749F3327A00D611D1F
:104B7000231F849F600D211D822F762F6A2F112401
:104B80009F5750409AF0F1F088234AF0EE0FFF1F34
:104B9000BB1F661F771F881F91505040A9F79E3F8B
:104BA000510580F00C94E9250C9476255F3FE4F3E1
:104BB000983ED4F3869577956795B795F795E795E1
:104BC0009F5FC1F7FE2B880F911D9695879597F9EA
:104BD000089597F99F6780E870E060E008959FEF7F
:104BE00080EC089500240A94161617061806090684
:104BF000089500240A941216130614060506089553
:104C0000092E0394000C11F4882352F0BB0F40F4DA
:104C1000BF2B11F460FF04C06F5F7F4F8F4F9F4F1A
:104C2000089597FB072E16F4009407D077FD09D05E
:104C30000E942E2607FC05D03EF4909581959F4F4B
:104C40000895709561957F4F0895EE0FFF1F002422
:104C5000001C0BBE0790F691E02D0994AA1BBB1B0C
:104C600051E107C0AA1FBB1FA617B70710F0A61B6C
:104C7000B70B881F991F5A95A9F780959095BC018D
:104C8000CD010895F999FECF92BD81BDF89A99277B
:104C900080B50895A8E1B0E042E050E00C946A26A7
:104CA000262FF999FECF92BD81BDF89A019700B4E5
:104CB000021639F01FBA20BD0FB6F894FA9AF99A85
:104CC0000FBE08950196272F0E9451260C9450265E
:104CD000DC01CB01FC01F999FECF06C0F2BDE1BDBC
:104CE000F89A319600B40D9241505040B8F70895AB
:104CF000F894FFCFB808C408C808CC08D008D40876
:104D0000D808DC08E008E408E808EC08F008F40833
:104D1000F808FC0800090409610F610FB90FB90F09
:104D2000FD0F1910910F910F2410910FEC10EC1042
:104D30005711910F910F6011A323C823AC24C823EE
:0C4D4000AC24F8231924AC246E247A243F
:104D4C000C022808140A321EF51D851E621E2B1E2D
:104D5C00F81D019394959697C161626364656667CB
:104D6C00F0F1F2F3F4F5F6F7404D3639030FB60EC9
:0C4D7C00800E470EDA0DF30D0C0E250E14
:00000001FF
