:100000000C94AB010C94C8010C94C8010C94C80169
:100010000C94C8010C94C8010C94C8010C94C8013C
:100020000C94C8010C94C8010C9415060C948B0612
:100030000C94C8010C94C8010C94C8010C94C8011C
:100040000C94C8010C94C8010C94C8010C94C8010C
:100050000C94C8010C94C8010C94C8010C94C801FC
:100060000C94C8010C94C8010C94C8010C94C801EC
:100070000C94C8010C94C8010C94C8010C94C801DC
:100080000C94C8010C94C8010C94C8010C94C801CC
:100090000C94C8010C94C8010C94C8010C94C801BC
:1000A0000C94C8010C94C8010C94C8010001000014
:1000B000E70112000200003701540021000049014D
:1000C0000900220000B9012E00210100620109008F
:1000D000220100A00119002102007B010900220277
:1000E000008B011500030000330104010309041F04
:1000F000011202030904F900242403500052004FA6
:10010000004D004900430052004F0020004B0045C5
:1001100000590042004F004100520044000000120C
:1001200003500052004F004D004900430052004F61
:100130000000000403090409025400030100C03256
:10014000090400000103010100092111010001223D
:100150002E000705810340000A0904010001030085
:10016000000009211101000122190007058203087E
:10017000000A090402000103000000092111010026
:1001800001221500070583032000010631FF0974D1
:10019000A1537508150026FF00952009758102C03E
:1001A000050C0901A10185031501269C0219012AEC
:1001B0009C02751095018100C005010906A1010589
:1001C0000719E029E71500250175019508810295B9
:1001D0000175088103953E7508150026FF00050787
:1001E000190029658100C01201000200000040C012
:1001F000167C0400010102000101C13602C10603A0
:10020000C126000062595A5B5C5D5E5F60615556B5
:10021000576385282F0405060708090A0B0C0D0EE5
:100220000F101112131415161718191A1B1C1D3054
:100230002E352E2D271E1F20212223242526343340
:1002400036373831E3524F2AE200E1E04A0000003D
:1002500000002C292B5150E6460054824B4E0000E2
:10026000000000000000000000000000000000008E
:10027000000000000162595A5B5C5D5E5F60615581
:1002800056576385282F0405060708090A0B0C0D2D
:100290000E0F101112131415161718191A1B1C1D06
:1002A000302E354544433A3B3C3D3E3F404142348D
:1002B0003336373831E3524F2AE200E1E04A00009A
:1002C0000000002C292B5150E6460054824B4E0072
:1002D000000000000000000000000000000000001E
:1002E000000000000000000000000000000000000E
:1002F00000000000000000000000000000000000FE
:1003000000000000000000000000000000000000ED
:1003100000000000000000000000000000000000DD
:1003200000000000000000000000000000000000CD
:1003300000000000000000000000000000000000BD
:1003400000000000000000000000000000000000AD
:1003500000000000000011241FBECFEFDAE0DEBF76
:10036000CDBF11E0A0E0B1E0E4E9F2E202C0059007
:100370000D92A434B107D9F722E0A4E4B1E001C0A2
:100380001D92A73AB207E1F70E94F9100C944011B0
:100390000C940000EDE4F1E08091020190910301E2
:1003A000A091040181939193A19322E0ED30F20793
:1003B000C9F710920D0210924B0110924A01089554
:1003C000EDE4F1E08091020190910301A09104011C
:1003D00081939193A19322E0ED30F207C9F7109237
:1003E0000D0210924B0110924A0181E08093D700D8
:1003F00080EA8093D80082E189BD09B400FEFDCF78
:1004000080E98093D8001092E00010920E028CE0F8
:100410008093E2007894089580910E0208951092DE
:10042000470180910E02882329F18FB780934701FD
:10043000F89481E08093E9009091E4009E5C8091C3
:10044000E80085FD23C021E00EC08091E4009817EC
:1004500089F08FB780934701F8942093E900809149
:10046000E80085FD13C0809147018FBF80910E0287
:100470008111EBCF40914A0150914B01809148018D
:100480009091490148175907D1F4089580910D02C0
:100490008093F1001092F100EDE4F1E0808180930F
:1004A000F100339682E0ED30F807C1F78AE38093DC
:1004B000E800809147018FBF10924C01DBCF109272
:1004C000470180910E02882301F38FB78093470183
:1004D000F89482E08093E9009091E4009E5C809122
:1004E000E80085FD18C022E00EC08091E400981756
:1004F00061F28FB780934701F8942093E9008091CF
:10050000E80085FD08C0809147018FBF80910E02F1
:100510008111EBCF089583E08093F1004093F100C7
:100520005093F1008AE38093E800809147018FBFE8
:1005300080914A0190914B01909349018093480129
:1005400008954423D1F0E0E2E40FE830B8F08111DF
:100550006EC0EEE4F1E080E090E02081251709F420
:1005600078C00196339680349105B9F708950196C5
:1005700033968034910509F05EC00895F0E0EE5B9B
:10058000FE4E90910D020C943A11882309F44BC051
:10059000906490930D020895882309F440C09062FE
:1005A00090930D0208958823B1F1906190930D020C
:1005B0000895882361F1986090930D02089588232F
:1005C00011F1946090930D0208958823C1F0926018
:1005D00090930D020895882371F0916090930D021D
:1005E0000895882321F0906890930D0208959F77D5
:1005F00090930D0208959E7F90930D0208959D7F24
:1006000090930D0208959B7F90930D020895977F1C
:1006100090930D0208959F7E90930D0208959F7D03
:1006200090930D0208959F7B90930D020895EDE441
:10063000F1E080E090E02081211199CFFC01EE0FE4
:10064000FF1FE80FF91FE35BFE4F40835183628376
:1006500008952181261385CFFC01EE0FFF1FE80FBF
:10066000F91FE35BFE4F8091020190910301A0917D
:10067000040180839183A283089570914D0150916C
:100680004E0140914F0130910D0260930D02809315
:100690004D0110924E0110924F011092470180912E
:1006A0000E02882329F18FB780934701F89481E0E7
:1006B0008093E9009091E4009E5C8091E80085FDC4
:1006C00019C021E00EC08091E400981789F08FB71F
:1006D00080934701F8942093E9008091E80085FD1C
:1006E00009C0809147018FBF80910E028111EBCF2D
:1006F00081E0089580910D028093F1001092F10045
:10070000ADE4B1E0FD0180818093F100339622E0F9
:10071000ED30F207C1F78AE38093E800809147014A
:100720008FBF10924C018FEF90E722E081509040F4
:100730002040E1F700C0000010924D0110920D0220
:100740001092470180910E02882329F18FB7809380
:100750004701F89481E08093E9009091E4009E5C69
:100760008091E80085FD21C021E00EC08091E40069
:10077000981789F08FB780934701F8942093E90088
:100780008091E80085FD11C0809147018FBF809165
:100790000E028111EBCF70934D0150934E014093A7
:1007A0004F0130930D0280E0089580910D028093F7
:1007B000F1001092F1008C918093F100139682E089
:1007C000AD30B807C1F78AE38093E8008091470114
:1007D0008FBF10924C01DFCFE82FF0E0EE0FFF1F2C
:1007E000E75EFE4F2081318130934B0120934A0117
:1007F00080914801909149012817390709F041C0BB
:100800002FEF80E792E0215080409040E1F700C058
:10081000000010924B0110924A0180914801909182
:100820004901892B11F480E00895109247018091CD
:100830000E028823C1F38FB780934701F89482E0BA
:100840008093E9009091E4009E5C8091E80085FD32
:100850005BC022E00EC08091E400981721F38FB7AF
:1008600080934701F8942093E9008091E80085FD8A
:100870004BC0809147018FBF80910E028111EBCF59
:10088000D2CF1092470180910E02882329F18FB7B1
:1008900080934701F89482E08093E9009091E4000E
:1008A0009E5C8091E80085FD19C042E00EC08091F9
:1008B000E400981789F08FB780934701F89440932C
:1008C000E9008091E80085FD09C0809147018FBF54
:1008D00080910E028111EBCF81E0089583E0809337
:1008E000F1002093F1003093F1008AE38093E80057
:1008F000809147018FBF80914A0190914B01909365
:100900004901809348017CCF83E08093F1001092ED
:10091000F1001092F1008AE38093E8008091470192
:100920008FBF80914A0190914B0190934901809330
:10093000480180E0089540914A0150914B01809117
:100940004801909149014817590711F480E0089532
:100950001092470180910E02882329F18FB780936E
:100960004701F89482E08093E9009091E4009E5C56
:100970008091E80085FD19C022E00EC08091E4005E
:10098000981789F08FB780934701F8942093E90076
:100990008091E80085FD09C0809147018FBF80915B
:1009A0000E028111EBCF81E0089583E08093F10086
:1009B0004093F1005093F1008AE38093E800809126
:1009C00047018FBF80914A0190914B01909349015B
:1009D0008093480180E008951092470190910E02A3
:1009E000992319F19FB790934701F8948093E900F8
:1009F0002091E4002E5C9091E80095FF0FC017C095
:100A00009091E400921789F09FB790934701F89472
:100A10008093E9009091E80095FD09C0909147010D
:100A20009FBF90910E029111EBCF81E0089580E07D
:100A300008951092470180910E02882329F18FB703
:100A400080934701F89481E08093E9009091E4005D
:100A50009E5C8091E80085FD19C021E00EC0809168
:100A6000E400981789F08FB780934701F89420939A
:100A7000E9008091E80085FD09C0809147018FBFA2
:100A800080910E028111EBCF81E0089580910D02DB
:100A90008093F1001092F100EDE4F1E08081809309
:100AA000F100339682E0ED30F807C1F78AE38093D6
:100AB000E800809147018FBF10924C0180E00895BB
:100AC0001092470190910E02992329F19FB79093BC
:100AD0004701F89492E09093E9002091E4002E5CA5
:100AE0009091E80095FD19C032E00EC09091E400AD
:100AF000291789F09FB790934701F8943093E90044
:100B00009091E80095FD09C0909147019FBF909199
:100B10000E029111EBCF81E008958093F100609374
:100B2000F1007093F1008AE38093E800809147011F
:100B30008FBF80E0089590910E02992309F445C07B
:100B40009FB7F89423E02093E900209145012111FB
:100B50001FC03091E4003C5F2091E80025FD1FC0DC
:100B600043E00CC090910E02992329F19FB7F894AD
:100B70004093E9002091E80025FD11C09FBF9091AE
:100B8000E4009313EFCF81E0809345018DEF08954A
:100B90002091E80025FF1BC010924501DACF809319
:100BA000F1008091E80085FF08C082E08093460153
:100BB0009FBF80E008958CEF08958AE38093E8005A
:100BC000109246019FBF80E008958FEF08959FBF68
:100BD0008EEF08959FB7F89480914601882391F095
:100BE00083E08093E9008091E80085FF06C01092C1
:100BF000F1008091E80085FDFACF8AE38093E80058
:100C0000109246019FBF0895CF93DF93EC01888136
:100C1000882331F021960E949B0589918111FBCF99
:100C20008AE0DF91CF910C949B051F921FB61F9213
:100C300011248F939F93EF93FF938091E100109283
:100C4000E10083FF0FC01092E90091E09093EB0068
:100C50001092EC0092E39093ED0098E09093F000F6
:100C600010920E0282FF4FC080910E02882309F479
:100C70004AC080910001882369F1809144018F5F0F
:100C8000809344018370811125C081E08093E90045
:100C90008091E80085FF1EC080914C018F5F80939A
:100CA0004C0190910001891315C010924C01809164
:100CB0000D028093F1001092F100EDE4F1E08081EB
:100CC0008093F100339682E0ED30F807C1F78AE3B4
:100CD0008093E800809146018823A9F08150809399
:100CE0004601811110C083E08093E9008091E80003
:100CF00085FF06C01092F1008091E80085FDFACFD3
:100D00008AE38093E800FF91EF919F918F911F906C
:100D10001FBE1F9018951F921FB61F9211242F936C
:100D20003F934F935F936F937F938F939F93EF9333
:100D3000FF931092E9008091E80083FF21C0E091C9
:100D4000F1004091F1002091F1008091F100382FE5
:100D50006091F1008091F100782F8091F1009091E5
:100D6000F10052EF5093E8004630D9F0453009F4D5
:100D70004EC14930A9F1483009F01EC1E03821F1D7
:100D800081E28093EB00FF91EF919F918F917F9192
:100D90006F915F914F913F912F911F901FBE1F90B8
:100DA0001895ECEAF0E0459154914217530709F089
:100DB0007EC0EEEAF0E0459154914617570709F0DE
:100DC00076C02CEA30E096C08091E80080FFFCCF2E
:100DD00080910E028093F1008EEF8093E800D3CFD4
:100DE000E111CECF20930E028EEF8093E80081E0D8
:100DF0008093E900E9EFF1E0E491E093EB002AEF62
:100E000031E0EE2361F0EAEFF1E0E491E093EC00F1
:100E1000EBEFF1E0E491E093ED002CEF31E082E0C4
:100E20008093E900C9010196F90144914093EB00D8
:100E3000442361F0FC0184918093EC00C901039686
:100E40002E5F3F4FF90124912093ED0023E0209382
:100E5000E9009C012F5F3F4FFC0144914093EB0060
:100E6000442361F0F90124912093EC009C012D5F53
:100E70003F4F0296FC0184918093ED0084E08093C3
:100E8000E900F90184918093EB00882351F03196B9
:100E9000E491E093EC002E5F3F4FF9012491209301
:100EA000ED008EE18093EA001092EA006CCFE3EB54
:100EB000F0E0459154912417350751F4E5EBF0E04B
:100EC000459154916417750719F423EB30E012C073
:100ED000EAEBF0E0459154914217530709F048C0FE
:100EE000ECEBF0E0459154916417750709F040C0B0
:100EF0002AEB30E0F9013496659174912A5F3F4FF7
:100F0000F90124918F3F910519F010F08FEF90E0D7
:100F1000482F281708F4422F5EEF8091E800982FA1
:100F200095709923D1F382FD2ECF942F413408F090
:100F300090E4442309F495C0FB018FEF890F9B01D6
:100F40002F5F3F4F280F311D84918093F100319620
:100F5000E217F307C9F7690F711D842F891B50939E
:100F6000E800491303C0403409F00DCF482FD5CF16
:100F7000E1ECF0E0459154912417350751F4E3EC8E
:100F8000F0E0459154916417750719F421EC30E0B5
:100F9000B1CFE8ECF0E0459154912417350709F002
:100FA00064C0EAECF0E0459154916417750709F0CC
:100FB0005CC028EC30E09ECF41110FC08091E8006A
:100FC00080FFFCCFE23809F461C04093F100109239
:100FD000F1008EEF8093E800D6CE413019F1433016
:100FE00009F0FDC0E23009F46CC0672B09F0C8CEEF
:100FF000E13A09F0C5CE8091E80080FFFCCF8091F6
:1010000001018093F1008EEF8093E800BCCE8EEF5B
:101010008093E8008091E80080FFFCCF2068209357
:10102000E300B1CEE23009F44CC06115710509F05E
:1010300079C0E13A09F0A4CE8091E80080FFFCCFAE
:1010400080910D028093F1001092F100EDE4F1E047
:101050002DE032E080818093F10033962E173F0718
:10106000C9F78EEF8093E8008ECEEFECF0E045916B
:10107000549124173507A1F4E1EDF0E04591549126
:101080006417750769F42FEC30E034CF6093E90002
:101090004091EB0045FB442740F91092E90095CFC1
:1010A000E6EDF0E0459154912417350751F5E8ED50
:1010B000F0E0459154916417750719F526ED30E07D
:1010C00019CF2115310509F05BCE6F778FEF860FB1
:1010D000843008F055CE8EEF8093E8006093E900ED
:1010E000433009F44DCE89E18093EB0081E090E03C
:1010F00001C0880F6A95EAF78093EA001092EA002F
:1011000042CEEDEDF0E0459154912417350791F56D
:10111000EFEDF0E0459154916417750759F52DED09
:1011200030E0E8CE6230710509F02ACE3EEFE13AB8
:1011300009F026CE9091E800292F25702223D1F3C3
:1011400092FD21CE282F813408F020E4882309F471
:1011500088CF922F1092F10091509111FBCF982FD0
:10116000921B3093E800821303C0803409F00BCE49
:10117000892FE0CFE4EEF0E0459154912417350734
:1011800051F4E6EEF0E0459154916417750719F4B7
:1011900024EE30E0AFCEEBEEF0E045915491241711
:1011A000350751F4EDEEF0E0459154916417750761
:1011B00019F42BEE30E09ECEE2EFF0E04591549131
:1011C0002417350709F0DCCDE4EFF0E025913491E8
:1011D0006217730709F0D4CD22EF30E08BCE672B76
:1011E00009F0CECDE13AB1F0E13209F0C9CD4A3093
:1011F00041F43093000110924C018EEF8093E8008F
:10120000C2CD4B3009F0BCCD209301018EEF80930D
:10121000E800B9CD423009F0B3CD8091E80080FFFD
:10122000FCCF809100018093F1008EEF8093E80065
:10123000AACD66E487E00E943F0F66E486E00E9444
:101240003F0F66E485E00E943F0F66E484E00E9461
:101250003F0F87E291E00E94611040E062E486E087
:101260000E94A80F40E062E482E00E94A80F40E0E4
:1012700062E483E00E94A80F40E062E481E00E9403
:10128000A80F40E064E483E00E94A80F40E064E41B
:1012900082E00E94A80F40E062E480E00E94A80F74
:1012A00040E064E485E00E94A80F40E066E480E04E
:1012B0000E94A80F40E066E481E00E94A80F40E091
:1012C00065E482E00E94A80F40E064E486E00E94AA
:1012D000A80F40E063E487E00E94A80F40E062E4CA
:1012E00087E00E94A80F81E008958FE08093A50217
:1012F0000895CF92DF92EF92FF920F931F93CF93B7
:10130000DF9300D000D0CDB7DEB783FB992790F9EB
:10131000998382FB992790F99A8381FB992790F909
:101320009B8381708C83CE0101967C0107E311E0E1
:101330006E0195E0C90ED11CF70141917F01F801C2
:10134000608181810E94B60E0E5F1F4FEC14FD0478
:1013500099F7FAEBFA95F1F700C00F900F900F9004
:101360000F90DF91CF911F910F91FF90EF90DF9041
:10137000CF900895E3E0F2E0E4918E1761F0E4E7A6
:10138000F2E0E4918E17E1F0E5EEF2E0E4918E17E1
:10139000D1F080E0089520E030E0E62FF0E0EE0F9D
:1013A000FF1FEE0FFF1FEE0FFF1F842F90E001962F
:1013B000E80FF91FE20FF31FED5FFD4F84910895D1
:1013C00021E730E0EACF22EE30E0E7CF309197021C
:1013D000E0911401F091150120910C01321307C026
:1013E000408180910A018417A1F0442391F020915B
:1013F0001101231309C0308180910F01831709F473
:1014000056C0332309F453C0F0931501E09314013F
:10141000089580917F0290918002A0918102281707
:1014200009F49FC08091820290918302A09184026E
:10143000281709F49EC08091850290918602A091A0
:101440008702281709F4B1C080918802909189021F
:10145000A0918A02281709F4B4C080918B02909160
:101460008C02A0918D02281709F4C3C080918E02CE
:1014700090918F02A0919002281709F4C2C0809128
:10148000910290919202A0919302281709F4D1C081
:101490008091940290919502A0919602281709F4E8
:1014A000D0C0442309F4A3CFEFE3F1E0A0CF8091B3
:1014B0007F0290918002A0918102281709F449C00F
:1014C0008091820290918302A0918402281709F4EE
:1014D00058C08091850290918602A09187022817BA
:1014E00009F457C08091880290918902A0918A02E4
:1014F000281709F46EC080918B0290918C02A09104
:101500008D02281709F46DC080918E0290918F0290
:10151000A0919002281709F47CC0809191029091CB
:101520009202A0919302281709F47BC08091940243
:1015300090919502A0919602281709F48AC033234E
:1015400009F462CFEFE3F1E0F0931501E0931401A9
:101550000895809112019813B3CFAA2309F4B0CF54
:101560001FC080910D0198135DCFAA2309F45ACFB3
:1015700023C080910D0198135ECFAA2309F45BCF9D
:101580001BC0809112018913A4CFAA2309F4A1CF13
:1015900007C0809112019813A5CFAA2309F4A2CF06
:1015A000311132CFEFE0F1E02FCF80910D01981390
:1015B0004BCFAA2309F448CF411119CFEAE0F1E05B
:1015C00016CF80910D01981348CFAA2309F445CF77
:1015D000F3CF8091120198138ECFAA2309F48BCFF9
:1015E000DFCF8091120198138FCFAA2309F48CCFFB
:1015F000D7CF80910D01981339CFAA2309F436CFA4
:10160000DBCF80910D0198133ACFAA2309F437CF8D
:10161000D3CF80911201981380CFAA2309F47DCFF4
:10162000BFCF80911201981381CFAA2309F47ECFF6
:10163000B7CF80910D0198132BCFAA2309F428CF9F
:10164000BBCF20910D0129132CCFAA2309F429CF58
:10165000B3CF20911201291372CFAA2309F46FCFBF
:101660009FCFAF92BF92CF92DF92EF92FF920F93F4
:101670001F93CF93DF93E3E0EE2EE2E0FE2E00E037
:1016800010E0F4E7CF2EF2E0DF2EA5EEAA2EA2E0C6
:10169000BA2ECDE0D2E009C080E00E94A1020F5F27
:1016A0001F4F0830110509F44DC0602FC801880F85
:1016B000991FFC01E00FF11FE158FD4F418150815E
:1016C000E0911401F09115012081F7013491231765
:1016D00009F443C0F6013491231709F453C0F5010E
:1016E0003491231709F451C040E0509197022091A2
:1016F000A202222389F2800F911FFC01E158FD4FC5
:101700008281882309F4C8CFEDE4F1E004C0339668
:10171000CE17DF0771F0928181815813F8CF6913DA
:10172000F6CF8081841709F4BACF3396CE17DF073E
:1017300091F781E00E94A1020F5F1F4F0830110551
:1017400009F0B3CFDF91CF911F910F91FF90EF90F0
:10175000DF90CF90BF90AF90089520E030E0E52F6C
:10176000F0E0EE0FFF1FEE0FFF1FEE0FFF1F50E028
:101770004F5F5F4FE40FF51FE20FF31FED5FFD4F6B
:101780004491B3CF21E730E0EACF22EE30E0E7CF5B
:1017900040919702242F30E080918102220F331F65
:1017A000220F331F220F331FF901E15FFD4F8083AA
:1017B000842F90E0A0E080937F0290938002A0931A
:1017C000810240919802411103C041E0409381029F
:1017D00040918402F901E15FFD4F418391E08093E4
:1017E000820290938302A093840240919902411156
:1017F00003C041E04093840240918702F901E15F18
:10180000FD4F428392E08093850290938602A093DD
:10181000870240919A02411103C041E04093870240
:1018200040918A02F901E15FFD4F438393E0809389
:10183000880290938902A0938A0240919B024111F1
:1018400003C041E040938A0240918D02F901E15FBB
:10185000FD4F448394E080938B0290938C02A0937D
:101860008D0240919C02411103C041E040938D02E2
:1018700040919002F901E15FFD4F458395E080932F
:101880008E0290938F02A093900240919D0241118D
:1018900003C041E04093900240919302F901E15F5F
:1018A000FD4F468396E08093910290939202A0931D
:1018B000930240919E02411103C041E04093930284
:1018C00040919602215F3D4FF901478397E0809355
:1018D000940290939502A093960280919F028111A9
:1018E00003C081E0809396020895EFE0F2E0108259
:1018F0001182128213821482158216821782108638
:101900001186128613861486158616861786108A07
:10191000118A128A138A148A158A168A178A108ED7
:10192000118E128E138E148E158E168E178E10A297
:1019300011A212A213A214A215A216A217A210A6F7
:1019400011A612A613A614A615A616A617A610AAC7
:1019500011AA12AA13AA14AA15AA16AA17AA10AE97
:1019600011AE12AE13AE14AE15AE16AE17AE109287
:101970004F02109250021092510210925202109295
:101980005302109254021092550210925602109275
:101990005702109258021092590210925A02109255
:1019A0005B0210925C0210925D0210925E02109235
:1019B0005F02109260021092610210926202109215
:1019C00063021092640210926502109266021092F5
:1019D0006702109268021092690210926A021092D5
:1019E0006B0210926C0210926D0210926E021092B5
:1019F0006F02109270021092710210927202109295
:101A00007302109274021092750210927602109274
:101A10007702109278021092790210927A02109254
:101A20007B0210927C0210927D0210927E02EFE700
:101A3000F2E08091160190911701A0911801808326
:101A40009183A28383839483A58386839783A087CE
:101A500081879287A38784879587A6878787908BBE
:101A6000A18B828B938BA48B858B968BA78B0C94ED
:101A70007D0D60E089E30E943D032FEF8EE595E048
:101A8000215080409040E1F700C00000089580E0C0
:101A90000E94EC032FEF8AE693E0215080409040B3
:101AA000E1F700C00000089584E00E94EC032FEFEE
:101AB0008AE693E0215080409040E1F700C00000AA
:101AC0000895EFE7F2E080819181A2818381948182
:101AD000A58186819781A08581859285A38584854E
:101AE0009585A68587859089A18982899389A4890E
:101AF00085899689A78981E008950895EFE7F2E046
:101B000080819181A28183819481A5818681978141
:101B1000A08581859285A38584859585A685878501
:101B20009089A18982899389A48985899689A789C1
:101B30000895443491F1A0F04534F1F1463409F0B0
:101B400065C021E030E0A90102C0440F551F8A950D
:101B5000E2F7CA0191B36623C9F0892B81BB14C097
:101B60004234C9F1433409F051C021E030E0A90109
:101B700002C0440F551F8A95E2F7CA0198B161115E
:101B800009C08095892388B981E0089580958923CB
:101B900081BBFACF892B88B9F7CF21E030E0A901CA
:101BA00002C0440F551F8A95E2F7CA019BB1662314
:101BB00009F1892B8BB9E8CF21E030E0A90102C0FF
:101BC000440F551F8A95E2F7CA019EB16623D1F0F2
:101BD000892B8EB9D9CF21E030E0A90102C0440F92
:101BE000551F8A95E2F7CA0195B1662339F0892B12
:101BF00085B9CACF809589238BB9C6CF80958923B3
:101C000085B9C2CF809589238EB9BECF80E0089573
:101C1000443491F1A0F04534F1F1463409F065C047
:101C200021E030E0A90102C0440F551F8A95E2F778
:101C3000CA0190B36623C9F0892B80BB14C042341B
:101C4000C9F1433409F051C021E030E0A90102C0DC
:101C5000440F551F8A95E2F7CA0197B1611109C077
:101C60008095892387B981E008958095892380BB79
:101C7000FACF892B87B9F7CF21E030E0A90102C064
:101C8000440F551F8A95E2F7CA019AB1662309F1FC
:101C9000892B8AB9E8CF21E030E0A90102C0440FC6
:101CA000551F8A95E2F7CA019DB16623D1F0892BB1
:101CB0008DB9D9CF21E030E0A90102C0440F551FF2
:101CC0008A95E2F7CA0194B1662339F0892B84B969
:101CD000CACF809589238AB9C6CF8095892384B9D4
:101CE000C2CF809589238DB9BECF80E0089564343A
:101CF000E9F070F0653421F16634B1F59FB121E06F
:101D000030E001C0220F8A95EAF7892F82230895D7
:101D1000623401F1633441F596B121E030E001C055
:101D2000220F8A95EAF7892F8223089599B121E03D
:101D300030E001C0220F8A95EAF7892F82230895A7
:101D40009CB121E030E001C0220F8A95EAF7892F8B
:101D50008223089593B121E030E001C0220F8A95DB
:101D6000EAF7892F8223089580E00895643409F406
:101D70004EC0C0F0653409F45CC0663409F07EC022
:101D800021E030E0B90102C0660F771F8A95E2F7C3
:101D9000CB01442301F121B3262B21BB90B3892B26
:101DA00080BB0895623409F1633409F066C021E014
:101DB00030E0B90102C0660F771F8A95E2F7CB01C8
:101DC00041110FC038B1262F2095232328B997B190
:101DD000892B87B9089531B3262F2095232321BB62
:101DE000DDCF28B1262B28B9F2CF21E030E0B901B0
:101DF00002C0660F771F8A95E2F7CB01442359F1A1
:101E000025B1262B25B994B1892B84B9089521E0F9
:101E100030E0B90102C0660F771F8A95E2F7CB0167
:101E20004423F9F02BB1262B2BB99AB1892B8AB90F
:101E3000089521E030E0B90102C0660F771F8A954E
:101E4000E2F7CB01442399F02EB1262B2EB99DB198
:101E5000892B8DB9089535B1262F2095232325B9D7
:101E6000D2CF3BB1262F209523232BB9DECF3EB115
:101E7000262F209523232EB9EACF089508956434A0
:101E800079F1B8F06534F1F1663409F05FC041B31F
:101E900021E030E0B90102C0660F771F8A95E2F7B2
:101EA000CB01962F9095942391BB90B3892B80BB47
:101EB00008956234C9F1633409F049C048B121E0A2
:101EC00030E0B90102C0660F771F8A95E2F7CB01B7
:101ED000962F9095942398B997B1892B87B9089537
:101EE0004BB121E030E0B90102C0660F771F8A953F
:101EF000E2F7CB01962F909594239BB99AB1892B49
:101F00008AB908954EB121E030E0B90102C0660FF0
:101F1000771F8A95E2F7CB01962F909594239EB96F
:101F20009DB1892B8DB9089545B121E030E0B9010B
:101F300002C0660F771F8A95E2F7CB01962F909526
:101F4000942395B994B1892B84B90895089508957F
:101F5000643409F450C0D0F0653409F460C06634CC
:101F600009F07EC021E030E0B90102C0660F771FA2
:101F70008A95E2F7CB01262F2095442301F191B3F6
:101F8000892B81BB80B3822380BB08956234F9F032
:101F9000633409F064C021E030E0B90102C0660F8B
:101FA000771F8A95E2F7CB01262F209541110BC0B0
:101FB00088B1822388B987B1822387B9089581B314
:101FC000822381BBDFCF98B1892B88B9F4CF21E080
:101FD00030E0B90102C0660F771F8A95E2F7CB01A6
:101FE000262F2095442379F195B1892B85B984B1A9
:101FF000822384B9089521E030E0B90102C0660F60
:10200000771F8A95E2F7CB01262F20954423F9F01C
:102010009BB1892B8BB98AB182238AB9089521E0BB
:1020200030E0B90102C0660F771F8A95E2F7CB0155
:10203000262F2095442379F09EB1892B8EB98DB13E
:1020400082238DB9089585B1822385B9D0CF8BB114
:1020500082238BB9E0CF8EB182238EB9F0CF089561
:102060000895282F30E0C901959587958570220F36
:10207000331F2A70822B082E000C990B9C01220F13
:10208000331F220F331F2C70959587959595879553
:10209000822B089590E09C01359527952575880F32
:1020A000991F8A7A282B30E0C901959587959595D7
:1020B00087958373220F331F220F331F2C7C822BB3
:1020C00008950F931F93CF93DF93EC018C01005F72
:1020D0001F4F688189810E943F0F41E0688189819B
:1020E0000E94A80F2296C017D10799F781E0DF91CF
:1020F000CF911F910F910895E1E6F0E080E8808391
:1021000010820E94190981E00895EF92FF920F93C7
:102110001F93CF93DF93109297028091A50280E0E6
:10212000FF24F394EE24E3941092A2021092A602EC
:102130000E94790907E211E0C0E0D0E01DC0DE0195
:10214000A856BD4F1C92E0919702F0E0EE0FFF1FE2
:10215000EE0FFF1FEE0FFF1FE15FFD4FEC0FFD1FA6
:1021600090818C91981302C0E092A20221960E5F9A
:102170001F4FC830D105A9F0F801608181810E940C
:10218000770E8093A6028091A6028823C1F2FE01F9
:10219000E856FD4FF08221960E5F1F4FC830D105E3
:1021A00059F78091A102811105C08091A20281118D
:1021B000E092A1020E94C80B0E94E6090E94610DF4
:1021C000882331F00E94310BFAEBFA95F1F700C049
:1021D000809197028F5F809397029091A502981744
:1021E00008F0A2CFDF91CF911F910F91FF90EF9058
:1021F00008950E947C108823E1F30E94E0010E9470
:102200000C028823E1F30E947509C1E00CC0109212
:10221000A1020E9485108091A402811120C087E252
:1022200091E00E9461100E94750C9091A002809133
:10223000A102981731F08091A1028093A002C0936F
:10224000A3028091A302882311F30E940F0210922F
:10225000A1020E9485108091A402882301F388E1E5
:1022600098E00FB6F894A895809360000FBE909305
:102270006000FFCFEE0FFF1F0590F491E02D099451
:10228000F894FFCFEB02E502DF02D902D302CC02C1
:04229000C502F10290
:102294007D0100FFFF0000FFFF00010008050000B2
:1022A400000000003F01FFFF00CD00B700B600B5FD
:1022B40000E200E900EA0044014400440443064407
:1022C40007450642044205460446054606460700FD
:0422D40000FFFF0008
:00000001FF
