:100000000C94720B0C94BB0B0C94BB0B0C94BB0BA1
:100010000C94BB0B0C94BB0B0C94BB0B0C94BB0B48
:100020000C94BB0B0C94BB0B0C9419260C94F0266F
:100030000C94231D0C94BB0B0C94BB0B0C94BB0BAE
:100040000C94BB0B0C94BB0B0C94BB0B0C94BB0B18
:100050000C94BB0B0C94841D0C94BB0B0C94BB0B2D
:100060000C94BB0B0C94BB0B0C94BB0B0C94BB0BF8
:100070000C94BB0B0C94BB0B0C94BB0B0C94BB0BE8
:100080000C94BB0B0C94BB0B0C94BB0B0C94BB0BD8
:100090000C94BB0B0C94BB0B000026002400220028
:1000A00020002D00000000001E0000002A000000BB
:1000B00000000000000000002500230021001F00B8
:1000C0002700000000002E000000000000000000DB
:1000D0000000000000000C001C0015001A001300B6
:1000E000000000002B0000003100000000000000B4
:1000F0000000A900180017000800140012000000FA
:10010000000064000000000000000000000000008B
:10011000000000000000000000000000E0000000FF
:100120000000000000000041004200430044AE0017
:100130000E000B0009001600330000000000000054
:1001400000002800000000000000000035020D0043
:100150000A00070004000F00000000003400000047
:10016000000000000000000000002900110019003C
:100170001B000000360000000000380000000000F6
:100180000000000000000000A800100005000600AC
:100190001D0037000000000000000000000000000B
:1001A000000000000000AA00E600000000000000BF
:1001B000E200000000002C000000E300000000004E
:1001C000000000000000000000000000E10000004E
:1001D0000000E1000000E00000000000000000005E
:1001E00000000000420040003E003C0044000000CF
:1001F00000003A00000001000000000000000000C4
:10020000000041003F003D003B00430000000000B3
:100210004500000000000000000000000000000099
:100220006F006D006B006900710000000000490064
:100230000000010000000000000000004E006E0001
:100240006C006A006800700000000000730000008D
:10025000000000000000000000000000000000009E
:10026000000000000000010000000000000000008D
:1002700001000100004500474B00010001000100A2
:1002800001000100000000000000000000700000FC
:100290000000000000004D0001000100010001000D
:1002A000010000000000010000000000000000004C
:1002B000000000004A0001000100010000000100F0
:1002C000000000000100000000000000000000002D
:1002D00000006500010001000100010001000000B4
:1002E000000000000000000000000000000000000E
:1002F00046000100000000000000010000000000B6
:1003000001000000010000000000000000000000EB
:1003100000000000000001000000000001000000DB
:100320000100000000000000000000000000540078
:100330005300220020002D00000000001E000000DD
:100340004D000000000000000000000067002300D6
:1003500021001F005500000000004A0000000000BE
:100360000000000000000000000060002B001500ED
:100370001A005600000000002B00000030020000B0
:10038000000000000000AA005F00520008001400F6
:100390006100000000002F000000000000000000CD
:1003A000000000000000000000000000000000004D
:1003B00039000000000000000000010001000048BA
:1003C000004664005D004F0050000100570000002F
:1003D00000000000000000700000000000000000AD
:1003E00035025C005100010001005E0000000000C9
:1003F00001000000000000000000000000002900D3
:1004000001000100010000005A0000000000580037
:10041000000000000000000000000000A8005900DB
:100420000100010001005B0000000000000000006E
:1004300000000000000000000000AA0063000000AF
:1004400000000000490000000000620000004E00B3
:10045000000000000000000000000000000000009C
:100460004B00000000004B000000010000000000F5
:100470000000000000000000260024000100010030
:10048000010000000000010000002A000000000040
:10049000000000000000250001000100010027000D
:1004A000000000002E00000000000000000000001E
:1004B0000000000052001C000100010013000000B9
:1004C00000000100000031000000000000000000FA
:1004D00001001800170001000100120000000000D8
:1004E00052000000000000000000000000000000BA
:1004F00000000000000000000000010000000000FB
:10050000000000000045004801000100010051000A
:100510000B00090001005000000000000000000076
:1005200001000000000000000000010050000A006F
:10053000010001004F00000000004F00000000001B
:1005400000000000000000000100AE0001000100FA
:100550000000AC000000000051000000000000009E
:100560000000000000000100AD00010001000100DA
:10057000AB000000000000000000000000000000D0
:10058000000000000100E600000000000000010083
:10059000000000002C000000E3000000000000004C
:1005A000000000000000000000000100000000004A
:1005B000E100000001000000000000000000000059
:1005C0000000010001000100010001000000000026
:1005D0000100000001000000000000000000000019
:1005E0000100010001000100010000000000010005
:1005F00000000000000000000000000000000C00EF
:1006000001000100010013000000000001000000D3
:1006100030000000000000000000010001000100A7
:10062000010001001200000000002F000000000087
:1006300000000000000000000000000000000000BA
:100640000000000001000000000000000000004762
:1006500000460100010001000E0001000100010040
:100660003300000000000000000001000000000056
:100670000000000001000D000100010001000F005A
:100680000000000034000000000000000000000036
:100690000000010011000100010000003600000010
:1006A0000000380000000000000000000000000012
:1006B00001001000010001000100370000000000EF
:1006C0000000000000000000000000000000010029
:1006D0000100000000000000010000000000010017
:1006E0000000010000000000000000000000000009
:1006F00000000000010000000000010000000100F7
:1007000000000000000000000000000001000100E7
:1007100001000100010000000000010000000100D4
:1007200000000000000000000000010001000100C6
:1007300001000100000000000100000000000000B6
:1007400000000000000000000100010001000100A5
:100750000100000000000100000001000000000096
:100760000000000001000100010001000100010083
:100770000000000001000000000000000000000078
:100780000000000000000000000000000000010068
:100790000000000000000000010001000100010055
:1007A0000100010001000100010001000000000043
:1007B0000000000001000000000000000000010037
:1007C0000100010001000100010000000000010023
:1007D0000000000000000000000000000100010017
:1007E0000100010000000100000000000100000005
:1007F00000000000000000000000010001000100F6
:1008000001000100010000000000000000000000E5
:1008100000000000000000000100010000000000D6
:1008200000000100000000000100000001000000C5
:1008300000000000000000000000000000000100B7
:1008400000000000010000000100000000000000A6
:100850000000000000000100010001000100010093
:100860000000000001000000010000000000000086
:100870000000000001000100010001000100000073
:100880000000010000000000000000000000000067
:100890000000010001000100010001000000000053
:1008A0000100000001000000000000000000010045
:1008B0000100010001000100010000000000010032
:1008C0000000000000000000000000000000000028
:1008D0000000000000000000010000000000000017
:1008E0000000010001000100010001000100010001
:1008F00001000100010000000000000000000100F4
:1009000000000000000000000100010001000100E3
:1009100001000100000000000100000000000000D4
:1009200000000000000001000100010001000000C3
:1009300001000000000001000000000000000000B5
:1009400000000000010001000100010001000100A1
:100950000000000000000000000000000000000097
:100960000000010001000000000000000100000084
:100970000000010000000100000000000000000075
:100980000000000000000000010000000000010065
:100990000000010000000000000000000000000056
:1009A0000100010001000100010000000000010041
:1009B0000000010000000000000000000000010035
:1009C0000100010001000100000000000100000022
:1009D0000000000000000000000000000100010015
:1009E0000100010001000000000001000000010002
:1009F00000000000000000000100010001000100F3
:100A000001000100000000000100000000000000E3
:100A100000000000000000000000000000000000D6
:100A200000000100000000000000000001000100C3
:100A300001000100010001000100010001000100AE
:100A400000000000000000000100000000000000A5
:100A50000000010001000100010001000100000090
:100A60000000010000000000000000000000000085
:100A70000100010001000100000001000000000071
:100A80000100000000000000000000000000010064
:100A90000100010001000100010000000000000051
:100AA0000000000000000000000000000100010044
:100AB0000000000000000100000000000100000034
:100AC0000100000000000000000000000000000025
:100AD0000000010000000000010000000100000013
:100AE0000000000000000000000001000100010003
:100AF00001000100000000000100000001000000F2
:100B000000000000000000000100010001000100E1
:100B100001000000000001000000000000000000D3
:100B200000000000000001000100010001000100C0
:100B300000000000010000000100000000000000B3
:100B4000000001000100010001000100010000009F
:100B50000000010000000000000000000000000094
:100B60000000000000000000000000000100000084
:100B70000000000000000100010001000100010070
:100B80000100010001000100010000000000000060
:100B90000000010000000000000000000100010052
:100BA0000100010001000100000000000100000040
:100BB0000000000000000000000001000100010032
:100BC0000100000001000000000001000000000022
:100BD0000000000000000000010001000100010011
:100BE0000100010000000000000000000000000003
:100BF00000000000000001000100000000000000F3
:100C000001000000000001000000010000000000E1
:100C100000000000000000000000000001000000D3
:100C200000000100000001000000000000000000C2
:100C300000000000010001000100010001000000AF
:100C400000000100000001000000000000000000A2
:100C5000000001000100010001000100000000008F
:100C60000100000000000000000000000000000083
:100C7000010001000100010001000000000001006E
:100C80000000010000000000000000000100010061
:100C9000010001000100010000000000010000004F
:100CA0000000000000000000000000000000000044
:100CB0000000000000000100000000000000000033
:100CC000010001000100010001000100010001001C
:100CD0000100010000000000000000000100000011
:100CE00000000000000001000100010001000100FF
:100CF00001000000000001000000000000000000F2
:100D000000000000010001000100010000000100DE
:100D100000000000010000000000000000000000D2
:100D200000000100010001000100010001000000BD
:100D300000000000000000000000000000000000B3
:100D400001000100000000000000010000000000A0
:100D50000100000001000000000000000000000091
:100D60000000000000000100000000000100000081
:100D70000100000000000000000000000000010071
:100D8000010001000100010000000000010000005E
:100D90000100000000000000000000000100010050
:100DA000010001000100000000000100000000003F
:100DB0000000000000000000000001000100010030
:100DC000010001000000000001000000010000001F
:100DD000000000000000010001000100010001000E
:100DE0000100000000000100000000000000000001
:100DF00000000000000000000000000000000000F3
:100E000001000000000000000000010001000100DE
:100E100001000100010001000100010001000000CB
:100E200000000000000001000000000000000000C1
:100E300001000100010001000100010000000000AC
:100E400001000000000000000000000000000100A0
:100E5000010001000100000001000000000001008D
:100E60000000000000000000000000000100010080
:100E7000010001000100010000000000000000006E
:100E80000000000000000000000001000100000060
:100E9000000000000100000000000100000001004F
:100EA0000000000000000000000000000000000042
:100EB000010000000000010000000100000000002F
:100EC000000000000000000001000100010001001E
:100ED000010000000000010000000100000000000F
:100EE00000000000000001000100010001000100FD
:100EF00000000000010000000000000000000000F1
:100F000000000000010001000100010001000000DC
:100F100000000100000001000000000000000000CF
:100F200001000100010001000100010000000000BB
:100F300001000000000000000000000000000000B0
:100F400000000000000000000000010000000000A0
:100F5000000000000100010001000100010001008B
:100F6000010001000100010000000000000000007D
:100F7000010000000000000000000100010001006D
:100F8000010001000100000000000100000000005D
:100F9000000000000000000001000100010001004D
:100FA000000001000000000001000000000000003F
:100FB000000000000000010001000100010001002C
:100FC0000100000000000000000000000000000020
:100FD000000000000100010000000000000001000E
:100FE00000000000010000000100000000000000FF
:100FF00000000000000000000000010000000000F0
:1010000001000000010000000000000000000000DE
:1010100000000100010001000100010000000000CB
:1010200001000000010000000000000000000000BE
:1010300001000100010001000100000000000100AA
:10104000000000000000000000000000000001009F
:10105000010001000100010000000000010000008B
:10106000010000000000000000000100010001007C
:10107000010001000100000000000100000000006C
:101080000000000000000000000000000000000060
:10109000000000000100000000000000000001004E
:1010A0000100010001000100010001000100010038
:1010B000010000000000000000000100000000002E
:1010C000000000000100010001000100010001001A
:1010D000000000000100000000000000000000000F
:1010E00000000100010001000100000001000000FB
:1010F00000000100000000000000000000000000EF
:1011000001000100010001000100010000000000D9
:1011100000000000000000000000000000000100CE
:1011200001000000000000000100000000000100BC
:1011300000000100000000000000000000000000AE
:10114000000000000100000000000100000001009C
:10115000000000000000000000000000010001008D
:10116000010001000100000000000100000001007A
:10117000000000000000000000000100010001006C
:10118000010001000000000001000000000000005C
:10119000000000000000000001000100010001004B
:1011A000010000000000010000000100000000003C
:1011B0000000000001000100010001000100010029
:1011C000000000000100000000000000000000001E
:1011D000000000000000000000000000000001000E
:1011E00000000000000000000100010001000100FB
:1011F00001000100010001000100010000000000E9
:1012000000000000010000000000000000000100DC
:1012100001000100010001000100000000000100C8
:1012200000000000000000000000000001000100BC
:1012300001000100000001000000000001000000AA
:10124000000000000000000000000100010001009B
:10125000010001000100000000000000000000008B
:10126000000000000000000001000100000000007C
:10127000000001000000000001000000010000006B
:10128000000000000000000000000000000001005D
:10129000000000000100000001000000000000004C
:1012A0000000000000000100010001000100010039
:1012B000000000000100000001000000000000002C
:1012C0000000000001000100010001000100000019
:1012D000000001000000000000000000000000000D
:1012E00000000100010001000100010000000000F9
:1012F00001000000010000000000000000000100EB
:1013000001000100010001000100000000000100D7
:1013100000000000000000000000000000000000CD
:1013200000000000000000000100000000000000BC
:1013300000000100010001000100010001000100A6
:101340000100010001000000000000000000010099
:101350000000000000000000010001000100010089
:10136000010001000000000001000000000000007A
:101370000000000000000100010001000100000069
:10138000010000000000010000000000000000005B
:101390000000000001000100010001000100010047
:1013A000000000000000000000000000000000003D
:1013B000000001000100000000000000010000002A
:1013C000000001000000010000000000000000001B
:1013D000000000000000000001000000000001000B
:1013E00000000100000000000000000000000000FC
:1013F00001000100010001000100000000000100E7
:1014000000000100000000000000000000000100DA
:1014100001000100010001000000000001000000C7
:1014200000000000000000000000000001000100BA
:1014300001000100010000000000010000000100A7
:101440000000000000000000010001000100010098
:101450000100010000000000010000000000000089
:10146000000000000000000000000000000000007C
:101470000000010000000000000000000100010069
:101480000100010001000100010001000100010054
:10149000000000000000000001000000000000004B
:1014A0000000010001000100010001000100000036
:1014B000000001000000000000000000000000002B
:1014C0000100010001000100000001000000000017
:1014D000010000000000000000000000000001000A
:1014E00001000100010001000100000000000000F7
:1014F00000000000000000000000000001000100EA
:1015000000000000000001000000000001000000D9
:1015100001000000000000000000000000000000CA
:1015200000000100000000000100000001000000B8
:10153000000000000000000012036B00650079004D
:1015400062006F0061007200640000001603710009
:101550006D006B006200750069006C00640065003E
:10156000720000000403090409026D00040100A0D8
:10157000FA09040000010301010009211101000121
:101580002240000705810308000A09040100010345
:10159000010200092111010001224D00070582030B
:1015A00008000A09040200010300000009211101DA
:1015B00000012236000705830308000A090403001E
:1015C0000103000000092111010001223900070573
:1015D00084032000011201100100000008EDFE60EC
:1015E0006001000102000105010906A101050719BA
:1015F000E029E71500250195087501810205081904
:101600000129059505750191029501750391010563
:1016100007190029F71500250195F875018102C009
:1016200005010980A10185021601002603001A8127
:10163000002A8300751095018100C0050C0901A1E5
:10164000018503160100269C021A01002A9C0275DE
:101650001095018100C005010902A1010901A10045
:101660000509190129051500250195057501810256
:101670009501750381010501093009311581257F27
:1016800095027508810609381581257F9501750831
:101690008106050C0A38021581257F9501750881A0
:1016A00006C0C005010906A101050719E029E715D3
:1016B00000250195087501810295017508810105D4
:1016C0000819012905950575019102950175039188
:1016D000010507190029FF150026FF00950675086A
:1016E0008100C00011241FBECFEFD0E2DEBFCDBF0E
:1016F00004B603FE27C08091AF029091B002A09182
:10170000B102B091B2028730904BA740B04BD1F4F8
:101710001092AF021092B0021092B1021092B20277
:1017200014BE84B7877F84BF0FB6F894A8958091C4
:101730006000886180936000109260000FBEE0E05E
:10174000F8EF099511E0A0E0B1E0E8ECF4E500E085
:101750000BBF02C007900D92A234B107D9F722E067
:10176000A2E4B1E001C01D92AF3AB207E1F70E94D6
:101770006C230C94362A0C94000090E080E00895CD
:101780000895089581E00895089581E008950C94E6
:10179000C20B0E9474152FEF84E39CE0215080401F
:1017A0009040E1F700C000000C94A71DEF92FF925B
:1017B0000F931F93CF93DF938C01FC01E080F180A6
:1017C0008091A001811140C082818823C1F1C701AD
:1017D0000E94F91AC82F682FC7010E94A21AB701E8
:1017E0008C2F0E940E0DEC01B8010E94C70B8823BC
:1017F00009F44BC0B801CE010E94170F882309F4E9
:1018000044C0C531F0E7DF0720F5C23080E7D807D4
:1018100008F04DC0C115E0E7DE0791F1C130D047B7
:10182000E1F181E08093440180934501C801DF919B
:10183000CF911F910F91FF90EF900C94C50BC701B2
:101840000E94D01AC82FCBCFC7010E94F91AB70146
:10185000C8CFCC3380E7D80709F49BC0CD33D0473D
:1018600001F7F8018281882309F4BAC0109245017A
:101870000E94531D909343018093420180E296C0E1
:10188000F801828181110E94C90B80E0DF91CF9124
:101890001F910F91FF90EF900895F80182818823A6
:1018A000A1F380916F02816080936F02EECFF80107
:1018B0008281882309F4BACF0E94B41C811102C02E
:1018C0000E949A1C0E94D11C90E09093A1028093E8
:1018D000A002FE01E350F0478091A0028160E23156
:1018E000F10538F4E85CF54D0C94E3298091A002F1
:1018F00082608093A0028091A0020E94D51C0E9469
:101900007415C3CF8091A0028460F3CF8091A002B0
:101910008860EFCF8091A0028061EBCF8091A00220
:101920008062E7CF8091A0028064E3CF8091A00223
:101930008068DFCF8091A0028C60DBCF8091A00215
:101940008E7FD7CF8091A0028D7FD3CF8091A002D0
:101950008B7FCFCF8091A002877FCBCF8091A002D9
:101960008F7EC7CF8091A0028F7DC3CF8091A002D0
:101970008F7BBFCF8091A0028F77BBCF8091A002D9
:10198000837FB7CF9091A002892F97FB87F980586A
:10199000B0CFF8018281882361F0109244010E9447
:1019A000531D909343018093420182E00E94D9121B
:1019B0006CCF8091440181110FC0809142019091C0
:1019C00043010E945F1D883C910530F486E20E942D
:1019D000AE1186E20E948A1282E00E94E01255CF88
:1019E0008091450181110FC0809142019091430186
:1019F0000E945F1D883C910530F487E20E94AE1181
:101A000087E20E948A1280E2E8CF0C94660F0C9461
:101A1000680F0C94C40B0C94090D0895972F70E077
:101A20002FE0929F600D711D1124FB0195EA899FA3
:101A3000E00DF11D1124EE0FFF1FE856FF4F8591B9
:101A400094910895FC01EE0FFF1FE85CFA4E85911A
:101A5000949108950E940E0D0E949B0E9C01811589
:101A600040E4940708F097C0211580E3380708F098
:101A7000FAC0203E310508F074C0203C310508F062
:101A8000E5C0283A310588F4253A310508F0E2C06E
:101A90002130310509F477C0C9010497813A9105D5
:101AA00008F471C030E020E06EC0C901885A910985
:101AB0004597C0F7283A310509F4FEC0293A3105A7
:101AC00009F4FDC02A3A310509F4FCC02B3A31056E
:101AD00009F4FBC02C3A310509F4FAC02B3B31055F
:101AE00009F4F9C02C3B310509F4F8C02D3A310551
:101AF00009F4F7C0203B310509F4F6C02E3A310550
:101B000009F4F5C02F3A310509F4F4C0213B310541
:101B100009F4F3C0223B310509F4F2C0233B31053F
:101B200009F4F1C0243B310509F4F0C0253B31052F
:101B300009F4EFC0263B310509F4EEC0273B31051F
:101B400009F4EDC0283B310509F4ECC0293B31050F
:101B500009F4EBC02A3B310509F4EAC020E034E483
:101B600012C0211590E2390780F42F3F310509F0AA
:101B700050F4283E310538F0C901805F9109306585
:101B8000409708F08FCFC9010895C9019F700E9446
:101B9000220D9C01F8CF8115944508F041C0211514
:101BA00083E5380708F06AC0211592E5390738F552
:101BB000211541E5340708F05CC0211580E53807A0
:101BC00008F454C0C90134E0969587953A95E1F739
:101BD0008370422F46954695437090E2499FA0013D
:101BE0001124582B822F837021E030E002C0220F95
:101BF000331F8A95E2F7242B352B3C68C4CFC901EB
:101C00008370992741E050E002C0440F551F8A9528
:101C1000E2F72695269580E2289F90011124EBCFCC
:101C2000211596E5390748F4922F88272115354567
:101C3000C8F59C01246F306AA6CFC90190563F7049
:101C40008115904108F02ECF30629DCFC901805C94
:101C500091099DCF253A310549F1263A310549F5DB
:101C600022E830E490CF3327306C8DCF3F70306A5C
:101C70008ACF322F2227216F306A85CFC901837026
:101C8000992741E050E002C0440F551F8A95E2F7C2
:101C90002695269580E2289F90011124242B352B30
:101CA0003A6871CF88279F719C01CECF21E830E43C
:101CB0006ACF23E830E467CF22EE34E464CF29EE24
:101CC00034E461CF2AEE34E45ECF25EB34E45BCF1D
:101CD00026EB34E458CF23EB34E455CF24EB34E443
:101CE00052CF27EB34E44FCF2CEC34E44CCF2DEC27
:101CF00034E449CF23E835E446CF2AE835E443CF3E
:101D000022E935E440CF24E935E43DCF21E236E451
:101D10003ACF23E236E437CF24E236E434CF25E26B
:101D200036E431CF26E236E42ECF27E236E42BCF5D
:101D30002AE236E428CF803E910581F1C8F4813350
:101D4000910509F462C048F48932910509F456C03E
:101D50008A32910509F460C0089589339105B9F07C
:101D600082389105A1F08533910509F440C00895AA
:101D7000863E910561F138F4823E9105B1F0833ED3
:101D80009105E1F00895873E910551F10895209164
:101D9000A0022370D9F080EE90E008952091A00277
:101DA00020FF14C089E390E008952091A00222FF53
:101DB0000DC024FD09C083EE90E008952091A0029B
:101DC00022FD31C024FF02C090E080E00895209100
:101DD000A00223FFFBCF24FDF7CF87EE90E008950C
:101DE0002091A00223FFEECF86EE90E0089520918F
:101DF000A00225FFEBCF89E290E008952091A00298
:101E000025FFE4CF85E390E008952091A00226FF0E
:101E1000DDCF8AE290E008952091A00226FFD6CF80
:101E200081E390E0089582EE90E0089508950F9385
:101E30001F93CF938C01FB018281811106C0C1E009
:101E40008C2FCF911F910F910895C0915301C11113
:101E500025C00531104799F70E94160F81E0809345
:101E600053010E94531D909352018093510110928F
:101E70004601109248011092470110924A011092B7
:101E8000490110924C0110924B0110924E01109298
:101E90004D011092500110924F01D2CF809151010B
:101EA000909152010E945F1D883C910540F68091FF
:101EB0004601E82FF0E0EE0FFF1FE95BFE4F1183B4
:101EC00000838F5F80934601C0E0BACF0C94C00BB3
:101ED0000C94C10B85B7806885BF85B7806885BFC6
:101EE000A2E2B1E061E070E08D91E82FE295EF7041
:101EF000F0E041A18F709B0101C0220F8A95EAF7A3
:101F0000922F9095942391A382A1822B82A381E0AA
:101F1000AD32B80749F7A3E1B1E061E070E08D911F
:101F2000E82FE295EF70F0E041A18F709B0101C0B6
:101F3000220F8A95EAF7922F9095942391A382A17C
:101F4000822B82A381E0A232B80749F7EAE6F1E0EA
:101F5000A4E5B1E080E891E0119211921D921D92EA
:101F60008E179F07C9F70C94050D2F923F924F9241
:101F70005F926F927F928F929F92AF92BF92CF9219
:101F8000DF92EF92FF920F931F93CF93DF9304E5BD
:101F900011E082E2C82E81E0D82E1801EE24E394ED
:101FA000F12C66246394D1018D909D901D011E92A9
:101FB0001E92E60189916E01E82FE295EF70F0E044
:101FC00091A18F70970101C0220F8A95EAF7892F9E
:101FD000822B81A382A1722E7094872182A3D0EAE2
:101FE000DA95F1F763E171E090E080E0EB01599060
:101FF000BE01452D42954F7050E0EA0148A0AD90DA
:10200000BC901197552D5F70E70102C0CC0FDD1F0A
:102010005A95E2F7AE01442109F059C0A701082EF4
:1020200002C0440F551F0A94E2F74A295B29119612
:102030005C934E9301968F309105C1F681A1782271
:1020400071A282A1282B22A38D919C9188169906BA
:1020500041F0609280010E94531D90938201809311
:102060008101DAE62D16D1E03D0609F09CCF809182
:1020700080018823B1F080918101909182010E94BA
:102080005F1D069770F0EAE6F1E0D8018D919D9111
:102090008D0181939193B1E00A361B07B1F710923D
:1020A00080010E94070D81E0DF91CF911F910F9178
:1020B000FF90EF90DF90CF90BF90AF909F908F9068
:1020C0007F906F905F904F903F902F90089550E0D9
:1020D00040E0ABCFE82FF0E0EE0FFF1FE659FE4FD8
:1020E000808191810895089590938801809387015C
:1020F0000895E0918701F0918801309721F00190D7
:10210000F081E02D099480E00895E0918701F0913D
:102110008801309721F00280F381E02D0994089521
:10212000E0918701F0918801309721F00480F581DA
:10213000E02D09940895209185013091860128179A
:10214000390771F09093860180938501E0918701B2
:10215000F0918801309721F00680F781E02D0994F5
:10216000089520918301309184012817390771F077
:102170009093840180938301E0918701F09188011D
:10218000309721F00084F185E02D09940895089599
:102190000C94C7100E944A1D0E946A0F0C94141ED2
:1021A0005F926F927F928F929F92AF92BF92CF92E7
:1021B000DF92EF92FF920F931F93CF93DF9300D0A4
:1021C00000D00F92CDB7DEB70E94B50F9AE8A92EC6
:1021D00091E0B92E10E000E088248394912C502ED9
:1021E000802F0E946A107C01F501C190D1905F019F
:1021F000C816D90609F45DC080916F0281FD0E9466
:10220000731090E080E0CE24DF243401082E02C059
:10221000660C771C0A94E2F7960126213721232BBE
:1022200009F442C089835A82E620F72081E0EF2832
:1022300009F480E08B830E94531D8160782F9D8379
:102240008C8349815A816B818D810E948511000F99
:10225000111FF801E657FE4F80819181682679268B
:10226000718260820E94C1200E9479109091890140
:102270008917B1F10E947910809389010F900F9016
:102280000F900F900F90DF91CF911F910F91FF90C2
:10229000EF90DF90CF90BF90AF909F908F907F9006
:1022A0006F905F900C940B0D01968F30910509F0A3
:1022B000ACCF0F5F1F4F0B30110509F090CF8FEFA0
:1022C00089838A831B820E94531D8160782F9D839E
:1022D0008C8349815A816B818D810E948511C2CF87
:1022E0000F900F900F900F900F90DF91CF911F9153
:1022F0000F91FF90EF90DF90CF90BF90AF909F90A5
:102300008F907F906F905F900895CF93DF93CDB7BC
:10231000DEB72B970FB6F894DEBF0FBECDBF4F834D
:10232000588769877A878B871E8285E0FE013796FA
:10233000DE01119601900D928A95E1F749815A814B
:102340006B817C818D819E812B960FB6F894DEBFC8
:102350000FBECDBFDF91CF910C94FC17882309F4F9
:10236000D8C0823871F40E94791081FDD2C089E30F
:102370000E94A11B0E946B1C89E30E94DE1B0C942F
:102380006B1C833859F40E94791080FDC2C083E52C
:102390000E94A11B0E946B1C83E5EFCF843859F487
:1023A0000E94791082FDB5C087E40E94A11B0E94A3
:1023B0006B1C87E4E2CF9CEF980F913A18F40E94CF
:1023C000A11BDDCF90E2980F983050F4877091E018
:1023D00001C0990F8A95EAF7892F0E94221CCFCF5E
:1023E0009BE5980F933070F4853A31F0863A39F0D6
:1023F00083E890E00C949B1081E890E0FBCF82E8AA
:1024000090E0F8CF98E5980F953108F082C0883AAF
:1024100009F440C0893A09F440C08A3A09F440C03E
:102420008B3A09F440C08C3A09F440C08B3B09F464
:1024300040C08C3B09F440C08D3A09F440C0803B59
:1024400009F440C08E3A09F440C08F3A09F440C004
:10245000813B09F440C0823B09F440C0833B09F44E
:1024600040C0843B09F440C0853B09F440C0863B32
:1024700009F440C0873B09F440C0883B09F440C0E0
:10248000893B09F440C08A3B09F440C090E080E0F9
:102490000C94B11082EE90E0FBCF89EE90E0F8CF83
:1024A0008AEE90E0F5CF85EB90E0F2CF86EB90E0FE
:1024B000EFCF83EB90E0ECCF84EB90E0E9CF87EBBC
:1024C00090E0E6CF8CEC90E0E3CF8DEC90E0E0CFB5
:1024D00083E891E0DDCF8AE891E0DACF82E991E00C
:1024E000D7CF84E991E0D4CF81E292E0D1CF83E2EB
:1024F00092E0CECF84E292E0CBCF85E292E0C8CFEB
:1025000086E292E0C5CF87E292E0C2CF8AE292E013
:10251000BFCF0895882309F44BC0823871F40E941C
:10252000791081FF45C089E30E94A11B0E946B1CAA
:1025300089E30E94DE1B0C946B1C833859F40E94C3
:10254000791080FF35C083E50E94A11B0E946B1C9F
:1025500083E5EFCF843859F40E94791082FF28C0B8
:1025600087E40E94A11B0E946B1C87E4E2CF9CEFD2
:10257000980F913AF0F290E2980F983050F48770EB
:1025800091E001C0990F8A95EAF7892F0E94281CD3
:10259000D2CF9BE5980F933020F490E080E00C942C
:1025A0009B10885A853120F490E080E00C94B110A3
:1025B0000895882321F00E94221C0C946B1C08951E
:1025C000882321F00E94281C0C946B1C08958F9284
:1025D0009F92AF92BF92DF92EF92FF920F931F9361
:1025E000CF93DF9300D000D00F92CDB7DEB77C0140
:1025F0006D837983FC01058102950F7012811111A1
:102600000E94411C0E949A1BD82E882371F011232E
:10261000A1F08D81805E883080F082E00E94841B72
:102620000E949A1B91E0D82ED926E981E295EF709D
:10263000F0E0E65BF54D0C94E329D12CF6CF09814F
:102640000F70F981F07F11F00295007F1123B1F036
:10265000002361F08D81805E883018F02D8121117A
:1026600009C0802F0E94221C0E946B1C8D810E9439
:10267000AE1115C0802F0E94331CF6CF8D810E94B1
:102680008A12002361F08D81805E883018F03D81D0
:10269000311129C0802F0E94281C0E946B1CDD2054
:1026A00009F4D3C10E94771B80FDCFC1F7011282CC
:1026B0000E94711B0E94BA19C7010E9436150E9420
:1026C000711B0F900F900F900F900F90DF91CF9193
:1026D0001F910F91FF90EF90DF90BF90AF909F9070
:1026E0008F900C94DC19802F0E94391CD6CF498121
:1026F0004F70B42E5981507F503219F0B29480EF50
:10270000B8228D81882369F0813029F1112369F184
:10271000002359F0F701858180FFA8CF8F70858352
:1027200004C0112361F0011104C08B2D0E94D91245
:10273000B6CF8B2D0130D1F70E94551CB0CF0111BF
:1027400006C00E94581C8B2D0E94E012A8CF0130B9
:1027500009F4A5CFF6CF112321F0063008F09FCF62
:10276000E4CF053008F09BCFEECF002361F38D81DD
:102770000E948A1294CF898186958695837069F02C
:10278000813009F08CCF8D8199819370111102C035
:1027900090E080E00E94B11082CF8D81998193708A
:1027A000111102C090E080E00E949B1078CF8D81D3
:1027B000112329F00E94CF1F0E94B62070CF0E94E3
:1027C0003720FACF8981837009F05FC0111167CF7C
:1027D0002D81229526952770220F220F8D818F70D3
:1027E00090E0B0E0A0E04C015D01022E04C0880C36
:1027F000991CAA1CBB1C0A94D2F7FD8160E070E012
:10280000CB01F4FF0FC06FE070E080E090E004C007
:10281000660F771F881F991F2A95D2F760957095CC
:102820008095909529812695269523702D832230B9
:10283000B1F0233019F19B01AC01282939294A292B
:102840005B2929833A834B835C833D8169817A814B
:102850008B819C813130B1F00E94471920CF9B01C0
:10286000AC01282939294A295B2929833A834B83DA
:102870005C83CA01B9010E94711911CF0E944719E6
:10288000C501B4010E941D190ACF8695112311F0CC
:1028900089818170882309F402CF2D8122952695A4
:1028A0002770220F220F8D818F7090E0B0E0A0E0A2
:1028B0004C015D01022E04C0880C991CAA1CBB1C93
:1028C0000A94D2F73D8160E070E0CB0134FF0FC085
:1028D0006FE070E080E090E004C0660F771F881F13
:1028E000991F2A95D2F760957095809590954981AA
:1028F0004695469543704D834230B1F0433019F10F
:102900009B01AC01282939294A295B2929833A836B
:102910004B835C833D8169817A818B819C813130DD
:10292000B1F00E944D1ABBCE9B01AC012829392978
:102930004A295B2929833A834B835C83CA01B90105
:102940000E94771AACCE0E944D1AC501B4010E94B4
:10295000231AA5CE3D81323F09F447C080F4303FB1
:1029600079F1313FD9F1832F805E8031D0F011238E
:1029700009F456C001117ACE89818F7133C04D811F
:10298000433FD1F1443F99F7112309F43FC08981B6
:102990008F7189830E94BA1963E089810E947B1B31
:1029A0007ECE5D815F705D8389818F71112321F0FF
:1029B0000E94BA198D81BACE0E94DC198D81C4CED5
:1029C000112341F0053008F06ACE89818F710E9491
:1029D000011A65CE063008F062CEF7CF89818F717B
:1029E000112339F00E94BA195ACE89818F711123AF
:1029F000C9F30E94DC1953CE112329F089818F710C
:102A00000E94A5194CCE0E949B1949CE81E00E94DC
:102A1000841B023008F443CE82E00E94841B3FCE28
:102A20000111A5CE89818F71E4CF49814F706D81ED
:102A3000C7010E94BD0B0E94961831CE49814F708C
:102A40006D81C7010E940D0D2ACE0F900F900F903F
:102A50000F900F90DF91CF911F910F91FF90EF900A
:102A6000DF90BF90AF909F908F9008950F931F932A
:102A7000CF93DF93EC018B819C81892B29F0888196
:102A8000998189238F3F29F4DF91CF911F910F9175
:102A90000895CE010E94D60B8823B1F36881798115
:102AA0008A810E94471B8C010E94A11A0E94121960
:102AB000B801CE01DF91CF911F910F910C94E712D5
:102AC0000E94411C0E94521C0E94141C0E946B1CFC
:102AD0000E94A7210E94B62090E080E00E949B10F7
:102AE00090E080E00C94B1100E94301C0C946015B2
:102AF0000E943B1B282F892F82958F70903C80F479
:102B00008A30B0F4843020F4823090F480E008956C
:102B10008630E1F781E0203E88F0213FB9F70EC012
:102B20008C3011F08F3091F793FB882780F908954E
:102B300081E0203F39F018F4203E40F70895243F0B
:102B400029F7FCCF0895CF93DF9300D000D00F92E8
:102B5000CDB7DEB70F900F900F900F900F90DF91D1
:102B6000CF910895CF93DF9300D000D000D0CDB7A0
:102B7000DEB726960FB6F894DEBF0FBECDBFDF914D
:102B8000CF9108951F93CF93DF93E091A10116E0B9
:102B90008091A2018E1304C0DF91CF911F910895FF
:102BA000CE2FD0E01E9FF0011124ED55FE4F408145
:102BB000518162817381848195810E94B215FE01E9
:102BC0003196E770E5CF4091D3015091D4016091E7
:102BD000D5017091D6018091D7019091D8010C94C4
:102BE000B2151F93CF93DF938091D801807FC1F4FA
:102BF0008091D5018823A1F08091A101C091A2010B
:102C00006091D3017091D4014091D6015091D701C8
:102C1000D62FD723DA01A095B09516E0C81304C0CB
:102C2000DF91CF911F91089590E04115510511F06A
:102C3000DF3F31F401968770F1CF2A0F3B1F17C099
:102C4000189FF001199FF00D1124ED55FE4F2181C1
:102C50002713F0CF20812613EDCF22812111EACF57
:102C6000238134812417350740F3241B350B283C7E
:102C7000310500F72091D8012F7020612093D801F1
:102C800026E0289FF001299FF00D1124E855FE4F02
:102C900080818F708061808383ED91E00E94361582
:102CA000DF91CF911F910C94C2159F92AF92BF926A
:102CB000CF92DF92EF92FF920F931F93CF93DF9308
:102CC000CDB7DEB72B970FB6F894DEBF0FBECDBFE2
:102CD0008C0185E0F801DE01179601900D928A952E
:102CE000E1F7D8014C9111965C9111971296EC90F6
:102CF00012978091D6019091D701009709F46BC18A
:102D00002091D3013091D401632F62236F3F09F4E6
:102D100062C11396CD90DC909090D501992009F472
:102D2000F8C0C816D90608F43FC0F601E81BF90B35
:102D3000CF01FF24F394883C910508F0F12C83ED3A
:102D4000A82E81E0B82E8091D801982F907FFF2087
:102D500009F4B7C0911180C0FE2C35132AC024138A
:102D600028C0E11026C08F7080618093D8010E9436
:102D7000E315C5010E9436158091D801D80115963A
:102D80008C938F2D2B960FB6F894DEBF0FBECDBF60
:102D9000DF91CF911F910F91FF90EF90DF90CF9037
:102DA000BF90AF909F900895809590958C0D9D1D3C
:102DB000C0CFCD2829F0842F85238F3F09F019C17A
:102DC00080E0B82FB170DB2EE091A1012091A2012B
:102DD00036E080FD1CC0EE20A1F28091D801816018
:102DE0008093D801F12CCDCF8E2F90E03E9FF00143
:102DF0001124ED55FE4F6181651306C06081641397
:102E000003C062816E11E7CFFC013196E770E213D7
:102E1000EBCF4F8358878F8198850E943B1B292FCA
:102E200022952F70903260F0225F2F70223078F45C
:102E30009F7051F0F8019581907F31F4D12C0AC038
:102E40009F7011F08823D1F3805E8830B8F3C801F9
:102E50000E943615FD2C95CF351306C0241304C0EF
:102E6000D801EE2009F47BC04F8358878F81988565
:102E70000E947815882309F4B8C0EE2009F4B5C083
:102E80008091D801803270F02091D3013091D4012B
:102E90003A8329831B82DD82CC828E83CE01019608
:102EA0000E94361586E0F801A3EDB1E001900D9285
:102EB0008A95E1F70E94F1150E94E315FF24F3942F
:102EC00060CF911113C07C2DDB86CA866E2D8B8559
:102ED0000E94A31583ED91E00E94361586E0F5016E
:102EE00011928A95E9F70E94E3154BCF3513BCCFB9
:102EF0002413BACFE110B8CFD80115968C93C8012E
:102F00000E94361586E0F50111928A95E9F7F92CB1
:102F100038CFC816D90688F1B601681B790BCB01EA
:102F2000F12C883C910508F047C0FE2CEE2009F4F6
:102F30005CC0351330C024132EC08091D80180FDB1
:102F400021C0982F907FF1F0D80115968C9315979A
:102F5000903F39F0982F907F905F8F70892B159656
:102F60008C93C8010E94361586E0F801A3EDB1E00C
:102F700001900D928A95E1F7B6CF809590958C0DD2
:102F80009D1DCECF86E0F801A3EDB1E001900D923A
:102F90008A95E1F7F6CE4F8358878F8198850E94F6
:102FA000781581117FCF8091D80181608093D801FD
:102FB000C8010E943615E5CE7C2DDB86CA866E2DB3
:102FC0008B850E94A31586E0E3EDF1E0DF011D9201
:102FD0008A95E9F788CFEE2041F04F8358878F819B
:102FE00098850E94781581115DCFC8010E94361521
:102FF00065CF81E08E25E5CE1F93CF93DF93CDB7CC
:10300000DEB72C970FB6F894DEBF0FBECDBF4F834F
:10301000588769877A878B879C87CE0107960E949D
:103020005516882369F08A859B85892B39F04F8155
:103030005885842F85238F3F09F071C016E05FC04B
:1030400086E0FE013796DE01119601900D928A9579
:10305000E1F78A859B85892B89F388859F81892360
:103060008F3F61F32091A20130E0C9010196877082
:1030700099274091A1014817190671F40E9474150F
:103080001092A2011092A10186E0E3EDF1E0DF01D0
:103090001D928A95E9F7D2CF96E0929FD001939F37
:1030A000B00D1124AD55BE4FFE01319601900D9229
:1030B0009A95E1F78093A2010E94C215BFCF819F2C
:1030C000C00111248D559E4F0E9455168823E9F0AA
:1030D000E091A1011E9FF0011124ED55FE4F4081AA
:1030E000518162817381848195810E94B2158091A2
:1030F000A10190E00196877099278093A1018091AA
:10310000A1019091A2018913DACF2C960FB6F89401
:10311000DEBF0FBECDBFDF91CF911F9108956985AE
:103120007A858B859C850E94B21588CFEF92FF929D
:103130000F931F93CF93DF938C01892B89F0F12C90
:10314000EE24E394E8012196F8018491843709F490
:1031500057C0A0F4823009F43EC048F48130D1F069
:10316000DF91CF911F910F91FF90EF9008959CEF09
:10317000980F9037A8F70E94AE110AC0853709F45E
:103180004CC09CE7980F903758F78F770E948A12AF
:103190008E0116C00E5F1F4FFE01849190E2980FC2
:1031A000983060F48770FE2D01C0FF0F8A95EAF712
:1031B0008F2F0E94441C0E946B1C02C00E94AE1103
:1031C0008F2D815008F4BECFEFE9FFE03197F1F782
:1031D00000C00000F6CF0E5F1F4FFE01849190E209
:1031E000980F983050F48770FE2D01C0FF0F8A951C
:1031F000EAF78F2F0E944A1CDECF0E948A12E0CF8E
:103200000E5F1F4FFE01C491C150D0F28FE99FE0C5
:103210000197F1F700C00000F7CF0E5F1F4FFE01CE
:10322000F490CECF08956093460270934702809346
:103230004802909349020C946015CF93DF9300D01D
:1032400000D0CDB7DEB769837A838B839C8380916E
:10325000460290914702A0914802B091490229810B
:103260003A814B815C81822B932BA42BB52B8093CD
:10327000460290934702A0934802B09349020F90F0
:103280000F900F900F90DF91CF910C946015CF931A
:10329000DF9300D000D0CDB7DEB769837A838B830C
:1032A0009C838091460290914702A0914802B09180
:1032B000490229813A814B815C8182239323A42393
:1032C000B5238093460290934702A0934802B0939F
:1032D00049020F900F900F900F90DF91CF910C94B7
:1032E0006015CF93DF9300D000D0CDB7DEB76983F0
:1032F0007A838B839C838091460290914702A091B0
:103300004802B091490229813A814B815C81822730
:103310009327A427B5278093460290934702A09352
:103320004802B09349020F900F900F900F90DF91D9
:10333000CF910C94601510924202109243021092A9
:103340004402109245020C94601541E050E060E0A8
:1033500070E004C0440F551F661F771F8A95D2F78F
:10336000409342025093430260934402709345029B
:103370000C946015282F81E090E0A0E0B0E004C03C
:10338000880F991FAA1FBB1F2A95D2F740914202AE
:10339000509143026091440270914502842B952B19
:1033A000A62BB72B8093420290934302A093440232
:1033B000B09345020C94601541E050E060E070E08D
:1033C00004C0440F551F661F771F8A95D2F740959A
:1033D0005095609570958091420290914302A09122
:1033E0004402B091450284239523A623B7238093FA
:1033F000420290934302A0934402B09345020C947E
:103400006015282F81E090E0A0E0B0E004C0880FB4
:10341000991FAA1FBB1F2A95D2F7409142025091D3
:103420004302609144027091450284279527A627A4
:10343000B7278093420290934302A0934402B09333
:1034400045020C946015CF93DF9300D000D0CDB728
:10345000DEB769837A838B839C838091420290914B
:103460004302A0914402B091450229813A814B81E7
:103470005C81822B932BA42BB52B809342029093DB
:103480004302A0934402B09345020F900F900F9017
:103490000F90DF91CF910C946015CF93DF9300D004
:1034A00000D0CDB7DEB769837A838B839C8380910C
:1034B000420290914302A0914402B09145022981B9
:1034C0003A814B815C8182239323A423B52380938B
:1034D000420290934302A0934402B09345020F909E
:1034E0000F900F900F90DF91CF910C946015CF93B8
:1034F000DF9300D000D0CDB7DEB769837A838B83AA
:103500009C838091420290914302A0914402B09129
:10351000450229813A814B815C8182279327A42728
:10352000B5278093420290934302A0934402B09344
:1035300045020F900F900F900F90DF91CF910C9458
:1035400060150895E82F2FE0929FE00D11248E2F33
:10355000877041E001C0440F8A95EAF7E695E69549
:10356000E69585E0E89FF0011124E752FE4F30E038
:1035700020E070E05191DF011197CB01022E02C0D3
:10358000969587950A94E2F7817081958527842323
:1035900085278C932F5F3F4F2530310559F70895CC
:1035A000E82F2FE0929FE00D11249E2F9770E69553
:1035B000E695E69585E0E89FF0011124E752FE4F7D
:1035C00050E040E080E0219130E0092E02C03695C5
:1035D00027950A94E2F721703327042E01C0220FA9
:1035E0000A94EAF7822B4F5F5F4F4530510559F738
:1035F0000895BF92CF92DF92EF92FF920F931F93A5
:10360000CF93DF938C01C0904202D0904302E090B0
:103610004402F09045028091460290914702A091A9
:103620004802B0914902C82AD92AEA2AFB2ACFE1E6
:10363000D0E0BC2ED701C6010C2E04C0B695A795CC
:10364000979587950A94D2F780FD0EC0219788F749
:10365000B12C8B2DDF91CF911F910F91FF90EF90A7
:10366000DF90CF90BF900895B8018C2F0E942A0D53
:10367000019761F3EECFCF93DF93D82FC92F0E942C
:10368000F91A6D2F7C2FDF91CF910C942A0D1F9387
:10369000CF93DF93162FD72F9091A001992339F064
:1036A000862F972FDF91CF911F910C943B1B88237E
:1036B00091F0862F972F0E94F91AC82F682F812F1B
:1036C0009D2F0E94A21A612F7D2F8C2FDF91CF9109
:1036D0001F910C942A0D862F972F0E94D01AC82F65
:1036E000F2CF80914A0285958595859508958091C0
:1036F0004A028770089598E0899F90011124622BF7
:1037000060934A020C94BA1990914A0280958923D9
:1037100080934A02282F277061F4282F082E000C6E
:10372000330B9217130629F08595859585950C9492
:10373000DC19089590914A02977081E009F480E0C5
:103740000895909112019923E1F09091A00297FFC2
:1037500018C0E82FE695E695E695EF3139F120910E
:10376000000130910101E20FF32FF11D877021E07C
:1037700030E001C0220F8A95EAF78181822B818394
:1037800008952091000130910101F90132969FEFD7
:1037900040E05191851751F09F3F19F4511101C03C
:1037A000942F4F5F4E31A9F79F3F09F40895290FD9
:1037B000311D97FD3A95F901828308959091120188
:1037C000992301F19091A00297FF1CC0E82FE69584
:1037D000E695E695EF3139F1209100013091010134
:1037E000E20FF32FF11D877021E030E0A90102C044
:1037F000440F551F8A95E2F7CA018095918189236C
:10380000818308952091000130910101F9013296E0
:10381000205E3F4F9191891303C0DF0111971C92E5
:10382000E217F307B9F7089581E090E0E091000115
:10383000F0910101E80FF91F108201968032910585
:10384000A9F7089590916E02982B90936E020895B7
:10385000982F909580916E02892380936E0208952F
:1038600010926E02089590916D02982B90936D02C4
:103870000895982F909580916D02892380936D0211
:10388000089510926D02089590916C02982B909378
:103890006C020895982F909580916C0289238093F3
:1038A0006C02089510926C02089580934B02089563
:1038B00010924B0208952091000130910101F9010D
:1038C0003196205E3F4F80E0919191118F5FE2171A
:1038D000F307D1F70895E0910001F0910101809183
:1038E0006E028083E0910001F0910101808190914E
:1038F0006D02892B8083E0910001F09101018081AC
:1039000090916C02892B808390914B02992361F0F6
:10391000E0910001F09101018081892B80830E9458
:103920005B1C811110924B0280910001909101016A
:103930000C9485106DEE7EEF90E080E00E94202ACE
:1039400060E082E090E00E940E2A60E083E090E078
:103950000E940E2A60E084E090E00E940E2A60E05F
:1039600085E090E00C940E2A90E080E00E94082A06
:103970009C0181E02D3E3E4F09F080E0089582E0F9
:1039800090E00C94002A682F82E090E00C940E2ABC
:1039900083E090E00C94002A682F83E090E00C9480
:1039A0000E2A84E090E00C94002A682F84E090E0D6
:1039B0000C940E2A8091A602843039F11092700284
:1039C00088E190E020E40FB6F894A8958093600019
:1039D0000FBE2093600080E00E940B0D83B7817FB3
:1039E000846083BF83B7816083BF7894889583B7F1
:1039F0008E7F83BF0FB6F894A89580916000886190
:103A000080936000109260000FBE0895089508959D
:103A1000CF930E94061D0E94B50F0E94071DC0E0B3
:103A20008C2F0E946A10892B31F4CF5FCB30C1F705
:103A300080E0CF91089581E0FCCF0E9474150E9430
:103A400079100C940B0D1F921FB61F9211248F93A7
:103A50009F93AF93BF9380917002811113C08091A7
:103A60009C0290919D02A0919E02B0919F0241966E
:103A7000A11DB11D80939C0290939D02A0939E0274
:103A8000B0939F02BF91AF919F918F911F901FBEE6
:103A90001F90189582E084BD93E095BD9AEF97BD85
:103AA00080936E0008952FB7F89480919C029091B6
:103AB0009D02A0919E02B0919F022FBF0895CF92C8
:103AC000DF92EF92FF929C014FB7F89480919C0295
:103AD00090919D02A0919E02B0919F024FBF6C01F8
:103AE0007D01EE24FF24A90170E060E0C416D50634
:103AF000E606F70638F0821B930BFF90EF90DF90FD
:103B0000CF9008950197F7CF1F921FB61F921124EF
:103B10008F939F93AF93BF9380919C0290919D024E
:103B2000A0919E02B0919F020196A11DB11D8093AC
:103B30009C0290939D02A0939E02B0939F02BF911E
:103B4000AF919F918F911F901FBE1F9018950E945B
:103B50009B25F8942FEF87EA91E621508040904012
:103B6000E1F700C0000087E090EBDC018093AF023A
:103B70009093B002A093B102B093B20288E19CE0AE
:103B80000FB6F894A895809360000FBE90936000E4
:103B9000FFCFAF92BF92CF92DF92EF92FF920F933F
:103BA0001F93CF93C0E0AA24A394B12CE82EF12C4C
:103BB0008C2F0E946A106C0110E000E0C501002EFD
:103BC00002C0880F991F0A94E2F78C219D21892B4E
:103BD00099F0602F7C2F80E00E940E0DE816F90608
:103BE00059F481E0CF911F910F91FF90EF90DF90FA
:103BF000CF90BF90AF9008950F5F1F4F0F3011050A
:103C0000E9F6CF5FCB30A1F680E0ECCFCF93C82FA1
:103C10008CE20E94C91D882321F08C2FCF910C9437
:103C2000C91D80E0CF910895CF93DF9300D000D0DD
:103C3000CDB7DEB70E94B41C811102C00E949A1C4D
:103C400095E6998308C00E94B50F8FE39CE9019720
:103C5000F1F700C00000A981A150A983A111F3CF01
:103C600089E20E94061E811110C18AE20E94061E8E
:103C700081110E949A1C85E00E94061E81110E94FB
:103C8000A71D0E94BF1C80936F0287E00E94061E42
:103C9000882371F08BE10E94061E882309F4D1C0AD
:103CA00090916F02892F8D7F91FF826080936F02C8
:103CB00080916F020E94C31C0E94D11C90E09093DF
:103CC000A1028093A00280EE0E94061E882341F08C
:103CD0009091A002892F8E7F90FF81608093A00237
:103CE00089E30E94061E882341F09091A002892F4B
:103CF0008D7F91FF82608093A00282EE0E94061E5B
:103D0000882341F09091A002892F8B7F92FF8460DD
:103D10008093A00286EE0E94061E882341F09091B7
:103D2000A002892F877F93FF88608093A00283EE93
:103D30000E94061E882341F09091A002892F8F7E59
:103D400094FF80618093A00285E30E94061E882371
:103D500041F09091A002892F8F7D95FF8062809322
:103D6000A00281E30E94061E882341F09091A002E8
:103D7000892F8F7B96FF80648093A00281E10E944F
:103D8000061E882341F09091A002892F97FB87F9A6
:103D900080588093A0028091A0020E94D51C87E2E7
:103DA0000E94061E89838EE10E94061E882319F058
:103DB000B981B260B9838FE10E94061E882319F091
:103DC00029812460298380E20E94061E882319F03D
:103DD00039813860398381E20E94061E882319F0F8
:103DE00049814061498382E20E94061E882319F0BE
:103DF00059815062598383E20E94061E882319F07C
:103E000089818064898384E20E94061E8823B1F13F
:103E100099819068998389810E94CC1C3981232FD4
:103E200030E050E040E029833A834B835C83CA0151
:103E3000B9010F900F900F900F90DF91CF910C94DC
:103E400013198EE00E94061E882339F090916F02AC
:103E5000892F8B7F92FF846029CF80E10E94061E0C
:103E600090916F02882329F0892F877F93FF8860C4
:103E70001DCF892F8E7F90FF816018CFA981A1115E
:103E8000CACF0E94C81C282FCBCF0F900F900F9045
:103E90000F90DF91CF9108958091730280FF12C03F
:103EA0006091050185E0689FB001112475956795C3
:103EB0007595679560387105A8F561157105A1F1D3
:103EC000862F089581FF09C06091050185E0689FF4
:103ED000B001112475956795EDCF6091050182FDC4
:103EE0000AC0809174028823D1F0909104016091FE
:103EF0000501891728F085E0689FB0011124DACF09
:103F0000869FB001112485E0869F9001879F300D28
:103F10001124692F70E0C9010E94CF29CBCF65E041
:103F200070E0CECF8FE7089581E00895809173020D
:103F300080FF0CC06091030170E0759567957595E1
:103F400067956115710549F1862F089581FF06C0B7
:103F50006091030170E075956795F3CF609103015F
:103F600082FD0BC0909174029923A1F0609102012F
:103F700080910301961738F0682F70E06038710562
:103F800000F38FE70895899FC001112470E00E941B
:103F9000CF29F4CF61E070E0D7CF81E00895803F72
:103FA00031F40E944C1F8195809377020895813FE0
:103FB00019F40E944C1FF8CF823F31F40E944C1F2D
:103FC0008195809376020895833F19F40E944C1FD7
:103FD000F8CF893F29F40E94961F809378020895B4
:103FE0008A3F21F40E94961F8195F7CF8B3F31F4D1
:103FF0000E94961F81958093790208958C3F19F451
:104000000E94961FF8CF843F31F480917502816041
:10401000809375020895853F21F480917502826036
:10402000F7CF863F21F4809175028460F1CF873FFE
:1040300021F4809175028860EBCF883F21F4809154
:1040400075028061E5CF8D3F31F48091730281600C
:104050008093730208958E3F21F4809173028260F1
:10406000F7CF8F3FB9F7809173028460F1CF9091C1
:104070007602803F41F48091770287FD10927702AB
:10408000992371F00895813F29F4809177021816E1
:10409000ACF3F6CF823F81F497FFF2CF1092760215
:1040A0008091770290917802892B90917902892BE7
:1040B00049F7109274020895833F19F4191674F3A6
:1040C000DFCF893F39F4809178021816CCF6109230
:1040D0007802D6CF8A3F29F48091780287FFD0CF2B
:1040E000F6CF8B3F39F48091790287FFC9CF1092C8
:1040F0007902C6CF8C3F29F4809179021816BCF35F
:10410000BFCF843F31F4809175028E7F809375021A
:10411000B7CF853F21F4809175028D7FF7CF863F21
:1041200021F4809175028B7FF1CF873F21F480913C
:104130007502877FEBCF883F21F4809175028F7ED7
:10414000E5CF8D3F31F4809173028E7F80937302AF
:1041500097CF8E3F21F4809173028D7FF7CF8F3FF1
:1041600009F08ECF809173028B7FF0CF85E792E0CC
:104170000E9490100E94531D9093720280937102CE
:1041800008951F93CF93DF9300D000D000D0CDB718
:10419000DEB780917102909172020E945F1DAC01A6
:1041A000809174022091060130E0811106C02091B7
:1041B00007019AE0299F900111244217530788F0C4
:1041C00020917602A0917702A98310917802B09194
:1041D0007902BE8321110FC09A2F912B9B2B09F0DE
:1041E000B2C026960FB6F894DEBF0FBECDBFDF91EA
:1041F000CF911F9108958F3F19F08F5F80937402C4
:10420000121624F40E944C1F80937602809176024D
:1042100087FF05C00E944C1F8195809376022981FB
:10422000121624F40E944C1F80937702809177022B
:1042300087FF05C00E944C1F819580937702809173
:104240007602882309F455C0309177023D833323E9
:1042500009F44FC0282F880F330B440B550B2983CB
:104260003A834B835C83CA01B9010E94D62823E3B9
:1042700033E343E35FE369837A838B839C836981C0
:104280007A818B819C810E943A2969837A838B830E
:104290009C8369817A818B819C810E949E28609396
:1042A00076028D81082E000C990BAA0BBB0B89831B
:1042B0009A83AB83BC83BC01CD010E94D62823E343
:1042C00033E343E35FE369837A838B839C83698170
:1042D0007A818B819C810E943A2969837A838B83BE
:1042E0009C8369817A818B819C810E949E28609346
:1042F0007702111624F40E94961F80937802809111
:10430000780287FF05C00E94961F819580937802EE
:104310009E81191624F40E94961F80937902809141
:10432000790287FF05C00E94961F819580937902CC
:1043300026960FB6F894DEBF0FBECDBFDF91CF91AA
:104340001F910C94B6208F3F09F057CF68CF85E0BE
:10435000E5E7F2E0DF011D928A95E9F71092740219
:1043600010927302089580919A020895CF93DF937B
:1043700000D00F92CDB7DEB72091A602243019F5F8
:1043800023E029838A839B832093E9008FEF909118
:10439000E800815095FD06C095ED9A95F1F7000073
:1043A0008111F5CF8091E80085FF0DC050E040E01D
:1043B00063E070E0CE0101960E9413248091E80032
:1043C0008E778093E8000F900F900F90DF91CF9140
:1043D0000895CF93DF9300D00F92CDB7DEB79C0145
:1043E0008091A602843031F582E08983205831091A
:1043F0003B832A8383E08093E9008FEF9091E8006C
:10440000815095FD06C095ED9A95F1F70000811158
:10441000F5CF8091E80085FF0DC050E040E063E0FB
:1044200070E0CE0101960E9413248091E8008E77FF
:104430008093E8000F900F900F90DF91CF91089537
:104440002091A6022430F1F422E02093E9002FEF1E
:104450003091E800215035FD06C035ED3A95F1F771
:1044600000002111F5CF2091E80025FF0BC050E09E
:1044700040E065E070E00E9413248091E8008E77B0
:104480008093E8000895CF93DF93D82FC92F8091B0
:10449000A6028430F1F4909112019923E9F09091F1
:1044A000A00297FF19C08093E9008FEF9091E80078
:1044B000815095FD06C095E19A95F1F700008111B4
:1044C000F5CF8091E80050E040E060E270E085FDCB
:1044D0001AC0DF91CF91089581E08093E9008FEFBA
:1044E0009091E800815095FD06C095ED9A95F1F701
:1044F00000008111F5CF8091E80085FFEACF50E000
:1045000040E068E070E08D2F9C2F0E941324809182
:10451000E8008E778093E80080E2ED2FFC2FAAE779
:10452000B2E001900D928A95E1F7D3CF8091A50278
:10453000811109C00E949B250E94FD258091E20007
:1045400084608093E20008951092A5020895089572
:1045500008950C941D1D42E061EC81E00E94172536
:1045600042E061EC82E00E94172542E061EC83E0CA
:104570000E94172542E261EC84E00C94172580919B
:10458000A802893089F148F4823009F494C083305C
:1045900009F44FC0813041F008958A3009F47BC09E
:1045A0008B3009F461C008958091A702813A09F027
:1045B0003FC08091E800877F8093E8008091AB0244
:1045C0009091AC02892B61F460E28AE792E070E09E
:1045D0000E9462248091E8008B778093E800089520
:1045E00060E090E080E0F3CF8091A702813201F596
:1045F0008091AB029091AC02009711F00397C1F447
:104600008091E800877F8093E8008091E80082FF36
:104610000BC08091F10080939A028091E8008B7723
:104620008093E8000C944B258091A6028111EDCF78
:1046300008958091A702813AD9F78091AB029091B9
:10464000AC02892BA9F78091E800877F8093E8006E
:104650008091E80080FFFCCF809112018093F100EF
:104660008091E8008E77DCCF8091A702813201F73C
:104670008091AB029091AC02892BD1F68091E80039
:10468000877F8093E8000E944B258091A902809348
:1046900012010C9474158091A702813249F6809121
:1046A000E800877F8093E8000E944B258091AA0252
:1046B00080939B0208958091A702813A09F0B8CFB8
:1046C0008091E800877F8093E8008091E80080FF78
:1046D000FCCF80919B02C2CF84B7877F84BF0FB687
:1046E000F894A89580916000886180936000109292
:1046F00060000FBE80E880936100109261000E940C
:10470000C8100E949B250E94FD258091E2008460D4
:104710008093E20078940E9483280E94CA1088E067
:1047200091E00E9474108091A602853019F00E94D9
:10473000D010F9CF0E94DA1C8091A402882399F34B
:104740000E94081D882379F30E94FD23ECCF9C0171
:10475000DA01892F992783309105C1F068F48130FF
:10476000910509F445C0029761F48DE690E028E6D2
:1047700035E12D933C93089581329105E1F08297C4
:1047800039F190E080E030E020E0F3CFC9019927D3
:10479000213059F08230910559F0E4E6F5E1892B9A
:1047A00081F7849190E09F01E4CFECE4F5E1F9CF4B
:1047B000E8E3F5E1F6CF643020F7E62FF0E0EE0F06
:1047C000FF1FE75CFE4F2081318189E090E0D1CF6F
:1047D0006430B8F670E0FB01EE0FFF1FEF5CFE4F98
:1047E00020813181635D7E4FFB01808190E0C1CFEC
:1047F00082E190E025ED35E1BCCF84E189BD86E121
:1048000089BD09B400FEFDCF8091D8008F7D8093D3
:10481000D8008091E00082608093E0008091E00009
:1048200081FDFCCF0895AF92BF92CF92DF92FF92AD
:104830000F931F93CF93DF936C01EB018A010E94CA
:104840006A25F82E811123C00115110539F0F801F0
:1048500080819181C81BD90BC80ED91EB12CA12C07
:104860002097A9F08091E80085FD22C08091E800A2
:104870008E778093E80001151105A1F0F801808181
:104880009181A80EB91EB182A08285E0F82E8F2DED
:10489000DF91CF911F910F91FF90DF90CF90BF904C
:1048A000AF9008950E946A258823D1F2F82EEFCFA9
:1048B000F60181916F018093F1002197FFEFAF1A0C
:1048C000BF0ACECFFC01CB012091AD023091AE02E8
:1048D0002617370790F0009729F42091E8002E77EB
:1048E0002093E80040E0009751F4411108C0809106
:1048F000E80082FF31C080E00895C901F3CF209124
:10490000A6022223A9F12530A9F12091E80023FD78
:104910002DC02091E80022FDEACF2091E80020FF81
:10492000E2CF2091F2003091F300009719F0283087
:10493000310558F041E02830310509F040E0209180
:10494000E8002E772093E800CECF41914093F1000C
:1049500001972F5F3F4FE9CF8091A602882341F056
:10496000853041F08091E80083FFC1CF81E0089558
:1049700082E0089583E00895FC01CB012091AD020F
:104980003091AE022617370790F0009729F4209156
:10499000E8002E772093E80040E0009751F44111A1
:1049A00008C08091E80082FF32C080E00895C9010C
:1049B000F3CF2091A6022223B1F12530B1F120914D
:1049C000E80023FD2EC02091E80022FDEACF2091CF
:1049D000E80020FFE2CF2091F2003091F300009731
:1049E00019F02830310558F041E02830310509F040
:1049F00040E02091E8002E772093E800CECF44914C
:104A00004093F100319601972F5F3F4FE8CF80919F
:104A1000A602882341F0853041F08091E80083FFB1
:104A2000C0CF81E0089582E0089583E00895982F33
:104A3000973028F08F708093E90081E0089590937B
:104A4000E900242F762F50E0981731F07091EC0098
:104A50002091ED005091F00021FD02C09F5FE8CF52
:104A60003091EB003E7F3093EB003091ED003D7FC5
:104A70003093ED003091EB0031603093EB00709398
:104A8000EC002093ED005093F0002091EE0027FD04
:104A9000E5CF80E008958091A70287FF13C0809141
:104AA000E80082FF06C08091E8008B778093E800E1
:104AB00004C08091A6028111F2CF08958091A602D0
:104AC0008823D9F38091E80080FFF8CF8091E80037
:104AD0008E77ECCF2091E4003091E50095E6A901B6
:104AE0002091EC00822F817020FF06C08091E800A9
:104AF00080FF06C080E008952091E80022FD1AC0E2
:104B00008091A602882389F0853089F08091EB009E
:104B100085FD0FC02091E4003091E5004217530756
:104B2000F9F29150E1F684E0089582E0089583E07F
:104B3000089581E008950E940C260E941426E0EE5C
:104B4000F0E0808181608083E8EDF0E080818F7704
:104B5000808319BCA7EDB0E08C918E7F8C9380810F
:104B60008F7E80831092A50208950F931F93CF9399
:104B7000DF930E940C260E941426C8EDD0E08881A5
:104B80008F77888388818068888388818F7D8883F8
:104B9000E7EDF0E080818068808319BC1092A60266
:104BA0001092A2021092A4021092A30200EE10E052
:104BB000F80180818B7F808388818160888342E0D7
:104BC00060E080E00E941725E1EEF0E080818E7FBA
:104BD0008083E2EEF0E08081816080838081886064
:104BE0008083F80180818E7F8083888180618883C3
:104BF000DF91CF911F910F910895E8EDF0E0808152
:104C00008F7E8083E7EDF0E080818160808381E0AA
:104C10008093A5020C94B525E8EDF0E080818C7FAF
:104C200080831092E20008951092DA001092E10061
:104C300008951F920F920FB60F9211240BB60F9288
:104C40002F933F934F935F936F937F938F939F9394
:104C5000AF93BF93EF93FF938091E10082FF0BC06E
:104C60008091E20082FF07C08091E1008B7F8093FA
:104C7000E1000E9482288091DA0080FF19C08091B3
:104C8000D80080FF15C08091DA008E7F8093DA0013
:104C90008091D90080FF96C084E189BD86E189BDFD
:104CA00009B400FEFDCF81E08093A6020E94962207
:104CB0008091E10080FF19C08091E20080FF15C063
:104CC0008091E2008E7F8093E2008091E20080611B
:104CD0008093E2008091D80080628093D80019BC54
:104CE00085E08093A6020E94A8228091E10084FFC3
:104CF00029C08091E20084FF25C084E189BD86E15E
:104D000089BD09B400FEFDCF8091D8008F7D8093CE
:104D1000D8008091E1008F7E8093E1008091E200D5
:104D20008F7E8093E2008091E20081608093E200B8
:104D30008091A202882309F44BC084E08093A602EC
:104D40000E94A9228091E10083FF29C08091E200A6
:104D500083FF25C08091E100877F8093E10082E09E
:104D60008093A6021092A2028091E1008E7F809330
:104D7000E1008091E2008E7F8093E2008091E2006A
:104D800080618093E20042E060E080E00E941725AD
:104D90008091F00088608093F0000E94A722FF912C
:104DA000EF91BF91AF919F918F917F916F915F91A3
:104DB0004F913F912F910F900BBE0F900FBE0F9010
:104DC0001F90189519BC1092A6020E94A42270CFC1
:104DD0008091E30087FD02C081E0B0CF83E0AECFD9
:104DE0001F920F920FB60F9211240BB60F922F93B2
:104DF0003F934F935F936F937F938F939F93AF9363
:104E0000BF93CF93DF93EF93FF93D091E900DF70CF
:104E10008091EC00C82FC17080FDC0E81092E900BD
:104E20008091F000877F8093F00078940E9438276B
:104E30001092E9008091F00088608093F000CD2B03
:104E4000CF70C093E900FF91EF91DF91CF91BF91B7
:104E5000AF919F918F917F916F915F914F913F9112
:104E60002F910F900BBE0F900FBE0F901F901895B3
:104E70001F93CF93DF93CDB7DEB7AA970FB6F89401
:104E8000DEBF0FBECDBF87EA92E0FC010196209104
:104E9000F100208322E08F3A9207B9F70E94BF22E7
:104EA0008091E80083FF16C18091A7029091A8022B
:104EB0009A3008F00FC1E92FF0E0E65AF54D0C9456
:104EC000E329803881F0823809F004C18091AB0277
:104ED0008F708093E9008091EB0085FB882780F933
:104EE0001092E90006C08091A3029091A402911152
:104EF00082609091E800977F9093E8008093F100A2
:104F00001092F1008091E8008E77E0C0882309F4C8
:104F1000CEC0823009F0DEC08091A9028111D1C0DB
:104F20008091AB028F7009F4D5C08093E900209185
:104F3000EB0020FFC6C0933031F48091EB0080621B
:104F40008093EB00BEC09091EB0090619093EB00DA
:104F500021E030E001C0220F8A95EAF72093EA00B1
:104F60001092EA008091EB008860EACF8111B2C014
:104F70001091A9021F778091E3008078812B8093A4
:104F8000E3008091E800877F8093E8000E944B2532
:104F90008091E80080FFFCCF8091E30080688093DF
:104FA000E30082E0111183E08093A60293C0805851
:104FB000823008F08FC08091A9029091AA028C3DA6
:104FC00023E09207A1F583E08A838AE289834FB7C1
:104FD000F894DE01139620E03EE051E2E32FF0E08A
:104FE00050935700E49120FF03C0E295EF703F5FBC
:104FF000EF708E2F90E0EA30C0F0C7968D939D93AE
:105000002F5F243159F74FBF8091E800877F80934D
:10501000E8006AE270E0CE0101960E94622480916D
:10502000E8008B778093E80055C0C096E7CFAE01CB
:105030004F5F5F4F6091AB020E94A723BC01892B99
:1050400009F448C08091E800877F8093E800898157
:105050009A810E94BC24E3CF8038E1F58091E8007A
:10506000877F8093E8008091A2028093F1004ACF6D
:10507000811130C09091A902923060F58091E800D2
:10508000877F8093E8009093A2020E944B25809135
:10509000A202882311F084E005C08091E30087FD1F
:1050A000FACF81E08093A6020E94AB2213C08091C8
:1050B000A902813079F481E0933009F080E0809397
:1050C000A4021092E9008091E800877F8093E800B5
:1050D0000E944B258091E80083FF0AC08091E80080
:1050E000877F8093E8008091EB0080628093EB00E3
:1050F000AA960FB6F894DEBF0FBECDBFDF91CF9159
:105100001F9108950895CF938091A6028823A1F05E
:10511000C091E900CF709091EC00892F817090FDD3
:1051200080E8C82B1092E9008091E80083FD0E947E
:105130003827CF70C093E900CF9108950E94A52829
:105140006894B1110C94342908950E94192988F0AB
:105150009F5798F0B92F9927B751B0F0E1F0660F3B
:10516000771F881F991F1AF0BA95C9F714C0B1307C
:1051700091F00E943329B1E008950C943329672FF0
:10518000782F8827B85F39F0B93FCCF386957795AB
:105190006795B395D9F73EF4909580957095619594
:1051A0007F4F8F4F9F4F0895E89409C097FB3EF4BF
:1051B00090958095709561957F4F8F4F9F4F992364
:1051C000A9F0F92F96E9BB279395F69587957795E2
:1051D0006795B795F111F8CFFAF4BB0F11F460FFA2
:1051E0001BC06F5F7F4F8F4F9F4F16C0882311F0FA
:1051F00096E911C0772321F09EE8872F762F05C00E
:10520000662371F096E8862F70E060E02AF09A95A8
:10521000660F771F881FDAF7880F9695879597F99D
:10522000089557FD9058440F551F59F05F3F71F096
:105230004795880F97FB991F61F09F3F79F08795FD
:105240000895121613061406551FF2CF4695F1DF86
:1052500008C0161617061806991FF1CF8695710516
:10526000610508940895E894BB2766277727CB014A
:1052700097F908950E944D290C94BE290E94B029E7
:1052800038F00E94B72920F0952311F00C94A7293B
:105290000C94AD2911240C9434290E94112970F327
:1052A000959FC1F3950F50E0551F629FF001729FCB
:1052B000BB27F00DB11D639FAA27F00DB11DAA1FDA
:1052C000649F6627B00DA11D661F829F2227B00D27
:1052D000A11D621F739FB00DA11D621F839FA00DB2
:1052E000611D221F749F3327A00D611D231F849F02
:1052F000600D211D822F762F6A2F11249F57504059
:105300009AF0F1F088234AF0EE0FFF1FBB1F661FD3
:10531000771F881F91505040A9F79E3F510580F09C
:105320000C94A7290C9434295F3FE4F3983ED4F3FE
:10533000869577956795B795F795E7959F5FC1F740
:10534000FE2B880F911D9695879597F9089597F9EB
:105350009F6780E870E060E008959FEF80EC08951B
:1053600000240A9416161706180609060895002444
:105370000A9412161306140605060895092E0394BE
:10538000000C11F4882352F0BB0F40F4BF2B11F432
:1053900060FF04C06F5F7F4F8F4F9F4F089597FB53
:1053A000072E16F4009407D077FD09D00E94EC294F
:1053B00007FC05D03EF4909581959F4F0895709518
:1053C00061957F4F0895EE0FFF1F0024001C0BBE58
:1053D0000790F691E02D0994AA1BBB1B51E107C071
:1053E000AA1FBB1FA617B70710F0A61BB70B881F75
:1053F000991F5A95A9F780959095BC01CD01089504
:10540000F999FECF92BD81BDF89A992780B508958C
:10541000A8E1B0E042E050E00C94282A262FF99948
:10542000FECF92BD81BDF89A019700B4021639F003
:105430001FBA20BD0FB6F894FA9AF99A0FBE0895D4
:105440000196272F0E940F2A0C940E2ADC01CB0113
:10545000FC01F999FECF06C0F2BDE1BDF89A319684
:1054600000B40D9241505040B8F70895F894FFCF22
:10547000760C820C860C8A0C8E0C920C960C9A0C74
:105480009E0CA20CA60CAA0CAE0CB20CB60CBA0C5C
:10549000BE0CC20C1F131F1377137713BB13D71344
:1054A0004F134F13E2134F13AA14AA1415154F13D9
:1054B0004F131E15612786276A2886276A28B62774
:0854C000D7276A282C283828A0
:1054C8004C022808140A321EB32143222022E92163
:1054D800B621013790919293C1606162636494959B
:1054E80097C036353433323130C6C7F0F1404D36C7
:1054F80039A31656162016E7157A159315AC15C557
:0255080015008C
:00000001FF
